:4000000000800020110000002D0F00002D0F000080B500AF024A034B1B68136000F0B8FFBC760040FA4600400100000000200040010000000020014001000000004800403E
:400040000100000000480140010000000100000008000223000008760800032300001076080004230000287608000523000030760500062300002070050007230000307065
:4000800005000823000060700500FE23000070701000FE220000C05180030B220000000080010C220000000480010D220000000600020E220000000E80020F2200000014D9
:4000C00080001022000000418001112200000042800012220000004580001322000000470001FE2200000049070015230000085207001623000010520700172300002852C2
:400100000700182300003052400019230000006420001A230000706440001B23000000652000FE230000706508001D230000005180001E230000000880001F230000800845
:40014000800020230000000A800021230000800A800022230000000C800023230000800C800024230000801680002523000000188000262300008018800027230000001ABF
:40018000800028230000801A100029230000105010002A230000005080002B230000004D80002C230000804D80002D230000004C80002E230000804C80002F230000804768
:4001C00080003023000000468000312300008046800032230000804580003323000000448000342300008044800035230000001B800036230000801B8000372300000019A3
:400200008000382300008019800039230000001780003A230000801780003B230000000980003C230000800980003D230000800780003E230000000B80003F230000800BD4
:400240008000402300008005800041230000000D800042230000800D8000432300008003800044230000004880004523000080488000462300008043800047230000804114
:4002800080004823000000408000FE230000804010B5054C237833B9044B13B10448AFF300800123237010BDF881FF1F00000000B8580000084B10B51BB108490848AFF342
:4002C00000800848036803B910BD074B002BFBD0BDE81040184700BF00000000FC81FF1FB8580000C880FF1F0000000080B58AB000AF3B4600221A605A609A60DA6062B68D
:4003000001F0FCFE01F070FD02F078FB02F048FC02F0E6FD02F028FD02F04AFE00F0BCFF4FF47A7001F0DEFC01F0F4F90023FB7701F02EF8994B1B78002B04D102F07CFDA4
:4003400002F050FE03E002F033FE02F08FFD934B1B785B00DBB2184601F064FD01F0E6FE8F4B00221A7001F04DF800F02BF90023BB7701F095FA01F00BF88A4B1B881A466A
:40038000894B1B88D31A894A12789342CCBF01230023DBB2BB61BB69002B03D0012002F02FFE02E0002002F02BFE814B00221A70804B00221A7026E07D4B1B785A1CD1B264
:4003C0007B4A11701A467B4B1B7819467A4B53F821301B12D9B2794B9954754B1B785A1CD1B2734A11701A46724B1B781946724B53F82130D9B2714B99546E4B1B7801332F
:40040000DAB26C4B1A706B4B1B78012BD4D96B4B00221A71694B00225A71684BFE229A71664BFD22DA71664B00221A70644B00225A70634BFE229A70614BFD22DA7000BF2C
:4004400000F0D2FF0346002BFAD15A4B00221A703AE0584B1B781A46524B33F812301A46544B1B781946504B33F81130D31A514A127811464D4A525C9342CCBF0123002324
:40048000DBB27B614E4B1B785AB24A4B1B7819467B698B405BB213435BB2DAB2484B1A70464B1B795AB2434B1B7819467B698B405BB213435BB2DAB2404B1A713D4B1B78BF
:4004C0000133DAB23B4B1A703A4B1B78072BC0D9384B08221A703CE0364B1B781A46314B33F812301A46334B1B7819462E4B33F81130D31A2F4A127811462C4A525C9342A4
:40050000CCBF01230023DBB23B612D4B5B785AB2284B1B78083B396901FA03F35BB213435BB2DAB2264B5A70244B5B795AB2214B1B78083B396901FA03F35BB213435BB2C2
:40054000DAB21E4B5A711B4B1B780133DAB2194B1A70184B1B780B2BBED900237B6209E0174A7B6A13441B78184602F081FA7B6A01337B627B6A032BF2DD00233B6209E0EC
:400580000E4A3B6A13441B78184602F043FB3B6A01333B623B6A072BF2DDE4E61C82FF1F1D82FF1FF482FF1F4083FF1FCC80FF1F1582FF1F1482FF1F7C82FF1FC082FF1FA3
:4005C0009482FF1F90B583B000AF012001F0CEFD0346002B00F08880454B1B78002B13D101F0EAFD0246434B1A60434B1B785B00DBB20133DBB2184601F014FC01F096FD50
:400600003B4B02221A706FE0394B1B78022B6BD101F0D2FD0246394B1A60384B1A68384B1B68D31A354A1360344B1B68354A934209DD304B1B68344A934204DC334B4FF697
:40064000FF721A601CE02D4B1B68184603F002F80446284B1B68184602F0FCFF03461946204603F0FFF803467B602949786803F045F80346184603F091F90246234B1A60D0
:40068000224B1B68B3F5803F03DB204B4FF6FF721A60194B1B7819461C4B1B681D4A42F82130154B1B78002B0CBF01230023DBB21A46114B1A70104B1B78002B04D102F055
:4006C000BBFB02F08FFC03E002F072FC02F0CEFB094B1B785B00DBB2184601F0A3FB01F025FD034B00221A7000BF0C37BD4690BD1D82FF1F2082FF1F1C82FF1F2482FF1FB1
:400700002C82FF1F503403003F0D03002882FF1F0000FA467C82FF1F80B584B000AFF860B9607A607A68B968F86803F089F900BF1037BD4680BD00BF80B483B000AF034654
:40074000FB71FEE780B483B000AF434B00221A60424B10221A70424B01221A70414B00221A70414B4FF410721A80404B01221A703F4B03221A703F4B3F4A92B21A803F4B56
:4007800047F608021A803E4B00221A803D4B4FF480421A803C4B09221A703C4B0A221A703B4B14221A703B4B1C221A70BFF35F8F394B01221A70BFF35F8F00BF2A4B1B8897
:4007C0009BB2002BFAD100237B600DE07B68DA00324B13441946324A7B6852F823309BB20B807B6801337B607B68472BEED9BFF35F8F294B01221A70BFF35F8F00BF294B65
:400800001B78DBB203F00103002BF8D100BF264B1B78DBB203F00103002BF8D100BF234B1B78DBB203F00103002BF8D100BF204B1B78DBB203F00103002BF8D100BF1D4BDE
:400840001B78DBB203F00103002BF8D100BF0C37BD4680BC704700BF3882FF1F007600401070004019700040007800400278004003780040047800405000000006780040A8
:40088000047600400676004029700040397000406970004079700040147000400C78004070590000187000402870004038700040687000407870004080B582B000AF454BFF
:4008C00000221A80444B50221A70444B00221A80434B19221A70434B26221A80424B18221A70424B26221A80414B18221A70042240494148FFF710FF404B06221A70404B8E
:40090000404A1278D2B21A703F4B52221A703F4B40F21A721A803E4B42F251221A800023FB7019237B6013E0FB785B00DAB2394B1B78DBB203F00103DBB21343DBB203F071
:400940000303FB70782002F07BFB7B68013B7B607B68002B02D0FB78032BE5D17B68002B02D10320FFF7E8FE2B4B4FF480721A80294B07221A70294B00221A70284B48228C
:400980001A70254B00221A70264B00221A70264B02221A70254B04221A70254A244B1B78DBB243F00F03DBB21370224A214B1B78DBB243F00103DBB213701F4A1E4B1B783E
:4009C000DBB263F07F03DBB2137000BF0837BD4680BD00BF80400040824000408440004086400040884000408A4000408C4000408E400040481600480041004000430040A6
:400A0000A14600400F0100490042004022420040204200402542004004400040064000400840004009400040014000400B400040A2430040A1430040A043004080B483B0CD
:400A400000AF1D4B1B78FB711C4AFB7903F00703DBB213701A4AFB791B09DBB21370194B02221A70184B24221A70184B10221A70174B09221A70174B00221A70164B202241
:400A80001A70164B40221A70154B10221A70154B60221A70144B154A1A60154B40F201121A80144BC0221A70134B66221A7000BF0C37BD4680BC7047CF0100496E5800400E
:400AC0006F5800403D5100404D510040FD5100406C58004070580040C35A0040CB5A0040CC5A0040D85A0040405B004002040101465B0040585B00407658004080B485B0E1
:400B000000AF0346FB71FB79012202FA03F3FB73FB79042B3BD8204B1A78FB7B1340DBB2002B34D11C4B1A78FB7B1343DAB21A4B1A70FB79194A52F82330FA79174951F851
:400B400022201178FA791648825C0A43D2B21A70FB79144AD35CBB73BB7B134AD35C002B0ED1BB7B114A52F82330BA7B0F4951F822201178BA7B0E48825C0A43D2B21A7012
:400B8000BB7B094AD25C0132D1B2074AD15400BF1437BD4680BC70473082FF1FC0580000D4580000E85800003482FF1FDC580000E458000080B485B000AF0346FB71FB7979
:400BC000012202FA03F3FB73FB79042B41D8234B1A78FB7B1340DBB2002B3AD0FB7BDB43DAB21E4B1B781340DAB21C4B1A70FB791B4A52F82330FA79194951F822201178E0
:400C0000FA791848825CD243D2B20A40D2B21A70FB79154AD35CBB73BB7B144AD25C013AD1B2124AD154BB7B104AD35C002B10D1BB7B0F4A52F82330BA7B0D4951F82220D4
:400C40001178BA7B0B48825CD243D2B20A40D2B21A7000BF1437BD4680BC70473082FF1FC0580000D4580000E85800003482FF1FDC580000E458000080B483B000AF03469D
:400C8000FB71FB79042B24D8FA79FB791344FB71FB79124A52F82330FA79104951F822201178FA790E48825C0A43D2B21A70FB790133FB71FB79094A52F82330FA790749F5
:400CC00051F822201178FA790548825C0A43D2B21A7000BF0C37BD4680BC7047F05800001859000080B483B000AF0346FB71FB79042B28D8FA79FB791344FB71FB79144A4C
:400D000052F82330FA79124951F822201178FA791048825CD243D2B20A40D2B21A70FB790133FB71FB790A4A52F82330FA79084951F822201178FA790648825CD243D2B211
:400D40000A40D2B21A7000BF0C37BD4680BC7047F05800001859000080B483B000AF0346FB71FB790E2B0ED8FB79094A52F82330FA79074951F822201178FA790548825C33
:400D80000A43D2B21A7000BF0C37BD4680BC7047245900006059000080B483B000AF0346FB71FB790E2B10D8FB790A4A52F82330FA79084951F822201178FA790648825C6E
:400DC000D243D2B20A40D2B21A7000BF0C37BD4680BC7047245900006059000080B500AF72B6364B61221A70FFF766FDFFF7AAFC334B4FF440721A80324B0A221A70324B88
:400E000003221A80314B324A1A60324A314B1B78DBB243F00203DBB213702F4A2E4B1B78DBB243F00203DBB213702C4A2B4B1B78DBB243F04003DBB21370294A284B1B78BC
:400E4000DBB243F01003DBB21370082225492648FFF762FC082225492548FFF75DFC082224492548FFF758FC082224492448FFF753FC082223492448FFF74EFC0822234973
:400E80002348FFF749FC082222492348FFF744FC082222492248FFF73FFC224A214B1B78DBB243F00803DBB21370FFF7C7FD0E220A491D48FFF730FC00BF80BD0048004098
:400EC000705800408358004048580040D8080140040400840350014013500140A0430040C2430040081600480251004010160048F251004018160048125100402016004821
:400F000022510040281600483251004030160048425100403816004852510040401600486251004022430040B043004080B500AF02F05AFD03461B680C2B00D1FEE7FEE7A7
:400F400080B584B000AF78600F4B1A687B6813441A460E4BD31A802B09DC0B4B1B68FB60094B1A687B681344074A136007E002F03BFD02460C2313604FF0FF33FB60FB6803
:400F800018461037BD4680BDD880FF1F8083FF1F80B586B000AF224B7B61224B3B61204B7B6135E03B691B68FB603B695B68BB603B699B683B6000237B600CE0FB681A68D8
:400FC000BB681A60BB680433BB60FB680433FB607B6804337B607A683B689A42EED13B69DB683B6000237B6008E0BB6800221A60BB680433BB607B6804337B607A683B68BF
:401000009A42F2D13B6910333B617B69013B7B617B69002BC6D102F0EDFCFFF767F9FEE701000000545C000080B582B000AF184B184A1A60184A184B1B6843F4007313606B
:4010400000237B600FE07B68032B04D8134A7B6852F8233000E0124B12497A6841F822307B6801337B607B682F2BECD90E4B1B78DAB20E4B1A700E4B0A4A1A60FFF7AEFE9C
:401080000C4B00221A6000BF0837BD4680BD00BF0CED00E00004FA0514ED00E0000000002D0F00000080FF1FBC760040C480FF1F08ED00E0C080FF1F80B582B000AF00F09C
:4010C000A1F9022000F0B0FA01F0C2FF0346FB713B4A3B4B1B78DBB243F00303DBB21370384A384B1B78DBB243F00303DBB21370FB79184601F0B0FF334B4FF434421A800E
:40110000324B4FF6FF721A80314B01221A7001F09FFF0346FB712F4A2E4B1B78DBB243F00303DBB213702C4A2B4B1B78DBB243F00303DBB21370FB79184601F08DFF274B04
:40114000FF221A70264BFF221A70264BFF221A70254BFF221A70254BFF221A70244BFF221A70244B01221A602349002000F0F0FD0721002000F014FE00F074FD0C20FFF7FA
:40118000EBFD0D20FFF7E8FD0E20FFF7E5FD1B4A1A4B1B78DBB243F00403DBB2137000F0F9FB00F087FC002000F0E2FC042000F0FFFC002000F01CFD00BF0837BD4680BD4A
:4011C0009A6400409B6400402A6400404A64004089640040986400409865004028640040486400400864004028650040586500404865004080E100E01D1900007B6400405F
:4012000080B582B000AF01F023FF0346FB711C4A1B4B1B78DBB243F02003DBB2137000F03BFD00F0EBFB00F069FC164A154B1B78DBB243F01003DBB21370134A124B1B78A8
:40124000DBB243F01003DBB21370104A0F4B1B78DBB243F00103DBB21370FB79184601F0FBFE0B4B01221A600A4A0A4B1B78DBB263F07F03DBB2137000BF0837BD4680BDD5
:4012800099640040BB430040AB4300407058004000E100E07B64004080B500AF064B1B78002B04D1FFF708FF034B01221A70FFF7A7FF00BF80BD00BF3C82FF1F80B485B041
:4012C00000AF0346FB71FB790133FB71FB790C2B12D0FB79DB08FB73FB7903F00703012202FA03F3BB73FB7B074AD25CBB7B1340DBB2002BE7D000E000BFFB7918461437C7
:40130000BD4680BC704700BFDC80FF1F80B584B000AF0346FB71FB790B4AD35CFB73FB790A4AD35C184600F063FC094AFB7B0949CB5C1370084B1B78184600F05FF900BF97
:401340001037BD4680BD00BFF85A0000E080FF1F586400404082FF1FEC80FF1F80B582B000AF0346FB71084B00221A70074AFB791370054B81221A70FB79184600F0C4F8E4
:4013800000BF0837BD4680BD0D83FF1F0C83FF1F80B500AF124B00221A70124BFF221A70104B1B78DBB21846FFF788FF03461A460C4B1A700B4B1B78DBB20B2B0DD8084BDB
:4013C0001B78DBB243F00103DAB2054B1A70054B1B78DBB2184600F097F800BF80BD00BF0D83FF1F0C83FF1F80B400AF044B1B78DBB203F00103DBB21846BD4680BC7047A3
:401400000D83FF1F80B582B000AF0023FB7106E0FB79184600F040F8FB790133FB71FB790B2BF5D900BF0837BD4680BD80B584B000AF0346FB71FB79134AD35CFB73FB7900
:40144000124AD35CBB73FB79114A52F8233009221A70FB7B0F2B01D10723FB73FB7B0D4A52F82330FA7B0B4951F822201178BA7B0A43D2B21A70FB791846FFF76DFC00BFB1
:401480001037BD4680BD00BFC05A0000CC5A0000905A0000D85A000080B584B000AF0346FB71FB79144AD35CFB73FB79134AD35CBB73FB791846FFF76FFCFB7B0F2B01D16B
:4014C0000723FB73FB7B0E4A52F82330FA7B0C4951F822201178BA7BD243D2B20A40D2B21A70FB79074A52F8233009221A7000BF1037BD4680BD00BFC05A0000CC5A000089
:40150000D85A0000905A000080B582B000AF0346FB71FB791846FFF7F9FE104A0F4B1B78DBB243F00103DBB213700D4A0C4B1B78DBB223F00103DBB21370FB791846FFF72D
:4015400075FF064A054B1B78DBB243F00203DBB2137000BF0837BD4680BD00BF7B6400407058004080B582B000AF0346FB711E4A1D4B1B78DBB223F00303DBB21370FB7973
:401580001A4A1278D2B292B2120291B2184A22F81310184B1B78DBB29AB2FB79F979144830F811100A4391B2114A22F81310FB79FA790F4931F81220D24391B20C4A22F89B
:4015C0001310FB791846FFF767FF002000F010FB094A094B1B78DBB243F00103DBB2137000BF0837BD4680BD7B64004018650040F482FF1F086500407058004080B483B0A7
:4016000000AF0346FB71064AFB791370054AFB795B08DBB2137000BF0C37BD4680BC7047296500403965004080B483B000AF0346FB71FB79012B08D10A4A0A4B1B78DBB218
:4016400023F01003DBB2137007E0064A054B1B78DBB243F01003DBB2137000BF0C37BD4680BC70477B64004080B485B000AF0346FB71FB79134AD35CFB73FB79FA791249A3
:4016800031F81210114A22F81310FB79104A0021D154FB790F4A002122F81310FB7BFA7B0D49895C0D4AD154FB79FA79064931F812100B4A22F8131000BF1437BD4680BC0A
:4016C000704700BFF85A0000F482FF1F4083FF1F1C83FF1F2883FF1F3881FF1F4C82FF1F5883FF1F80B582B000AF0346FB71FB791846FFF733FE00BFFFF776FE0346002B0A
:40170000FAD1FB791846FFF7AFFF00BF0837BD4680BD00BF80B582B000AF0023FB7106E0FB791846FFF7DEFFFB790133FB71FB790B2BF5D900BF0837BD4680BD80B586B006
:4017400000AF0346FB71FB794D4AD35C7B757B7D4C4A32F813307B82FB794B4A32F813303B82FB79494A32F813203B8A1146184600F0BEF803463B82FB7944493A8A21F848
:401780001320FB79424A32F813303A8A9A4209D3FB793F4A32F813303A8AD31AFB8201237B7508E0FB793A4A32F813203B8AD31AFB8200237B757B7D002B18D1FB8A142B12
:4017C00015D9FB79334AD35C1D2B08D9FB791846FFF74AFFFB792F4A0021D1543AE0FB792C4AD25C0132D1B22A4AD15432E0FA8A7B8A9A4205D9FB8A132B2BD87B7D002BAF
:4018000028D1FB79224A32F813301B02FB60FB79214AD35C1A46FB681343FB603B8AFA681344FB60FB791A4A32F813301A46FB689B1AFB60FB79FA68120A91B2144A22F8CA
:401840001310FB79FA68D1B2134AD154FB79114A0021D154FA8A7B8A9A4208D97B7D002B05D0FB790D49FA8A21F8132004E0FB790A4A002122F8131000BF1837BD4680BD25
:40188000F85A00000881FF1FF482FF1F5883FF1F4083FF1F1083FF1F1C83FF1F2883FF1F80B582B000AF0023FB7118E0FB79DB08BB71FB7903F00703012202FA03F37B71F8
:4018C000BB790A4AD25C7B791340DBB2002B03D0FB791846FFF732FFFB790133FB71FB790B2BE3D900BF0837BD4680BDDC80FF1F80B485B000AF03460A46FB801346BB8075
:40190000FA88BB881344FB60FB685B08FB60FB689BB218461437BD4680BC704780B500AF1A4B1B78DBB21846FFF71CFE184B1B78DBB25BB2002B08DA154B1B78DBB223F0B9
:401940000103DAB2124B1A701DE0104B1B78DBB21846FFF7B3FC03461A460C4B1A700B4B1B78DBB20B2B06D8084B1B78DBB21846FFF7CAFD07E0064B1B78DBB223F0010364
:40198000DAB2034B1A7000BF80BD00BF0C83FF1F0D83FF1F80B500AF002000F049F8154A144B1B78DBB243F02003DBB21370114A104B1B78DBB223F00403DBB213700D4ADD
:4019C0000C4B1B78DBB243F00803DBB213700A4A094B1B78DBB223F01803DBB21370064A054B1B78DBB243F01003DBB2137000BF80BD00BF40580040C75A004080B400AF2F
:401A0000094A094B1B78DBB243F00103DBB21370064A064B1B78DBB243F00103DBB2137000BFBD4680BC7047A7430040B743004080B483B000AF0346FB711749164B1B7858
:401A4000DBB25BB223F003035AB297F9073003F003035BB213435BB2DBB20B70FB79012B0AD10E4B0E4A1278D2B21A700D4B0E4A1278D2B21A7009E0084B0C4A1278D2B2C3
:401A80001A70084B0A4A1278D2B21A7000BF0C37BD4680BC704700BF4058004030460040100100493146004014010049AD010049B501004980B500AF0E4B14221A700E4B5D
:401AC00000221A700C4A0C4B1B78DBB243F00403DBB21370084A084B1B78DBB243F00203DBB21370002000F023F800F091F800BF80BD00BF285800402958004080B400AF53
:401B0000094A094B1B78DBB243F00403DBB21370064A064B1B78DBB243F00403DBB2137000BFBD4680BC7047A8430040B843004080B483B000AF0346FB710C4A0B4B1B7864
:401B4000DBB223F00203DBB213700849074B1B78DAB2FB7903F00203DBB21343DBB20B7000BF0C37BD4680BC704700BF2858004080B582B000AF0346FB710C4A0B4B1B7816
:401B8000DBB223F00403DBB213700849074B1B78DAB2FB7903F00403DBB21343DBB20B7000F036F800BF0837BD4680BD2958004080B582B000AF0346FB710C4A0B4B1B782C
:401BC000DBB223F00C03DBB213700849074B1B78DAB2FB7903F00C03DBB21343DBB20B7000F016F800BF0837BD4680BD2858004080B483B000AF0346FB71044AFB791370F7
:401C000000BF0C37BD4680BC704700BF825B004080B483B000AF104B1B78DBB203F00C035B08FB710D4B1B78DBB203F00403DBB2002B02D0FB790133FB71094AFB7903F1A3
:401C4000924303F594731B78DBB2137000BF0C37BD4680BC704700BF28580040295800400A46004080B500AF00F002F800BF80BD80B582B000AF0023FB7106E0FB791846FE
:401C8000FFF78AF8FB790133FB71FB790E2BF5D900BF0837BD4680BD80B400AF094A094B1B78DBB243F00203DBB21370064A064B1B78DBB243F00203DBB2137000BFBD4622
:401CC00080BC7047A2430040B243004080B483B000AF0346FB7101BE00BF0C37BD4680BC704700BF80B582B000AF786008E00C4B1B68184601F0A4F97B68A3F500437B6021
:401D00007B68B3F5004FF2D8064B1B687A6802FB03F3184601F094F900BF0837BD4680BD5081FF1F4881FF1F80B582B000AF0346FB80FB88054A127802FB03F3184601F0EE
:401D40007FF900BF0837BD4680BD00BF4C81FF1F80B584B000AF03463960FB710F4B1B68FB60FB791F2B02D90020FFF7AFFFFB7903F01F0310339B00FA6813441B68BB604A
:401D8000FB7903F01F0310339B00FA6813443A681A60BB6818461037BD4680BD08ED00E080B582B000AF03460A46FB711346BB71BB79072B02D90020FFF788FFFB791F2BCE
:401DC00002D90020FFF782FFFB7903F01F0303F1604303F56443BA795201D2B21A7000BF0837BD4680BD00BF80B582B000AF0023FB710AE0FB791846FEF7DCFEFB7918461F
:401E0000FEF770FFFB790133FB71FB79042BF1D9034BFF221A7000BF0837BD4680BD00BF5481FF1F80B582B000AF0346FB710C4B1B78FF2B04D00A4B1B78184600F012F8E1
:401E4000FB791846FEF75AFEFB791846FEF714FF034AFB79137000BF0837BD4680BD00BF5481FF1F80B582B000AF0346FB71FB791846FEF79FFEFB791846FEF733FF00BF4E
:401E80000837BD4680BD00BF80B582B002AF324B01221A70314B00221A70102000F052FC102000F035FD07211D20FFF779FF2C4B04221A702B4B00221A702B4B00221A707C
:401EC0002A4A2A4B1B78DBB243F01803DBB21370274B00221A70274B00221A70264B00221A70264B0A221A70254B00221A70254B00221A70244B5B221A70244B5E221A70D4
:401F0000234B00221A70234B14221A700123009313234FF4004249F25B11052000F052FA1D4A0D4B1B78DBB2013B1C499B000B449B7813701A4A084B1B78DBB2013B17496C
:401F400031F823301380044B1B78DBB2184600F087F900BFBD4680BD5581FF1F5C82FF1F96580040975800409E580040075B004093580040885B0040895B00408058004067
:401F8000815800408358004088580040895800408D580040014E00400E4E00406482FF1F0C4E004080B582B000AF01F051F80346FB71444B1B78BB71434A434B1B78DBB230
:401FC00043F00103DBB213703F4A3F4B1B78DBB243F01003DBB213703C4A3C4B1B78DBB243F00103DBB21370384A384B1B78DBB243F01003DBB21370354A354B1B78DBB203
:4020000043F00203DBB21370324A324B1B78DBB243F00203DBB213702F4A2F4B1B78DBB243F00303DBB213700320FFF77DFE284A274B1B78DBB223F00203DBB21370254A6C
:40204000244B1B78DBB223F00203DBB21370234A224B1B78DBB243F00603DBB21370204B7A221A701F4A1F4B1B78DBB243F00103DBB213701C4A1C4B1B78DBB243F0010374
:40208000DBB21370194A194B1B78DBB243F00103DBB21370164A164B1B78DBB243F00103DBB21370134B4FF000521A60124B4FF000521A60FB79184600F0CEFF00BF08375C
:4020C000BD4680BD5581FF1FAA430040BA430040F8460040F9460040915800407758004082580040A1430040B1430040A2430040B243004080E200E000E100E080B500AF5A
:40210000084B1B78002B09D1074B1B78DBB2002B01D1FFF7B9FE034B01221A70FFF742FF00BF80BD5E82FF1F5F82FF1F80B400AF054A054B1B78DBB243F00103DBB2137084
:4021400000BFBD4680BC7047004E004080B400AF054A054B1B78DBB223F00103DBB2137000BFBD4680BC7047004E004080B485B000AF0346FB710D4B1B78DBB2002B03D0CD
:402180000B4B1B78FB7305E00A4B1B78DBB203F00103FB73FB7B012B02D0FB79002BEAD0FB7B18461437BD4680BC70475D82FF1F5C82FF1F014E004080B483B000AF224B1C
:4021C0001B78DBB203F00303FB70FB78012B0BD81E4B1B889BB27B607B681B041C4A128892B213437B6020E0FB78022B12D1174B1B889BB27B607B681B04154A1278D2B20F
:4022000013437B60134B1B78DBB21B027A6813437B600AE00E4B1B889BB27B600B4B1B889BB21B047A6813437B600B4B1B78DBB2002B02D0094B00221A707B6818460C3742
:40224000BD4680BC704700BF144E0040124E0040104E0040114E00405D82FF1F5C82FF1F80B582B000AF0346FB71384B00221A70FB79012B66D1364B7C221A70354B002215
:402280001A70354B0A221A70344B3F221A70344B00221A70334B7F221A70334B00221A70324B00221A70324B00221A70314B01221A70314B50221A70304B13221A70304B4E
:4022C0002B221A702F4B00221A702F4B44221A702E4B48221A702E4B02221A702D4B02221A702D4B12221A702C4B28221A702C4BEB221A70442000F01DF92A4B47221A705C
:40230000294B00221A70294B01221A70284B01221A70284B00221A70274B0A221A700B4B01221A70254B4FF4FA321A600121062000F04AF90121192000F02CFA20491D2007
:40234000FFF706FD00BF0837BD4680BD5D82FF1F004E0040024E0040034E0040044E0040054E0040064E0040084E0040094E00400A4E0040144E0040845800408558004021
:4023800086580040875800408A5800408B5800408C5800408E5800408F580040905800409158004094580040955800409A5800409B5800409C5800409D5800407483FF1F9D
:4023C000B125000090B587B000AF0446084611461A462346FB710346BB800B467B801346BB7197F82830002B00F08B8097F82830012B00F28680FB79013B092B4AD801A2A2
:4024000052F823F02D24000095240000952400002D24000095240000952400004724000061240000952400007B240000BB790F2B04D9374B1B78DBB2FB752EE0354B1B78F3
:40244000DBB2FB7529E0BB790F2B04D9324B1B78DBB2FB7521E0314B1B78DBB2FB751CE0BB790F2B04D92E4B1B78DBB2FB7514E02C4B1B78DBB2FB750FE0BB790F2B04D96C
:40248000294B1B78DBB2FB7507E0284B1B78DBB2FB7502E00023FB7500BFBA8897F917305B0113443B617B883A6902FB03F3FB60FB68DB0BBB82BB790D2B12D8BA8ABB794A
:4024C000C3F10E0342FA03F3BB8297F82830013BBA790132D1B2164A9B0013440A469A7007E097F82830013B114A9B0013440F229A7097F82830013B0D49BA8A21F8232045
:4025000002E00020FFF7E2FB00BF1C37BD4690BD180100491C010049190100491D0100491A0100491E0100491B0100491F0100496482FF1F80B584B000AF0346FB7100F077
:4025400087FD0346FB73174A164B1B78DBB243F00303DBB21370144A134B1B78DBB243F00303DBB21370114AFB7913700320FFF7DBFB0C4A0B4B1B78DBB223F00303DBB21D
:402580001370094A084B1B78DBB223F00303DBB21370FB7B184600F05FFD00BF1037BD4680BD00BFF8460040F94600409258004080B500AFFFF7CAFD024B01221A7000BF03
:4025C00080BD00BF5C82FF1F80B584B000AF03460A46FB8013467B7100F0CEF80346FB7300F0A4F80346BB81FA88BB899A4200F08880464B1B78DBB203F00103FB72FB7BCF
:40260000002B20D1BB89002B02D0FB88002B1AD1BB89002B0BD13E4AFB8813803D4A3D4B1B78DBB223F04003DBB2137069E0394A384B1B78DBB243F04003DBB21370344AB3
:40264000FB8813805DE0FB7A002B33D0324B00221A70324B01221A70314B00221A70314A304B1B78DBB203F07F03DBB21370294B1B78DBB203F00803002B02D0FB88002B11
:4026800018D1294ABB891380234B07221A7000BF214B1B78DBB203F00103002BF8D11B4A1A4B1B78DBB223F00103DBB213701A4B00221A70154B1B78DBB203F00103002BCC
:4026C00013D0194AFB881380134A7B79002B01D0032300E00123137000BF0F4B1B78DBB203F00103002BF8D10BE0094AFB8813800649064B1B78DAB2FB7A1343DBB20B707A
:40270000FFE700BF1037BD4680BD00BFA24300408040004082400040014000401040004014400040084000400240004080B400AF034B1B889BB21846BD4680BC704700BFA4
:402740008040004080B483B000AF0346FB710949084B1B78DBB25AB297F9073023F007035BB213435BB2DBB20B7000BF0C37BD4680BC70478240004080B400AF044B1B78A2
:40278000DBB203F00703DBB21846BD4680BC70478240004080B584B000AF03460A46FB8013467B7100F0CEF80346FB7300F0A4F80346BB81FA88BB899A4200F08880464B92
:4027C0001B78DBB203F00103FB72FB7B002B20D1BB89002B02D0FB88002B1AD1BB89002B0BD13E4AFB8813803D4A3D4B1B78DBB223F04003DBB2137069E0394A384B1B7889
:40280000DBB243F04003DBB21370344AFB8813805DE0FB7A002B33D0324B00221A70324B01221A70314B00221A70314A304B1B78DBB203F07F03DBB21370294B1B78DBB267
:4028400003F00803002B02D0FB88002B18D1294ABB891380234B07221A7000BF214B1B78DBB203F00103002BF8D11B4A1A4B1B78DBB223F00103DBB213701A4B00221A7003
:40288000154B1B78DBB203F00103002B13D0194AFB881380134A7B79002B01D0032300E00123137000BF0F4B1B78DBB203F00103002BF8D10BE0094AFB8813800649064B08
:4028C0001B78DAB2FB7A1343DBB20B70FFE700BF1037BD4680BD00BFA14300400041004002410040014000401440004010400040084000400240004080B400AF034B1B8850
:402900009BB21846BD4680BC704700BF0041004080B483B000AF0346FB710949084B1B78DBB25AB297F9073023F007035BB213435BB2DBB20B7000BF0C37BD4680BC7047C6
:402940000241004080B400AF044B1B78DBB203F00703DBB21846BD4680BC70470241004080B500AF084B0F221A7000F09BF800F063F800F06FF8054B00221A70044B00229D
:402980001A7000BF80BD00BF8A640040886400408C64004080B582B000AF00F059FB0346FB71134A124B1B78DBB243F02003DBB21370104A0F4B1B78DBB243F01003DBB252
:4029C00013700D4A0C4B1B78DBB243F01003DBB21370FB79184600F03FFB00F065F900F01FF800F023F800BF0837BD4680BD00BF9A640040986400409C64004080B500AF39
:402A0000064B1B78002B04D1FFF7AAFF034B01221A70FFF7BFFF00BF80BD00BF6882FF1F80B400AF00BFBD4680BC704780B400AF00BFBD4680BC704780B483B000AF044B0C
:402A40001B78FB71FB7918460C37BD4680BC70476864004080B483B000AF044B1B78FB71FB7918460C37BD4680BC70476C64004080B483B000AF0346FB7100BF074B1B7852
:402A8000DBB203F00403002BF8D0054AFB79137000BF0C37BD4680BC704700BF686400404C64004080B582B000AF01E0124B1B78124B1B78DBB203F02003002BF6D100F047
:402AC000C7FA0346FB710E4A0D4B1B78DBB243F00103DBB213700A4A094B1B78DBB223F00103DBB21370FB79184600F0B5FA00BF0837BD4680BD00BF5C6400406C640040DC
:402B00009C64004080B500AF084B0F221A7000F09BF800F063F800F06FF8054B00221A70044B00221A7000BF80BD00BF8A6500408B6500408965004080B582B000AF00F0F9
:402B400087FA0346FB71134A124B1B78DBB243F02003DBB21370104A0F4B1B78DBB243F01003DBB213700D4A0C4B1B78DBB243F01003DBB21370FB79184600F06DFA00F078
:402B8000ADF800F01FF800F023F800BF0837BD4680BD00BF9A6500409B6500409965004080B500AF064B1B78002B04D1FFF7AAFF034B01221A70FFF7BFFF00BF80BD00BFD3
:402BC0006982FF1F80B400AF00BFBD4680BC704780B400AF00BFBD4680BC704780B483B000AF044B1B78FB71FB7918460C37BD4680BC70476B65004080B483B000AF044BB8
:402C00001B78FB71FB7918460C37BD4680BC70476965004080B483B000AF0346FB7100BF074B1B78DBB203F00403002BF8D0054AFB79137000BF0C37BD4680BC704700BF96
:402C40006B6500404A65004080B582B000AF01E0124B1B78124B1B78DBB203F02003002BF6D100F0F5F90346FB710E4A0D4B1B78DBB243F00103DBB213700A4A094B1B7804
:402C8000DBB223F00103DBB21370FB79184600F0E3F900BF0837BD4680BD00BF5A650040696500409A65004080B400AF094A094B1B78DBB243F00803DBB21370064A064BE0
:402CC0001B78DBB243F00803DBB2137000BFBD4680BC7047A2430040B243004080B400AF094A094B1B78DBB243F00403DBB21370064A064B1B78DBB243F00403DBB2137058
:402D000000BFBD4680BC7047A2430040B243004080B500AF032000F063F800BF80BD00BF80B400AF0D4A0D4B1B78DBB243F06003DBB213700A4A0A4B1B78DBB243F0080318
:402D4000DBB21370074A074B1B78DBB243F00803DBB2137000BFBD4680BC704777580040A4430040B443004080B500AF064B1B78002B04D1044B01221A70FFF7C9FFFFF798
:402D8000CFFF00BF80BD00BF6A82FF1F80B400AF104A104B1B78DBB223F00803DBB213700D4A0D4B1B78DBB223F00803DBB21370084B1B78DBB2002B07D1084A074B1B78F0
:402DC000DBB223F06003DBB2137000BFBD4680BC704700BFA4430040B44300407758004080B483B000AF0346FB710C4A0B4B1B78DBB223F00303DBB213700849074B1B78E9
:402E0000DAB2FB7903F00303DBB21343DBB20B7000BF0C37BD4680BC704700BF5E58004080B400AF00BFBD4680BC704780B400AF00BFBD4680BC704780B500AF094B1B7806
:402E4000DBB203F00803002B05D0074B01221A70FFF79CFF02E0044B00221A70FFF7E0FF00BF80BDA44300406C82FF1F80B500AFFFF7DCFF034B1B78012B01D1FFF750FF7D
:402E800000BF80BD6C82FF1F80B500AF032000F063F800BF80BD00BF80B400AF0D4A0D4B1B78DBB243F06003DBB213700A4A0A4B1B78DBB243F00203DBB21370074A074BF1
:402EC0001B78DBB243F00203DBB2137000BFBD4680BC704777580040A4430040B443004080B500AF064B1B78002B04D1044B01221A70FFF7C9FFFFF7CFFF00BF80BD00BF47
:402F00006D82FF1F80B400AF104A104B1B78DBB223F00203DBB213700D4A0D4B1B78DBB223F00203DBB21370084B1B78DBB2002B07D1084A074B1B78DBB223F06003DBB270
:402F4000137000BFBD4680BC704700BFA4430040B44300407758004080B483B000AF0346FB710C4A0B4B1B78DBB223F00303DBB213700849074B1B78DAB2FB7903F00303FE
:402F8000DBB21343DBB20B7000BF0C37BD4680BC704700BF5A58004080B400AF00BFBD4680BC704780B400AF00BFBD4680BC704780B500AF094B1B78DBB203F00203002BD2
:402FC00005D0074B01221A70FFF79CFF02E0044B00221A70FFF7E0FF00BF80BDA44300407082FF1F80B500AFFFF7DCFF034B1B78012B01D1FFF750FF00BF80BD7082FF1FA2
:4030000080B485B000AF0346FB710B4B1B78DBB223F00203FB730849FB795B00DBB203F00203DAB2FB7B1343DBB20B7000BF1437BD4680BC704700BF505100400000000022
:403040000230800803D000BF01380046FCD17047EFF3108072B6704780F31088704700BF81F0004102E000BF83F0004330B54FEA41044FEA430594EA050F08BF90EA020F5E
:403080001FBF54EA000C55EA020C7FEA645C7FEA655C00F0E2804FEA5454D4EB5555B8BF6D420CDD2C4480EA020281EA030382EA000083EA010180EA020281EA0303362D31
:4030C00088BF30BD11F0004F4FEA01314FF4801C4CEA113102D0404261EB410113F0004F4FEA03334CEA133302D0524263EB430394EA050F00F0A780A4F10104D5F1200E3A
:403100000DDB02FA0EFC22FA05F2801841F1000103FA0EF2801843FA05F359410EE0A5F120050EF1200E012A03FA0EFC28BF4CF0020C43FA05F3C01851EBE37101F0004553
:4031400007D54FF0000EDCF1000C7EEB00006EEB0101B1F5801F1BD3B1F5001F0CD349085FEA30004FEA3C0C04F101044FEA445212F5800F80F09A80BCF1004F08BF5FEA72
:40318000500C50F1000041EB045141EA050130BD5FEA4C0C404141EB010111F4801FA4F10104E9D191F0000F04BF01460020B1FA81F308BF2033A3F10B03B3F120020CDA4A
:4031C0000C3208DD02F1140CC2F10C0201FA0CF021FA02F10CE002F11402D8BFC2F1200C01FA02F120FA0CFCDCBF41EA0C019040E41AA2BF01EB0451294330BD6FEA04045B
:403200001F3C1CDA0C340EDC04F11404C4F1200220FA04F001FA02F340EA030021FA04F345EA030130BDC4F10C04C4F1200220FA02F001FA04F340EA0300294630BD21FA94
:4032400004F0294630BD94F0000F83F4801306BF81F480110134013D4EE77FEA645C18BF7FEA655C29D094EA050F08BF90EA020F05D054EA000C04BF1946104630BD91EAE8
:40328000030F1EBF0021002030BD5FEA545C05D14000494128BF41F0004130BD14F580043CBF01F5801130BD01F0004545F0FE4141F470014FF0000030BD7FEA645C1ABF98
:4032C000194610467FEA655C1CBF0B46024650EA013406BF52EA033591EA030F41F4002130BD00BF90F0000F04BF0021704730B54FF4806404F132044FF000054FF000015F
:4033000050E700BF90F0000F04BF0021704730B54FF4806404F1320410F0004548BF40424FF000013EE700BF42004FEAE2014FEA31014FEA02701FBF12F07F4393F07F4FDD
:4033400081F06051704792F0000F14BF93F07F4F704730B54FF4607401F0004521F0004120E700BF50EA010208BF704730B54FF000050AE050EA010208BF704730B511F04F
:40338000004502D5404261EB41014FF4806404F132045FEA915C3FF4DCAE4FF003025FEADC0C18BF03325FEADC0C18BF033202EBDC02C2F1200300FA03FC20FA02F001FA3D
:4033C00003FE40EA0E0021FA02F11444C1E600BF4FF0FF3C06E000BF4FF0010C02E000BF4FF0010C4DF804CD4FEA410C7FEA6C5C4FEA430C18BF7FEA6C5C1BD001B050EA3D
:40340000410C0CBF52EA430C91EA030F02BF90EA020F0020704710F1000F91EA030F58BF994208BF90422CBFD8176FEAE37040F0010070474FEA410C7FEA6C5C02D150EADF
:40344000013C07D14FEA430C7FEA6C5CD6D152EA033CD3D05DF8040B704700BF8446104662468C461946634600E000BF01B5FFF7B7FF002848BF10F1000F01BD4DF808ED05
:40348000FFF7F4FF0CBF012000205DF808FB00BF4DF808EDFFF7EAFF34BF012000205DF808FB00BF4DF808EDFFF7E0FF94BF012000205DF808FB00BF4DF808EDFFF7CEFFE5
:4034C00094BF012000205DF808FB00BF4DF808EDFFF7C4FF34BF012000205DF808FB00BF80F0004002E000BF81F0004142001FBF5FEA410392EA030F7FEA226C7FEA236CB6
:403500006AD04FEA1262D2EB1363C1BFD218414048404140B8BF5B42192B88BF704710F0004F40F4000020F07F4018BF404211F0004F41F4000121F07F4118BF494292EA47
:40354000030F3FD0A2F1010241FA03FC10EB0C00C3F1200301FA03F100F0004302D5494260EB4000B0F5000F13D3B0F1807F06D340084FEA310102F10102FE2A51D2B1F1C4
:40358000004F40EBC25008BF20F0010040EA03007047490040EB000010F4000FA2F10102EDD1B0FA80FCACF1080CB2EB0C0200FA0CF0AABF00EBC25052421843BCBFD04090
:4035C0001843704792F0000F81F4000106BF80F400000132013BB5E74FEA41037FEA226C18BF7FEA236C21D092EA030F04D092F0000F08BF0846704790EA010F1CBF0020F6
:40360000704712F07F4F04D1400028BF40F00040704712F100723CBF00F50000704700F0004343F0FE4040F4000070477FEA226216BF08467FEA23630146420206BF5FEA9D
:40364000412390EA010F40F4800070474FF0000304E000BF10F0004348BF40425FEA000C08BF704743F0964301464FF000001CE050EA010208BF70474FF000030AE000BF39
:4036800050EA010208BF704711F0004302D5404261EB41015FEA010C02BF84460146002043F0B64308BFA3F18053A3F50003BCFA8CF2083AA3EBC25310DB01FA02FC634443
:4036C00000FA02FCC2F12002BCF1004F20FA02F243EB020008BF20F00100704702F1200201FA02FCC2F1200250EA4C0021FA02F243EB020008BF20EADC7070474FF0FF0C6E
:403700001CEAD0521EBF1CEAD15392EA0C0F93EA0C0F6FD01A4480EA010C400218BF5FEA41211ED04FF0006343EA501043EA5111A0FB01310CF00040B1F5000F3EBF4900A3
:4037400041EAD3715B0040EA010062F17F02FD2A1DD8B3F1004F40EBC25008BF20F00100704790F0000F0CF0004C08BF49024CEA502040EA51207F3AC2BFD2F1FF0340EA52
:40378000C250704740F400004FF00003013A5DDC12F1190FDCBF00F000407047C2F10002410021FA02F1C2F1200200FA02FC5FEA310040F1000053EA4C0308BF20EADC7084
:4037C000704792F0000F00F0004C02BF400010F4000F013AF9D040EA0C0093F0000F01F0004C02BF490011F4000F013BF9D041EA0C018FE70CEAD15392EA0C0F18BF93EA52
:403800000C0F0AD030F0004C18BF31F0004CD8D180EA010000F00040704790F0000F17BF90F0004F084691F0000F91F0004F14D092EA0C0F01D142020FD193EA0C0F03D129
:403840004B0218BF084608D180EA010000F0004040F0FE4040F40000704740F0FE4040F4400070474FF0FF0C1CEAD0521EBF1CEAD15392EA0C0F93EA0C0F69D0A2EB0302FD
:4038800080EA010C49024FEA402037D04FF0805343EA111143EA10130CF000408B4238BF5B0042F17D024FF4000C8B4224BF5B1A40EA0C00B3EB510F24BFA3EB510340EA51
:4038C0005C00B3EB910F24BFA3EB910340EA9C00B3EBD10F24BFA3EBD10340EADC001B0118BF5FEA1C1CE0D1FD2A3FF650AF8B4240EBC25008BF20F0010070470CF0004C39
:403900004CEA50207F32C2BFD2F1FF0340EAC250704740F400004FF00003013A37E792F0000F00F0004C02BF400010F4000F013AF9D040EA0C0093F0000F01F0004C02BF7D
:40394000490011F4000F013BF9D041EA0C0195E70CEAD15392EA0C0F08D142027FF47DAF93EA0C0F7FF470AF084676E793EA0C0F04D14B023FF44CAF08466EE730F0004CF8
:4039800018BF31F0004CCAD130F000427FF45CAF31F000437FF43CAF5FE700BF4FEA4002B2F1FE4F0FD34FF09E03B3EB12620DD94FEA002343F0004310F0004F23FA02F02C
:4039C00018BF404270474FF00000704712F1610F01D1420205D110F0004008BF6FF0004070474FF000007047014B1868704700BFB881FF1F0E4B70B51E460E4C0025E41A17
:403A0000A410A54204D056F8253098470135F8E702F00EF9084B094C1E46E41AA4100025A54204D056F8253098470135F8E770BD3C5C00003C5C00003C5C0000445C0000BD
:403A400010B5431E0A44914204D011F8014B03F8014FF8E710BD03460244934202D003F8011BFAE770472DE9F04788B0149F002B1E461299B8BF03F1004327F02007B6BF27
:403A80001E4600232D23462F1446109DDDF84CA00B7003D0452F03D1013501E0032300E0022307AA049206AA03928DE828042246334600F0B9FB472F804602D1119BDB07CB
:403AC00028D5462F08EB050911D198F80030302B0AD10022002320463146FFF7CFFC18B9C5F10105CAF80050DAF8003099440022002320463146FFF7C1FC08B9302202E050
:403B0000CDF81C9006E0079B994503D9591C07911A70F8E74046079B159AC8EB0303136008B0BDE8F087034673B50029B8BF494203F8022BB4BF2D222B22092942701ADDD7
:403B40000DF1070216460A2591FBF5F405FB1411092C01F1300102F8011D2146F4DC3031541E02F8011CB4421A460AD214F8012B03F8012BF7E71A463024214402F8024BB9
:403B80005970101A02B070BD2DE9F04F91B00C46DDF8688016461F46054601F0DDF803681846099300F0AAFA00230E93D8F800300A90073323F0070303F1080294F81890DC
:403BC000D4F800B0C8F80020D3E90023C4E91223D4F84CA0D4F848802AF000430B934FF0FF32A74B40460B9901F028FEA0B94FF0FF32A34B40460B99FFF754FC60B900225C
:403C0000002340465146FFF743FC10B12D2384F843309C4B9C4A0AE0424653464046514601F00CFE002800F09281984B984AB9F1470F8CBF90469846032323612BF0040364
:403C400023604FF0000A3DE0B9F1670F00F08A81B9F1470F00F0868123600193636800210DF13302059002920093424653460691CDF81090CDF80CE02846FFF7F4FE09F03A
:403C8000DF03472B804600F08481B9F1650F0D9900F28D8101394A4604F150000D91FFF742FF0E9A82468318012A236100F37C812268D10700F178819DF8333013B12D234B
:403CC00084F84330009733460FAA2146284600F09FF9013002D14FF0FF3096E123685A0501D4236965E0B9F1650F40F2D580D4E9120100220023FFF7C1FB78B30123654ACC
:403D000031462846B8470130E5D00E9B0D9A9A420BDB2368D80708D423689B0740F111814FF0000804F1190906E10A9B099A31462846B8470130CED04FF0000804F11A09D2
:403D40000E9B013B9845E7DA01234A4631462846B8470130BFD008F10108F1E70D9B002B29DC01234B4A31462846B8470130B2D00D9B23B90E9B13B92368D907CCD50A9BBC
:403D8000099A31462846B8470130A4D04FF0000904F11A0A0D9B5B42994509DA0123524631462846B847013095D009F10109F1E70E9B4246A7E00E9AA36D9A42A8BF1A464B
:403DC000002A914606DC4FF0000A29EAE97904F11A0B11E01346314642462846B8470130F1D178E701235A4631462846B84701303FF471AF0AF1010AA36DC9EB030292452E
:403E0000F0DB08EB03090D9A0E9B9A420FDB2368DA070CD40E9B0D9A9844C9EB08089B1A9845A8BF9846B8F1000F08DC0FE00A9B099A31462846B8470130EBD14BE7434630
:403E40004A4631462846B84701303FF444AF4FF0000928EAE87804F11A0A09E00123524631462846B84701303FF435AF09F101090D9A0E9B9B1AC8EB03039945EEDB4BE738
:403E8000FFFFEF7F065B00000A5B00000E5B0000125B0000165B00000E9A012A01DCDB0738D50123424631462846B84701303FF412AF0A9B099A31462846B84701303FF4A5
:403EC0000AAFD4E9120100220023FFF7D7FA20B14FF0000804F11A090EE00E9B08F10102013B19E001234A4631462846B84701303FF4F1AE08F101080E9B013B9845F1DB0A
:403F0000534604F1500231462846B84701307FF403AFE0E64246012331462846B8470130EED1D8E601234A4631462846B84701303FF4D1AE08F10108E3680F9A9B1A984560
:403F4000F0DBE0680F9B9842B8BF18465DE062680EA8531C0DF1340E4BF480637FF474AE062201E012B90122626075E6002106910DF133018DE80C00236005904246CDF8CE
:403F80001090CDF80CE0029153462846FFF76BFD80460D9BD81C02DB626893421DDDA9F102095FFA89F970E60133236184E6B9F1660F14D10029636807DD216113B9226834
:403FC000D2071DD501330B4419E013B92268D00701D5023313E0012311E04FF067090D9B0E9A934205DB22682361D10708D5013305E0002BD4BFC3F1020301231344236134
:404000000D9B4FF0000AA36556E611B0BDE8F08F2DE9F04791461F460A698B6806469342B8BF1346C9F8003091F843200C46DDF8208012B10133C9F800302368990642BFCF
:40404000D9F800300233C9F80030256815F0060510D104F1190A07E00123524639463046C04701301AD00135E368D9F800209B1A9D42F1DB94F843302268003318BF012340
:4040800092060FD5E118302081F843005A1C94F845102244023382F8431003E04FF0FF30BDE8F08704F1430239463046C0470130F4D02268D9F80050E36802F00602042A0A
:4040C00008BF5D1B2269A3680CBF25EAE57500259342C4BF9B1AED184FF000091A344D4509D00123224639463046C0470130D5D009F10109F3E70020BDE8F087034613F8B3
:40410000012B002AFBD1181A013870472DE9F74F03690C6980469C427FDC013C01F114074FEA840E00F1140606EB0E0357F82450019356F824300135B3FBF5F507EB0E090D
:40414000C5B34FF0000A3846B446D34650F8043B9AB205FB02A21B0C4FEA124A05FB03A392B2C2EB0B0BBCF800204FEA134A5A441FFA83FBDCF800308145CBEB134303EBAA
:40418000224392B242EA03424FEA234B4CF8042BDCD256F80E306BB9019B043B9E421A4602D3C8F8104005E01268043B002AF8D1013CF3E7404600F0E8FF00282BDB3046C4
:4041C00001354FF0000E57F8042B036891B2C1EB0E0E120C99B27144C2EB134303EB214389B24FEA234EB94541EA034340F8043BE9D256F8242006EB840362B9043B9E420B
:404200001A4602D3C8F8104005E01268043B002AF8D1013CF3E7284600E0002003B0BDE8F08F0000000000002DE9F04F456A95B08246219CCDE9022345B9102000F090FDF8
:40424000CAF82400456085600560C560DAF82430196859B15A68012393404A608B60504600F0BBFDDAF8243000221A60039BA04A002BBDBF01232360039B0023BCBF23F020
:4042800000430393DDF80C80A8BF236028F000431B0D1B0593421DD142F20F73209A1360029B43B9934A944BC8F31300002814BF1846104600E09048229B002B00F0468564
:4042C000C37813B100F1080300E0C31C229A136000F03CBDDDE902450022002320462946FFF7CCF8074658B1209A01231360229B002B00F01E8581481860013800F026BD9C
:4043000012AB019313AB009322462B46504600F0B7FFC8F30A56049056B1C5F3130343F07F51204641F44011A6F2FF3611971DE0139B129E1E4406F23243202B0ADD029AE6
:4043400006F21240C3F1400322FA00F008FA03F3184304E0C3F12000029B03FA00F0FEF7C1FF0123A1F1F871013E11930022644BFEF77AFE58A3D3E9002301F04DF858A35B
:40438000D3E90023FEF772FE044630460D46FEF7B9FF55A3D3E9002301F03EF802460B4620462946FEF762FE04460D4601F05CFA00228346002320462946FFF769F858B111
:4043C0005846FEF79FFF02460B4620462946FFF755F808B90BF1FF3BBBF1160F0DD8DDE90223484901EBCB01D1E90001FFF76EF830B10BF1FF3B002300E00123109300E022
:404400001090129B9E1B731E079343BFC3F10008002307934FF00008BBF1000F06DB079BCDF82CB05B440793002705E00023CBEB0808CBF100070B931E9B092B28D8052BFE
:40444000C4BF043B1E931E9BC8BF0025A3F10203D8BF0125032B20D8DFE803F0060E0204012302E0012308E000230A931F9B002B1DDD9946059321E000230A931F9B0BEB7B
:40448000030909F10103012B0593B8BF012315E0012500231E930A9501E001230A934FF0FF390022CDF8149012231F9206E04FF001094B46CDF81490CDF87C90DAF824404B
:4044C00000226260042101F114029A421CD86268490001326260F6E761436F63A787D23FB3C8608B288AC63FFB799F501344D33F0000F07F185B0000215B0000175B000088
:404500000000F83F305B00006168504600F030FCDAF8243020601B680693059B0E2B00F25B81002D00F05881DDE90234BBF1000FCDE90E3430DD9F4A0BF00F034FEA2B15B4
:4045400002EBC303E80618CBCDE908340CD5DDE90E01994B05F00F05D3E9082301F086F80324CDE9020100E00224934E6DB1E90708D5DDE90801D6E9002300F04DFFCDE977
:40458000080101346D100836F0E7DDE90823DDE9020101F06BF820E0CBF1000505B3DDE90E01844B05F00F0203EBC203D3E9002300F032FFCDE902017F4E2D11002302243A
:4045C00055B1EA0705D5D6E9002300F025FF013401236D100836F3E71BB1CDE9020100E00224109BE3B1DDE902560022734B28463146FEF74DFF98B1059B8BB1B9F1000F3A
:4046000040F3E6800BF1FF330893314600226C4B284600F001FF0134CDE902014E4602E0059ECDF820B02046FEF76CFEDDE9022300F0F2FE634B0022FEF718FDA1F150730F
:4046400004460C931D46D6B9DDE9020100225E4BFEF70AFD22460C9BCDE90201FEF736FF002840F03F820C99224601F10043DDE90201FEF70DFF002840F02B82A8E00A9A87
:404680004C4B711E002A49D003EBC103D3E9002300204E4900F0EAFF22462B46FEF7E4FCCDE90C01069CDDE9020101F0DDF80546FEF728FE02460B46DDE90201FEF7D4FC41
:4046C000DDE90C23303504F8015BCDE90201FEF7DFFE002840F01D83DDE9022300203749FEF7C2FCDDE90C23FEF7D2FE002840F0D180069BE31AB3426ADADDE90C01002218
:404700002F4B00F089FE0022CDE90C01DDE902012B4B00F081FECDE90201C4E703EBC1012246D1E900012B4600F076FE069BCDE90C011D469C19DDE9020101F095F80646DA
:40474000FEF7E0FD02460B46DDE90201FEF78CFC303605F8016BAC42CDE902014FF0000222D11A4BDDE90C01FEF780FC02460B46DDE90201FEF7AAFE002840F08B80DDE90D
:404780000C2300201149FEF76FFC02460B46DDE90201FEF77DFED8B114F8013C621E302B40F0B7821446F7E7054B00F035FECDE90201C0E7305B0000085C00000000F03FDF
:4047C0000000244000001C40000014400000E03FDDE90E34CDE90234139B002B7CDBBBF10E0F79DCAB4B03EBCB03D3E900671F9B002B14DA059B002B11DC40F06C810022A5
:40480000A54B3046394600F007FEDDE90223FEF753FE059D2E46002840F05F8165E1069CDDE9028932463B464046494600F01EFF01F01AF80546FEF765FD32463B4600F03D
:40484000EBFD0B46024649464046FEF70DFC05F1300E069B04F801EBC3EB040E059B73452DD102460B46FEF701FC8046894602460B4630463946FEF70BFE78B942464B46DB
:4048800030463946FEF7FAFD002800F04482EB0704D440E2DDF820B000E01C4614F8012C631E392A07D1069A9A42F6D1069930220BF1010B0A701A7801321A702BE200223D
:4048C000764B00F0A9FD0022002380468946FEF7D5FD0028A6D01EE20A9A002A2BD01E9A012A0ADC119A12B103F2334302E0129BC3F136033D46444613E0059B5D1EAF422F
:40490000BFBF0B9BEA1B9B180B93059BB6BF2F467D1B0025002BA7BF4446059BC3EB08040023079A01211A4450469844079200F0F3FA064602E03D4644460A9E5CB1079B83
:40494000002B08DDA342A8BF2346079AC3EB0808E41AD31A0793002F1DDD0A9BABB18DB131462A46504600F071FB049A01460646504600F0DAFA04990890504600F02DFAE0
:40498000089B04937A1B06D000E03A460499504600F05CFB04900121504600F0BDFA0B9B05465BB31A460146504600F04FFB1E9B0546012B18DC029B83B9039BC3F31303A8
:4049C00073B9039B23F000473F0D3F054FB1079B08F1010801330793012702E0002700E0029F0B9B73B100E000272B6905EB8303186900F044FAC0F1200004E01E9B012BBB
:404A0000D9DD0B9F0120079B184410F01F0008D0C0F12003042B02DDC0F11C0002E006D018461C30079B8044034404440793B8F1000F05DD42460499504600F055FB049037
:404A4000079B002B05DD29461A46504600F04CFB0546109B23B32946049800F096FB00281EDA00230A220499504600F0CDF90A9B0BF1FF3B0490002B00F05F813146002337
:404A80000A22504600F0C0F9B9F1000F06463FDC3BE000BF305B00000000144000002440059B002B2BDC1E9B022B28DDDDF81490B9F1000F11D129464B460522504600F0D0
:404AC000A3F901460546049800F05FFB00280CDC03E0354600E000252E461F9B069C6FEA030B09E03546DDF820B0069B069A5C1C312313700BF1010B05960026F7E00A9B1A
:404B0000DDF8149023B9069CB2E01E9B022BCFDC002C05DD31462246504600F0E5FA06469FB17168504600F023F90446326906F10C01023292000C30FEF782FF0122214607
:404B4000504600F0D1FA059000E00596029B069F03F00103079329460498FFF7D7FA3146044600F13008049800F00FFB059A02902946504600F025FBC36802463BB90146BB
:404B80000A90049800F001FB0A9A034600E00123114650460A9300F020F90A9B53B91E9A42B9079A32B9B8F1390F2AD0029B002B1CDC1DE0029A002A04DB1BD11E9ACAB9EB
:404BC000079ABAB9002B13DD01220499504600F08BFA2946049000F0D8FA002803DC07D118F0010F04D0B8F1390F0AD004F131087C1C0CE0002B07F101040BDDB8F1390FAD
:404C000003D139233B70013756E008F1010887F800806CE0069B2746E31A4B4504F8018C3BD000230A220499504600F0EDF8059B04909E424FF00A024FF0000331465046AA
:404C400004D100F0E1F80646059084E700F0DCF8002306460A220599504600F0D5F8059079E700230A220499504600F0CDF8049029460498FFF74AFA069B00F1300804F82F
:404C8000018BE31A4B45ECDB069B0596B9F1010FACBF4B4401331F46002601220499504600F022FA2946049000F06FFA002803DC15D118F0010F12D03C4614F8013C621E75
:404CC000392B09D1069B934204D10BF1010B3123069A02E01446F0E70133137007E03C4614F8013C621E302B01D11446F8E72946504600F072F8059B6BB12EB19E4203D020
:404D00003146504600F069F80599504600F065F801E0DDF820B00499504600F05EF80023209A23700BF101031360229B1BB11C6001E008480AE0069808E0B9F1000F3FF71D
:404D4000E2AE1E9B022B7FF7DEAEB1E615B0BDE8F08F00BF165B000000487047BC81FF1F024B0146186800F0E7BA00BFB881FF1F70B5456A04460E463DB91020FFF7F0FF79
:404D80006062456085600560C560656AEB6843B1636ADB6853F8260078B1026843F8262017E021220421204600F0B8FA636AE860DB68002BECD1002070BD012101FA06F566
:404DC0006A1D9200204600F0A9FA0028F3D04660856000230361C36070BD70B5446A06460D463CB91020FFF7BBFF7062446084600460C4603DB1736A6A68DB6853F82210CE
:404E0000296043F8225070BD2DE9F04106460C460D691F4601F1140E0023DEF80000013381B202FB0171000C0F0C02FB007089B201EB00419D424FEA10474EF8041BECDCD4
:404E4000D7B1A3689D4212DB616830460131FFF78FFF8046226904F10C01023292000C30FEF7EEFD21463046FFF7B7FF444604EB850301355F6125612046BDE8F081030C18
:404E80001B0413B90004102300E0002310F07F4F04BF0002083310F0704F04BF0001043310F0404F04BF80000233002803DB420003D5581C7047184670472020704703687C
:404EC00013F007020BD0D90722D49A074BBF5B089B08036003604CBF01200220704799B209B91B0C102213F0FF0F04BF1B0A0832190704BF1B090432990704BF9B08023269
:404F0000D90702D45B0805D00132036010467047002070472020704710B50C460121FFF727FF01224461026110BD2DE9F74F14460A69236988469A42BEBF0B46A0461C4650
:404F4000D8F81070D4F81090D8F80830D8F8041007EB09069E42C8BF0131FFF709FF00F114052B4605EB860C0022634502D243F8042BFAE704F1140208F1140102EB890379
:404F800001EB87070093009B0192934257D9B2F800B0BBF1000F23D08946AE464FF0000859F8044BBEF800A0A3B20BFB03A34FEA144ADEF8004043444FEA14480BFB0A844B
:404FC000F24604EB13449BB243EA04434F454FEA14484AF8043B01D9D646E1E7CEF80480019B0432B3F802A0BAF1000F21D02C4689462B684FF00008B9F800E0B4F802B0EC
:405000009BB20AFB0EBEA346F04443EA08434BF8043B59F8043BB4F804E01B0C0AFB03E34F4503EB18434FEA134801D95C46E3E763600435A7E75CF8043D13B9013E002EFA
:40504000F9DC066103B0BDE8F08F00002DE9F843154612F0030206460F4607D0214C013A002354F82220FFF7CFFE0746AD1036D0746A3CB91020FFF773FE70624460846002
:405080000460C460D6F82480D8F808404CB940F271213046FFF740FF04460023C8F8080003604FF00008EB070AD5394622463046FFF73BFF814639463046FFF78EFE4F465A
:4050C0006D100CD0206808B10446ECE7224621463046FFF72AFF2060C0F80080F4E73846BDE8F883F85B00002DE9F0470C460746914626694FEA621A56444968A368751C23
:40510000AB4202DA01315B00FAE73846FFF730FE002380461A4600F11401534503DA41F823200133F9E72AEAEA73206901EB830319F01F0904F1140101EB800E14D0C9F183
:40514000200C002208689A4600FA09F0024343F8042B51F8042B8E4522FA0CF2F2D8CAF8042042B1B51C06E0043B51F8042B8E4543F8042FF9D8013D3846C8F81050214624
:40518000FFF72BFE4046BDE8F08703690A6910B59B1A11D192001430143183180A4453F8044D52F8041D8C4202D007D3012010BD9842F4D3002010BD184610BD4FF0FF3059
:4051C00010BD2DE9F8430C460746114620461546FFF7DBFF061E08D131463846FFF7C8FD012303614661BDE8F883BCBF23462C4638466168BABF1D4601260026FFF7B8FD9D
:405200002B69C660266905F1140904F1140101EB860709EB830800F114054FF0000C51F8042B59F8044B93B29C44A3B2240CC3EB0C03C4EB124202EB23429BB24FEA224CF3
:40524000C84543EA02428E4645F8042BE7D8BE450ED25EF8041B8AB26244131403EB114392B242EA03424FEA234C45F8042BEEE755F8043D0BB9013EFAE70661BDE8F88377
:405280002DE9F3411C4601219046089E099DFFF76FFDC4F31302C4F30A5407460CB142F480120192B8F1000F19D002A840F8088DFFF705FE009B48B1019AC0F1200102FA48
:4052C00001F10B43C2407B61019200E07B61019B002B14BF02210121BB61396107E001A8FFF7EDFD019B01217B613961203034B1A4F2334404443460C0F1350009E0A0F289
:40530000324007EB810330601869FFF7B8FDC0EB41102860384602B0BDE8F08138B502FB01F4214600F008F8054618B122460021FEF791FB284638BD70B5CD1C25F003051D
:4053400008350C2D38BF0C25002D064601DBA94202D90C23336046E000F05CF8234B1C681A462146A1B10B685B1B0ED40B2B03D90B60CC18CD501EE08C420BBF63684B68E0
:405380001360636018BF0C4615E00C464968E9E7174C23681BB9304600F02CF820602946304600F027F8431C18D0C41C24F00304A0420DD12560304600F02DF804F10B00F4
:4053C000231D20F00700C31A0ED05A42E25070BD211A304600F00EF80130EBD10C233360304600F018F8002070BD00BF7882FF1F7482FF1F38B5064C00230546084623601E
:40540000FBF79EFD431C02D1236803B12B6038BD7883FF1F7047704770B54FF0FF0C4CF4E06C1CEA11541DBF1CEA135594EA0C0F95EA0C0F00F0DEF82C4481EA030621EACF
:405440004C5123EA4C5350EA013518BF52EA033541F4801143F4801338D0A0FB02CE4FF00005E1FB02E506F00042E0FB03E54FF00006E1FB03569CF0000F18BF4EF0010EEA
:40548000A4F1FF04B6F5007F64F5407404D25FEA4E0E6D4146EB060642EAC62141EA55514FEAC52040EA5E504FEACE2EB4F1FD0C88BFBCF5E06F1ED8BEF1004F08BF5FEAAF
:4054C000500E50F1000041EB045170BD06F0004646EA010140EA020081EA0301B4EB5C04C2BFD4EB0C0541EA045170BD41F480114FF0000E013C00F3AB8014F1360FDEBF04
:40550000002001F0004170BDC4F10004203C35DA0C341BDC04F11404C4F1200500FA05F320FA04F001FA05F240EA020001F0004221F0004110EBD37021FA04F642EB060180
:405540005EEA430E08BF20EAD37070BDC4F10C04C4F1200500FA04F320FA05F001FA04F240EA020001F0004110EBD37041F100015EEA430E08BF20EAD37070BDC4F120053E
:4055800000FA05F24EEA020E20FA04F301FA05F243EA020321FA04F001F0004121FA04F220EA020000EBD3705EEA430E08BF20EAD37070BD94F0000F0FD101F0004640002D
:4055C00041EB010111F4801F08BF013CF7D041EA060195F0000F18BF704703F00046520043EB030313F4801F08BF013DF7D043EA0603704794EA0C0F0CEA135518BF95EA4F
:405600000C0F0CD050EA410618BF52EA4306D1D181EA030101F000414FF0000070BD50EA410606BF1046194652EA430619D094EA0C0F02D150EA013613D195EA0C0F05D14D
:4056400052EA03361CBF104619460AD181EA030101F0004141F0FE4141F470014FF0000070BD41F0FE4141F4780170BD70B54FF0FF0C4CF4E06C1CEA11541DBF1CEA13552C
:4056800094EA0C0F95EA0C0F00F0A7F8A4EB050481EA030E52EA03354FEA013100F088804FEA03334FF0805545EA131343EA12634FEA022245EA111545EA10654FEA00260E
:4056C0000EF000419D4208BF964244F1FD0404F5407402D25B084FEA3202B61A65EB03055B084FEA32024FF480104FF4002CB6EB020E75EB030E22BFB61A754640EA0C0068
:405700005B084FEA3202B6EB020E75EB030E22BFB61A754640EA5C005B084FEA3202B6EB020E75EB030E22BFB61A754640EA9C005B084FEA3202B6EB020E75EB030E22BF8E
:40574000B61A754640EADC0055EA060E18D04FEA051545EA16754FEA06164FEAC30343EA52734FEAC2025FEA1C1CC0D111F4801F0BD141EA00014FF000004FF0004CB6E7E8
:4057800011F4801F04BF01430020B4F1FD0C88BFBCF5E06F3FF6AFAEB5EB030C04BFB6EB020C5FEA500C50F1000041EB045170BD0EF0004E4EEA113114EB5C04C2BFD4EB7D
:4057C0000C0541EA045170BD41F480114FF0000E013C90E645EA060E8DE60CEA135594EA0C0F08BF95EA0C0F3FF43BAF94EA0C0F0AD150EA01347FF434AF95EA0C0F7FF4B4
:4058000025AF104619462CE795EA0C0F06D152EA03353FF4FDAE1046194622E750EA410618BF52EA43067FF4C5AE50EA41047FF40DAF52EA43057FF4EBAE12E74FEA410CCB
:405840007FEA6C5C02D150EA013C0AD14FEA430C7FEA6C5C02D152EA033C02D14FF0000070474FF0010070474FEA410212F5001215D211D56FF47873B3EB625212D94FEAE5
:40588000C12343F0004343EA505311F0004F23FA02F018BF404270474FF00000704750EA013005D111F0004008BF6FF0004070474FF00000704700BF000000000000000005
:4058C000585B0040005B0040585B0040005B0040035B00401040102004000000005B004024430040100000000001000101000000D85A0040045B0040035B004024430040BF
:40590000045B004024430040035B004024430040035B0040244300408080400020004000400000002C5100402C5100402C5100402C5100402C5100406C5100406C5100400C
:405940006C5100406C5100402C5100402C5100402C510040FC510040C35A0040935A00408040201008102040800104021001100028000000300000003800000040000000FF
:40598000480000004800000048000000480000003882FF1F3882FF1F3882FF1F3882FF1F3882FF1F3882FF1F3882FF1F3882FF1F3882FF1F3882FF1F3882FF1F0000004837
:4059C000080000481000004818000048A8050048E805004808060048480600482000004828000048A800004828010048A801004828020048A802004828030048A803004895
:405A000028040048A804004828050048680600487806004888060048080700488807004808080048880800480809004888090048080A0048880A0048080B0048880B00483D
:405A4000080C0048880C0048080D0048880D0048080E0048880E0048080F0048880F004808100048881000480811004888110048081200488812004808130048881300482E
:405A80000814004888140048081500488815004817500040165000401550004014500040135000403450004035500040365000403750004010500040125000401150004022
:405AC000020202020206060606020202804020100810204080010402065200400E520040165200401E520040265200402E520040365200407E520040040302010005060793
:405B000008090A0B4300494E4600696E66004E414E006E616E003000496E66696E697479004E614E00504F534958002E00000000000000000000F03F0000000000002440FD
:405B400000000000000059400000000000408F40000000000088C34000000000006AF8400000000080842E4100000000D01263410000000084D797410000000065CDCD41E4
:405B8000000000205FA00242000000E876483742000000A2941A6D42000040E59C30A2420000901EC4BCD64200003426F56B0C430080E03779C3414300A0D88557347643A8
:405BC00000C84E676DC1AB43003D9160E458E143408CB5781DAF154450EFE2D6E41A4B4492D54D06CFF08044F64AE1C7022DB544B49DD9794378EA440500000019000000E5
:405C00007D000000000000000080E03779C34143176E05B5B5B89346F5F93FE9034F384D321D30F94877825A3CBF737FDD4F1575F8B500BFF8BC08BC9E467047B502000032
:405C400029100000F8B500BFF8BC08BC9E46704791020000685C0000C880FF1F300100008801000000000000000000000F0F0F0F0F0F0F0F0F0F0F0F8083FF1FFF0F000012
:405C800032323232323232323232C8C81E0000001E001E001E001E001E001E001E001E001E001E001E001E000A000A000A000A000A000A000A000A000A000A000A000A0062
:405CC0000C000C000C000C000C000C000C000C000C000C000C000C00010101010101010101010101802FA604B03001004E00000000005898FF010000000000000000000090
:405D0000000000000000000000000000000000000000000000000000045B000000000000000000000000000000000000000000000000000000000000000000000000000004
:405D40000000000000000000000000000000000000000000000000005881FF1F2B5B00002C5B00002C5B00002C5B00002C5B00002C5B00002C5B00002C5B00002C5B00006E
:405D80002C5B0000FFFFFFFFFFFFFFFFFFFFFFFFFFFF000000000000000000000000000000000000000000000000000000000000000000000000000000000000000000006A
:405DC00000000000000000000000000000000000000000000000000000000000000000000000000000000000000000000000000000000000000000000000000000000000A3
:405E00000000000000000000000000000000000000000000000000000000000000000000000000000000000000000000000000000000000000000000000000000000000062
:405E40000000000000000000000000000000000000000000000000000000000000000000000000000000000000000000000000000000000000000000000000000000000022
:405E800000000000000000000000000000000000000000000000000000000000000000000000000000000000000000000000000000000000000000000000000000000000E2
:020000040003F7
:0200000480007A
:400000009010000000000000000000000000FF001020000000000000000000000000F0000300000000000000000E00110042002000000000001F0000051F000001190466B6
:40004000003700880000020000240040000000000100040000010010010F0010022004C00000000000004150240300000000006230000000000000000000000009000000EC
:400080000404040411310001000CF00C000C000C404C404C9058000C00000000000000000000000000000000000000000060000000560009010400000001000000000004F8
:4000C000000400000104000000040000010A00100107003800040100017F0000010000000002000000001100000000000000000000000000000000000000000000000200FD
:400100000404000430100801000000000000000000000000000000000000000000000000000000000000000000000000000000000024001B0014002B0000000000080034B0
:400140000000000100000000000000000000000000000000000E00300000003C000300000000000800000000020300000000000000FFFFFF020CF8000000000000000228C7
:400180000004040430310001000048A100000000F000F000F000F00000000000000000000000000000000000181C20000014006801020000020C0410281D100238020001A1
:4001C000007C040000030314000000000000201400200008004018083003080401600618000000000000401002030000000A000000FFFFFF030CF400000017000000000075
:400200000404040411110001000048A100000000F000F000F000F00000000000000000000000000000000000001B00000002000400040010000000010004001A000000008E
:400240000000000000040008001B0000001B0000001B0000001A0001000000010000001E000000800000000453046000020ECDFB3DFFFFFF2200F00804000000400000003C
:4002800000040404303300010000C00040011011C00100114001400100000000000000000000000000000000001A0000183323447082000029C15638010006002702481892
:4002C0000018000204180000041A0000049C00030000040004180002070F00E0781300002000020A0000000000000000000000000000000000000000000000000000000038
:400300000404000033000001000000000000000000000000000000000000000000000000000000000000000000000000000000000000000000000000000000000000000081
:40034000000000000000000000000000000000000000000000000000000000000000000000200000000000100000000000000000000000000000000000000000000000004D
:40038000000400000000000100000000000000000000000000000000000000000000000000000000000000007B0000007801040000007B0000000000000060000000000065
:4003C0000000000052000000000000000000030029010000000000000701180060000000000200000000150024030000000062000C0000000000000000000000000008004A
:400400000404040F10110001000CF00C000C000C404C404C9058000C000000000000000000000000000000000000000012006400CD100027100060000100320072000802BA
:400440000038800002000D00CD000000CD14002B8D0040004D0D801070000003803C0F000020820000001000530000000004002531FFFFFF02200005001000004000000014
:40048000040404042221000140408000800080000000000000000000000000000000000000000000000000008400000000C10038019C0003041800006000000056020918D6
:4004C0000A181002841800020782380084330044801A0400041A800000007FE0800F001308000028000010003604200005CEFB0D1FFFFFFF2200F00804000000000002245C
:4005000004040404222200010000C00040011011C00100114001400100000000000000000000000000000000000000000000000002000D00000000000000000019002600A2
:400540000000000013002C000000000035000A000000000000000000100020000F000000000020000000050000000000000000000000000000000000000000000900000090
:40058000040000040220000100000000000000000000000000000000000000000000000000000000000000000000000000000000FF00000000000000000000000000000011
:4005C000FF000000000000000000000000000000FF0000000000000000000000000000000000000000000000000000000000000000000000000000000000000000000000FD
:40060000001F0F00000000000000000000000000FFFF0000000000000000000000000000FF000000000000000000000000000000FF00000000000000000000000000000090
:40064000000000000000000000000000000000000000000000000000000000000000000000000F0000000000060014000000000000000000060000000A001400000000002D
:40068000000000000A0008000000000000000000400000000000000000000000000000000000000000000000000000000000000000000000000000000000000000000000E8
:4006C0000000000000000000000000000000000000000000000000000000000000000000000000020000000040000000004000000000000000000000000000000000000078
:4007000000000000000000000000000200000000400000000000000040000000000000000040000000000000000000000000000000000000000000000000000040000000B7
:40074000000000000000000000000200000000000000000000000000000000000000030002000000000000000000010000000000020000000000000000000000000000006F
:400780000000000000000000000000000000000020000000000000000000000000000000000000000000000000000000000000000000000000000000000000000000000019
:4007C00000000000000000000000000000000000000000000000000000000000000000000200000000000002000000000010000000000000000000000000000000000000E5
:400800000000000000000000000000000000100000400000000000000000000000000000021000022000100000000000000000000000000000000000000000000000000024
:400840000000000000000000000002000000000000000000000000000000000000000300010000000000000001000000000000000000000000000000000000000000000071
:4008800000000000000000000000000000000002000000000000000000000000000000000210000020001000000000000000000000000000000000000008000000100000DC
:4008C00000000000000000000000000000000000000000000000000000000000000000000000000000000000000000000000000002000000040000000000000000000000F2
:4009000000000000000000000000000000000000000000000000000000000000000000000000000000000000000000000000000000000000000000000000000000000000B7
:40094000000010000000000000000000000800000000000000000000000000000000000000000000000000000000000000000000000000000000000000000000000000005F
:4009800000000000000000000000000000000000200000100000000000000000000000200200000000000000000000000000000000000000000000000000000000000000E5
:4009C00000000000000000000000000000000000000000000000080001000000000000000000000000000000040001000000000000000000000000000000000000000000E9
:400A00000000000000000000000000000000000000000000020000000000000000000020000000000000000000000000000000000000000000000000000000000200000092
:400A40000000000000000000000000000000000000000000000000000000000000000000000000000000000008000000000000000000080000000000000000000000000066
:400A80000000000000000000000000000000000000000000000000000000000000000000000000000000000000000000000000000200000000000000000000000000000034
:400AC00000000000000000000000000000000000000000000000000000000000000000000000000000000000000000000000000000000000000000000000000000000000F6
:400B000000000000000000100000000000000000000000000000000000000000000000000000000000000000000000000000000000000000000000000000000000000000A5
:400B4000000000000000000000000000000000000000080000000000000000000000000000000000000001000000000000000000000000000000000000000000000000006C
:400B8000000000000000000040014008001000002000019000000011284000012000000804000008001010010000001D000000000001640000000000280040000000000032
:400BC00040000014000000002400C00000000000004980100000000000002044000000000000000000180280001000000000000228418000000000000000010000000000EA
:400C000000000102000000000400108A001080001040210000008401400000000041401800000000200000000000000038002000000000000000000000000000000010002C
:400C400000000000000000004B00AF002F00000000000F000E000E0007000C000000F000140000000000000000000000010000000000000000000000000000000000000008
:400C8000000000000000000060080000200080100100411800000082284100000000280040000110002A0000000014000000010021080000000000080000140000000000DA
:400CC000000000100000000410000000002A0000020000040000000002000008000020400000000080000000004020200000800000000000000000000000000000000000B6
:400D000000000000020000000000000000408004000004000000000030000000000000008200081000000000000000010000010000000000000000001000004000000000CD
:400D4000000000000000000077009F006F00000000002A0006004400E2000800000010001E00000000008000020000000000000000000000000000000000000000000000E0
:400D8000000000000000000000000000000000000000000000000000000000000000000000000000000000000800000000000000000000000000000000000000000000002B
:400DC00000000000000000000000000000000000000000000000000000000000000000000000000000000000000000000000000000000000000000000000000000000000F3
:400E000000000000000000000000000000000000000000000000000000000000000000000000000000000000000000000400000000000000000000000000000000000000AE
:400E40000000000000000000000000000000000000000000000000000000000000000000000000000000000000000000000000000000000000000000000000000000000072
:400E80000000000000000000C00000000000000040000100000002502B000000042000000002001000500001000001002025080155000000000082002800410000000A1084
:400EC0004000041000820800000000000020000900000000000000000000000000000A0B02414000001640000000000000000002000000000000000000018000000000007A
:400F0000000010000000000000000000000001000000000000000000103481500000000080000418001000006A4012000005011A00000000000000000000000000001000F3
:400F400000000000000000000100B1004700000000009F00EF00DE00E00000000000F000100000000000020000000000020000000000000020000000000000000000000008
:400F8000000000000000000000000000000000000000000000000000000000000000000000000000000000000000000004000000000000000000000000000000000000002D
:400FC00000000000000000000000000000000000000000000000000000000000000000000000000000000000000000000000000000000000200000000000000000000000D1
:40100000000000000000000000000000009000400000000000088208000000000040000400000000142CA0400000180000400258000080000000040A00001800000442103C
:4010400000000050008A1000140000000028000000000000000000080000000000000000000000000000000000000800000000006A010000004014040000010000800000F6
:4010800000000000000000000000000000000000080000000000000000348050000101808000840008000000000000002A4000100000000001000004000000000000000017
:4010C0000000000000000000D000F000A000000000007800F600FC00660000000000000002000000000000002000000000000000000000000000000000000000000000009E
:4011000000000000000000000000000000000000040000000000000000000000000000000000000000000000000000000000000000000000000000000000000000000000AB
:40114000000000000000000000000000000000000000000000000000000000000000000000000000000000000000000000000000000000000000000000000000000000006F
:40118000000000000000000004A000000000000000088100000000002A0100000000000000208000000000000418005000000011510000006B010000280040000080000114
:4011C0000410224004000390000008101808800000000000008400600000000001006440000000000000000000000000000048080000000000000000000000000000000051
:4012000000000000000000000000000000000000001080000020000000000000000000808000000000000000000000000040000000000000004000000000004080000000BE
:40124000000000000000000007000D000F0000000000FB009E00FF00E0003000000000007000000000000000000000000000000000000000000080000000000000000000B3
:40128000000000000000000000000000000000000000000000000000000000000000000000000000000000000000000000000000000000000000000000000000000000002E
:4012C000000000000000000000000000000000000000000000000000000000000000000000000000000000000000000000000000000002000000800000000000000000006C
:4013000000000000000000000000000000000000000000000000000000000000000000000000000000000000000000000000000100000000000000000000000000000000AC
