:20000000A5000000000000000306000000000000000000000003000001020000000000002C
:2000200020A000000000000004060000400000000000000000000200AE3C00C0000000000A
:200040000000000000000084D66C0000D27104820440002CD66C000029A4464021C08E2F6E
:200060002000D000020000000091004E17642808D0080610D62C00400FC00031F00F0100D4
:200080000200200E00004000000000000000000000000000000000000000000000000800E8
:2000A000040400040030000100000000000000000000000000000000000000000000000003
:2000C000000000000000000000000000000000000000000000000000000000000000000020
:2000E000000000000000000000000000000000000000000000000000000000000000000000
:2001000000000000000000000000000000000000000000000000000000008000000000005F
:2001200004040004441000010000000000000000000000000000000000000000000000005E
:2001400000000000000000000000001800180000001801000118000001070000010800101C
:2001600000180000000001180000000201040000010100000000000700080000001001071E
:200180000000000000000040000000000000000000000000000000000000000000000228F5
:2001A0000404000444000001000000000000000000000000000000000000000000000000EE
:2001C0000000000000000000040003000000120000000000000000000000010008000300FA
:2001E0000000000000010C00000000000000000000000001010002001000000000010F00CE
:200200000000000000000010000000000000000000000000000000000000000000000800C6
:200220000404000440900001000000000000000000000000000000000000000000000000E1
:200240000000000000000000000400097770000000000700005000A0C0042408B7F04000DC
:20026000003808C400A00050C1C012300100F2000000000284041008F00100F00F0C000234
:20028000000000200000000000000000000000000000000000000000000000000000080036
:2002A0000404000411300001000000000000000000000000000000000000000000000000F0
:2002C0000000000000000000180025002000180000020001C0000000000100042E001000A3
:2002E0000000C00000060100000040000000000000000000080133024007380080000700B3
:20030000000208000000110000000000000000000000000000000000000000004100000081
:20032000040400040030000100000000000000000000000000000000000000000000000080
:2003400000000000000000000001000000000000000000000000000000000000000000009C
:2003600000000100000000000000000000000000000000000000000000000000000001017A
:200380000000000000000040000000000000000000000000000000000000000020000400F9
:2003A0000404000403300001000000000000000000000000000000000000000000000000FD
:2003C00000000000000000000000000000000000008100080000011E00100081008102045D
:2003E0000200000000810402024000000000004002000040000002210120001F0280044087
:2004000000000000000010540206200003FED0CB3BFFFFFF2200F00C8C1000000000022898
:20042000040424248188081100000000000000004001C00100000000000000000000000048
:2004400000000000000000000000040008040000000001010401000000000800010000007C
:20046000000002020400000004000000000000000000000004000000080404020300000156
:2004800000000000000005410000000000000000000000000000000000000000000008000E
:2004A000040400041990000100000000000000000000000000000000000000000000000086
:2004C00000000000000000000000000000000001000000000000000000010000000000001A
:2004E0000000000000000000000000000000000000000000000001000100000100000000F9
:200500000000000000000004000000000000000000000000000000000000000000000800CF
:2005200004040004442000010000000000000000000000000000000000000000000000004A
:20054000000000000000000040008000000002000800000000000100100020000000080098
:200560000000040002000000040000000100000020001001800040000001FF00000000007F
:20058000000000000000040000000000000000000000000000000000000000000000023520
:2005A0000404000C40400001000000000000000000000000000000000000000000000000A6
:2005C000000000000000000004000000000000000000030000020400010000000800000005
:2005E0000000040000000000000000000000000008000001000000000200010208000401DC
:20060000200000000000500400000000000000000000000000000000000003020000000061
:200620000C0400043440000100000000000000000000000000000000000000000000000031
:2006400000000000000000000000FF0080000000C0000200C0000100000060009000400068
:200660001F00200000009F007F008000C000080000000000C0000400FF0000000000000012
:2006800000000000000001005402300006BEFDCD3FFFFFFF2200F0080400000040000000AB
:2006A00004040404400000010000C00040011011C001001140014001000000000000000073
:2006C00000000000000000000000000000000000000000000000000000000000000000001A
:2006E0000000000000000000000000000000000000000100000000000000010000000000F8
:200700000000000000000000000000000000000000000000000000000000000001000000D8
:200720000404000C4440000100000000000000000000000000000000000000000000000020
:2007400000000000000000000001000000020000000000100000000000000002000800007C
:20076000000000210000000400000100000000080004000000000000002000000100001F07
:20078000008000000000004000000000000000000000000000000000000000000000000099
:2007A0000404000044000001000000000000000000000000000000000000000000000000EC
:2007C0000000000000000000080021000100000001000000400000000400000001000000A9
:2007E000400000001000000022000800010000000700180001000000400000003F000000DF
:2008000022000000000010000000000000000000000000000000000000000000090000009D
:2008200004040004400000010000000000000000000000000000000000000000000000006B
:2008400000000000000000000000110006060008011E00210002003C0C0000010A0000C01E
:2008600000800000002520120C00000000000000003B000000270008010710800E40203CE9
:20088000200000000000010400000000000000000000000000000000000000000F00000024
:2008A000040400041110000500000000000000000000000000000000000000000000000006
:2008C000000000000000000000000000000200000000000000010000000200000002000011
:2008E0000002000000000001000000020000000000020000000200000001000200000000EC
:200900000000000000000001000000000000000000000000000000000000000000000000D6
:2009200004040000440000010000000000000000000000000000000000000000000000006A
:20094000000000000000000000000001000000000000000000010000000000030000000092
:20096000000000000000000000000000000000000000000000000000000000010000000274
:200980000000000000000004230600000000000000FFFFFF00A0000118000000000008006C
:2009A000040404041491000140008000404080004000800040208000000000000000000021
:2009C0000000000000000000000000007300000000000F003002C900CF003000FD0002029A
:2009E00000000000000000009E00600094006000000200000000000100010002FF00000000
:200A0000000000000000100423060000004EC2031FFFFFFF00AF0701180000000F0000008C
:200A20000404040440110001400080004040800040008000402080000000000000000000F4
:200A400000000000000000000000000040000002400000001000810100011E0000018000E2
:200A60000000210081010200400100008100040181000800000000002002800140001F007F
:200A8000200000000000540400000000000000000000000000000000000000000000022CB0
:200AA000040400241880083100000000000000000000000000000000000000000000000039
:200AC000000000000000000000000000000000030000000000000000000100000000000012
:200AE0000000000100000000000000000000000000000000000000040002000100040000EA
:200B0000000000000000000400000000000000000000000000000000000000004100000090
:200B2000040400042420000100000000000000000000000000000000000000000000000064
:200B4000000000000000000000000000000100000000000001000000000000000000000093
:200B6000000000000000000000000000000000000000000000000001000000000001010072
:200B80000000000000004010000000000000000000000000000000000000000020000400E1
:200BA000040400040420000100000000000000000000000000000000000000000000000004
:200BC000000000000000000000010002000100020100000000020001000000000104000006
:200BE0000001000201000000000400000000000000000000000001000000010000040003E4
:200C0000002000800000040003053000010EDBFC3DFFFFFF2200F00C8C1000000000080016
:200C2000040424041428003100000000000000004001C00100000000000000000000000015
:200C400000000000000000000000000000000000000000000000000000000F0000477807BF
:200C6000000003000000000000000000000000000000000000000000000000006F00000FF3
:200C80000747780000000000160114000000000000001201160000001F0114000000000006
:200CA0001B010B001E0111000040000000020001000000000000000000000000000000009A
:200CC000000000000000000000000000000000000000000000000000000000000000000014
:200CE0000000000000000000000000000000000000000000000000000400000000000000F0
:200D00000000000000000000000000000000000000000000000000000000000000000000D3
:200D2000000000000000000000000008000000000000000000000000080000000040000063
:200D4000000000000002000900000000000000008040000000000000000000001000002098
:200D6000000000000000000007000000000000000000000000000000000000000400000068
:200D8000000000000000000000000000000000000A00000000000000000000000000000049
:200DA000000000000000000000000000000000000000000000000000000020108000000083
:200DC000000000000000000000000000000000000000000000000000000000000000000013
:200DE0000000000000000000000000000000000000000000000000000000000000000000F3
:200E00000000000000000000000000000000000000000000000000000000000000000000D2
:200E200000000020100000000000200000001000000000000000000008000000000000103A
:200E400000000000000210090000000000000000080000000000000000020000000000006D
:200E60000000000000000000000000000E0000000000000000000000000000000000000064
:200E800000000000000003000000000000000000000000000000040000000000000000004B
:200EA0000000000000000000000000000000000000020000000000400000000000000000F0
:200EC000000000000000000000000000000000000000000000000000000000000000000012
:200EE0000000000000000000000000000800000000000000000000000000000000000000EA
:200F00000000000000000000000000000000000000000000000000000000000000000000D1
:200F200000000000000000000400000000000000000000100000000000000000000000405D
:200F4000000000000002100900000000000000000000000000000001000000000000000075
:200F6000000000000000000000000C00000000000000000000000000040000000000000061
:200F8000000000000000000000000000000001000000000000000000000000000000000050
:200FA000000000000000000000000000000000000000000000000000000000000000000031
:200FC000000080000000000000000000000001000000000000000000000000000000000090
:200FE0000000000000000000000000000000000000000000000000000000000000000000F1
:201000000000000000000000000000000000000000000000000000000000000000000000D0
:201020000000000000000000000001000000000000000000000000000000000000008040EF
:20104000000000000002100800000000000000000000000000020000000000000000000074
:20106000000000000000000000000000000008000100000000000000000000000000000067
:20108000000000000000000000000000000000000000000000000000000000000000000050
:2010A000000000000000000000000000000000000000000000000000000000000000804070
:2010C0000000000000001008000000000000000000000008000000001000000000000000E0
:2010E0000000000000000000000000000000000000000000000000000000000000000000F0
:201100000000000000000000000000000000000004000000000000000000000000000000CB
:201120000000000000000000000000000000000000000000000000000000000000000000AF
:2011400000000000000000000000000000000000000000000000000000000000000000008F
:2011600000000000000000000000000000000000000000000000000000000000000000006F
:20118000000000080000000000001000100000000000000000000000000000000000000027
:2011A0000000000000000000000000000000004000000000000040000000000000000000AF
:2011C00000000000000000000000000000000000000000000000000000000000000000000F
:2011E0000000000000000000000000000000000000000000000000000000000000000200ED
:201200000300000000000000000008000000000000000000000000000000000000000000C3
:2012200000000000000000000A000111A00000900708000001011208101000811050000036
:201240000040000000080000040000000040100000000001000100000000000000080020C8
:2012600000000004008A0000000000000088000000000000001016000000000010000950C9
:20128000000000010080000004410010000040000000000000000000000000000000000038
:2012A0000000000000000080220100001000449010A0080040000089204318040000200186
:2012C000100800200620008805850305204010D0400000000041002025840000000000000C
:2012E0000000000000000000FD00F800EF000000000088006000D2005000100000001100DF
:201300001F00000000008000440000005000000070008000000005000000000000000000A5
:201320000000000000000000040040088002080142000020020000000000000290000014CC
:2013400004910018000000000000560200000840021000000232000008005200000050153B
:2013600000008024000008800000000000000000000000000200010000000000000000003E
:201380000001184000000000002400000000000000000000000000000000000000000000D0
:2013A000000000100000000080200000000018010000000004000004800012240410000092
:2013C0005206C000808008020820404000001A00000000006000A040010A0100500000008D
:2013E0000000000000000000DE001D00780000000000BC00FF005E000000000000000F0052
:2014000006000000000002004300000000000B005800020000000900000000000000000013
:2014200000000000000000000A0000000008100902000821200082200000008000150000FF
:20144000000000000080802800040104000900000000000100000A00000C21008100000495
:2014600000000400000880000000000000000000000002800000000000000000000000005E
:20148000088020000000000000000800100000A00000000010541201000000000000000075
:2014A0002000000404000080000000200000140000001000000100000402082040000601CA
:2014C00089018E040424002001042A01040000480000000000000000400004000040004C5C
:2014E0000000000000000000EC00FF00710000000000C800D50052000000000000000E0093
:20150000820000000000C00002000000200041000000000004002000000000000000000002
:201520000000000000000000842800008042000002084020000520000000800E9000080088
:20154000000004000000000000010120004000100022080200003000304005000000020042
:201560000018004002800000200000102000001000244002002000C0082040400000000043
:20158000010880205000000000000000000000000000000000000000000000000000000052
:2015A0000000000000000000004008000000042008000000000000008080C00004000402ED
:2015C000402000080080000021080042400080200205000040000000000000000000000091
:2015E000000000000000000097003C007C00000000000F008F009E006600240000003F0097
:2016000000000000000000000300000000004900000000000400200000000000000000005A
:2016200000000000000000000A000100041082000000482100402084020000008100000039
:20164000000240000019000000000800008402002202000000000000480001000000002014
:201660000002052004C0042000000000000000000C0000000000000000000000000000004F
:20168000042000404000001008002402000000060000000000000000000000000000000062
:2016A00000000000000000000080000100000010000000001040001020820820000000006F
:2016C000A3008A00001600000340100004080000000000480040000000008004000000005C
:2016E0000000000000000000FD00FF009100000000000B002B0077000000000000003E0072
:201700003E00000000000000100040000100C00080000200200000000000000000000000D8
:20172000000000000000000000800000000000000000082200000008821000000000400223
:20174000001200400040000040245000000000020020006100030000820004000000000037
:201760004010000080000041002400000000000000001801000000000001201800000000E2
:2017800000000000000000010000080000054004821008000000000000000000000000005D
:2017A00028000000000000002000000000000000000000000800080880804004040324401A
:2017C0000220000800D00000210800070000B000000000000000010008400000000024C101
:2017E0000000000000000000010047000B00000000000F000B008C00060004000000800066
:20180000F20000000000060008000000000084000000020000001100000000000000000031
:201820000000000000000000AC8204000210000102022B20001040200E0100040010000081
:2018400010000000002062080002000020800000248200000000000400021400000000008C
:201860000400000000800000000000000000000000000140000000000000000000000000A3
:20188000000010000000000000200000000000009A010000005010002000010400000000F8
:2018A00000400000004000002000001021020100000000000080000002A228001440024072
:2018C00081000A010006044041000000A00A0000802000000A04000012000001000008007E
:2018E0000000000000000000DF007F004F00000000002F00070012000000000000000400EF
:201900000400000000001800000010000000010000008000400008000000000000000000D2
:201920000000000000000000042000000046000000084400000001180000804801004000CF
:201940000021400000048110006801080000028000812000010000000028810000020080D1
:20196000040100400000001000000000000000000000000000000000000000000000000012
:20198000001000400000A8000A0010000000402200000000000000000000000000000000D3
:2019A000000000000000000060001004200000020000200100004000800000144002B000AA
:2019C000010240010004100401400005000002000000010044400000000A40000010000084
:2019E0000000000000000000B600EE009D00000000001D009F002B000000000000007C0043
:201A00004C0000000000000000000A00800024002200080041003800000000000000000029
:201A20000000000000000000840000080220110008820800083040020100050000000205CE
:201A4000000020084000000000000000000000000002000800000048008204000012000034
:201A6000040200008600000000041000102800010000000001040802000000000200680014
:201A80000000004000000000000000000004600000000000000000000000000000000000A2
:201AA0000040000000000000044000040902000000000000200002000222488054041240DB
:201AC000001010012322040041800000A80000090000000000001008000000010100000010
:201AE0000000000000000000F700FF00B20000000000A500AB00D300E00030000000080003
:201B0000700000000000080040000000000000006000040020000000000000000000000089
:201B20000000000000000000000A00008040000400004232004000A10100000090020800E7
:201B400000004200008000000000000400120001104010400002001500004004104012044B
:201B600040802880000028A100000000000000000000000000000000000000000000000034
:201B8000400000000000000000000002000400000000000008910A220000000040000100F9
:201BA000000000000000000008000040404000000000000000800400000000180011308000
:201BC00001024800844001000100101400004062000000004000081200080000400000008C
:201BE0000000000000000000CC00BD00610000000000FF00FA00FE000000000000000800FC
:201C0000480000000000000003001400000008002200040000000200000000000000000035
:201C2000000000000000000084000008422010000080088008004802800001002120000189
:201C4000001008000000480082810080000000000012450000000048A00001080012000047
:201C60009402008086000000000000000000000000000000000000000000000000000000C8
:201C800000000000020410400080400000000002000000000000000000000000000000002C
:201CA00000000000000000004000000000100000000004000000008100000000000000004F
:201CC000000000000000000000000000000000000000000000000000000000000000000004
:201CE0000000000000000000F700FB00F90000000000AF00AF00DF00000000000000F000CC
:201D00001000000000000000400090000000120000000000000000000000000000000000D1
:201D20000000000000000000002100220050000000084600800000A000100144000020022B
:201D400040024480000000008008011400000000042200228000305000080100005010002F
:201D60000011004C002000A000000000000000000000000000000000000000000000000046
:201D80008000200000008000000040080000000000000000000000000000000001000000DA
:201DA00000000000000000000000100001000004000010000010008000000000000000006E
:201DC000000000000000000000000000000000000000000000000000000000000000000003
:201DE0000000000000000000CF00BF00370000000000EF0033003F000000000000001C00A1
:201E00000C00000000000000030010000000020000000000000000000000000000000000A1
:201E2000000000000000000000000000000000040000200008000000000000000000000076
:201E4000000000000000008000000000000000000000000000000000000000000000000002
:201E60000000000000000000000000000000000000000000000000008002000000004000A0
:201E8000000000000000000000000000000000000000000000000000000000000000000042
:201EA00000000000000000000000000400000000000000000000100000000000000000000E
:201EC000000040000000000080020000080000801000000000000000000000000020020086
:201EE00000000000000000008000300000008000000000000000000000000000E0000000D2
:201F00000000000000000000800000000000000000000000000080000000000000000000C1
:201F200000000000000000000420000000000200000000000000000000000000000000007B
:201F4000000000000000000000000000000000000000000000000000000000000000000081
:201F600000000000000000000000000000000000000000000000000004000200000000005B
:201F8000000000001000000000000000000000000000000000000000000000000000000031
:201FA000000000000000000004000100080000200000000080000000000000000400000070
:201FC000000040000000012000020200000000800000208000000200010000000000000079
:201FE0000000000000000000D000000000000000000000000000000000000000A000200051
:20200000000000000000000040002000000080000000200030000000000000000000000090
:202020000000000000000000000000000000000000000000000000000000000000000000A0
:20204000000000000000000000000000000000400000000000000000000000000000000040
:20206000000000000000000000000000000000000000000000000000000000000000000060
:20208000000000000000000000000000000000000000000000000000000000000000000040
:2020A000000000000000000000000000040000001000000000000000000000000400000008
:2020C000040042000100216000020200100000000000200020004080000000000002000022
:2020E000000000000000000000000000000000008000000000000000000000000000000060
:202100000000000000000000100000000000000000005000000080000000000000000000DF
:2021200000000000000000000000000000000000000000000000000000000000000000009F
:2021400000000000000000000000000000000000000000000000000000000000000000007F
:2021600000000000200000000000000000000000000000000000000000000000000000003F
:2021800000000020000000800000000000000000000000000000000000000000000000009F
:2021A0000000000000000000000000000000000000000A0000000000000000000400000011
:2021C0000400020001002160000008002000200000000000000000000000104004001000CB
:2021E00000000000000000000000000000000000000000000000200000000000800020001F
:202200000000000000000000000000000000000000000000000000000000000000000000BE
:2022200000000000000000000000000000000000000000000000004000000000000000005E
:2022400000000000000000000000000000000000000000000000000020000000000000203E
:2022600000000000000000000000000000000000000000000000000000001100000000103D
:2022800000000000000010000000000000000000000000000000000000000000000000002E
:2022A00000000000000000000000000000000000000000000000001000000000000000000E
:2022C00004000200010020400000080000002000040000000000000000010000000000006A
:2022E00000000000000000000000200000000000000000003000000000000000E00020008E
:2023000000000000000000000000000000000000000020000000000000000000000000009D
:20232000000000000000000000000800000002000000000000000000040000000002080085
:2023400000000000000000000000000000000000000000000000000001000040000020021A
:2023600004000000000028000200000000000000000000000000000000000000000000002F
:2023800000000000000000000000000000000000000000000000000000000000000000003D
:2023A000000000000000000000000000000000020000000002000000000000000000000019
:2023C0000000000000000000000000000000000000000000000000000000000000000000FD
:2023E0000000000000000000C0000000E000000000000000F000E00010000000000000005D
:2024000000000000000000000000000000004000000000000000000000000000000000007C
:20242000000000000000000020200000000F1F00001F1F00100000004C0001020E000E0075
:20244000C0000000FC0000FF03000000000000001E00001F010000000000000038C7C700BA
:20246000070000000C00000F0300000000000000B8000EF1410001000000000000F0F0005E
:20248000B000000000000B0000010A00000200000003000000000000000000000000000071
:00000001FF
