:20000000550A0000000000000C060000000000000402000000000000000000000C0000005D
:20002000000003030000000001010000000000000000000003000000020A00004000000069
:200040000000000000000200AF0F0000000000000000000000000084000400000008000050
:20006000000100000080004000000004000000020020001000100020000200000000000156
:2000800000000008004000800000000000FF00000000000000000010000000000000000089
:2000A0000000000000000000000000000000023D0404000D044000010000000000000000A7
:2000C000000000000000000000000000000000000000000000000000000000020000080115
:2000E0000000000000000000000000000400000402000000000000000009000000000009E4
:20010000020000000000050002010102040808040200000000001111000000000000000096
:2001200000000000000000000000000041000000040400044220000100000000000000000F
:20014000000000000000000000000000000000000000000000000000050002000700000190
:20016000000400A3000000120300040C07000000000000200700000000C8070307000000AC
:200180000000000000010062040002E00010010F00000000000000000000000000000000F6
:2001A000000000000000000000000000000008000404000414900001000000000000000086
:2001C000000000000000000000000000000000000000000000000000600000848D00004866
:2001E0008D0000218D00000002000D00220218008D000010000400000D0080020001000048
:2002000012084400110022000F1F00208040708080020200000010010000000000000000BA
:200220000000000000000000000000004100000004040004413000010000000000000000FF
:2002400000000000000000000000000000000000000000000000000000010C000000000190
:2002600001040000000000000000000800010300000100000C010000000108000000000056
:20028000000200000000000004080204010308000020000000004114420000000002000580
:2002A00011FFFFFF42A0700008100000000008000C040404443000010048404880488048D1
:2002C00000000000000000000000000000000000000000000000000000000000010000001D
:2002E0000100000000000000000001000000000000000100010000000000010000000000F9
:200300000100000000000000010000000000000000000000000000000000000000000000DB
:20032000000000000000000000000000000008000404000444200001000000000000000044
:2003400000000000000000000000000000000000000000000000000000000000000000009D
:2003600000000000000000000000000000000000000000000000000000000000000000007D
:2003800000000000000000000000000000000000000000000000000000000000000000005D
:2003A0000000000000000000000000002000040004040004442000010000000000000000A8
:2003C0000000000000000000000000000000000000000000000000000000000000002100FC
:2003E00000001E001000C1000000000000008000C100040000000000C10002000000000006
:20040000C1000800000000001F0020008000400000000000000051000106100004CFD0BE4B
:200420003BFFFFFF2200F00C8C100000000002280404242448880811000000000000000067
:200440004001C0010000000000000000000000000000000000000000A5FF4A001A01600031
:20046000043A000400030400FF220005CC0513780010B5074D08920700030100A9015400F5
:200480000001020002C00007FF000080007F000000080000000001103200000005B00D0085
:2004A00006FF7FFF42A070000C00F6000000000004040404000000010009400930090000C9
:2004C00000000000000000000000000000000000000000000000000000000000000000001C
:2004E0000000000000000000000000000000000000000000000000000000000000000000FC
:200500000000000000000000000000000000000000000000000000000000000000000000DB
:200520000000000000000000000000000000080004040004449000010000000000000000D2
:200540000000000000000000000000000000000000000000000000000001000E001000E09C
:200560000075000000000200001100880075010000010402003508400024005100000000FC
:200580000064001100000000080004F00200010F0000008800000000000000000000000050
:2005A000000000000000000000000000000000000404000405000001000000000000000029
:2005C000000000000000000000000000000000000000000000000000041FE0000190000B7C
:2005E0005D4FA20000480202E24200093D40C2140001FF0040401D0B0D0300209200600116
:2006000001010000000308000000001F00E0FF00002000000000401000000000000000005F
:20062000000000000000000000000302000000000404000400400001000000000000000068
:200640000000000000000000000000000000000000000000000000006C00006064C008049E
:2006600091004EFFA4C0400800C000022CC04001089010400000000071808200C01F2F2078
:200680006C7F008040002C9F000031000F00C0FF00008C00000000406302500004DEF0BCD6
:2006A0003BFFFFFF2200F008040000004000040004040404011100010000C000400110115B
:2006C000C001001140014001000000000000000000000000000000000000000000000000C6
:2006E0000000000000000000000000000000000000000000000000000000000000000000FA
:200700000000000000000000000000000000000000000000000000000000000000000000D9
:2007200000000000000000000000000000000000040400004400000100000000000000006C
:20074000000000000000000000000000000000000000000000000000000000000000000099
:20076000000000000000000000000000000000000000000000000000000000000000000079
:20078000000000000000000000000000000000000000000000000000000000000000000059
:2007A0000000000000000000000000000000080004040004442000010000000000000000C0
:2007C00000000000000000000000000000000000000000000000000002040000824004004D
:2007E0003988462100408000800106000401000086010000400130008601000051872E18E8
:2008000017A268080610800008400F3F80807000080A80000000111400000000000000005C
:2008200000000000000000000000000009000400040400041110000100000000000000007D
:20084000000000000000000000000000000000000000000000000000000000010000000097
:20086000000100000018000000000000000200000000000200000000000000080000000053
:200880000000000000000004000800010006001000000000000000450000000000000000F0
:2008A0000000000000000000000000000000022004040024948008010000000000000000CD
:2008C000000000000000000000000000000000000000000000000000000000000000000018
:2008E0000000000000000000000000000000000000000000000000000000000000000000F8
:200900000000000000000000000000000000000000000000000000000304300001FD0BCEC9
:2009200037FFFFFF2200F00C8C1000002000040004042404443800010000000000000000F8
:200940004001C0010000000000000000000000000000000000000000000000000000000095
:2009600000040200000000000000F007000000000E1020000E081000000709000000000204
:200980000E00400080010E00011004070208F80000000000000054150000000000000000F3
:2009A0000000000000000000000000000000080004040004083000010000000000000000EA
:2009C0000000000000000000000000000000000000000000000000000000020000210500EF
:2009E000040800100802000000000001002400000000000000000000000800100001000093
:200A00000800000000240000080101200402021C0288000000001140000000000000000081
:200A200000000000000000000000000000000228040400040310000100000000000000006C
:200A4000000000000000000000000000000000000000000000000000A20018029C08221004
:200A6000980006002200000001080011B200080001001E00AA0010000400000000004000C5
:200A80003F000004060000001F01601800028004820000000000400000000000000000002D
:200AA000000000000000000000000000010000000404000C004000010000000000000000E0
:200AC000000000000000000000000000000000000000000000000000000008000000980076
:200AE00000004002000000040F00000000002000C000000190000100FF0000000400080024
:200B000090000208000094000008C0013F0200042000000000000000000000000000000079
:200B2000000000000000000000000000200004000404000450000001000000000000000034
:200B4000000000000000000000000000000000000000000000000000010002000680605656
:200B60002000C0006000020005406A134033200C614602A9000010012F2A8054080E653097
:200B80000100640000FF00001F000000E0FF000000002000000000000000000000000000D3
:200BA000000000000000000000000000000008000404000400900001000000000000000090
:200BC00000000000000000000000000000000000000000000000000000003340010F1A2058
:200BE0001200012101000464010F061000000022000000080000130F000013800000000F44
:200C0000000000000000000807100800100F20E000000280000010100000000000000000EC
:200C200000000000000000000000000000000800040400040090000100000000000000000F
:200C4000000000000000000000000000000000000000000000000000000000000000000094
:200C6000000000000000000000000000000000000000000000000000000000000F00000065
:200C8000040000000000000000000000080000000000000000000000000000000000000048
:200CA000000000000000000003470047000078070000000000000000000000000000000024
:200CC0000000000000000000000000000778000F00000000000000003B0114000000000036
:200CE00000001B01310100003F011400000000001E011D00310116000000000800040001C1
:200D00000000000000101000000000000000000000000000000000000000000000000000B3
:200D20000000000000000000000000000000000000000000000000000000000000000000B3
:200D4000000000000000000000000000000000000000000000000020000000000000000073
:200D600000000000000000000000000000000000000000000000000000000820000000004B
:200D800000000008000010000000000000200000000000000004080100000000000000000E
:200DA000000000000000000000000000000400000000000000000000070005000000000023
:200DC000000000000000000000000000000004000000000000000000000004000000080003
:200DE0000000080000000000000000000000000000000000000000000000080000400000A3
:200E000000204000080000000000000000000000000000000000000000000000000000006A
:200E20000000000000000000000000000000000000000000000000000000000000000000B2
:200E4000000000000000000000000000000000000000000000000000000000000000000092
:200E600000000000000000000000000000000000000000000000000000000000000008006A
:200E8000001000000800000000000000000040000000000000400801000000000020000091
:200EA00000200000000800400000000000000000000000000000000003000E0000000000B9
:200EC0000000000000000000000000000000000000000000000000000000000000000C0006
:200EE0000000000000000000000000000000000000000000000000000000000000000000F2
:200F0000000800000000004000000000000000000000000000000000000000000000000089
:200F20000000000000000000000000000000000000000000000000000000000000000800A9
:200F4000000000000000000000000000000000000000000000000000000000000000000091
:200F6000000000000000000000000000000000000000000000000000000000000000000071
:200F80000000000000004000000000000000000000000000004000010000000000000000D0
:200FA00000000000000000000800000000000000000000000000000000000C00000000001D
:200FC00000000000000000000400000000000000000000000000000000000000000002000B
:200FE0000000010000000000000000000000000000000000000000000000000000000000F0
:201000000000000000000000000000000000000000001000000000000000000000000010B0
:201020000000000000000000000000000000000000000000000000000000000000000000B0
:20104000000000000000000000000000000000000000000000000000000000000000000090
:20106000000000000000000000000000000000000000000000000000000000000000000070
:201080000040000100000000000000000000100008000000000000100000000000000000E7
:2010A000000010000000000000000000000000000000000000000000000000000000080018
:2010C00001000000000000000000000000000000000000000000000000000100000004000A
:2010E0000000000000000000000000000000000000000000000000000000000000000000F0
:201100000800000000000000000000000000000000000000000000000000000000000000C7
:201120000000000000000000000000000000000000000000000000000000000000000000AF
:2011400000000000000000000000000000000000000000000000000000000000000000008F
:2011600000000000000000000000000000000000000000000000000000000000000000006F
:2011800000000000000000000000000000000000000000000000001000000000000000003F
:2011A000000000000000000000000000000000100000000000000000000008000000000017
:2011C00000000000000000000000000000000000000000000000000000000000000000000F
:2011E0000000000000000200000000000000000000000000000000000000000000000000ED
:201200000000000000000000000020000000000000000000000000000000000000000000AE
:201220000000000000000000000000000000000000000000000000000000000000000000AE
:2012400000000000000000000000000000000000000000000000000000000000000000008E
:2012600000000000000000000000000000000000000000000000000000000000000020004E
:2012800000000000000000000000000000000000000000000000000000000000000000004E
:2012A000000000000000000000000000000000000000000000000000000000000800000026
:2012C00000000000000000000000000000000000000000000000000000000000000000000E
:2012E0000000000000000000000000000000000000000000000000000024008118000240EF
:20130000042040020002010000020804000000020022400210120100002020000040004904
:2013200000060001000004420020088100003942000000042082020600000000000000008E
:2013400000000000000000000000000000000000800000000040002000008000060000081F
:201360000000000000000000000000000000000000000000000000000000800000000000ED
:201380008000002040440008080404868000000800040000023200001001098000443000BD
:2013A000004008000104010C00000400800000000000000000000000FF009F001E00000093
:2013C0000000DB00FF00F2000000000000003800380000000000000041000000210040002F
:2013E000000000000000200000000000000000000000000000000000000800440028044015
:2014000005010000040000001200040000008804000000000000000081001020000000006F
:2014200010800880060880000000140000200044002000420000080000000000008840005C
:20144000000000001000800000000000000400810000000000000200010040002110020001
:20146000805004000000000000000000000000000000020820000204000000244000020002
:2014800000010048000002020020080A2051240004B8884400000000008901008004820719
:2014A0000002010080000030000008000000210000000000000000007E0024007700000037
:2014C0000000790076004D00D000000000008000F800000000001C0061000000B100040056
:2014E000030004000000A200000000000000000000000000000000001012200020060200D9
:20150000002482000080A8000082080400A100081000040020448008040480400B000120D2
:201520000000100000000004200000000200000080002000010004000000000000000000D0
:20154000000000000000000000000000000000004020080200400000005000800000000011
:20156000000000000000000000000000000000000000000000000002004804400008602055
:20158000401010002800204020218882068800440000020A8906044000A10C821040900058
:2015A000002001000004010080080000040060000000000000000000FE00FF00FF0000001D
:2015C000000024008400CC000000000000001F000D00000000001000400008000000000013
:2015E00010000600A0000200000000000000000000000000000000001402000220082000D3
:20160000101000008000840008000000005100001010420000888020004200240001180044
:201620000000050211000080080600000000A001800000240000001000000000000800089F
:20164000000000000000000000000000000000000000000000001040000100600000400891
:2016600054008000000000000000020000000000000000000000020000400000000014003E
:201680000000008000000200842018122000E20405A7AC4580005108001020105404902531
:2016A00000800040000000000040B0001001404000000000000000004F00D000D2000000F8
:2016C0000000DB00B3002E000000000000003000320000000000100081000600080002004B
:2016E00000000200010002000000000000000000000000000000000000A4000100060A0030
:2017000002080001408220048000000010C0801000000000000000010000000000000408EB
:2017200002200000010028808008000140061000800400000052040000000000000304041A
:20174000000000000101000000000000000000808000000001000002000000020000000082
:201760000000000000001400000000000000AA101010080000000000000010000000020160
:2017800000920000400440012104088000C045440200000408020B5000A008021047A280AE
:2017A000000000041243000000000004002040480000000000000000F700FD00F800000038
:2017C0000000FC00FB00FA006000100000000800080000000000000010000000B0000000D8
:2017E000000000000000000000000000000000000000000000000000104800000020200051
:201800000000142000808000880000000400800410100082000000000000000000000000E2
:20182000402080800400800000A000040020004400002800000028000810008200000000D2
:20184000000128000000000000080011000000000000000000010000000008C010400088A5
:20186000884004000000000000000000000000000801800400000000400000004008004047
:20188000042000040000000C042008180000624015A6AC05C010514800904818540D0021E7
:2018A000000004000825008012100001000910000000000000000000670096007A000000C4
:2018C00000003C007E0066000900040000008000F200000000000600020001000000080058
:2018E00000000B00020048000000000000000000000000000000000000000100200202105E
:201900004004000800820014000000000481280010108040000000400104040020200804C3
:20192000000220000441048000A208000082085001080010208200140000000000C00000A9
:201940000000000000000000000000000000000000204108800000001010804000000000BE
:20196000000000000A000002000000000000000000000000000000000880200000000002B1
:2019800040040000000001000000000000040000800000001800000200000100020022003F
:2019A000020000000000840000000100000000040000000000000000F100F700F0000000C4
:2019C0000000F500FF00F7000000000000001F000F0000000000000020001000000020009E
:2019E000200001001000000000000000000000000000000000000000100280000000200400
:201A0000000026080082000804004020000200201040880000010000002208000000000085
:201A200080001000002080000A00009000000064002801000000280800204000000280003D
:201A4000000400000000000000000008000000004010000000100048040080000208002420
:201A6000000000000000000000000000000000000000000200000000200000100000040030
:201A800000104800000000100002041000009024018020250048C0000290400274050020D9
:201AA0000004080205004000002200000000C01000000000000000006A00D500580000004A
:201AC000000035007F0067000500000000007C007C000000000008000000050002002000BF
:201AE0000000070000002000000000000000000000000000000000008004000414410000E2
:201B00002200000000002008900000000840A000000000000060044400000000004000001B
:201B200020000008000024469000000408013200002400000C421050000000000020200230
:201B400000000000400801110000000000081006000000000000000000000000400010219C
:201B600000000000000000000000000000000000000000000000000008001002000000400B
:201B8000000020002000000010201020840406C88200000078080004C4010108004822020F
:201BA000020000084000000004004000000000000000000000000000F7006A00FC0000003A
:201BC0000000F600EE00F600E000300000000000F00000000000000040000000000080006B
:201BE000200000000000400000000000000000000000000000000000A800008800008020B5
:201C0000208042100088800009020000000200080020408000060200008186280400001189
:201C200000002600810000000088200400000011200500000420008000000000000020084F
:201C4000000000000000000000000000000000000440100080000000000000200080000010
:201C6000000000000000000000000000000000000000000000000000A810004004000080E8
:201C800080000010000081102005040000000A24000006000008A0080208600020040A2856
:201CA0000000001000000000000000080000001000000000000000003F00BE003B000000C4
:201CC00000009700AE0077000000000000001E0012000000000000000000150002004400BD
:201CE0000000000001000800000000000000000000000000000000008004000494020000BD
:201D00002200000000082A40900000000000284200000000100052100000000000150000AE
:201D20002000000800022C46900000040800660200240000008A1000000000000000000045
:201D4000000000000000000000000000000000000040030000086100000080000000020154
:201D600000000000000000000000000000000000000000000000000000100201C050000040
:201D8000800000000000A040000000000000000000000000000000000000000000000000E3
:201DA000000000000000000000000000000000000000000000000000F700FA00FC00000036
:201DC0000000F600FE00F600000000000000F80098000000000000000000400080000200C7
:201DE0000000000000000000000000000000000000000000000000000000020000080000D9
:201E000000080A003000100001008008004000100000000000011480000020000028C0807A
:201E20000100A61000000090000891000000000420850000000002040000000020240800C7
:201E40000000000000000420000000000000000010000000200000840001000000000800A1
:201E6000028520040000000010000200000000000000080000000000000000000008002075
:201E80000000200000400000000000000000000000000000000000000000000000000000E2
:201EA00000000000000000000000000000000000000000000000000021006700CD000000CD
:201EC0000000CF004F00CF000000000000007400410000000000040002000000080004004E
:201EE0000000000000000000000000000000000000000000000000000000000000000008DA
:201F00000002000000010000000000000000000000000000000002000000000000000000BC
:201F20000000000000000000000000000000000000000000000000000000000000000000A1
:201F4000000000000000000010000000000010004000000000000000000000000000000021
:201F600000020000000000000020000000000000000000000000000000000100001010001E
:201F8000400100080002020020000000001000004000020000000000400000000020000022
:201FA0000000000000000000020200000000000000000000000000008000300000008000ED
:201FC000000000000000000000000000E00000000000000000000000000040008000100051
:201FE000000000000000000000000000000000000000000000000000880000000000020057
:202000000000000000000000000000000000000000000000000000000000000000000000C0
:202020000000000000000000000000000000000000000000000000000000000000000000A0
:2020400000000000000000000002001002000000000000000000000000000000000000006C
:202060000000000000000000000000000000000000000000000000000080000000000010D0
:202080004000000000000000200000000010000040000000008000000000000004200000EC
:2020A000000000000000000300000000000000000000000000000000D0000000000000004D
:2020C000000000000000000000000000A000200000000000000000000000200000004000E0
:2020E00000004000000040000000000000000000000000000000000000000000000100005F
:202100000000000000000000200000000011000040000000008000030000000004200000A7
:2021200000000000000000000000000000000040000000000000000000000000000000005F
:2021400000000000000000000000000000000000000000000000000000001000000000006F
:2021600000000000000000000000000000000000000000000000000000000000000000005F
:2021800000000000000000000000000000000000000000000000000000000000000000003F
:2021A00000000000000000000000000000000000000000000000000000000000000000001F
:2021C00000000000000000000000000000000000000000800000000000000000000000007F
:2021E00000000000000000000000000000000000000000000000000000000000044000009B
:20220000000010800000000020000000001100004000000000C0100300000000002000408A
:202220000000440000000000000000800000000000000000000000000000000000000000DA
:202240000000000000000000000000008000000000000000000000000000000040001000AE
:2022600000008000000080000000000000000000000000000000000000000000000000005E
:2022800000000000000000000000000000000000000000000000000000000000000000003E
:2022A00000000000000000000020004000000000000004000000400000000000000000007A
:2022C0000000000000000000040000000000004000008000000000800000000000000000BA
:2022E00000000000000000000000000000000040000000000000000010000000400000004E
:20230000000000001400000010004000001100000000000000C01003000000000000000075
:2023200000000000000000010000000000000000000000000000000000000000000000009C
:20234000000000001000600000000000E0002000000000000000200000000000800010005D
:2023600000000000000010000000000000000000000000000000000000000000000000004D
:202380000000000000000000000000000000000010000000000040000000000000000000ED
:2023A0000000000000000000004000010080000200011000001000020000008000000000B7
:2023C0000000000000000000000000000000000000000000000000000000000000000000FD
:2023E00000000000000000000000000000000000000000000000000000000080000000005D
:202400000000000000000000000000000000000000000000000000000000000000000000BC
:2024200000000000000000000000000000000000000000000000000000000000000030006C
:2024400000000000F000F0001000000000000000000000000000000000000000000020006C
:2024600000000000000000000000000000000000000000000000000000000000000F1F002E
:20248000100F0F00000000004C0001020E000E00C0000000FC0000FF0300000000000000E5
:2024A0001E00001E000000000000000038C7C700070000000C000C030300000000000000F5
:2024C000B80006F94100010000000000C00000F0300000000000000000000A000000090010
:2024E0000004000000050000000000000000000000000000000000000000000000000000D3
:00000001FF
