:400000000080002011000000390F0000390F000080B500AF024A034B1B68136000F0BEFFBC760040FA46004001000000002000400100000000200140010000000048004020
:400040000100000000480140010000000100000008000223000008760800032300001076080004230000287608000523000030760500062300002070050007230000307065
:4000800005000823000060700500FE23000070701000FE220000C05180020B220000000080010C220000000400020D220000000680010E220000001400020F220000001652
:4000C00080001022000000410002112200000042800012220000004580001322000000478000FE2200000049070015230000085207001623000010520700172300002852C2
:400100000700182300003052400019230000006420001A23000070642000FE230000706508001C230000005180001D230000800280001E230000000880001F2300008008E7
:40014000800020230000000A800021230000800A800022230000000C800023230000800C800024230000000E800025230000800E80002623000000188000272300008018D3
:40018000800028230000001A800029230000801A10002A230000105010002B230000005080002C230000004D80002D230000804D80002E230000004C80002F230000804C15
:4001C000800030230000804780003123000000468000322300008046800033230000804580003423000000448000352300008044800036230000001B800037230000801BF5
:400200008000382300008015800039230000001980003A230000801980003B230000000980003C230000800980003D230000000B80003E230000800B80003F2300008005D6
:40024000800040230000000D800041230000800D80004223000000038000432300008003800044230000000F800045230000800F800046230000804980004723000000487B
:400280008000482300008048800049230000804180004A23000000408000FE230000804010B5054C237833B9044B13B10448AFF300800123237010BDF881FF1F0000000017
:4002C00058570000084B10B51BB108490848AFF300800848036803B910BD074B002BFBD0BDE81040184700BF00000000FC81FF1F58570000C880FF1F0000000080B58AB0EA
:4003000000AF3B4600221A605A609A60DA6062B602F078FD01F01CFF01F090FD02F00AFD02F07EFB02F04EFC4FF4FA6001F0E6FC00F0B8FF4FF4FA7001F0E0FC01F0F0F9EF
:400340000023FB7701F02AF801F062F8944B00221A700AE0924B1B78184600F031F9904B1B780133DAB28E4B1A708D4B1B78012BF0D90023BB7701F099FA01F00FF8894B97
:40038000DB8A1A46884BDB8AD31A884AD27A9342CCBF01230023DBB2BB61BB69002B03D0012001F02DFD02E0002001F029FD804B00221A707A4B00221A7026E07C4B1B7826
:4003C0005A1CD1B27A4A11701A46754B1B781946784B53F821301B12D9B2774B9954744B1B785A1CD1B2724A11701A466C4B1B781946704B53F82130D9B26F4B9954684B1A
:400400001B780133DAB2664B1A70654B1B78012BD4D9694B00221A71674B00225A71664BFE229A71644BFD22DA71644B00221A70624B00225A70614BFE229A705F4BFD228A
:40044000DA7000BF00F0D6FF0346002BFAD1544B00221A703AE0524B1B781A46514B33F812301A464E4B1B7819464F4B33F81130D31A4B4A127811464C4A525C9342CCBF79
:4004800001230023DBB27B614C4B1B785AB2444B1B7819467B698B405BB213435BB2DAB2464B1A70444B1B795AB23D4B1B7819467B698B405BB213435BB2DAB23E4B1A71A7
:4004C000374B1B780133DAB2354B1A70344B1B78072BC0D9324B08221A703CE0304B1B781A46304B33F812301A462D4B1B7819462D4B33F81130D31A294A127811462B4A39
:40050000525C9342CCBF01230023DBB23B612B4B5B785AB2224B1B78083B396901FA03F35BB213435BB2DAB2244B5A70224B5B795AB21B4B1B78083B396901FA03F35BB2B4
:4005400013435BB2DAB21C4B5A71154B1B780133DAB2134B1A70124B1B780B2BBED900237B6209E0154A7B6A13441B78184602F091FA7B6A01337B627B6A032BF2DD002315
:400580003B6209E00C4A3B6A13441B78184602F053FB3B6A01333B623B6A072BF2DDD3E61482FF1FA882FF1FF482FF1FCC80FF1F1582FF1F5C82FF1F9882FF1F6C82FF1F6E
:4005C000B0B586B000AF0346FB7100233B610023FB6000237B610023BB60FB79184602F0C3FBFB795B00DBB2184601F045FC052001F0A6FB01F0C4FD002001F0D1FD01F0DB
:40060000F5FD3861FB795B00DBB20133DBB2184601F032FC052001F093FB01F0B1FD002001F0BEFD01F0E2FDF860FB68642B06DD3B69632B03DC4FF6FF737B6128E0FC7968
:40064000F86802F057FF0546386902F053FF03461946284603F056F803461A46114B43F82420F86802F046FF0446386902F042FF03461946204603F045F803460A491846DA
:4006800002F08CFF0346184603F0D8F803467B61FB7906497A6941F8232000BF1837BD46B0BD00BFA082FF1F0000FA465C82FF1F80B584B000AFF860B9607A607A68B968ED
:4006C000F86803F00DF900BF1037BD4680BD00BF80B483B000AF0346FB71FEE780B483B000AF434B00221A60424B10221A70424B01221A70414B00221A70414B4FF414729C
:400700001A80404B01221A703F4B03221A703F4B3F4A92B21A803F4B47F608021A803E4B00221A803D4B4FF480421A803C4B09221A703C4B0A221A703B4B14221A703B4BA1
:400740001B221A70BFF35F8F394B01221A70BFF35F8F00BF2A4B1B889BB2002BFAD100237B600DE07B68DA00324B13441946324A7B6852F823309BB20B807B6801337B6086
:400780007B68492BEED9BFF35F8F294B01221A70BFF35F8F00BF294B1B78DBB203F00103002BF8D100BF264B1B78DBB203F00103002BF8D100BF234B1B78DBB203F00103FD
:4007C000002BF8D100BF204B1B78DBB203F00103002BF8D100BF1D4B1B78DBB203F00103002BF8D100BF0C37BD4680BC704700BF2082FF1F007600401070004019700040E8
:40080000007800400278004003780040047800405000000006780040047600400676004029700040397000406970004079700040147000400C780040F857000018700040A8
:400840002870004038700040687000407870004080B582B000AF454B00221A80444B50221A70444B00221A80434B19221A70434B06221A80424B1C221A70424B06221A80F9
:40088000414B1C221A70042240494148FFF710FF404B06221A70404B404A1278D2B21A703F4B52221A703F4B40F621321A803E4B41F251221A800023FB7019237B6013E027
:4008C000FB785B00DAB2394B1B78DBB203F00103DBB21343DBB203F00303FB70782002F0FFFA7B68013B7B607B68002B02D0FB78032BE5D17B68002B02D10320FFF7E8FE9B
:400900002B4B4FF480721A80294B07221A70294B00221A70284B48221A70254B00221A70264B00221A70264B02221A70254B04221A70254A244B1B78DBB243F00F03DBB27C
:400940001370224A214B1B78DBB243F00103DBB213701F4A1E4B1B78DBB263F07F03DBB2137000BF0837BD4680BD00BF8040004082400040844000408640004088400040CD
:400980008A4000408C4000408E400040881700480041004000430040A14600400F01004900420040224200402042004025420040044000400640004008400040094000401E
:4009C000014000400B400040A2430040A1430040A043004080B483B000AF1A4B1B78FB71194AFB7903F00703DBB21370174AFB791B09DBB21370164B09221A70154B02227E
:400A00001A70154B04221A70144B10221A70144B00221A70134B60221A70134B44221A70124B20221A70124B40F204421A80114B24221A70104B66221A7000BF0C37BD4608
:400A400080BC7047CF0100496E5800406F5800400D5100403D5100404D510040FD51004070580040C05A0040C85A0040D35A0040405B0040585B00407658004080B485B00F
:400A800000AF0346FB71FB79012202FA03F3FB73FB79032B3BD8204B1A78FB7B1340DBB2002B34D11C4B1A78FB7B1343DAB21A4B1A70FB79194A52F82330FA79174951F8D3
:400AC00022201178FA791648825C0A43D2B21A70FB79144AD35CBB73BB7B134AD35C002B0ED1BB7B114A52F82330BA7B0F4951F822201178BA7B0E48825C0A43D2B21A7093
:400B0000BB7B094AD25C0132D1B2074AD15400BF1437BD4680BC70471882FF1F6057000070570000805700001C82FF1F745700007C57000080B485B000AF0346FB71FB792A
:400B4000012202FA03F3FB73FB79032B41D8234B1A78FB7B1340DBB2002B3AD0FB7BDB43DAB21E4B1B781340DAB21C4B1A70FB791B4A52F82330FA79194951F82220117861
:400B8000FA791848825CD243D2B20A40D2B21A70FB79154AD35CBB73BB7B144AD25C013AD1B2124AD154BB7B104AD35C002B10D1BB7B0F4A52F82330BA7B0D4951F8222055
:400BC0001178BA7B0B48825CD243D2B20A40D2B21A7000BF1437BD4680BC70471882FF1F6057000070570000805700001C82FF1F745700007C57000080B483B000AF03464F
:400C0000FB71FB79032B0ED8FB79094A52F82330FA79074951F822201178FA790548825C0A43D2B21A7000BF0C37BD4680BC7047845700009457000080B483B000AF03466F
:400C4000FB71FB79032B10D8FB790A4A52F82330FA79084951F822201178FA790648825CD243D2B20A40D2B21A7000BF0C37BD4680BC7047845700009457000080B483B08C
:400C800000AF0346FB71FB79012B24D8FA79FB791344FB71FB79124A52F82330FA79104951F822201178FA790E48825C0A43D2B21A70FB790133FB71FB79094A52F82330C3
:400CC000FA79074951F822201178FA790548825C0A43D2B21A7000BF0C37BD4680BC704798570000A857000080B483B000AF0346FB71FB79012B28D8FA79FB791344FB7129
:400D0000FB79144A52F82330FA79124951F822201178FA791048825CD243D2B20A40D2B21A70FB790133FB71FB790A4A52F82330FA79084951F822201178FA790648825CD8
:400D4000D243D2B20A40D2B21A7000BF0C37BD4680BC704798570000A857000080B483B000AF0346FB71FB790E2B0ED8FB79094A52F82330FA79074951F822201178FA7990
:400D80000548825C0A43D2B21A7000BF0C37BD4680BC7047AC570000E857000080B483B000AF0346FB71FB790E2B10D8FB790A4A52F82330FA79084951F822201178FA7963
:400DC0000648825CD243D2B20A40D2B21A7000BF0C37BD4680BC7047AC570000E857000080B500AF72B6384B61221A70FFF730FD354B01221A70FFF771FC344B4FF44072D9
:400E00001A80334B0A221A70324B40F203221A80314B324A1A60324A314B1B78DBB243F00203DBB213702F4A2E4B1B78DBB243F00203DBB213702C4A2B4B1B78DBB243F00B
:400E40004003DBB21370294A284B1B78DBB243F01003DBB21370082225492648FFF728FC082225492548FFF723FC082224492548FFF71EFC082224492448FFF719FC08223D
:400E800023492448FFF714FC082223492348FFF70FFC082222492348FFF70AFC082222492248FFF705FC224A214B1B78DBB243F00803DBB21370FFF78DFD0E220A491D48B2
:400EC000FFF7F6FB00BF80BD0048004070580040835800404C580040D80C0140040404840350014013500140A0430040C2430040481700480251004050170048F2510040BF
:400F000058170048125100406017004822510040681700483251004070170048425100407817004852510040801700486251004022430040B043004080B500AF02F0A4FCDF
:400F400003461B680C2B00D1FEE7FEE780B584B000AF78600F4B1A687B6813441A460E4BD31A802B09DC0B4B1B68FB60094B1A687B681344074A136007E002F085FC0246ED
:400F80000C2313604FF0FF33FB60FB6818461037BD4680BDD880FF1F3083FF1F80B586B000AF224B7B61224B3B61204B7B6135E03B691B68FB603B695B68BB603B699B68C1
:400FC0003B6000237B600CE0FB681A68BB681A60BB680433BB60FB680433FB607B6804337B607A683B689A42EED13B69DB683B6000237B6008E0BB6800221A60BB680433EA
:40100000BB607B6804337B607A683B689A42F2D13B6910333B617B69013B7B617B69002BC6D102F037FCFFF769F9FEE701000000E45A000080B582B000AF184B184A1A6061
:40104000184A184B1B6843F40073136000237B600FE07B68032B04D8134A7B6852F8233000E0124B12497A6841F822307B6801337B607B682F2BECD90E4B1B78DAB20E4B8A
:401080001A700E4B0A4A1A60FFF7AAFE0C4B00221A6000BF0837BD4680BD00BF0CED00E00004FA0514ED00E000000000390F00000080FF1FBC760040C480FF1F08ED00E0A5
:4010C000C080FF1F80B582B000AF00F0A1F9022000F0B0FA01F00CFF0346FB713B4A3B4B1B78DBB243F00303DBB21370384A384B1B78DBB243F00303DBB21370FB791846D1
:4011000001F0FAFE334B4FF434421A80324B4FF6FF721A80314B01221A7001F0E9FE0346FB712F4A2E4B1B78DBB243F00303DBB213702C4A2B4B1B78DBB243F00303DBB245
:401140001370FB79184601F0D7FE274BFF221A70264BFF221A70264BFF221A70254BFF221A70254BFF221A70244BFF221A70244B01221A602349002000F0F6FD07210020EC
:4011800000F01AFE00F07AFD0C20FFF7E7FD0D20FFF7E4FD0E20FFF7E1FD1B4A1A4B1B78DBB243F00403DBB2137000F0FFFB00F08DFC002000F0E8FC042000F005FD0020F3
:4011C00000F022FD00BF0837BD4680BD9A6400409B6400402A6400404A6400408D6400409D6400409F6400402D6400404D6400400D6400402F6400405F6400404F64004078
:4012000080E100E0351900007C64004080B582B000AF01F06DFE0346FB711C4A1B4B1B78DBB243F02003DBB2137000F041FD00F0F1FB00F06FFC164A154B1B78DBB243F00E
:401240001003DBB21370134A124B1B78DBB243F01003DBB21370104A0F4B1B78DBB243F00103DBB21370FB79184601F045FE0B4B01221A600A4A0A4B1B78DBB263F07F0369
:40128000DBB2137000BF0837BD4680BD9D640040BB430040AB4300407058004000E100E07C64004080B500AF064B1B78002B04D1FFF708FF034B01221A70FFF7A7FF00BF2F
:4012C00080BD00BF2482FF1F80B485B000AF0346FB71FB790133FB71FB790C2B12D0FB79DB08FB73FB7903F00703012202FA03F3BB73FB7B074AD25CBB7B1340DBB2002B11
:40130000E7D000E000BFFB7918461437BD4680BC704700BFDC80FF1F80B584B000AF0346FB71FB790B4AD35CFB73FB790A4AD35C184600F069FC094AFB7B0949CB5C137069
:40134000084B1B78184600F05FF900BF1037BD4680BD00BF88590000E080FF1F5D6400402882FF1FEC80FF1F80B582B000AF0346FB71084B00221A70074AFB791370054BC8
:4013800081221A70FB79184600F0C4F800BF0837BD4680BDC182FF1FC082FF1F80B500AF124B00221A70124BFF221A70104B1B78DBB21846FFF788FF03461A460C4B1A70AE
:4013C0000B4B1B78DBB20B2B0DD8084B1B78DBB243F00103DAB2054B1A70054B1B78DBB2184600F097F800BF80BD00BFC182FF1FC082FF1F80B400AF044B1B78DBB203F03E
:401400000103DBB21846BD4680BC7047C182FF1F80B582B000AF0023FB7106E0FB79184600F040F8FB790133FB71FB790B2BF5D900BF0837BD4680BD80B584B000AF0346B6
:40144000FB71FB79134AD35CFB73FB79124AD35CBB73FB79114A52F8233009221A70FB7B0F2B01D10723FB73FB7B0D4A52F82330FA7B0B4951F822201178BA7B0A43D2B2DD
:401480001A70FB791846FFF769FC00BF1037BD4680BD00BF505900005C590000205900006859000080B584B000AF0346FB71FB79144AD35CFB73FB79134AD35CBB73FB79FA
:4014C0001846FFF76BFCFB7B0F2B01D10723FB73FB7B0E4A52F82330FA7B0C4951F822201178BA7BD243D2B20A40D2B21A70FB79074A52F8233009221A7000BF1037BD4688
:4015000080BD00BF505900005C590000685900002059000080B582B000AF0346FB71FB791846FFF7F9FE104A0F4B1B78DBB243F00103DBB213700D4A0C4B1B78DBB223F091
:401540000103DBB21370FB791846FFF775FF064A054B1B78DBB243F00203DBB2137000BF0837BD4680BD00BF7C6400407058004080B582B000AF0346FB711E4A1D4B1B78C0
:40158000DBB223F00303DBB21370FB791A4A1278D2B292B2120291B2184A22F81310184B1B78DBB29AB2FB79F979144830F811100A4391B2114A22F81310FB79FA790F4994
:4015C00031F81220D24391B20C4A22F81310FB791846FFF767FF002000F016FB094A094B1B78DBB243F00103DBB2137000BF0837BD4680BD7C6400401F640040A882FF1FDF
:401600000F6400407058004080B483B000AF0346FB71064AFB791370054AFB795B08DBB2137000BF0C37BD4680BC7047286400403864004080B483B000AF0346FB71FB79C8
:40164000012B08D10A4A0A4B1B78DBB223F01003DBB2137007E0064A054B1B78DBB243F01003DBB2137000BF0C37BD4680BC70477C64004080B485B000AF0346FB71FB7910
:40168000134AD35CFB73FB79FA79124931F81210114A22F81310FB79104A0021D154FB790F4A002122F81310FB7BFA7B0D49895C0D4AD154FB79FA79064931F812100B4A54
:4016C00022F8131000BF1437BD4680BC704700BF88590000A882FF1FF482FF1FD082FF1FDC82FF1F3881FF1F3482FF1F0C83FF1F80B582B000AF0346FB71FB791846FFF75A
:4017000033FE00BFFFF776FE0346002BFAD1FB791846FFF7AFFF00BF0837BD4680BD00BF80B582B000AF0023FB7106E0FB791846FFF7DEFFFB790133FB71FB790B2BF5D9E1
:4017400000BF0837BD4680BD80B586B000AF0346FB71FB794D4AD35C7B757B7D4C4A32F813307B82FB794B4A32F813303B82FB79494A32F813203B8A1146184600F0BEF883
:4017800003463B82FB7944493A8A21F81320FB79424A32F813303A8A9A4209D3FB793F4A32F813303A8AD31AFB8201237B7508E0FB793A4A32F813203B8AD31AFB820023EE
:4017C0007B757B7D002B18D1FB8A142B15D9FB79334AD35C1D2B08D9FB791846FFF74AFFFB792F4A0021D1543AE0FB792C4AD25C0132D1B22A4AD15432E0FA8A7B8A9A42B6
:4018000005D9FB8A132B2BD87B7D002B28D1FB79224A32F813301B02FB60FB79214AD35C1A46FB681343FB603B8AFA681344FB60FB791A4A32F813301A46FB689B1AFB60B0
:40184000FB79FA68120A91B2144A22F81310FB79FA68D1B2134AD154FB79114A0021D154FA8A7B8A9A4208D97B7D002B05D0FB790D49FA8A21F8132004E0FB790A4A002103
:4018800022F8131000BF1837BD4680BD885900000881FF1FA882FF1F0C83FF1FF482FF1FC482FF1FD082FF1FDC82FF1F80B582B000AF0023FB7118E0FB79DB08BB71FB79A8
:4018C00003F00703012202FA03F37B71BB790A4AD25C7B791340DBB2002B03D0FB791846FFF732FFFB790133FB71FB790B2BE3D900BF0837BD4680BDDC80FF1F80B485B0CE
:4019000000AF03460A46FB801346BB80FA88BB881344FB60BB885B00FA681344FB60FB689B08FB60FB689BB218461437BD4680BC704700BF80B500AF1A4B1B78DBB21846F1
:40194000FFF716FE184B1B78DBB25BB2002B08DA154B1B78DBB223F00103DAB2124B1A701DE0104B1B78DBB21846FFF7ADFC03461A460C4B1A700B4B1B78DBB20B2B06D82D
:40198000084B1B78DBB21846FFF7C4FD07E0064B1B78DBB223F00103DAB2034B1A7000BF80BD00BFC082FF1FC182FF1F80B500AF002000F049F8154A144B1B78DBB243F00A
:4019C0002003DBB21370114A104B1B78DBB223F00403DBB213700D4A0C4B1B78DBB243F00803DBB213700A4A094B1B78DBB223F01803DBB21370064A054B1B78DBB243F09F
:401A00001003DBB2137000BF80BD00BF42580040D75A004080B400AF094A094B1B78DBB243F00403DBB21370064A064B1B78DBB243F00403DBB2137000BFBD4680BC7047C9
:401A4000A7430040B743004080B483B000AF0346FB711749164B1B78DBB25BB223F003035AB297F9073003F003035BB213435BB2DBB20B70FB79012B0AD10E4B0E4A127836
:401A8000D2B21A700D4B0E4A1278D2B21A7009E0084B0C4A1278D2B21A70084B0A4A1278D2B21A7000BF0C37BD4680BC704700BF4258004034460040120100493546004005
:401AC00016010049B1010049B901004980B500AF0E4B14221A700E4B00221A700C4A0C4B1B78DBB243F00403DBB21370084A084B1B78DBB243F00203DBB21370002000F052
:401B000023F800F091F800BF80BD00BF205800402158004080B400AF094A094B1B78DBB243F00103DBB21370064A064B1B78DBB243F00103DBB2137000BFBD4680BC704737
:401B4000A8430040B843004080B483B000AF0346FB710C4A0B4B1B78DBB223F00203DBB213700849074B1B78DAB2FB7903F00203DBB21343DBB20B7000BF0C37BD4680BCE6
:401B8000704700BF2058004080B582B000AF0346FB710C4A0B4B1B78DBB223F00403DBB213700849074B1B78DAB2FB7903F00403DBB21343DBB20B7000F036F800BF0837FF
:401BC000BD4680BD2158004080B582B000AF0346FB710C4A0B4B1B78DBB223F00C03DBB213700849074B1B78DAB2FB7903F00C03DBB21343DBB20B7000F016F800BF083704
:401C0000BD4680BD2058004080B483B000AF0346FB71044AFB79137000BF0C37BD4680BC704700BF805B004080B483B000AF104B1B78DBB203F00C035B08FB710D4B1B787D
:401C4000DBB203F00403DBB2002B02D0FB790133FB71094AFB7903F1924303F590731B78DBB2137000BF0C37BD4680BC704700BF20580040215800400846004080B500AF77
:401C800000F002F800BF80BD80B582B000AF0023FB7106E0FB791846FFF780F8FB790133FB71FB790E2BF5D900BF0837BD4680BD80B400AF094A094B1B78DBB243F00203C4
:401CC000DBB21370064A064B1B78DBB243F00203DBB2137000BFBD4680BC7047A2430040B243004080B483B000AF0346FB7101BE00BF0C37BD4680BC704700BF80B582B014
:401D000000AF786008E00C4B1B68184601F0E8F87B68A3F500437B607B68B3F5004FF2D8064B1B687A6802FB03F3184601F0D8F800BF0837BD4680BD5081FF1F4881FF1F12
:401D400080B582B000AF0346FB80FB88054A127802FB03F3184601F0C3F800BF0837BD4680BD00BF4C81FF1F80B584B000AF03463960FB710F4B1B68FB60FB791F2B02D911
:401D80000020FFF7AFFFFB7903F01F0310339B00FA6813441B68BB60FB7903F01F0310339B00FA6813443A681A60BB6818461037BD4680BD08ED00E080B582B000AF034629
:401DC0000A46FB711346BB71BB79072B02D90020FFF788FFFB791F2B02D90020FFF782FFFB7903F01F0303F1604303F56443BA795201D2B21A7000BF0837BD4680BD00BF44
:401E000080B485B000AF0346FB710B4B1B78DBB223F00203FB730849FB795B00DBB203F00203DAB2FB7B1343DBB20B7000BF1437BD4680BC704700BF5051004080B582B0CD
:401E400000AF0023FB710AE0FB791846FEF772FEFB791846FEF7F0FEFB790133FB71FB79032BF1D9034BFF221A7000BF0837BD4680BD00BF5481FF1F80B582B000AF034686
:401E8000FB710C4B1B78FF2B04D00A4B1B78184600F012F8FB791846FEF7F0FDFB791846FEF7AAFE034AFB79137000BF0837BD4680BD00BF5481FF1F80B582B000AF0346D8
:401EC000FB71FB791846FEF735FEFB791846FEF7B3FE00BF0837BD4680BD00BF80B582B002AF324B01221A70314B00221A70102000F03AFC102000F01DFD07211D20FFF7B2
:401F00005BFF2C4B04221A702B4B00221A702B4B00221A702A4A2A4B1B78DBB243F01803DBB21370274B00221A70274B00221A70264B00221A70264B0A221A70254B002263
:401F40001A70254B00221A70244B12221A70244B13221A70234B00221A70234B14221A70012300930C234FF4004248F65C71052000F040FA1D4A0D4B1B78DBB2013B1C49D3
:401F80009B000B449B7813701A4A084B1B78DBB2013B174931F823301380044B1B78DBB2184600F077F900BFBD4680BD5581FF1F4482FF1F96580040975800409E58004088
:401FC000075B004093580040885B0040895B004080580040815800408358004088580040895800408D580040014E00400E4E00404C82FF1F0C4E004080B582B000AF00F064
:4020000077FF0346FB71444B1B78BB71434A434B1B78DBB243F00103DBB213703F4A3F4B1B78DBB243F01003DBB213703C4A3C4B1B78DBB243F00103DBB21370384A384BA3
:402040001B78DBB243F01003DBB21370354A354B1B78DBB243F00203DBB21370324A324B1B78DBB243F00203DBB213702F4A2F4B1B78DBB243F00303DBB213700320FFF7AD
:402080005FFE284A274B1B78DBB223F00203DBB21370254A244B1B78DBB223F00203DBB21370234A224B1B78DBB243F00603DBB21370204B7A221A701F4A1F4B1B78DBB2A7
:4020C00043F00103DBB213701C4A1C4B1B78DBB243F00103DBB21370194A194B1B78DBB243F00103DBB21370164A164B1B78DBB243F00103DBB21370134B4FF000521A60A6
:40210000124B4FF000521A60FB79184600F0F4FE00BF0837BD4680BD5581FF1FAA430040BA430040F8460040F9460040915800407758004082580040A1430040B143004040
:40214000A2430040B243004080E200E000E100E080B500AF084B1B78002B09D1074B1B78DBB2002B01D1FFF7B9FE034B01221A70FFF742FF00BF80BD4682FF1F4782FF1F1C
:4021800080B400AF054A054B1B78DBB243F00103DBB2137000BFBD4680BC7047004E004080B485B000AF0346FB710D4B1B78DBB2002B03D00B4B1B78FB7305E00A4B1B788C
:4021C000DBB203F00103FB73FB7B012B02D0FB79002BEAD0FB7B18461437BD4680BC70474582FF1F4482FF1F014E004080B483B000AF224B1B78DBB203F00303FB70FB7839
:40220000012B0BD81E4B1B889BB27B607B681B041C4A128892B213437B6020E0FB78022B12D1174B1B889BB27B607B681B04154A1278D2B213437B60134B1B78DBB21B02F9
:402240007A6813437B600AE00E4B1B889BB27B600B4B1B889BB21B047A6813437B600B4B1B78DBB2002B02D0094B00221A707B6818460C37BD4680BC704700BF144E004077
:40228000124E0040104E0040114E00404582FF1F4482FF1F80B582B000AF0346FB71374B00221A70FB79012B63D1354B30221A70344B06221A70344B09221A70334B00224A
:4022C0001A70334B00221A70324B1F221A70324B00221A70314B00221A70314B00221A70304B01221A70304B14221A702F4B04221A702F4B09221A702E4B00221A702E4B0F
:4023000022221A702D4B24221A702D4B01221A702C4B02221A702C4B22221A702B4B28221A702B4BEB221A70442000F01BF9294B47221A70284B00221A70284B01221A7093
:40234000274B01221A70274B00221A70264B0A221A70264B4FF47A721A600121052000F045F901210A2000F027FA21491D20FFF7FBFC00BF0837BD4680BD00BF4582FF1F97
:40238000004E0040024E0040034E0040044E0040054E0040064E0040084E0040094E00400A4E0040144E0040845800408558004086580040875800408A5800408B58004093
:4023C0008C5800408E5800408F580040905800409158004094580040955800409A5800409B5800409C5800409D5800402883FF1FE125000090B587B000AF0446084611460B
:402400001A462346FB710346BB800B467B801346BB7197F82830002B00F08B8097F82830012B00F28680FB79013B092B4AD801A252F823F05D240000C5240000C5240000A1
:402440005D240000C5240000C52400007724000091240000C5240000AB240000BB790F2B04D9374B1B78DBB2FB752EE0354B1B78DBB2FB7529E0BB790F2B04D9324B1B7822
:40248000DBB2FB7521E0314B1B78DBB2FB751CE0BB790F2B04D92E4B1B78DBB2FB7514E02C4B1B78DBB2FB750FE0BB790F2B04D9294B1B78DBB2FB7507E0284B1B78DBB20F
:4024C000FB7502E00023FB7500BFBA8897F917305B0113443B617B883A6902FB03F3FB60FB68DB0BBB82BB790D2B12D8BA8ABB79C3F10E0342FA03F3BB8297F82830013B31
:40250000BA790132D1B2164A9B0013440A469A7007E097F82830013B114A9B0013440F229A7097F82830013B0D49BA8A21F8232002E00020FFF7D6FB00BF1C37BD4690BD30
:40254000180100491C010049190100491D0100491A0100491E0100491B0100491F0100494C82FF1F80B584B000AF0346FB7100F0BFFC0346FB73174A164B1B78DBB243F0FF
:402580000303DBB21370144A134B1B78DBB243F00303DBB21370114AFB7913700320FFF7CFFB0C4A0B4B1B78DBB223F00303DBB21370094A084B1B78DBB223F00303DBB24A
:4025C0001370FB7B184600F097FC00BF1037BD4680BD00BFF8460040F94600409258004080B400AF00BFBD4680BC704780B584B000AF03460A46FB8013467B7100F0CEF816
:402600000346FB7300F0A4F80346BB81FA88BB899A4200F08880464B1B78DBB203F00103FB72FB7B002B20D1BB89002B02D0FB88002B1AD1BB89002B0BD13E4AFB881380CE
:402640003D4A3D4B1B78DBB223F04003DBB2137069E0394A384B1B78DBB243F04003DBB21370344AFB8813805DE0FB7A002B33D0324B00221A70324B01221A70314B00226B
:402680001A70314A304B1B78DBB203F07F03DBB21370294B1B78DBB203F00803002B02D0FB88002B18D1294ABB891380234B07221A7000BF214B1B78DBB203F00103002BF7
:4026C000F8D11B4A1A4B1B78DBB223F00103DBB213701A4B00221A70154B1B78DBB203F00103002B13D0194AFB881380134A7B79002B01D0032300E00123137000BF0F4BDE
:402700001B78DBB203F00103002BF8D10BE0094AFB8813800649064B1B78DAB2FB7A1343DBB20B70FFE700BF1037BD4680BD00BFA243004080400040824000400140004015
:402740001040004014400040084000400240004080B400AF034B1B889BB21846BD4680BC704700BF8040004080B483B000AF0346FB710949084B1B78DBB25AB297F9073094
:4027800023F007035BB213435BB2DBB20B7000BF0C37BD4680BC70478240004080B400AF044B1B78DBB203F00703DBB21846BD4680BC70478240004080B584B000AF0346F7
:4027C0000A46FB8013467B7100F0CEF80346FB7300F0A4F80346BB81FA88BB899A4200F08880464B1B78DBB203F00103FB72FB7B002B20D1BB89002B02D0FB88002B1AD130
:40280000BB89002B0BD13E4AFB8813803D4A3D4B1B78DBB223F04003DBB2137069E0394A384B1B78DBB243F04003DBB21370344AFB8813805DE0FB7A002B33D0324B002212
:402840001A70324B01221A70314B00221A70314A304B1B78DBB203F07F03DBB21370294B1B78DBB203F00803002B02D0FB88002B18D1294ABB891380234B07221A7000BF91
:40288000214B1B78DBB203F00103002BF8D11B4A1A4B1B78DBB223F00103DBB213701A4B00221A70154B1B78DBB203F00103002B13D0194AFB881380134A7B79002B01D034
:4028C000032300E00123137000BF0F4B1B78DBB203F00103002BF8D10BE0094AFB8813800649064B1B78DAB2FB7A1343DBB20B70FFE700BF1037BD4680BD00BFA143004012
:402900000041004002410040014000401440004010400040084000400240004080B400AF034B1B889BB21846BD4680BC704700BF0041004080B483B000AF0346FB71094912
:40294000084B1B78DBB25AB297F9073023F007035BB213435BB2DBB20B7000BF0C37BD4680BC70470241004080B400AF044B1B78DBB203F00703DBB21846BD4680BC7047D1
:402980000241004080B500AF084B0F221A7000F09BF800F063F800F06FF8054B00221A70044B00221A7000BF80BD00BF896400408A6400408E64004080B582B000AF00F038
:4029C00097FA0346FB71134A124B1B78DBB243F02003DBB21370104A0F4B1B78DBB243F01003DBB213700D4A0C4B1B78DBB243F01003DBB21370FB79184600F07DFA00F0DA
:402A000065F900F01FF800F023F800BF0837BD4680BD00BF996400409A6400409E64004080B500AF064B1B78002B04D1FFF7AAFF034B01221A70FFF7BFFF00BF80BD00BF9B
:402A40005082FF1F80B400AF00BFBD4680BC704780B400AF00BFBD4680BC704780B483B000AF044B1B78FB71FB7918460C37BD4680BC70476A64004080B483B000AF044B54
:402A80001B78FB71FB7918460C37BD4680BC70476E64004080B483B000AF0346FB7100BF074B1B78DBB203F00403002BF8D0054AFB79137000BF0C37BD4680BC704700BF14
:402AC0006A6400404964004080B582B000AF01E0124B1B78124B1B78DBB203F02003002BF6D100F005FA0346FB710E4A0D4B1B78DBB243F00103DBB213700A4A094B1B7879
:402B0000DBB223F00103DBB21370FB79184600F0F3F900BF0837BD4680BD00BF596400406E6400409964004080B500AF084B0F221A7000F09BF800F063F800F06FF8054B83
:402B400000221A70044B00221A7000BF80BD00BF886500408A6500408B65004080B582B000AF00F0C5F90346FB71134A124B1B78DBB243F02003DBB21370104A0F4B1B7867
:402B8000DBB243F01003DBB213700D4A0C4B1B78DBB243F01003DBB21370FB79184600F0ABF900F0ADF800F01FF800F023F800BF0837BD4680BD00BF986500409A65004088
:402BC0009B65004080B500AF064B1B78002B04D1FFF7AAFF034B01221A70FFF7BFFF00BF80BD00BF5182FF1F80B400AF00BFBD4680BC704780B400AF00BFBD4680BC7047A3
:402C000080B483B000AF044B1B78FB71FB7918460C37BD4680BC70476A65004080B483B000AF044B1B78FB71FB7918460C37BD4680BC70476B65004080B483B000AF034638
:402C4000FB7100BF074B1B78DBB203F00403002BF8D0054AFB79137000BF0C37BD4680BC704700BF6A6500404A65004080B582B000AF01E0124B1B78124B1B78DBB203F078
:402C80002003002BF6D100F033F90346FB710E4A0D4B1B78DBB243F00103DBB213700A4A094B1B78DBB223F00103DBB21370FB79184600F021F900BF0837BD4680BD00BF4F
:402CC0005A6500406B6500409A65004080B400AF094A094B1B78DBB243F00803DBB21370064A064B1B78DBB243F00803DBB2137000BFBD4680BC7047A2430040B243004070
:402D000080B400AF094A094B1B78DBB243F00403DBB21370064A064B1B78DBB243F00403DBB2137000BFBD4680BC7047A2430040B243004080B582B000AF0023FB7106E0FA
:402D4000FB791846FDF7D0FFFB790133FB71FB79012BF5D9034BFF221A7000BF0837BD4680BD00BF5681FF1F80B582B000AF0346FB710A4B1B78FF2B04D0084B1B7818465C
:402D8000FDF7B2FFFB791846FDF778FF034AFB79137000BF0837BD4680BD00BF5681FF1F80B500AF084B14221A70084B00221A70064B064A1278D2B21A70022000F036F88C
:402DC00000F064F800BF80BD2C5800402D58004080B400AF094A094B1B78DBB243F00803DBB21370064A064B1B78DBB243F00803DBB2137000BFBD4680BC7047A84300401B
:402E0000B843004080B500AF074B1B78002B04D1FFF7C6FF044B01221A70FFF7D9FF322000F024F800BF80BD5282FF1F80B483B000AF0346FB710C4A0B4B1B78DBB223F013
:402E40000203DBB213700849074B1B78DAB2FB7903F00203DBB21343DBB20B7000BF0C37BD4680BC704700BF2C58004080B483B000AF0346FB71044AFB79137000BF0C3797
:402E8000BD4680BC704700BF835B004080B483B000AF104B1B78DBB203F00C035B08FB710D4B1B78DBB203F00403DBB2002B02D0FB790133FB71094AFB7903F1924303F545
:402EC0009C731B78DBB2137000BF0C37BD4680BC704700BF2C5800402D5800400B4600400230800803D000BF01380046FCD17047EFF3108072B6704780F31088704700BF2E
:402F000081F0004102E000BF83F0004330B54FEA41044FEA430594EA050F08BF90EA020F1FBF54EA000C55EA020C7FEA645C7FEA655C00F0E2804FEA5454D4EB5555B8BFE5
:402F40006D420CDD2C4480EA020281EA030382EA000083EA010180EA020281EA0303362D88BF30BD11F0004F4FEA01314FF4801C4CEA113102D0404261EB410113F0004FD3
:402F80004FEA03334CEA133302D0524263EB430394EA050F00F0A780A4F10104D5F1200E0DDB02FA0EFC22FA05F2801841F1000103FA0EF2801843FA05F359410EE0A5F141
:402FC00020050EF1200E012A03FA0EFC28BF4CF0020C43FA05F3C01851EBE37101F0004507D54FF0000EDCF1000C7EEB00006EEB0101B1F5801F1BD3B1F5001F0CD349085B
:403000005FEA30004FEA3C0C04F101044FEA445212F5800F80F09A80BCF1004F08BF5FEA500C50F1000041EB045141EA050130BD5FEA4C0C404141EB010111F4801FA4F1DC
:403040000104E9D191F0000F04BF01460020B1FA81F308BF2033A3F10B03B3F120020CDA0C3208DD02F1140CC2F10C0201FA0CF021FA02F10CE002F11402D8BFC2F1200CE9
:4030800001FA02F120FA0CFCDCBF41EA0C019040E41AA2BF01EB0451294330BD6FEA04041F3C1CDA0C340EDC04F11404C4F1200220FA04F001FA02F340EA030021FA04F367
:4030C00045EA030130BDC4F10C04C4F1200220FA02F001FA04F340EA0300294630BD21FA04F0294630BD94F0000F83F4801306BF81F480110134013D4EE77FEA645C18BF12
:403100007FEA655C29D094EA050F08BF90EA020F05D054EA000C04BF1946104630BD91EA030F1EBF0021002030BD5FEA545C05D14000494128BF41F0004130BD14F5800400
:403140003CBF01F5801130BD01F0004545F0FE4141F470014FF0000030BD7FEA645C1ABF194610467FEA655C1CBF0B46024650EA013406BF52EA033591EA030F41F4002184
:4031800030BD00BF90F0000F04BF0021704730B54FF4806404F132044FF000054FF0000150E700BF90F0000F04BF0021704730B54FF4806404F1320410F0004548BF404259
:4031C0004FF000013EE700BF42004FEAE2014FEA31014FEA02701FBF12F07F4393F07F4F81F06051704792F0000F14BF93F07F4F704730B54FF4607401F0004521F000417B
:4032000020E700BF50EA010208BF704730B54FF000050AE050EA010208BF704730B511F0004502D5404261EB41014FF4806404F132045FEA915C3FF4DCAE4FF003025FEA5B
:40324000DC0C18BF03325FEADC0C18BF033202EBDC02C2F1200300FA03FC20FA02F001FA03FE40EA0E0021FA02F11444C1E600BF4FF0FF3C06E000BF4FF0010C02E000BF6B
:403280004FF0010C4DF804CD4FEA410C7FEA6C5C4FEA430C18BF7FEA6C5C1BD001B050EA410C0CBF52EA430C91EA030F02BF90EA020F0020704710F1000F91EA030F58BF88
:4032C000994208BF90422CBFD8176FEAE37040F0010070474FEA410C7FEA6C5C02D150EA013C07D14FEA430C7FEA6C5CD6D152EA033CD3D05DF8040B704700BF844610469B
:4033000062468C461946634600E000BF01B5FFF7B7FF002848BF10F1000F01BD4DF808EDFFF7F4FF0CBF012000205DF808FB00BF4DF808EDFFF7EAFF34BF012000205DF825
:4033400008FB00BF4DF808EDFFF7E0FF94BF012000205DF808FB00BF4DF808EDFFF7CEFF94BF012000205DF808FB00BF4DF808EDFFF7C4FF34BF012000205DF808FB00BFEB
:4033800080F0004002E000BF81F0004142001FBF5FEA410392EA030F7FEA226C7FEA236C6AD04FEA1262D2EB1363C1BFD218414048404140B8BF5B42192B88BF704710F07C
:4033C000004F40F4000020F07F4018BF404211F0004F41F4000121F07F4118BF494292EA030F3FD0A2F1010241FA03FC10EB0C00C3F1200301FA03F100F0004302D549429A
:4034000060EB4000B0F5000F13D3B0F1807F06D340084FEA310102F10102FE2A51D2B1F1004F40EBC25008BF20F0010040EA03007047490040EB000010F4000FA2F10102F3
:40344000EDD1B0FA80FCACF1080CB2EB0C0200FA0CF0AABF00EBC25052421843BCBFD0401843704792F0000F81F4000106BF80F400000132013BB5E74FEA41037FEA226C65
:4034800018BF7FEA236C21D092EA030F04D092F0000F08BF0846704790EA010F1CBF0020704712F07F4F04D1400028BF40F00040704712F100723CBF00F50000704700F052
:4034C000004343F0FE4040F4000070477FEA226216BF08467FEA23630146420206BF5FEA412390EA010F40F4800070474FF0000304E000BF10F0004348BF40425FEA000C36
:4035000008BF704743F0964301464FF000001CE050EA010208BF70474FF000030AE000BF50EA010208BF704711F0004302D5404261EB41015FEA010C02BF844601460020AB
:4035400043F0B64308BFA3F18053A3F50003BCFA8CF2083AA3EBC25310DB01FA02FC634400FA02FCC2F12002BCF1004F20FA02F243EB020008BF20F00100704702F1200207
:4035800001FA02FCC2F1200250EA4C0021FA02F243EB020008BF20EADC7070474FF0FF0C1CEAD0521EBF1CEAD15392EA0C0F93EA0C0F6FD01A4480EA010C400218BF5FEA86
:4035C00041211ED04FF0006343EA501043EA5111A0FB01310CF00040B1F5000F3EBF490041EAD3715B0040EA010062F17F02FD2A1DD8B3F1004F40EBC25008BF20F00100CC
:40360000704790F0000F0CF0004C08BF49024CEA502040EA51207F3AC2BFD2F1FF0340EAC250704740F400004FF00003013A5DDC12F1190FDCBF00F000407047C2F100026B
:40364000410021FA02F1C2F1200200FA02FC5FEA310040F1000053EA4C0308BF20EADC70704792F0000F00F0004C02BF400010F4000F013AF9D040EA0C0093F0000F01F085
:40368000004C02BF490011F4000F013BF9D041EA0C018FE70CEAD15392EA0C0F18BF93EA0C0F0AD030F0004C18BF31F0004CD8D180EA010000F00040704790F0000F17BFE3
:4036C00090F0004F084691F0000F91F0004F14D092EA0C0F01D142020FD193EA0C0F03D14B0218BF084608D180EA010000F0004040F0FE4040F40000704740F0FE4040F48F
:40370000400070474FF0FF0C1CEAD0521EBF1CEAD15392EA0C0F93EA0C0F69D0A2EB030280EA010C49024FEA402037D04FF0805343EA111143EA10130CF000408B4238BF0C
:403740005B0042F17D024FF4000C8B4224BF5B1A40EA0C00B3EB510F24BFA3EB510340EA5C00B3EB910F24BFA3EB910340EA9C00B3EBD10F24BFA3EBD10340EADC001B015B
:4037800018BF5FEA1C1CE0D1FD2A3FF650AF8B4240EBC25008BF20F0010070470CF0004C4CEA50207F32C2BFD2F1FF0340EAC250704740F400004FF00003013A37E792F0E3
:4037C000000F00F0004C02BF400010F4000F013AF9D040EA0C0093F0000F01F0004C02BF490011F4000F013BF9D041EA0C0195E70CEAD15392EA0C0F08D142027FF47DAF1D
:4038000093EA0C0F7FF470AF084676E793EA0C0F04D14B023FF44CAF08466EE730F0004C18BF31F0004CCAD130F000427FF45CAF31F000437FF43CAF5FE700BF4FEA4002BB
:40384000B2F1FE4F0FD34FF09E03B3EB12620DD94FEA002343F0004310F0004F23FA02F018BF404270474FF00000704712F1610F01D1420205D110F0004008BF6FF0004063
:4038800070474FF000007047014B1868704700BFB881FF1F0E4B70B51E460E4C0025E41AA410A54204D056F8253098470135F8E702F006F9084B094C1E46E41AA410002589
:4038C000A54204D056F8253098470135F8E770BDCC5A0000CC5A0000CC5A0000D45A000010B5431E0A44914204D011F8014B03F8014FF8E710BD03460244934202D003F811
:40390000011BFAE770472DE9F04788B0149F002B1E461299B8BF03F1004327F02007B6BF1E4600232D23462F1446109DDDF84CA00B7003D0452F03D1013501E0032300E039
:40394000022307AA049206AA03928DE828042246334600F0B9FB472F804602D1119BDB0728D5462F08EB050911D198F80030302B0AD10022002320463146FFF7CFFC18B9D4
:40398000C5F10105CAF80050DAF8003099440022002320463146FFF7C1FC08B9302202E0CDF81C9006E0079B994503D9591C07911A70F8E74046079B159AC8EB0303136064
:4039C00008B0BDE8F087034673B50029B8BF494203F8022BB4BF2D222B22092942701ADD0DF1070216460A2591FBF5F405FB1411092C01F1300102F8011D2146F4DC303111
:403A0000541E02F8011CB4421A460AD214F8012B03F8012BF7E71A463024214402F8024B5970101A02B070BD2DE9F04F91B00C46DDF8688016461F46054601F0DDF803687A
:403A40001846099300F0AAFA00230E93D8F800300A90073323F0070303F1080294F81890D4F800B0C8F80020D3E90023C4E91223D4F84CA0D4F848802AF000430B934FF02E
:403A8000FF32A74B40460B9901F028FEA0B94FF0FF32A34B40460B99FFF754FC60B90022002340465146FFF743FC10B12D2384F843309C4B9C4A0AE04246534640465146D6
:403AC00001F00CFE002800F09281984B984AB9F1470F8CBF90469846032323612BF0040323604FF0000A3DE0B9F1670F00F08A81B9F1470F00F08681236001936368002112
:403B00000DF13302059002920093424653460691CDF81090CDF80CE02846FFF7F4FE09F0DF03472B804600F08481B9F1650F0D9900F28D8101394A4604F150000D91FFF703
:403B400042FF0E9A82468318012A236100F37C812268D10700F178819DF8333013B12D2384F84330009733460FAA2146284600F09FF9013002D14FF0FF3096E123685A051A
:403B800001D4236965E0B9F1650F40F2D580D4E9120100220023FFF7C1FB78B30123654A31462846B8470130E5D00E9B0D9A9A420BDB2368D80708D423689B0740F11181E3
:403BC0004FF0000804F1190906E10A9B099A31462846B8470130CED04FF0000804F11A090E9B013B9845E7DA01234A4631462846B8470130BFD008F10108F1E70D9B002B9E
:403C000029DC01234B4A31462846B8470130B2D00D9B23B90E9B13B92368D907CCD50A9B099A31462846B8470130A4D04FF0000904F11A0A0D9B5B42994509DA0123524636
:403C400031462846B847013095D009F10109F1E70E9B4246A7E00E9AA36D9A42A8BF1A46002A914606DC4FF0000A29EAE97904F11A0B11E01346314642462846B847013039
:403C8000F1D178E701235A4631462846B84701303FF471AF0AF1010AA36DC9EB03029245F0DB08EB03090D9A0E9B9A420FDB2368DA070CD40E9B0D9A9844C9EB08089B1A40
:403CC0009845A8BF9846B8F1000F08DC0FE00A9B099A31462846B8470130EBD14BE743464A4631462846B84701303FF444AF4FF0000928EAE87804F11A0A09E00123524600
:403D000031462846B84701303FF435AF09F101090D9A0E9B9B1AC8EB03039945EEDB4BE7FFFFEF7F965900009A5900009E590000A2590000A65900000E9A012A01DCDB07EB
:403D400038D50123424631462846B84701303FF412AF0A9B099A31462846B84701303FF40AAFD4E9120100220023FFF7D7FA20B14FF0000804F11A090EE00E9B08F1010299
:403D8000013B19E001234A4631462846B84701303FF4F1AE08F101080E9B013B9845F1DB534604F1500231462846B84701307FF403AFE0E64246012331462846B847013002
:403DC000EED1D8E601234A4631462846B84701303FF4D1AE08F10108E3680F9A9B1A9845F0DBE0680F9B9842B8BF18465DE062680EA8531C0DF1340E4BF480637FF474AEB4
:403E0000062201E012B90122626075E6002106910DF133018DE80C00236005904246CDF81090CDF80CE0029153462846FFF76BFD80460D9BD81C02DB626893421DDDA9F1E3
:403E400002095FFA89F970E60133236184E6B9F1660F14D10029636807DD216113B92268D2071DD501330B4419E013B92268D00701D5023313E0012311E04FF067090D9B52
:403E80000E9A934205DB22682361D10708D5013305E0002BD4BFC3F102030123134423610D9B4FF0000AA36556E611B0BDE8F08F2DE9F04791461F460A698B680646934229
:403EC000B8BF1346C9F8003091F843200C46DDF8208012B10133C9F800302368990642BFD9F800300233C9F80030256815F0060510D104F1190A07E00123524639463046E6
:403F0000C04701301AD00135E368D9F800209B1A9D42F1DB94F843302268003318BF012392060FD5E118302081F843005A1C94F845102244023382F8431003E04FF0FF3045
:403F4000BDE8F08704F1430239463046C0470130F4D02268D9F80050E36802F00602042A08BF5D1B2269A3680CBF25EAE57500259342C4BF9B1AED184FF000091A344D4574
:403F800009D00123224639463046C0470130D5D009F10109F3E70020BDE8F087034613F8012B002AFBD1181A013870472DE9F74F03690C6980469C427FDC013C01F1140792
:403FC0004FEA840E00F1140606EB0E0357F82450019356F824300135B3FBF5F507EB0E09C5B34FF0000A3846B446D34650F8043B9AB205FB02A21B0C4FEA124A05FB03A3EE
:4040000092B2C2EB0B0BBCF800204FEA134A5A441FFA83FBDCF800308145CBEB134303EB224392B242EA03424FEA234B4CF8042BDCD256F80E306BB9019B043B9E421A4669
:4040400002D3C8F8104005E01268043B002AF8D1013CF3E7404600F0E8FF00282BDB304601354FF0000E57F8042B036891B2C1EB0E0E120C99B27144C2EB134303EB2143C8
:4040800089B24FEA234EB94541EA034340F8043BE9D256F8242006EB840362B9043B9E421A4602D3C8F8104005E01268043B002AF8D1013CF3E7284600E0002003B0BDE883
:4040C000F08F0000000000002DE9F04F456A95B08246219CCDE9022345B9102000F090FDCAF82400456085600560C560DAF82430196859B15A68012393404A608B6050465E
:4041000000F0BBFDDAF8243000221A60039BA04A002BBDBF01232360039B0023BCBF23F000430393DDF80C80A8BF236028F000431B0D1B0593421DD142F20F73209A136083
:40414000029B43B9934A944BC8F31300002814BF1846104600E09048229B002B00F04685C37813B100F1080300E0C31C229A136000F03CBDDDE90245002200232046294619
:40418000FFF7CCF8074658B1209A01231360229B002B00F01E8581481860013800F026BD12AB019313AB009322462B46504600F0B7FFC8F30A56049056B1C5F3130343F068
:4041C0007F51204641F44011A6F2FF3611971DE0139B129E1E4406F23243202B0ADD029A06F21240C3F1400322FA00F008FA03F3184304E0C3F12000029B03FA00F0FEF7BF
:40420000C1FF0123A1F1F871013E11930022644BFEF77AFE58A3D3E9002301F04DF858A3D3E90023FEF772FE044630460D46FEF7B9FF55A3D3E9002301F03EF802460B46D8
:4042400020462946FEF762FE04460D4601F05CFA00228346002320462946FFF769F858B15846FEF79FFF02460B4620462946FFF755F808B90BF1FF3BBBF1160F0DD8DDE998
:404280000223484901EBCB01D1E90001FFF76EF830B10BF1FF3B002300E00123109300E01090129B9E1B731E079343BFC3F10008002307934FF00008BBF1000F06DB079B87
:4042C000CDF82CB05B440793002705E00023CBEB0808CBF100070B931E9B092B28D8052BC4BF043B1E931E9BC8BF0025A3F10203D8BF0125032B20D8DFE803F0060E020449
:40430000012302E0012308E000230A931F9B002B1DDD9946059321E000230A931F9B0BEB030909F10103012B0593B8BF012315E0012500231E930A9501E001230A934FF00C
:40434000FF390022CDF8149012231F9206E04FF001094B46CDF81490CDF87C90DAF8244000226260042101F114029A421CD86268490001326260F6E761436F63A787D23FE9
:40438000B3C8608B288AC63FFB799F501344D33F0000F07FA8590000B1590000A75900000000F83FC05900006168504600F030FCDAF8243020601B680693059B0E2B00F242
:4043C0005B81002D00F05881DDE90234BBF1000FCDE90E3430DD9F4A0BF00F034FEA2B1502EBC303E80618CBCDE908340CD5DDE90E01994B05F00F05D3E9082301F086F851
:404400000324CDE9020100E00224934E6DB1E90708D5DDE90801D6E9002300F04DFFCDE9080101346D100836F0E7DDE90823DDE9020101F06BF820E0CBF1000505B3DDE90A
:404440000E01844B05F00F0203EBC203D3E9002300F032FFCDE902017F4E2D110023022455B1EA0705D5D6E9002300F025FF013401236D100836F3E71BB1CDE9020100E07E
:404480000224109BE3B1DDE902560022734B28463146FEF74DFF98B1059B8BB1B9F1000F40F3E6800BF1FF330893314600226C4B284600F001FF0134CDE902014E4602E021
:4044C000059ECDF820B02046FEF76CFEDDE9022300F0F2FE634B0022FEF718FDA1F1507304460C931D46D6B9DDE9020100225E4BFEF70AFD22460C9BCDE90201FEF736FF68
:40450000002840F03F820C99224601F10043DDE90201FEF70DFF002840F02B82A8E00A9A4C4B711E002A49D003EBC103D3E9002300204E4900F0EAFF22462B46FEF7E4FCED
:40454000CDE90C01069CDDE9020101F0DDF80546FEF728FE02460B46DDE90201FEF7D4FCDDE90C23303504F8015BCDE90201FEF7DFFE002840F01D83DDE9022300203749FA
:40458000FEF7C2FCDDE90C23FEF7D2FE002840F0D180069BE31AB3426ADADDE90C0100222F4B00F089FE0022CDE90C01DDE902012B4B00F081FECDE90201C4E703EBC10181
:4045C0002246D1E900012B4600F076FE069BCDE90C011D469C19DDE9020101F095F80646FEF7E0FD02460B46DDE90201FEF78CFC303605F8016BAC42CDE902014FF000024C
:4046000022D11A4BDDE90C01FEF780FC02460B46DDE90201FEF7AAFE002840F08B80DDE90C2300201149FEF76FFC02460B46DDE90201FEF77DFED8B114F8013C621E302B2E
:4046400040F0B7821446F7E7054B00F035FECDE90201C0E7C0590000985A00000000F03F0000244000001C40000014400000E03FDDE90E34CDE90234139B002B7CDBBBF189
:404680000E0F79DCAB4B03EBCB03D3E900671F9B002B14DA059B002B11DC40F06C810022A54B3046394600F007FEDDE90223FEF753FE059D2E46002840F05F8165E1069CA8
:4046C000DDE9028932463B464046494600F01EFF01F01AF80546FEF765FD32463B4600F0EBFD0B46024649464046FEF70DFC05F1300E069B04F801EBC3EB040E059B734557
:404700002DD102460B46FEF701FC8046894602460B4630463946FEF70BFE78B942464B4630463946FEF7FAFD002800F04482EB0704D440E2DDF820B000E01C4614F8012CBA
:40474000631E392A07D1069A9A42F6D1069930220BF1010B0A701A7801321A702BE20022764B00F0A9FD0022002380468946FEF7D5FD0028A6D01EE20A9A002A2BD01E9A32
:40478000012A0ADC119A12B103F2334302E0129BC3F136033D46444613E0059B5D1EAF42BFBF0B9BEA1B9B180B93059BB6BF2F467D1B0025002BA7BF4446059BC3EB080451
:4047C0000023079A01211A4450469844079200F0F3FA064602E03D4644460A9E5CB1079B002B08DDA342A8BF2346079AC3EB0808E41AD31A0793002F1DDD0A9BABB18DB1EA
:4048000031462A46504600F071FB049A01460646504600F0DAFA04990890504600F02DFA089B04937A1B06D000E03A460499504600F05CFB04900121504600F0BDFA0B9B1A
:4048400005465BB31A460146504600F04FFB1E9B0546012B18DC029B83B9039BC3F3130373B9039B23F000473F0D3F054FB1079B08F1010801330793012702E0002700E0CA
:40488000029F0B9B73B100E000272B6905EB8303186900F044FAC0F1200004E01E9B012BD9DD0B9F0120079B184410F01F0008D0C0F12003042B02DDC0F11C0002E006D056
:4048C00018461C30079B8044034404440793B8F1000F05DD42460499504600F055FB0490079B002B05DD29461A46504600F04CFB0546109B23B32946049800F096FB00288B
:404900001EDA00230A220499504600F0CDF90A9B0BF1FF3B0490002B00F05F81314600230A22504600F0C0F9B9F1000F06463FDC3BE000BFC059000000001440000024400D
:40494000059B002B2BDC1E9B022B28DDDDF81490B9F1000F11D129464B460522504600F0A3F901460546049800F05FFB00280CDC03E0354600E000252E461F9B069C6FEA09
:40498000030B09E03546DDF820B0069B069A5C1C312313700BF1010B05960026F7E00A9BDDF8149023B9069CB2E01E9B022BCFDC002C05DD31462246504600F0E5FA064653
:4049C0009FB17168504600F023F90446326906F10C01023292000C30FEF782FF01222146504600F0D1FA059000E00596029B069F03F00103079329460498FFF7D7FA314684
:404A0000044600F13008049800F00FFB059A02902946504600F025FBC36802463BB901460A90049800F001FB0A9A034600E00123114650460A9300F020F90A9B53B91E9A6A
:404A400042B9079A32B9B8F1390F2AD0029B002B1CDC1DE0029A002A04DB1BD11E9ACAB9079ABAB9002B13DD01220499504600F08BFA2946049000F0D8FA002803DC07D19D
:404A800018F0010F04D0B8F1390F0AD004F131087C1C0CE0002B07F101040BDDB8F1390F03D139233B70013756E008F1010887F800806CE0069B2746E31A4B4504F8018CD2
:404AC0003BD000230A220499504600F0EDF8059B04909E424FF00A024FF000033146504604D100F0E1F80646059084E700F0DCF8002306460A220599504600F0D5F80590D7
:404B000079E700230A220499504600F0CDF8049029460498FFF74AFA069B00F1300804F8018BE31A4B45ECDB069B0596B9F1010FACBF4B4401331F4600260122049950465A
:404B400000F022FA2946049000F06FFA002803DC15D118F0010F12D03C4614F8013C621E392B09D1069B934204D10BF1010B3123069A02E01446F0E70133137007E03C46E3
:404B800014F8013C621E302B01D11446F8E72946504600F072F8059B6BB12EB19E4203D03146504600F069F80599504600F065F801E0DDF820B00499504600F05EF8002318
:404BC000209A23700BF101031360229B1BB11C6001E008480AE0069808E0B9F1000F3FF7E2AE1E9B022B7FF7DEAEB1E615B0BDE8F08F00BFA659000000487047BC81FF1F50
:404C0000024B0146186800F0E7BA00BFB881FF1F70B5456A04460E463DB91020FFF7F0FF6062456085600560C560656AEB6843B1636ADB6853F8260078B1026843F82620BB
:404C400017E021220421204600F0B8FA636AE860DB68002BECD1002070BD012101FA06F56A1D9200204600F0A9FA0028F3D04660856000230361C36070BD70B5446A0646AA
:404C80000D463CB91020FFF7BBFF7062446084600460C4603DB1736A6A68DB6853F82210296043F8225070BD2DE9F04106460C460D691F4601F1140E0023DEF80000013329
:404CC00081B202FB0171000C0F0C02FB007089B201EB00419D424FEA10474EF8041BECDCD7B1A3689D4212DB616830460131FFF78FFF8046226904F10C01023292000C30D1
:404D0000FEF7EEFD21463046FFF7B7FF444604EB850301355F6125612046BDE8F081030C1B0413B90004102300E0002310F07F4F04BF0002083310F0704F04BF0001043355
:404D400010F0404F04BF80000233002803DB420003D5581C70471846704720207047036813F007020BD0D90722D49A074BBF5B089B08036003604CBF01200220704799B2E6
:404D800009B91B0C102213F0FF0F04BF1B0A0832190704BF1B090432990704BF9B080232D90702D45B0805D00132036010467047002070472020704710B50C460121FFF7A0
:404DC00027FF01224461026110BD2DE9F74F14460A69236988469A42BEBF0B46A0461C46D8F81070D4F81090D8F80830D8F8041007EB09069E42C8BF0131FFF709FF00F1EF
:404E000014052B4605EB860C0022634502D243F8042BFAE704F1140208F1140102EB890301EB87070093009B0192934257D9B2F800B0BBF1000F23D08946AE464FF0000899
:404E400059F8044BBEF800A0A3B20BFB03A34FEA144ADEF8004043444FEA14480BFB0A84F24604EB13449BB243EA04434F454FEA14484AF8043B01D9D646E1E7CEF80480ED
:404E8000019B0432B3F802A0BAF1000F21D02C4689462B684FF00008B9F800E0B4F802B09BB20AFB0EBEA346F04443EA08434BF8043B59F8043BB4F804E01B0C0AFB03E3B7
:404EC0004F4503EB18434FEA134801D95C46E3E763600435A7E75CF8043D13B9013E002EF9DC066103B0BDE8F08F00002DE9F843154612F0030206460F4607D0214C013ABD
:404F0000002354F82220FFF7CFFE0746AD1036D0746A3CB91020FFF773FE7062446084600460C460D6F82480D8F808404CB940F271213046FFF740FF04460023C8F808006E
:404F400003604FF00008EB070AD5394622463046FFF73BFF814639463046FFF78EFE4F466D100CD0206808B10446ECE7224621463046FFF72AFF2060C0F80080F4E738462A
:404F8000BDE8F883885A00002DE9F0470C460746914626694FEA621A56444968A368751CAB4202DA01315B00FAE73846FFF730FE002380461A4600F11401534503DA41F82B
:404FC00023200133F9E72AEAEA73206901EB830319F01F0904F1140101EB800E14D0C9F1200C002208689A4600FA09F0024343F8042B51F8042B8E4522FA0CF2F2D8CAF86A
:40500000042042B1B51C06E0043B51F8042B8E4543F8042FF9D8013D3846C8F810502146FFF72BFE4046BDE8F08703690A6910B59B1A11D192001430143183180A4453F84B
:40504000044D52F8041D8C4202D007D3012010BD9842F4D3002010BD184610BD4FF0FF3010BD2DE9F8430C460746114620461546FFF7DBFF061E08D131463846FFF7C8FD93
:40508000012303614661BDE8F883BCBF23462C4638466168BABF1D4601260026FFF7B8FD2B69C660266905F1140904F1140101EB860709EB830800F114054FF0000C51F834
:4050C000042B59F8044B93B29C44A3B2240CC3EB0C03C4EB124202EB23429BB24FEA224CC84543EA02428E4645F8042BE7D8BE450ED25EF8041B8AB26244131403EB114311
:4051000092B242EA03424FEA234C45F8042BEEE755F8043D0BB9013EFAE70661BDE8F8832DE9F3411C4601219046089E099DFFF76FFDC4F31302C4F30A5407460CB142F465
:4051400080120192B8F1000F19D002A840F8088DFFF705FE009B48B1019AC0F1200102FA01F10B43C2407B61019200E07B61019B002B14BF02210121BB61396107E001A86A
:40518000FFF7EDFD019B01217B613961203034B1A4F2334404443460C0F1350009E0A0F2324007EB810330601869FFF7B8FDC0EB41102860384602B0BDE8F08138B502FB04
:4051C00001F4214600F008F8054618B122460021FEF791FB284638BD70B5CD1C25F0030508350C2D38BF0C25002D064601DBA94202D90C23336046E000F05CF8234B1C68E0
:405200001A462146A1B10B685B1B0ED40B2B03D90B60CC18CD501EE08C420BBF63684B681360636018BF0C4615E00C464968E9E7174C23681BB9304600F02CF82060294696
:40524000304600F027F8431C18D0C41C24F00304A0420DD12560304600F02DF804F10B00231D20F00700C31A0ED05A42E25070BD211A304600F00EF80130EBD10C23336034
:40528000304600F018F8002070BD00BF5882FF1F5482FF1F38B5064C0023054608462360FBF754FE431C02D1236803B12B6038BD2C83FF1F7047704770B54FF0FF0C4CF4E3
:4052C000E06C1CEA11541DBF1CEA135594EA0C0F95EA0C0F00F0DEF82C4481EA030621EA4C5123EA4C5350EA013518BF52EA033541F4801143F4801338D0A0FB02CE4FF07F
:405300000005E1FB02E506F00042E0FB03E54FF00006E1FB03569CF0000F18BF4EF0010EA4F1FF04B6F5007F64F5407404D25FEA4E0E6D4146EB060642EAC62141EA555158
:405340004FEAC52040EA5E504FEACE2EB4F1FD0C88BFBCF5E06F1ED8BEF1004F08BF5FEA500E50F1000041EB045170BD06F0004646EA010140EA020081EA0301B4EB5C04B4
:40538000C2BFD4EB0C0541EA045170BD41F480114FF0000E013C00F3AB8014F1360FDEBF002001F0004170BDC4F10004203C35DA0C341BDC04F11404C4F1200500FA05F3E7
:4053C00020FA04F001FA05F240EA020001F0004221F0004110EBD37021FA04F642EB06015EEA430E08BF20EAD37070BDC4F10C04C4F1200500FA04F320FA05F001FA04F20B
:4054000040EA020001F0004110EBD37041F100015EEA430E08BF20EAD37070BDC4F1200500FA05F24EEA020E20FA04F301FA05F243EA020321FA04F001F0004121FA04F229
:4054400020EA020000EBD3705EEA430E08BF20EAD37070BD94F0000F0FD101F00046400041EB010111F4801F08BF013CF7D041EA060195F0000F18BF704703F000465200B2
:4054800043EB030313F4801F08BF013DF7D043EA0603704794EA0C0F0CEA135518BF95EA0C0F0CD050EA410618BF52EA4306D1D181EA030101F000414FF0000070BD50EA4F
:4054C000410606BF1046194652EA430619D094EA0C0F02D150EA013613D195EA0C0F05D152EA03361CBF104619460AD181EA030101F0004141F0FE4141F470014FF0000076
:4055000070BD41F0FE4141F4780170BD70B54FF0FF0C4CF4E06C1CEA11541DBF1CEA135594EA0C0F95EA0C0F00F0A7F8A4EB050481EA030E52EA03354FEA013100F0888096
:405540004FEA03334FF0805545EA131343EA12634FEA022245EA111545EA10654FEA00260EF000419D4208BF964244F1FD0404F5407402D25B084FEA3202B61A65EB030590
:405580005B084FEA32024FF480104FF4002CB6EB020E75EB030E22BFB61A754640EA0C005B084FEA3202B6EB020E75EB030E22BFB61A754640EA5C005B084FEA3202B6EBC0
:4055C000020E75EB030E22BFB61A754640EA9C005B084FEA3202B6EB020E75EB030E22BFB61A754640EADC0055EA060E18D04FEA051545EA16754FEA06164FEAC30343EACB
:4056000052734FEAC2025FEA1C1CC0D111F4801F0BD141EA00014FF000004FF0004CB6E711F4801F04BF01430020B4F1FD0C88BFBCF5E06F3FF6AFAEB5EB030C04BFB6EB1E
:40564000020C5FEA500C50F1000041EB045170BD0EF0004E4EEA113114EB5C04C2BFD4EB0C0541EA045170BD41F480114FF0000E013C90E645EA060E8DE60CEA135594EA0D
:405680000C0F08BF95EA0C0F3FF43BAF94EA0C0F0AD150EA01347FF434AF95EA0C0F7FF425AF104619462CE795EA0C0F06D152EA03353FF4FDAE1046194622E750EA41066D
:4056C00018BF52EA43067FF4C5AE50EA41047FF40DAF52EA43057FF4EBAE12E74FEA410C7FEA6C5C02D150EA013C0AD14FEA430C7FEA6C5C02D152EA033C02D14FF000003C
:4057000070474FF0010070474FEA410212F5001215D211D56FF47873B3EB625212D94FEAC12343F0004343EA505311F0004F23FA02F018BF404270474FF00000704750EACC
:40574000013005D111F0004008BF6FF0004070474FF00000704700BF00000000000000003D510040585B0040005B0040005B004040401080005B00402443004004000000C2
:4057800000000101045B0040035B0040045B0040035B0040204080403C5100409B5A0040585B00409C5A0040401010102C5100402C5100402C5100402C5100402C51004001
:4057C0006C5100406C5100406C5100406C5100402C5100402C5100402C510040FC510040D35A0040835A0040804020100810204080010402100110002800000030000000FF
:405800003800000040000000480000004800000048000000480000002082FF1F2082FF1F2082FF1F2082FF1F2082FF1F2082FF1F2082FF1F2082FF1F2082FF1F2082FF1F50
:405840002082FF1F00000048080000481000004818000048A8060048E8060048080700482000004828000048A800004828010048A801004828020048A80200482803004894
:40588000A803004828040048A804004828050048A805004828060048280700483807004848070048C807004848080048C808004848090048C8090048480A0048C80A0048EB
:4058C000480B0048C80B0048480C0048C80C0048480D0048C80D0048480E0048C80E0048480F0048C80F004848100048C810004848110048C811004848120048C8120048C0
:4059000048130048C813004848140048C814004848150048C815004848160048C81600481750004016500040155000401450004013500040345000403550004036500040BB
:4059400037500040105000401250004011500040020202020206060606020202804020100810204080010402065200400E520040165200401E520040265200402E5200405E
:40598000365200407E520040000102030405060708090A0B4300494E4600696E66004E414E006E616E003000496E66696E697479004E614E00504F534958002E000000001E
:4059C000000000000000F03F000000000000244000000000000059400000000000408F40000000000088C34000000000006AF8400000000080842E4100000000D012634146
:405A00000000000084D797410000000065CDCD41000000205FA00242000000E876483742000000A2941A6D42000040E59C30A2420000901EC4BCD64200003426F56B0C434E
:405A40000080E03779C3414300A0D8855734764300C84E676DC1AB43003D9160E458E143408CB5781DAF154450EFE2D6E41A4B4492D54D06CFF08044F64AE1C7022DB54478
:405A8000B49DD9794378EA4405000000190000007D000000000000000080E03779C34143176E05B5B5B89346F5F93FE9034F384D321D30F94877825A3CBF737FDD4F157540
:405AC000F8B500BFF8BC08BC9E467047C502000035100000F8B500BFF8BC08BC9E467047A1020000F85A0000C880FF1F300100003801000000000000000000000F0F0F0F9B
:405B00000F0F0F0F0F0F0F0F3083FF1FFF0F000032323232323232323232C8C81E0000001400140014001400140014001400140014001400140014000A000A000A000A0054
:405B40000A000A000A000A000A000A000A000A000C000C000C000C000C000C000C000C000C000C000C000C000101010101010101010101018014EF03D0010100420000009F
:405B80000000E880FF01FF00000000000000000000000000000000000000000000000000000000000000000094590000000000000000000000000000000000000000000091
:405BC000000000000000000000000000000000000000000000000000000000000000000000000000000000005881FF1FBB590000BC590000BC590000BC590000BC59000046
:405C0000BC590000BC590000BC590000BC590000BC590000FFFFFFFFFFFFFFFFFFFFFFFFFFFF00000000000000000000000000000000000000000000000000000000000009
:405C40000000000000000000000000000000000000000000000000000000000000000000000000000000000000000000000000000000000000000000000000000000000024
:405C800000000000000000000000000000000000000000000000000000000000000000000000000000000000000000000000000000000000000000000000000000000000E4
:405CC00000000000000000000000000000000000000000000000000000000000000000000000000000000000000000000000000000000000000000000000000000000000A4
:405D00000000000000000000000000000000000000000000000000000000000000000000000000000000000000000000000000000000000000000000000000000000000063
:020000040003F7
:0200000480007A
:4000000030A0000000000000000000000000FF002010000000000000000000000000F0000300000000000000000000000000000000000000000000000000000000000000CE
:4000400000000000000000000000000000000000000000000000000000000000000000008000000000004000000000000000000000000000000000000000000000000000C0
:400080000400000000000001000000000000000000000000000000000000000000000000000000000000000000000000000000000000000002000C00070000000000000026
:4000C0000000000000000000000000000A00050009000200000000000F000000000000000200000000000000530000000050020416FFFFFF022000050010000000000000E2
:4001000004000400030100014040800080008000000000000000000000000000000000000000000000000000600000000718380201130004041A00000400000000010418A2
:4001400004020018041A0000561C0903040200000A1810000018000200007F0F0013000008000008000000003402600001BEFD0C1FFFFFFF2200F008040000000000022404
:4001800004040404333300010000C00040011011C0010011400140010000000000000000000000000000000000000000000400000101000A0104000800000100010E000124
:4001C00000000000010000000000000000000000000000000000000000070000010000080000000200001040010300000000000000FFFFFF020CF80000000000090000008C
:400200000404040430310001000048A100000000F000F000F000F0000000000000000000000000000000000008040000001305007B0204004D003204000000003F114002E9
:40024000101202017700080020080200000005007F0800000000001000040103061078080080000000000000010300000000A00000FFFFFF030CF400000000000000000052
:400280000404040011010001000048A100000000F000F000F000F000000000000000000000000000000000000000000000020001000000020000000800040100000302005F
:4002C00000010002000000000000000000040000000400000100020100080304000300000000000000000404000000000000000000000000000000000000170000000000BE
:400300000404000410100001000000000000000000000000000000000000000000000000000000000000000000000000000A00100104061B0400000404000000000F042011
:400340000104060004000004000000000011030804040000070000000008003007040003000020000000004543050000000026061C00000000000000000000000000020002
:400380000404040413110801000CF00C000C000C404C404C9058000C00000000000000000000000000000000000900060005000A02000D000D0000100D0000000D10000060
:4003C0000202040D0D000010001000000103020C0D10000002100800000000100F0F00000000202000000004000000000000000000000000000000000000000040000000C0
:400400000404000433300001000000000000000000000000000000000000000000000000000000000000000000000003520000002900000000000000000000007801040051
:40044000000000007B000002000060000000030000007B03000000000003070018006000000000000000540013020000000062000C000000000000000000000000000800BD
:400480000404040C30110001000CF00C000C000C404C404C9058000C000000000000000000000000000000004006000015016A0279040602400600000002000402000D000E
:4004C0004000000010076000400200000002400403023C0500040000000000000F0070070000A0000000000000000000000000000000000000000000000000000000022823
:4005000004040004222000010000000000000000000000000000000000000000000000000000000000000000001500000602191000050010001008050004000000000000F0
:4005400004111804040600081115020000000000001800060010000018000001071E0000000020200000000400000000000000000000000000000000000000000000000060
:400580000404000022000001000000000000000000000000000000000000000000000000000000000000000008000000050B10140200000008000000081C00006000000046
:4005C0005C000300080700080E003100080900120000080000000000011E00007F00000120020000000001402301600004CEFD0B1FFFFFFF2200F008040000000900000078
:4006000004040404222200010000C00040011011C001001140014001000000000000000000000000000000001D00000002000400000000000000100002000D0002000800A3
:400640001D0000001D00000001000200000000001D0000000D0010000F00000010000000000002000000100000000000000000000000000000000000000000004000000092
:40068000040000040220000100000000000000000000000000000000000000000000000000000000000000000000000000000000FF00000000FF00FF000000000000000012
:4006C0000000000000FF00FF00000000000000000000000000FF00FF00000000000000000000000000000000000000000000000000000000000000000000000000000000FE
:40070000000F0000001F00000000000000000000000000000000000000000000000000000F00000000000000040000000000000000000000040000000A000000000000006A
:40074000000000000A000A000000000000000000008000000000000000000000000000000000000000000000000000000000000000000000000000000000000000000000E5
:40078000000000000000000000000000000000000000000000000000000000000000000000000200000000040000000800000000000000000000000000000000000000002B
:4007C0000000000000000000000000000000000000000104008000000000000000000000000000000000000000000004000000000000000000000000000000000008000068
:400800000000000000000000000002000000000000000000000000000000000000000300020000000000000004000800040000000000000008000000000000000000000099
:400840000000000000000000000000000000000040000000000000000000000000000000000000000000000000000000000000000000000000000000000000000000000038
:4008800000000000000000000000000000000000000000000000000000000000000000000000000000000002000000200000004000000000000000000000000000000000D6
:4008C00000000000000000000000000000000000000000000000000400000040000000000000000240000000000000100008000000000000400000400000000000000000DA
:4009000000000000000000000000020000000000000000000000000000000000000001000300000000000000020000000000000000000000000000000000000000000000AF
:40094000000000000000000000000010000000000000000000000000000000000000000000000002000000000000000000080000000000000000000000000000000000005D
:400980000000000000000000000000000000000000000000000000000000000000000000000000000000000000000000000000000000000000000000000000000000000037
:4009C00000000000000000000000000800000000000000000000000000000000000000000000000000000000000000000000000000000000000000000000000000000000EF
:400A000000000000000000000000000000080000000000000000000000000000000000000000000000000000000000000000000000000000000000000000000000000000AE
:400A4000000000000000000000000000000000000000000000000000000000000000000000000002000000000000000000000008000000000000000000000000200000004C
:400A80000000000000000000020000000000000000000000000000000100000000000000000000000000000000000000000000000200000000000000000000000000000031
:400AC00000000000000000000000000200000000000000000000000000000000000000000000000020000000000000000000000800000000000000000000000800000000C4
:400B000000000000000000000000000000000000000000000000000000000000000000000000000000000000000000000000000000000400000000000000000000000000B1
:400B40000000000000000000000000000000000000000000000000000000000000000000000000000000000000000000000000000000000000000000000000000000000075
:400B80000020000000000000000000000000000000000000000000000000000000000000000000000000000000000000000000000000000000000000000000000000000015
:400BC00000000000200000000000000000000000001000000000000000000000000000000000000000000000000000000000000000000000000000000000000000000000C5
:400C000000000000000000000000000000000000000000000000080000000000000000000000000000000100000000000400000000000000000000000000000000000000A7
:400C40000000000000000000046000408400004060080480E00090002010800200500002002040000000801000020001000000002000000000000000000280800000000097
:400C80000400000000000000A40010800000000000040802000000004008500000000000001540000000000000000001000050200000000000000000000000000000000090
:400CC00000000000000000000011080100000000002200008000000004500480000000020000004000000000A00088000000000000000000000000000000000000000000F6
:400D00000000000000000000BF00FF00DE00000000000200090002000F00040000000F00780000000000000000000000000000000000000010000000000000000000000060
:400D40000000000000000000000000000000000000000000000000000000000000000000000000000000000000000000000000000000000000000000000000000000000073
:400D80000000000000000000000000000000000000000000000000000000000000000000000000000000000000000000000000000000000010000000000000000000000023
:400DC000000000000000000044000000042000410000040220000210000080000800000640200400004002500400080000008000006000C02120004121008000000080013E
:400E000004500100041002800000000000000000000000000000000000000000000000000000000000000000000000000000003000000000205000C50000000080000302DD
:400E40000000000000000000000000000000000008008000400000000000000000000000000000000000000000000000000000000000000000004200000000000000000068
:400E80000000000000000000F500E300780000000000FD009D00FF0000000000000000004000000000000000000000000000000000000000020008000000000000000000FF
:400EC0000000000000000000980200004000000201006500000080002000080200280000100000000000800008140C08000000009100040400000000000014400000000031
:400F00008024000000000408C01402000000000400260000000100800400940000000048000000000000000000000004000000007004604000000000400001000000000047
:400F4000000000000000000010000000000000000000000000000000400004040821690000200004100410080000000050008008000000000000000000200002000000003D
:400F800000000000000000008F001F006E00000000000F000E000E004F00140000000000040000000000000000000000010000000000000000000000000000000000000082
:400FC0000000000000000000A0800800041080014800614020002200000000000004401000200000001822804001400000402454000000000001000A00000400000024006F
:401000004820000004821000000000440000004400000000000000000000000000000010100480020000000000000001000000000000000000000000000000000000000083
:4010400000000000000000000000000000000000000000000000000004041405000208400000C0014890101C200100020048B890000000210000000000000000000000006C
:401080000000000000000000F300ED00700000000000B0006200FE005A00000000000F0008000000000000000000000000000000400000000000000000000000000000001F
:4010C00000000000000000000000000000000000000000000000000000000000000000000000000000000000000000000000000000000000000000000000000001000000EF
:4011000000000000000000000000000000000000000000000000000000000000000000000000000000000000000000000000000000000000000000000000000000000000AF
:40114000000000000000000000A0000000000000480008480000402010000B0800000200002004000000000842140000040100200010002010000006000800900000021417
:4011800008208000048050004004000000000000010000000000000034004020000000000000000000000000000000000000800200000000000410020000800000000200C0
:4011C000000020000000000000000040000000000010000100000000000000042822084200000140489010080000000000009808001000000000000880000000000000007D
:40120000000000000000000003003F008700000000007600EE007E0003000800000000000000000000000200000000000100000000000000000000000000000000000000F5
:40124000000000000000000000000000000000000000000000000000000000000000000002000000000000000000000000000000000000000000000000000000000000006C
:40128000000000000000000000000000000000000000000000000000000000000000000000000000000000000000000000000000000000000000000000000000000000002E
:4012C00000000000000000000000000000000000000000000000000000000000000000000000000000000000000000000000000000000000000000000000000000000000EE
:4013000000000000000000000000000000000000000000000000000000000000000000000000000000000000000000000000000000000000000006000000000000000000A7
:40134000000000000000000000A00000280000004800084800002001000009080020A0000020000000A800000000101400000040488400000000000400009800000400483B
:4013800000020348000002000000000000A800000000000000000000000000000000A000000000008000000000009010010000010000000000000000000000000000000074
:4013C00000000000000000010000000000000000010000000000000000000000000000000000000000000000000000000000000000000000000000000000000000000000EB
:4014000000000000000000006300AF007700000000002F005E008B0070000000000010001E000000000010000000000000000000000000000000000000000000000000005D
:40144000000000000000000000000000000000000000000000000000000000000000000000000000000000000000000000000000000000000000000000000000001000005C
:40148000000000000000000000000000000000000000000000000000000000000000000000000000000000000000000000000000000000000000000000000000000000002C
