:400000000080002011000000354500003545000080B500AF024A034B1B68136004F0BEFABC760040FA46004010B5054C237833B9044B13B10448AFF300800123237010BD67
:400040006082FF1F00000000C4DC0000084B10B51BB108490848AFF300800848036803B910BD074B002BFBD0BDE81040184700BF000000006482FF1FC4DC0000C880FF1F90
:400080000000000090B583B000AF554B1B78DBB2002B0CBF01230023DBB21A46504B1A704F4B1B78DBB2002B0CBF01230023DBB219464C4A1A2303FB01F313441B78DBB2EB
:4000C000FE2B4FD1464B1B78DBB2002B0CBF01230023DBB21946434A1A2303FB01F3134419331B78DBB2FD2B3CD100237B6034E03B4B1B78DBB2002B0CBF01230023DBB2A7
:4001000018467B685B00013336491A2202FB00F20A4413441B78DBB29BB21B029AB2304B1B78DBB2002B0CBF01230023DBB21C467B6801335B002B481A2101FB04F10144AD
:400140000B441B78DBB29BB2134499B2264A7B6822F813107B6801337B60244B1B687A689A42C5DB07F078F8214B1B78184605F073F91B4B1B78DBB21A461E4B985C0223C2
:40018000FE221A2105F0A2FA154B1B78DBB21A46184B985C124B1B78DBB21A461A2303FB02F3104A13449BB21A4646F2545105F0CDFA0F4B1A780A4B1B78DBB219460D4B00
:4001C0005B5C1946104605F0E5F9094B1B780121184605F0FBF800BF0C37BD4690BD00BFC482FF1F80ABFF1F8498FF1FCC80FF1F6CABFF1FE483FF1F80B500AF214B1B7872
:40020000DBB2002B0CBF01230023DBB21A461D4B1A7007F0DBF81C4B1B78184605F01CF9184B1B78DBB21A46184B985C0623FE22082105F04BFA134B1B78DBB21A46134BC7
:40024000985C104B1B78DBB2DB00114A13449BB21A4646F2575105F079FA0B4B1A78094B1B78DBB21946094B5B5C1946104605F091F9054B1B780121184605F0A7F800BFDD
:4002800080BD00BFC582FF1F40A1FF1F60ABFF1F60C9FF1F80B500AF07F088FA09F076FC00F002F800BF80BD80B500AF184B02221849002004F078FA03461A46164B1A70DA
:4002C00007F00CFE0346012B20D1124B1B78DBB2012B0CD1114B00221A700D4B02220F49002004F0E7FB0E4B01221A700EE00B4B01221A70064B02220849002004F0DAFB99
:4003000007F0EAFB06F0B6F805F016FC00BF80BD14D4FF1FDC82FF1FE0C7FF1FE082FF1FAC82FF1F90B583B000AF00237B606EE03A4A7B6832F8133018460BF0F5FC04464C
:40034000374A7B6832F8133018460BF0EDFC0346194620460BF036FC03463B60304A7B6832F8133018460BF0E3FC04462D4938680BF032FD0346194620460BF025FC03464C
:4003800018460BF02BFF034699B2254A7B6822F81310224A7B6832F8133018460BF0C8FC0446204938680BF017FD0346194620460BF008FC034618460BF010FF034699B20A
:4003C000164A7B6822F81310144A7B6832F8133018460BF0A9FC0446114A7B6832F8133018460BF0A1FC0346194620460BF0EAFB03463B6039680C480BF0A2FD03461946DD
:400400000A4A7B6842F823107B6801337B607B68092B8DDD00BF0C37BD4690BD1081FF1FFC80FF1FCDCCCC3D00F07F459C98FF1F90B5A3B000AF62B609F0AAFE002009F049
:4004400037FF03461A46944B1A70012009F030FF03461A46904B5A700023C7F88430AEE00023C7F8803029E0D7F884309BB21A4612011A4492001A44520013445B009AB2FD
:40048000D7F880309BB213449BB202339BB2184609F00EFF034618468049D7F884201346DB009B1A5B00CA18D7F88030134402461A70D7F880300133C7F88030D7F8803094
:4004C0000D2BD1DD0023FB6771E0FA6F13465B001344DB007B620023BB6762E0BB6F5B003B623B6A9AB27B6A9BB213449AB2D7F884309BB2194609011944890019444900E0
:400500000B445B009BB213449BB210339BB2184609F0CEFE0346FB833B6A9AB27B6A9BB213449AB2D7F884309BB21946090119448900194449000B445B009BB213449BB280
:4005400011339BB2184609F0B3FE0346BB83FB8B1A02BB8B134418460BF0EAFB03464FF06E5118460BF038FC03464FF0864118460BF028FB03461C464948FB6FD7F8841036
:400580001A4652001A4493001A460B465B010B449B001A44BB6F134440F82340BB6F0133BB67BB6F0B2B99DDFB6F0133FB67FB6F0A2B8ADDD7F884300133C7F88430D7F8D2
:4005C0008430062B7FF74CAF00237B6741E07B6F03F2E7139BB29B009BB2184609F068FE03469BB21B029CB27B6F9BB29B009BB203F29D739BB2184609F05AFE03469BB2FD
:40060000234499B2274A7B6F22F813107B6F9BB29B009BB203F29E739BB2184609F048FE03469BB21B029CB27B6F9BB29B009BB203F29F739BB2184609F03AFE03469BB2C8
:40064000234499B2184A7B6F22F813107B6F01337B677B6F092BBADDFFF764FE00233B674CE00023FB660DE010493A6F1346DB009B1A5B00CA18FB6E1344FF221A70FB6ED4
:400680000133FB66FB6E0D2BEEDD0023BB662AE000237B6621E000BFD480FF1FE8C7FF1F7484FF1FFC80FF1F1081FF1F3C93FF1F5348BB6E396F1A46D200D21A53001A465F
:4006C0000B46DB005B1A1B011344C2187B6E1344FF221A707B6E01337B667B6E0D2BE7DDBB6E0133BB66BB6E072BD1DD454A3B6F002142F823103B6F01333B673B6F3F2B5C
:40070000AFDD06F0CBFE002009F0C4FB012009F0DFFB002009F0FAFB002009F013FC3A4B184609F005FA03461A46384B1A700023FB7605F087FE012007F0B0FB344806F098
:40074000E7FF002009F018FC012009F051FC06F03FFB06F055FB2F4B1B682F4AD25C2F4B1A700A2005F0F8F92D4B40221A7000220121702001F0CCFB03461A46294B1A604A
:400780004021802003F02AFA002003F049FA4021802003F063FA214B1B78184603230022022103F0F5FA03F00FFB0246032301211D4803F0A1FA194B1B781A461346DB00C5
:4007C0009B1A5B00194A9C1803F0FEFA024603230821204603F090FA4021802003F062FA0F4B04221A7000220121702001F090FB03461A460B4B1A6000233B662EE000BFB9
:40080000E0ABFF1F8497FF1F00DD0000E0C7FF1F950200003883FF1FD480FF1FB682FF1F4CC8FF1F4CCAFF1F00E10000E8C7FF1F3B6EDBB20833DAB2A24B1A700022012130
:40084000722001F065FB03461A469F4B1A602021802003F003FA3B6E01333B663B6E072BE6DD984B04221A7000220121702001F04FFB03461A46944B1A60944B09221A7063
:40088000904B0F221A7000220121352001F040FB03461A468C4B1A6006F0B0FC05F0D4FC06F066FD01F044FA01F07AFA884809F02FFA884809F0DEF9874BFE229A77864B29
:4008C000FD22DA77814B00221A70844B1B78DBB2002B01D001F0D2FD012009F067FA7B4B1B78DBB21A467E4B13F812207D4B1B789A4213D0754B1B78DBB21A46784B13F876
:4009000012301A4601239340DAB26E4B1A7000220121702001F0FCFA0346BB766B4B1B78DBB21A466E4B13F812206E4B1A700A2005F034F9654B1B78DBB21A46684B13F871
:400940001230052B1DD1614B1B78DBB21A46664B9B5C002B15D15D4B1B78DBB2604A5B0013445B781A4601239340DAB2554B1A7000220121712001F0CBFA03461A46524B5D
:400980001A600A2005F00AF9504B1B78DBB2082B7AD84E4B1B78DBB21A46534B9B5C002B72D1484B0E221A7002220121362001F0AFFA03461A46444B1A600122022136206E
:4009C00001F00CFB03461A463F4B1A603F4B1B78DBB21A46454B1B78DBB29BB21B0299B2434B23F81210414B5B78D8B2374B1B78DBB219461A463E4B33F8122083B213445C
:400A00009AB23B4B23F811203A4B1B68002B3BD02E4B1B78DBB21A46354B33F812202B4B1B78DBB21946344B33F811309A420DD2264B1B78DBB21A46244B1B78DBB219460A
:400A40002B4B33F811102C4B23F812101F4B1B78DBB21A46264B33F812201C4B1B78DBB21946264B33F811309A420DD9174B1B78DBB21A46154B1B78DBB219461C4B33F870
:400A800011101E4B23F81210104B1B78DBB2092B40F0A0800D4B1B78DBB21A46124B9B5C002B40F0DA80074B00221A7000221021352001F093FA03461A46034B1A600023D7
:400AC000FB653EE04CC8FF1F4CCAFF1FF182FF1F85000000F9010000D0C9FF1F9E82FF1FD880FF1F7C81FF1FF080FF1FE496FF1F28A3FF1F4083FF1FFC80FF1F1081FF1F43
:400B0000FB6D5B00AD4AD35CDBB29BB21B029AB2FB6D5B00A949CB5CDBB29BB213449BB2C3F30B037B807B881B099BB2DBB2DB43D9B2A34AFB6D13440A461A70FB6D0133A4
:400B4000FB65FB6D072BDBDD9E4B1B68022B40F084809D4B1B780833DAB29C4B1A7000220121722001F0D4F903461A46984B1A602021802003F0A8F8012003F051F8954BF8
:400B80001B781946904B1B781A46D200D21A53001A460B46DB005B1A1B0113448E4A981801230022082103F0A7F82021802003F079F8854B1B780133DAB2834B1A70824BDA
:400BC0001B78072B49D97F4B00221A607E4B00221A7042E0814B1B78DBB20A2B26D17F4B1B78DBB21A467E4B9B5C002B35D1774B00221A70002202214F2001F0EFF903467A
:400C00001A46734B1A606D4B1B78DBB29BB21B029AB2744B1A80694B5B78DBB29AB2714B1B8813449AB26F4B1A8016E06B4B1B78DBB20B2B11D16C4B1B68002B06D04021FF
:400C4000802003F02FF8684B00221A605D4B1B68012B02D15B4B02221A60604B1B78DBB2092B00F290805D4B1B78DBB21A465F4B33F81220594B1B78DBB219465C4B33F8D8
:400C80001130D31A9BB23B83B7F91830002B1CDD524B1B78DBB21C46B7F9183018460BF047F84E4B1B78DBB21A46524B53F8223019460BF091F8034618460BF08FFA034686
:400CC0009AB24D4B23F8142007E0444B1B78DBB21A46494B002123F81210404B1B78DBB21A46454B33F81230B3F5805F08D33B4B1B78DBB21A46404B40F6FF7123F81210FB
:400D0000364B1B78DBB21C46344B1B78DBB21A46394B33F8123018460BF006F80346374918460BF059F803461A46354B43F824202A4B1B78DBB21C46284B1B78DBB21A4664
:400D40002D4B33F8123018460AF0EEFF03464FF0765118460BF040F8034618460BF03EFA0346DAB2274B1A551C4B1B78DBB21A461A4B1B78DBB219461F4B33F81110224BEB
:400D800023F8121071E0174B1B8818460AF0CCFF03461E4918460BF01FF8034618460BF0F7F903461AB21A4B1A80194BB3F90030002B2FDA164B00221A8035E0E496FF1F79
:400DC000BC96FF1F0C83FF1FD982FF1F4CC8FF1F4CCAFF1F0083FF1FE0ABFF1FF182FF1FF080FF1F2681FF1F0883FF1F28A3FF1FFC80FF1F9C98FF1FFC83FF1F01088039EC
:400E00001083FF1F6884FF1FE883FF1FC5F1803F6EABFF1F9C4BB3F90030B3F5805F03DB994B40F6FF721A80974BB3F90020974BB3F900309A4213D0934BB3F90030FB8213
:400E4000FB8ADB099BB200221946152001F0E2FAFB8A03F07F0300221946162001F0DAFA894BB3F90020894B1A80894B1B78DBB20133DAB2864B1A70854B1B78DBB20B2B80
:400E800002D9834B00221A70002008F08FFF012008F0C4FF002008F0C1FF0023BB651AE07C4ABB6D32F813309AB27B49BB6D31F813309BB29A4202D0B86D01F00DFA754A70
:400EC000BB6D32F8133099B2734ABB6D22F81310BB6D0133BB65714B1B68BA6D9A42DFDB05F076FE0346002B24D16D4B1B68042B03DD6B4B04221A600CE06A4B1B78002BA7
:400F000008D0674B1B68002B04DD654B1B68013B634A1360012008F0BDFF002008F0D8FF002008F0F3FF002009F00CF85D4B00221A7007E005F04CFE0346002B02D0594BBA
:400F400001221A7005F054FE0346002B0ED1544B05221A60002008F09DFF012008F0B8FF002008F0D3FF002008F0ECFF05F050FE0346002B0ED14A4B06221A60002008F094
:400F800089FF002008F0A4FF012008F0BFFF002008F0D8FF05F04CFE0346002B24D1404B1B68062B03DC3E4B07221A600CE03E4B1B78002B08D03A4B1B680A2B04DC384B8B
:400FC0001B680133364A1360002008F063FF002008F07EFF002008F099FF012008F0B2FF314B00221A7007E005F022FE0346002B02D02D4B01221A7009F066F80346002B64
:4010000010D12A4B00221A60284B1B68284AD25C284B1A70002008F0AFFF012008F0E8FF01F05AF809F060F80346002B10D11F4B01221A601D4B1B681D4AD25C1D4B1A7003
:40104000012008F099FF002008F0D2FF01F044F809F05AF80346002B32D1174B1B78002B2ED0164B1B78002B0CBF01230023DBB21A46124B1A70114B1B78184608F0ECFE95
:401080000D4B00221A7023E06EABFF1FE083FF1FF182FF1F8498FF1F1084FF1FCC80FF1FD080FF1F7F81FF1F8081FF1F3883FF1FD480FF1FB682FF1F7D81FF1FF382FF1F8F
:4010C00009F022F80346002B02D09D4B01221A709C4B1B68002B40F0B08008F0A5FF0346002B25D1984B1B78002B21D0974B1B78013BDAB2954B1A70944B1B7803F01F0347
:40110000DAB2924B1A70924B1B68904A1178914AD1548E4B1A788E4B1B689BB21946104609F03CF800F0D8FF874B00221A7007E008F07AFF0346002B02D0834B01221A70A5
:4011400008F082FF0346002B25D1834B1B78002B21D07E4B1B780133DAB27C4B1A707B4B1B7803F01F03DAB2784B1A70784B1B68764A1178774AD154744B1A78744B1B6853
:401180009BB21946104609F009F800F0A5FF724B00221A7007E008F057FF0346002B02D06D4B01221A7008F05FFF0346002B16D16A4B1B78002B12D0694B1B78013BDAB241
:4011C000674B1A70664B1B7803F03F03DAB2644B1A7000F081FF614B00221A7007E008F043FF0346002B02D05C4B01221A7008F04BFF0346002B16D15A4B1B78002B12D010
:40120000574B1B780133DAB2554B1A70544B1B7803F03F03DAB2524B1A7000F05DFF514B00221A70CCE008F02FFF0346002B00F0C7804C4B01221A70C2E008F0F5FE03464A
:40124000002B25D1404B1B78002B21D03F4B1B78013BDAB23D4B1A703C4B1B7803F01F03DAB23A4B1A703A4B1B68384A1178394AD154364B1A78364B1B689BB2194610467E
:4012800008F08CFF00F028FF2F4B00221A7007E008F0CAFE0346002B02D02B4B01221A7008F0D2FE0346002B25D12B4B1B78002B21D0264B1B780133DAB2244B1A70234BDC
:4012C0001B7803F01F03DAB2204B1A70204B1B681E4A11781F4AD1541C4B1A781C4B1B689BB21946104608F059FF00F0F5FE1A4B00221A7007E008F0A7FE0346002B02D065
:40130000154B01221A7008F0AFFE0346002B2BD1124B1B78002B27D0114B1B78013BDAB20F4B1A700E4B1B7803F03F03DAB20C4B1A7000F0D1FE094B00221A701CE000BFD6
:401340007D81FF1F3C83FF1FFC82FF1FB682FF1F3883FF1FD480FF1FFD82FF1FFE82FF1F0083FF1FFF82FF1F08F07EFE0346002B02D0974B01221A7008F086FE0346002B83
:4013800016D1944B1B78002B12D0934B1B780133DAB2914B1A70904B1B7803F03F03DAB28D4B1A7000F098FE8A4B00221A7007E008F06AFE0346002B02D0864B01221A708D
:4013C00008F0B2FE0346002B40F0AB80834B1B78002B00F0A680824B1B68002B0CBF01230023DBB21A467E4B1A607E4B1B68002B0CBF01230023DBB21A467A4B1A60784B9F
:401400001B68DBB2184608F0D5FD744B00221A70734B1B68002B33D04021802002F054FC002302220B21704802F066FC012302220B216E4802F060FC022302220B216C4837
:4014400002F05AFC032302220B216A4802F054FC694B01221A6000237B650DE0674A7B6D40F6FF7122F81310654A7B6D002122F813107B6D01337B657B6D092BEEDD58E0ED
:4014800000F02AFEFEF74EFF00233B6545E05B4A3B6D32F813301B0A9BB2DAB23B6D03F2E7139BB29B009BB21946104608F076FE524A3B6D32F81330DAB23B6D9BB29B0078
:4014C0009BB203F29D739BB21946104608F066FE4B4A3B6D32F813301B0A9BB2DAB23B6D9BB29B009BB203F29E739BB21946104608F054FE424A3B6D32F81330DAB23B6D90
:401500009BB29B009BB203F29F739BB21946104608F044FE3B6D01333B653B6D092BB6DD07E008F001FE0346002B02D02B4B01221A70344B1B68344A13600023FB643EE06E
:40154000FB6C9BB2184605F061FC0346002B00DA0F331B111BB2D9B22C4AFB6C13440A461A702A4AFB6C13441B78DB43D9B2274AFB6C13440A461A70244AFB6C13441A78B0
:401580002349FB6C0B441B789A420CD0FB6C03F111001E4AFB6C13441B785B08DBB20022194600F037FF194AFB6C13441978184AFB6C13440A461A70FB6C0133FB64FB6CF5
:4015C000032BBDDD012008F00FFC0023BB6443E1FE82FF1FFF82FF1F0083FF1F7E81FF1F3C83FF1F4083FF1F04E1000010E100001CE1000028E100000883FF1FFC80FF1FC1
:401600001081FF1FD080FF1FBC82FF1F3CA3FF1F24CAFF1FA04B1B68A04AD35C1A46A04913465B0113449B00BA6C134451F823409C4B1B781A469A4913465B0113449B0024
:40164000BA6C1344303351F82320974B1B68194610460AF0C1FB0346194620460AF0B4FA03461C468F4B1B781A468D4913465B0113449B00BA6C13443C3351F823208A4B36
:401680005B68194610460AF0A7FB0346194620460AF09AFA03461C46824B1B781A46804913465B0113449B00BA6C1344483351F823207D4B9B68194610460AF08DFB0346D0
:4016C000194620460AF080FA03461C46754B1B781A46734913465B0113449B00BA6C1344543351F82320704BDB68194610460AF073FB0346194620460AF066FA03461C4632
:40170000684B1B781A46664913465B0113449B00BA6C1344603351F82320634B1B69194610460AF059FB0346194620460AF04CFA03461C465B4B1B781A46594913465B01F3
:4017400013449B00BA6C1344783351F82320564B5B69194610460AF03FFB0346194620460AF032FA03461C464E4B1B781A464C4913465B0113449B00BA6C13446C3351F869
:401780002320494B9B69194610460AF025FB0346194620460AF018FA03461C46414B1B781A463F4913465B0113449B00BA6C1344243351F823203C4BDB69194610460AF032
:4017C0000BFB0346194620460AF0FEF903461C46344B1B781A46324913465B0113449B00BA6C13440C3351F823202F4B1B6A194610460AF0F1FA0346194620460AF0E4F9DF
:4018000003461C46274B1B781A46254913465B0113449B00BA6C1344183351F82320224B5B6A194610460AF0D7FA0346194620460AF0CAF903463B614FF0000138690AF0F2
:4018400087FC0346002B04D01849BB6C3A6941F82320BB6C0133BB64154B1B68BA6C9A42FFF6D8AE002008F0BFFA08F01DFC0346002B23D005F02AFE034698000D4B1B68FA
:401880000C4A12680C498A5CD1B2C2B20A44D1B2094AD15422E000BF3883FF1FD480FF1F7484FF1FB682FF1F1083FF1FA0C9FF1FCC80FF1FF882FF1F5884FF1F05F006FE38
:4018C000034618468B4B1B688A4A12688A498A5CD1B2C2B20A44D1B2874AD154002005F007FE864B1B78DBB2002B01D000F068FC834B1B78DBB2002B13D006F0EFFA0346A4
:40190000002B0ED07F4B1B88402B05D97E4B1B8801339AB27C4B1A807A4B00221A8000F079FC00BF04F0AEFC034603F00103002B06D104F0A7FC034603F01003002B01D034
:40194000012300E00023002BECD0012008F0FCFB6E4B1B78DBB2012B56D16D4B1B78002B1DD06C4BFD221A706B4B1A78694B5A70694B1B781A46694B1A6000F0ADFB644B78
:4019800000221A70614B00221A70654B00221A80604BFE229A775F4BFD22DA7735E15D4B02221A705C4B1A785A4B5A7002237B6420E05B4B1A885B4B1B889A420FD2584BB8
:4019C0001B885A1C91B2564A11801A46564B9B5CD9B2504A7B6C13440A461A7007E04D4A7B6C1344EE221A70494B01221A707B6C01337B647B6C1D2BDBD9464BFE229A77EF
:401A0000444BFD22DA7700E1484B1B78DBB2002B69D0404B03221A7000233B640AE03B6C013343493A6C0A4411783A4AD1543B6C01333B643B6C072BF1DD0023FB630AE0B0
:401A4000FB6B09333B49FA6B0A441178314AD154FB6B0133FB63FB6B032BF1DD0023BB630AE0BB6B0D333449BA6B0A441178294AD154BB6B0133BB63BB6B092BF1DD2F4B4E
:401A80001B781B015AB22E4B1B685BB213435AB22C4B1B785B015BB213435AB22A4B1B789B015BB213435BB2DAB21A4B1A76274B1A78184B5A76264BB3F900301B121BB218
:401AC000DAB2144B9A76224BB3F90030DAB2114BDA76104BFE229A770E4BFD22DA77134B00221A7091E00B4B01221A7000237B6355E000BFF882FF1F5884FF1FAC82FF1FC4
:401B0000AB82FF1FB282FF1FB482FF1F8C82FF1F8482FF1FD0C9FF1F8282FF1FEC82FF1F8682FF1F8882FF1F2499FF1F8D82FF1FBC96FF1F3CA3FF1F6884FF1FF482FF1F9E
:401B4000D080FF1FF382FF1FF282FF1F0083FF1F6EABFF1F674A7B6B52F823304FF0884118460AF039F90346184608F0BBFC034618460AF00DFB0346FB607B6B5B0001331C
:401B8000FA681212D1B25C4AD1547B6B01335B00FA68D1B2584AD1547B6B01337B637B6B0B2BD7DD554B1B781B015AB2544B1B685BB213435AB2534B1B785B015BB213438C
:401BC0005AB2514B1B789B015BB213435BB2DAB2494B1A764D4B1A78474B5A764C4BB3F900301B121BB2DAB2434B9A76484BB3F90030DAB2404BDA763F4BFE229A773E4BB1
:401C0000FD22DA77434B01221A70434B1B78FD2B5BD1414BDB7FFE2B57D13F4B5B78BB603D4B1B7C7B6002233B630023FB6214E0394A3B6B134418783849BA681346DB00BD
:401C40009B1A5B00CA18FB6A134402461A703B6B01333B63FB6A0133FB62FB6A0D2BE7DD11233B630023BB621BE02B4A3B6B13441C782B487B68B9681A46D200D21A53001A
:401C80001A460B46DB005B1A1B011344C218BB6A134422461A703B6B01333B63BB6A0133BB62BB6A0D2BE0DD184B1B781A46BB689A420AD17B68072B07D11A4ABB6852F872
:401CC0002330002B01D100F007FA04F0F7FA164B1B78DBB20121184603F078FB134B1B78DBB20121184603F071FB002008F02CFAFEF7EBBDA0C9FF1FD0C9FF1FF482FF1F4D
:401D0000D080FF1FF382FF1FF282FF1F0083FF1F6EABFF1F8D82FF1F2CCAFF1F3C93FF1FE0ABFF1F8497FF1F2093FF1FE096FF1F80B500AF4FF4804341F6FF7201210120EE
:401D400008F006FB03461A46124B1A7003F090FC03461A46104B1A700F4B1B78D8B20123FE22202103F0B2FC0B4B1B78DBB20B4A91B246F24242184603F0E8FC054B1B784E
:401D8000DAB2054B1B78DBB21946104603F002FC00BF80BDE096FF1F20CAFF1FD0C9FF1F80B500AF41F6FF734FF480420121012007F0FCFE03461A464A4B1A7003F058FC5D
:401DC00003461A46484B1A7003F052FC03461A46454B5A70444B18780223FE221A2103F075FC414B58780223FE221A2103F06EFC3D4B1B783D4A92B246F25451184603F089
:401E0000A5FC394B5B783A4A92B246F25451184603F09CFC41F6FF734FF480420121012007F0F6FE03461A46324B1A7003F020FC03461A46304B1A7003F01AFC03461A4621
:401E40002D4B5A702C4B18780623FE22082103F03DFC294B58780623FE22082103F036FC254B1B78254A92B246F25751184603F06DFC214B5B78224A92B246F25751184623
:401E800003F064FC41F6FF734FF480420121012008F02CFA03461A461A4B1A7003F0E8FB03461A46184B1A70174B1B78D8B20223FE22202103F00AFC134B1B78DBB2134AE3
:401EC00092B246F25241184603F040FC0D4B1B78DAB20D4B1B78DBB21946104603F05AFB00BF80BD6CABFF1FE483FF1F80ABFF1F9AABFF1F40A1FF1F60ABFF1F60C9FF1F89
:401F000068C9FF1F2093FF1F00CAFF1F2CCAFF1F80B584B000AF0346FB710B46BB801346BB714CF25033FB6004F034FE0346FB72FB7ADBB25BB2002B3ADBBB88DAB2BB795D
:401F4000F879254904F0F2FC0346FB72FB7ADBB2002B29D104F0F6FD0346FB72FB68013BFB60FB7ADBB2802B01D100F09DF8FB68002B03D18023FB7200F096F8FB7ADBB236
:401F8000002B03D18023FB7200F08EF8FB7ADBB203F08203002B0BD1FB7ADBB2002B07D0FB68002BD6D103E08023FB7200F07CF8FB7ADBB203F02003002B04D1FB7ADBB271
:401FC0005BB2002B01DA00F06FF8FB7ADBB218461037BD4680BD00BF4CC8FF1F80B584B000AF0346FB710B46BB7113467B714CF25033FB6004F0CEFD0346FB72FB7ADBB27D
:402000005BB2002B37DB7B79BA79F879234904F011FD0346FB72FB7ADBB2002B27D104F091FD0346FB72FB68013BFB60FB7ADBB2802B07D11A4B10221A701A4B04221A7088
:4020400000F032F8FB68002B03D18023FB7200F02BF8FB7ADBB203F08103002B0BD1FB7ADBB2002B07D0FB68002BD8D103E08023FB7200F019F8FB7ADBB203F02003002BCF
:4020800004D1FB7ADBB25BB2002B01DA00F00CF8FB7ADBB218461037BD4680BDE496FF1FD9490040D749004080B500AF04F0E2F9064B00221A70064B00221A70054B0022E2
:4020C0001A7004F0BFF900BF80BD00BFD6490040C84900408983FF1F98B500AF2E4B1B7819462E4A0B46DB005B1A1B01134462331B78FF2B4DD04021802001F0E5FD0020BF
:4021000001F08EFD244B1B78184600230022022101F03EFE204B1B781A461346DB009B1A5B001F4A9818012300220B2101F0E4FD1C4B1B78184603230022022101F028FE55
:4021400001F042FE024603230121174801F0D4FD144B1B781A461346DB009B1A5B00134A9C1801F031FE024603230821204601F0C3FD0F4B01221A60074B1B7819460D4B75
:40218000012243F821200C4B00221A700B4B01221A6000BF98BD00BF0083FF1FE0ABFF1F3C93FF1FB682FF1F00E10000E8C7FF1F0883FF1F8497FF1FD982FF1F0C83FF1F74
:4021C00080B500AF05F08AFE0346002B05D105F083FC0E4B00221A7013E00C4B1B78DBB2002B0ED10021002005F0ECFA00BF05F0F3FC0346002BFAD007F0BAF9034B01222F
:402200001A70034B00221A7000BF80BDAB82FF1FAC82FF1F80B500AF05F0EAFC0346002B10D005F0D9FC0346002B0BD0244B1B78DBB2002B06D005F051FE0346002B01D042
:4022400007F096F905F0C8FC0346002B35D005F0CFFC0346002B18D01A4B1B78D8B21A4B1B78DBB29BB21A46184905F01FFD184B1B78DBB240221749184605F09BFD144BD5
:402280001B78DBB2184605F0DBFD0D4B1B78DBB2002B06D005F022FE0346002B01D007F0E7F9074B1B78DBB2002B06D005F016FE0346002B01D007F06DF900BF80BD00BF50
:4022C000AB82FF1FD0D3FF1FD1D3FF1FD4D3FF1FD2D3FF1F90D3FF1F80B586B000AF78602C4A7B6832F81330FB82FB8A002B43D0FB8A184609F018FD03463B614FF05E514B
:40230000386909F069FD03463B61386908F08CFA38612149386909F055FC03463B611F49386909F059FD03463B61386909F030FF0346FB82FB8A7F2B01D97F23FB82184B6F
:402340001B681A1F13465B0013449B001946154A7B6852F823300B44FB60FB8ADBB219467B6801331A46F86800F020F80E497B68FA6841F8232009E00B4A7B6852F823001D
:402380007B6801331A46002100F010F800BF1837BD4680BD8498FF1F0918C43C551D0243D080FF1F70C9FF1F4483FF1F80B584B000AFF860B9607A607B68DBB2703BDAB279
:4023C000114B1A70FB68DAB20F4B5A70BB68DAB20D4B9A700D4B1B78DBB2002B09D005F07DFD0346002B04D000220749032007F045F9074B1B8804339AB2054B1A8000BFB5
:402400001037BD4680BD00BF3893FF1FAB82FF1FB282FF1F80B584B000AFF860B9607A607B68DBB2503BDAB2114B1A70FB68DAB20F4B5A70BB68DAB20D4B9A700D4B1B78F1
:40244000DBB2002B09D005F049FD0346002B04D000220749032007F011F9074B1B8804339AB2054B1A8000BF1037BD4680BD00BF3893FF1FAB82FF1FB282FF1F90B58FB041
:4024800000AF864B01221A70854B1B78002B40F09E82844B01221A70834B00221A60834B00221A707E4B5A78814B1A7002237B631023FB7722E07B6B023B79497A6B0A44FE
:4024C000127802F07F02D1B27A4AD154784B1B7818467B6B9A1E72497B6B0B441B7803F07F03DCB274490346DB001B1A5B000B44134422461A707B6B01337B63FA7F7B6B3B
:402500009A42D8D8694B01221A7000233B6334E00023FB622BE07B6B023B61497A6B0A44127802F07F02D1B2624AD154604B1B7818465B4A7B6B13441B7803F07F03DCB2E9
:402540005E493B6B1A46D200D21A53001A460346DB001B1A1B011344CA18FB6A134422461A707B6B01337B63FB6A0133FB62FB6A0D2BD0DD3B6B01333B633B6B072BC7DDB5
:402580007E23BB83494B02221A7019E20023BB60BB6843497A6B0A44127812071343BB60BB687A6B01323E498A5C52051343BB60BB687A6B02323A498A5C92031343BB60B0
:4025C000BB687A6B033236498A5CD2011343BB60BA687B6B04333249CB5C03F07F031343BB60BB68364A1360304B1B78022B40F0B9802D4B1B68002B22D1BB68184609F0E1
:40260000EDFD03469AB22F4B1A80BA8B264B1B68591C2548016013442A4A1288120A92B2D1B2244AD154BA8B1F4B1B68591C1E4801601344234A1288D1B21E4AD154BCE137
:40264000204B1B8801335B001A46174B1B689A423CD9BB681C49184609F0BEFB0346184609F0BCFD03467B83BA8B0F4B1B68591C0D48016013447A8B120A92B2D1B20D4A6C
:40268000D154BA8B084B1B68591C0748016013447A8BD1B2074AD1548FE100BF8182FF1F40A3FF1F8A82FF1F9082FF1F8582FF1F8282FF1F2499FF1F3C93FF1FE0ABFF1FFD
:4026C000A482FF1F9882FF1F00FF7F47854B1B8801335B001A46844B1B689A4240F06D81BB68824A1360814B1B688149184609F011FD0346002B23D07C4B1B687D49184636
:4027000009F026FD0346002B1AD0BA8B764B1B68591C754801601344774AEF21D154BA8B714B1B68591C704801601344724AEF21D154724B03221A70714B00221A603CE17B
:40274000704B1B6801336F4A13606F4B00221A706E4B00221A606E4B00221A706D4B00221A702AE1654B1B78032B28D1BB68184609F034FD03469AB2674B1A80BA8B5A4B4C
:402780001B68591C584801601344634A1288120A92B2D1B2584AD154BA8B534B1B68591C5148016013445C4A1288D1B2524AD154524B04221A70594B00221A80FDE04F4B04
:4027C0001B78042B40F0F980544B1A88524B1B889A4280F0A7804A4B1B6803F00303002B0FD1BA8B404B1B68591C3F480160D418BB68184609F0F2FC0346DAB23E4B1A558D
:4028000069E03F4B1B6803F00303012B0FD1BA8B354B1B68591C34480160D418BB68184609F0DCFC0346DAB2334B1A5553E0344B1B6803F00303022B23D1BB684FF00001F1
:40284000184609F067FC0346002B0AD0BA8B264B1B68591C244801601344274AFF21D15439E0BA8B204B1B68591C1F480160D418BB68184609F0B2FC0346DAB21E4B1A557E
:4028800029E0BB682649184609F0A6FA0346184609F07EFC03463B83BA8B134B1B68591C114801601344B7F91820121212B2D1B2114AD154BA8B0C4B1B68591C0A4801609F
:4028C00013443A8BD1B20C4AD154144B1B8801339AB2124B1A800A4B1B680133084A13606BE000BF9882FF1F9082FF1FA082FF1F0000C0BF000020C02499FF1F8582FF1F63
:402900009482FF1F7883FF1F8A82FF1F7C82FF1F8C82FF1F9E82FF1F9A82FF1F9C82FF1F00FEFF46BB686349184609F0F3FB0346002B31D0BB686049184609F009FC0346E7
:40294000002B29D0BA8B5D4B1B68591C5B48016013445B4AFE21D154BA8B584B1B68591C564801601344564AFE21D154554B05221A70554B00221A70544B01221A70544B68
:402980001A78544B1A704D4B1B689AB2BB8B13449AB2514B1A8010E0504B1B6801334F4A1360494B00221A704D4B00221A60474B00221A704B4B00221A707B6B05337B6398
:4029C000474B1B687A6B9A42FFF4E0AD63E1464B1B78022B40F05F813B4B01221A70374B00221A60404B5A78404B1A703F4B1A783F4B1A703F4B1B683D4A11783E4AD1541F
:402A00000223BB621023FB7540E0374ABB6A13441B7803F07F03BB75344B1B781846BB6A9A1E36490346DB001B1A5B000B441344BA7D1A702D4B1B789BB21A4612011A444C
:402A400092001A44520013445B009BB202339AB22B4B1A80254B1B789BB21A4612011A4492001A44520013445B009AB2BB6A9BB213449AB2BB7D1146184607F08FFB034657
:402A8000DAB2204B1A70BB6A0133BB62FA7DBB6A9A42BAD81023BB62D7E000237B62D0E07B6A9BB21A4652001344DB00BB8200233B62BFE0000020C0000060C09082FF1F7C
:402AC0002499FF1F8582FF1F8A82FF1F8C82FF1F8282FF1F0083FF1F8882FF1F7883FF1F7C82FF1F9E82FF1F40A3FF1F8382FF1FB682FF1F3883FF1FD480FF1FE8C7FF1F90
:402B00007683FF1F7483FF1F00237B607B686849BA6A0A441278120713437B607B68BA6A013263498A5C520513437B607B68BA6A02325F498A5C920313437B607B68BA6AA7
:402B400003325B498A5CD20113437B607A68BB6A04335749CB5C03F07F0313437B60554B1B781C46796854487B6A1A4652001A4493001A4623465B0123449B001A443B6A23
:402B8000134440F823107B684FF08741184609F023F903464FF08E41184609F015F80346184609F01BFB03467B827B8A1B0A9BB27B747B8A3B743B6A9BB25B00FB81FA89D9
:402BC000BB8A13449AB23B4B1B789BB21946090119448900194449000B445B009BB213449BB210339AB2354B1A80344B1B889AB27B7C1146184607F0D1FA0346DAB2304B22
:402C00001A702E4B1B889BB201339AB23B7C1146184607F0C3FA0346DAB2294B1A70294B1B680133274A1360BB6A0533BB623B6A01333B623B6A0B2B7FF666AF7B6A0133B1
:402C40007B627B6A0A2B7FF62BAF1F4B1B68BA6A9A42FFF422AF1B4B1B689AB21B4B1A801A4B1B88842B11D0194B1B680133184A1360184B00221A70134B00221A60164B36
:402C800000221A70154B00221A7004E0114B00221A70FFF721FA124B00221A700A4B00221A600E4B00221A7000BF3C37BD4690BD40A3FF1F8382FF1F7484FF1F7683FF1F8D
:402CC0007483FF1F9082FF1F7C82FF1F8882FF1F7883FF1F8A82FF1F8C82FF1F9E82FF1F8182FF1F80B584B000AF03463960FB713B681A78434B1A703B685A78414B5A70FF
:402D00003B689A783F4B9A703B68DA783D4BDA703D4B1B78DBB2002B71D005F0DFF80346002B6CD0394B1B78002B29D00023FB6022E0FB683A6813441B785BB2002B0EDB28
:402D4000334B1B685A1C32490A6040F2FF721340FA6839680A4411782E4AD15409E0FB683A6813441B78F72B03D1284B00221A7045E0FB680133FB60FB68022BD9DD3EE022
:402D80003B681B78F02B3AD1234B1B78002B36D13B6801331B787E2B03D1204B01221A702DE03B6801331B78002B09D03B6801331B78012B04D03B6801331B78022B1ED11A
:402DC000124B01221A70124B1B68002B17D1104B1B685A1C0E490A6040F2FF7213403A6851780C4AD1540A4B1B685A1C08490A6040F2FF7213403A689178064AD15410377F
:402E0000BD4680BD40ABFF1FAB82FF1F8082FF1F7C82FF1F40A3FF1F8182FF1F9E82FF1F80B483B000AF78600B467B8013463B807B687A881A807B683A885A807A887B6831
:402E40009A803A887B68DA807B6800221A817B6800225A817B6800229A817B680122DA817B684FF6FF721A827B684FF6FF725A827B6801229A827B680022DA827B68002206
:402E80009A617B6800221A817B680022DA837B6808229A8300BF0C37BD4680BC704700BF80B58AB000AFF860084611461A4603467B810B463B811346FB80B7F93020B7F9E3
:402EC0000830D31A83EAE372A2EBE372B7F90610B7F90A30CB1A002BB8BF5B429A42CCBF01230023DBB27B84B7F92230002B0BD07B893B843B897B813B8C3B81FB88FB83EC
:402F00003B8EFB80FB8B3B86B7F90A20B7F906309A420BDD7B89BB83FB887B81BB8BFB803B897B833B8E3B817B8B3B86FA887B89D31A9BB23B83B7F93020B7F90830D31A9F
:402F4000002BB8BF5B42FB82B7F91830DA0F13445B10FB84B7F90820B7F930309A4202DA0123BB8431E04FF6FF73BB842DE0B7F92230002B08D0BB8EB7F90A20B7F908106C
:402F8000F86800F01DF907E0BB8EB7F90820B7F90A10F86800F014F9FA8CFB8AD31A9BB2FB84B7F92630002B09DA3A89BB8C13449BB23B81FA8C3B8B13449BB2FB84B7F91B
:402FC0000A309BB201339BB27B81B7F90A20B7F906309A42CBDD00BF2837BD4680BD00BF80B586B000AFF860084611461A4603467B810B463B811346FB80B7F90A30002BBA
:40300000C0F2D780B7F90A30FA689288934280F2D080B7F90830002BC0F2CB80B7F90830FA68D288934280F2C480F86800F00EFD0346022B14D0032B27D0012B36D17B893A
:40304000FB823B897B81FB8A3B81FB68B3F900309AB27B89D31A9BB2013B9BB27B8125E0FB68B3F900309AB27B89D31A9BB2013B9BB27B81FB68B3F902309AB23B89D31AF3
:403080009BB2013B9BB23B8110E07B89BB823B897B81BB8A3B81FB68B3F902309AB23B89D31A9BB2013B9BB23B8100BFFB88012B04D0022B54D0002B28D07BE0B7F90A20D1
:4030C000B7F90830002B00DA0733DB1018B20146FB68B3F9003003FB01F31344B7F90A10FA68B2F9002002FB00F20A4433498A5C51B23A8902F00702012000FA02F252B2BB
:403100000A4352B2D1B22D4AD15453E0B7F90A20B7F90830002B00DA0733DB1018B20146FB68B3F9003003FB01F31344B7F90A10FA68B2F9002002FB00F20A441F498A5CE5
:4031400051B23A8902F00702012000FA02F252B2D24352B20A4052B2D1B2184AD15429E0B7F90A20B7F90830002B00DA0733DB1018B20146FB68B3F9003003FB01F313447C
:40318000B7F90A10FA68B2F9002002FB00F20A440A498A5C51B23A8902F00702012000FA02F252B24A4052B2D1B2044AD15400BF00E000BF1837BD4680BD00BFC8CEFF1FEA
:4031C00080B584B000AFF860084611461A4603467B810B463B811346FB80FB88B7F90820B7F90A10F868FFF7FBFE00BF1037BD4680BD00BF80B586B002AFF86008461146A2
:403200001A4603467B810B463B811346FB80B7F90600B7F90820B7F90A103B8B00930346F86800F025F800BF1037BD4680BD00BF80B586B002AFF860084611461A460346DA
:403240007B810B463B811346FB80B7F90600B7F90820B7F90A10BB8B0193B7F9183000930346F86800F02AF800BF1037BD4680BD90B587B002AFF860084611461A460346E0
:403280007B810B463B811346FB803A89FB8813449BB2013B9BB21BB2B7F90A40B7F90800B7F90A103A8C0192009323460246F868FFF7F6FD00BF1437BD4690BD80B588B0C8
:4032C00002AFF860084611461A4603467B810B463B811346FB807B89FB8211E0B7F92000B7F90820B7F91610BB8C00930346F868FFF780FFB7F916309BB201339BB2FB8271
:40330000B7F91620B7F90A10B7F906300B449A42E4DB00BF1837BD4680BD00BF90B58FB002AFF860084611461A4603467B810B463B811346FB71FB689B69002B40F02E81E6
:40334000B7F90A30FA689288934280F2E981B7F90830FA68D288934280F2E281B7F90A1097F8482013465B0013445B000B44013B002BC0F2D581B7F9082097F84830DB0049
:403380001344013B002BC0F2CB81FB68DB8A002B05D1FB79AF2B02D9FB790133FB71002387F82F30BCE0FB689969FA7913469B001A4497F92F3013441A4613465B001344D3
:4033C0009B000B441B7887F82E30002387F82D309AE097F82E3003F00103002B41D097F84830012B13D197F92F309AB27B8913449BB219B297F92D309AB23B8913449BB274
:403400001AB2B7F84030F868FFF7DAFE70E097F92F309BB297F8482092B202FB03F39AB27B8913449BB219B297F92D309BB297F8482092B202FB03F39AB23B8913449BB2DE
:4034400018B297F848301CB297F848301BB2B7F840200192009323460246F868FFF7E8FE46E0B7F84420B7F840309A4240D097F84830012B13D197F92F309AB27B891344C6
:403480009BB219B297F92D309AB23B8913449BB21AB2B7F84430F868FFF792FE28E097F92F309BB297F8482092B202FB03F39AB27B8913449BB219B297F92D309BB297F884
:4034C000482092B202FB03F39AB23B8913449BB218B297F848301CB297F848301BB2B7F844200192009323460246F868FFF7A0FE97F92D30DBB20133DBB287F82D3097F882
:403500002E305B0887F82E3097F92D30072B7FF760AF97F92F30DBB20133DBB287F82F3097F92F30042B7FF73EAFB7F84420B7F840309A4200F0F58097F84830012B0DD129
:403540007B8905339BB219B2B7F90820B7F8443000930823F868FFF74DFEE2E097F848309BB21A46920013449AB27B8913449BB219B297F848301CB297F848309BB2DB007B
:403580009BB21BB2B7F90800B7F844200192009323460246F868FFF74BFEC2E0FB689B6908331B78FA79D31AFB71FB79DA00FB689B69043318CB1344FB61FB689B6918CB41
:4035C000BB61FB691B887B85FB699B78FB75FB69DB78BB75FB6905331B787B75FB6906331B783B75002387F82730002387F826300023BB8400237B8497F84830012B05D955
:4036000097F91530BB8497F914307B84002387F828307EE0002387F8293070E097F826305A1C87F8262003F00703002B08D17B8D5A1C7A851A46BB6913441B7887F827301E
:4036400097F92730002B50DA97F84830012B1DD197F915309AB27B8913449AB297F829309BB213449BB219B297F914309AB23B8913449AB297F828309BB213449BB21AB256
:40368000B7F84030F868FFF79BFD2EE0B7F9242097F8293013449BB297F8482092B202FB03F39AB27B8913449BB219B2B7F9222097F8283013449BB297F8482092B202FBCD
:4036C00003F39AB23B8913449BB218B297F848301CB297F848301BB2B7F840200192009323460246F868FFF7A3FD97F827305B0087F8273097F82930013387F8293097F837
:403700002920FB7D9A4289D397F82830013387F8283097F82820BB7D9A42FFF47BAF00E000BF3437BD4690BD80B584B000AF78600B467B807B689B8A002B19D07B689B89DD
:403740001A46B7F9023013447A68928893420FDB7B6800229A817B685A897B689B8B7968C98901FB03F39BB213449AB27B685A817B681B8C002B4FD07B689B69002B0AD172
:403780007B689B8B7A68D28902FB03F39BB2013B9BB2FB8101E00023FB817B685A89FB8913449AB27B68DB8B7968C98901FB03F39BB21344BB817B68DB88BA899A422BD360
:4037C000BB89DAB27B68DB88DBB2D31ADBB20133D9B27B681A8A7B685B8A9A4202D07B685B8A00E000231A46786800F0E9F97B6800229A817B68DA88FB89D31A9AB27B680E
:40380000DB8B7968C98901FB03F39BB2D31A9BB2013B9AB27B685A8100BF1037BD4680BDB0B58AB004AF78600B46FB707B689B69002B45D1FB780A2B10D17B685A897B68AA
:403840009B8B7968C98901FB03F39BB213449AB27B685A817B6800229A81AAE0FB780D2B00F0A7807B68DB899B009BB21BB219467868FFF759FF7B689B8918B27B685B89C2
:403880001CB27B681B8A7A68528A7968C989C9B2FD780291019200932B46224601467868FFF73CFD7B689A897B68DB89194649000B445B009BB213449AB27B689A8178E004
:4038C000FB780A2B13D17B6800229A817B685A897B68DB89796889690A31097889B201FB03F39BB213449AB27B685A8161E0FB780D2B5ED07B689B691B7AFB75FA78FB7DB5
:403900009A4256D37B689B6909331B78FA789A424FD8FA78FB7DD31ADA007B689B69043318CB13443B613B699B78FB733B69DB78BB73FB7B002B2DD0BB7B002B2AD03B69CB
:4039400005331B785BB2BB817B68DB89B7F90C10FA7B0A4492B202FB03F39BB21BB219467868FFF7E1FE7B689B8918B27B685B891CB27B681B8A7A68528A7968C989C9B29E
:40398000FD780291019200932B46224601467868FFF7C4FC7B689A893B6904331B789BB27968C98901FB03F39BB213449AB27B689A8100BF1837BD46B0BD00BF80B483B0AB
:4039C00000AF78600B467B8013463B807A887B689A813A887B685A8100BF0C37BD4680BC704700BF80B483B000AF78607B689B891BB218460C37BD4680BC704780B483B0E9
:403A000000AF78600B46FB70FB78002B02D0FB789AB200E001227B68DA8100BF0C37BD4680BC704780B483B000AF78600B467B8013463B807B687A881A827B683A885A828B
:403A400000BF0C37BD4680BC704700BF80B483B000AF78607B681B89DBB218460C37BD4680BC704790B486B000AF786039603B68002B0AD07B689B69002B59D17B685B89B1
:403A800006339AB27B685A8152E07B689B69002B3ED07B680022DA833B6808331B78BB753B6809331B787B75BB7DFB7525E0FA7DBB7DD31ADA003B68043318CB13443B6139
:403AC0003B6903331B78FB733B6906331B78BB73FA7B97F90E3013447A68D28B934209DDFB7B1AB297F90E301BB213441BB29AB27B68DA83FB7D0133FB75FA7D7B7D9A42C5
:403B0000D5D93B680A331B789AB27B689A830FE07B689B69002B05D07B685B89063B9AB27B685A817B6808229A837B680022DA837B683A689A6100BF1837BD4690BC704710
:403B400080B588B000AFF860B9601346FB710023FB6129E0FB795A1EFB69D31A184608F0E7F803461946154806F0E0FC0346184608F034FB0346BB61BB69BA68B2FBF3F316
:403B80007B61FB69FA6813447A69D2B23032D2B21A707B69BA6902FB03F31A46BB689B1ABB60FB690133FB61FA79FB699A42D1DCFB7918462037BD4680BD00BF000020410B
:403BC00080B483B000AF78600B46FB7013463B8000BF0C37BD4680BC704700BF80B582B000AF786039607B681BB23A6812B219460948FFF715F909490748FFF733FF002214
:403C000001210548FFF70EFF01210348FFF7F6FE00BF0837BD4680BDA0CAFF1FB083010080B582B000AF78607B68002B04D108490848FFF717FF06E07B68012B03D106492B
:403C40000448FFF70FFF00BF0837BD4680BD00BFB0830100A0CAFF1FD82B030080B584B000AF03460A46FB801346BB80BA88FB881946022000F0B2F80023FB6007E0084ADE
:403C8000FB68134400221A70FB680133FB60FB68B3F5806FF3DB00BF1037BD4680BD00BFC8CEFF1F80B582B000AF03460A46FB801346BB80FB88BA881146184600F04EF9BC
:403CC00000BF0837BD4680BD80B584B002AF786039607B6819B23B681BB20022019200930B46002200210348FFF7E8FA00BF0837BD4680BDA0CAFF1F90B58BB002AFF8608F
:403D0000B9607A60FB707B68BB61FB7803F003031B010C337B61BB691BB27A6912B219461A48FFF74BFE7B6819B2FB789BB21B019BB218B2BB689BB21A46520013449B0036
:403D40009BB21CB2FB7801339BB21B019BB21BB2002201920093234602460C48FFF7AEFA0023FB610AE0FB69FA6813441B7819460648FFF755FDFB690133FB61FA69BB688B
:403D80009A42F0DB00BF2437BD4690BDA0CAFF1F80B586B000AFF860B9607A60FB70BB68DBB21A46F9680748FFF7CAFE7861FB787A6879690348FFF79FFF00BF1837BD461C
:403DC00080BD00BF80CAFF1F80B500AF0248FFF709FE0346184680BDA0CAFF1F80B582B000AF0346FB710B46BB8013467B804F4AFB791370AE2000F09BF8D52000F098F8C7
:403E0000802000F095F8A82000F092F87B88DBB2013BDBB2184600F08BF8D32000F088F8002000F085F8402000F082F88D2000F07FF8FB79012B03D1102000F079F802E044
:403E4000142000F075F8202000F072F8002000F06FF8A12000F06CF8C82000F069F8BB88802B0ED17B88202B0BD1DA2000F060F8022000F05DF8812000F05AF88F2000F030
:403E800057F8BB88802B15D17B88402B12D1DA2000F04EF8122000F04BF8812000F048F8FB79012B03D19F2000F042F802E0CF2000F03EF8BB88602B15D17B88102B12D1FF
:403EC000DA2000F035F8022000F032F8812000F02FF8FB79012B03D1102000F029F802E0AF2000F025F8D92000F022F8FB79012B03D1222000F01CF802E0F12000F018F894
:403F0000DB2000F015F8402000F012F8A42000F00FF8A62000F00CF82E2000F009F8AF2000F006F800BF0837BD4680BDC8D2FF1F80B582B000AF0346FB71074B00221A70FF
:403F4000054AFB795370002202213C20FDF7E0FF00BF0837BD4680BD4CC8FF1F80B586B000AF7860396000F071F80020FFF7E0FF1020FFF7DDFF4020FFF7DAFF0023FB733C
:403F80000223BB733B68DB103B607B68DB107B600023BB6000237B750023FB7549E0FA7DFB7B1344DBB2503BDBB21846FFF7C0FFBB7B03F00F03DBB21846FFF7B9FFBB7BC9
:403FC0001B09DBB243F01003DBB21846FFF7B0FF1C4B40221A700023BB7524E000233B610EE03B6901337A7D796801FB02F13A690A441549895C134AD1543B6901333B611A
:404000003A697B689A42ECDB7B7D01337B757B689BB201339BB2002219463C20FDF778FFBB7D0133BB75BB7D072BD7D9FB7D0133FB75FA7D3B689A42B1DB00BF1837BD46DD
:4040400080BD00BF4CC8FF1FC8CEFF1F80B500AF0021002000F002F800BF80BD80B582B000AF03460A46FB711346BB7197F90630002B01DA7F23BB71FB79072B01D907236F
:40408000FB712120FFF754FFBB791846FFF750FF7F20FFF74DFF2220FFF74AFFFB791846FFF746FF0320FFF743FF00BF0837BD4680BD00BF80B582B000AF786039603A6843
:4040C0000021786808F0E1F800BF0837BD4680BD80B584B000AFF860B9607A607A68B968F86808F0C7F800BF1037BD4680BD00BF80B483B000AF0346FB71FEE780B582B017
:4041000000AF3C4B01221A803B4B19221A703B4B07221A803A4B18221A703A4B07221A80394B18221A70394B17221A80384B18221A70384B47221A80374B18221A70374B33
:4041400006221A70364B374A1278D2B21A70364B52221A70354B40F21A721A80344B42F251221A800023FB7019237B6013E0FB785B00DAB22F4B1B78DBB203F00103DBB2CC
:404180001343DBB203F00303FB70782006F014F97B68013B7B607B68002B02D0FB78032BE5D17B68002B02D10320FFF7A1FF224B4FF480721A80204B07221A701F4B00226C
:4041C0001A701F4B48221A701B4B00221A701D4B00221A701C4B02221A701C4A1B4B1B78DBB243F01F03DBB2137000BF0837BD4680BD00BF80400040824000408440004048
:4042000086400040884000408A4000408C4000408E400040904000409240004000430040A14600400F010049004200402242004020420040254200400440004006400040AE
:40424000084000400940004001400040A243004080B582B000AF1F4B1B78FB711E4B1B78BB711E4B1B787B711D4AFB7903F00703DBB213701B4AFB791B09DBB21370164AA3
:40428000BB7943F00303DBB21370144A7B7943F00303DBB21370144B0F221A70134B40221A70134B40221A70124BF0221A70124B20221A700A2001F071FC084A7B791370C5
:4042C000054ABB7913700D4B66221A7000BF0837BD4680BDCF010049F8460040F94600406E5800406F5800400D5100400159004003590040205B0040235B00407658004092
:4043000080B586B000AF72B6614B61221A70FFF7F5FE0023FB7513E0FA7D13465B0013445B005C4A13443B613B691A683B699B889BB219461046FFF7BDFEFB7D0133FB75E1
:40434000FB7D012BE8D90023FB751CE0FA7D13469B0013445B00504A1344FB60FB681B68BB60FB685B687B60FB681A7A5B7A1B0213437B807B881A467968B868FFF7A8FEA4
:40438000FB7D0133FB75FB7D532BDFD9042243494348FFF79DFE042242494348FFF798FE04214248FFF786FE04214148FFF782FE042240494048FFF78BFE04223F49404864
:4043C000FFF786FE3F4B404A1A60404B404A1A60404A404B1B78DBB243F00203DBB213703D4A3D4B1B78DBB243F00203DBB213703A4A3A4B1B78DBB243F04003DBB2137083
:40440000374A374B1B78DBB243F01003DBB21370082234493448FFF75BFE082233493448FFF756FE0A2233493348FFF751FE0A2232493348FFF74CFE0A2232493248FFF744
:4044400047FE082231493248FFF742FE0A2231493148FFF73DFE0A2230493148FFF738FE082230493048FFF733FE304A2F4B1B78DBB243F00803DBB21370FFF7E9FE0E2258
:4044800016492B48FFF724FE00BF1837BD4680BD00480040E42B0300F02B03008424004800760040882400480876004010760040187600408C240048207600409024004856
:4044C00028760040580E01400404004458180140040400E40350014013500140A0430040C2430040282400480251004030240048C251004038240048F051004044240048C3
:404500001051004050240048205100405C24004832510040642400484051004070240048505100407C2400486251004022430040B043004080B500AF07F070FE03461B68BC
:404540000C2B00D1FEE7FEE780B584B000AF7860104B1A687B6813441A460F4BD31AB3F5006F09DC0B4B1B68FB600A4B1A687B681344084A136007E007F050FE02460C2312
:4045800013604FF0FF33FB60FB6818461037BD4680BD00BF8481FF1F58D4FF1F80B586B000AF224B7B61224B3B61204B7B6135E03B691B68FB603B695B68BB603B699B68D5
:4045C0003B6000237B600CE0FB681A68BB681A60BB680433BB60FB680433FB607B6804337B607A683B689A42EED13B69DB683B6000237B6008E0BB6800221A60BB680433B4
:40460000BB607B6804337B607A683B689A42F2D13B6910333B617B69013B7B617B69002BC6D107F001FEFBF703FFFEE7010000008C32030080B582B000AF194B194A1A6039
:40464000194A194B1B6843F40073136000237B600FE07B68032B04D8144A7B6852F8233000E0134B13497A6841F822307B6801337B607B682F2BECD90F4B1B78DAB20F4B4D
:404680001A700F4B0B4A1A60FFF73AFE00F070FE0C4B00221A6000BF0837BD4680BD00BF0CED00E00004FA0514ED00E000000000354500000080FF1FBC760040C480FF1F22
:4046C00008ED00E0C080FF1F80B584B000AF786039600123FB733B68002B5FD07B68002B5CD07B68DB68002B58D07B685B680A2B54D87B681B68002B50D0786800F066FCD2
:404700000346FB73FB7B002B48D17B681A683B68DA607B685A683B681A617B681A7A3B681A757B685A7A3B685A757B68DA683B689A617B681B68DA097B681B6803F07F034A
:40474000002B01D0012300E000231A443B685A603B685B687A68526802FB03F31A027B68DB681A443B681A603B6808333968184600F046FB3B689B681B68002B0ED13B68C5
:404780001B7D002B0AD0386800F072FD0346FB733B6808333968184600F032FBFB7B18461037BD4680BD00BF80B59AB002AFF860B9607A603B60012387F85F300023FB64C8
:4047C0000023BB64BB687B647B68002B00F06B81FA687B681A443B68DB689A4200F26381BB68002B00F05F81FB683B647B68FB633B689B681B687B630023BB633A6CFB6B9B
:404800001344013BDA093B6CDB09D31A01333B633B689A683B689B69D21A3B685B681B02B2FBF3F33A68526802FB03F31A023B689B691344FB620023BB6518E0BB6DDA0166
:404840003B6C9A4208D8BB6D0133DB015A1E3B6C9A4201D3012300E00023002B04D0BB6DBB64BB6CFB6407E0BB6D0133BB653B685A68BB6D9A42E1D83B689A68FB6AD31A5F
:404880001B0ABB623B681B69012B12D93A6BBB6C1344013B7B62BA6CBB6A9A4207D87A6ABB6A9A4201D9012302E0002300E00123BB630023BB6563E0FB6C1A02FB6A134467
:4048C0003B653B6C03F07F0380333B62BB6D5A1C3B6B9A4206D23B6C03F07F03C3F180037B6501E0FB6B7B65BB6B002B17D0FA6CBB6A9A4213D93B685B681B023A6DD31AB8
:404900003B653B689A693B6D9A4208D93B681A683B685968FB6CCB1A1B02D31A3B653B681B7D002B0FD03B6800937B6D3A6A796C386D00F0A3FB034687F85F3097F85F30B9
:40494000002B0BD020E0786C3A6D3B6A13447A6D194607F08FFC002387F85F303A6C7B6D13443B64FA6B7B6DD31AFB637A6C7B6D13447B64FB6C0133FB64BB6D0133BB651B
:40498000BA6D3B6B9A4297D397F85F30002B40F08A807B6B002B00F086803B685A687B6B934228BF13463B633B6B013B3B637A6B3B6BD31ABB6572E03968B86D00F056FAEC
:4049C00038653B6D002B67D03B6D04331B68FB613B6D08331A68FB691344BB61FA69FB689A4209D9FA687B681A44FB699A428CBF01230023DBB206E0FA68BB699A4234BF55
:404A000001230023DBB2002B46D0FA69FB689A4203D8FA68FB69D31A00E000237B61FA69FB689A4203D9FA69FB68D31A00E000233B61FA68FB69934238BF13463B647B6914
:404A40000C337B61FA687B681A44BB699A4228BF1A463B6CD31A7B65BA683B6913447B643B681B7D002B0FD03B6800937B6D7A69796C386D00F002FB034687F85F3097F81E
:404A80005F30002B08D00EE0786C3A6D7B6913447A6D194607F0EEFBBB6D0133BB65BA6D7B6B9A4288D997F85F3018466037BD4680BD00BF90B5D7B002AF07F10C042060AD
:404AC00007F108000160391D0A603A461360012387F84F3107F1200300221A6007F11C0300221A603B461B689A6807F118031A6007F108031B68C7F83C313B1D1B68002BCA
:404B000000F0748107F10C023B1D12681B681A443B461B68DB689A4200F2688107F108031B68002B00F062813B1D1B68013B1B09B24AA2FB03230133C7F8343107F11003F8
:404B400000221A600023C7F8443146E10023C7F8383107F118031B681B68C7F830313B4607F1140207F118011B68D7F8300100F09DF907F124034FF480720021184607F024
:404B800084FBD7F830310133C7F8303107F12403D7F830211A6007F1240307F10C0212685A60D7F83C31C7F82C31D7F834315A1ED7F844319A4205D107F124033A1D1268F6
:404BC0009A6014E007F1240370229A603B1D3A1D1268703A1A6007F10C0307F10C02126870321A60D7F83C317033C7F83C3107F124039A6807F124030C33D7F82C11184638
:404C000007F038FB07F114031B68002B0BD007F114031B688033194607F1240380338022184607F027FB3B461B685A68D7F830319A4207D23B461B685B68D7F83021D31AA4
:404C4000013300E00123C7F848317EE0D7F84821D7F830319A4204D107F12403C7F8403107E03B461968D7F8480100F0FFF8C7F8400107F118031A683B461B689B69D31A8C
:404C80001B0A3A4612685268B3FBF2F102FB01F29B1AC7F82831D7F84031002B17D0D7F8403104331B68D7F840210832126807F1100407F11C0107F1200001920093D7F86F
:404CC0002831224600F056FAC7F8380104E0D7F838310133C7F83831D7F83831002B1ED107F1240207F120031B681344C7F8243107F110031A68D7F8403113440C33C7F8A8
:404D00004031D7F82401D7F8401107F11C031A6807F120031B68D31A1A4607F0ABFA3B461B681B7D002B0BD007F1240380338021184600F015F903461A4607F12403DA6754
:404D4000D7F848310133C7F84831D7F84821D7F830319A427FF67AAF07F1180318683B4607F124011A6800F063F9034687F84F3107F118031B68C7F840313B461B681B7DF4
:404D8000002B1BD097F84F31002B17D107F118031A683B461B689B69D21A3B461B681B681344C7F840313B4607F124011A68D7F8400100F03DF9034687F84F3197F84F3177
:404DC000002B12D107F118031A683B461B689A60D7F844310133C7F84431D7F84421D7F834319A42FFF4B2AE00E000BF97F84F31184607F5AA77BD4690BD00BF2649922472
:404E000080B487B000AF786039600023BB6000237B613B689B69FB607B68FA681A6000233B6115E0FB681B68BB60BB68002B08D0BA687B699A4204D9BB687B617B68FA680B
:404E40001A60FB6803F58073FB603B6901333B613B685B683A68126902FB03F23B699A42E0D800BF1C37BD4680BC704780B485B000AF786039603B689B69FB600BE0FB680D
:404E800003F58073FB603B681A68FB689A4202D80023FB6004E0FB681A687B689A42EED1FB6818461437BD4680BC704780B485B000AFF860B9607A603B60FB68002B05D046
:404EC000BB681B6803F58072BB681A60BB681A683B681B689A4203D33B689A69BB681A607B6800221A603B685A68FB689A4231D83B681B69012B29D9BB681A683B685B6839
:404F00001B02D21A3B689B699A4216D23B689A693B6859683B681B6903F1FF1303F57F4303FB01F31B021A44BB6819683B689B69CB1A1A447B681A600CE0BB681A683B6880
:404F40005B681B02D21A7B681A6003E0BB681A687B681A6000BF1437BD4680BC704700BF80B485B000AF78603960FF23FB730023BB8121E0BB897A6813441A78FB7B5340D3
:404F8000FB730023BB7311E097F90F30002B06DAFB7B5B00DBB283F03103DBB202E0FB7B5B00DBB2FB73BB7B0133BB73BB7B072BEAD9BB890133BB81BA893B689A42D9D144
:404FC000FB7B18461437BD4680BC704780B487B000AF78600323FB757B68DB683B617B681B68DA097B681B6803F07F03002B01D0012300E0002313447A68526802FB03F325
:405000007A68127A013202FB03F31A023B691344FB603B69002B05D0FB68B3F5802F01D80023FB75FB7D18461C37BD4680BC704780B588B000AFF860B9607A600423FB7781
:40504000FB681B0ADBB2BB6100F024FCFB681B0C7B617B69DBB2BA6991B2BA68184600F02BFC386100F0AEFD3B69002B01D10023FB77FB7F18462037BD4680BD90B5C7B086
:4050800000AF07F10C04206007F108000160391D0A603A461360D7F828319B6907F10C021268D21AD7F828311B681344C7F8103107F10C031B687C331C6807F10C031B68C4
:4050C000803380211846FFF74BFF03469C4211D107F10803186807F10C023B1D12681B68134419463B461A6807F0C4F8002387F8173137E0D7F810317C331C68D7F8103117
:40510000803380211846FFF72BFF03469C4226D1D7F8101107F110034FF48072184607F0A9F807F1100107F10C03D7F828211868FFF77EFF034687F8173197F81731002B2C
:4051400010D107F1080318683B1D1B689B0007F11002D1183B461A6807F08CF802E0022387F8173197F81731184607F58E77BD4690BD00BF80B487B000AFF860B9607A606C
:405180003B6000237B617B6800221A603B68DA013B6A9A4208D83B680133DB015A1E3B6A9A4201D3012300E00023002B27D03B6A03F07F0303F18002FB681A603A6A7B6A38
:4051C0001A443B68DB019A420AD33A6A7B6A1A443B680133DB01013B9A4201D8012300E00023002B06D0FB681A687B6A1A44BB681A6036E0BB684FF480721A6031E03A6A04
:405200007B6A1A443B68DB019A420AD33A6A7B6A1A443B680133DB01013B9A4201D8012300E00023002B19D0FB6880221A60FB681A687B6A1A443B6A03F07F01FB681B6888
:40524000CB1A1A44BB681A60FB681A68BB681B68D21A7B6A1A447B681A6002E07B6901337B617B6918461C37BD4680BC704700BF80B5C8B000AF3B1D18603B1D1B689A680E
:4052800007F108031A6007F108031B681B68C7F81831012387F817310023C7F81C3153E007F108031B68194607F10C034FF48072184606F0DFFFD7F818310133C7F818316C
:4052C00007F10C03D7F818211A6007F10C03803380211846FFF744FE03461A4607F10C03DA6707F1080318683B1D07F10C011A68FFF79EFE034687F8173107F108031A68BA
:405300003B1D1B689B69D21A3B1D1B681B681344C7F810313B1D07F10C011A68D7F81001FFF786FE034687F817313B1D07F5867207F108011B68D7F81801FFF7B7FDD7F873
:405340001C310133C7F81C313B1D1B685B683A1D1268126902FB03F2D7F81C319A429FD897F81731184607F59077BD4680BD00BF80B483B000AF134B7F221A70124B802280
:405380001A707F23FB710CE0FB79DB0003F1804303F5F043FA79013AD2B21A70FB79013BFB71FB79002BEFD1FB79DB0003F1804303F5F04300221A7000BF0C37BD4680BCE3
:4053C000704700BF8981FF1F8881FF1F80B485B000AF03460A46FB711346BB710123FB60FB79172B2FD8BB79002B0ED0FB791A01184B1344FA791101164A0A441278D2B243
:4054000042F02002D2B21A700DE0FB791A01114B1344FA7911010F4A0A441278D2B222F02002D2B21A70FB791A010A4B1344FA791101084A0A441278D2B242F00102D2B238
:405440001A700023FB60FB6818461437BD4680BC704700BF1070004080B485B000AF0346FB710123FB60FB79172B1DD8FB791A01104B1344FA7911010E4A0A441279D2B231
:4054800042F00402D2B21A71FB791A01094B1344FA791101074A0A441278D2B242F00102D2B21A700023FB60FB6818461437BD4680BC70471070004080B485B000AF034655
:4054C0000A46FB711346BB710123FB60FB79172B1BD8FB791A01104B13441B78DBB223F00E03FB72FB791A010B4B1344BA795200D2B252B202F00E0251B297F90B200A43FB
:4055000052B2D2B21A700023FB60FB6818461437BD4680BC704700BF1070004080B485B000AF0346FB710B46BB8013467B800123FB60BB8841F6FF72934202D14FF4005305
:40554000BB807B8841F6FF72934202D14FF400537B80FB79172B17D8FB79DB0003F1804303F5EC430433BB60BB68BA881A80FB79DB0003F1804303F5EC430633BB60BB6845
:405580007A881A800023FB60FB6818461437BD4680BC704780B485B000AF03460A46FB711346BB710123FB60FB79172B07D8FB791A01064B1344BA795A720023FB60FB6802
:4055C00018461437BD4680BC704700BF1070004090B484B000AF0446084611461A462346FB710346BB710B467B7113463B710123FB60FB79172B34D8FB79DB0003F1804344
:4056000003F5EC43BA7902F07F02D1B27A79D201D2B20A43D2B21A70FB79DB0003F1804303F5EC433A7E1201D1B23A7902F00F02D2B20A43D2B25A70FB79DB0003F180431F
:4056400003F5EC433A7F02F00F02D2B29A70FB79DB0003F1804303F5EC430022DA700023FB60FB6818461037BD4690BC704700BF80B582B000AFFF23FB7104F0A5FE034651
:40568000BB71104B1B78182B12D90F4B1B78FB710C4B1B78013BDAB20A4B1A70FB79DB0003F1804303F5F0431B78DAB2064B1A70BB79184604F08CFEFB7918460837BD4669
:4056C00080BD00BF8881FF1F8981FF1F90B484B000AF0446084611461A462346FB710346BB800B46BB711346FB700123FB6097F90730002B23DBBB8823F47F6323F00F037F
:405700009BB2002B1BD1FB79DB0003F1804303F5F043BB60BB68BA881A80FB79DB0003F1804303F5F043BA799A70FB79DB0003F1804303F5F043FA78DA700023FB60FB687E
:4057400018461037BD4690BC704700BF80B485B000AF0346FB710B46BB8013467B800123FB6097F90730002B17DBFB79DB0003F1804303F5F0430433BB60BB68BA881A802D
:40578000FB79DB0003F1804303F5F0430633BB60BB687A881A800023FB60FB6818461437BD4680BC704700BF80B582B000AF00F0E5FA4FF0FF337B6000F07AFC0346002B5B
:4057C00024D1012000F042FC0346072B1BD10221124800F0F7FA0346022B0DD100237B6002E0012000F0DAF90D4B1B78DBB203F00203002BF5D006E0094B1B78DBB203F0DB
:405800000203002BE3D000F087FC01E004237B607B6818460837BD4680BD00BFCCD2FF1F2247004080B582B000AF00F0A7FA00F03FFC0346002B23D100F096FC78607B68D4
:40584000072B1AD102E0012000F0A8F9104B1B78DBB203F00203002BF5D00D4B1B78DBB203F00203002B08D0094B1B78DBB29B08DBB2002B01D100237B6000F04DFC01E0E8
:4058800004237B607B6818460837BD4680BD00BF2247004080B582B000AFFFF7C3FF78607B68002B02D1FFF77FFF78607B6818460837BD4680BD00BF80B584B000AF03460B
:4058C0003A60FB710B46BB80FB793F2B01D9102301E04FF48073FB81FB89B988F8793A6800F006F8B860BB6818461037BD4680BD80B586B000AFBA601A460346FB730B4616
:40590000BB811346FB8000237B61FB7B3F2B04D8FB7B042B01D901237B6197F90F30002B01DA01237B61FB7B3F2B04D9FB7B412B01D901237B61FB7B3F2B06D8BB89B3F525
:40594000807F0CD901237B6109E0BB89802B01D901237B61FB88102B01D001237B61BB68002B01D101237B617B69002B60D100F09FFB0346002B59D1FB88B989F87BBA6820
:4059800000F0B2FA78617B69072B4CD102E0012000F004F9294B1B78DBB203F00203002BF5D0264B1B78DBB203F00203002B09D0224B1B78DBB29B08DBB2002B02D1002368
:4059C0007B6102E04FF0FF337B617B69002B2AD11B4B1A781A4B5B78B989F87B00F0EAFA78617B69072B1ED102E0012000F0D6F8124B1B78DBB203F00203002BF5D00F4B7B
:405A00001B78DBB203F00203002B09D00B4B1B78DBB29B08DBB2002B02D100237B6102E04FF0FF337B6100F077FB01E004237B617B6918461837BD4680BD00BF22470040F9
:405A4000CCD2FF1F80B582B000AF04F0BDFC0346FB71194A184B1B78DBB243F00803DBB21370164A154B1B78DBB243F00803DBB21370134BC8221A70124A124B1B78DBB2E5
:405A800043F01003DBB213700F4A0F4B1B78DBB243F01003DBB2137000BF0C4B1B78DBB203F02003002BF8D0FB79184604F090FC00BF0837BD4680BDA0430040B043004042
:405AC00001470040AC430040BC4300400047004080B400AF094A094B1B78DBB243F00103DBB2137000BF054B1B78DBB203F00203002BF8D000BFBD4680BC704702470040E0
:405B000080B400AF054A054B1B78DBB223F00103DBB2137000BFBD4680BC70470247004080B483B000AF0346FB7101BE00BF0C37BD4680BC704700BF80B400AF054A054B9B
:405B40001B78DBB243F00103DBB2137000BFBD4680BC7047F646004080B582B000AF786008E00C4B1B68184604F026FC7B68A3F500437B607B68B3F5004FF2D8064B1B6858
:405B80007A6802FB03F3184604F016FC00BF0837BD4680BD9C81FF1F9481FF1F80B582B000AF0346FB80FB88054A127802FB03F3184604F001FC00BF0837BD4680BD00BF8B
:405BC0009881FF1F80B582B000AF04F0FDFB0346FB7100BF00BF00BF00BF00BF00BF00BF00BF00BF00BF00BF00BF00BF00BF00BF00BF0A4A094B1B889BB243F004039BB2A8
:405C00001380064B1B88BFF36F8FFB79184604F0DFFB00BF0837BD4680BD00BF0048004080B584B000AF03463960FB710F4B1B68FB60FB791F2B02D90020FFF771FFFB79D7
:405C400003F01F0310339B00FA6813441B68BB60FB7903F01F0310339B00FA6813443A681A60BB6818461037BD4680BD08ED00E080B582B000AF03460A46FB711346BB7121
:405C8000BB79072B02D90020FFF74AFFFB791F2B02D90020FFF744FFFB7903F01F0303F1604303F56443BA795201D2B21A7000BF0837BD4680BD00BF80B483B000AF786014
:405CC000264B1B78DBB21A467B681A60244B1B78DBB21B027A6812681A437B681A60214B1B78DBB21B047A6812681A437B681A601D4B1B78DBB21B067A6812681A437B688E
:405D00001A607B680433194A1278D2B21A60184B1B78DBB21A027B6804337968043109680A431A60134B1B78DBB21A047B6804337968043109680A431A600F4B1B78DBB25F
:405D40001A067B6804337968043109680A431A6000BF0C37BD4680BC704700BF0301004904010049EC460040020100490101004900010049050100490601004980B582B0F0
:405D800000AF04F021FB0346FB710C4A0B4B1B78DBB243F00803DBB21370094A084B1B78DBB243F00803DBB21370FB79184604F00FFB00BF0837BD4680BD00BFA043004051
:405DC000B043004080B584B000AF78600B46FB700023FB7313E00120FFF7E0FE0C4B1B78DBB203F00103002BF5D0FB7B7A681344084A1278D2B21A70FB7B0133FB73FA7BC7
:405E0000FB789A42EAD3FB7B18461037BD4680BD224700402047004080B485B000AF3A601A460346FB710B46BB801346BB710723FB60FB793E2B02D8BB791F2B05D9FB79C7
:405E40003F2B45D9BB790F2B42D8254B1B78DBB203F00203002B38D0224BB6221A70214BD4221A701F4B01221A701D4B1B78DBB203F00203002B25D11A4AFB791370194A26
:405E8000BB881B0A9BB2DBB203F00103DBB21370144BBA88D2B21A70124ABB79013BDBB213700023FB7208E00E49FB7A3A6813441B780B70FB7A0133FB72FA7ABB799A4229
:405EC000F2D307E00923FB6004E00423FB6001E00123FB60FB6818461437BD4680BC7047224700402047004080B489B000AFBA601A460346FB730B46BB811346FB8007237F
:405F0000FB612A4B1B78DBB203F00203002B45D0274BB6221A70264BD5221A70244B02221A70224B1B78DBB203F00203002B32D11F4AFB7B137000237B8308E01C497B8BCC
:405F4000BA6813441B780B707B8B01337B837A8BFB889A42F2D3FB88B3F5807F20D1FB7B3F2B1DD8FB7B03F510331A02BB8913445B017B6100237B8309E00D497A8B7B6960
:405F800013441B78DBB20B707B8B01337B837B8B1F2BF2D904E00923FB6101E00423FB61FB6918462437BD4680BC7047224700402047004090B484B000AF04460846114653
:405FC0001A462346FB710346BB800B46BB711346FB700723FB601B4B1B78DBB203F00203002B26D0184BB6221A70174BD8221A70154B05221A70134B1B78DBB203F0020351
:40600000002B13D1104AFB7913700F4ABB881B0A9BB2DBB213700C4BBA88D2B21A700A4ABB791370084AFB78137004E00923FB6001E00423FB60FB6818461037BD4690BCC3
:40604000704700BF224700402047004080B485B000AF0346FB710723FB60134B1B78DBB203F00203002B16D0104BB6221A700F4BE1221A700D4B0E221A700B4B1B78DBB255
:4060800003F00203002B03D1084AFB79137004E00923FB6001E00423FB60FB6818461437BD4680BC704700BF224700402047004080B582B000AF04237B6004F085F90346EE
:4060C000FB70124B1B78002B16D1104B01221A7000237B600E4B1B6803F00103002B0BD00B4A0B4B1B6823F00103136000BF00BF00BF084B01221A60FB78184604F068F949
:406100007B6818460837BD4680BD00BF8083FF1F040008408483FF1F80B582B000AF04F053F90346FB710D4B00221A700C4B1B68012B0BD10B4A0B4B1B6843F00103136085
:4061400000BF00BF00BF064B00221A60FB79184604F03EF900BF0837BD4680BD8083FF1F8483FF1F0400084080B483B000AF07237B600C4B1B78DBB203F00203002B09D09A
:40618000094BB6221A70084BE0221A70064B0D221A7001E004237B607B6818460C37BD4680BC7047224700402047004080B500AF084B0F221A7000F095F800F063F800F0E9
:4061C0006FF8054B02221A70044B20221A7000BF80BD00BF86650040816400408264004080B582B000AF04F0EFF80346FB71134A124B1B78DBB243F02003DBB21370104AAE
:406200000F4B1B78DBB243F01003DBB213700D4A0C4B1B78DBB243F01003DBB21370FB79184604F0D5F800F08DF800F01FF800F023F800BF0837BD4680BD00BF9665004018
:40624000916400409264004080B500AF064B1B78002B04D1FFF7AAFF034B01221A70FFF7BFFF00BF80BD00BF8883FF1F80B400AF00BFBD4680BC704780B400AF00BFBD467C
:4062800080BC704780B483B000AF044B1B78FB71FB7918460C37BD4680BC70476164004080B483B000AF044B1B78FB71FB7918460C37BD4680BC70476264004080B400AF1F
:4062C00001E0064B1B78064B1B78DBB203F02003002BF6D100BFBD4680BC7047526400406264004080B582B000AF01E0124B1B78124B1B78DBB203F02003002BF6D104F04F
:4063000063F80346FB710E4A0D4B1B78DBB243F00103DBB213700A4A094B1B78DBB223F00103DBB21370FB79184604F051F800BF0837BD4680BD00BF52640040626400403F
:406340009264004080B400AF094A094B1B78DBB243F00203DBB21370064A064B1B78DBB243F00203DBB2137000BFBD4680BC7047A2430040B243004080B500AF144B022276
:406380001A70144B81221A70134B08221A70134B0D221A70124B00221A70124B4FF400421A6002210F20FFF763FC0F490F20FFF737FC0E4B10221A700D4B00221A700D4B71
:4063C00000221A700C4B00221A7000BF80BD00BFD6490040C8490040CA490040DB490040DC49004080E100E085650000CED2FF1FD2D2FF1FD4D2FF1FD0D2FF1F80B582B0D1
:4064000000AF03F0E1FF0346FB710C4A0B4B1B78DBB243F00403DBB21370094A084B1B78DBB243F00403DBB21370FB79184603F0CFFF00BF0837BD4680BD00BFA543004047
:40644000B543004080B500AF084B1B78002B04D1FFF792FF054B01221A70FFF7CFFF044B4FF400421A6000BF80BD00BF8983FF1F00E100E080B582B000AF384B4FF40042C0
:406480001A60374B1B78DAB2364BDA70364B1B78DAB2344B1A71354B1B78DAB2314B5A71324B1B78DBB29BB21B029AB22E4B1B78DBB29BB213439BB20133FB802C4A2C4BEE
:4064C0001B78DBB223F00103DBB21370FB88184603F072FF03F078FF03467B71254A254B1B78DBB223F00403DBB21370224A224B1B78DBB223F00403DBB213707B791846D3
:4065000003F066FF1A4A1A4B1B78DBB243F00203DBB21370124B134AD2781A70104B114AD2781A70104B0F4A12791A700F4B0D4A52791A700E4A0E4B1B78DBB223F01003F4
:40654000DBB213700D4B4FF400421A600C4B10221A7000BF0837BD4680BD00BF80E100E0CA490040A081FF1FDB490040DC490040D6490040A5430040B543004080E200E007
:40658000CED2FF1F80B582B000AFA74B1B78FB71A64B1B78DBB203F04003DBB2002B00F0A981FB7903F00103002B00F080819F4B1B78DBB2453B052B00F2758101A252F8E7
:4065C00023F000BFDD65000003670000A7680000A7680000DD650000EF670000FB7923F02003FB71FB7903F00A03DBB2082B46D18E4B1B78DBB2452B3AD18D4B1B78DBB29A
:40660000002B0FD08B4A8C4B1B681B78DBB21370854B04221A70894B01221A70834B46221A7044E1864B1B78DBB203F00203002B0FD0844B1B78DBB243F00A03DAB2814B1E
:406640001A707A4B60221A707F4B4FF400421A602DE17E4A7D4B1B78DBB243F01003DBB213707B4B10221A706F4B04221A701EE16D4B00221A706D4B4A221A7017E1FB7979
:4066800003F00A03DBB20A2B37D16E4B1B78DBB263F05F03DAB26B4B1A70694B1B78DBB203F00203002B19D0604B1B78DBB203F00803002B01D0092300E00A23DAB2614BA0
:4066C0001B78DBB21343DAB25E4B1A70574B60221A705D4B4FF400421A60E8E05B4A5B4B1B78DBB243F01003DBB21370584B10221A704D4B04221A70D9E00020FFF710FA07
:40670000D5E0FB7903F00203002B42D14B4B1B78DAB2474B1B78DBB29A4214D2454A464B1B6846490978C9B20B441B78DBB213703D4B04221A70414B1B78DBB20133DAB20D
:406740003E4B1A70B3E03E4B1B78DBB203F00203002B0FD03B4B1B78DBB243F00A03DAB2384B1A70314B60221A70374B4FF400421A609CE0354A354B1B78DBB243F010035F
:40678000DBB21370324B10221A70274B04221A708DE02B4B1B78DBB203F00203002B0FD0284B1B78DBB263F06503DAB2254B1A701E4B60221A70244B4FF400421A6076E05C
:4067C000224A224B1B78DBB243F01003DBB213701F4B10221A70144B04221A70194B1B78DBB263F06F03DAB2164B1A705FE0194B1B68194A1278D2B213440E4A1278D2B201
:406800001A70154B1B78DBB20133DAB2124B1A70114B1B78DAB2114B1B78DBB29A421FD2014B10221A7042E0D7490040CED2FF1FD3D2FF1FD8490040D8D2FF1FD0D2FF1FEF
:40684000D1D2FF1FD2D2FF1F80E100E0D6490040D9490040DCD2FF1FD4D2FF1FE0D2FF1F2C4B1B78DBB203F00203002B0FD02A4B1B78DBB243F00903DAB2274B1A70274BCC
:4068800060221A70264B4FF400421A600FE0254A244B1B78DBB243F01003DBB21370224B00221A7003E00020FFF73AF900BFFB7903F02003002B28D0184B1B78DBB203F0F2
:4068C0000803002B01D0012300E00223DAB2124B1B78DBB21343DAB20F4B1A70114A114B1B78DBB223F01003DBB213700B4B10221A700AE0094B1B78DBB203F01003DBB289
:40690000002B02D1054B10221A7000BF0837BD4680BD00BFD1D2FF1FD2D2FF1FCED2FF1F80E100E0D6490040D749004080B485B000AF396011461A460346FB710B46BB7175
:4069400013467B710223FB733B68002B56D02E4B1B78DBB2102B0CD12C4B1B78DBB203F00803002B02D10023FB7315E00123FB7312E0254B1B78DBB2602B0DD10023FB7373
:40698000234B4FF400421A60224B1B78DBB223F00803DAB21F4B1A70FB7B002B2ED11A4B45221A701C4B00221A701C4ABB7913701B4A3B6813601B4A7B791370154B1B78CF
:4069C000DBB223F00203DAB2124B1A70164AFB795B00DBB213707B7903F00103002B06D00A4B12221A70114B04221A7002E0074B01221A700E4B4FF400421A60FB7B184628
:406A00001437BD4680BC7047CED2FF1FD949004080E200E0D2D2FF1FD0D2FF1FD3D2FF1FD8D2FF1FD1D2FF1FD8490040D749004000E100E080B485B000AF396011461A46FB
:406A40000346FB710B46BB7113467B710223FB733B68002B59D0304B1B78DBB2102B0CD12E4B1B78DBB203F00803002B02D10023FB7315E00123FB7312E0274B1B78DBB231
:406A8000602B0DD10023FB73254B4FF400421A60244B1B78DBB223F00803DAB2214B1A70FB7B002B31D11C4B49221A701E4B00221A701E4ABB7913701D4A3B6813601D4A27
:406AC0007B791370174B1B78DBB223F00103DAB2144B1A70184AFB795B00DBB243F00103DBB213707B7903F00103002B06D00B4B12221A70114B04221A7002E0074B0122A9
:406B00001A700F4B4FF400421A60FB7B18461437BD4680BC704700BFCED2FF1FD949004080E200E0D2D2FF1FD4D2FF1FE0D2FF1FDCD2FF1FD1D2FF1FD8490040D749004098
:406B400000E100E080B483B000AF0E4B4FF400421A600D4B1B78FB710C4B1B78DBB203F04003DBB2002B03D0FB7943F00403FB71074B4FF400421A60FB7918460C37BD46D4
:406B800080BC704780E100E0D2D2FF1FCED2FF1F00E100E080B483B000AF0A4B4FF400421A60094B1B78FB71074B00221A70074B4FF400421A60FB7918460C37BD4680BC00
:406BC000704700BF80E100E0D2D2FF1F00E100E080B400AF054B1B78DBB203F020035B09DBB21846BD4680BC704700BF5151004080B400AF054B1B78DBB203F010031B098F
:406C0000DBB21846BD4680BC704700BF5151004080B400AF054B1B78DBB203F08003DB09DBB21846BD4680BC704700BF1151004080B400AF054B1B78DBB203F040039B09B6
:406C4000DBB21846BD4680BC704700BF1151004080B500AF41F6FF734FF480420121022000F0FCF903461A460A4B1A7041F6FF7341F6FF720121082000F022FA03461A463F
:406C8000054B1A70054800F04DFA002000F05CFA00BF80BD9083FF1F9183FF1F456E000080B582B000AF414B1B781846FEF7D4FB3F4B1B781846FEF7CFFB3E4B1B78FF2B27
:406CC00005D1FEF7D5FC03461A463A4B1A70394B1878384B1A7806230821FEF7F7FC354B1B78354A92B245F6A0311846FEF72EFD2E4B1A782F4B1B7819461046FEF74AFC75
:406D00002E4B1B78FF2B05D1FEF7B2FC03461A462A4B1A70294B1878284B1A7807230821FEF7D4FC254B1B78234A91B2244A92B21846FEF70BFD1E4B1A78204B1B781946C3
:406D40001046FEF727FC194B1B7801211846FEF73DFB174B1B7801211846FEF737FB03F033FB0346FB71174A164B1B78DBB243F02003DBB21370FB79184603F029FB124A02
:406D8000114B1B78DBB243F00103DBB213700E4A0D4B1B78DBB243F00203DBB213700B4B01221A6000BF0837BD4680BD9083FF1F9183FF1FA681FF1F9483FF1FA781FF1FA4
:406DC000E4D2FF1F966400407765004080E200E080B500AF084B1B68002B04D1FFF738FF054B01221A6000F033F8FFF759FF034B1B7800BF80BD00BF8C83FF1F6964004014
:406E000080B500AF00F0D8F800BF80BD80B483B000AF0346FB80FB88C3F10303074A32F913309AB2064B1B881BB29BB2D31A9BB21BB218460C37BD4680BC7047E4D2FF1F10
:406E4000F4D2FF1F80B400AF00BFBD4680BC704780B500AF064B1B78002B04D100F00AF8034B01221A7000F01BF800BF80BD00BF9C83FF1F80B500AF074A074B1B78DBB23F
:406E800043F00603DBB213700C2000F06BF8034B00221A8000BF80BD01590040EED2FF1F80B582B000AF03F08FFA0346FB71254A244B1B78DBB243F00103DBB21370224A91
:406EC000214B1B78DBB243F00103DBB213701F4B1B78BB71BB7943F00203BB71BB7943F00103BB71194ABB791370194B04221A70184A184B1B78DBB243F04003DBB21370CE
:406F0000144A144B1B78DBB223F00303DBB21370114BC8221A70114B02221A70104A104B1B78DBB243F00803DBB213700A20FEF735FEFB79184603F04BFA00BF0837BD46F1
:406F400080BD00BFAB430040BB4300400359004006590040055900400059004014460040275B004080B584B000AF0346FB71FB790A2B07D00C2B02D0082B06D008E0C423AD
:406F8000FB730BE08423FB7308E04423FB7305E0C423FB730020FEF7C3FD00BF054AFB7B1370FB79184600F017F800BF1037BD4680BD00BF0259004080B400AF054A054B9D
:406FC0001B78DBB243F00103DBB2137000BFBD4680BC70470059004080B584B000AF0346FB71FB790A2B08D00C2B02D0082B08D00BE04FF48053FB600DE04FF48063FB60B0
:4070000009E04FF48073FB6005E00023FB600020FEF786FD00BF0D4B00221A80FB6842F2107202FB03F303F27263094A82FB03121A44D212DB17D31A064A1360064B0022F6
:407040001A8000BF1037BD4680BD00BFECD2FF1FEF09E09EF0D2FF1FF4D2FF1F90B585B002AF0446084611461A462346FB710346BB710B46BB8013467B80104B05221A70AB
:407080000E4B1878BA79F97900230193002300930523FEF79DFA094B1B787A88B9881846FEF73CFA054B1B7803211846FEF704FA024B1B7818460C37BD4690BDA881FF1FFE
:4070C00090B585B002AF0446084611461A462346FB710346BB710B46BB8013467B80104B04221A700E4B1878BA79F97900230193002300930423FEF76BFA094B1B787A887C
:40710000B9881846FEF70AFA054B1B7803211846FEF7D2F9024B1B7818460C37BD4690BDA981FF1F80B485B000AF7860054B1B68FB60FB6840337A681A6000BF1437BD461C
:4071400080BC704708ED00E080B483B000AF0346FB71054AFB795B01DBB2137000BF0C37BD4680BC704700BF00E400E080B500AF084B07221A7000F083F800F051F800F054
:407180005DF8054B00221A70044B08221A7000BF80BD00BF886500408F6400408465004080B582B000AF03F00FF90346FB71104A0F4B1B78DBB243F02003DBB213700D4AE0
:4071C0000C4B1B78DBB243F01003DBB213700A4A094B1B78DBB243F01003DBB21370FB79184603F0F5F800BF0837BD4680BD00BF986500409F6400409465004080B500AF58
:40720000064B1B78002B04D1FFF7B0FF034B01221A70FFF7C5FF00BF80BD00BF9D83FF1F80B483B000AF044B1B78FB71FB7918460C37BD4680BC70476F64004080B483B02E
