:4000000000800020110000001D8E00001D8E000080B500AF024A034B1B68136008F032FFBC760040FA46004010B5054C237833B9044B13B10448AFF300800123237010BD88
:40004000E082FF1F00000000642B0100084B10B51BB108490848AFF300800848036803B910BD074B002BFBD0BDE81040184700BF00000000E482FF1F642B0100C880FF1FB0
:4000800000000000B0B584B000AFF860B9607A603B603968386A10F0E5FC03461C46B968F86810F0DFFC03461D46B968786810F0D9FC03461946284610F092FE0346194617
:4000C000204610F0D9FD03463968184610F0CCFC034618461037BD46B0BD00BF90B585B000AFF860B9607A60B968786810F0BAFC03461C46104B1B78184610F069FD0346C6
:400100001946F86810F0AEFC03461A460B4B1B681946104610F0B0FD03461946204610F0ABFD0346B968184610F09EFC034618461437BD4690BD00BFD080FF1FD881FF1F74
:4001400090B585B000AF0023FB606EE03A4AFB6832F81330184610F037FD0446374AFB6832F81330184610F02FFD03461946204610F078FC0346BB60314B1B78184610F02C
:4001800023FD03462F49184610F076FD0346B968184610F071FD03467B60284AFB6832F81330184610F010FD03467968184610F05BFC0346184610F061FF034699B2224AA0
:4001C000FB6822F813101C4AFB6832F81330184610F0FAFC03467968184610F043FC0346184610F04BFF034699B2184AFB6822F81310164AFB6832F813301946124AFB6839
:4002000032F81330CB1A184610F0E2FC0346BB60B9680F4810F0E4FD034619460D4AFB6842F82310FB680133FB60FB68092B8DDD00BF1437BD4690BD1881FF1F0481FF1FFD
:400240005481FF1F6F12033B2C81FF1F4081FF1F00F07F4540A7FF1F80B500AF1C4B5B781A461B4B1B78D31A184610F0B1FC0246184B1A60174B1B684FF00001184610F052
:400280008FFE0346002B11D0114B02221A70104B07225A700E4B5B781A460D4B1B78D31A184610F095FC02460A4B1A600A4B1B78002B0AD1074B1B6819464FF07E5010F06B
:4002C0008FFD03461A46034B1A6000BF80BD00BFD080FF1FD881FF1FA083FF1F80B582B000AF78600849786810F0C6FC034618460EF0B0FE03460549184610F0BDFC0346F5
:4003000018460837BD4680BDD27EFA3DAC7F8A4180B500AF184B02221849002008F0B8FE03461A46164B1A700CF0D6F90346012B20D1124B1B78DBB2012B0CD1114B002200
:400340001A700D4B02220F49002009F027F80E4B01221A700EE00B4B01221A70064B02220849002009F01AF80BF0B4FF0AF03EFD0AF056F800BF80BD2CEAFF1F8483FF1F7F
:4003800000DEFF1F8883FF1F5D83FF1F80B500AF0BF00AFE0DF0F8FFFFF7BAFF00BF80BD80B500AF214B1B78DBB2002B0CBF01230023DBB21A461D4B1A700BF063FD1C4B46
:4003C0001B78184609F0BCFC184B1B78DBB21A46184B985C0223FE22082109F0EBFD134B1B78DBB21A46134B985C104B1B78DBB2DB00114A13449BB21A4646F2555109F016
:4004000019FE0B4B1A78094B1B78DBB21946094B5B5C1946104609F031FD054B1B780121184609F047FC00BF80BD00BF7183FF1F80AFFF1FA0B9FF1F60DFFF1F80B582B00F
:4004400000AF4F4B1B78DBB2002B0CBF01230023DBB21A464A4B1A70494B1B78DBB2002B0CBF01230023DBB2464A5B0113441B78DBB2FE2B49D1424B1B78DBB2002B0CBF03
:4004800001230023DBB23F4A5B0113441F331B78DBB2FD2B39D100237B6030E0384B1B78DBB2002B0CBF01230023DBB21A467B685B000133334952010A4413441B78DBB2A7
:4004C0009BB21B029AB22E4B1B78DBB2002B0CBF01230023DBB219467B6801335B002948490101440B441B78DBB29BB2134499B2254A7B6822F813107B6801337B60234BC5
:400500001B781A467B689A42C8DC0BF001FC204B1B78184609F014FC194B1B78DBB21A461C4B985C0223FE22202109F043FD144B1B78DBB21A46174B985C114B1B78DBB259
:400540005B01104A13449BB21A4646F2574109F071FD0F4B1A780A4B1B78DBB219460D4B5B5C1946104609F089FC094B1B780121184609F09FFB00BF0837BD4680BD00BF91
:400580007083FF1FC0B9FF1F28A7FF1FD280FF1FACB9FF1FA884FF1F80B500AF40F2D67100200EF027F940F2E37100200EF022F94FF4FB6100200EF01DF940F2D9710020A0
:4005C0000EF018F940F2DF7101200EF013F940F2DC7100200EF00EF940F2DE7100200EF009F940F2DB7140200EF004F940F2DA7100200EF0FFF840F2D77127200EF0FAF8DE
:4006000040F2E27100200EF0F5F840F2E47140200EF0F0F800BF80BDB0B5BAB002AF62B60EF0E2F8C74B18460DF080FE03461A46C54B1A70C54B1B781946C54B002243F854
:4006400021200AF0BDFB01200CF026F8C1480BF05DFCC14B40221A7000220121702002F0C7FB03461A46BD4B1A604021802004F08FFE002004F0AEFE4021802004F0D2FE3D
:40068000002300220C21B64804F04EFFB5480123009310230222032104F0F6FF4021802004F0E4FEAC4B04221A7000220121702002F09EFB03461A46A84B1A600A2009F05B
:4006C000BFFE00200EF020F90346002B01D1FFF763FF40F2D6700EF017F903461A46A24B1A7040F2E3700EF00FF903461A469F4B1A709E4B1B785B09DAB29D4B1A709B4B56
:400700001B789B08DBB203F00703DAB2984B5A70964B1B7803F00103DAB2964B1A704FF4FB600EF0F1F803465AB2934B1A7040F2D9700EF0E9F803465AB2904B1A708E4B2F
:4007400093F90030184610F043FA04468B4B93F90030184610F03CFA03468949184610F08BFA03461946204610F07EF903461A46844B1A6040F2DF700EF0C6F8034603F0C4
:400780000103DAB2804B1A7040F2DF700EF0BCF8034603F00203DAB27C4B1A7040F2DF700EF0B2F8034603F00403DAB2784B1A70774B1B781A46774B53F82230764A136077
:4007C00040F2DC700EF0A0F803461A46734B1A7040F2DD700EF098F803461A466F4B5A7040F2DE700EF090F8034603F00103DAB26B4B1A7040F2DB700EF086F803461A4606
:40080000684B1A7040F2DA700EF07EF803461A46654B1A7040F2D7700EF076F803461B09DAB2624B1A7040F2D7700EF06DF8034603F00F03DAB25D4B5A70FFF70DFD40F239
:40084000E2700EF061F8034603F00103DAB2584B1A7040F2E4700EF057F803465AB2554B1A704FF4FC600EF04FF803469BB21B029CB240F2E1700EF047F803469BB22344E2
:40088000A7F84E300023C7F8DC3016E0B7F84E305AB20121D7F8DC3001FA03F35BB213405BB2D9B2444AD7F8DC3013440A461A70D7F8DC300133C7F8DC30D7F8DC30092B95
:4008C000E4DD0023C7F8D830F5E00023C7F8D43025E0D7F8D8309BB21A4612011A44D20013445B009AB2D7F8D4309BB213449BB218460EF009F8034618463049D7F8D820C0
:4009000013469B0013445B00CA18D7F8D430134402461A70D7F8D4300133C7F8D430D7F8D430092BD5DD0023C7F8D030B9E0D7F8D02013465B001344DB00BB640023C7F88F
:40094000CC30A5E0002D010000DEFF1F1883FF1FA498FF1F8D03000050DEFF1F5CE0FF1F00310100E17A943FA683FF1FB683FF1FD880FF1FB583FF1F2683FF1F2783FF1F2A
:400980000AD7233C2883FF1F2E83FF1F2F83FF1F8283FF1FE080FF1FE880FF1FDC80FF1FB283FF1F5481FF1F3383FF1FD080FF1FA483FF1F2C83FF1FA883FF1F08DEFF1F07
:4009C000D7F8CC305B007B647B6C9AB2BB6C9BB213449AB2D7F8D8309BB2194609011944C9000B445B009BB213449BB20A339BB218460DF089FF0346A7F842307B6C9AB260
:400A0000BB6C9BB213449AB2D7F8D8309BB2194609011944C9000B445B009BB213449BB20B339BB218460DF06FFF0346A7F84030B7F842301A02B7F840301344184610F094
:400A4000C7F803464FF06E51184610F015F903464FF08641184610F005F803461C46CA48D7F8D030D7F8D8101A4652001A4493001A460B465B010B449B001A44D7F8CC3054
:400A8000134440F82340D7F8CC300133C7F8CC30D7F8CC300B2B93DDD7F8D0300133C7F8D030D7F8D0300A2B7FF741AFD7F8D8300133C7F8D830D7F8D830062B7FF705AFE9
:400AC0000023C7F8C83049E0D7F8C8309BB29B009BB203F27E739BB218460DF015FF03469BB21B029CB2D7F8C8309BB29B009BB203F27F739BB218460DF006FF03469BB22E
:400B0000234499B2A14AD7F8C83022F81310D7F8C83003F5F0739BB29B009BB218460DF0F3FE03469BB21B029CB2D7F8C8309BB29B009BB203F281739BB218460DF0E4FE01
:400B400003469BB2234499B2914AD7F8C83022F81310D7F8C8300133C7F8C830D7F8C830092BB1DDFFF7ECFA0023C7F8C4304AE0D7F8C4309BB29B009BB203F2A6739BB2E4
:400B800018460DF0C1FE03469BB21B029CB2D7F8C4309BB29B009BB203F2A7739BB218460DF0B2FE03469BB2234499B2794AD7F8C43022F81310D7F8C43003F5F5739BB240
:400BC0009B009BB218460DF09FFE03469BB21B029CB2D7F8C4309BB29B009BB203F2A9739BB218460DF090FE03469BB2234499B2684AD7F8C4300C3322F81310D7F8C430D9
:400C00000133C7F8C430D7F8C4300B2BB0DD0023C7F8C03080E00023C7F8BC3011E05E49D7F8C0201346DB009B1A5B00CA18D7F8BC301344FF221A70D7F8BC300133C7F86F
:400C4000BC30D7F8BC300D2BE9DD0023C7F8B83024E00023C7F8B43017E05048D7F8B830D7F8C0101A46D2001A440B46DB000B441B011344C218D7F8B4301344FF221A7049
:400C8000D7F8B4300133C7F8B430D7F8B430082BE3DDD7F8B8300133C7F8B830D7F8B8300F2BD6DD0023C7F8B03026E00023C7F8AC3019E03A48D7F8B030D7F8C0101A461F
:400CC00092001A4453001A460B469B000B44DB001344C218D7F8AC301344FF221A70D7F8AC300133C7F8AC30D7F8AC30092BE1DDD7F8B0300133C7F8B030D7F8B030032BE7
:400D0000D4DD284AD7F8C030134400221A70D7F8C0300133C7F8C030D7F8C0303F2B7FF77AAF00200DF05EFC01200DF079FC00200DF094FC00200DF0ADFC1B4B1B78184690
:400D40000DF032FC194B1B7818460DF0BDFC174B1B78002B0CBF01230023DBB218460DF0EFFC0AF0B9FC0AF0CFFC104B1B781A460F4B9A5C0F4B1A700A2009F061FB0023A0
:400D8000C7F8A83031E000BF3885FF1F0481FF1F1881FF1F4498FF1F1C94FF1F00BAFF1FB89CFF1FE8A6FF1FA483FF1FB583FF1FD880FF1F6483FF1FD7F8A830DBB2083354
:400DC000DAB29B4B1A7000220121722002F010F803461A46974B1A602021802004F022FBD7F8A8300133C7F8A830D7F8A830072BE2DD8F4B04221A7000220121702001F0D7
:400E0000F7FF03461A468B4B1A608B4B09221A70874B0F221A7000220121352001F0E8FF03461A46834B1A600AF044FF09F080FE0AF0FAFF01F0ECFE01F022FF7F480DF0F1
:400E400065FB7F480DF014FB7E4BFE229A777D4BFD22DA77784B00221A707B4B1B78DBB2002B01D002F054FA734B1B78DBB21A46764B13F81220764B1B789A4226D06E4B61
:400E80001B78DBB21A46714B13F812301A4601239340DAB2664B1A70674B1B78DBB21A466A4B13F81230052B04D101210C200AF0EDFD03E0012104200AF0E8FD00220121D4
:400EC000702001F095FF034687F83F305A4B1B78DBB21A465D4B13F812205D4B1A700A2009F0D0FA544B1B78DBB21A46574B13F81230052B1DD1504B1B78DBB21A46554B96
:400F00009B5C002B15D14C4B1B78DBB24F4A5B0013445B781A4601239340DAB2444B1A7000220121712001F063FF03461A46414B1A600A2009F0A6FA3F4B1B78DBB2092B60
:400F400000F2BE803C4B1B78DBB21A46414B9B5C002B40F0B580364B0E221A7002220121362001F045FF03461A46324B1A60314B1B68002B08D101220221362001F0A8FF44
:400F800003461A462B4B1A602A4B1B68002B40F09780294B1B78DBB21A462F4B1B78DBB29BB21B0299B22D4B23F812102A4B5B78D8B2214B1B78DBB219461A46274B33F87C
:400FC000122083B213449AB2244B23F81120244B1B78002B74D0184B1B78DBB21A461F4B33F81220144B1B78DBB219461D4B33F811309A4246D2104B1B78DBB2002B33D1C1
:401000000D4B1B78DBB21A46144B33F81230002B38D0094B1B78DBB21A46074B1B78DBB219460E4B33F811100E4B23F8121029E050DEFF1F5CE0FF1FA383FF1F3D040000C5
:40104000A1030000E0DFFF1F4E83FF1FEC80FF1FBC81FF1F9483FF1F0498FF1F70B1FF1FB883FF1F0481FF1FAD4B1B78DBB21A46AB4B1B78DBB21946AA4B33F81110AA4BCE
:4010800023F81210A64B1B78DBB21A46A54B33F81220A34B1B78DBB21946A44B33F811309A420DD99E4B1B78DBB21A469C4B1B78DBB219469B4B33F811109C4B23F8121086
:4010C000974B1B78DBB2092B40F0F980944B1B78DBB21A46964B9B5C002B40F06C81954B00221A7000221021352001F0F1FE03461A46914B1A60904B1B68002B40F05B81EA
:401100000023C7F8A4307EE0D7F8A430DAB28B4B1B781344BB71D7F8A4305B00884AD35CDBB29BB21B029AB2D7F8A4305B0001338349CB5CDBB29BB213449BB2C3F30B03D7
:40114000BB80BB881B099BB2C3F1FF039BB27B80BB797C4AD35C012B1BD1B7F90220BB79794931F9133004339A4208DCB7F90220BB79754931F91330043B9A423EDABB797D
:401180007A88D1B2714AD154BB796E4A0021D15434E0BB797A88D1B26C4AD1546C4B1B78002B26D0BB79BA7968498A5C5208D1B2684AD154BB79674AD25CBB796649CB5CB6
:4011C0009A4210D0D7F8A4305A1C5C4B1B7819460B465B000B44D018BB795E4AD35C0022194602F02BF8BB79BA795A49895C5A4AD154BB7954497A8821F81320D7F8A43083
:401200000133C7F8A430D7F8A430072B7FF77CAF524B1B78022B40F0CE80514B1B780833DAB2444B1A7000220121722001F0E0FD03461A46404B1A602021802004F028F93F
:40124000012004F0C7F8474B1A78474B1B789A4205D1464B1A78394B1B789A4202D0404B00221A70404B1B7819463D4B1B781A46324B1B7813441A46D2001A440B46DB0065
:401280000B441B0113443A4A13440921184604F0B1F92021802004F0E9F8314B1B780133DAB22F4B1A702E4B1B78072B40F283802A4B00221A702A4B00221A707BE0184B6F
:4012C0001B78DBB20A2B57D1154B1B78DBB21A46174B9B5C002B6ED1164B00221A70002202214F2001F0F4FD03461A46124B1A60114B1B68002B5ED1114B1B78DBB29BB2A9
:401300001B029AB21B4B1A800D4B5B78DBB29AB2184B1B8813449AB2164B1A804BE000BFA383FF1F70B1FF1F0481FF1F1881FF1F9483FF1F50DEFF1F5CE0FF1F2C84FF1F2C
:401340000498FF1FE093FF1FA893FF1F9C97FF1F2E83FF1F68A7FF1F2885FF1FB483FF1F8083FF1FBA83FF1FA683FF1FBB83FF1F00BAFF1F5681FF1F934B1B78DBB20B2B3C
:4013800019D1924B1B78002B06D04021802004F06DF88E4B00221A708D4B1B78012B0AD18B4B02221A708B4B1A788B4B1A708B4B1A788B4B1A70844B1B78DBB2092B00F258
:4013C000E880814B1B78DBB21A46864B33F812207D4B1B78DBB21946834B33F81130D31A9BB2BB87B7F93C30002B1CDD764B1B78DBB21C46B7F93C3018460FF0E9FB724B71
:401400001B78DBB21A46794B53F8223019460FF033FC034618460FF031FE03469AB2744B23F8142007E0684B1B78DBB21A46704B002123F81210644B1B78DBB21A466C4BAD
:4014400033F81230B3F5805F08D35F4B1B78DBB21A46674B40F6FF7123F812105A4B1B78DBB21A46634B9B5C002B11D0564B1B78DBB21A46544B1B78DBB219465C4B33F8F7
:401480001130C3F57F630F3399B2594B23F812104D4B1B78DBB21C464B4B1B78DBB21A46534B33F8123018460FF08EFB0346524918460FF0E1FB03461A46504B43F82420E2
:4014C000414B1B78DBB21C463F4B1B78DBB21A464B4B9B5C1A46464B33F8123018460FF073FB03464FF0765118460FF0C5FB034618460FF0C3FD0346DAB2424B1A55424BEE
:401500001B78002B36D0304B1B78DBB21A462E4B1B78DBB219463B4B5B5C5B08D9B23B4B9954294B1B78DBB21A46384B9A5C264B1B78DBB21946364B5B5C9A420ED0224B9A
:401540001B78DBB203F10E001F4B1B78DBB21A462E4B9B5C0122194601F070FE1A4B1B78DBB21A46184B1B78DBB21946274B595C274B9954144B1B78DBB21A46124B1B78F2
:40158000DBB219461A4B33F81110224B23F81210A3E0214B1B8818460FF016FB03461F4918460FF069FB034618460FF041FD03461AB21B4B1A801A4BB3F90030002B31DA02
:4015C000174B00221A8037E0A383FF1FB383FF1FB483FF1FA683FF1FBA83FF1F2C84FF1FBB83FF1F70B1FF1F2C81FF1F40A7FF1FC084FF1FA883FF1F01088039BC83FF1F24
:40160000CC81FF1F1C85FF1F2E83FF1F04E0FF1F24E0FF1FAC84FF1F5681FF1FC5F1803FAEB9FF1FA34BB3F90030B3F5805F03DBA04B40F6FF721A809F4B1B78002B4CD031
:401640009E4B1B78002B1DD19A4BB3F900305B111BB2DAB29A4B1A70994B1A78994B1B789A420AD0934BB3F900307B87944B1B78002219460D2001F0E1FD914B1A78914B48
:401680001A702AE08B4BB3F900208F4BB3F900309A421DD0874BB3F900305B111BB2DAB2874B1A70834BB3F90030DBB203F0200387F83930824B1B78002219460D2001F072
:4016C000BDFD97F8393000221946182001F0B6FD784BB3F900207C4B1A807C4B1B78DBB20133DAB2794B1A70784B1B78DBB20B2B02D9764B00221A70754B1B78DBB2002B8A
:401700000CBF01230023DBB2724ADB0013449B79DBB2FE2B40F00B826D4B1B78DBB2002B0CBF01230023DBB26A4ADB001344DB79DBB2FD2B40F0FB810023C7F8A030F1E1D4
:40174000634B1B78DBB2002B0CBF01230023DBB21A46D7F8A0305B005E49D2000A4413441B78DBB29BB21B029AB2594B1B78DBB2002B0CBF01230023DBB21946D7F8A030F7
:401780005B0001335348C90001440B441B78DBB29BB2134499B2504AD7F8A03022F813104D4AD7F8A03032F813309AB24B49D7F8A03031F813309BB29A4200F0A381484BBF
:4017C0001B78002B3CD0D7F8A02013465B00134403F12200404AD7F8A03032F813309BB203F07F030122194601F028FDD7F8A02013465B00134403F12100374AD7F8A030B0
:4018000032F813309BB2DB099BB203F07F030122194601F013FDD7F8A02013465B00134403F120002C4AD7F8A03032F813309BB29B0B9BB203F07F030122194601F0FEFC73
:40184000254AD7F8A03032F813309BB24FF6FF72934210D0204AD7F8A03032F8133099B22048D7F8A02013465B001344DB0003441B88994207D91C4AD7F8A0304FF07E51DF
:4018800042F82310EBE0144AD7F8A03032F8133099B21448D7F8A02013465B001344DB00034416331B88994240F2A0800023C7F89C3096E0AEB9FF1F2E83FF1F3B83FF1FB6
:4018C0007D83FF1F7E83FF1FA084FF1FA383FF1F7183FF1F60DFFF1F34E0FF1F04DEFF1F3083FF1F4498FF1FD4DFFF1FAB4AD7F8A03032F8133099B2A948D7F8A0201346C3
:401900005B0013449B00D7F89C20134430F81330994261D8A14AD7F8A03032F8133099B2D7F89C30581C9E4CD7F8A02013465B0013449B00034434F8133099424CD9974AF2
:40194000D7F8A03032F813309BB218460FF03CF904469349D7F8A02013465B0013449B00D7F89C20134431F8133018460FF02CF90546D7F89C30591C8948D7F8A02013463D
:401980005B0013449B000B4430F8133018460FF01BF9844AD7F89C3052F82310D7F89C300133804A52F8233000930B46024629462046FEF767FB01467B4AD7F8A03042F856
:4019C00023107A4B1B78002B48D00122D7F89C102C2001F033FC41E0D7F89C300133C7F89C30D7F89C300A2B80DD38E06B4AD7F8A03032F813309BB218460FF0E5F80446BD
:401A00006749D7F8A02013465B001344DB000B4414331B8818460FF0D7F805466049D7F8A02013465B001344DB000B4416331B8818460FF0C9F801465A4B9A6A594BDB6A81
:401A4000009313460A4629462046FEF71BFB0146554AD7F8A03042F8231000E000BF524AD7F8A03052F823304FF08D4118460FF003F9034618460FF001FB034699B24C4AAF
:401A8000D7F8A03022F81310484B1B78002B39D0D7F8A02013465B00134403F12800444AD7F8A03032F8133003F07F030122194601F0C4FBD7F8A02013465B00134403F16B
:401AC00027003B4AD7F8A03032F81330DB099BB203F07F030122194601F0B0FBD7F8A02013465B00134403F12600314AD7F8A03032F813309B0B9BB203F07F030122194645
:401B000001F09CFB254AD7F8A03032F8133099B2284AD7F8A03022F81310D7F8A0300133C7F8A030D7F8A030012B7FF709AE224B1B78002B2CD00023C7F8983021E01F4A74
:401B4000D7F8983032F813309AB21D49D7F8983031F813309BB29A4203D0D7F8980001F0CFFA164AD7F8983032F8133099B2144AD7F8983022F81310D7F898300133C7F824
:401B80009830104B1B781A46D7F898309A42D6DC03F00EFF0023C7F8943070E034E0FF1F4498FF1F8C81FF1FD4DFFF1F3083FF1FA484FF1F04DEFF1F2E83FF1F28A7FF1FF9
:401BC000D484FF1FD280FF1FD7F894309BB2184609F0A0FD03461B111BB2D9B2444AD7F8943013440A461A70D7F89430022B0CD03F4AD7F8943013441B78DB43D9B23C4A3B
:401C0000D7F8943013440A461A703A4B1B78002B30D0374AD7F8943013441B785B08D9B2354AD7F8943013440A461A70324AD7F8943013441A783149D7F894300B441B7887
:401C40009A420CD0D7F8943003F109002A4AD7F8943013441B780022194601F0EFFA264AD7F8943013441978244AD7F8943013440A461A70D7F894300133C7F89430D7F89A
:401C80009430032BA0DD0023C7F8903078E31C4B1B78002B3AD01B4B1B889BB24FF6FF72934214D0174B5B889BB24FF6FF7293420DD0D7F890000EF08BFF134B1968124BA7
:401CC0005B681A46FEF70AFAC7F88C0022E00D4B1B889BB24FF6FF72934204D00A4B1B68C7F88C3016E0084B5B68C7F88C3011E084B1FF1F2E83FF1F88B9FF1FA0DFFF1FEB
:401D0000A483FF1F34E0FF1FD4DFFF1FA34B1B68C7F88C304FF00003C7F88830A04B1B78002B40F078819F4B1B781A469E4913465B0113449B00D7F89020134451F82340F7
:401D4000984B1B781A46984913465B0113449B00D7F890201344303351F82320934B1B68194610460EF088FF0346194620460EF07BFE03461C468B4B1B781A468A49134680
:401D80005B0113449B00D7F8902013443C3351F82320864B5B68194610460EF06DFF0346194620460EF060FE03461C467D4B1B781A467D4913465B0113449B00D7F8902095
:401DC0001344483351F82320784B9B68194610460EF052FF0346194620460EF045FE03461C46704B1B781A466F4913465B0113449B00D7F890201344543351F823206B4B15
:401E0000DB68194610460EF037FF0346194620460EF02AFE03461C46624B1B781A46624913465B0113449B00D7F890201344603351F823205D4B1B69194610460EF01CFFB6
:401E40000346194620460EF00FFE03461C46554B1B781A46544913465B0113449B00D7F890201344783351F82320504B5B69194610460EF001FF0346194620460EF0F4FDAB
:401E800003461C46474B1B781A46474913465B0113449B00D7F8902013446C3351F82320424B9B69194610460EF0E6FE0346194620460EF0D9FD03461C463A4B1B781A468D
:401EC000394913465B0113449B00D7F890201344243351F82320354BDB69194610460EF0CBFE0346194620460EF0BEFD03461C462C4B1B781A462C4913465B0113449B00C8
:401F0000D7F8902013440C3351F82320274B1B6A194610460EF0B0FE0346194620460EF0A3FD03461C461F4B1B781A461E4913465B0113449B00D7F890201344183351F87C
:401F400023201A4B5B6A194610460EF095FE0346194620460EF088FD03461A46144B1B68194610460EF080FD0346C7F88830D7F89030002B40F0BB804FF08841D7F888001E
:401F80000EF07AFE034618460FF078F80346FB86084B1B78002B00F0AA800DE0D4DFFF1FB283FF1F6483FF1F3885FF1FBC83FF1F2883FF1F3083FF1FD7F8902013465B0085
:401FC000134403F12F00FB8E03F07F030122194601F034F9D7F8902013465B00134403F12E00FB8EDB099BB203F07F030122194601F024F9D7F8902013465B00134403F1E0
:402000002D00FB8E9B0B9BB203F07F030122194601F014F96BE04FF00003C7F884304FF00003C7F880300023FB6739E05F4B1B7818465F4AFB6F13441B785E491A465200C2
:402040001A4493001A4603465B0103449B001A44D7F89030134451F82300574AFB6F52F8233019460EF008FE03463B63D7F88410386B0EF0BDFF0346002B03D03B6BC7F87A
:4020800084300AE0D7F88010386B0EF093FF0346002B02D03B6BC7F88030FB6F0133FB67FB6F092BC2DD414B1B781A46414913465B0113449B00D7F89020134451F8233036
:4020C000FB62D7F88010D7F884000EF0CDFC0346F96A18460EF0C8FC03461A46374B1B68194610460EF0C0FC0346C7F888302F4B1B781A462F4913465B0113449B00D7F806
:402100009020134451F82330BB62B86A0EF090FF01462B4AD7F8903042F823102949D7F88C000EF0A9FD03461846FEF7D7F80346254918460EF096FC03467B62D7F8903042
:40214000002B0DD14FF08841786A0EF095FD034618460EF093FF03469AB21C4B1A804DE0D7F89030052B35D1194B1B78002B45D04FF08641786A0EF07FFD034618460EF0DF
:402180007DFF03469BB218460EF01EFD03463B620F4B1B78002B31D0386A0EF06FFF03460C21184601F07EF828E000BF6483FF1FC081FF1F3885FF1FBC83FF1F2883FF1F22
:4021C00070DFFF1F00005C4200000442DCDFFF1F2F83FF1FAB4B1B785A1ED7F890309A420CD14FF08841786A0EF046FD034618460EF044FF03469AB2A34B5A80D7F88810C5
:40220000786A0EF031FC03461C46A04AD7F8903052F8233018460EF0DBFC0346194620460EF020FC0346FB61994B1B78002B57D0D7F89030002B53D14FF08841786A0EF041
:402240001BFD034618460EF019FF03467B837B8B03F07F0301221946322000F0EFFF7B8BDB099BB203F07F0301221946312000F0E5FF7B8B9B0B9BB203F07F0301221946D2
:40228000302000F0DBFF814B1B6818460EF0A0FC03464FF0884118460EF0EEFC034618460EF0ECFE03463B833B8B03F07F0301221946352000F0C2FF3B8BDB099BB203F0E3
:4022C0007F0301221946342000F0B8FF3B8B9B0B9BB203F07F0301221946332000F0AEFF6C49F8690EF0C8FC03461A466A4B1B68194610460EF0C0FC03464FF08C41184664
:402300000EF0B2FB03467B61644B1B78002B17D0634AD7F8903052F82330796918460EF03FFE0346002B0BD178690EF0A7FE03461A46D7F8903001331946104600F0B2FF8F
:402340005749D7F890307A6941F823204FF00001D7F888000EF04CFE0346002B0BD0796AD7F888000EF080FB034619464D4AD7F8903042F82310D7F890300133C7F8903071
:40238000404B1B781A46D7F890309A423FF77FAC454B1B78DBB2002B01D000F025FE434B1B78DBB2002B13D00AF096F90346002B0ED03F4B1B88402B05D93E4B1B880133A7
:4023C0009AB23C4B1A803A4B00221A8000F036FE00BF08F001FC034603F00103002B06D108F0FAFB034603F01003002B01D0012300E00023002BECD02F4B1B78DBB2012B09
:402400007FD12E4B1B78002B1CD02D4BFD221A702C4B1A782A4B5A702A4B1A782A4B1A7006F026F9254B00221A70234B00221A70264B00221A80224BFE229A77204BFD221A
:40244000DA7764E21E4B02221A701E4B1A781C4B5A700223BB674AE01C4B1A881C4B1B889A4239D2194B1B885A1C91B2174A11801A46184B9B5CD9B2114ABB6F13440A46F4
:402480001A7031E0D280FF1FDCDFFF1F70DFFF1F3083FF1FABAA2A43E880FF1F2E83FF1FB8A6FF1FA4DFFF1F5D83FF1F5C83FF1F6083FF1F6283FF1F3D83FF1F1E83FF1F2A
:4024C000E0DFFF1F1C83FF1FA183FF1F3683FF1F3883FF1F78A7FF1F984ABB6F1344EE221A70974B01221A70BB6F0133BB67BB6F1D2BB1D9914BFE229A77904BFD22DA77B3
:4025000005E2904B1B78002B1CD08C4B06221A708D4B1A78894B5A708C4B1A78874B9A708B4B1A78854BDA708A4B1A78834B1A71824BFE229A77814BFD22DA77814B0022EF
:402540001A70E4E1844B1B78002B24D07B4B07221A70824B1A78794B5A70804B5A78774B9A707E4B9A78754BDA707C4BDA78734B1A717A4B1A79714B5A71784B5A796F4B46
:402580009A716E4BFE229A776C4BFD22DA77724B00221A70BBE1724B1B78002B12D0674B0A221A706F4B93F90030DAB2634B5A70624BFE229A77614BFD22DA77684B0022EC
:4025C0001A70A4E1684B1B78012B0FD15B4B0B221A705A4B00225A70584BFE229A77574BFD22DA77604B00221A7090E15E4B1B78022B0FD1514B0C221A70504B00225A70BA
:402600004E4BFE229A774D4BFD22DA77564B00221A707CE1554B1B78012B56D1474B0E221A70534B93F90030DAB2444B5A70434B11229A70414B1222DA70404B01221A71FF
:402640003E4B01225A713D4BFE229A773B4BFD22DA7700237B670AE07B6F063345497A6F0A441178354AD1547B6F01337B677B6F0D2BF1DD3D4B00221A703D4B93F90030C8
:40268000DAB23D4B1A703C4B1B7840F2D67118460CF0B0F8394B1B781A46374B1978384B9954354B1A78354B1B789BB203F2DC739BB2194610460CF09DF82D4B93F9003070
:4026C0001A46304B0021995421E12F4B1B78DBB2002B00F0AF802D4B1B78002B03D1174B03221A7002E0154B0D221A7000233B670DE03B6F0133254A127811463A6F0A441E
:402700002349895C0D4AD1543B6F01333B673B6F072BEEDD0023FB660AE0FB6E09331D49FA6E0A441178054AD154FB6E0133FB66FB6E032BF1DD0023BB6638E0E0DFFF1FDD
:402740001E83FF1F1F83FF1F2083FF1F2183FF1F2283FF1F2383FF1F2483FF1FB09CFF1F2D83FF1F2C83FF1F5883FF1FA49CFF1F2583FF1FE881FF1FA683FF1FB583FF1FC5
:40278000DC80FF1FE8A6FF1F3E83FF1F2C84FF1F9C97FF1F84B1FF1FBB6E0D339A49BA6E0A441178994AD154BB6E0133BB66BB6E092BF1DD964B1B781B015AB2954B1B68A7
:4027C0005BB213435AB2944B1B785B015BB213435AB2924B1B789B015BB213435BB2DAB28A4B1A768E4B1A78884B5A768D4BB3F900301B121BB2DAB2844B9A76894BB3F919
:402800000030DAB2814BDA76874B5B881B0A9BB2DAB27E4B1A77844B5B88DAB27B4B5A777A4BFE229A77794BFD22DA777F4B00221A706CE0754B01221A7000237B6624E07D
:402840007B4A7B6E52F823304FF0884118460EF013FA034618460CF0D9FB034618460EF0E7FB03463B617B6E5B0001333A691212D1B2664AD1547B6E01335B003A69D1B284
:40288000624AD1547B6E01337B667B6E0B2BD7DD5F4B1B781B015AB25E4B1B685BB213435AB25D4B1B785B015BB213435AB25B4B1B789B015BB213435BB2DAB2534B1A7671
:4028C000574B1A78514B5A76564BB3F900301B121BB2DAB24D4B9A76524BB3F90030DAB24A4BDA76504B1B881B0A9BB2DAB2474B1A774D4B1B88DAB2444B5A77434BFE226F
:402900009A77424BFD22DA77484B01221A70494B1B78FD2B40F0C980464BDB7FFE2B40F0C480444B5B78FB60424B1B7CBB6002233B660023FB6514E03E4A3B6E13441878A8
:402940003D49FA681346DB009B1A5B00CA18FB6D134402461A703B6E01333B66FB6D0133FB65FB6D0D2BE7DD11233B66BB68072B20DC0023BB6519E02E4A3B6E13441C786C
:402980002E48BB68F9681A46D2001A440B46DB000B441B011344C218BB6D134422461A703B6E01333B66BB6D0133BB65BB6D082BE2DD65E0BB680B2B23DC00237B651CE0A4
:4029C000BB68083B1B493A6E0A4414781C48F9681A4692001A4453001A460B469B000B44DB001344C2187B6D134422461A703B6E01333B667B6D01337B657B6D092BDFDDF9
:402A00003EE000233B6538E01C85FF1FE0DFFF1FA583FF1FD480FF1FA483FF1F3383FF1FA683FF1FAEB9FF1FDCDFFF1F3E83FF1FA4DFFF1F3CE0FF1F1C94FF1F00BAFF1F2B
:402A4000B89CFF1FBB68043B62493A6E0A4414786148F9681A46D2001A440B46DB000B441B011344C2183B6D134422461A703B6E01333B663B6D01333B653B6D082BE1DD6F
:402A8000564B1B781A46FB689A4240F09080BB68072B40F08C80524AFB6813441B78002B40F0858005F0E4FD81E04A4B1B78FC2B7ED1484BDB7FFE2B7AD108F04BF8002098
:402AC00002F088FC002301220B21464802F02CFD012301220B21444802F026FD022301220B21424802F020FD032301220B213F4802F01AFD3E4B0B221A703D4B1B78DBB237
:402B00001A463C4B13F812203B4B1B789A4213D0374B1B78DBB21A46364B13F812301A4601239340DAB2354B1A7000220121702000F05EF90346FB712D4B1B78DBB21A4614
:402B40002C4B13F812202C4B1A700A2007F09AFC274B1B78DBB21A46264B13F81230052B1DD1234B1B78DBB21A46254B9B5C002B15D11F4B1B78DBB21E4A5B0013445B783E
:402B80001A4601239340DAB21C4B1A7000220121712000F02DF903461A461A4B1A600A2007F070FC4021802002F060FC00E000BF08F02EF8144B1B78DBB20121184607F03F
:402BC00079F8124B1B78DBB20121184607F072F8FEF743B93CE0FF1F00BAFF1FA683FF1FE8A6FF1F103101001C31010028310100A383FF1FEC80FF1FBC81FF1F50DEFF1FB1
:402C00009483FF1F5CE0FF1F0094FF1F0098FF1F80B500AF4FF4804341F6FF72012101200BF0C2FE03461A46124B1A7007F094F903461A46104B1A700F4B1B78D8B20123D0
:402C4000FE22202107F0B6F90B4B1B78DBB20B4A91B246F24C42184607F0ECF9054B1B78DAB2054B1B78DBB21946104607F006F900BF80BD0098FF1F20E0FF1FE0DFFF1F08
:402C800080B500AF41F6FF734FF48042012101200BF08AFB03461A464A4B1A7007F05CF903461A46484B1A7007F056F903461A46454B5A70444B18780223FE22202107F000
:402CC00079F9414B58780223FE22202107F072F93D4B1B783D4A92B246F25741184607F0A9F9394B5B783A4A92B246F25741184607F0A0F941F6FF734FF4804201210120A3
:402D00000BF084FB03461A46324B1A7007F024F903461A46304B1A7007F01EF903461A462D4B5A702C4B18780223FE22082107F041F9294B58780223FE22082107F03AF92C
:402D4000254B1B78254A92B246F25551184607F071F9214B5B78224A92B246F25551184607F068F941F6FF734FF48042012101200BF0E8FD03461A461A4B1A7007F0ECF839
:402D800003461A46184B1A70174B1B78D8B20223FE22202107F00EF9134B1B78DBB2134A92B246F25C41184607F044F90D4B1B78DAB20D4B1B78DBB21946104607F05EF803
:402DC00000BF80BDACB9FF1FA884FF1FC0B9FF1FE0B9FF1F80AFFF1FA0B9FF1F60DFFF1F68DFFF1F0094FF1F00E0FF1F3CE0FF1F80B586B000AF0346FB710B46BB80134698
:402E0000BB710023FB754FF47A733B6108F068FB0346FB73FB7BDBB25BB2002B42DBBB88DAB2BB79F879294908F012FA0346FB73FB7BDBB2002B2FD108F02CFB0346FB73F8
:402E40003B69013B3B61FB7BDBB2802B03D100F0B9F80123FB753B69002B05D18023FB7300F0B0F80123FB75FB7BDBB2002B05D18023FB7300F0A6F80123FB75FB7BDBB203
:402E800003F08203002B0DD1FB7BDBB2002B09D03B69002BD0D105E08023FB7300F092F80123FB75FB7BDBB203F02003002B04D1FB7BDBB25BB2002B03DA00F083F8012356
:402EC000FB75FB7D18461837BD4680BD50DEFF1F80B584B000AF0346FB710B46BB7113467B714CF25033FB600023FB7208F0F8FA0346BB72BB7ADBB25BB2002B46DB7B7907
:402F0000BA79F8792B4908F033FA0346BB72BB7ADBB2002B34D108F0BDFA0346BB72FB68013BFB60BB7ADBB2802B12D1224B52221A70224BFF221A70214B00221A7000BF23
:402F40001E4B1B78DBB2002BFAD100F03BF80123FB72FB68002B05D18023BB7200F032F80123FB72BB7ADBB203F08103002B0DD1BB7ADBB2002B09D0FB68002BCBD105E028
:402F80008023BB7200F01EF80123FB72BB7ADBB203F02003002B04D1BB7ADBB25BB2002B03DA00F00FF80123FB72FB7A18461037BD4680BD0498FF1F786400401864004087
:402FC0005864004080B500AF07F010FF044B00221A70044B00221A7007F0F2FE00BF80BD786400403984FF1F80B500AF09F074FB0346002B05D109F06DF90E4B00221A7021
:4030000013E00C4B1B78DBB2002B0ED10021002008F0D6FF00BF09F0DDF90346002BFAD00AF0A4FE034B01221A70034B00221A7000BF80BD5C83FF1F5D83FF1F80B500AFD6
:4030400009F0D4F90346002B10D009F0C3F90346002B0BD0244B1B78DBB2002B06D009F03BFB0346002B01D00AF080FE09F0B2F90346002B35D009F0B9F90346002B18D092
:403080001A4B1B78D8B21A4B1B78DBB29BB21A46184909F009FA184B1B78DBB240221749184609F085FA144B1B78DBB2184609F0C5FA0D4B1B78DBB2002B06D009F00CFBD6
:4030C0000346002B01D00AF0D1FE074B1B78DBB2002B06D009F000FB0346002B01D00AF057FE00BF80BD00BF5C83FF1FE8E9FF1FE9E9FF1FECE9FF1FEAE9FF1FA8E9FF1F9D
:4031000080B586B000AF78602C4A7B6832F81330FB82FB8A002B43D0FB8A18460DF054FD03463B614FF05E5138690DF0A5FD03463B6138690CF080F93861214938690DF0B7
:4031400091FC03463B611F4938690DF095FD03463B6138690DF06CFF0346FB82FB8A7F2B01D97F23FB82184B1B685A1F13465B0013449B001946154A7B6852F823300B44D7
:40318000FB60FB8ADBB219467B6801331A46F86800F020F80E497B68FA6841F8232009E00B4A7B6852F823007B6801331A46002100F010F800BF1837BD4680BD28A7FF1FF3
:4031C0000918C43C551D0243D480FF1F70DFFF1FE483FF1F80B584B000AFF860B9607A607B68DBB2703BDAB2114B1A70FB68DAB20F4B5A70BB68DAB20D4B9A700D4B1B7894
:40320000DBB2002B09D009F067FA0346002B04D00022074903200AF02FFE074B1B8804339AB2054B1A8000BF1037BD4680BD00BF1894FF1F5C83FF1F6083FF1F80B584B007
:4032400000AFF860B9607A607B68DBB2503BDAB2114B1A70FB68DAB20F4B5A70BB68DAB20D4B9A700D4B1B78DBB2002B09D009F033FA0346002B04D00022074903200AF04A
:40328000FBFD074B1B8804339AB2054B1A8000BF1037BD4680BD00BF1894FF1F5C83FF1F6083FF1F80B582B000AF786039603B68DBB2203BDAB2134B1A707B68DBB203F0FE
:4032C0007F03DAB20F4B5A707B68DB11DAB20D4B9A700D4B1B78DBB2002B09D009F0FCF90346002B04D00022064903200AF0C4FD064B1B8804339AB2044B1A8000BF083780
:40330000BD4680BD1894FF1F5C83FF1F6083FF1F90B59BB000AFA54B01221A70A44B1B781A46A44B53F82230FB63A14B1B780133A04A52F82330BB639D4B1B780133DAB24A
:403340009B4B1A709C4AFB6B136000237B6611E0994B1A687B6E1344083B40F2FF721340964AD35C1946964A7B6E42F823107B6E01337B667B6E0F2BEADD8F4B1B6840F22F
:40338000FF7213408D4AD35C002B40F075838D4B01221A708C4B00221A608C4B00221A70854B1B68013340F2FF721340834AD25C874B1A70804B1B68023340F2FF72134028
:4033C0007E4AD25C834B1A707B4B1B68033340F2FF721340794AD25C7E4B5A70764B1B68043340F2FF721340744AD25C794B9A70714B1B68053340F2FF7213406F4AD25C07
:40340000744BDA7006233B666B4B1A683B6E1344694A13603B6EDBB20E3387F837302DE03B6E023B644A126840F2FF710A4063498A5C02F07F02D1B2664AD154644B1B7858
:4034400018463B6E9A1F5C4B1B6840F2FF710B405A49CB5C03F07F03DCB25F490346DB001B1A5B000B44134422461A70524B1B680133514A13603B6E01333B6697F83720EE
:403480003B6E9A42CCD8514B01221A700023FB653DE00023BB6534E03B6E023B464A126840F2FF710A4045498A5C02F07F02D1B2484AD154464B1B7818463F4B1B6840F2E5
:4034C000FF7213403D4AD35C03F07F03DCB24349FB6D1A46D2001A440346DB0003441B011344CA18BB6D134422461A703B6E01333B66314B1B6801332F4A1360BB6D0133A1
:40350000BB65BB6D082BC7DDFB6D0133FB65FB6D072BBEDD00237B653FE000233B6536E03B6E023B244A126840F2FF710A4023498A5C02F07F02D1B2264AD154244B1B78A7
:4035400018461D4B1B6840F2FF7213401B4AD35C03F07F03DCB222497B6D1A4692001A4453001A4603469B000344DB001344CA183B6D134422461A703B6E01333B660E4B18
:403580001B6801330C4A13603B6D01333B653B6D092BC5DD7B6D01337B657B6D032BBCDD8223BB86094B02221A705EE21B83FF1F1983FF1FA498FF1F1483FF1F88B1FF1FE2
:4035C000AC97FF1F3A83FF1F4083FF1F3483FF1F1C83FF1F78A7FF1F1C94FF1F00BAFF1FB89CFF1F00233B613B699A4A126840F2FF710A4098498A5C120713433B613B69A4
:40360000944A1268013240F2FF710A4092498A5C520513433B613B698E4A1268023240F2FF710A408C498A5C920313433B613B69884A1268033240F2FF710A4086498A5CEB
:40364000D20113433B613A69824B1B68043340F2FF710B408049CB5C03F07F0313433B613B697E4A13607E4B1B78022B40F09D807C4B1B68002B22D13B6918460DF0FEFC01
:4036800003469AB2784B1A80BA8E764B1B68591C744801601344744A1288120A92B2D1B2724AD154BA8E6F4B1B68591C6D48016013446D4A1288D1B26C4AD154D0E16A4B0B
:4036C0001B8801335B001A46664B1B689A4223D93B69674918460DF0CFFA034618460DF0CDFC03467B86BA8E5E4B1B68591C5D48016013447A8E120A92B2D1B25B4AD15402
:40370000BA8E584B1B68591C5648016013447A8ED1B2564AD154A3E1534B1B8801335B001A46504B1B689A4240F09A813B69514A1360504B1B68504918460DF03BFC0346C3
:40374000002B23D04B4B1B684C4918460DF050FC0346002B1AD0BA8E424B1B68591C414801601344414AEF21D154BA8E3D4B1B68591C3C48016013443C4AEF21D154384B68
:4037800003221A703E4B00221A6069E13D4B1B6801333C4A13603C4B00221A703B4B00221A703B4B00221A705AE12D4B1B78032B28D13B6918460DF061FC03469AB2354B3E
:4037C0001A80BA8E274B1B68591C264801601344304A1288120A92B2D1B2244AD154BA8E204B1B68591C1F4801601344294A1288D1B21E4AD1541A4B04221A70264B00223E
:403800001A802DE1164B1B78042B40F02981224B1A88204B1B889A4280F0DA80184B19681E4BA3FB01239A0813469B001344CA1A002A35D1BA8E0B4B1B68591C09480160C8
:40384000D4183B6918460DF019FC0346DAB2074B1A55B7E01483FF1F88B1FF1F5483FF1F3483FF1F4083FF1F4883FF1F78A7FF1F00FF7F475083FF1F0000C0BF000020C029
:403880004483FF1F2084FF1F3A83FF1F3D83FF1F4E83FF1F4A83FF1F4C83FF1FCDCCCCCC984B1968984BA3FB01239A0813469B001344CA1A012A0FD1BA8E944B1B68591CAC
:4038C00092480160D4183B6918460DF0D7FB0346DAB28F4B1A5575E08A4B19688A4BA3FB01239A0813469B001344CA1A022A23D13B694FF0000118460DF05CFB0346002B75
:403900000AD0BA8E814B1B68591C8048016013447F4AFF21D15455E0BA8E7C4B1B68591C7A480160D4183B6918460DF0A7FB0346DAB2774B1A5545E0724B1968724BA3FB63
:4039400001239A0813469B001344CA1A032A24D13B69704918460DF08FF9034618460DF067FB03463B86BA8E684B1B68591C674801601344B7F93020121212B2D1B2644A6D
:40398000D154BA8E614B1B68591C6048016013443A8ED1B25E4AD15414E0BA8E5B4B1B68591C5A480160D4183B6918460DF066FB0346DAB2564B1A55574B1B8801339AB2AB
:4039C000554B1A804F4B1B6801334E4A136047E03B69524918460DF0EDFA0346002B31D03B694F4918460DF003FB0346002B29D0BA8E464B1B68591C444801601344444A6F
:403A0000FE21D154BA8E414B1B68591C3F48016013443F4AFE21D154424B05221A70424B00221A70414B01221A70414B1A78414B1A70364B1B689AB2BB8E13449AB23E4BC1
:403A40001A800DE03D4B1B6801333C4A1360364B00221A70354B00221A70394B00221A70384B1B680533374A1360364B1A68BB6B9A42FFF4B7AD77E3324B1B6840F2FF7273
:403A80001340314AD35C022B40F0BC81264B01221A70002387F84F301C4B00221A60FB6B013340F2FF721340274AD25C274B1A70264B1B78062B0BD91B4B00221A701B4B71
:403AC00000221A701E4B00221A70012387F84F3097F84F30002B0AD11C4B1A781C4B1A701C4B1B781A461A4B19781B4B99540223BB64BA6CFB6B1344124A13600C2387F89E
:403B00002F3077E04483FF1FCDCCCCCC4083FF1F78A7FF1F00FEFF464C83FF1F000020C0000060C03483FF1F3A83FF1F3D83FF1F1C83FF1FA683FF1F3883FF1F2084FF1F3E
:403B40004E83FF1F1483FF1F88B1FF1F1D83FF1F6483FF1FB583FF1FD880FF1F9C4B1B6840F2FF7213409B4AD35C03F07F0387F82E3097F84F30002B34D1974B1B781846E4
:403B8000BB6C9A1E954903469B0003445B000B44134497F82E201A708F4B1B789BB21A4612011A44D20013445B009AB28C4B1A80894B1B789BB21A4612011A44D20013443B
:403BC0005B009AB2BB6C9BB213449BB2023B9AB297F82E30114618460AF00CFE0346DAB2804B1A707A4B1B680133794A1360BB6C0133BB6497F82F20BB6C9A42AED8FB6BB4
:403C00000C33BB64C1E000237B64BAE07B6C9BB21A4652001344DB00BB8500233B64A9E00023FB60FB6840F2FF71BA6C0A4069498A5C12071343FB60FB68BA6C013240F203
:403C4000FF710A4063498A5C52051343FB60FB68BA6C023240F2FF710A405E498A5C92031343FB60FB68BA6C033240F2FF710A4058498A5CD2011343FB60FA68BB6C0433FF
:403C800040F2FF710B405349CB5C03F07F031343FB6097F84F30002B61D14F4B1B781C46F96851487B6C1A4652001A4493001A4623465B0123449B001A443B6C134440F8F5
:403CC0002310FB684FF0874118460CF0D5FF03464FF08E4118460CF0C7FE034618460DF0CDF903467B857B8D1B0A9BB287F829307B8D87F828303B6C9BB25B00FB84FA8C4B
:403D0000BB8D13449AB2344B1B789BB2194609011944C9000B445B009BB213449BB20A339AB22F4B1A802E4B1B889AB297F82930114618460AF05EFD0346DAB2294B1A7045
:403D4000274B1B889BB201339AB297F82830114618460AF04FFD0346DAB2224B1A70234B1B680133214A1360BB6C0533BB643B6C01333B643B6C0B2B7FF652AF7B6C01334A
:403D80007B647B6C0A2B7FF641AFBA6CBB6B9A42FFF439AF154B1B689AB2154B1A80144B1B88842B0ED0134B1B680133114A1360114B00221A70114B00221A70104B002278
:403DC0001A70D1E10C4B00221A7004F051FCCBE11483FF1F88B1FF1F1D83FF1F08DEFF1F1684FF1F1484FF1F3885FF1F4083FF1F3883FF1F2084FF1F3A83FF1F3D83FF1F4B
:403E00004E83FF1F584B1B6840F2FF721340574AD35C032B40F0BA80554B01221A70FB6B02333B620023BB60BB6840F2FF713A6A0A404E498A5C12071343BB60BB683A6ACB
:403E4000013240F2FF710A4048498A5C52051343BB60BB683A6A023240F2FF710A4043498A5C92031343BB60BB683A6A033240F2FF710A403D498A5CD2011343BB60BA68CB
:403E80003B6A043340F2FF710B403849CB5C03F07F031343BB60BB6818460BF0B7F8034618460DF0EBF80346FB83324B00221A70FB8BDAB2304B1A703B6A05333B62002355
:403EC000BB60BB6840F2FF713A6A0A4027498A5C12071343BB60BB683A6A013240F2FF710A4022498A5C52051343BB60BB683A6A023240F2FF710A401C498A5C92031343F8
:403F0000BB60BB683A6A033240F2FF710A4017498A5CD2011343BB60BA683B6A043340F2FF710B401149CB5C03F07F031343BB60BB68124918460CF09FFE034618460DF089
:403F40009DF80346BB83BB8B1B0A9BB2DAB20C4B1A70BB8BDAB20B4B1A70054B00221A70094B01221A70FFE01483FF1F88B1FF1F3A83FF1F2083FF1F2183FF1F00FF7F4743
:403F80002283FF1F2383FF1F1F83FF1F814B1B6840F2FF721340804AD35C042B40F0E4807E4B01221A70FB6B0233BB6100237B607B6840F2FF71BA690A4077498A5C1207DD
:403FC00013437B607B68BA69013240F2FF710A4071498A5C520513437B607B68BA69023240F2FF710A406C498A5C920313437B607B68BA69033240F2FF710A4066498A5C00
:40400000D20113437B607A68BB69043340F2FF710B406149CB5C03F07F0313437B607B6818460AF0F3FF034618460DF027F80346FB825B4B00221A70FB8ADAB2584B5A7055
:40404000BB69053340F2FF721340534AD25C544B9A70BB69063340F2FF7213404E4AD25C4F4BDA70BB690733BB6100237B607B6840F2FF71BA690A4047498A5C120713432E
:404080007B607B68BA69013240F2FF710A4042498A5C520513437B607B68BA69023240F2FF710A403C498A5C920313437B607B68BA69033240F2FF710A4037498A5CD20150
:4040C00013437B607A68BB69043340F2FF710B403149CB5C03F07F0313437B60304BDB78002B10D12E4B00221A717B6818460AF08DFF034618460CF09BFF03461BB2DAB278
:40410000274B5A712AE0264BDB78012B16D17B68244918460CF0B0FD034618460CF088FF0346BB82B7F914301B121BB2DAB21C4B1A71BB8ADAB21A4B5A710FE0184B002279
:404140001A717B6818460AF061FF034618460CF06FFF03461BB2DAB2114B5A710F4B00221A70114B01221A70104B00221A70104B1A78104B1B789A4203D10F4B00221A7098
:4041800004E00E4B1B6801330C4A136000BF6C37BD4690BD1483FF1F88B1FF1F3A83FF1FB09CFF1F00FEFF462483FF1F1B83FF1F1983FF1F1883FF1F4E83FF1F1C84FF1F5B
:4041C00080B584B000AF03463960FB713B681A78694B1A703B685A78674B5A703B689A78654B9A703B68DA78634BDA70634B1B78DBB2002B00F0BD8008F06EFA0346002B9F
:4042000000F0B7805E4B1B78002B36D00023FB602AE0FB683A6813441B785BB2002B12DB584B1B685A1C57490A6040F2FF721340FA6839680A441178534AD154534B1B68F5
:40424000534A13600DE0FB683A6813441B78F72B07D14B4B00221A704C4B1B684D4A136087E0FB680133FB60FB68022BD1DD474B1B680133454A13607BE03B681B78F02B64
:4042800077D1454B1B78002B6ED13B6801331B787E2B1CD1414B01221A70414B1B68414A13603A4B1B683E4A13603F4B01221A703E4B1B780133DAB23C4B1A703B4B1B78A3
:4042C0001946304B1B683A4A42F821304CE03B6801331B78002B13D03B6801331B78012B0ED03B6801331B78022B09D03B6801331B78032B04D03B6801331B78042B33D1C1
:404300001F4B01221A70284B1B78012B1AD11D4B1B685A1C1B490A6040F2FF7213403A685178194AD154174B1B685A1C15490A6040F2FF7213403A689178134AD1541A4B86
:4043400000221A701B4B1B681B4A1360194B5B68194A53600D4B1B68164A13603B6801331B781A46134B5A60084B1B680133074A13601037BD4680BD8CB9FF1F5C83FF1F4E
:404380001A83FF1F1083FF1F88B1FF1FFC82FF1F0883FF1F0C83FF1F1B83FF1F4E83FF1F0083FF1F0483FF1FCC80FF1F1883FF1FA498FF1FA89CFF1F68B1FF1F80B483B0DA
:4043C00000AF78600B467B8013463B807B687A881A807B683A885A807A887B689A803A887B68DA807B6800221A817B6800225A817B6800229A817B680122DA817B684FF6B1
:40440000FF721A827B684FF6FF725A827B6801229A827B680022DA827B6800229A617B6800221A817B680022DA837B6808229A8300BF0C37BD4680BC704700BF80B58AB025
:4044400000AFF860084611461A4603467B810B463B811346FB80B7F93020B7F90830D31A83EAE372A2EBE372B7F90610B7F90A30CB1A002BB8BF5B429A42CCBF012300230F
:40448000DBB27B84B7F92230002B0BD07B893B843B897B813B8C3B81FB88FB833B8EFB80FB8B3B86B7F90A20B7F906309A420BDD7B89BB83FB887B81BB8BFB803B897B830E
:4044C0003B8E3B817B8B3B86FA887B89D31A9BB23B83B7F93020B7F90830D31A002BB8BF5B42FB82B7F91830DA0F13445B10FB84B7F90820B7F930309A4202DA0123BB843C
:4045000031E04FF6FF73BB842DE0B7F92230002B08D0BB8EB7F90A20B7F90810F86800F01DF907E0BB8EB7F90820B7F90A10F86800F014F9FA8CFB8AD31A9BB2FB84B7F96E
:404540002630002B09DA3A89BB8C13449BB23B81FA8C3B8B13449BB2FB84B7F90A309BB201339BB27B81B7F90A20B7F906309A42CBDD00BF2837BD4680BD00BF80B586B07E
:4045800000AFF860084611461A4603467B810B463B811346FB80B7F90A30002BC0F2D780B7F90A30FA689288934280F2D080B7F90830002BC0F2CB80B7F90830FA68D288FA
:4045C000934280F2C480F86800F052FD0346022B14D0032B27D0012B36D17B89FB823B897B81FB8A3B81FB68B3F900309AB27B89D31A9BB2013B9BB27B8125E0FB68B3F9FB
:4046000000309AB27B89D31A9BB2013B9BB27B81FB68B3F902309AB23B89D31A9BB2013B9BB23B8110E07B89BB823B897B81BB8A3B81FB68B3F902309AB23B89D31A9BB2EE
:40464000013B9BB23B8100BFFB88012B04D0022B54D0002B28D07BE0B7F90A20B7F90830002B00DA0733DB1018B20146FB68B3F9003003FB01F31344B7F90A10FA68B2F988
:40468000002002FB00F20A4433498A5C51B23A8902F00702012000FA02F252B20A4352B2D1B22D4AD15453E0B7F90A20B7F90830002B00DA0733DB1018B20146FB68B3F9B8
:4046C000003003FB01F31344B7F90A10FA68B2F9002002FB00F20A441F498A5C51B23A8902F00702012000FA02F252B2D24352B20A4052B2D1B2184AD15429E0B7F90A2097
:40470000B7F90830002B00DA0733DB1018B20146FB68B3F9003003FB01F31344B7F90A10FA68B2F9002002FB00F20A440A498A5C51B23A8902F00702012000FA02F252B28D
:404740004A4052B2D1B2044AD15400BF00E000BF1837BD4680BD00BFD8E4FF1F80B584B000AFF860084611461A4603467B810B463B811346FB80FB88B7F90820B7F90A106F
:40478000F868FFF7FBFE00BF1037BD4680BD00BF80B586B002AFF860084611461A4603467B810B463B811346FB80B7F90600B7F90820B7F90A103B8B00930346F86800F0BC
:4047C00043F800BF1037BD4680BD00BF80B586B002AFF860084611461A4603467B810B463B811346FB80B7F90600B7F90820B7F90A103B8B00930346F86800F04BF800BF8E
:404800001037BD4680BD00BF80B586B002AFF860084611461A4603467B810B463B811346FB80B7F90600B7F90820B7F90A10BB8B0193B7F9183000930346F86800F050F8F5
:4048400000BF1037BD4680BD90B587B002AFF860084611461A4603467B810B463B811346FB803A89FB8813449BB2013B9BB21BB2B7F90A40B7F90800B7F90A103A8C01922D
:40488000009323460246F868FFF7D8FD00BF1437BD4690BD80B586B002AFF860084611461A4603467B810B463B811346FB807A89FB8813449BB2013B9BB218B2B7F908203B
:4048C000B7F90A103B8B0193B7F9083000930346F868FFF7B3FD00BF1037BD4680BD00BF80B588B002AFF860084611461A4603467B810B463B811346FB807B89FB8211E0B2
:40490000B7F92000B7F90820B7F91610BB8C00930346F868FFF73CFFB7F916309BB201339BB2FB82B7F91620B7F90A10B7F906300B449A42E4DB00BF1837BD4680BD00BF77
:4049400090B58FB002AFF860084611461A4603467B810B463B811346FB71FB689B69002B40F02E81B7F90A30FA689288934280F2E981B7F90830FA68D288934280F2E281B8
:40498000B7F90A1097F8482013465B0013445B000B44013B002BC0F2D581B7F9082097F84830DB001344013B002BC0F2CB81FB68DB8A002B05D1FB79AF2B02D9FB79013302
:4049C000FB71002387F82F30BCE0FB689969FA7913469B001A4497F92F3013441A4613465B0013449B000B441B7887F82E30002387F82D309AE097F82E3003F00103002BF1
:404A000041D097F84830012B13D197F92F309AB27B8913449BB219B297F92D309AB23B8913449BB21AB2B7F84030F868FFF796FE70E097F92F309BB297F8482092B202FB66
:404A400003F39AB27B8913449BB219B297F92D309BB297F8482092B202FB03F39AB23B8913449BB218B297F848301CB297F848301BB2B7F840200192009323460246F868AC
:404A8000FFF7C2FE46E0B7F84420B7F840309A4240D097F84830012B13D197F92F309AB27B8913449BB219B297F92D309AB23B8913449BB21AB2B7F84430F868FFF74EFE05
:404AC00028E097F92F309BB297F8482092B202FB03F39AB27B8913449BB219B297F92D309BB297F8482092B202FB03F39AB23B8913449BB218B297F848301CB297F84830C3
:404B00001BB2B7F844200192009323460246F868FFF77AFE97F92D30DBB20133DBB287F82D3097F82E305B0887F82E3097F92D30072B7FF760AF97F92F30DBB20133DBB2CB
:404B400087F82F3097F92F30042B7FF73EAFB7F84420B7F840309A4200F0F58097F84830012B0DD17B8905339BB219B2B7F90820B7F8443000930823F868FFF709FEE2E026
:404B800097F848309BB21A46920013449AB27B8913449BB219B297F848301CB297F848309BB2DB009BB21BB2B7F90800B7F844200192009323460246F868FFF725FEC2E0BE
:404BC000FB689B6908331B78FA79D31AFB71FB79DA00FB689B69043318CB1344FB61FB689B6918CBBB61FB691B887B85FB699B78FB75FB69DB78BB75FB6905331B787B75D8
:404C0000FB6906331B783B75002387F82730002387F826300023BB8400237B8497F84830012B05D997F91530BB8497F914307B84002387F828307EE0002387F8293070E084
:404C400097F826305A1C87F8262003F00703002B08D17B8D5A1C7A851A46BB6913441B7887F8273097F92730002B50DA97F84830012B1DD197F915309AB27B8913449AB22D
:404C800097F829309BB213449BB219B297F914309AB23B8913449AB297F828309BB213449BB21AB2B7F84030F868FFF757FD2EE0B7F9242097F8293013449BB297F84820D7
:404CC00092B202FB03F39AB27B8913449BB219B2B7F9222097F8283013449BB297F8482092B202FB03F39AB23B8913449BB218B297F848301CB297F848301BB2B7F84020DD
:404D00000192009323460246F868FFF77DFD97F827305B0087F8273097F82930013387F8293097F82920FB7D9A4289D397F82830013387F8283097F82820BB7D9A42FFF469
:404D40007BAF00E000BF3437BD4690BD80B584B000AF78600B467B807B689B8A002B19D07B689B891A46B7F9023013447A68928893420FDB7B6800229A817B685A897B6833
:404D80009B8B7968C98901FB03F39BB213449AB27B685A817B681B8C002B4FD07B689B69002B0AD17B689B8B7A68D28902FB03F39BB2013B9BB2FB8101E00023FB817B684B
:404DC0005A89FB8913449AB27B68DB8B7968C98901FB03F39BB21344BB817B68DB88BA899A422BD3BB89DAB27B68DB88DBB2D31ADBB20133D9B27B681A8A7B685B8A9A42F1
:404E000002D07B685B8A00E000231A46786800F0B1FA7B6800229A817B68DA88FB89D31A9AB27B68DB8B7968C98901FB03F39BB2D31A9BB2013B9AB27B685A8100BF103797
:404E4000BD4680BDB0B58AB004AF78600B46FB707B689B69002B45D1FB780A2B10D17B685A897B689B8B7968C98901FB03F39BB213449AB27B685A817B6800229A81AAE00F
:404E8000FB780D2B00F0A7807B68DB899B009BB21BB219467868FFF759FF7B689B8918B27B685B891CB27B681B8A7A68528A7968C989C9B2FD780291019200932B46224646
:404EC00001467868FFF73CFD7B689A897B68DB89194649000B445B009BB213449AB27B689A8178E0FB780A2B13D17B6800229A817B685A897B68DB89796889690A3109782F
:404F000089B201FB03F39BB213449AB27B685A8161E0FB780D2B5ED07B689B691B7AFB75FA78FB7D9A4256D37B689B6909331B78FA789A424FD8FA78FB7DD31ADA007B68E2
:404F40009B69043318CB13443B613B699B78FB733B69DB78BB73FB7B002B2DD0BB7B002B2AD03B6905331B785BB2BB817B68DB89B7F90C10FA7B0A4492B202FB03F39BB2CB
:404F80001BB219467868FFF7E1FE7B689B8918B27B685B891CB27B681B8A7A68528A7968C989C9B2FD780291019200932B46224601467868FFF7C4FC7B689A893B690433F1
:404FC0001B789BB27968C98901FB03F39BB213449AB27B689A8100BF1837BD46B0BD00BF80B483B000AF78600B467B8013463B807A887B689A813A887B685A8100BF0C37B1
:40500000BD4680BC704700BF80B483B000AF78607B689B891BB218460C37BD4680BC704780B483B000AF78600B46FB70FB78002B02D0FB789AB200E001227B68DA8100BF89
:405040000C37BD4680BC704780B483B000AF78600B467B8013463B807B687A881A827B683A885A8200BF0C37BD4680BC704700BF80B483B000AF78607B681B89DBB2184690
:405080000C37BD4680BC704790B486B000AF786039603B68002B0AD07B689B69002B59D17B685B8906339AB27B685A8152E07B689B69002B3ED07B680022DA833B6808339D
:4050C0001B78BB753B6809331B787B75BB7DFB7525E0FA7DBB7DD31ADA003B68043318CB13443B613B6903331B78FB733B6906331B78BB73FA7B97F90E3013447A68D28B66
:40510000934209DDFB7B1AB297F90E301BB213441BB29AB27B68DA83FB7D0133FB75FA7D7B7D9A42D5D93B680A331B789AB27B689A830FE07B689B69002B05D07B685B89B6
:40514000063B9AB27B685A817B6808229A837B680022DA837B683A689A6100BF1837BD4690BC704780B588B000AFF860B9601346FB710023FB6129E0FB795A1EFB69D31AAD
:4051800018460BF025FD03461946154809F0D6FF034618460BF072FF0346BB61BB69BA68B2FBF3F37B61FB69FA6813447A69D2B23032D2B21A707B69BA6902FB03F31A4626
:4051C000BB689B1ABB60FB690133FB61FA79FB699A42D1DCFB7918462037BD4680BD00BF0000204180B58EB000AFF860B96011461A460B46FB711346BB71BB7918460BF0C6
:40520000E3FC034619465A4809F098FF3862396AB8680BF031FD03464FF07C5118460BF023FC034618460BF003FF034618460BF0CFFC0346396A18460BF0D2FD0346FB6198
:4052400000237B6300233B63396AF8690BF014FD034618460BF0ECFE0346FB620023BB6200237B62FB6A002B79DAFB6A5B42FB62BB6A5A1CBA621A46FB6813442D221A70FE
:405280007B6A01337B626AE03B6B002B1ED1FA797B6AD21ABB799A4218D17B6B002B0AD1BB6A0133BB62BB6A013BFA68134430221A7001237B63BB6A5A1CBA621A46FB68DD
:4052C00013442E221A7001233B6348E0FB795A1E7B6AD31A18460BF07BFC03461946244809F02CFF034618460BF0C8FE0346BB61FA6ABB6992FBF3F37B617B6B002B19D12E
:405300007B69002B0DDDBB6A5A1CBA621A46FB6813447A69D2B23032D2B21A7001237B6313E0BB6A5A1CBA621A46FB68134420221A700AE0BB6A5A1CBA621A46FB6813447F
:405340007A69D2B23032D2B21A707B69BA6902FB03F3FA6AD31AFB627B6A01337B62FA797B6A9A4290DCBB6A18463837BD4680BD0000204180B483B000AF78600B46FB70DB
:4053800013463B8000BF0C37BD4680BC704700BF80B582B000AF786039607B681BB23A6812B219460948FFF709F809490748FFF76BFE002201210548FFF746FE01210348A6
:4053C000FFF72EFE00BF0837BD4680BDB0E0FF1F1479010080B582B000AF78607B68002B04D10C490C48FFF74FFE0EE07B68012B04D10A490848FFF747FE06E07B68022BAE
:4054000003D107490448FFF73FFE00BF0837BD4680BD00BF14790100B0E0FF1F5C9B0100C0A0010080B584B000AF03460A46FB801346BB80BA88FB881946022000F04CF9FC
:405440000023FB6007E0084AFB68134400221A70FB680133FB60FB68B3F5806FF3DB00BF1037BD4680BD00BFD8E4FF1F80B582B000AF03460A46FB801346BB80FB88BA88F3
:405480001146184600F0E8F900BF0837BD4680BD80B584B002AF786039607B6819B23B681BB2074A528A019200930B46002200210348FFF715FA00BF0837BD4680BD00BF4B
:4054C000B0E0FF1F80B584B002AF0346FB71FB799BB203F003039BB21B019BB21AB2074B5B8A019310230093802300210348FFF7F7F900BF0837BD4680BD00BFB0E0FF1FC2
:4055000080B582B000AF03460A46FB801346BB80BA88FB8819460348FFF796FD00BF0837BD4680BDB0E0FF1F80B58AB002AFF860B9607A60FB707B68BB61FB7803F0030388
:405540001B010C337B61BB691BB27A6912B219461748FFF745FD7B6819B2FB789BB21B019BB21AB27B689BB2C3F180039BB218B20F4B5B8A01931023009303460C48FFF719
:40558000AFF90023FB610AE0FB69FA6813441B7819460748FFF756FCFB690133FB61FA69BB689A42F0DB00BF2037BD4680BD00BFB0E0FF1F80B584B000AF78600B46FB70A4
:4055C0007B68FB60FB7803F003031B010C33BB60FB681BB2BA6812B219460548FFF700FD3E210348FFF72EFC00BF1037BD4680BDB0E0FF1F80B586B002AF78603960134B2D
:405600005B8A0193202300938023002200210F48FFF766F9142204210C48FFF7E1FC0023FB600AE0FB687A6813441B7819460748FFF708FCFB680133FB60FA683B689A42F5
:40564000F0DB00BF1037BD4680BD00BFB0E0FF1F80B586B000AFF860B9607A60FB70BB68DBB21A46F9680748FFF77CFD7861FB787A6879690348FFF757FF00BF1837BD46F5
:4056800080BD00BF90E0FF1F80B586B000AFF860B9607A603B60BB68DAB27B68DBB2F9680748FFF79FFD786197F820303A6879690348FFF739FF00BF1837BD4680BD00BF3D
:4056C00090E0FF1F80B500AF0248FFF79DFC0346184680BDB0E0FF1F80B582B000AF0346FB710B46BB8013467B804F4AFB791370AE2000F09BF8D52000F098F8802000F03C
:4057000095F8A82000F092F87B88DBB2013BDBB2184600F08BF8D32000F088F8002000F085F8402000F082F88D2000F07FF8FB79012B03D1102000F079F802E0142000F097
:4057400075F8202000F072F8002000F06FF8A12000F06CF8C82000F069F8BB88802B0ED17B88202B0BD1DA2000F060F8022000F05DF8812000F05AF88F2000F057F8BB88A9
:40578000802B15D17B88402B12D1DA2000F04EF8122000F04BF8812000F048F8FB79012B03D19F2000F042F802E0CF2000F03EF8BB88602B15D17B88102B12D1DA2000F08E
:4057C00035F8022000F032F8812000F02FF8FB79012B03D1102000F029F802E0AF2000F025F8D92000F022F8FB79012B03D1222000F01CF802E0F12000F018F8DB2000F07A
:4058000015F8402000F012F8A42000F00FF8A62000F00CF82E2000F009F8AF2000F006F800BF0837BD4680BDD8E8FF1F80B582B000AF0346FB71074B00221A70054AFB79E8
:405840005370002202213C20FDF7D2FA00BF0837BD4680BD50DEFF1F80B586B000AF7860396000F071F80020FFF7E0FF1020FFF7DDFF4020FFF7DAFF0023FB730223BB738C
:405880003B68DB103B607B68DB107B600023BB6000237B750023FB7549E0FA7DFB7B1344DBB2503BDBB21846FFF7C0FFBB7B03F00F03DBB21846FFF7B9FFBB7B1B09DBB252
:4058C00043F01003DBB21846FFF7B0FF1C4B40221A700023BB7524E000233B610EE03B6901337A7D796801FB02F13A690A441549895C134AD1543B6901333B613A697B682C
:405900009A42ECDB7B7D01337B757B689BB201339BB2002219463C20FDF76AFABB7D0133BB75BB7D072BD7D9FB7D0133FB75FA7D3B689A42B1DB00BF1837BD4680BD00BF61
:4059400050DEFF1FD8E4FF1F80B500AF0021002000F002F800BF80BD80B582B000AF03460A46FB711346BB7197F90630002B01DA7F23BB71FB79072B01D90723FB71212065
:40598000FFF754FFBB791846FFF750FF7F20FFF74DFF2220FFF74AFFFB791846FFF746FF0320FFF743FF00BF0837BD4680BD00BFB0B58EB002AF09F035FA0346002B29D116
:4059C0009A4B1B78002B25D0012009F04BFA002009F066FA964B00221A70964B01221A700023FB6210E0944AFB6A134401221A70FB6A0833914A32F91310904AFB6A22F843
:405A00001310FB6A0133FB62FB6A072BEBDD8C4B00221A7009F016FA0346002B29D1834B1B78002B25D0002009F01CFA012009F037FA7F4B08221A707E4B01221A700023E2
:405A4000BB6210E0BB6A08337B4A0121D154BB6A08337A49BA6A31F91210784A22F81310BB6A0133BB62BB6A072BEBDD744B00221A7005F0FFFF0346FB77FB7F03F01003ED
:405A8000002B24D16F4B1B68042B03DD6D4B04221A600CE06C4B1B78002B08D0694B1B68002B04DD674B1B68013B664A1360012008F098FD002008F0B3FD002008F0CEFDB9
:405AC000002008F0E7FD604B00221A7007E0FB7F03F01003002B02D05B4B01221A7005F01BFD0346002B0ED1564B05221A60002008F078FD012008F093FD002008F0AEFD01
:405B0000002008F0C7FD05F017FD0346002B0ED14C4B06221A60002008F064FD002008F07FFD012008F09AFD002008F0B3FDFB7F03F02003002B24D1424B1B68062B03DC9F
:405B4000404B07221A600CE0404B1B78002B08D03C4B1B680A2B04DC3A4B1B680133394A1360002008F03EFD002008F059FD002008F074FD012008F08DFD344B00221A7081
:405B800007E0FB7F03F02003002B02D02F4B01221A7008F0F1FD0346002B69D12C4B00221A702B4B1B781A462A4B9A5C2A4B1A70284B1B785B01DAB2264B5B789B00DBB266
:405BC0001344DAB2224B1B781344DAB2234B1A70224B1B7840F2E371184608F00BFE1C4B1B781A461E4B9A5C1E4B1A701D4B1A78174B1B789BB203F2DC739BB219461046D4
:405C000008F0F8FD174B1B7840F2D671184608F0F1FD002008F058FD012008F091FD124B1B78002B22D102F023FD21E08183FF1F2C84FF1FB483FF1FE093FF1FA893FF1F61
:405C40008083FF1FD480FF1FDD81FF1FDE81FF1FB583FF1FD880FF1F6483FF1FB683FF1FDC80FF1FA683FF1FB783FF1F00F0FCFD08F092FD0346002B49D1834B01221A70DE
:405C8000814B1B781A46814B9A5C814B1A707F4B1B785B01DAB27D4B5B789B00DBB21344DAB2794B1B781344DAB27A4B1A70794B1B7840F2E371184608F09CFD724B1B787D
:405CC0001A46754B9A5C754B1A70744B1A786E4B1B789BB203F2DC739BB21946104608F089FD6E4B1B7840F2D671184608F082FD012008F0E9FC002008F022FD684B1B7881
:405D0000002B02D102F0B4FC01E000F0ADFDFB7F03F04003002B1DD1624B1B78002B19D0614B1B78002B0CBF01230023DBB21A465D4B1A705C4B1B78184608F035FC5A4B2A
:405D40001B7840F2E271184608F054FD554B00221A7007E0FB7F03F04003002B02D0514B01221A70FB7F03F00103002B09D14F4B1B78002B05D002F065F94C4B00221A7005
:405D800007E0FB7F03F00103002B02D0474B01221A70FB7F03F00203002B09D1444B1B78002B05D002F09CF9414B00221A7007E0FB7F03F00203002B02D03D4B01221A706C
:405DC000FB7F03F00403002B09D13A4B1B78002B05D002F0D3F9374B00221A7007E0FB7F03F00403002B02D0324B01221A70FB7F03F00803002B09D12F4B1B78002B05D01A
:405E000002F0FAF92C4B00221A7007E0FB7F03F00803002B02D0284B01221A7008F0CCFC0346002B1AD1254B1B78002B16D01C4B1B78002B0CBF01230023DBB21A46184B24
:405E40001A70174B1B78002B02D000F0B3FC01E000F00AFD194B00221A7007E008F0ACFC0346002B02D0154B01221A7097F91F30002B27DB124B1B78002B23D002F0FAF946
:405E80000F4B00221A7024E0B583FF1FD880FF1F6483FF1FB683FF1FDC80FF1FA683FF1FB783FF1FE481FF1FA483FF1FE081FF1FE181FF1FE281FF1FE381FF1FDC81FF1F52
:405EC000DF81FF1F97F91F30002B02DA954B01221A70954B1B68954A1360954B1B78002B00F04984934B1B78002B00F0448408F037FE0346BB77904B93F90030012B40F0B2
:405F0000A0808E4B93F9003097F91E209A4200F098808B4B1B78002B6BD100210120FFF7EFFA884B5B8A0193202300932E23202254218448FEF7D4FC0120FFF74BFA824B25
:405F400093F90030DCB208F00BFE0346DBB2E31ADBB25AB27C4B1A707B4B93F90030002B08DA794B93F90030DBB23B33DBB25AB2754B1A70744B93F900303A2B08DD724BAA
:405F800093F90030DBB23B3BDBB25AB26E4B1A70002008F0F1FD3A2254216A48FFF720F8694B1B787B777B7F684AA2FB0323DB083B773B7F3033DBB219466248FEF742FF89
:405FC0003B7F1A465201D21A9200D31A5B00DAB27B7F1344DBB27B777B7F3B773B7F3033DBB219465748FEF72DFF594B01221A7027E0534B1B78013BFB76FC7EFB7E554AD5
:40600000D55C08F0ADFD0346DBB2EB1ADAB2514B1A55002008F0B0FD00210120FFF770FA0020FFF7D7F9322200214648FEF7D8FF022300220E214748FFF776FA444B0122E2
:406040001A703D4B93F90030062B40F032813B4B93F9003097F91E209A4200F02A8100210120FFF74DFA0220FFF72CFA0320FFF729FA4FF07E537B62374B1B78012B01D1BE
:40608000364B7B620120FFF7A5F9354B1C6808F067FD034618460AF09BFD0346796A18460AF0EAFD0346194620460AF0DBFC03461A462B4B1A60002008F05EFD284B1B68E8
:4060C000284918460AF076FF0346002B03D0244B244A1A600BE0224B1B68234918460AF087FF0346002B02D01D4B1F4A1A601C4B1B683B62352214211248FEF771FF184BD9
:406100001B684FF0000118460AF054FF0346002B2CD02D210B48FEF795FE3B6A83F000433B6227E0DF81FF1FD480FF1F6883FF1FB783FF1F2584FF1FDCE8FF1F2484FF1F99
:406140002B84FF1FB0E0FF1F2583FF1FCDCCCCCCB383FF1FE881FF1F2684FF1F0AD7233C2883FF1F000040C1000040412021C148FEF768FEC04B1B78002B0ED101210020F0
:40618000FFF7BEF9BB4B5B8A0193192300931E2322222021B748FEF7A3FBB849386A0AF06BFD034618460AF069FF0346BB76BB7E18460AF00DFD0346B14918460AF05CFD75
:4061C00003461946386A0AF04DFC03463B62BB7E3033DBB21946A748FEF734FE386A0AF04DFF0346BB76BB7E3033DBB21946A148FEF728FE00210120FFF782F92E219D48B9
:40620000FEF720FE9C4B1B78002B0ED001210020FFF776F9974B5B8A0193192300931E23222246219348FEF75BFBBB7E18460AF0CFFC03461946386A0AF014FC03463B624F
:406240008F49386A0AF018FD034618460AF016FF0346BB76BB7E3033DBB219468548FEF7F1FDBB7E18460AF0B3FC0346834918460AF002FD03461946386A0AF0F3FB034606
:406280003B628049386A0AF0F7FC034618460AF0F5FE0346BB76BB7E3033DBB219467548FEF7D0FD00210120FFF72AF9764B01221A70764B93F900300C2B40F0A180744B47
:4062C00093F9003097F91E209A4200F0998000210120FFF715F90220FFF7F4F80320FFF7F1F84FF07E537B610120FFF773F8694B93F90030DCB208F033FC0346DBB2E31A7D
:40630000DBB25AB2634B1A70002008F035FC614B93F9003018460AF051F84FF000024FF000030AF023FB0346002B03D0594B00221A7010E0574B93F9003018460AF03EF82C
:406340004FF00002544B0AF02FFB0346002B02D0504B64221A7000210120FFF7D1F8352214214448FEF73CFE20214248FEF76AFD484B1B78FB7497F91330484A82FB03122D
:406380005211DB17D31A5BB2BB74BB7C1A4692001A44D200D31A9B00DAB2FB7C1344DBB2FB74BB7C3033DBB219463248FEF74AFDFB7C3B4AA2FB0323DB08BB74BB7C303381
:4063C000DBB219462B48FEF73DFDBB7C1A465201D21A9200D31A5B00DAB2FB7C1344DBB2FB74FB7CBB74BB7C3033DBB219462148FEF728FD2B4B01221A70234B01221A701C
:40640000224B93F90030082B40F0E080204B93F9003097F91E209A4200F0D88000210120FFF76EF80220FFF74DF80320FFF74AF80120FEF7CFFF1C4B1B783B823C8A08F0A8
:406440008FFB03469BB2E31A9BB23B82002008F093FBB7F91030002B03DA134B00221A7028E0B7F91030642B20DD0F4B64221A7020E000BFB0E0FF1F2684FF1FCDCCCC3D88
:40648000000020410000C842B383FF1FDCE8FF1F2484FF1F2C83FF1F000059401F85EB51CDCCCCCC2D83FF1F5481FF1F3B8ADAB2B34B1A70F9F744FE35221E21B148FEF7AE
:4064C0008FFDAF4B1B7818460AF07EFB0346AE4918460AF0D1FB0346FB60AC49F8680AF0CBFB034618460AF0C9FD0346FB72FB7A18460AF06DFB0346A54918460AF0BCFBFD
:4065000003461946F8680AF0ADFA0346FB60FB7A3033DBB219469B48FEF794FCF8680AF0ADFD0346FB72FB7A3033DBB219469548FEF788FC2E219348FEF784FCFB7A18469C
:406540000AF046FB03461946F8680AF08BFA0346FB608F49F8680AF08FFB034618460AF08DFD0346FB72FB7A3033DBB219468548FEF768FCFB7A18460AF02AFB0346834927
:4065800018460AF079FB03461946F8680AF06AFA0346FB607F49F8680AF06EFB034618460AF06CFD0346FB72FB7A3033DBB219467448FEF747FC25217248FEF743FC0021AD
:4065C0000120FEF79DFF744B01221A70734B93F90030092B40F0CC80714B93F9003097F91E209A4200F0C48000210120FEF788FF0220FEF7EFFE6B4B1B781A466A4B9B5CE6
:406600003B813C8908F0ACFA03469BB2E31A9BB23B81002008F0B0FAB7F90830002B06DA604B1B781A46604B0021995411E0B7F90830092B06DD5B4B1B781A465A4B09213B
:40664000995406E0574B1B781A463B89D9B2564B9954554B1B780133DBB23B71524B5B780133DBB27B710323002203214F48FEF75BFF4C4B1B78002B0ED101210020FEF75B
:406680003FFF404B5B8A0193102300931023302218213C48FEF724F93B79454AA2FB0323DB08FB71FB793033DBB219463548FEF7C9FB3A79FB7919464901C91A8900CB1A0F
:4066C0005B00DBB21344FB71FB793033DBB219462C48FEF7B7FB00210120FEF711FF20212848FEF7AFFB53212648FEF7ABFB32212448FEF7A7FB3D212248FEF7A3FB294BD8
:406700001B78002B0ED001210020FEF7F9FE1D4B5B8A0193102300931023302248211948FEF7DEF87B79224AA2FB0323DB08FB71FB793033DBB219461248FEF783FB7A79D9
:40674000FB7919464901C91A8900CB1A5B00DBB21344FB71FB793033DBB219460948FEF771FB00210120FEF7CBFE0B4B01221A700B4ABB7F137000BF3037BD46B0BD00BF21
:406780005481FF1FB0E0FF1FCDCC4C3ECDCCCC3D000020410000C842B383FF1FDCE8FF1F2484FF1F2784FF1FD080FF1F44C50300CDCCCCCC80B500AF40218020FEF768FE58
:4067C0000220FEF707FE01210020FEF799FE002300220F211E48FEF7A7FE00210020FEF7E9FE00210120FEF78BFE012300220F211848FEF799FE00210120FEF781FE022320
:4068000000220F211448FEF78FFE00210120FEF777FE124B01221A70114B01221A70104B1B78184607F06EFF0E4B00221A700D4B00225A700B4B00229A700A4B0022DA702D
:40684000084B00221A71074B00225A7100BF80BD58C603006CC6030080C60300B383FF1FB783FF1FDCE8FF1F90B583B000AF624B1B78012B01D101F079FD604B1B78012B7A
:4068800001D101F087FE5E4B93F90030062B34D15C4B1B6818460AF0CBFB03465AB25A4B1A70584B1C68584B93F9003018460AF08FF90346194620460AF0D4F8034653490A
:4068C00018460AF0D9F9034618460AF0B1FB03465AB24F4B1A704C4B93F90030DBB24FF4FB61184607F086FF494B93F90030DBB240F2D971184607F07DFF414B93F90030DD
:40690000072B06D1434B1B7840F2DA71184607F071FF3B4B93F90030082B06D13E4B1B7840F2DB71184607F065FF354B93F90030092B12D1394B1B781B01DAB2374B5B78E5
:4069400003F00F03DBB21344FB71FB7940F2D771184607F04FFFF9F77FFC294B93F900300A2B06D12E4B1B7840F2DE71184607F041FF234B93F900300B2B1CD1294B1B7814
:406980009B00DBB203F00403DAB2274B1B785B00DBB203F00203DBB21344DAB2234B1B7803F00103DBB21344BB71BB7940F2DF71184607F01FFF124B93F900300C2B08D17A
:4069C0001B4B93F90030DBB240F2E471184607F011FF184B00221A7008F0A4F8164B00221A70154B1B78184607F08CFE01F040FE00BF0C37BD4690BDB883FF1FB983FF1F46
:406A0000DCE8FF1F2883FF1F2683FF1F0000C8422783FF1F3383FF1F5481FF1FD080FF1FB283FF1F8283FF1F2F83FF1F2E83FF1F2C83FF1F2584FF1FB783FF1F80B58CB06B
:406A400002AF0346FB71002387F827309E4B93F90030002B51D1FB79032B15D19A4B93F90130DBB2013BDBB25AB2974B5A70964B93F90130002B02DA934B00225A700123FA
:406A800087F8273001F0E6B8FB79022B1CD18E4B93F90130DBB20133DBB25AB28A4B5A70894B93F901301A46884B1B789A4206DB864B1B78013BDBB25AB2834B5A7001234B
:406AC00087F8273001F0C6B8FB79012B03D0FB79042B41F0BF807C4B93F90130DBB20133DBB25AB2784B1A70774B93F90030DBB2013387F8273001F0ADB8734B93F90030BB
:406B0000022B69D1FB79032B15D16F4B93F90330DBB2013BDBB25AB26B4BDA706A4B93F90330002B02DA684B0022DA70032387F8273001F08FB8FB79022B1CD1624B93F9F6
:406B40000330DBB20133DBB25AB25F4BDA705E4B93F903301A465E4B1B789A4206DB5C4B1B78013BDBB25AB2574BDA70032387F8273001F06FB8FB79012B02D0FB79042BAF
:406B80001ED1514B93F90330002B09D14E4B04221A70002387F8273001F090FB01F057B8494B93F90330012B41F05180464B05221A70002387F8273001F09CFC01F047B893
:406BC000FB79002B41F046803F4B00221A70012387F8273001F03EB83B4B93F90030032B40F0B183FB79032B15D1374B93F90530DBB2013BDBB25AB2334B5A71324B93F995
:406C00000530002B02DA304B00225A71042387F8273001F01FB8FB79022B1CD12A4B93F90530DBB20133DBB25AB2274B5A71264B93F905301A46274B1B789A4206DB254BCC
:406C40001B78013BDBB25AB21F4B5A71042387F8273000F0FFBFFB79012B03D0FB79042B40F06583184B93F90530002B3ED1164B06221A7007F046FF002387F82730164B97
:406C800001221A7040218020FEF702FC0220FEF7A1FB00210120FEF733FC002300220F210E48FEF741FC012300220F210C48FEF73BFC0C4B7F221A70002007F05DFF0A4BDD
:406CC00001221A7000F0C5BFDCE8FF1FF681FF1FF781FF1FF881FF1F2584FF1F94C60300A4C603002484FF1FB383FF1FA74B93F90530012B46D1A54B07221A70402180208A
:406D0000FEF7C6FB0220FEF765FB00210120FEF7F7FB002300220F219D48FEF705FC9D4B1B789AB29B4B1B78002B0CBF01230023DBB29BB219461046FEF7E2FB0123002289
:406D40000F219548FEF7F0FB924B1B78002B0CBF01230023DBB29AB28E4B1B789BB219461046FEF7CDFB022300220F218B48FEF7DBFB00210120FEF7C3FB894B01221A70EA
:406D800000F067BF814B93F90530022B2CD17F4B08221A7007F0B6FE002387F82730814B01221A7040218020FEF772FB0220FEF711FB00210120FEF7A3FB002300220F219B
:406DC0007948FEF7B1FB012300220F217748FEF7ABFB774B7F221A70002007F0CDFE704B01221A7000F035BF684B93F90530032B35D1664B09221A7007F084FE002387F81D
:406E00002730684B01221A7040218020FEF740FB0220FEF7DFFA00210120FEF771FB002300220F216348FEF77FFB012300220F216148FEF779FB022300220F215F48FEF7AD
:406E400073FB5B4B7F221A70002007F095FE544B01221A705A4B00221A7000F0FABE4B4B93F90530042B45D1484B0A221A70002387F8273040218020FEF70AFB0220FEF7F4
:406E8000A9FA00210120FEF73BFB002300220F214C48FEF749FB4C4B1B789AB24A4B1B78002B0CBF01230023DBB29BB219461046FEF726FB012300220F214448FEF734FBDA
:406EC000414B1B78002B0CBF01230023DBB29AB23D4B1B789BB219461046FEF711FB022300220F213A48FEF71FFB2D4B01221A7000F0AFBE254B93F90530052B40F04F8154
:406F0000224B0B221A70002387F8273040218020FEF7BEFA0220FEF75DFA00210120FEF7EFFA002300220B212A48FEF7FDFA2A4B93F90030002B0CBF01230023DBB2FB73C0
:406F4000FB7B9BB20193102300932523002250212248FDF7C5FCFB7B002B0CBF01230023DBB29BB2FA7B92B211461846FEF7C8FA1B4B1B78002B35D04F211848FDF762FFFA
:406F80004E211648FDF75EFF38E000BFDCE8FF1FB4C603003383FF1FC4C60300D4C60300B383FF1F2584FF1F94C60300E4C603002484FF1FF4C6030004C7030014C703002B
:406FC0002784FF1F24C70300B283FF1F34C7030044C7030054C703002884FF1FB0E0FF1F2E83FF1F4F21AA48FDF72CFF4621A848FDF728FF4621A648FDF724FF0021012075
:40700000FEF77EFA012300220B21A248FEF78CFAA14B93F90030012B0CBF01230023DBB2FB73FB7B9BB20193102300932523102250219748FDF754FCFB7B002B0CBF012370
:407040000023DBB29BB2FA7B92B211461846FEF757FA924B1B78002B08D04F218C48FDF7F1FE4E218A48FDF7EDFE0BE04F218848FDF7E8FE46218648FDF7E4FE4621844862
:40708000FDF7E0FE00210120FEF73AFA022300220B218348FEF748FA7F4B93F90030022B0CBF01230023DBB2FB73FB7B9BB20193102300932523202250217548FDF710FC89
:4070C000FB7B002B0CBF01230023DBB29BB2FA7B92B211461846FEF713FA724B1B78002B08D04F216A48FDF7ADFE4E216848FDF7A9FE0BE04F216648FDF7A4FE4621644813
:40710000FDF7A0FE46216248FDF79CFE00210120FEF7F6F9032300220B216348FEF704FA5D4B93F90030032B0CBF01230023DBB2FB73FB7B9BB20193102300932523302290
:4071400050215348FDF7CCFBFB7B002B0CBF01230023DBB29BB2FA7B92B211461846FEF7CFF9524B1B78002B08D032214848FDF769FE34214648FDF765FE0BE03421444819
:40718000FDF760FE38214248FDF75CFE20214048FDF758FE464B01221A7000F05ABD454B93F90530062B40F09180424B0C221A7007F0A8FC002387F8273040218020FEF762
:4071C00067F90220FEF706F900210120FEF798F9002300220A213848FEF7A6F900210120FEF78EF90120FEF7F5F8352214212848FDF7F6FE20212648FDF724FE2F4B1B7856
:40720000BB7397F90E302E4A82FB03125211DB17D31A5BB27B737B7B1A4692001A44D200D31A9B00DAB2BB7B1344DBB2BB737B7B3033DBB219461648FDF704FEBB7B214A5D
