:400000000080002011000000716300007163000080B500AF024A034B1B68136006F0DCF9BC760040FA46004010B5054C237833B9044B13B10448AFF300800123237010BD94
:400040008082FF1F00000000C4030100084B10B51BB108490848AFF300800848036803B910BD074B002BFBD0BDE81040184700BF000000008482FF1FC4030100C880FF1F00
:400080000000000090B583B000AF554B1B78DBB2002B0CBF01230023DBB21A46504B1A704F4B1B78DBB2002B0CBF01230023DBB219464C4A1A2303FB01F313441B78DBB2EB
:4000C000FE2B4FD1464B1B78DBB2002B0CBF01230023DBB21946434A1A2303FB01F3134419331B78DBB2FD2B3CD100237B6034E03B4B1B78DBB2002B0CBF01230023DBB2A7
:4001000018467B685B00013336491A2202FB00F20A4413441B78DBB29BB21B029AB2304B1B78DBB2002B0CBF01230023DBB21C467B6801335B002B481A2101FB04F10144AD
:400140000B441B78DBB29BB2134499B2264A7B6822F813107B6801337B60244B1B687A689A42C5DB09F07EF8214B1B78184607F091F81B4B1B78DBB21A461E4B985C02239B
:40018000FE221A2107F0C0F9154B1B78DBB21A46184B985C124B1B78DBB21A461A2303FB02F3104A13449BB21A4646F2555107F0EBF90F4B1A780A4B1B78DBB219460D4BC1
:4001C0005B5C1946104607F003F9094B1B780121184607F019F800BF0C37BD4690BD00BFF482FF1F20ACFF1F2099FF1FD080FF1F0CACFF1F4484FF1F80B500AF214B1B78BE
:40020000DBB2002B0CBF01230023DBB21A461D4B1A7009F0E1F81C4B1B78184607F03AF8184B1B78DBB21A46184B985C0623FE22082107F069F9134B1B78DBB21A46134B81
:40024000985C104B1B78DBB2DB00114A13449BB21A4646F2584107F097F90B4B1A78094B1B78DBB21946094B5B5C1946104607F0AFF8054B1B780121184606F0C5FF00BF88
:4002800080BD00BFF582FF1FE0A1FF1F00ACFF1F00CAFF1F80B500AF09F030F90BF01EFB00F002F800BF80BD80B500AF184B02221849002006F096F903461A46164B1A7057
:4002C00009F0B4FC0346012B20D1124B1B78DBB2012B0CD1114B00221A700D4B02220F49002006F005FB0E4B01221A700EE00B4B01221A70064B02220849002006F0F8FAB2
:4003000009F092FA08F01CF807F034FB00BF80BDC8D4FF1F0C83FF1F80C8FF1F1083FF1FDC82FF1F80B582B000AF7860134978680EF07AFA0346002B02D04FF0000319E0F3
:400340000F4978680EF084FA0346002B04D00C48FFF7E8FF03460DE00A4978680EF0BCF8034618460CF036F90346074918460EF0B3F8034618460837BD4680BD0080BBC49E
:400380000060BB4420986C3D13D0024180B582B000AF78604FF0000178680EF059FA0346002B0ED0094978680EF096F8034618460CF082F90346064918460EF08DF8034608
:4003C00000E0044B18460837BD4680BDD27EFA3DAC7F8A410080BBC4B0B584B000AFF860B9607A603B603968386A0DF06BFF03461C46B968F8680DF065FF03461D46B96843
:4004000078680DF05FFF0346194628460EF018F90346194620460EF05FF80346396818460DF052FF034618461037BD46B0BD00BF90B583B000AF00237B6067E0374A7B6876
:4004400032F8133018460DF0EFFF0446344A7B6832F8133018460DF0E7FF0346194620460DF030FF03463B602D4A7B6832F8133018460DF0D9FF04462A4938680EF02CF8D6
:400480000346194620460DF01FFF034618460EF025FA034699B2244A7B6822F813101F4A7B6832F8133018460DF0BEFF04461D4938680EF011F80346194620460DF002FFF9
:4004C000034618460EF00AFA034699B2174A7B6822F81310154A7B6832F813301946124A7B6832F81330CB1A18460DF0A1FF03463B6039680E480EF0A3F8034619460D4A31
:400500007B6842F823107B6801337B607B68092B94DD00BF0C37BD4690BD00BF0881FF1FF480FF1FCDCCCC3D1C81FF1F3081FF1F00F07F453899FF1FB0B5ACB002AF62B64E
:400540000BF06EFC944B18460BF09AF903461A46924B1A70002387F8373007F0DBFE012009F044FB8E4808F07BFF4FF47A7007F011FA40F2F2700BF0E3FC03461A46894BA7
:400580001A7040F2FE700BF0DBFC03461A46864B1A70854B1B785B09DAB2844B1A70824B1B789B08DBB203F00703DAB27F4B5A707D4B1B7803F001037D4A136040F2F470C0
:4005C0000BF0BEFC03465AB27A4B1A7040F2F5700BF0B6FC03465AB2774B1A70754B93F9003018460DF024FF0446734B93F9003018460DF01DFF0346704918460DF06CFFC0
:400600000346194620460DF05FFE03461A466C4B1A6040F2FA700BF093FC034603F00103DAB2684B1A7040F2FA700BF089FC034603F00203DAB2644B1A704FF4FF600BF08A
:400640007FFC03461A46614B1A7040F2F9700BF077FC03461A465E4B1A7040F2F7700BF06FFC03461A465B4B1A7040F2F6700BF067FC03461A46584B1A7040F2F3700BF007
:400680005FFC03461B09DAB2544B1A7040F2F3700BF056FC034603F00F03DAB24F4B5A7040F2FD700BF04CFC034603F00103DAB24B4B1A7040F2FB700BF042FC03469BB263
:4006C0001B029CB240F2FC700BF03AFC03469BB22344BB860023C7F8A43015E0BB8E5AB20121D7F8A43001FA03F35BB213405BB2D9B23C4AD7F8A43013440A461A70D7F8AB
:40070000A4300133C7F8A430D7F8A430092BE5DD0023C7F8A030E4E00023C7F89C3027E0D7F8A0309BB21A4612011A4492001A44520013445B009AB2D7F89C309BB213441E
:400740009BB218460BF0FCFB034618462649D7F8A0201346DB009B1A5B00CA18D7F89C30134402461A70D7F89C300133C7F89C30D7F89C300D2BD3DD0023C7F89830A6E040
:40078000D7F8982013465B001344DB003B630023C7F8943092E000BF0004010080C8FF1F950200003C83FF1F8483FF1FD880FF1F8083FF1FAB82FF1FAC82FF1F0AD7233CE5
:4007C000D482FF1FAD82FF1FAE82FF1FAF82FF1FB082FF1FB182FF1FB282FF1FCC80FF1F2F83FF1F4083FF1F88C8FF1FD7F894305B00FB62FB6A9AB23B6B9BB213449AB28D
:40080000D7F8A0309BB21946090119448900194449000B445B009BB213449BB20E339BB218460BF08DFB03467B85FB6A9AB23B6B9BB213449AB2D7F8A0309BB219460901E8
:4008400019448900194449000B445B009BB213449BB20F339BB218460BF072FB03463B857B8D1A023B8D134418460DF0E1FD03464FF06E5118460DF02FFE03464FF0864159
:4008800018460DF01FFD03461C467E48D7F89830D7F8A0101A4652001A4493001A460B465B010B449B001A44D7F89430134440F82340D7F894300133C7F89430D7F89430E0
:4008C0000B2B93DDD7F898300133C7F89830D7F898300A2B7FF754AFD7F8A0300133C7F8A030D7F8A030062B7FF716AF0023C7F8903049E0D7F890309BB29B009BB203F2CA
:400900009A739BB218460BF01BFB03469BB21B029CB2D7F890309BB29B009BB203F29B739BB218460BF00CFB03469BB2234499B2554AD7F8903022F81310D7F8903003F242
:40094000E7139BB29B009BB218460BF0F9FA03469BB21B029CB2D7F890309BB29B009BB203F29D739BB218460BF0EAFA03469BB2234499B2454AD7F8903022F81310D7F836
:4009800090300133C7F89030D7F89030092BB1DDFFF74EFD0023C7F88C304AE0D7F88C309BB29B009BB203F2C2739BB218460BF0C7FA03469BB21B029CB2D7F88C309BB240
:4009C0009B009BB203F2C3739BB218460BF0B8FA03469BB2234499B22D4AD7F88C3022F81310D7F88C3003F2F1139BB29B009BB218460BF0A5FA03469BB21B029CB2D7F884
:400A00008C309BB29B009BB203F2C5739BB218460BF096FA03469BB2234499B21C4AD7F88C300C3322F81310D7F88C300133C7F88C30D7F88C300B2BB0DD0023C7F888308B
:400A400058E00023C7F8843011E01249D7F888201346DB009B1A5B00CA18D7F884301344FF221A70D7F884300133C7F88430D7F884300D2BE9DD0023C7F880302BE00023CF
:400A8000FB6720E0DC84FF1FF480FF1F0881FF1F8497FF1F9C93FF1F9348D7F88030D7F888101A46D200D21A53001A460B46DB005B1A1B011344C218FB6F1344FF221A70AB
:400AC000FB6F0133FB67FB6F0D2BE5DDD7F880300133C7F88030D7F88030072BCFDD834AD7F88830002142F82310D7F888300133C7F88830D7F888303F2BA2DD00200BF074
:400B000071F801200BF08CF800200BF0A7F800200BF0C0F8764B1B7818460BF045F8754B1B68DBB218460BF0CFF8724B1B68002B0CBF01230023DBB218460BF001F908F0F0
:400B400075F808F08BF86B4B1B686B4AD25C6B4B1A700A2006F01EFF694B40221A7000220121702001F062FC03461A46654B1A604021802004F0C0FE002004F0DFFE402159
:400B8000802004F003FF5D4B1B78184603230022022105F011F805F02BF8024603230121594804F075FF554B1B781A461346DB009B1A5B00554A9C1805F01AF8024603234D
:400BC0000A21204604F064FF4021802004F002FF4B4B04221A7000220121702001F026FC03461A46474B1A600023BB6715E0BB6FDBB20833DAB2424B1A7000220121722090
:400C000001F014FC03461A463E4B1A602021802004F0BCFEBB6F0133BB67BB6F072BE6DD374B04221A7000220121702001F0FEFB03461A46334B1A60354B09221A70304B98
:400C40000F221A7000220121352001F0EFFB03461A462C4B1A6008F0D7FA07F013FA08F08DFB01F0F3FA01F029FB2A480AF0F8FE29480AF0A7FE294BFE229A77274BFD22C3
:400C8000DA77234B00221A70254B1B78DBB2002B01D001F0F1FE01200AF030FF1C4B1B78DBB21A461F4B13F812201F4B1B789A4248D0174B1B78DBB21A461A4B13F8123000
:400CC0001A4601239340DAB20D4B1A70104B1B78DBB21A46134B13F81230052B26D101210C2008F07DF925E080ACFF1F1C98FF1F2F83FF1F8083FF1FD880FF1FE682FF1FB8
:400D0000ECC8FF1F00CBFF1F0008010088C8FF1F2D83FF1F85000000F901000074CAFF1FCA82FF1FDC80FF1F7C81FF1F0121042008F056F900220121702001F077FB0346CC
:400D400087F827307F4B1B78DBB21A467E4B13F812207E4B1A700A2006F03EFE794B1B78DBB21A46784B13F81230052B1DD1754B1B78DBB21A46764B9B5C002B15D1714B67
:400D80001B78DBB2704A5B0013445B781A4601239340DAB26F4B1A7000220121712001F045FB03461A466C4B1A600A2006F014FE644B1B78DBB2092B00F2A180614B1B7846
:400DC000DBB21A46624B9B5C002B40F09880614B0E221A7002220121362001F027FB03461A465D4B1A605C4B1B68002B08D101220221362001F08AFB03461A46564B1A600B
:400E0000554B1B68002B7AD14E4B1B78DBB21A46524B1B78DBB29BB21B0299B2504B23F812104E4B5B78D8B2464B1B78DBB219461A464B4B33F8122083B213449AB2484BF2
:400E400023F81120474B1B68002B58D03D4B1B78DBB21A46424B33F812203A4B1B78DBB21946414B33F811309A422AD2354B1B78DBB2002B17D1334B1B78DBB21A46384BC4
:400E800033F81230002B1CD02E4B1B78DBB21A462C4B1B78DBB21946314B33F81110324B23F812100DE0274B1B78DBB21A46254B1B78DBB219462A4B33F811102A4B23F81E
:400EC0001210204B1B78DBB21A46254B33F812201C4B1B78DBB21946244B33F811309A420DD9184B1B78DBB21A46164B1B78DBB219461B4B33F811101C4B23F81210114B20
:400F00001B78DBB2092B40F0C5800E4B1B78DBB21A460F4B9B5C002B40F003810D4B00221A7000221021352001F0F0FA03461A46094B1A60084B1B68002B40F0F28000231B
:400F40007B675FE02D83FF1FDC80FF1F7C81FF1F1C83FF1FECC8FF1F00CBFF1F4497FF1FC8A3FF1F8C83FF1FF480FF1F0881FF1F7B6F5B00874AD35CDBB29BB21B029AB205
:400F80007B6F5B0001338349CB5CDBB29BB213449BB2C3F30B033B803B881B099BB2DBB2DB43D9B27C4A7B6F13440A461A707A4A7B6F13441B785B08D9B2784A7B6F1344F4
:400FC0000A461A70754A7B6F13441A7874497B6F0B441B789A4209D07B6F581C6F4A7B6F13441B780022194601F0DCFC6B4A7B6F134419786A4A7B6F13440A461A707B6FD2
:4010000001337B677B6F072BB2DD664B1B68022B40F08780644B1B780833DAB2634B1A7000220121722001F001FA03461A46604B1A602021802004F0DFFC012004F07EFC47
:401040005C4B1B781946584B1B781A46D200D21A53001A460B46DB005B1A1B011344564A13440921184604F079FD2021802004F0B1FC4D4B1B780133DAB24B4B1A704A4BB1
:401080001B78072B4DD9474B00221A60464B00221A7046E0494B1B78DBB20A2B2AD1474B1B78DBB21A46464B9B5C002B39D13F4B00221A70002202214F2001F027FA0346BC
:4010C0001A463B4B1A603A4B1B68002B29D1314B1B78DBB29BB21B029AB23A4B1A802D4B5B78DBB29AB2374B1B8813449AB2354B1A8016E0314B1B78DBB20B2B11D1324BC5
:401100001B68002B06D04021802004F063FC2E4B00221A60234B1B68012B02D1214B02221A60264B1B78DBB2092B00F20981234B1B78DBB21A46254B33F812201F4B1B78CF
:40114000DBB21946224B33F81130D31A9BB2BB84B7F92430002B41DD184B1B78DBB21C46B7F9243018460DF063F9144B1B78DBB21A46184B53F8223019460DF0ADF903461A
:4011800018460DF0ABFB03469AB2134B23F814202CE000BF4497FF1F1C97FF1F6099FF1FD484FF1F5483FF1F0B83FF1FECC8FF1F00CBFF1F3C83FF1F80ACFF1F2D83FF1F79
:4011C0001C83FF1F4681FF1F5083FF1FC8A3FF1F1C81FF1F3899FF1F5C84FF1F934B1B78DBB21A46924B002123F812108F4B1B78DBB21A468E4B33F81230B3F5805F08D390
:401200008A4B1B78DBB21A46894B40F6FF7123F81210864B1B78DBB21A46864B9B5C002B11D0824B1B78DBB21A46804B1B78DBB219467F4B33F81130C3F57F630F3399B289
:401240007B4B23F81210794B1B78DBB21C46774B1B78DBB21A46764B33F8123018460DF0E3F80346744918460DF036F903461A46724B43F824206D4B1B78DBB21C466B4B1A
:401280001B78DBB21A466E4B9B5C1A46684B33F8123018460DF0C8F803464FF0765118460DF01AF9034618460DF018FB0346DAB2644B1A555D4B1B78DBB21A465B4B1B789B
:4012C000DBB219465F4B5B5C5B08D9B25E4B9954564B1B78DBB21A465B4B9A5C534B1B78DBB21946594B5B5C9A420ED04F4B1B78DBB203F10E004D4B1B78DBB21A46524BBD
:401300009B5C0122194601F04DFB484B1B78DBB21A46464B1B78DBB219464B4B595C4B4B9954424B1B78DBB21A46404B1B78DBB219463F4B33F81110454B23F812103DE033
:40134000444B1B8818460DF06FF80346424918460DF0C2F8034618460DF09AFA03461AB23E4B1A803D4BB3F90030002B03DA3B4B00221A8009E0394BB3F90030B3F5805FA2
:4013800003DB364B40F6FF721A80344BB3F900305B111BB2DAB2324B1A70314B1A78314B1B789A4206D02E4B1B78002219460D2001F0F8FA2A4B1A782A4B1A701B4B1B78FB
:4013C000DBB20133DAB2194B1A70184B1B78DBB20B2B02D9154B00221A7000200AF08EFB01200AF0C3FB204B1B78DBB2002B0CBF01230023DBB21D4ADB0013449B79DBB207
:40140000FE2B40F08381184B1B78DBB2002B0CBF01230023DBB2154ADB001344DB79DBB2FD2B40F0738100233B676BE12D83FF1F5C84FF1F4083FF1F010880395883FF1FCB
:401440008481FF1FC884FF1FA4CAFF1FC4CAFF1F4884FF1F4681FF1FC5F1803F0EACFF1F0883FF1F0983FF1FF582FF1F00CAFF1FA94B1B78DBB2002B0CBF01230023DBB2DD
:401480001A463B6F5B00A549D2000A4413441B78DBB29BB21B029AB29F4B1B78DBB2002B0CBF01230023DBB219463B6F5B0001339A48C90001440B441B78DBB29BB213441D
:4014C00099B2974A3B6F22F81310954A3B6F32F813309AB293493B6F31F813309BB29A4200F004818E4A3B6F32F813309BB24FF6FF7293420ED08A4A3B6F32F8133099B22C
:4015000089483A6F13465B001344DB0003441B88994206D9854A3B6F4FF07E5142F82310AAE07F4A3B6F32F8133099B27E483A6F13465B001344DB00034416331B8899429B
:4015400067D90023FB6660E0754A3B6F32F8133099B275483A6F13465B0013449B00FA6E134430F8133099424CD86D4A3B6F32F8133099B2FB6E581C6B4C3A6F13465B0007
:4015800013449B00034434F8133099423AD9644A3B6F32F813309BB218460CF045FF044661493A6F13465B0013449B00FA6E134431F8133018460CF037FF0546FB6E591CBE
:4015C00059483A6F13465B0013449B000B4430F8133018460CF028FF554AFB6E52F82310FB6E0133524A52F8233000930B46024629462046FEF7F0FE01464C4A3B6F42F8C0
:40160000231039E0FB6E0133FB66FB6E0A2B9BDD32E0434A3B6F32F813309BB218460CF003FF044640493A6F13465B001344DB000B4414331B8818460CF0F6FE05463A4934
:401640003A6F13465B001344DB000B4416331B8818460CF0E9FE0146354B9A6A344BDB6A009313460A4629462046FEF7B5FE01462E4A3B6F42F823102C4A3B6F52F8233084
:4016800019464FF07E500CF0DBFF03461946294A3B6F42F82310284B1B78002B26D0254A3B6F52F823304FF08C4118460CF014FF03464FF08C4118460CF004FE0346184608
:4016C0000DF0E6F80346A7F86A30B7F96A30B3F5804F03DB43F6FF73A7F86A30B7F96A203B6F0C331946104601F090F90C4A3B6F32F8133099B20B4A3B6F22F813103B6F1A
:4017000001333B673B6F012B7FF7B2AE00200AF02DFA00237B662CE0F582FF1F00CAFF1FD4CAFF1F84C8FF1F8497FF1F9899FF1F4C81FF1F6899FF1FAE82FF1F514A7B6ECF
:4017400032F813309AB250497B6E31F813309BB29A4202D0786E01F087F84A4A7B6E32F8133099B2484A7B6E22F813107B6E01337B66464B1B687A6E9A42DFDB02F01AF8F0
:4017800000233B6644E03B6E9BB2184607F06CFA03461B111BB2D9B23D4A3B6E13440A461A703B4A3B6E13441B78DB43D9B2384A3B6E13440A461A70354A3B6E13441B7833
:4017C0005B08D9B2334A3B6E13440A461A70314A3B6E13441A7830493B6E0B441B789A420AD03B6E03F109002A4A3B6E13441B780022194601F0D6F8264A3B6E13441978EF
:40180000254A3B6E13440A461A703B6E01333B663B6E032BB7DD01200AF08EF90023FB65DCE11E4B1B78002B40D01D4B1B889BB24FF6FF72934216D0194B5B889BB24FF6BB
:40184000FF7293420FD0F86D0CF0F2FD154B1A68144B5B6800931346134A4FF08041FEF7BBFDB86525E00E4B1B889BB24FF6FF72934203D00B4B1B68BB651AE0094B5B6826
:40188000BB6516E02099FF1F7084FF1FD080FF1FDCA3FF1FE0ABFF1F40CAFF1F2F83FF1FD4CAFF1F6899FF1F0000E040A94B1B68BB65A94B1B68A94AD35C1A46A8491346A8
:4018C0005B0113449B00FA6D134451F82340A54B1B781A46A24913465B0113449B00FA6D1344303351F823209F4B1B68194610460CF0F2FD0346194620460CF0E5FC0346CD
:401900001C46984B1B781A46954913465B0113449B00FA6D13443C3351F82320924B5B68194610460CF0D8FD0346194620460CF0CBFC03461C468B4B1B781A46884913469C
:401940005B0113449B00FA6D1344483351F82320854B9B68194610460CF0BEFD0346194620460CF0B1FC03461C467E4B1B781A467B4913465B0113449B00FA6D1344543347
:4019800051F82320784BDB68194610460CF0A4FD0346194620460CF097FC03461C46714B1B781A466E4913465B0113449B00FA6D1344603351F823206B4B1B691946104622
:4019C0000CF08AFD0346194620460CF07DFC03461C46644B1B781A46614913465B0113449B00FA6D1344783351F823205E4B5B69194610460CF070FD0346194620460CF0B9
:401A000063FC03461C46574B1B781A46544913465B0113449B00FA6D13446C3351F82320514B9B69194610460CF056FD0346194620460CF049FC03461C464A4B1B781A46B4
:401A4000474913465B0113449B00FA6D1344243351F82320444BDB69194610460CF03CFD0346194620460CF02FFC03461C463D4B1B781A463A4913465B0113449B00FA6DE5
:401A800013440C3351F82320374B1B6A194610460CF022FD0346194620460CF015FC03461C46304B1B781A462D4913465B0113449B00FA6D1344183351F823202A4B5B6A0D
:401AC000194610460CF008FD0346194620460CF0FBFB03461A46254B1B68194610460CF0F3FB03463B621F4B1B781A461C4913465B0113449B00FA6D134451F82330FB61F0
:401B0000F8690CF0C5FE0146194AFB6D42F82310386AFEF707FC0346B96D18460CF0DCFC03461846FEF732FCB861114AFB6D52F8233018460CF07CFC03461946B8690CF0F1
:401B4000C1FB03467B610B4978690CF0C5FC034612E000BF6899FF1F8083FF1FD880FF1FDC84FF1FE682FF1F5883FF1FD482FF1F10CAFF1FABAA2A434FF08C4118460CF051
:401B8000A3FB03463B619F4AFB6D52F82330396918460CF035FE0346002B0AD138690CF09DFE03461A46FB6D01331946104600F02DFF9449FB6D3A6941F823204FF0000144
:401BC000386A0CF045FE0346002B04D08E49FB6D3A6A41F82320FB6D0133FB658B4B1B68FA6D9A42FFF61DAE002009F0A5FF884B1B78DBB2002B01D000F0AAFD854B1B785F
:401C0000DBB2002B13D008F011F80346002B0ED0814B1B88402B05D9804B1B8801339AB27E4B1A807C4B00221A8000F0BBFD00BF06F07CFA034603F00103002B06D106F01F
:401C400075FA034603F01003002B01D0012300E00023002BECD001200AF0BEF8704B1B78DBB2012B56D16F4B1B78002B1DD06E4BFD221A706D4B1A786B4B5A706B4B1B78C3
:401C80001A466B4B1A6000F0CDFC664B00221A70634B00221A70674B00221A80624BFE229A77614BFD22DA779DE15F4B02221A705E4B1A785C4B5A7002237B6520E05D4B8D
:401CC0001A885D4B1B889A420FD25A4B1B885A1C91B2584A11801A46584B9B5CD9B2524A7B6D13440A461A7007E04F4A7B6D1344EE221A704B4B01221A707B6D01337B6534
:401D00007B6D1D2BDBD9484BFE229A77464BFD22DA7768E14A4B1B78002B1CD0424B06221A70484B1A78404B5A70474B1A783E4B9A70464B1A783C4BDA70454B1A783A4B67
:401D40001A71394BFE229A77374BFD22DA773C4B00221A7047E13F4B1B78002B24D0324B07221A703C4B1A782F4B5A703A4B5A782D4B9A70384B9A782B4BDA70364BDA780C
:401D8000294B1A71344B1A79274B5A71324B5A79254B9A71244BFE229A77234BFD22DA772C4B00221A701EE12C4B1B78DBB2002B00F0AA801C4B03221A7000233B650AE0CB
:401DC0003B6D013326493A6D0A441178164AD1543B6D01333B653B6D072BF1DD0023FB640AE0FB6C09331F49FA6C0A4411780E4AD154FB6C0133FB64FB6C032BF1DD0023C0
:401E0000BB643CE0EC97FF1F44CAFF1FD080FF1FDC82FF1FDB82FF1FE282FF1FE482FF1FBA82FF1FA482FF1F74CAFF1FA282FF1F2883FF1FB482FF1FB682FF1FC899FF1F01
:401E4000A582FF1FA682FF1FA782FF1FA882FF1FA982FF1FAA82FF1FE497FF1FBB82FF1F1C97FF1FDCA3FF1FBB6C0D339049BA6C0A4411788F4AD154BB6C0133BB64BB6C77
:401E8000092BF1DD8C4B1B781B015AB28B4B1B685BB213435AB28A4B1B785B015BB213435AB2884B1B789B015BB213435BB2DAB2804B1A76844B1A787E4B5A76834BB3F9C6
:401EC00000301B121BB2DAB27A4B9A767F4BB3F90030DAB2774BDA767D4B5B889BB21B0A9BB2DAB2734B1A77794B5B889BB2DAB2704B5A776F4BFE229A776E4BFD22DA77AE
:401F0000744B00221A706EE06A4B01221A7000237B6424E0704A7B6C52F823304FF0884118460CF0D9FA034618460AF02FFB034618460CF0ADFC0346FB607B6C5B000133DC
:401F4000FA681212D1B25B4AD1547B6C01335B00FA68D1B2574AD1547B6C01337B647B6C0B2BD7DD544B1B781B015AB2534B1B685BB213435AB2524B1B785B015BB21343C9
:401F80005AB2504B1B789B015BB213435BB2DAB2484B1A764C4B1A78464B5A764B4BB3F900301B121BB2DAB2424B9A76474BB3F90030DAB23F4BDA76454B1B889BB21B0A94
:401FC0009BB2DAB23B4B1A77414B1B889BB2DAB2384B5A77374BFE229A77364BFD22DA773C4B01221A703D4B1B78FD2B7ED13B4BDB7FFE2B7AD1394B5B78BB60374B1B7C4C
:402000007B6002233B640023FB6314E0334A3B6C134418783249BA681346DB009B1A5B00CA18FB6B134402461A703B6C01333B64FB6B0133FB63FB6B0D2BE7DD11233B6488
:402040000023BB631BE0254A3B6C13441C7825487B68B9681A46D200D21A53001A460B46DB005B1A1B011344C218BB6B134422461A703B6C01333B64BB6B0133BB63BB6B6C
:402080000D2BE0DD104B1B781A46BB689A4240F0AF807B68072B40F0AB80134ABB6852F82330002B40F0A48000F0BCFAA0E000BFC884FF1F74CAFF1F3083FF1FD480FF1F85
:4020C0002F83FF1F2E83FF1F3C83FF1F0EACFF1FD4CAFF1FBB82FF1F44CAFF1FE0CAFF1F9C93FF1F80ACFF1F1C98FF1F4B4B1B78FC2B7ED1494BDB7FFE2B7AD105F0D4FF4F
:40210000002003F01BFC002301220B21444803F0BFFC012301220B21424803F0B9FC022301220B21404803F0B3FC032301220B213D4803F0ADFC3D4B0B221A703B4B1B7898
:40214000DBB21A463A4B13F812203A4B1B789A4213D0364B1B78DBB21A46354B13F812301A4601239340DAB2334B1A7000220121702000F05BF90346FB702C4B1B78DBB2BD
:402180001A462B4B13F812202A4B1A700A2005F023FC264B1B78DBB21A46254B13F81230052B1DD1214B1B78DBB21A46234B9B5C002B15D11D4B1B78DBB21D4A5B00134400
:4021C0005B781A4601239340DAB21B4B1A7000220121712000F02AF903461A46184B1A600A2005F0F9FB4021802003F0F3FB00E000BF05F0B7FF134B1B78DBB2012118468E
:4022000005F002F8104B1B78DBB20121184604F0FBFF002009F0E0FDFEF736BDE0CAFF1F04080100100801001C0801002D83FF1FDC80FF1F7C81FF1FECC8FF1F1C83FF1FE3
:4022400000CBFF1F8093FF1F4097FF1F80B500AF4FF4804341F6FF720121012009F0C0FE03461A46124B1A7005F020F903461A46104B1A700F4B1B78D8B20123FE2220219B
:4022800005F042F90B4B1B78DBB20B4A91B246F24642184605F078F9054B1B78DAB2054B1B78DBB21946104605F092F800BF80BD4097FF1FC0CAFF1F74CAFF1F80B500AF70
:4022C00041F6FF734FF480420121012009F016FB03461A464A4B1A7005F0E8F803461A46484B1A7005F0E2F803461A46454B5A70444B18780223FE221A2105F005F9414B90
:4023000058780223FE221A2105F0FEF83D4B1B783D4A92B246F25551184605F035F9394B5B783A4A92B246F25551184605F02CF941F6FF734FF480420121012009F010FBB3
:4023400003461A46324B1A7005F0B0F803461A46304B1A7005F0AAF803461A462D4B5A702C4B18780623FE22082105F0CDF8294B58780623FE22082105F0C6F8254B1B7841
:40238000254A92B246F25841184605F0FDF8214B5B78224A92B246F25841184605F0F4F841F6FF734FF480420121012009F0E6FD03461A461A4B1A7005F078F803461A46DF
:4023C000184B1A70174B1B78D8B20223FE22202105F09AF8134B1B78DBB2134A92B246F25641184605F0D0F80D4B1B78DAB20D4B1B78DBB21946104604F0EAFF00BF80BDDE
:402400000CACFF1F4484FF1F20ACFF1F3AACFF1FE0A1FF1F00ACFF1F00CAFF1F08CAFF1F8093FF1FA0CAFF1FE0CAFF1F80B586B000AF0346FB710B46BB801346BB7100232D
:40244000FB754FF47A733B6106F0F4FA0346FB73FB7BDBB25BB2002B42DBBB88DAB2BB79F879294906F09EF90346FB73FB7BDBB2002B2FD106F0B8FA0346FB733B69013B96
:402480003B61FB7BDBB2802B03D100F0B9F80123FB753B69002B05D18023FB7300F0B0F80123FB75FB7BDBB2002B05D18023FB7300F0A6F80123FB75FB7BDBB203F0820335
:4024C000002B0DD1FB7BDBB2002B09D03B69002BD0D105E08023FB7300F092F80123FB75FB7BDBB203F02003002B04D1FB7BDBB25BB2002B03DA00F083F80123FB75FB7DB0
:4025000018461837BD4680BDECC8FF1F80B584B000AF0346FB710B46BB7113467B714CF25033FB600023FB7206F084FA0346BB72BB7ADBB25BB2002B46DB7B79BA79F87904
:402540002B4906F0BFF90346BB72BB7ADBB2002B34D106F049FA0346BB72FB68013BFB60BB7ADBB2802B12D1224B52221A70224BFF221A70214B00221A7000BF1E4B1B7882
:40258000DBB2002BFAD100F03BF80123FB72FB68002B05D18023BB7200F032F80123FB72BB7ADBB203F08103002B0DD1BB7ADBB2002B09D0FB68002BCBD105E08023BB721E
:4025C00000F01EF80123FB72BB7ADBB203F02003002B04D1BB7ADBB25BB2002B03DA00F00FF80123FB72FB7A18461037BD4680BD4497FF1F746400401B6400405B640040E4
:4026000080B500AF05F09CFE044B00221A70044B00221A7005F07EFE00BF80BD74640040DD83FF1F90B585B002AF00237B6000233B6017E03B4B1B7818463B493B681A4652
:40264000D200D21A53001A460346DB001B1A1B0113440B441B78FF2B01D101237B603B6801333B603B68072BE4DD7B68002B55D14021802003F0C0F9002003F05FF9294B78
:402680001B78184600230022022103F095FA254B1B781A461346DB009B1A5B00234A9818012300220C2103F0F3F9012300938023282200211E4802F005FC1E4B1B781846B1
:4026C00003230022012103F077FA03F091FA024603230121184803F0DBF9164B1B781A461346DB009B1A5B00144A9C1803F080FA024603230A21204603F0CAF9104B01228D
:402700001A60084B1B7819460E4B012243F821200D4B00221A700D4B01221A6000BF0C37BD4690BD3C83FF1F80ACFF1F9C93FF1F54CBFF1FE682FF1F0008010088C8FF1FE9
:402740005083FF1F1C98FF1F0B83FF1F5483FF1F80B500AF07F06AFA0346002B05D107F063F80E4B00221A7013E00C4B1B78DBB2002B0ED10021002006F0CCFE00BF07F0EA
:40278000D3F80346002BFAD008F09AFD034B01221A70034B00221A7000BF80BDDB82FF1FDC82FF1F80B500AF07F0CAF80346002B10D007F0B9F80346002B0BD0244B1B78AF
:4027C000DBB2002B06D007F031FA0346002B01D008F076FD07F0A8F80346002B35D007F0AFF80346002B18D01A4B1B78D8B21A4B1B78DBB29BB21A46184907F0FFF8184B09
:402800001B78DBB240221749184607F07BF9144B1B78DBB2184607F0BBF90D4B1B78DBB2002B06D007F002FA0346002B01D008F0C7FD074B1B78DBB2002B06D007F0F6F99F
:402840000346002B01D008F04DFD00BF80BD00BFDB82FF1F84D4FF1F85D4FF1F88D4FF1F86D4FF1F44D4FF1F80B586B000AF78602C4A7B6832F81330FB82FB8A002B43D08E
:40288000FB8A18460BF0D0FD03463B614FF05E5138690BF021FE03463B6138690AF0FEF83861214938690BF00DFD03463B611F4938690BF011FE03463B6138690BF0E8FF60
:4028C0000346FB82FB8A7F2B01D97F23FB82184B1B681A1F13465B0013449B001946154A7B6852F823300B44FB60FB8ADBB219467B6801331A46F86800F020F80E497B68B3
:40290000FA6841F8232009E00B4A7B6852F823007B6801331A46002100F010F800BF1837BD4680BD2099FF1F0918C43C551D0243D480FF1F10CAFF1F9483FF1F80B584B096
:4029400000AFF860B9607A607B68DBB2703BDAB2114B1A70FB68DAB20F4B5A70BB68DAB20D4B9A700D4B1B78DBB2002B09D007F05DF90346002B04D000220749032008F00E
:4029800025FD074B1B8804339AB2054B1A8000BF1037BD4680BD00BF9893FF1FDB82FF1FE282FF1F80B584B000AFF860B9607A607B68DBB2503BDAB2114B1A70FB68DAB289
:4029C0000F4B5A70BB68DAB20D4B9A700D4B1B78DBB2002B09D007F029F90346002B04D000220749032008F0F1FC074B1B8804339AB2054B1A8000BF1037BD4680BD00BFE4
:402A00009893FF1FDB82FF1FE282FF1F80B582B000AF786039603B68DBB2203BDAB2134B1A707B68DBB203F07F03DAB20F4B5A707B68DB11DAB20D4B9A700D4B1B78DBB200
:402A4000002B09D007F0F2F80346002B04D000220649032008F0BAFC064B1B8804339AB2044B1A8000BF0837BD4680BD9893FF1FDB82FF1FE282FF1F90B595B000AF8F4BF0
:402A800001221A708E4B1B78002B40F0E0828D4B01221A708C4B00221A608C4B00221A70874B5A788A4B1A70854B9A78894B1A70834BDA78874B5A70814B1A79854B9A708D
:402AC0007F4B5A79834BDA700623FB64142387F8373022E0FB6C023B7949FA6C0A44127802F07F02D1B27B4AD154794B1B781846FB6C9A1F7249FB6C0B441B7803F07F03A8
:402B0000DCB275490346DB001B1A5B000B44134422461A70FB6C0133FB6497F83720FB6C9A42D7D8694B01221A700023BB6434E000237B642BE0FB6C023B6149FA6C0A4465
:402B4000127802F07F02D1B2624AD154604B1B7818465B4AFB6C13441B7803F07F03DCB25E49BB6C1A46D200D21A53001A460346DB001B1A1B011344CA187B6C134422467C
:402B80001A70FB6C0133FB647B6C01337B647B6C0D2BD0DDBB6C0133BB64BB6C072BC7DD8223BB86494B02221A7049E200233B613B694349FA6C0A441278120713433B61C9
:402BC0003B69FA6C01323E498A5C520513433B613B69FA6C02323A498A5C920313433B613B69FA6C033236498A5CD20113433B613A69FB6C04333249CB5C03F07F0313439D
:402C00003B613B69364A1360304B1B78022B40F0B9802D4B1B68002B22D13B6918460BF05DFE03469AB22F4B1A80BA8E264B1B68591C2548016013442A4A1288120A92B25F
:402C4000D1B2244AD154BA8E1F4B1B68591C1E4801601344234A1288D1B21E4AD154ECE1204B1B8801335B001A46174B1B689A423CD93B691C4918460BF02EFC034618468C
:402C80000BF02CFE03467B86BA8E0F4B1B68591C0D48016013447A8E120A92B2D1B20D4AD154BA8E084B1B68591C0748016013447A8ED1B2074AD154BFE100BFA182FF1F5C
:402CC000E0A3FF1FB882FF1FBC82FF1FB382FF1FA282FF1FC899FF1F9C93FF1F80ACFF1FD082FF1FC482FF1F00FF7F479C4B1B8801335B001A469B4B1B689A4240F09D812F
:402D00003B69994A1360984B1B68984918460BF081FD0346002B23D0934B1B68944918460BF096FD0346002B1AD0BA8E8D4B1B68591C8C48016013448E4AEF21D154BA8E93
:402D4000884B1B68591C874801601344894AEF21D154894B03221A70884B00221A606CE1874B1B680133864A1360864B00221A70854B00221A60854B00221A70844B002298
:402D80001A705AE17C4B1B78032B28D13B6918460BF0A4FD03469AB27E4B1A80BA8E714B1B68591C6F48016013447A4A1288120A92B2D1B26F4AD154BA8E6A4B1B68591CB8
:402DC000684801601344734A1288D1B2694AD154694B04221A70704B00221A802DE1664B1B78042B40F029816B4B1A88694B1B889A4280F0D780614B1968684BA3FB01238F
:402E00009A0813469B001344CA1A002A0FD1BA8E544B1B68591C53480160D4183B6918460BF05CFD0346DAB2524B1A5591E0534B19685A4BA3FB01239A0813469B001344D5
:402E4000CA1A012A0FD1BA8E464B1B68591C45480160D4183B6918460BF040FD0346DAB2444B1A5575E0454B19684C4BA3FB01239A0813469B001344CA1A022A23D13B6957
:402E80004FF0000118460BF0C5FC0346002B0AD0BA8E344B1B68591C324801601344354AFF21D15455E0BA8E2E4B1B68591C2D480160D4183B6918460BF010FD0346DAB226
:402EC0002C4B1A5545E02D4B1968344BA3FB01239A0813469B001344CA1A032A24D13B692F4918460BF0F8FA034618460BF0D0FC03463B86BA8E1B4B1B68591C1948016053
:402F00001344B7F93020121212B2D1B2194AD154BA8E144B1B68591C1248016013443A8ED1B2144AD15414E0BA8E0E4B1B68591C0C480160D4183B6918460BF0CFFC034689
:402F4000DAB20C4B1A55144B1B8801339AB2124B1A800A4B1B680133084A13606DE000BFC482FF1FBC82FF1FCC82FF1F0000C0BF000020C0C899FF1FB382FF1FC082FF1FEC
:402F8000C883FF1FB882FF1F9C82FF1FBA82FF1FCA82FF1FC682FF1FC882FF1FCDCCCCCC00FEFF463B69664918460BF033FC0346002B31D03B69634918460BF049FC034687
:402FC000002B29D0BA8E604B1B68591C5E48016013445E4AFE21D154BA8E5B4B1B68591C594801601344594AFE21D154584B05221A70584B00221A70574B01221A70574BBE
:403000001A78574B1A70504B1B689AB2BB8E13449AB2544B1A8010E0534B1B680133524A13604C4B00221A70504B00221A604A4B00221A704E4B00221A70FB6C0533FB64F1
:403040004A4B1B68FA6C9A42FFF4B0ADF0E2494B1B78022B40F082813E4B01221A703A4B00221A60434B5A78434B1A70424B1A78424B1A70424B1B68404A1178414AD15475
:4030800002233B64102387F82F3043E0394A3B6C13441B7803F07F0387F82E30364B1B7818463B6C9A1E38490346DB001B1A5B000B44134497F82E201A702F4B1B789BB245
:4030C0001A4612011A4492001A44520013445B009AB22E4B1A80284B1B789BB21A4612011A4492001A44520013445B009AB23B6C9BB213449BB2023B9AB297F82E301146E3
:40310000184608F093FE0346DAB2214B1A703B6C01333B6497F82F203B6C9A42B6D810233B64DCE00023FB63D5E0FB6B9BB21A4652001344DB00BB850023BB63C4E000BF35
:40314000000020C0000060C0BC82FF1FC899FF1FB382FF1FB882FF1FBA82FF1FA282FF1F3C83FF1FB682FF1FC883FF1F9C82FF1FCA82FF1FE0A3FF1FA382FF1FE682FF1F81
:403180008083FF1FD880FF1F88C8FF1FC683FF1FC483FF1F0023FB60FB6864493A6C0A44127812071343FB60FB683A6C01325F498A5C52051343FB60FB683A6C02325B49B5
:4031C0008A5C92031343FB60FB683A6C033257498A5CD2011343FB60FA683B6C04335349CB5C03F07F031343FB60514B1B781C46F9685048FB6B1A4652001A4493001A463F
:4032000023465B0123449B001A44BB6B134440F82310FB684FF0874118460BF05DF903464FF08E4118460BF04FF8034618460BF055FB03467B857B8D1B0A9BB287F82930E4
:403240007B8D87F82830BB6B9BB25B00FB84FA8CBB8D13449AB2364B1B789BB21946090119448900194449000B445B009BB213449BB20E339AB2304B1A802F4B1B889AB2B5
:4032800097F829301146184608F0D0FD0346DAB22A4B1A70284B1B889BB201339AB297F828301146184608F0C1FD0346DAB2234B1A70234B1B680133214A13603B6C0533F4
:4032C0003B64BB6B0133BB63BB6B0B2B7FF662AFFB6B0133FB63FB6B0A2B7FF626AF194B1B683A6C9A42FFF41DAF154B1B689AB2154B1A80144B1B88842B11D0134B1B6834
:403300000133124A1360124B00221A700D4B00221A60104B00221A700F4B00221A7087E10B4B00221A70FFF77DF981E1E0A3FF1FA382FF1FDC84FF1FC683FF1FC483FF1F1A
:40334000BC82FF1F9C82FF1FB682FF1FC883FF1FB882FF1FBA82FF1FCA82FF1F9F4B1B78032B40F08B809E4B01221A7002233B620023BB60BB6899493A6A0A4412781207C4
:403380001343BB60BB683A6A013294498A5C52051343BB60BB683A6A023290498A5C92031343BB60BB683A6A03328C498A5CD2011343BB60BA683B6A04338849CB5C03F073
:4033C0007F031343BB60BB68184609F0DFF8034618460BF083FA0346FB83824B00221A70FB8BDAB2804B1A703B6A05333B620023BB60BB6879493A6A0A441278120713433B
:40340000BB60BB683A6A013274498A5C52051343BB60BB683A6A023270498A5C92031343BB60BB683A6A03326C498A5CD2011343BB60BA683B6A04336849CB5C03F07F0346
:403440001343BB60BB68694918460BF045F8034618460BF043FA0346BB83BB8B1B0A9BB2DAB2634B1A70BB8BDAB2624B1A705C4B00221A70604B01221A70D9E0574B1B78EC
:40348000042B40F0D580564B01221A700223BB6100237B607B685149BA690A441278120713437B607B68BA6901324C498A5C520513437B607B68BA69023248498A5C920387
:4034C00013437B607B68BA69033244498A5CD20113437B607A68BB6904334049CB5C03F07F0313437B607B68184609F04FF8034618460BF0F3F90346FB82404B00221A704A
:40350000FB8ADAB23D4B5A70BB690533334AD25C3A4B9A70BB690633304AD25C374BDA70BB690733BB6100237B607B682B49BA690A441278120713437B607B68BA69013274
:4035400026498A5C520513437B607B68BA69023222498A5C920313437B607B68BA6903321E498A5CD20113437B607A68BB6904331A49CB5C03F07F0313437B601F4BDB7867
:40358000002B10D11D4B00221A717B68184608F0FDFF034618460BF07BF903461BB2DAB2164B5A713EE0154BDB78012B2AD17B68134918460AF090FF034618460BF068F9B0
:4035C0000346BB82B7F914301B121BB2DAB20B4B1A71BB8ADAB2094B5A7123E0E0A3FF1FB882FF1FA682FF1FA782FF1F00FF7F47A882FF1FA982FF1FA582FF1FE497FF1F3D
:4036000000FEFF46114B00221A717B68184608F0BDFF034618460BF03BF903461BB2DAB20A4B5A710A4B00221A700A4B01221A70094B00221A70094B00221A60084B002249
:403640001A7000BF5437BD4690BD00BFE497FF1FB882FF1FAA82FF1FA182FF1F9C82FF1FCA82FF1F80B584B000AF03463960FB713B681A78484B1A703B685A78464B5A70BD
:403680003B689A78444B9A703B68DA78424BDA70424B1B78DBB2002B7BD006F0C7FA0346002B76D03E4B1B78002B29D00023FB6022E0FB683A6813441B785BB2002B0EDB8C
:4036C000384B1B685A1C37490A6040F2FF721340FA6839680A441178334AD15409E0FB683A6813441B78F72B03D12D4B00221A704FE0FB680133FB60FB68022BD9DD48E071
:403700003B681B78F02B44D1284B1B78002B40D13B6801331B787E2B03D1254B01221A7037E03B6801331B78002B13D03B6801331B78012B0ED03B6801331B78022B09D06A
:403740003B6801331B78032B04D03B6801331B78042B1ED1124B01221A70124B1B68002B17D1104B1B685A1C0E490A6040F2FF7213403A6851780C4AD1540A4B1B685A1C19
:4037800008490A6040F2FF7213403A689178064AD1541037BD4680BDE4ABFF1FDB82FF1FA082FF1F9C82FF1FE0A3FF1FA182FF1FCA82FF1F90B587B002AF05F005FC034655
:4037C000FB71FB7903F01003002B24D1AC4B1B68042B03DDAA4B04221A600CE0A94B1B78002B08D0A64B1B68002B04DDA44B1B68013BA34A1360012008F0F4F9002008F083
:403800000FFA002008F02AFA002008F043FA9D4B00221A7007E0FB7903F01003002B02D0984B01221A7005F021F90346002B0ED1934B05221A60002008F0D4F9012008F08D
:40384000EFF9002008F00AFA002008F023FA05F01DF90346002B0ED1894B06221A60002008F0C0F9002008F0DBF9012008F0F6F9002008F00FFAFB7903F02003002B24D1AB
:403880007F4B1B68062B03DC7D4B07221A600CE07D4B1B78002B08D0794B1B680A2B04DC774B1B680133764A1360002008F09AF9002008F0B5F9002008F0D0F9012008F083
:4038C000E9F9714B00221A7007E0FB7903F02003002B02D06C4B01221A7008F04DFA0346002B2FD1694B00221A60684B1B68684AD25C684B1A70664B1B785B01DAB2644B7B
:403900005B789B00DBB21344DAB2604B1B68DBB21344DAB2604B1A705F4B1B7840F2FE71184608F083FA002008F0CEF9012008F007FA5A4B1B68002B02D1FEF773FE01E0BF
:4039400000F0BAFA08F028FA0346002B2FD14F4B01221A604D4B1B684D4AD25C4D4B1A704B4B1B785B01DAB2494B5B789B00DBB21344DAB2454B1B68DBB21344DAB2464B45
:403980001A70454B1B7840F2FE71184608F04EFA012008F099F9002008F0D2F93F4B1B68002B02D1FEF73EFE01E000F085FAFB7903F04003002B1DD1394B1B78002B19D013
:4039C000384B1B78002B0CBF01230023DBB21A46344B1A70334B1B78184608F0E5F8314B1B7840F2FD71184608F020FA2C4B00221A7007E0FB7903F04003002B02D0284BF7
:403A000001221A70FB7903F00103002B09D1264B1B78002B05D000F0BBFD234B00221A7007E0FB7903F00103002B02D01E4B01221A70FB7903F00203002B09D11B4B1B78D4
:403A4000002B05D000F0F0FD184B00221A7007E0FB7903F00203002B02D0144B01221A70FB7903F00403002B24D1114B1B78002B20D000F023FE0E4B00221A7022E000BF8F
:403A8000D480FF1F7F81FF1F8081FF1F8083FF1FD880FF1FE682FF1F8483FF1F8883FF1F7D81FF1F2F83FF1F3883FF1F3983FF1F3A83FF1FFB7903F00403002B02D06B4B51
:403AC00001221A70FB7903F00803002B09D1684B1B78002B05D000F017FE654B00221A7007E0FB7903F00803002B02D0604B01221A7008F061F90346002B1AD15D4B1B7861
:403B0000002B16D05C4B1B68002B0CBF01230023DBB21A46584B1A60574B1B68002B02D000F07AF901E000F0C7F9524B00221A7007E008F041F90346002B02D04D4B01228A
:403B40001A7097F90730002B03DB4C4B1B78002B06D197F90730002B02DA484B01221A70474B1B68474A1360434B1B68002B00F04381454B1B78002B00F03E8108F00CFBAC
:403B80000346BB71414B93F90030052B40F031813F4B93F9003097F906209A4200F02981022001F0CBFE0021012001F05DFF022001F03CFF032001F039FF4FF07E53FB6054
:403BC000344B1B78012B01D1334BFB60012001F0B5FE324B1C6808F0DFFA034618460AF027FC0346F96818460AF076FC0346194620460AF067FB03461A46284B1A600020ED
:403C000008F0D6FA254B1B68254918460AF002FE0346002B03D0214B214A1A600BE01F4B1B68204918460AF013FE0346002B02D01A4B1C4A1A60194B1B68BB6035221421A8
:403C4000194801F049FD154B1B684FF0000118460AF0E0FD0346002B28D02D21124801F06DFCBB6883F00043BB6023E03A83FF1F3B83FF1F7E81FF1F8883FF1F8181FF1FD2
:403C8000D480FF1FEC82FF1FCE83FF1FD8CAFF1FCD83FF1FCF83FF1F0AD7233CD482FF1F000040C10000404154CBFF1F2021544801F044FC534B1B78002B0ED101210020FB
:403CC00001F0D2FE4E4B5B8A0193192300931E23222220214A4801F07FF94B49B8680AF0AFFC034618460AF0F9FD03467B717B7918460AF09DFB0346434918460AF0ECFB44
:403D000003461946B8680AF0DDFA0346BB607B793033DBB219463A4801F010FCB8680AF0DDFD03467B717B793033DBB21946344801F004FC0021012001F096FE2E2130485D
:403D400001F0FCFB2F4B1B78002B0ED00121002001F08AFE2A4B5B8A0193192300931E2322224621264801F037F97B7918460AF05FFB03461946B8680AF0A4FA0346BB60E8
:403D80002149B8680AF0A8FB034618460AF0A6FD03467B717B793033DBB21946184801F0CDFB7B7918460AF043FB0346164918460AF046FC03461946B8680AF083FA0346B3
:403DC000BB601249B8680AF087FB034618460AF085FD03467B717B793033DBB21946084801F0ACFB0021012001F03EFE084B01221A60084ABB79137000BF1437BD4690BD6C
:403E000054CBFF1FCF83FF1F000020410000C8425083FF1FCD83FF1F80B500AF4021802001F0EAFD022001F089FD0121002001F01BFE002300220F211A4801F029FE002159
:403E4000002001F06BFE0021012001F00DFE012300220F21144801F01BFE0021012001F003FE124B01221A60114B01221A60104B1B68DBB2184607F045FF0E4B00221A707E
:403E80000C4B00225A700B4B00229A70094B0022DA70084B00221A71064B00225A7100BF80BD00BF00090100140901005083FF1F8883FF1FD8CAFF1F98B500AF2B4B1B688D
:403EC000012B01D100F09EFC294B1B68012B01D100F092FD274B93F90030052B34D1264B1B6818460AF0D4FC03465AB2234B1A70214B1C68214B93F9003018460AF098FAF8
:403F00000346194620460AF0DDF903461C4918460AF0E2FA034618460AF0BAFC03465AB2184B1A70154B93F90030DBB240F2F471184607F07BFF134B93F90030DBB240F240
:403F4000F571184607F072FF0F4B00221A7008F005F90E4B00221A600C4B1B68DBB2184607F0D0FEFEF75EFB00BF98BD8C83FF1F9083FF1FD8CAFF1FD482FF1FAB82FF1F5B
:403F80000000C842AC82FF1FCE83FF1F8883FF1F80B588B000AF0346FB710023FB77B34B93F90030002B4BD1FB79032B13D1AF4B93F90130DBB2013BDBB25AB2AB4B5A704D
:403FC000AA4B93F90130002B02DAA84B00225A700123FB77C2E1FB79022B1AD1A34B93F90130DBB20133DBB25AB2A04B5A709F4B93F901301A469E4B1B789A4206DB9C4B83
:404000001B78013BDBB25AB2984B5A700123FB77A4E1FB79012B03D0FB79042B40F09E81924B93F90130DBB20133DBB25AB28F4B1A708E4B93F90030DBB20133FB778DE15D
:404040008A4B93F90030012B5ED1FB79032B13D1864B93F90330DBB2013BDBB25AB2834BDA70824B93F90330002B02DA7F4B0022DA700223FB7771E1FB79022B1AD17B4BC0
:4040800093F90330DBB20133DBB25AB2774BDA70764B93F903301A46764B1B789A4206DB744B1B78013BDBB25AB2704BDA700223FB7753E1FB79012B02D0FB79042B19D1F4
:4040C0006A4B93F90330002B06D1684B03221A700023FB7700F03EFB644B93F90330012B40F03C81614B04221A700023FB7700F033FC33E1FB79002B40F030815B4B002237
:404100001A700123FB7729E1584B93F90030022B75D1FB79032B13D1544B93F90530DBB2013BDBB25AB2514B5A71504B93F90530002B02DA4D4B00225A710323FB770DE166
:40414000FB79022B1AD1494B93F90530DBB20133DBB25AB2454B5A71444B93F905301A46454B1B789A4206DB434B1B78013BDBB25AB23E4B5A710323FB77EFE0FB79012BC8
:4041800002D0FB79042B30D1384B93F90530002B40F0E480354B05221A7007F0CFFF0023FB77364B01221A704021802001F024FC022001F0C3FB0021012001F055FC002343
:4041C00001220E212E4801F063FC012301220E212C4801F05DFC2C4B7F221A70002007F0E7FF2A4B01221A60B8E0FB79002B40F0B5801E4B00221A700123FB77AEE01B4B87
:4042000093F90030032B4BD1FB79012B03D0FB79042B40F0A3804021802001F0EDFB022001F08CFB0121002001F01EFC002301220B21174801F02CFC012301220F21154890
:4042400001F026FC022301221021134801F020FC032301220E21114801F01AFC0B4B01221A600021012001F0FFFB77E0D8CAFF1F8E81FF1F8F81FF1F9081FF1FCE83FF1F42
:404280002809010038090100CD83FF1F5083FF1F48090100540901006409010078090100AC4B93F90030042B35D1FB79012B02D0FB79042B52D1A84B1B781A46A74B1B88F0
:4042C00099B2A74B23F81210A34B1B781846A34B5B8899B2A24A00F10C0322F813109E4B1B780133DAB29C4B1A709B4B1B780C2B02D100F081FB31E0974B1B781A46994BBA
:404300009B5C184602232822022101F055FC964B01221A6022E08F4B93F90030052B1DD1FB79012B0BD1914B1B780133DBB203F00103DAB28D4B1A708D4B7F221A70FB7918
:40434000002B0BD1894B1B78013BDBB203F00103DAB2864B1A70864B7F221A70FB7F012B44D14021802001F047FB022001F0E6FA0023BB612CE0774B93F901301A46BB69FC
:404380009A4214D10121002001F06EFB794ABB6952F82300BB69DBB200220F2101F078FBBB69DBB21946002001F0B8FB0DE00021012001F059FB6F4ABB6952F82300BB692F
:4043C000DBB200220F2101F063FBBB690133BB61694B1B781A46BB699A42CCDC0021012001F042FB604B01221A60AEE0FB7F022B44D14021802001F0FFFA022001F09EFA34
:4044000000237B612CE0534B93F903301A467B699A4214D10121002001F026FB574A7B6952F823007B69DBB200220F2101F030FB7B69DBB21946002001F070FB0DE0002190
:40444000012001F011FB4D4A7B6952F823007B69DBB200220F2101F01BFB7B6901337B61474B1B781A467B699A42CCDC0021012001F0FAFA3C4B01221A6066E0FB7F032B52
:4044800063D14021802001F0B7FA022001F056FA0023FB740023FB603AE02E4B93F905301A46FB689A4211D10121002001F0DCFA344AFB6852F82300002300220F2101F020
:4044C000E7FA0021002001F029FB1EE0214B93F905301A46FB689A4217DA0021012001F0C3FAFB68DAB21B4B93F90530DBB2D31AFB74FB7C032B08D8224AFB6852F823001A
:40450000FB7C00220F2101F0C3FAFB680133FB601D4B1B781A46FB689A42BEDCFB7C0133FB740021012001F09FFA08E0FB7C00220F21164801F0ACFAFB7C0133FB74FB7CC1
:40454000032BF3D9084B01221A6000BF2037BD4680BD00BFD8CAFF1FD083FF1FD4CAFF1F8497FF1F9481FF1F5083FF1FCF83FF1FCD83FF1F780801008E81FF1F4C08010011
:404580008F81FF1FE40801009081FF1F8809010080B500AF1F4B1B68002B35D11E4B1B78002B03D11C4B06221A7005E01A4B1B78013BDAB2184B1A70184B1B68164A1178A8
:4045C000174AD154164B1B785B01DAB2144B5B789B00DBB21344DAB2104B1B68DBB21344DBB25AB20F4B1B785BB213435BB2DAB20C4B1A700B4B1B7840F2FE71184607F018
:4046000015FCFEF70FF802E00020FFF7C1FC00BF80BD00BF8883FF1FE682FF1F8083FF1FD880FF1F8483FF1F80B500AF1E4B1B68002B34D11D4B1B780133DAB21B4B1A70E7
:404640001A4B1B78062B02D9184B00221A70184B1B68164A1178174AD154164B1B785B01DAB2144B5B789B00DBB21344DAB2104B1B68DBB21344DBB25AB20F4B1B785BB264
:4046800013435BB2DAB20C4B1A700B4B1B7840F2FE71184607F0CAFBFDF7C4FF02E00120FFF776FC00BF80BD8883FF1FE682FF1F8083FF1FD880FF1F8483FF1F80B500AF19
:4046C0000F4B1B68002B16D10E4B1B78013BDAB20C4B1A700B4B1B7803F03F03DAB2094B1A70084B1B7840F2F271184607F09EFBFDF798FF02E00220FFF74AFC00BF80BD7E
:404700008883FF1F3C83FF1F80B500AF0F4B1B68002B16D10E4B1B780133DAB20C4B1A700B4B1B7803F03F03DAB2094B1A70084B1B7840F2F271184607F078FBFDF772FFE3
:4047400002E00320FFF724FC00BF80BD8883FF1F3C83FF1F80B582B000AF4021802001F04BF9022001F0EAF80121002001F07CF9002301220B211B4801F08AF901230122A3
:404780000F21194801F084F9022301220A21174801F07EF9032301220F21154801F078F9144B01221A600021012001F05DF900237B600DE0104A7B6840F6FF7122F81310F8
:4047C0000E4A7B68002122F813107B6801337B607B68092BEEDD0A4B01221A6000BF0837BD4680BD98090100A4090100B4090100C00901005083FF1FF480FF1F0881FF1F1A
:404800008C83FF1F80B584B000AF4E4B00221A600023FB6019E04C4AFB6832F8133019464A4AFB6832F813301433994205DD484AFB68134401221A7004E0454AFB68134434
:4048400000221A70FB680133FB60FB68092BE2DD00237B8100237B600EE03D4A7B6813441B781A467B6802FA03F39AB27B8913447B817B6801337B607B68092BEDDD7B8936
:404880001B0A9BB2DBB240F2FB71184607F0CEFA7B89DBB240F2FC71184607F0C7FAFBF7C7FD00233B6045E0284A3B6832F813301B0A9BB2DAB23B689BB29B009BB203F212
:4048C0009A739BB21946104607F0B0FA1F4A3B6832F81330DAB23B689BB29B009BB203F29B739BB21946104607F0A0FA194A3B6832F813301B0A9BB2DAB23B6803F2E71392
:404900009BB29B009BB21946104607F08FFA114A3B6832F81330DAB23B689BB29B009BB203F29D739BB21946104607F07FFA3B6801333B603B68092BB6DD00BF1037BD46E2
:4049400080BD00BF8C83FF1FC8A3FF1FF480FF1F4083FF1F0881FF1F80B500AF4021802001F04AF8022000F0E9FF0121002001F07BF8194B00221A70002301220B211748D2
:4049800001F086F8012301220F21154801F080F8022301220521134801F07AF80E4B1B781A46114B9B5C184602232822022101F003F9032301220F210C4801F069F80C4B2D
:4049C00001221A600021012001F04EF8094B01221A6000BF80BD00BFD083FF1F98090100D0090100E00901009481FF1FC00901005083FF1F9083FF1F80B582B000AF2B4B73
:404A000000221A6000237B6047E0294A7B6832F813301B0A9BB2DAB27B689BB29B009BB203F2C2739BB21946104607F0FFF9204A7B6832F81330DAB27B689BB29B009BB263
:404A400003F2C3739BB21946104607F0EFF9184A7B680C3332F813301B0A9BB2DAB27B6803F2F1139BB29B009BB21946104607F0DDF90F4A7B680C3332F81330DAB27B6851
:404A80009BB29B009BB203F2C5739BB21946104607F0CCF97B6801337B607B680B2BB4DDFFF70AFA00BF0837BD4680BD9083FF1F8497FF1F80B483B000AF78600B467B805E
:404AC00013463B807B687A881A807B683A885A807A887B689A803A887B68DA807B6800221A817B6800225A817B6800229A817B680122DA817B684FF6FF721A827B684FF648
:404B0000FF725A827B6801229A827B680022DA827B6800229A617B6800221A817B680022DA837B6808229A8300BF0C37BD4680BC704700BF80B58AB000AFF86008461146A7
:404B40001A4603467B810B463B811346FB80B7F93020B7F90830D31A83EAE372A2EBE372B7F90610B7F90A30CB1A002BB8BF5B429A42CCBF01230023DBB27B84B7F9223026
:404B8000002B0BD07B893B843B897B813B8C3B81FB88FB833B8EFB80FB8B3B86B7F90A20B7F906309A420BDD7B89BB83FB887B81BB8BFB803B897B833B8E3B817B8B3B8649
:404BC000FA887B89D31A9BB23B83B7F93020B7F90830D31A002BB8BF5B42FB82B7F91830DA0F13445B10FB84B7F90820B7F930309A4202DA0123BB8431E04FF6FF73BB847A
:404C00002DE0B7F92230002B08D0BB8EB7F90A20B7F90810F86800F01DF907E0BB8EB7F90820B7F90A10F86800F014F9FA8CFB8AD31A9BB2FB84B7F92630002B09DA3A8947
:404C4000BB8C13449BB23B81FA8C3B8B13449BB2FB84B7F90A309BB201339BB27B81B7F90A20B7F906309A42CBDD00BF2837BD4680BD00BF80B586B000AFF86008461146F2
:404C80001A4603467B810B463B811346FB80B7F90A30002BC0F2D780B7F90A30FA689288934280F2D080B7F90830002BC0F2CB80B7F90830FA68D288934280F2C480F868B4
:404CC00000F052FD0346022B14D0032B27D0012B36D17B89FB823B897B81FB8A3B81FB68B3F900309AB27B89D31A9BB2013B9BB27B8125E0FB68B3F900309AB27B89D31A72
:404D00009BB2013B9BB27B81FB68B3F902309AB23B89D31A9BB2013B9BB23B8110E07B89BB823B897B81BB8A3B81FB68B3F902309AB23B89D31A9BB2013B9BB23B8100BF50
:404D4000FB88012B04D0022B54D0002B28D07BE0B7F90A20B7F90830002B00DA0733DB1018B20146FB68B3F9003003FB01F31344B7F90A10FA68B2F9002002FB00F20A4428
:404D800033498A5C51B23A8902F00702012000FA02F252B20A4352B2D1B22D4AD15453E0B7F90A20B7F90830002B00DA0733DB1018B20146FB68B3F9003003FB01F3134495
:404DC000B7F90A10FA68B2F9002002FB00F20A441F498A5C51B23A8902F00702012000FA02F252B2D24352B20A4052B2D1B2184AD15429E0B7F90A20B7F90830002B00DA1C
:404E00000733DB1018B20146FB68B3F9003003FB01F31344B7F90A10FA68B2F9002002FB00F20A440A498A5C51B23A8902F00702012000FA02F252B24A4052B2D1B2044A14
:404E4000D15400BF00E000BF1837BD4680BD00BF7CCFFF1F80B584B000AFF860084611461A4603467B810B463B811346FB80FB88B7F90820B7F90A10F868FFF7FBFE00BF2A
:404E80001037BD4680BD00BF80B586B002AFF860084611461A4603467B810B463B811346FB80B7F90600B7F90820B7F90A103B8B00930346F86800F043F800BF1037BD467F
:404EC00080BD00BF80B586B002AFF860084611461A4603467B810B463B811346FB80B7F90600B7F90820B7F90A103B8B00930346F86800F04BF800BF1037BD4680BD00BF85
:404F000080B586B002AFF860084611461A4603467B810B463B811346FB80B7F90600B7F90820B7F90A10BB8B0193B7F9183000930346F86800F050F800BF1037BD4680BDEE
:404F400090B587B002AFF860084611461A4603467B810B463B811346FB803A89FB8813449BB2013B9BB21BB2B7F90A40B7F90800B7F90A103A8C0192009323460246F868C8
:404F8000FFF7D8FD00BF1437BD4690BD80B586B002AFF860084611461A4603467B810B463B811346FB807A89FB8813449BB2013B9BB218B2B7F90820B7F90A103B8B0193B4
:404FC000B7F9083000930346F868FFF7B3FD00BF1037BD4680BD00BF80B588B002AFF860084611461A4603467B810B463B811346FB807B89FB8211E0B7F92000B7F9082027
:40500000B7F91610BB8C00930346F868FFF73CFFB7F916309BB201339BB2FB82B7F91620B7F90A10B7F906300B449A42E4DB00BF1837BD4680BD00BF90B58FB002AFF8608B
:40504000084611461A4603467B810B463B811346FB71FB689B69002B40F02E81B7F90A30FA689288934280F2E981B7F90830FA68D288934280F2E281B7F90A1097F848207D
:4050800013465B0013445B000B44013B002BC0F2D581B7F9082097F84830DB001344013B002BC0F2CB81FB68DB8A002B05D1FB79AF2B02D9FB790133FB71002387F82F304F
:4050C000BCE0FB689969FA7913469B001A4497F92F3013441A4613465B0013449B000B441B7887F82E30002387F82D309AE097F82E3003F00103002B41D097F84830012B13
:4051000013D197F92F309AB27B8913449BB219B297F92D309AB23B8913449BB21AB2B7F84030F868FFF796FE70E097F92F309BB297F8482092B202FB03F39AB27B89134406
:405140009BB219B297F92D309BB297F8482092B202FB03F39AB23B8913449BB218B297F848301CB297F848301BB2B7F840200192009323460246F868FFF7C2FE46E0B7F8B7
:405180004420B7F840309A4240D097F84830012B13D197F92F309AB27B8913449BB219B297F92D309AB23B8913449BB21AB2B7F84430F868FFF74EFE28E097F92F309BB245
:4051C00097F8482092B202FB03F39AB27B8913449BB219B297F92D309BB297F8482092B202FB03F39AB23B8913449BB218B297F848301CB297F848301BB2B7F8442001928D
:40520000009323460246F868FFF77AFE97F92D30DBB20133DBB287F82D3097F82E305B0887F82E3097F92D30072B7FF760AF97F92F30DBB20133DBB287F82F3097F92F306A
:40524000042B7FF73EAFB7F84420B7F840309A4200F0F58097F84830012B0DD17B8905339BB219B2B7F90820B7F8443000930823F868FFF709FEE2E097F848309BB21A4638
:40528000920013449AB27B8913449BB219B297F848301CB297F848309BB2DB009BB21BB2B7F90800B7F844200192009323460246F868FFF725FEC2E0FB689B6908331B7836
:4052C000FA79D31AFB71FB79DA00FB689B69043318CB1344FB61FB689B6918CBBB61FB691B887B85FB699B78FB75FB69DB78BB75FB6905331B787B75FB6906331B783B7526
:40530000002387F82730002387F826300023BB8400237B8497F84830012B05D997F91530BB8497F914307B84002387F828307EE0002387F8293070E097F826305A1C87F883
:40534000262003F00703002B08D17B8D5A1C7A851A46BB6913441B7887F8273097F92730002B50DA97F84830012B1DD197F915309AB27B8913449AB297F829309BB2134474
:405380009BB219B297F914309AB23B8913449AB297F828309BB213449BB21AB2B7F84030F868FFF757FD2EE0B7F9242097F8293013449BB297F8482092B202FB03F39AB2D9
:4053C0007B8913449BB219B2B7F9222097F8283013449BB297F8482092B202FB03F39AB23B8913449BB218B297F848301CB297F848301BB2B7F84020019200932346024682
:40540000F868FFF77DFD97F827305B0087F8273097F82930013387F8293097F82920FB7D9A4289D397F82830013387F8283097F82820BB7D9A42FFF47BAF00E000BF343705
:40544000BD4690BD80B584B000AF78600B467B807B689B8A002B19D07B689B891A46B7F9023013447A68928893420FDB7B6800229A817B685A897B689B8B7968C98901FB0B
:4054800003F39BB213449AB27B685A817B681B8C002B4FD07B689B69002B0AD17B689B8B7A68D28902FB03F39BB2013B9BB2FB8101E00023FB817B685A89FB8913449AB28F
:4054C0007B68DB8B7968C98901FB03F39BB21344BB817B68DB88BA899A422BD3BB89DAB27B68DB88DBB2D31ADBB20133D9B27B681A8A7B685B8A9A4202D07B685B8A00E07A
:4055000000231A46786800F0E9F97B6800229A817B68DA88FB89D31A9AB27B68DB8B7968C98901FB03F39BB2D31A9BB2013B9AB27B685A8100BF1037BD4680BDB0B58AB0F4
:4055400004AF78600B46FB707B689B69002B45D1FB780A2B10D17B685A897B689B8B7968C98901FB03F39BB213449AB27B685A817B6800229A81AAE0FB780D2B00F0A78025
:405580007B68DB899B009BB21BB219467868FFF759FF7B689B8918B27B685B891CB27B681B8A7A68528A7968C989C9B2FD780291019200932B46224601467868FFF73CFDAB
:4055C0007B689A897B68DB89194649000B445B009BB213449AB27B689A8178E0FB780A2B13D17B6800229A817B685A897B68DB89796889690A31097889B201FB03F39BB204
:4056000013449AB27B685A8161E0FB780D2B5ED07B689B691B7AFB75FA78FB7D9A4256D37B689B6909331B78FA789A424FD8FA78FB7DD31ADA007B689B69043318CB1344E0
:405640003B613B699B78FB733B69DB78BB73FB7B002B2DD0BB7B002B2AD03B6905331B785BB2BB817B68DB89B7F90C10FA7B0A4492B202FB03F39BB21BB219467868FFF737
:40568000E1FE7B689B8918B27B685B891CB27B681B8A7A68528A7968C989C9B2FD780291019200932B46224601467868FFF7C4FC7B689A893B6904331B789BB27968C989D9
:4056C00001FB03F39BB213449AB27B689A8100BF1837BD46B0BD00BF80B483B000AF78600B467B8013463B807A887B689A813A887B685A8100BF0C37BD4680BC704700BF08
:4057000080B483B000AF78607B689B891BB218460C37BD4680BC704780B483B000AF78600B46FB70FB78002B02D0FB789AB200E001227B68DA8100BF0C37BD4680BC7047FE
:4057400080B483B000AF78600B467B8013463B807B687A881A827B683A885A8200BF0C37BD4680BC704700BF80B483B000AF78607B681B89DBB218460C37BD4680BC704789
:4057800090B486B000AF786039603B68002B0AD07B689B69002B59D17B685B8906339AB27B685A8152E07B689B69002B3ED07B680022DA833B6808331B78BB753B6809332D
:4057C0001B787B75BB7DFB7525E0FA7DBB7DD31ADA003B68043318CB13443B613B6903331B78FB733B6906331B78BB73FA7B97F90E3013447A68D28B934209DDFB7B1AB204
:4058000097F90E301BB213441BB29AB27B68DA83FB7D0133FB75FA7D7B7D9A42D5D93B680A331B789AB27B689A830FE07B689B69002B05D07B685B89063B9AB27B685A8161
:405840007B6808229A837B680022DA837B683A689A6100BF1837BD4690BC704780B588B000AFF860B9601346FB710023FB6129E0FB795A1EFB69D31A184608F0D9FD03467C
:405880001946154806F08CFF0346184609F026F80346BB61BB69BA68B2FBF3F37B61FB69FA6813447A69D2B23032D2B21A707B69BA6902FB03F31A46BB689B1ABB60FB692E
:4058C0000133FB61FA79FB699A42D1DCFB7918462037BD4680BD00BF0000204180B483B000AF78600B46FB7013463B8000BF0C37BD4680BC704700BF80B582B000AF7860CC
:4059000039607B681BB23A6812B219460948FFF7D1F809490748FFF733FF002201210548FFF70EFF01210348FFF7F6FE00BF0837BD4680BD54CBFF1FC451010080B582B09D
:4059400000AF78607B68002B04D10C490C48FFF717FF0EE07B68012B04D10A490848FFF70FFF06E07B68022B03D107490448FFF707FF00BF0837BD4680BD00BFC45101001A
:4059800054CBFF1F0C7401007079010080B584B000AF03460A46FB801346BB80BA88FB881946022000F02EF90023FB6007E0084AFB68134400221A70FB680133FB60FB68B0
:4059C000B3F5806FF3DB00BF1037BD4680BD00BF7CCFFF1F80B582B000AF03460A46FB801346BB80FB88BA881146184600F0CAF900BF0837BD4680BD80B584B002AF7860B9
:405A000039607B6819B23B681BB2074A528A019200930B46002200210348FFF7DDFA00BF0837BD4680BD00BF54CBFF1F80B584B002AF0346FB71FB799BB203F003039BB2A0
:405A40001B019BB21AB2074B5B8A019310230093802300210348FFF7BFFA00BF0837BD4680BD00BF54CBFF1F80B582B000AF03460A46FB801346BB80BA88FB88194603483B
:405A8000FFF75EFE00BF0837BD4680BD54CBFF1F80B58AB002AFF860B9607A60FB707B68BB61FB7803F003031B010C337B61BB691BB27A6912B219461748FFF70DFE7B6867
:405AC00019B2FB789BB21B019BB21AB27B689BB2C3F180039BB218B20F4B5B8A01931023009303460C48FFF777FA0023FB610AE0FB69FA6813441B7819460748FFF71EFDF3
:405B0000FB690133FB61FA69BB689A42F0DB00BF2037BD4680BD00BF54CBFF1F80B584B000AF78600B46FB707B68FB60FB7803F003031B010C33BB60FB681BB2BA6812B210
:405B400019460548FFF7C8FD3E210348FFF7F6FC00BF1037BD4680BD54CBFF1F80B586B002AF78603960134B5B8A0193202300938023002200210F48FFF72EFA14220421B9
:405B80000C48FFF7A9FD0023FB600AE0FB687A6813441B7819460748FFF7D0FCFB680133FB60FA683B689A42F0DB00BF1037BD4680BD00BF54CBFF1F80B586B000AFF8609C
:405BC000B9607A60FB70BB68DBB21A46F9680748FFF744FE7861FB787A6879690348FFF757FF00BF1837BD4680BD00BF34CBFF1F80B500AF0248FFF783FD0346184680BDF6
:405C000054CBFF1F80B582B000AF0346FB710B46BB8013467B804F4AFB791370AE2000F09BF8D52000F098F8802000F095F8A82000F092F87B88DBB2013BDBB2184600F020
:405C40008BF8D32000F088F8002000F085F8402000F082F88D2000F07FF8FB79012B03D1102000F079F802E0142000F075F8202000F072F8002000F06FF8A12000F06CF835
:405C8000C82000F069F8BB88802B0ED17B88202B0BD1DA2000F060F8022000F05DF8812000F05AF88F2000F057F8BB88802B15D17B88402B12D1DA2000F04EF8122000F0C3
:405CC0004BF8812000F048F8FB79012B03D19F2000F042F802E0CF2000F03EF8BB88602B15D17B88102B12D1DA2000F035F8022000F032F8812000F02FF8FB79012B03D1E8
:405D0000102000F029F802E0AF2000F025F8D92000F022F8FB79012B03D1222000F01CF802E0F12000F018F8DB2000F015F8402000F012F8A42000F00FF8A62000F00CF8ED
:405D40002E2000F009F8AF2000F006F800BF0837BD4680BD7CD3FF1F80B582B000AF0346FB71074B00221A70054AFB795370002202213C20FCF75AFB00BF0837BD4680BD06
:405D8000ECC8FF1F80B586B000AF7860396000F071F80020FFF7E0FF1020FFF7DDFF4020FFF7DAFF0023FB730223BB733B68DB103B607B68DB107B600023BB6000237B7500
:405DC0000023FB7549E0FA7DFB7B1344DBB2503BDBB21846FFF7C0FFBB7B03F00F03DBB21846FFF7B9FFBB7B1B09DBB243F01003DBB21846FFF7B0FF1C4B40221A700023E4
:405E0000BB7524E000233B610EE03B6901337A7D796801FB02F13A690A441549895C134AD1543B6901333B613A697B689A42ECDB7B7D01337B757B689BB201339BB20022A0
:405E400019463C20FCF7F2FABB7D0133BB75BB7D072BD7D9FB7D0133FB75FA7D3B689A42B1DB00BF1837BD4680BD00BFECC8FF1F7CCFFF1F80B500AF0021002000F002F8DD
:405E800000BF80BD80B582B000AF03460A46FB711346BB7197F90630002B01DA7F23BB71FB79072B01D90723FB712120FFF754FFBB791846FFF750FF7F20FFF74DFF222012
:405EC000FFF74AFFFB791846FFF746FF0320FFF743FF00BF0837BD4680BD00BF80B582B000AF786039603A680021786808F04DFD00BF0837BD4680BD80B584B000AFF860E4
:405F0000B9607A607A68B968F86808F033FD00BF1037BD4680BD00BF80B483B000AF0346FB71FEE780B582B000AF3F4B04221A803E4B18221A703E4B07221A803D4B182273
:405F40001A703D4B07221A803C4B18221A703C4B17221A803B4B18221A703B4B47221A803A4B18221A703A4B4FF6FF721A80394B19221A70384B06221A70384B384A1278A9
:405F8000D2B21A70374B52221A70374B40F21A721A80364B42F251221A800023FB7019237B6013E0FB785B00DAB2314B1B78DBB203F00103DBB21343DBB203F00303FB705E
:405FC000782006F04DFA7B68013B7B607B68002B02D0FB78032BE5D17B68002B02D10320FFF79AFF234B4FF480721A80214B07221A70214B00221A70204B48221A701D4BCD
:4060000000221A701E4B00221A701E4B02221A701D4A1D4B1B78DBB243F03F03DBB2137000BF0837BD4680BD80400040824000408440004086400040884000408A400040B8
:406040008C4000408E4000409040004092400040944000409640004000430040A14600400F01004900420040224200402042004025420040044000400640004008400040B6
:406080000940004001400040A243004080B582B000AF1F4B1B78FB711E4B1B78BB711E4B1B787B711D4AFB7903F00703DBB213701B4AFB791B09DBB21370164ABB7943F066
:4060C0000303DBB21370144A7B7943F00303DBB21370144B0F221A70134B40221A70134B40221A70124BF0221A70124B20221A700A2001F071FC084A7B791370054ABB794B
:4061000013700D4B66221A7000BF0837BD4680BDCF010049F8460040F94600406E5800406F5800400D5100400159004003590040205B0040235B00407658004080B586B04B
:4061400000AF72B6614B61221A70FFF7EBFE0023FB7513E0FA7D13465B0013445B005C4A13443B613B691A683B699B889BB219461046FFF7B3FEFB7D0133FB75FB7D012B5E
:40618000E8D90023FB751CE0FA7D13469B0013445B00504A1344FB60FB681B68BB60FB685B687B60FB681A7A5B7A1B0213437B807B881A467968B868FFF79EFEFB7D013348
:4061C000FB75FB7D572BDFD9042243494348FFF793FE042242494348FFF78EFE04214248FFF77CFE04214148FFF778FE042240494048FFF781FE04223F494048FFF77CFE70
:406200003F4B404A1A60404B404A1A60404A404B1B78DBB243F00203DBB213703D4A3D4B1B78DBB243F00203DBB213703A4A3A4B1B78DBB243F04003DBB21370374A374B9B
:406240001B78DBB243F01003DBB21370082234493448FFF751FE082233493448FFF74CFE0A2233493348FFF747FE0A2232493348FFF742FE0A2232493248FFF73DFE0822AC
:4062800031493248FFF738FE0A2231493148FFF733FE0A2230493148FFF72EFE082230493048FFF729FE304A2F4B1B78DBB243F00803DBB21370FFF7E9FE0E2216492B48BF
:4062C000FFF71AFE00BF1837BD4680BD00480040F49D0300009E03009C24004800760040A0240048087600401076004018760040A424004820760040A82400482876004091
:40630000D8060140040400A4D8140140040424E40350014013500140A0430040C2430040402400480251004048240048C251004050240048F05100405C24004810510040C9
:40634000682400482051004074240048325100407C240048405100408824004850510040942400486251004022430040B043004080B500AF08F0D2FA03461B680C2B00D120
:40638000FEE7FEE780B584B000AF7860104B1A687B6813441A460F4BD31AB3F5006F09DC0B4B1B68FB600A4B1A687B681344084A136007E008F0B2FA02460C2313604FF0AB
:4063C000FF33FB60FB6818461037BD4680BD00BFA081FF1F10D5FF1F80B586B000AF224B7B61224B3B61204B7B6135E03B691B68FB603B695B68BB603B699B683B60002396
:406400007B600CE0FB681A68BB681A60BB680433BB60FB680433FB607B6804337B607A683B689A42EED13B69DB683B6000237B6008E0BB6800221A60BB680433BB607B6815
:4064400004337B607A683B689A42F2D13B6910333B617B69013B7B617B69002BC6D108F063FAFAF769F8FEE701000000FCA4030080B582B000AF194B194A1A60194A194B73
:406480001B6843F40073136000237B600FE07B68032B04D8144A7B6852F8233000E0134B13497A6841F822307B6801337B607B682F2BECD90F4B1B78DAB20F4B1A700F4BD2
:4064C0000B4A1A60FFF73AFE00F070FE0C4B00221A6000BF0837BD4680BD00BF0CED00E00004FA0514ED00E000000000716300000080FF1FBC760040C480FF1F08ED00E079
:40650000C080FF1F80B584B000AF786039600123FB733B68002B5FD07B68002B5CD07B68DB68002B58D07B685B680A2B54D87B681B68002B50D0786800F066FC0346FB7391
:40654000FB7B002B48D17B681A683B68DA607B685A683B681A617B681A7A3B681A757B685A7A3B685A757B68DA683B689A617B681B68DA097B681B6803F07F03002B01D0A7
:40658000012300E000231A443B685A603B685B687A68526802FB03F31A027B68DB681A443B681A603B6808333968184600F046FB3B689B681B68002B0ED13B681B7D002BA0
:4065C0000AD0386800F072FD0346FB733B6808333968184600F032FBFB7B18461037BD4680BD00BF80B59AB002AFF860B9607A603B60012387F85F300023FB640023BB64EB
:40660000BB687B647B68002B00F06B81FA687B681A443B68DB689A4200F26381BB68002B00F05F81FB683B647B68FB633B689B681B687B630023BB633A6CFB6B1344013BEB
:40664000DA093B6CDB09D31A01333B633B689A683B689B69D21A3B685B681B02B2FBF3F33A68526802FB03F31A023B689B691344FB620023BB6518E0BB6DDA013B6C9A4218
:4066800008D8BB6D0133DB015A1E3B6C9A4201D3012300E00023002B04D0BB6DBB64BB6CFB6407E0BB6D0133BB653B685A68BB6D9A42E1D83B689A68FB6AD31A1B0ABB6242
:4066C0003B681B69012B12D93A6BBB6C1344013B7B62BA6CBB6A9A4207D87A6ABB6A9A4201D9012302E0002300E00123BB630023BB6563E0FB6C1A02FB6A13443B653B6C04
:4067000003F07F0380333B62BB6D5A1C3B6B9A4206D23B6C03F07F03C3F180037B6501E0FB6B7B65BB6B002B17D0FA6CBB6A9A4213D93B685B681B023A6DD31A3B653B685D
:406740009A693B6D9A4208D93B681A683B685968FB6CCB1A1B02D31A3B653B681B7D002B0FD03B6800937B6D3A6A796C386D00F0A3FB034687F85F3097F85F30002B0BD098
:4067800020E0786C3A6D3B6A13447A6D194608F0F1F8002387F85F303A6C7B6D13443B64FA6B7B6DD31AFB637A6C7B6D13447B64FB6C0133FB64BB6D0133BB65BA6D3B6B97
:4067C0009A4297D397F85F30002B40F08A807B6B002B00F086803B685A687B6B934228BF13463B633B6B013B3B637A6B3B6BD31ABB6572E03968B86D00F056FA38653B6D16
:40680000002B67D03B6D04331B68FB613B6D08331A68FB691344BB61FA69FB689A4209D9FA687B681A44FB699A428CBF01230023DBB206E0FA68BB699A4234BF01230023F4
:40684000DBB2002B46D0FA69FB689A4203D8FA68FB69D31A00E000237B61FA69FB689A4203D9FA69FB68D31A00E000233B61FA68FB69934238BF13463B647B690C337B61E2
:40688000FA687B681A44BB699A4228BF1A463B6CD31A7B65BA683B6913447B643B681B7D002B0FD03B6800937B6D7A69796C386D00F002FB034687F85F3097F85F30002B21
:4068C00008D00EE0786C3A6D7B6913447A6D194608F050F8BB6D0133BB65BA6D7B6B9A4288D997F85F3018466037BD4680BD00BF90B5D7B002AF07F10C04206007F10800A9
:406900000160391D0A603A461360012387F84F3107F1200300221A6007F11C0300221A603B461B689A6807F118031A6007F108031B68C7F83C313B1D1B68002B00F0748186
:4069400007F10C023B1D12681B681A443B461B68DB689A4200F2688107F108031B68002B00F062813B1D1B68013B1B09B24AA2FB03230133C7F8343107F1100300221A60E3
:406980000023C7F8443146E10023C7F8383107F118031B681B68C7F830313B4607F1140207F118011B68D7F8300100F09DF907F124034FF480720021184607F0E6FFD7F8AE
:4069C00030310133C7F8303107F12403D7F830211A6007F1240307F10C0212685A60D7F83C31C7F82C31D7F834315A1ED7F844319A4205D107F124033A1D12689A6014E0F8
:406A000007F1240370229A603B1D3A1D1268703A1A6007F10C0307F10C02126870321A60D7F83C317033C7F83C3107F124039A6807F124030C33D7F82C11184607F09AFF37
:406A400007F114031B68002B0BD007F114031B688033194607F1240380338022184607F089FF3B461B685A68D7F830319A4207D23B461B685B68D7F83021D31A013300E0F6
:406A80000123C7F848317EE0D7F84821D7F830319A4204D107F12403C7F8403107E03B461968D7F8480100F0FFF8C7F8400107F118031A683B461B689B69D31A1B0A3A469D
:406AC00012685268B3FBF2F102FB01F29B1AC7F82831D7F84031002B17D0D7F8403104331B68D7F840210832126807F1100407F11C0107F1200001920093D7F828312246F5
:406B000000F056FAC7F8380104E0D7F838310133C7F83831D7F83831002B1ED107F1240207F120031B681344C7F8243107F110031A68D7F8403113440C33C7F84031D7F8CA
:406B40002401D7F8401107F11C031A6807F120031B68D31A1A4607F00DFF3B461B681B7D002B0BD007F1240380338021184600F015F903461A4607F12403DA67D7F8483187
:406B80000133C7F84831D7F84821D7F830319A427FF67AAF07F1180318683B4607F124011A6800F063F9034687F84F3107F118031B68C7F840313B461B681B7D002B1BD0C8
:406BC00097F84F31002B17D107F118031A683B461B689B69D21A3B461B681B681344C7F840313B4607F124011A68D7F8400100F03DF9034687F84F3197F84F31002B12D121
:406C000007F118031A683B461B689A60D7F844310133C7F84431D7F84421D7F834319A42FFF4B2AE00E000BF97F84F31184607F5AA77BD4690BD00BF2649922480B487B0B6
:406C400000AF786039600023BB6000237B613B689B69FB607B68FA681A6000233B6115E0FB681B68BB60BB68002B08D0BA687B699A4204D9BB687B617B68FA681A60FB683B
:406C800003F58073FB603B6901333B613B685B683A68126902FB03F23B699A42E0D800BF1C37BD4680BC704780B485B000AF786039603B689B69FB600BE0FB6803F58073A1
:406CC000FB603B681A68FB689A4202D80023FB6004E0FB681A687B689A42EED1FB6818461437BD4680BC704780B485B000AFF860B9607A603B60FB68002B05D0BB681B682D
:406D000003F58072BB681A60BB681A683B681B689A4203D33B689A69BB681A607B6800221A603B685A68FB689A4231D83B681B69012B29D9BB681A683B685B681B02D21A77
:406D40003B689B699A4216D23B689A693B6859683B681B6903F1FF1303F57F4303FB01F31B021A44BB6819683B689B69CB1A1A447B681A600CE0BB681A683B685B681B024B
:406D8000D21A7B681A6003E0BB681A687B681A6000BF1437BD4680BC704700BF80B485B000AF78603960FF23FB730023BB8121E0BB897A6813441A78FB7B5340FB730023C4
:406DC000BB7311E097F90F30002B06DAFB7B5B00DBB283F03103DBB202E0FB7B5B00DBB2FB73BB7B0133BB73BB7B072BEAD9BB890133BB81BA893B689A42D9D1FB7B1846A3
:406E00001437BD4680BC704780B487B000AF78600323FB757B68DB683B617B681B68DA097B681B6803F07F03002B01D0012300E0002313447A68526802FB03F37A68127A2C
:406E4000013202FB03F31A023B691344FB603B69002B05D0FB68B3F5802F01D80023FB75FB7D18461C37BD4680BC704780B588B000AFF860B9607A600423FB77FB681B0A09
:406E8000DBB2BB6100F024FCFB681B0C7B617B69DBB2BA6991B2BA68184600F02BFC386100F0AEFD3B69002B01D10023FB77FB7F18462037BD4680BD90B5C7B000AF07F109
:406EC0000C04206007F108000160391D0A603A461360D7F828319B6907F10C021268D21AD7F828311B681344C7F8103107F10C031B687C331C6807F10C031B6880338021B9
:406F00001846FFF74BFF03469C4211D107F10803186807F10C023B1D12681B68134419463B461A6807F026FD002387F8173137E0D7F810317C331C68D7F810318033802151
:406F40001846FFF72BFF03469C4226D1D7F8101107F110034FF48072184607F00BFD07F1100107F10C03D7F828211868FFF77EFF034687F8173197F81731002B10D107F1E2
:406F8000080318683B1D1B689B0007F11002D1183B461A6807F0EEFC02E0022387F8173197F81731184607F58E77BD4690BD00BF80B487B000AFF860B9607A603B600023C3
:406FC0007B617B6800221A603B68DA013B6A9A4208D83B680133DB015A1E3B6A9A4201D3012300E00023002B27D03B6A03F07F0303F18002FB681A603A6A7B6A1A443B6897
:40700000DB019A420AD33A6A7B6A1A443B680133DB01013B9A4201D8012300E00023002B06D0FB681A687B6A1A44BB681A6036E0BB684FF480721A6031E03A6A7B6A1A4463
:407040003B68DB019A420AD33A6A7B6A1A443B680133DB01013B9A4201D8012300E00023002B19D0FB6880221A60FB681A687B6A1A443B6A03F07F01FB681B68CB1A1A442A
:40708000BB681A60FB681A68BB681B68D21A7B6A1A447B681A6002E07B6901337B617B6918461C37BD4680BC704700BF80B5C8B000AF3B1D18603B1D1B689A6807F10803F0
:4070C0001A6007F108031B681B68C7F81831012387F817310023C7F81C3153E007F108031B68194607F10C034FF48072184607F041FCD7F818310133C7F8183107F10C03AA
:40710000D7F818211A6007F10C03803380211846FFF744FE03461A4607F10C03DA6707F1080318683B1D07F10C011A68FFF79EFE034687F8173107F108031A683B1D1B6887
:407140009B69D21A3B1D1B681B681344C7F810313B1D07F10C011A68D7F81001FFF786FE034687F817313B1D07F5867207F108011B68D7F81801FFF7B7FDD7F81C3101336F
:40718000C7F81C313B1D1B685B683A1D1268126902FB03F2D7F81C319A429FD897F81731184607F59077BD4680BD00BF80B483B000AF134B7F221A70124B80221A707F2377
:4071C000FB710CE0FB79DB0003F1804303F5F043FA79013AD2B21A70FB79013BFB71FB79002BEFD1FB79DB0003F1804303F5F04300221A7000BF0C37BD4680BC704700BF3B
:40720000A581FF1FA481FF1F80B485B000AF03460A46FB711346BB710123FB60FB79172B2FD8BB79002B0ED0FB791A01184B1344FA791101164A0A441278D2B242F02002CE
