:400000000080002011000000ED510000ED51000080B500AF024A034B1B68136005F01AF9BC760040FA46004010B5054C237833B9044B13B10448AFF300800123237010BD83
:400040006082FF1F0000000074F00000084B10B51BB108490848AFF300800848036803B910BD074B002BFBD0BDE81040184700BF000000006482FF1F74F00000C880FF1F08
:400080000000000090B583B000AF554B1B78DBB2002B0CBF01230023DBB21A46504B1A704F4B1B78DBB2002B0CBF01230023DBB219464C4A1A2303FB01F313441B78DBB2EB
:4000C000FE2B4FD1464B1B78DBB2002B0CBF01230023DBB21946434A1A2303FB01F3134419331B78DBB2FD2B3CD100237B6034E03B4B1B78DBB2002B0CBF01230023DBB2A7
:4001000018467B685B00013336491A2202FB00F20A4413441B78DBB29BB21B029AB2304B1B78DBB2002B0CBF01230023DBB21C467B6801335B002B481A2101FB04F10144AD
:400140000B441B78DBB29BB2134499B2264A7B6822F813107B6801337B60244B1B687A689A42C5DB07F024FF214B1B78184605F0CFFF1B4B1B78DBB21A461E4B985C0223AD
:40018000FE221A2106F0FEF8154B1B78DBB21A46184B985C124B1B78DBB21A461A2303FB02F3104A13449BB21A4646F25B4106F029F90F4B1A780A4B1B78DBB219460D4B52
:4001C0005B5C1946104606F041F8094B1B780121184605F057FF00BF0C37BD4690BD00BFC882FF1F80ABFF1F8C98FF1FCC80FF1F6CABFF1FE483FF1F80B500AF214B1B78A7
:40020000DBB2002B0CBF01230023DBB21A461D4B1A7007F087FF1C4B1B78184605F078FF184B1B78DBB21A46184B985C0623FE22082106F0A7F8134B1B78DBB21A46134B57
:40024000985C104B1B78DBB2DB00114A13449BB21A4646F2575106F0D5F80B4B1A78094B1B78DBB21946094B5B5C1946104605F0EDFF054B1B780121184605F003FF00BFBD
:4002800080BD00BFC982FF1F40A1FF1F60ABFF1F60C9FF1F80B500AF08F034F90AF022FB00F002F800BF80BD80B500AF184B02221849002005F0D4F803461A46164B1A7023
:4002C00008F0B8FC0346012B20D1124B1B78DBB2012B0CD1114B00221A700D4B02220F49002005F043FA0E4B01221A700EE00B4B01221A70064B02220849002005F036FA36
:4003000008F096FA06F062FF06F072FA00BF80BD20D4FF1FE082FF1FE0C7FF1FE482FF1FB082FF1F80B582B000AF7860134978680DF0D2F80346002B02D04FF0000319E0E3
:400340000F4978680DF0DCF80346002B04D00C48FFF7E8FF03460DE00A4978680CF014FF034618460AF08EFF0346074918460CF00BFF034618460837BD4680BD0080BBC433
:400380000060BB4420986C3D13D0024180B582B000AF78604FF0000178680DF0B1F80346002B0ED0094978680CF0EEFE034618460AF0DAFF0346064918460CF0E5FE03469F
:4003C00000E0044B18460837BD4680BDD27EFA3DAC7F8A410080BBC4B0B584B000AFF860B9607A603B603968386A0CF0C3FD03461C46B968F8680CF0BDFD03461D46B96899
:4004000078680CF0B7FD0346194628460CF070FF0346194620460CF0B7FE0346396818460CF0AAFD034618461037BD46B0BD00BF90B583B000AF00237B606EE03A4A7B680A
:4004400032F8133018460CF047FE0446374A7B6832F8133018460CF03FFE0346194620460CF088FD03463B60304A7B6832F8133018460CF035FE04462D4938680CF084FE16
:400480000346194620460CF077FD034618460DF07DF8034699B2254A7B6822F81310224A7B6832F8133018460CF01AFE0446204938680CF069FE0346194620460CF05AFD3D
:4004C000034618460DF062F8034699B2164A7B6822F81310144A7B6832F8133018460CF0FBFD0446114A7B6832F8133018460CF0F3FD0346194620460CF03CFD03463B6084
:4005000039680C480CF0F4FE034619460A4A7B6842F823107B6801337B607B68092B8DDD00BF0C37BD4690BD0481FF1FF080FF1FCDCCCC3D00F07F45A498FF1F90B5ABB046
:4005400002AF62B60AF0D0FCB14B18460AF09CF903461A46AF4B1A70002387F83B3006F01DFE012008F046FBAB4807F07DFF4FF4FA6006F04DF900200AF046FD03461A4619
:40058000A64B1A7001200AF03FFD03461A46A34B5A700023C7F89C30BBE00023C7F8983029E0D7F89C309BB21A4612011A4492001A44520013445B009AB2D7F898309BB22F
:4005C00013449BB202339BB218460AF01DFD034618469349D7F89C201346DB009B1A5B00CA18D7F89830134402461A70D7F898300133C7F89830D7F898300D2BD1DD00237D
:40060000C7F894307BE0D7F8942013465B001344DB007B630023C7F8903067E0D7F890305B003B633B6B9AB27B6B9BB213449AB2D7F89C309BB219460901194489001944C8
:4006400049000B445B009BB213449BB210339BB218460AF0D9FC0346FB853B6B9AB27B6B9BB213449AB2D7F89C309BB21946090119448900194449000B445B009BB213441D
:400680009BB211339BB218460AF0BEFC0346BB85FB8D1A02BB8D134418460CF021FD03464FF06E5118460CF06FFD03464FF0864118460CF05FFC03461C465A48D7F8943015
:4006C000D7F89C101A4652001A4493001A460B465B010B449B001A44D7F89030134440F82340D7F890300133C7F89030D7F890300B2B93DDD7F894300133C7F89430D7F876
:4007000094300A2B7FF77FAFD7F89C300133C7F89C30D7F89C30062B7FF73FAF0023C7F88C3049E0D7F88C3003F2E7139BB29B009BB218460AF068FC03469BB21B029CB25F
:40074000D7F88C309BB29B009BB203F29D739BB218460AF059FC03469BB2234499B2324AD7F88C3022F81310D7F88C309BB29B009BB203F29E739BB218460AF045FC034639
:400780009BB21B029CB2D7F88C309BB29B009BB203F29F739BB218460AF036FC03469BB2234499B2214AD7F88C3022F81310D7F88C300133C7F88C30D7F88C30092BB1DDE1
:4007C000FFF736FE0023C7F8883061E00023C7F8843011E01649D7F888201346DB009B1A5B00CA18D7F884301344FF221A70D7F884300133C7F88430D7F884300D2BE9DD41
:400800000023C7F8803034E00023FB6729E000BF00F10000E0C7FF1F95020000D480FF1FE8C7FF1F7C84FF1FF080FF1F0481FF1F3C93FF1F4E48D7F88030D7F888101A4621
:40084000D200D21A53001A460B46DB005B1A1B011344C218FB6F1344FF221A70FB6F0133FB67FB6F0D2BE5DDD7F880300133C7F88030D7F88030072BC6DD3E4AD7F88830C4
:40088000002142F82310D7F888300133C7F88830D7F888303F2B99DD07F0ACFC00200AF0A5F901200AF0C0F900200AF0DBF900200AF0F4F900200AF00BFA01200AF044FA79
:4008C00007F032F907F048F92B4B1B682B4AD25C2B4B1A700A2005F09BFF2A4B40221A7000220121702001F059FF03461A46264B1A604021802003F0CDFF002003F0ECFF79
:400900004021802004F006F81D4B1B78184603230022022104F098F804F0B2F80246032301211A4804F044F8154B1B781A461346DB009B1A5B00164A9C1804F0A1F802463C
:4009400003230921204604F033F84021802004F005F80C4B04221A7000220121702001F01DFF03461A46084B1A600023BB6727E0E0ABFF1F8C97FF1F4883FF1FD480FF1FC1
:40098000BA82FF1F4CC8FF1F58CAFF1F00F50000E8C7FF1FBB6FDBB20833DAB2924B1A7000220121722001F0F9FE03461A468F4B1A602021802003F0ADFFBB6F0133BB6709
:4009C000BB6F072BE6DD884B04221A7000220121702001F0E3FE03461A46844B1A60844B09221A70804B0F221A7000220121352001F0D4FE03461A467C4B1A6007F0AAFAD2
:400A000006F07EFA07F060FB01F0D8FD01F00EFE78480AF029F8784809F0D8FF774BFE229A77764BFD22DA77714B00221A70744B1B78DBB2002B01D002F0B0F901200AF0AB
:400A400061F86B4B1B78DBB21A466E4B13F812206D4B1B789A4214D0654B1B78DBB21A46684B13F812301A4601239340DAB25E4B1A7000220121702001F090FE034687F885
:400A80002B305B4B1B78DBB21A465E4B13F812205D4B1A700A2005F0DDFE554B1B78DBB21A46584B13F81230052B1DD1504B1B78DBB21A46554B9B5C002B15D14C4B1B7888
:400AC000DBB2504A5B0013445B781A4601239340DAB2454B1A7000220121712001F05EFE03461A46414B1A600A2005F0B3FE404B1B78DBB2092B00F2BF803D4B1B78DBB2F4
:400B00001A46424B9B5C002B40F0B680364B0E221A7002220121362001F040FE03461A46324B1A60314B1B68002B08D101220221362001F0A3FE03461A462C4B1A602B4B59
:400B40001B68002B40F09880294B1B78DBB21A462F4B1B78DBB29BB21B0299B22D4B23F812102B4B5B78D8B2214B1B78DBB219461A46284B33F8122083B213449AB2254B51
:400B800023F81120244B1B68002B75D0184B1B78DBB21A461F4B33F81220154B1B78DBB219461E4B33F811309A4247D2104B1B78DBB2002B34D10E4B1B78DBB21A46154B50
:400BC00033F81230002B39D0094B1B78DBB21A46074B1B78DBB219460E4B33F811100F4B23F812102AE000BF4CC8FF1F58CAFF1F0183FF1F85000000F9010000D4C9FF1F5C
:400C0000A282FF1FD880FF1F7081FF1FF082FF1FE496FF1F28A3FF1F5083FF1FF080FF1F884B1B78DBB21A46864B1B78DBB21946854B33F81110854B23F81210814B1B7832
:400C4000DBB21A46804B33F812207E4B1B78DBB219467F4B33F811309A420DD9794B1B78DBB21A46774B1B78DBB21946764B33F81110774B23F81210724B1B78DBB2092B7D
:400C800040F0B0806F4B1B78DBB21A46714B9B5C002B40F00E81704B00221A7000221021352001F0EBFD03461A466C4B1A606B4B1B68002B40F0FD8000237B6749E07B6F12
:400CC0005B00674AD35CDBB29BB21B029AB27B6F5B0001336249CB5CDBB29BB213449BB2C3F30B03BB80BB881B099BB2DBB2DB43D9B25C4A7B6F13440A461A70594A7B6F76
:400D000013441B785B08D9B2574A7B6F13440A461A70554A7B6F13441A7854497B6F0B441B789A4209D07B6F581C4F4A7B6F13441B780022194601F0C7FF4B4A7B6F1344B6
:400D400019784A4A7B6F13440A461A707B6F01337B677B6F072BB2DD454B1B68022B40F0A880444B1B780833DAB23B4B1A7000220121722001F012FD03461A46374B1A607C
:400D80002021802003F0FCFD012003F0A5FD3A4B1B781946374B1B781A46D200D21A53001A460B46DB005B1A1B011344334A981801230022092103F0FBFD2021802003F0E3
:400DC000CDFD2C4B1B780133DAB22A4B1A70294B1B78072B6DD9264B00221A60254B00221A7066E0174B1B78DBB20A2B4AD1154B1B78DBB21A46174B9B5C002B59D1164BB1
:400E000000221A70002202214F2001F037FD03461A46124B1A60114B1B68002B49D1104B1B78DBB29BB21B029AB2154B1A800C4B5B78DBB29AB2124B1B8813449AB2104B5D
:400E40001A8036E00183FF1F28A3FF1FF080FF1F0481FF1FF082FF1F4CC8FF1F58CAFF1FE496FF1FBC96FF1FCC98FF1F7484FF1F1C83FF1FDF82FF1F1083FF1FE0ABFF1FCE
:400E80001A81FF1F804B1B78DBB20B2B11D17F4B1B68002B06D04021802003F05FFD7B4B00221A607A4B1B68012B02D1784B02221A60754B1B78DBB2092B00F2CA80724BC1
:400EC0001B78DBB21A46734B33F812206E4B1B78DBB21946704B33F81130D31A9BB23B85B7F92830002B1CDD674B1B78DBB21C46B7F9283018460CF0F3F8634B1B78DBB283
:400F00001A46664B53F8223019460CF03DF9034618460CF03BFB03469AB2614B23F8142007E0594B1B78DBB21A465D4B002123F81210554B1B78DBB21A46594B33F81230C7
:400F4000B3F5805F08D3504B1B78DBB21A46544B40F6FF7123F812104B4B1B78DBB21C46494B1B78DBB21A464D4B33F8123018460CF0B2F803464B4918460CF005F90346BF
:400F80001A46494B43F824203F4B1B78DBB21C463D4B1B78DBB21A46444B9B5C1A46404B33F8123018460CF097F803464FF0765118460CF0E9F8034618460CF0E7FA03468C
:400FC000DAB23B4B1A55304B1B78DBB21A462E4B1B78DBB21946364B5B5C5B08D9B2354B9954294B1B78DBB21A46324B9A5C264B1B78DBB21946304B5B5C9A420ED0224B3A
:401000001B78DBB203F10E001F4B1B78DBB21A46284B9B5C0122194601F056FE1A4B1B78DBB21A46184B1B78DBB21946214B595C214B9954144B1B78DBB21A46124B1B7863
:40104000DBB21946164B33F811101C4B23F812105FE01B4B1B8818460CF03EF80346194918460CF091F8034618460CF069FA03461AB2154B1A80144BB3F90030002B25DA53
:40108000114B00221A802BE00183FF1F1883FF1F1C83FF1F28A3FF1FF080FF1FA498FF1FFC83FF1F010880392083FF1F7881FF1F6884FF1F04CAFF1F24CAFF1FE883FF1F62
:4010C0001A81FF1FC5F1803F6EABFF1FA24BB3F90030B3F5805F03DB9F4B40F6FF721A809D4BB3F900305B111BB2DAB29B4B1A709A4B1A789A4B1B789A4206D0974B1B7823
:40110000002219460D2001F0DFFD944B1A78944B1A70944B1B78DBB20133DAB2914B1A70904B1B78DBB20B2B02D98E4B00221A70002009F0E7FC012009F01CFD8A4B1B780D
:40114000DBB2002B0CBF01230023DBB2874ADB0013449B79DBB2FE2B40F05481824B1B78DBB2002B0CBF01230023DBB27F4ADB001344DB79DBB2FD2B40F0448100233B67D1
:401180003CE1794B1B78DBB2002B0CBF01230023DBB21A463B6F5B007449D2000A4413441B78DBB29BB21B029AB26F4B1B78DBB2002B0CBF01230023DBB219463B6F5B00ED
:4011C00001336A48C90001440B441B78DBB29BB2134499B2664A3B6F22F81310644A3B6F32F813309AB263493B6F31F813309BB29A4200F0F7805E4A3B6F32F813309BB297
:401200004FF6FF72934211D0594A3B6F32F813309BB218460BF064FF574A3B6F52F8233019460CF06DF90346002B06D0534A3B6F4FF07E5142F82310C5E04D4A3B6F32F8BA
:4012400013309BB218460BF04BFF4B4A3B6F043352F8233019460CF049F90346002B32D0434A3B6F32F813309BB218460BF038FF414A3B6F52F8233019460CF02DF90346F8
:40128000002B20D03A4A3B6F32F813309BB218460BF022FF0446384A3B6F52F82310364A3B6F043352F82320354B1868344B5B68009303462046FFF78FF801462F4A3B6F65
:4012C00042F823107FE02A4A3B6F32F813309BB218460BF005FF284A3B6F083352F8233019460CF003F90346002B4BD0204A3B6F32F813309BB218460BF0F2FE1E4A3B6FEA
:40130000043352F8233019460CF0DCF80346002B38D0174A3B6F32F813309BB218460BF0DBFE0446144A3B6F043352F82310124A3B6F083352F82320114B5868104B9B68E9
:40134000009303462046FFF747F801460B4A3B6F42F8231037E000BF6EABFF1FDC82FF1FDD82FF1F0183FF1FC982FF1F60C9FF1F34CAFF1FE4C7FF1F1C81FF1F0499FF1F90
:401380006081FF1F9C4A3B6F32F813309BB218460BF0A2FE0446994A3B6F083352F82310964A3B6F0C3352F82320954B9868944BDB68009303462046FFF70EF80146914AA4
:4013C0003B6F42F823108F4A3B6F52F8233019464FF07E500BF08CFF034619468A4A3B6F42F82310844A3B6F32F8133099B2874A3B6F22F813103B6F01333B673B6F012BF3
:401400007FF7BFAE002009F0B5FB0023FB661AE07F4AFB6E32F813309AB27E49FB6E31F813309BB29A4202D0F86E01F0AFFB784AFB6E32F8133099B2764AFB6E22F81310B6
:40144000FB6E0133FB66744B1B68FA6E9A42DFDB06F06AFA0346002B24D1704B1B68042B03DD6E4B04221A600CE06D4B1B78002B08D06A4B1B68002B04DD684B1B68013BD5
:40148000664A1360012009F0B1FB002009F0CCFB002009F0E7FB002009F000FC604B00221A7007E006F040FA0346002B02D05C4B01221A7006F048FA0346002B0ED1574B1E
:4014C00005221A60002009F091FB012009F0ACFB002009F0C7FB002009F0E0FB06F044FA0346002B0ED14D4B06221A60002009F07DFB002009F098FB012009F0B3FB002030
:4015000009F0CCFB06F040FA0346002B24D1434B1B68062B03DC414B07221A600CE0414B1B78002B08D03D4B1B680A2B04DC3B4B1B680133394A1360002009F057FB002016
:4015400009F072FB002009F08DFB012009F0A6FB344B00221A7007E006F016FA0346002B02D0304B01221A7009F05AFC0346002B10D12D4B00221A602B4B1B682B4AD25CCF
:401580002B4B1A70002009F0A3FB012009F0DCFB01F0FCF909F054FC0346002B10D1224B01221A60204B1B68204AD25C204B1A70012009F08DFB002009F0C6FB01F0E6F92E
:4015C00009F04EFC0346002B38D11A4B1B78002B34D0194B1B78002B0CBF01230023DBB21A46154B1A70144B1B78184609F0E0FA104B00221A7029E034CAFF1F1C81FF1FEF
:401600006081FF1F0499FF1FD498FF1FE4C7FF1F8C98FF1F1084FF1FCC80FF1FD080FF1F7381FF1F7481FF1F4883FF1FD480FF1FBA82FF1F7181FF1F0383FF1F09F010FC3E
:401640000346002B02D09D4B01221A709C4B1B68002B40F0B08009F093FB0346002B25D1984B1B78002B21D0974B1B78013BDAB2954B1A70944B1B7803F01F03DAB2924B80
:401680001A70924B1B68904A1178914AD1548E4B1A788E4B1B689BB21946104609F02AFC01F074F9874B00221A7007E009F068FB0346002B02D0834B01221A7009F070FBB1
:4016C0000346002B25D1834B1B78002B21D07E4B1B780133DAB27C4B1A707B4B1B7803F01F03DAB2784B1A70784B1B68764A1178774AD154744B1A78744B1B689BB219469B
:40170000104609F0F7FB01F041F9724B00221A7007E009F045FB0346002B02D06D4B01221A7009F04DFB0346002B16D16A4B1B78002B12D0694B1B78013BDAB2674B1A70CD
:40174000664B1B7803F03F03DAB2644B1A7001F01DF9614B00221A7007E009F031FB0346002B02D05C4B01221A7009F039FB0346002B16D15A4B1B78002B12D0574B1B7824
:401780000133DAB2554B1A70544B1B7803F03F03DAB2524B1A7001F0F9F8514B00221A70CCE009F01DFB0346002B00F0C7804C4B01221A70C2E009F0E3FA0346002B25D16D
:4017C000404B1B78002B21D03F4B1B78013BDAB23D4B1A703C4B1B7803F01F03DAB23A4B1A703A4B1B68384A1178394AD154364B1A78364B1B689BB21946104609F07AFBAC
:4018000001F0C4F82F4B00221A7007E009F0B8FA0346002B02D02B4B01221A7009F0C0FA0346002B25D12B4B1B78002B21D0264B1B780133DAB2244B1A70234B1B7803F0E7
:401840001F03DAB2204B1A70204B1B681E4A11781F4AD1541C4B1A781C4B1B689BB21946104609F047FB01F091F81A4B00221A7007E009F095FA0346002B02D0154B012275
:401880001A7009F09DFA0346002B2BD1124B1B78002B27D0114B1B78013BDAB20F4B1A700E4B1B7803F03F03DAB20C4B1A7001F06DF8094B00221A701CE000BF7181FF1F42
:4018C0004C83FF1F0C83FF1FBA82FF1F4883FF1FD480FF1F0D83FF1F0E83FF1F1083FF1F0F83FF1F09F06CFA0346002B02D0A74B01221A7009F074FA0346002B16D1A44BE6
:401900001B78002B12D0A34B1B780133DAB2A14B1A70A04B1B7803F03F03DAB29D4B1A7001F034F89A4B00221A7007E009F058FA0346002B02D0964B01221A7009F0A0FA58
:401940000346002B08D109F05BFA0346002B03D1914B1B78002B0FD109F092FA0346002B40F0B3808D4B1B68002B00F0AE808A4B1B78002B00F0A980884B1B68002B0CBF12
:4019800001230023DBB21A46844B1A60844B1B68002B0CBF01230023DBB21A46804B1A607E4B1B68DBB2184609F0B0F97A4B00221A707A4B1B68002B36D04021802002F033
:4019C000DFFF002002F088FF002301220B21754802F0EEFF012301220B21734802F0E8FF022301220B21714802F0E2FF032301220B216F4802F0DCFF6E4B01221A600023E9
:401A0000BB660DE06C4ABB6E40F6FF7122F813106A4ABB6E002122F81310BB6E0133BB66BB6E092BEEDD58E000F0B0FFFEF700FD00237B6645E0604A7B6E32F813301B0ADE
:401A40009BB2DAB27B6E03F2E7139BB29B009BB21946104609F04EFA574A7B6E32F81330DAB27B6E9BB29B009BB203F29D739BB21946104609F03EFA504A7B6E32F81330C1
:401A80001B0A9BB2DAB27B6E9BB29B009BB203F29E739BB21946104609F02CFA474A7B6E32F81330DAB27B6E9BB29B009BB203F29F739BB21946104609F01CFA7B6E01331D
:401AC0007B667B6E092BB6DD07E009F0D9F90346002B02D0304B01221A70394B1B68394A136000233B6647E03B6E9BB2184606F039F80346002B00DA0F331B111BB2D9B2BE
:401B0000314A3B6E13440A461A702F4A3B6E13441B78DB43D9B22C4A3B6E13440A461A70294A3B6E13441B785B08D9B2274A3B6E13440A461A70254A3B6E13441A7824499E
:401B40003B6E0B441B789A420AD03B6E03F109001E4A3B6E13441B780022194601F0B4F81A4A3B6E13441978194A3B6E13440A461A703B6E01333B663B6E032BB4DD01202C
:401B800008F0DEFF0023FB65B3E100BF0E83FF1F0F83FF1F1083FF1F7281FF1F4C83FF1F5083FF1F04F5000010F500001CF5000028F500001883FF1FF080FF1F0481FF1F65
:401BC000D080FF1FC082FF1F3CA3FF1F40ABFF1FA0C9FF1FAA4B1B68AA4AD35C1A46AA4913465B0113449B00FA6D134451F82340A64B1B781A46A44913465B0113449B0013
:401C0000FA6D1344303351F82320A14B1B68194610460BF0B9FA0346194620460BF0ACF903461C46994B1B781A46974913465B0113449B00FA6D13443C3351F82320944BD6
:401C40005B68194610460BF09FFA0346194620460BF092F903461C468C4B1B781A468A4913465B0113449B00FA6D1344483351F82320874B9B68194610460BF085FA0346C3
:401C8000194620460BF078F903461C467F4B1B781A467D4913465B0113449B00FA6D1344543351F823207A4BDB68194610460BF06BFA0346194620460BF05EF903461C4625
:401CC000724B1B781A46704913465B0113449B00FA6D1344603351F823206D4B1B69194610460BF051FA0346194620460BF044F903461C46654B1B781A46634913465B01CB
:401D000013449B00FA6D1344783351F82320604B5B69194610460BF037FA0346194620460BF02AF903461C46584B1B781A46564913465B0113449B00FA6D13446C3351F813
:401D40002320534B9B69194610460BF01DFA0346194620460BF010F903461C464B4B1B781A46494913465B0113449B00FA6D1344243351F82320464BDB69194610460BF012
:401D800003FA0346194620460BF0F6F803461C463E4B1B781A463C4913465B0113449B00FA6D13440C3351F82320394B1B6A194610460BF0E9F90346194620460BF0DCF8DB
:401DC00003461C46314B1B781A462F4913465B0113449B00FA6D1344183351F823202C4B5B6A194610460BF0CFF90346194620460BF0C2F803467B62244B1B781A462249AB
:401E000013465B0113449B00FA6D134451F823303B62386A0BF094FB01461E4AFB6D42F823101D4B1C68786AFEF77CFA0346194620460BF0A9F903461846FEF7A7FAF861DA
:401E4000144AFB6D52F8233018460BF049F903461946F8690BF08EF80346BB610F49B8690BF092F903464FF08C4118460BF084F803467B610A4AFB6D52F8233012E000BF1D
:401E80004883FF1FD480FF1F7C84FF1FBA82FF1F2083FF1F70C9FF1FD498FF1FABAA2A435C97FF1F796918460BF002FB0346002B0AD178690BF06AFB03461A46FB6D0133CD
:401EC0001946104600F034FFA049FB6D7A6941F823204FF00001786A0BF012FB0346002B04D09B49FB6D7A6A41F82320FB6D0133FB65984B1B68FA6D9A42FFF66BAE002069
:401F000008F01EFE08F07CFF0346002B10D006F089F903469800904B1B688F4A12688F498A5CD1B2C2B20A44D1B28C4AD1540FE006F078F903461846874B1B68864A12689F
:401F400086498A5CD1B2C2B20A44D1B2834AD154002006F079F9824B1B78DBB2002B01D000F088FD7F4B1B78DBB2002B13D006F061FE0346002B0ED07B4B1B88402B05D9BB
:401F80007A4B1B8801339AB2784B1A80764B00221A8000F099FD00BF05F006F8034603F00103002B06D104F0FFFF034603F01003002B01D0012300E00023002BECD0012079
:401FC00008F06EFF6A4B1B78DBB2012B56D1694B1B78002B1DD0684BFD221A70674B1A78654B5A70654B1B781A46654B1A6000F0CDFC604B00221A705D4B00221A70614BFE
:4020000000221A805C4BFE229A775B4BFD22DA77A0E1594B02221A70584B1A78564B5A700223BB6520E0574B1A88574B1B889A420FD2544B1B885A1C91B2524A11801A4670
:40204000524B9B5CD9B24C4ABB6D13440A461A7007E0494ABB6D1344EE221A70454B01221A70BB6D0133BB65BB6D1D2BDBD9424BFE229A77404BFD22DA776BE1444B1B78BB
:40208000002B1CD03C4B06221A70424B1A783A4B5A70414B1A78384B9A70404B1A78364BDA703F4B1A78344B1A71334BFE229A77314BFD22DA77364B00221A704AE1394B32
:4020C0001B78002B24D02C4B07221A70364B1A78294B5A70344B5A78274B9A70324B9A78254BDA70304BDA78234B1A712E4B1A79214B5A712C4B5A791F4B9A711E4BFE224C
:402100009A771D4BFD22DA77264B00221A7021E1264B1B78DBB2002B00F0AD80164B03221A7000237B650AE07B6D013320497A6D0A441178104AD1547B6D01337B657B6D1B
:40214000072BF1DD00233B653FE000BF5C97FF1FA4C9FF1FCC80FF1F0883FF1F5884FF1FB082FF1FAF82FF1FB682FF1FB882FF1F9282FF1F8482FF1FD4C9FF1F8282FF1F95
:40218000FC82FF1F8C82FF1F8E82FF1F3499FF1F8582FF1F8682FF1F8782FF1F8882FF1F8982FF1F8A82FF1F5497FF1F9382FF1FBC96FF1F3B6D093398493A6D0A44117862
:4021C000974AD1543B6D01333B653B6D032BF1DD0023FB640AE0FB6C0D339249FA6C0A4411788F4AD154FB6C0133FB64FB6C092BF1DD8D4B1B781B015AB28C4B1B685BB233
:4022000013435AB28A4B1B785B015BB213435AB2884B1B789B015BB213435BB2DAB2804B1A76854B1A787E4B5A76844BB3F900301B121BB2DAB27A4B9A76804BB3F9003008
:40224000DAB2774BDA767E4B5B889BB21B0A9BB2DAB2734B1A777A4B5B889BB2DAB2704B5A776F4BFE229A776D4BFD22DA77754B00221A706EE06A4B01221A700023BB64FC
:4022800024E0714ABB6C52F823304FF0884118460AF07AFF0346184608F0D0FF034618460BF04EF903463B61BB6C5B0001333A691212D1B25A4AD154BB6C01335B003A6964
:4022C000D1B2574AD154BB6C0133BB64BB6C0B2BD7DD554B1B781B015AB2544B1B685BB213435AB2524B1B785B015BB213435AB2504B1B789B015BB213435BB2DAB2484BCA
:402300001A764D4B1A78464B5A764C4BB3F900301B121BB2DAB2424B9A76484BB3F90030DAB23F4BDA76464B1B889BB21B0A9BB2DAB23B4B1A77424B1B889BB2DAB2384BF5
:402340005A77374BFE229A77354BFD22DA773D4B01221A703D4B1B78FD2B7FD13B4BDB7FFE2B7BD1394B5B78FB60384B1B7CBB6002237B6400233B6414E0344A7B6C13446F
:4023800018783349FA681346DB009B1A5B00CA183B6C134402461A707B6C01337B643B6C01333B643B6C0D2BE7DD11237B640023FB631BE0254A7B6C13441C782548BB6842
:4023C000F9681A46D200D21A53001A460B46DB005B1A1B011344C218FB6B134422461A707B6C01337B64FB6B0133FB63FB6B0D2BE0DD114B1B781A46FB689A4240F0B080D3
:40240000BB68072B40F0AC80134AFB6852F82330002B40F0A58000F0B9FAA1E03CA3FF1FD4C9FF1F6884FF1F0483FF1FD080FF1F0383FF1F0283FF1F1083FF1F6EABFF1FE6
:4024400034CAFF1F9382FF1FA4C9FF1F38CAFF1F3C93FF1FE0ABFF1F8C97FF1F4B4B1B78FC2B7ED1494BDB7FFE2B7AD104F05AFD002002F031FA002301220B21444802F012
:4024800097FA012301220B21424802F091FA022301220B21404802F08BFA032301220B213D4802F085FA3D4B0B221A703B4B1B78DBB21A463A4B13F812203A4B1B789A4238
:4024C00013D0364B1B78DBB21A46354B13F812301A4601239340DAB2334B1A7000220121702000F05BF90346FB712C4B1B78DBB21A462B4B13F812202A4B1A700A2004F0AC
:40250000A9F9264B1B78DBB21A46254B13F81230052B1DD1214B1B78DBB21A46234B9B5C002B15D11D4B1B78DBB21D4A5B0013445B781A4601239340DAB21B4B1A70002262
:402540000121712000F02AF903461A46184B1A600A2004F07FF94021802002F0FFF900E000BF04F03DFD134B1B78DBB20121184603F088FD104B1B78DBB20121184603F05D
:4025800081FD002008F08CFCFEF751BA38CAFF1F34F5000040F500004CF500000183FF1FD880FF1F7081FF1F4CC8FF1FF082FF1F58CAFF1F2093FF1FE096FF1F80B500AFCC
:4025C0004FF4804341F6FF720121012008F06CFD03461A46124B1A7003F0A6FE03461A46104B1A700F4B1B78D8B20123FE22202103F0C8FE0B4B1B78DBB20B4A91B246F2D9
:402600004242184603F0FEFE054B1B78DAB2054B1B78DBB21946104603F018FE00BF80BDE096FF1F20CAFF1FD4C9FF1F80B500AF41F6FF734FF480420121012008F062F9B1
:4026400003461A464A4B1A7003F06EFE03461A46484B1A7003F068FE03461A46454B5A70444B18780223FE221A2103F08BFE414B58780223FE221A2103F084FE3D4B1B788A
:402680003D4A92B246F25B41184603F0BBFE394B5B783A4A92B246F25B41184603F0B2FE41F6FF734FF480420121012008F05CF903461A46324B1A7003F036FE03461A46BF
:4026C000304B1A7003F030FE03461A462D4B5A702C4B18780623FE22082103F053FE294B58780623FE22082103F04CFE254B1B78254A92B246F25751184603F083FE214B45
:402700005B78224A92B246F25751184603F07AFE41F6FF734FF480420121012008F092FC03461A461A4B1A7003F0FEFD03461A46184B1A70174B1B78D8B20223FE222021D5
:4027400003F020FE134B1B78DBB2134A92B246F25241184603F056FE0D4B1B78DAB20D4B1B78DBB21946104603F070FD00BF80BD6CABFF1FE483FF1F80ABFF1F9AABFF1F53
:4027800040A1FF1F60ABFF1F60C9FF1F68C9FF1F2093FF1F00CAFF1F38CAFF1F80B586B000AF0346FB710B46BB801346BB710023FB754FF47A733B6105F098F80346FB7307
:4027C000FB7BDBB25BB2002B42DBBB88DAB2BB79F879294904F056FF0346FB73FB7BDBB2002B2FD105F05AF80346FB733B69013B3B61FB7BDBB2802B03D100F0AFF80123B6
:40280000FB753B69002B05D18023FB7300F0A6F80123FB75FB7BDBB2002B05D18023FB7300F09CF80123FB75FB7BDBB203F08203002B0DD1FB7BDBB2002B09D03B69002BC9
:40284000D0D105E08023FB7300F088F80123FB75FB7BDBB203F02003002B04D1FB7BDBB25BB2002B03DA00F079F80123FB75FB7D18461837BD4680BD4CC8FF1F80B584B097
:4028800000AF0346FB710B46BB7113467B714CF25033FB600023FB7205F028F80346BB72BB7ADBB25BB2002B3DDB7B79BA79F879274904F06BFF0346BB72BB7ADBB2002BE0
:4028C0002BD104F0EBFF0346BB72FB68013BFB60BB7ADBB2802B09D11E4B10221A701E4B04221A7000F03AF80123FB72FB68002B05D18023BB7200F031F80123FB72BB7A43
:40290000DBB203F08103002B0DD1BB7ADBB2002B09D0FB68002BD4D105E08023BB7200F01DF80123FB72BB7ADBB203F02003002B04D1BB7ADBB25BB2002B03DA00F00EF8A1
:402940000123FB72FB7A18461037BD4680BD00BFE496FF1FD9490040D749004080B500AF04F034FC064B00221A70064B00221A70054B00221A7004F011FC00BF80BD00BF99
:40298000D6490040C84900409983FF1F98B500AF2E4B1B7819462E4A0B46DB005B1A1B01134462331B78FF2B4DD04021802001F0E7FF002001F090FF244B1B7818460023D0
:4029C0000022022102F040F8204B1B781A461346DB009B1A5B001F4A9818012300220C2101F0E6FF1C4B1B78184603230022022102F02AF802F044F8024603230121174870
:402A000001F0D6FF144B1B781A461346DB009B1A5B00134A9C1802F033F8024603230921204601F0C5FF0F4B01221A60074B1B7819460D4B012243F821200C4B00221A7024
:402A40000B4B01221A6000BF98BD00BF1083FF1FE0ABFF1F3C93FF1FBA82FF1F00F50000E8C7FF1F1883FF1F8C97FF1FDF82FF1F1C83FF1F80B500AF06F0DCF80346002BD5
:402A800005D105F0D5FE0E4B00221A7013E00C4B1B78DBB2002B0ED10021002005F03EFD00BF05F045FF0346002BFAD007F00CFC034B01221A70034B00221A7000BF80BD68
:402AC000AF82FF1FB082FF1F80B500AF05F03CFF0346002B10D005F02BFF0346002B0BD0244B1B78DBB2002B06D006F0A3F80346002B01D007F0E8FB05F01AFF0346002B9F
:402B000035D005F021FF0346002B18D01A4B1B78D8B21A4B1B78DBB29BB21A46184905F071FF184B1B78DBB240221749184605F0EDFF144B1B78DBB2184606F02DF80D4BD1
:402B40001B78DBB2002B06D006F074F80346002B01D007F039FC074B1B78DBB2002B06D006F068F80346002B01D007F0BFFB00BF80BD00BFAF82FF1FDCD3FF1FDDD3FF1FFD
:402B8000E0D3FF1FDED3FF1F9CD3FF1F80B586B000AF78602C4A7B6832F81330FB82FB8A002B43D0FB8A18460AF096FA03463B614FF05E5138690AF0E7FA03463B613869AE
:402BC00008F0C4FD3861214938690AF0D3F903463B611F4938690AF0D7FA03463B6138690AF0AEFC0346FB82FB8A7F2B01D97F23FB82184B1B681A1F13465B0013449B001C
:402C00001946154A7B6852F823300B44FB60FB8ADBB219467B6801331A46F86800F020F80E497B68FA6841F8232009E00B4A7B6852F823007B6801331A46002100F010F826
:402C400000BF1837BD4680BD8C98FF1F0918C43C551D0243D080FF1F70C9FF1F5483FF1F80B584B000AFF860B9607A607B68DBB2703BDAB2114B1A70FB68DAB20F4B5A702F
:402C8000BB68DAB20D4B9A700D4B1B78DBB2002B09D005F0CFFF0346002B04D000220749032007F097FB074B1B8804339AB2054B1A8000BF1037BD4680BD00BF3893FF1F0E
:402CC000AF82FF1FB682FF1F80B584B000AFF860B9607A607B68DBB2503BDAB2114B1A70FB68DAB20F4B5A70BB68DAB20D4B9A700D4B1B78DBB2002B09D005F09BFF0346E7
:402D0000002B04D000220749032007F063FB074B1B8804339AB2054B1A8000BF1037BD4680BD00BF3893FF1FAF82FF1FB682FF1F80B582B000AF786039603B68DBB2203BA3
:402D4000DAB2134B1A707B68DBB203F07F03DAB20F4B5A707B68DB11DAB20D4B9A700D4B1B78DBB2002B09D005F064FF0346002B04D000220649032007F02CFB064B1B88CB
:402D800004339AB2044B1A8000BF0837BD4680BD3893FF1FAF82FF1FB682FF1F90B595B000AF8F4B01221A708E4B1B78002B40F0E0828D4B01221A708C4B00221A608C4B23
:402DC00000221A70874B5A788A4B1A70854B9A78894B1A70834BDA78874B5A70814B1A79854B9A707F4B5A79834BDA700623FB64142387F8373022E0FB6C023B7949FA6CC7
:402E00000A44127802F07F02D1B27B4AD154794B1B781846FB6C9A1F7249FB6C0B441B7803F07F03DCB275490346DB001B1A5B000B44134422461A70FB6C0133FB6497F86B
:402E40003720FB6C9A42D7D8694B01221A700023BB6434E000237B642BE0FB6C023B6149FA6C0A44127802F07F02D1B2624AD154604B1B7818465B4AFB6C13441B7803F06D
:402E80007F03DCB25E49BB6C1A46D200D21A53001A460346DB001B1A1B011344CA187B6C134422461A70FB6C0133FB647B6C01337B647B6C0D2BD0DDBB6C0133BB64BB6C24
:402EC000072BC7DD8223BB86494B02221A7049E200233B613B694349FA6C0A441278120713433B613B69FA6C01323E498A5C520513433B613B69FA6C02323A498A5C920342
:402F000013433B613B69FA6C033236498A5CD20113433B613A69FB6C04333249CB5C03F07F0313433B613B69364A1360304B1B78022B40F0B9802D4B1B68002B22D13B69F4
:402F400018460AF023FB03469AB22F4B1A80BA8E264B1B68591C2548016013442A4A1288120A92B2D1B2244AD154BA8E1F4B1B68591C1E4801601344234A1288D1B21E4A1E
:402F8000D154ECE1204B1B8801335B001A46174B1B689A423CD93B691C4918460AF0F4F8034618460AF0F2FA03467B86BA8E0F4B1B68591C0D48016013447A8E120A92B219
:402FC000D1B20D4AD154BA8E084B1B68591C0748016013447A8ED1B2074AD154BFE100BF8182FF1F40A3FF1F9082FF1F9482FF1F8B82FF1F8282FF1F3499FF1F3C93FF1F2D
:40300000E0ABFF1FA882FF1F9C82FF1F00FF7F479C4B1B8801335B001A469B4B1B689A4240F09D813B69994A1360984B1B68984918460AF047FA0346002B23D0934B1B68F0
:40304000944918460AF05CFA0346002B1AD0BA8E8D4B1B68591C8C48016013448E4AEF21D154BA8E884B1B68591C874801601344894AEF21D154894B03221A70884B00229C
:403080001A606CE1874B1B680133864A1360864B00221A70854B00221A60854B00221A70844B00221A705AE17C4B1B78032B28D13B6918460AF06AFA03469AB27E4B1A8089
:4030C000BA8E714B1B68591C6F48016013447A4A1288120A92B2D1B26F4AD154BA8E6A4B1B68591C684801601344734A1288D1B2694AD154694B04221A70704B00221A805C
:403100002DE1664B1B78042B40F029816B4B1A88694B1B889A4280F0D780614B1968684BA3FB01239A0813469B001344CA1A002A0FD1BA8E544B1B68591C53480160D4189E
:403140003B6918460AF022FA0346DAB2524B1A5591E0534B19685A4BA3FB01239A0813469B001344CA1A012A0FD1BA8E464B1B68591C45480160D4183B6918460AF006FADC
:403180000346DAB2444B1A5575E0454B19684C4BA3FB01239A0813469B001344CA1A022A23D13B694FF0000118460AF08BF90346002B0AD0BA8E344B1B68591C32480160E4
:4031C0001344354AFF21D15455E0BA8E2E4B1B68591C2D480160D4183B6918460AF0D6F90346DAB22C4B1A5545E02D4B1968344BA3FB01239A0813469B001344CA1A032A21
:4032000024D13B692F49184609F0BEFF034618460AF096F903463B86BA8E1B4B1B68591C194801601344B7F93020121212B2D1B2194AD154BA8E144B1B68591C1248016023
:4032400013443A8ED1B2144AD15414E0BA8E0E4B1B68591C0C480160D4183B6918460AF095F90346DAB20C4B1A55144B1B8801339AB2124B1A800A4B1B680133084A13608C
:403280006DE000BF9C82FF1F9482FF1FA482FF1F0000C0BF000020C03499FF1F8B82FF1F9882FF1F8883FF1F9082FF1F7C82FF1F9282FF1FA282FF1F9E82FF1FA082FF1F3A
:4032C000CDCCCCCC00FEFF463B69664918460AF0F9F80346002B31D03B69634918460AF00FF90346002B29D0BA8E604B1B68591C5E48016013445E4AFE21D154BA8E5B4B09
:403300001B68591C594801601344594AFE21D154584B05221A70584B00221A70574B01221A70574B1A78574B1A70504B1B689AB2BB8E13449AB2544B1A8010E0534B1B6863
:403340000133524A13604C4B00221A70504B00221A604A4B00221A704E4B00221A70FB6C0533FB644A4B1B68FA6C9A42FFF4B0ADF0E2494B1B78022B40F082813E4B01225D
:403380001A703A4B00221A60434B5A78434B1A70424B1A78424B1A70424B1B68404A1178414AD15402233B64102387F82F3043E0394A3B6C13441B7803F07F0387F82E3083
:4033C000364B1B7818463B6C9A1E38490346DB001B1A5B000B44134497F82E201A702F4B1B789BB21A4612011A4492001A44520013445B009BB202339AB22D4B1A80274B49
:403400001B789BB21A4612011A4492001A44520013445B009AB23B6C9BB213449AB297F82E301146184607F065FD0346DAB2214B1A703B6C01333B6497F82F203B6C9A4263
:40344000B6D810233B64DCE00023FB63D5E0FB6B9BB21A4652001344DB00BB850023BB63C4E000BF000020C0000060C09482FF1F3499FF1F8B82FF1F9082FF1F9282FF1FD3
:403480008282FF1F1083FF1F8E82FF1F8883FF1F7C82FF1FA282FF1F40A3FF1F8382FF1FBA82FF1F4883FF1FD480FF1FE8C7FF1F8683FF1F8483FF1F0023FB60FB68644904
:4034C0003A6C0A44127812071343FB60FB683A6C01325F498A5C52051343FB60FB683A6C02325B498A5C92031343FB60FB683A6C033257498A5CD2011343FB60FA683B6C54
:4035000004335349CB5C03F07F031343FB60514B1B781C46F9685048FB6B1A4652001A4493001A4623465B0123449B001A44BB6B134440F82310FB684FF08741184609F0AA
:4035400023FE03464FF08E41184609F015FD034618460AF01BF803467B857B8D1B0A9BB287F829307B8D87F82830BB6B9BB25B00FB84FA8CBB8D13449AB2364B1B789BB21D
:403580001946090119448900194449000B445B009BB213449BB210339AB2304B1A802F4B1B889AB297F829301146184607F0A2FC0346DAB22A4B1A70284B1B889BB20133D1
:4035C0009AB297F828301146184607F093FC0346DAB2234B1A70234B1B680133214A13603B6C05333B64BB6B0133BB63BB6B0B2B7FF662AFFB6B0133FB63FB6B0A2B7FF6AD
:4036000026AF194B1B683A6C9A42FFF41DAF154B1B689AB2154B1A80144B1B88842B11D0134B1B680133124A1360124B00221A700D4B00221A60104B00221A700F4B00226E
:403640001A7087E10B4B00221A70FFF79FF981E140A3FF1F8382FF1F7C84FF1F8683FF1F8483FF1F9482FF1F7C82FF1F8E82FF1F8883FF1F9082FF1F9282FF1FA282FF1F8D
:403680009F4B1B78032B40F08B809E4B01221A7002233B620023BB60BB6899493A6A0A44127812071343BB60BB683A6A013294498A5C52051343BB60BB683A6A023290492A
:4036C0008A5C92031343BB60BB683A6A03328C498A5CD2011343BB60BA683B6A04338849CB5C03F07F031343BB60BB68184607F0A5FD0346184609F049FF0346FB83824B71
:4037000000221A70FB8BDAB2804B1A703B6A05333B620023BB60BB6879493A6A0A44127812071343BB60BB683A6A013274498A5C52051343BB60BB683A6A023270498A5CD4
:4037400092031343BB60BB683A6A03326C498A5CD2011343BB60BA683B6A04336849CB5C03F07F031343BB60BB686949184609F00BFD0346184609F009FF0346BB83BB8B03
:403780001B0A9BB2DAB2634B1A70BB8BDAB2624B1A705C4B00221A70604B01221A70D9E0574B1B78042B40F0D580564B01221A700223BB6100237B607B685149BA690A4402
:4037C0001278120713437B607B68BA6901324C498A5C520513437B607B68BA69023248498A5C920313437B607B68BA69033244498A5CD20113437B607A68BB6904334049CA
:40380000CB5C03F07F0313437B607B68184607F015FD0346184609F0B9FE0346FB82404B00221A70FB8ADAB23D4B5A70BB690533334AD25C3A4B9A70BB690633304AD25C1F
:40384000374BDA70BB690733BB6100237B607B682B49BA690A441278120713437B607B68BA69013226498A5C520513437B607B68BA69023222498A5C920313437B607B681E
:40388000BA6903321E498A5CD20113437B607A68BB6904331A49CB5C03F07F0313437B601F4BDB78002B10D11D4B00221A717B68184607F0C3FC0346184609F041FE0346F5
:4038C0001BB2DAB2164B5A713EE0154BDB78012B2AD17B681349184609F056FC0346184609F02EFE0346BB82B7F914301B121BB2DAB20B4B1A71BB8ADAB2094B5A7123E0C3
:4039000040A3FF1F9082FF1F8682FF1F8782FF1F00FF7F478882FF1F8982FF1F8582FF1F5497FF1F00FEFF46114B00221A717B68184607F083FC0346184609F001FE0346DA
:403940001BB2DAB20A4B5A710A4B00221A700A4B01221A70094B00221A70094B00221A60084B00221A7000BF5437BD4690BD00BF5497FF1F9082FF1F8A82FF1F8182FF1FFF
:403980007C82FF1FA282FF1F80B584B000AF03463960FB713B681A78484B1A703B685A78464B5A703B689A78444B9A703B68DA78424BDA70424B1B78DBB2002B7BD005F0EF
:4039C00039F90346002B76D03E4B1B78002B29D00023FB6022E0FB683A6813441B785BB2002B0EDB384B1B685A1C37490A6040F2FF721340FA6839680A441178334AD15433
:403A000009E0FB683A6813441B78F72B03D12D4B00221A704FE0FB680133FB60FB68022BD9DD48E03B681B78F02B44D1284B1B78002B40D13B6801331B787E2B03D1254B06
:403A400001221A7037E03B6801331B78002B13D03B6801331B78012B0ED03B6801331B78022B09D03B6801331B78032B04D03B6801331B78042B1ED1124B01221A70124BCB
:403A80001B68002B17D1104B1B685A1C0E490A6040F2FF7213403A6851780C4AD1540A4B1B685A1C08490A6040F2FF7213403A689178064AD1541037BD4680BD44ABFF1FCC
:403AC000AF82FF1F8082FF1F7C82FF1F40A3FF1F8182FF1FA282FF1F80B483B000AF78600B467B8013463B807B687A881A807B683A885A807A887B689A803A887B68DA808D
:403B00007B6800221A817B6800225A817B6800229A817B680122DA817B684FF6FF721A827B684FF6FF725A827B6801229A827B680022DA827B6800229A617B6800221A81B7
:403B40007B680022DA837B6808229A8300BF0C37BD4680BC704700BF80B58AB000AFF860084611461A4603467B810B463B811346FB80B7F93020B7F90830D31A83EAE372CA
:403B8000A2EBE372B7F90610B7F90A30CB1A002BB8BF5B429A42CCBF01230023DBB27B84B7F92230002B0BD07B893B843B897B813B8C3B81FB88FB833B8EFB80FB8B3B867B
:403BC000B7F90A20B7F906309A420BDD7B89BB83FB887B81BB8BFB803B897B833B8E3B817B8B3B86FA887B89D31A9BB23B83B7F93020B7F90830D31A002BB8BF5B42FB82A2
:403C0000B7F91830DA0F13445B10FB84B7F90820B7F930309A4202DA0123BB8431E04FF6FF73BB842DE0B7F92230002B08D0BB8EB7F90A20B7F90810F86800F01DF907E00E
:403C4000BB8EB7F90820B7F90A10F86800F014F9FA8CFB8AD31A9BB2FB84B7F92630002B09DA3A89BB8C13449BB23B81FA8C3B8B13449BB2FB84B7F90A309BB201339BB293
:403C80007B81B7F90A20B7F906309A42CBDD00BF2837BD4680BD00BF80B586B000AFF860084611461A4603467B810B463B811346FB80B7F90A30002BC0F2D780B7F90A3002
:403CC000FA689288934280F2D080B7F90830002BC0F2CB80B7F90830FA68D288934280F2C480F86800F00EFD0346022B14D0032B27D0012B36D17B89FB823B897B81FB8A9F
:403D00003B81FB68B3F900309AB27B89D31A9BB2013B9BB27B8125E0FB68B3F900309AB27B89D31A9BB2013B9BB27B81FB68B3F902309AB23B89D31A9BB2013B9BB23B8156
:403D400010E07B89BB823B897B81BB8A3B81FB68B3F902309AB23B89D31A9BB2013B9BB23B8100BFFB88012B04D0022B54D0002B28D07BE0B7F90A20B7F90830002B00DAA9
:403D80000733DB1018B20146FB68B3F9003003FB01F31344B7F90A10FA68B2F9002002FB00F20A4433498A5C51B23A8902F00702012000FA02F252B20A4352B2D1B22D4A90
:403DC000D15453E0B7F90A20B7F90830002B00DA0733DB1018B20146FB68B3F9003003FB01F31344B7F90A10FA68B2F9002002FB00F20A441F498A5C51B23A8902F00702A3
:403E0000012000FA02F252B2D24352B20A4052B2D1B2184AD15429E0B7F90A20B7F90830002B00DA0733DB1018B20146FB68B3F9003003FB01F31344B7F90A10FA68B2F999
:403E4000002002FB00F20A440A498A5C51B23A8902F00702012000FA02F252B24A4052B2D1B2044AD15400BF00E000BF1837BD4680BD00BFD4CEFF1F80B584B000AFF86078
:403E8000084611461A4603467B810B463B811346FB80FB88B7F90820B7F90A10F868FFF7FBFE00BF1037BD4680BD00BF80B586B002AFF860084611461A4603467B810B464F
:403EC0003B811346FB80B7F90600B7F90820B7F90A103B8B00930346F86800F025F800BF1037BD4680BD00BF80B586B002AFF860084611461A4603467B810B463B811346A2
:403F0000FB80B7F90600B7F90820B7F90A10BB8B0193B7F9183000930346F86800F02AF800BF1037BD4680BD90B587B002AFF860084611461A4603467B810B463B81134613
:403F4000FB803A89FB8813449BB2013B9BB21BB2B7F90A40B7F90800B7F90A103A8C0192009323460246F868FFF7F6FD00BF1437BD4690BD80B588B002AFF86008461146AF
:403F80001A4603467B810B463B811346FB807B89FB8211E0B7F92000B7F90820B7F91610BB8C00930346F868FFF780FFB7F916309BB201339BB2FB82B7F91620B7F90A10A2
:403FC000B7F906300B449A42E4DB00BF1837BD4680BD00BF90B58FB002AFF860084611461A4603467B810B463B811346FB71FB689B69002B40F02E81B7F90A30FA68928864
:40400000934280F2E981B7F90830FA68D288934280F2E281B7F90A1097F8482013465B0013445B000B44013B002BC0F2D581B7F9082097F84830DB001344013B002BC0F272
:40404000CB81FB68DB8A002B05D1FB79AF2B02D9FB790133FB71002387F82F30BCE0FB689969FA7913469B001A4497F92F3013441A4613465B0013449B000B441B7887F87A
:404080002E30002387F82D309AE097F82E3003F00103002B41D097F84830012B13D197F92F309AB27B8913449BB219B297F92D309AB23B8913449BB21AB2B7F84030F86858
:4040C000FFF7DAFE70E097F92F309BB297F8482092B202FB03F39AB27B8913449BB219B297F92D309BB297F8482092B202FB03F39AB23B8913449BB218B297F848301CB2BE
:4041000097F848301BB2B7F840200192009323460246F868FFF7E8FE46E0B7F84420B7F840309A4240D097F84830012B13D197F92F309AB27B8913449BB219B297F92D3093
:404140009AB23B8913449BB21AB2B7F84430F868FFF792FE28E097F92F309BB297F8482092B202FB03F39AB27B8913449BB219B297F92D309BB297F8482092B202FB03F31D
:404180009AB23B8913449BB218B297F848301CB297F848301BB2B7F844200192009323460246F868FFF7A0FE97F92D30DBB20133DBB287F82D3097F82E305B0887F82E30B6
:4041C00097F92D30072B7FF760AF97F92F30DBB20133DBB287F82F3097F92F30042B7FF73EAFB7F84420B7F840309A4200F0F58097F84830012B0DD17B8905339BB219B2A7
:40420000B7F90820B7F8443000930823F868FFF74DFEE2E097F848309BB21A46920013449AB27B8913449BB219B297F848301CB297F848309BB2DB009BB21BB2B7F9080030
:40424000B7F844200192009323460246F868FFF74BFEC2E0FB689B6908331B78FA79D31AFB71FB79DA00FB689B69043318CB1344FB61FB689B6918CBBB61FB691B887B8523
:40428000FB699B78FB75FB69DB78BB75FB6905331B787B75FB6906331B783B75002387F82730002387F826300023BB8400237B8497F84830012B05D997F91530BB8497F907
:4042C00014307B84002387F828307EE0002387F8293070E097F826305A1C87F8262003F00703002B08D17B8D5A1C7A851A46BB6913441B7887F8273097F92730002B50DABA
:4043000097F84830012B1DD197F915309AB27B8913449AB297F829309BB213449BB219B297F914309AB23B8913449AB297F828309BB213449BB21AB2B7F84030F868FFF750
:404340009BFD2EE0B7F9242097F8293013449BB297F8482092B202FB03F39AB27B8913449BB219B2B7F9222097F8283013449BB297F8482092B202FB03F39AB23B89134418
:404380009BB218B297F848301CB297F848301BB2B7F840200192009323460246F868FFF7A3FD97F827305B0087F8273097F82930013387F8293097F82920FB7D9A4289D3CE
:4043C00097F82830013387F8283097F82820BB7D9A42FFF47BAF00E000BF3437BD4690BD80B584B000AF78600B467B807B689B8A002B19D07B689B891A46B7F90230134471
:404400007A68928893420FDB7B6800229A817B685A897B689B8B7968C98901FB03F39BB213449AB27B685A817B681B8C002B4FD07B689B69002B0AD17B689B8B7A68D289F8
:4044400002FB03F39BB2013B9BB2FB8101E00023FB817B685A89FB8913449AB27B68DB8B7968C98901FB03F39BB21344BB817B68DB88BA899A422BD3BB89DAB27B68DB88C3
:40448000DBB2D31ADBB20133D9B27B681A8A7B685B8A9A4202D07B685B8A00E000231A46786800F0E9F97B6800229A817B68DA88FB89D31A9AB27B68DB8B7968C98901FBC2
:4044C00003F39BB2D31A9BB2013B9AB27B685A8100BF1037BD4680BDB0B58AB004AF78600B46FB707B689B69002B45D1FB780A2B10D17B685A897B689B8B7968C98901FB1E
:4045000003F39BB213449AB27B685A817B6800229A81AAE0FB780D2B00F0A7807B68DB899B009BB21BB219467868FFF759FF7B689B8918B27B685B891CB27B681B8A7A6812
:40454000528A7968C989C9B2FD780291019200932B46224601467868FFF73CFD7B689A897B68DB89194649000B445B009BB213449AB27B689A8178E0FB780A2B13D17B6800
:4045800000229A817B685A897B68DB89796889690A31097889B201FB03F39BB213449AB27B685A8161E0FB780D2B5ED07B689B691B7AFB75FA78FB7D9A4256D37B689B696B
:4045C00009331B78FA789A424FD8FA78FB7DD31ADA007B689B69043318CB13443B613B699B78FB733B69DB78BB73FB7B002B2DD0BB7B002B2AD03B6905331B785BB2BB81D7
:404600007B68DB89B7F90C10FA7B0A4492B202FB03F39BB21BB219467868FFF7E1FE7B689B8918B27B685B891CB27B681B8A7A68528A7968C989C9B2FD78029101920093B7
:404640002B46224601467868FFF7C4FC7B689A893B6904331B789BB27968C98901FB03F39BB213449AB27B689A8100BF1837BD46B0BD00BF80B483B000AF78600B467B8039
:4046800013463B807A887B689A813A887B685A8100BF0C37BD4680BC704700BF80B483B000AF78607B689B891BB218460C37BD4680BC704780B483B000AF78600B46FB70AC
:4046C000FB78002B02D0FB789AB200E001227B68DA8100BF0C37BD4680BC704780B483B000AF78600B467B8013463B807B687A881A827B683A885A8200BF0C37BD4680BCC1
:40470000704700BF80B483B000AF78607B681B89DBB218460C37BD4680BC704790B486B000AF786039603B68002B0AD07B689B69002B59D17B685B8906339AB27B685A81E2
:4047400052E07B689B69002B3ED07B680022DA833B6808331B78BB753B6809331B787B75BB7DFB7525E0FA7DBB7DD31ADA003B68043318CB13443B613B6903331B78FB73D4
:404780003B6906331B78BB73FA7B97F90E3013447A68D28B934209DDFB7B1AB297F90E301BB213441BB29AB27B68DA83FB7D0133FB75FA7D7B7D9A42D5D93B680A331B78B2
:4047C0009AB27B689A830FE07B689B69002B05D07B685B89063B9AB27B685A817B6808229A837B680022DA837B683A689A6100BF1837BD4690BC704780B588B000AFF860F1
:40480000B9601346FB710023FB6129E0FB795A1EFB69D31A184608F063FC03461946154806F016FE0346184608F0B0FE0346BB61BB69BA68B2FBF3F37B61FB69FA6813448D
:404840007A69D2B23032D2B21A707B69BA6902FB03F31A46BB689B1ABB60FB690133FB61FA79FB699A42D1DCFB7918462037BD4680BD00BF0000204180B483B000AF786049
:404880000B46FB7013463B8000BF0C37BD4680BC704700BF80B582B000AF786039607B681BB23A6812B219460948FFF715F909490748FFF733FF002201210548FFF70EFFC3
:4048C00001210348FFF7F6FE00BF0837BD4680BDACCAFF1F383D010080B582B000AF78607B68002B04D108490848FFF717FF06E07B68012B03D106490448FFF70FFF00BF74
:404900000837BD4680BD00BF383D0100ACCAFF1F805F010080B584B000AF03460A46FB801346BB80BA88FB881946022000F0B2F80023FB6007E0084AFB68134400221A7092
:40494000FB680133FB60FB68B3F5806FF3DB00BF1037BD4680BD00BFD4CEFF1F80B582B000AF03460A46FB801346BB80FB88BA881146184600F04EF900BF0837BD4680BD0B
:4049800080B584B002AF786039607B6819B23B681BB20022019200930B46002200210348FFF7E8FA00BF0837BD4680BDACCAFF1F90B58BB002AFF860B9607A60FB707B68B3
:4049C000BB61FB7803F003031B010C337B61BB691BB27A6912B219461A48FFF74BFE7B6819B2FB789BB21B019BB218B2BB689BB21A46520013449B009BB21CB2FB780133E9
:404A00009BB21B019BB21BB2002201920093234602460C48FFF7AEFA0023FB610AE0FB69FA6813441B7819460648FFF755FDFB690133FB61FA69BB689A42F0DB00BF2437BF
:404A4000BD4690BDACCAFF1F80B586B000AFF860B9607A60FB70BB68DBB21A46F9680748FFF7CAFE7861FB787A6879690348FFF79FFF00BF1837BD4680BD00BF8CCAFF1F94
:404A800080B500AF0248FFF709FE0346184680BDACCAFF1F80B582B000AF0346FB710B46BB8013467B804F4AFB791370AE2000F09BF8D52000F098F8802000F095F8A8206D
:404AC00000F092F87B88DBB2013BDBB2184600F08BF8D32000F088F8002000F085F8402000F082F88D2000F07FF8FB79012B03D1102000F079F802E0142000F075F820208C
:404B000000F072F8002000F06FF8A12000F06CF8C82000F069F8BB88802B0ED17B88202B0BD1DA2000F060F8022000F05DF8812000F05AF88F2000F057F8BB88802B15D111
:404B40007B88402B12D1DA2000F04EF8122000F04BF8812000F048F8FB79012B03D19F2000F042F802E0CF2000F03EF8BB88602B15D17B88102B12D1DA2000F035F802201C
:404B800000F032F8812000F02FF8FB79012B03D1102000F029F802E0AF2000F025F8D92000F022F8FB79012B03D1222000F01CF802E0F12000F018F8DB2000F015F84020A8
:404BC00000F012F8A42000F00FF8A62000F00CF82E2000F009F8AF2000F006F800BF0837BD4680BDD4D2FF1F80B582B000AF0346FB71074B00221A70054AFB7953700022D7
:404C000002213C20FDF7CAFD00BF0837BD4680BD4CC8FF1F80B586B000AF7860396000F071F80020FFF7E0FF1020FFF7DDFF4020FFF7DAFF0023FB730223BB733B68DB104E
:404C40003B607B68DB107B600023BB6000237B750023FB7549E0FA7DFB7B1344DBB2503BDBB21846FFF7C0FFBB7B03F00F03DBB21846FFF7B9FFBB7B1B09DBB243F01003E6
:404C8000DBB21846FFF7B0FF1C4B40221A700023BB7524E000233B610EE03B6901337A7D796801FB02F13A690A441549895C134AD1543B6901333B613A697B689A42ECDB1B
:404CC0007B7D01337B757B689BB201339BB2002219463C20FDF762FDBB7D0133BB75BB7D072BD7D9FB7D0133FB75FA7D3B689A42B1DB00BF1837BD4680BD00BF4CC8FF1F24
:404D0000D4CEFF1F80B500AF0021002000F002F800BF80BD80B582B000AF03460A46FB711346BB7197F90630002B01DA7F23BB71FB79072B01D90723FB712120FFF754FFCE
:404D4000BB791846FFF750FF7F20FFF74DFF2220FFF74AFFFB791846FFF746FF0320FFF743FF00BF0837BD4680BD00BF80B582B000AF786039603A680021786808F05DFC1A
:404D800000BF0837BD4680BD80B584B000AFF860B9607A607A68B968F86808F043FC00BF1037BD4680BD00BF80B483B000AF0346FB71FEE780B582B000AF3C4B01221A80A9
:404DC0003B4B19221A703B4B07221A803A4B18221A703A4B07221A80394B18221A70394B17221A80384B18221A70384B47221A80374B18221A70374B06221A70364B374AA6
:404E00001278D2B21A70364B52221A70354B40F21A721A80344B42F251221A800023FB7019237B6013E0FB785B00DAB22F4B1B78DBB203F00103DBB21343DBB203F00303D7
:404E4000FB70782006F064F97B68013B7B607B68002B02D0FB78032BE5D17B68002B02D10320FFF7A1FF224B4FF480721A80204B07221A701F4B00221A701F4B48221A7043
:404E80001B4B00221A701D4B00221A701C4B02221A701C4A1B4B1B78DBB243F01F03DBB2137000BF0837BD4680BD00BF804000408240004084400040864000408840004055
:404EC0008A4000408C4000408E400040904000409240004000430040A14600400F0100490042004022420040204200402542004004400040064000400840004009400040DF
:404F000001400040A243004080B582B000AF1F4B1B78FB711E4B1B78BB711E4B1B787B711D4AFB7903F00703DBB213701B4AFB791B09DBB21370164ABB7943F00303DBB2ED
:404F40001370144A7B7943F00303DBB21370144B0F221A70134B40221A70134B40221A70124BF0221A70124B20221A700A2001F071FC084A7B791370054ABB7913700D4B94
:404F800066221A7000BF0837BD4680BDCF010049F8460040F94600406E5800406F5800400D5100400159004003590040205B0040235B00407658004080B586B000AF72B6E1
:404FC000614B61221A70FFF7F5FE0023FB7513E0FA7D13465B0013445B005C4A13443B613B691A683B699B889BB219461046FFF7BDFEFB7D0133FB75FB7D022BE8D90023CE
:40500000FB751CE0FA7D13469B0013445B00504A1344FB60FB681B68BB60FB685B687B60FB681A7A5B7A1B0213437B807B881A467968B868FFF7A8FEFB7D0133FB75FB7DCB
:40504000532BDFD9042243494348FFF79DFE042242494348FFF798FE04214248FFF786FE04214148FFF782FE042240494048FFF78BFE04223F494048FFF786FE3F4B404A9D
:405080001A60404B404A1A60404A404B1B78DBB243F00203DBB213703D4A3D4B1B78DBB243F00203DBB213703A4A3A4B1B78DBB243F04003DBB21370374A374B1B78DBB221
:4050C00043F01003DBB21370082234493448FFF75BFE082233493448FFF756FE0A2233493348FFF751FE0A2232493348FFF74CFE0A2232493248FFF747FE08223149324838
:40510000FFF742FE0A2231493148FFF73DFE0A2230493148FFF738FE082230493048FFF733FE304A2F4B1B78DBB243F00803DBB21370FFF7E9FE0E2216492B48FFF724FE04
:4051400000BF1837BD4680BD0048004070790300847903000C2400480076004010240048087600401076004018760040142400482076004018240048287600405818014008
:40518000040400E4D81A01400C0400640350014013500140A0430040C2430040B023004802510040B8230048C2510040C0230048F0510040CC23004810510040D8230048D1
:4051C00020510040E423004832510040EC23004840510040F823004850510040042400486251004022430040B043004080B500AF08F0ECF903461B680C2B00D1FEE7FEE7E6
:4052000080B584B000AF7860104B1A687B6813441A460F4BD31AB3F5006F09DC0B4B1B68FB600A4B1A687B681344084A136007E008F0CCF902460C2313604FF0FF33FB6060
:40524000FB6818461037BD4680BD00BF8481FF1F68D4FF1F80B586B000AF224B7B61224B3B61204B7B6135E03B691B68FB603B695B68BB603B699B683B6000237B600CE0B2
:40528000FB681A68BB681A60BB680433BB60FB680433FB607B6804337B607A683B689A42EED13B69DB683B6000237B6008E0BB6800221A60BB680433BB607B6804337B605C
:4052C0007A683B689A42F2D13B6910333B617B69013B7B617B69002BC6D108F07DF9FBF72DF9FEE7010000004C80030080B582B000AF194B194A1A60194A194B1B6843F452
:405300000073136000237B600FE07B68032B04D8144A7B6852F8233000E0134B13497A6841F822307B6801337B607B682F2BECD90F4B1B78DAB20F4B1A700F4B0B4A1A604E
:40534000FFF73AFE00F070FE0C4B00221A6000BF0837BD4680BD00BF0CED00E00004FA0514ED00E000000000ED5100000080FF1FBC760040C480FF1F08ED00E0C080FF1F11
:4053800080B584B000AF786039600123FB733B68002B5FD07B68002B5CD07B68DB68002B58D07B685B680A2B54D87B681B68002B50D0786800F066FC0346FB73FB7B002BE0
:4053C00048D17B681A683B68DA607B685A683B681A617B681A7A3B681A757B685A7A3B685A757B68DA683B689A617B681B68DA097B681B6803F07F03002B01D0012300E0D6
:4054000000231A443B685A603B685B687A68526802FB03F31A027B68DB681A443B681A603B6808333968184600F046FB3B689B681B68002B0ED13B681B7D002B0AD03868BB
:4054400000F072FD0346FB733B6808333968184600F032FBFB7B18461037BD4680BD00BF80B59AB002AFF860B9607A603B60012387F85F300023FB640023BB64BB687B64F4
:405480007B68002B00F06B81FA687B681A443B68DB689A4200F26381BB68002B00F05F81FB683B647B68FB633B689B681B687B630023BB633A6CFB6B1344013BDA093B6CF5
:4054C000DB09D31A01333B633B689A683B689B69D21A3B685B681B02B2FBF3F33A68526802FB03F31A023B689B691344FB620023BB6518E0BB6DDA013B6C9A4208D8BB6D2C
:405500000133DB015A1E3B6C9A4201D3012300E00023002B04D0BB6DBB64BB6CFB6407E0BB6D0133BB653B685A68BB6D9A42E1D83B689A68FB6AD31A1B0ABB623B681B69B4
:40554000012B12D93A6BBB6C1344013B7B62BA6CBB6A9A4207D87A6ABB6A9A4201D9012302E0002300E00123BB630023BB6563E0FB6C1A02FB6A13443B653B6C03F07F0347
:4055800080333B62BB6D5A1C3B6B9A4206D23B6C03F07F03C3F180037B6501E0FB6B7B65BB6B002B17D0FA6CBB6A9A4213D93B685B681B023A6DD31A3B653B689A693B6DB9
:4055C0009A4208D93B681A683B685968FB6CCB1A1B02D31A3B653B681B7D002B0FD03B6800937B6D3A6A796C386D00F0A3FB034687F85F3097F85F30002B0BD020E0786CF1
:405600003A6D3B6A13447A6D194608F00BF8002387F85F303A6C7B6D13443B64FA6B7B6DD31AFB637A6C7B6D13447B64FB6C0133FB64BB6D0133BB65BA6D3B6B9A4297D3AC
:4056400097F85F30002B40F08A807B6B002B00F086803B685A687B6B934228BF13463B633B6B013B3B637A6B3B6BD31ABB6572E03968B86D00F056FA38653B6D002B67D08B
:405680003B6D04331B68FB613B6D08331A68FB691344BB61FA69FB689A4209D9FA687B681A44FB699A428CBF01230023DBB206E0FA68BB699A4234BF01230023DBB2002B30
:4056C00046D0FA69FB689A4203D8FA68FB69D31A00E000237B61FA69FB689A4203D9FA69FB68D31A00E000233B61FA68FB69934238BF13463B647B690C337B61FA687B68E7
:405700001A44BB699A4228BF1A463B6CD31A7B65BA683B6913447B643B681B7D002B0FD03B6800937B6D7A69796C386D00F002FB034687F85F3097F85F30002B08D00EE031
:40574000786C3A6D7B6913447A6D194607F06AFFBB6D0133BB65BA6D7B6B9A4288D997F85F3018466037BD4680BD00BF90B5D7B002AF07F10C04206007F108000160391D29
:405780000A603A461360012387F84F3107F1200300221A6007F11C0300221A603B461B689A6807F118031A6007F108031B68C7F83C313B1D1B68002B00F0748107F10C02C9
:4057C0003B1D12681B681A443B461B68DB689A4200F2688107F108031B68002B00F062813B1D1B68013B1B09B24AA2FB03230133C7F8343107F1100300221A600023C7F899
:40580000443146E10023C7F8383107F118031B681B68C7F830313B4607F1140207F118011B68D7F8300100F09DF907F124034FF480720021184607F000FFD7F83031013372
:40584000C7F8303107F12403D7F830211A6007F1240307F10C0212685A60D7F83C31C7F82C31D7F834315A1ED7F844319A4205D107F124033A1D12689A6014E007F12403FF
:4058800070229A603B1D3A1D1268703A1A6007F10C0307F10C02126870321A60D7F83C317033C7F83C3107F124039A6807F124030C33D7F82C11184607F0B4FE07F11403C0
:4058C0001B68002B0BD007F114031B688033194607F1240380338022184607F0A3FE3B461B685A68D7F830319A4207D23B461B685B68D7F83021D31A013300E00123C7F89B
:4059000048317EE0D7F84821D7F830319A4204D107F12403C7F8403107E03B461968D7F8480100F0FFF8C7F8400107F118031A683B461B689B69D31A1B0A3A4612685268DD
:40594000B3FBF2F102FB01F29B1AC7F82831D7F84031002B17D0D7F8403104331B68D7F840210832126807F1100407F11C0107F1200001920093D7F82831224600F056FA7A
:40598000C7F8380104E0D7F838310133C7F83831D7F83831002B1ED107F1240207F120031B681344C7F8243107F110031A68D7F8403113440C33C7F84031D7F82401D7F8A8
:4059C000401107F11C031A6807F120031B68D31A1A4607F027FE3B461B681B7D002B0BD007F1240380338021184600F015F903461A4607F12403DA67D7F848310133C7F801
:405A00004831D7F84821D7F830319A427FF67AAF07F1180318683B4607F124011A6800F063F9034687F84F3107F118031B68C7F840313B461B681B7D002B1BD097F84F313D
:405A4000002B17D107F118031A683B461B689B69D21A3B461B681B681344C7F840313B4607F124011A68D7F8400100F03DF9034687F84F3197F84F31002B12D107F11803AE
:405A80001A683B461B689A60D7F844310133C7F84431D7F84421D7F834319A42FFF4B2AE00E000BF97F84F31184607F5AA77BD4690BD00BF2649922480B487B000AF7860D4
:405AC00039600023BB6000237B613B689B69FB607B68FA681A6000233B6115E0FB681B68BB60BB68002B08D0BA687B699A4204D9BB687B617B68FA681A60FB6803F5807369
:405B0000FB603B6901333B613B685B683A68126902FB03F23B699A42E0D800BF1C37BD4680BC704780B485B000AF786039603B689B69FB600BE0FB6803F58073FB603B681F
:405B40001A68FB689A4202D80023FB6004E0FB681A687B689A42EED1FB6818461437BD4680BC704780B485B000AFF860B9607A603B60FB68002B05D0BB681B6803F58072D2
:405B8000BB681A60BB681A683B681B689A4203D33B689A69BB681A607B6800221A603B685A68FB689A4231D83B681B69012B29D9BB681A683B685B681B02D21A3B689B694C
:405BC0009A4216D23B689A693B6859683B681B6903F1FF1303F57F4303FB01F31B021A44BB6819683B689B69CB1A1A447B681A600CE0BB681A683B685B681B02D21A7B68B5
:405C00001A6003E0BB681A687B681A6000BF1437BD4680BC704700BF80B485B000AF78603960FF23FB730023BB8121E0BB897A6813441A78FB7B5340FB730023BB7311E005
:405C400097F90F30002B06DAFB7B5B00DBB283F03103DBB202E0FB7B5B00DBB2FB73BB7B0133BB73BB7B072BEAD9BB890133BB81BA893B689A42D9D1FB7B18461437BD4605
:405C800080BC704780B487B000AF78600323FB757B68DB683B617B681B68DA097B681B6803F07F03002B01D0012300E0002313447A68526802FB03F37A68127A013202FBDC
:405CC00003F31A023B691344FB603B69002B05D0FB68B3F5802F01D80023FB75FB7D18461C37BD4680BC704780B588B000AFF860B9607A600423FB77FB681B0ADBB2BB6122
:405D000000F024FCFB681B0C7B617B69DBB2BA6991B2BA68184600F02BFC386100F0AEFD3B69002B01D10023FB77FB7F18462037BD4680BD90B5C7B000AF07F10C042060B3
:405D400007F108000160391D0A603A461360D7F828319B6907F10C021268D21AD7F828311B681344C7F8103107F10C031B687C331C6807F10C031B68803380211846FFF786
:405D80004BFF03469C4211D107F10803186807F10C023B1D12681B68134419463B461A6807F040FC002387F8173137E0D7F810317C331C68D7F81031803380211846FFF7CA
:405DC0002BFF03469C4226D1D7F8101107F110034FF48072184607F025FC07F1100107F10C03D7F828211868FFF77EFF034687F8173197F81731002B10D107F10803186824
:405E00003B1D1B689B0007F11002D1183B461A6807F008FC02E0022387F8173197F81731184607F58E77BD4690BD00BF80B487B000AFF860B9607A603B6000237B617B6806
:405E400000221A603B68DA013B6A9A4208D83B680133DB015A1E3B6A9A4201D3012300E00023002B27D03B6A03F07F0303F18002FB681A603A6A7B6A1A443B68DB019A422F
:405E80000AD33A6A7B6A1A443B680133DB01013B9A4201D8012300E00023002B06D0FB681A687B6A1A44BB681A6036E0BB684FF480721A6031E03A6A7B6A1A443B68DB012E
:405EC0009A420AD33A6A7B6A1A443B680133DB01013B9A4201D8012300E00023002B19D0FB6880221A60FB681A687B6A1A443B6A03F07F01FB681B68CB1A1A44BB681A609E
:405F0000FB681A68BB681B68D21A7B6A1A447B681A6002E07B6901337B617B6918461C37BD4680BC704700BF80B5C8B000AF3B1D18603B1D1B689A6807F108031A6007F1AC
:405F400008031B681B68C7F81831012387F817310023C7F81C3153E007F108031B68194607F10C034FF48072184607F05BFBD7F818310133C7F8183107F10C03D7F818218C
:405F80001A6007F10C03803380211846FFF744FE03461A4607F10C03DA6707F1080318683B1D07F10C011A68FFF79EFE034687F8173107F108031A683B1D1B689B69D21A31
:405FC0003B1D1B681B681344C7F810313B1D07F10C011A68D7F81001FFF786FE034687F817313B1D07F5867207F108011B68D7F81801FFF7B7FDD7F81C310133C7F81C31E5
:406000003B1D1B685B683A1D1268126902FB03F2D7F81C319A429FD897F81731184607F59077BD4680BD00BF80B483B000AF134B7F221A70124B80221A707F23FB710CE0BC
:40604000FB79DB0003F1804303F5F043FA79013AD2B21A70FB79013BFB71FB79002BEFD1FB79DB0003F1804303F5F04300221A7000BF0C37BD4680BC704700BF8981FF1FFC
:406080008881FF1F80B485B000AF03460A46FB711346BB710123FB60FB79172B2FD8BB79002B0ED0FB791A01184B1344FA791101164A0A441278D2B242F02002D2B21A70B2
:4060C0000DE0FB791A01114B1344FA7911010F4A0A441278D2B222F02002D2B21A70FB791A010A4B1344FA791101084A0A441278D2B242F00102D2B21A700023FB60FB6863
:4061000018461437BD4680BC704700BF1070004080B485B000AF0346FB710123FB60FB79172B1DD8FB791A01104B1344FA7911010E4A0A441279D2B242F00402D2B21A7188
:40614000FB791A01094B1344FA791101074A0A441278D2B242F00102D2B21A700023FB60FB6818461437BD4680BC70471070004080B485B000AF03460A46FB711346BB718E
:406180000123FB60FB79172B1BD8FB791A01104B13441B78DBB223F00E03FB72FB791A010B4B1344BA795200D2B252B202F00E0251B297F90B200A4352B2D2B21A7000233A
:4061C000FB60FB6818461437BD4680BC704700BF1070004080B485B000AF0346FB710B46BB8013467B800123FB60BB8841F6FF72934202D14FF40053BB807B8841F6FF7288
:40620000934202D14FF400537B80FB79172B17D8FB79DB0003F1804303F5EC430433BB60BB68BA881A80FB79DB0003F1804303F5EC430633BB60BB687A881A800023FB6044
:40624000FB6818461437BD4680BC704780B485B000AF03460A46FB711346BB710123FB60FB79172B07D8FB791A01064B1344BA795A720023FB60FB6818461437BD4680BC67
:40628000704700BF1070004090B484B000AF0446084611461A462346FB710346BB710B467B7113463B710123FB60FB79172B34D8FB79DB0003F1804303F5EC43BA7902F013
:4062C0007F02D1B27A79D201D2B20A43D2B21A70FB79DB0003F1804303F5EC433A7E1201D1B23A7902F00F02D2B20A43D2B25A70FB79DB0003F1804303F5EC433A7F02F0CD
:406300000F02D2B29A70FB79DB0003F1804303F5EC430022DA700023FB60FB6818461037BD4690BC704700BF80B582B000AFFF23FB7104F0F5FE0346BB71104B1B78182BA9
:4063400012D90F4B1B78FB710C4B1B78013BDAB20A4B1A70FB79DB0003F1804303F5F0431B78DAB2064B1A70BB79184604F0DCFEFB7918460837BD4680BD00BF8881FF1F86
:406380008981FF1F90B484B000AF0446084611461A462346FB710346BB800B46BB711346FB700123FB6097F90730002B23DBBB8823F47F6323F00F039BB2002B1BD1FB79FD
:4063C000DB0003F1804303F5F043BB60BB68BA881A80FB79DB0003F1804303F5F043BA799A70FB79DB0003F1804303F5F043FA78DA700023FB60FB6818461037BD4690BC96
:40640000704700BF80B485B000AF0346FB710B46BB8013467B800123FB6097F90730002B17DBFB79DB0003F1804303F5F0430433BB60BB68BA881A80FB79DB0003F180434E
:4064400003F5F0430633BB60BB687A881A800023FB60FB6818461437BD4680BC704700BF80B582B000AF00F0E5FA4FF0FF337B6000F07AFC0346002B24D1012000F042FC50
:406480000346072B1BD10221124800F0F7FA0346022B0DD100237B6002E0012000F0DAF90D4B1B78DBB203F00203002BF5D006E0094B1B78DBB203F00203002BE3D000F07F
:4064C00087FC01E004237B607B6818460837BD4680BD00BFD8D2FF1F2247004080B582B000AF00F0A7FA00F03FFC0346002B23D100F096FC78607B68072B1AD102E00120AF
:4065000000F0A8F9104B1B78DBB203F00203002BF5D00D4B1B78DBB203F00203002B08D0094B1B78DBB29B08DBB2002B01D100237B6000F04DFC01E004237B607B681846F8
:406540000837BD4680BD00BF2247004080B582B000AFFFF7C3FF78607B68002B02D1FFF77FFF78607B6818460837BD4680BD00BF80B584B000AF03463A60FB710B46BB80EF
:40658000FB793F2B01D9102301E04FF48073FB81FB89B988F8793A6800F006F8B860BB6818461037BD4680BD80B586B000AFBA601A460346FB730B46BB811346FB800023A8
:4065C0007B61FB7B3F2B04D8FB7B042B01D901237B6197F90F30002B01DA01237B61FB7B3F2B04D9FB7B412B01D901237B61FB7B3F2B06D8BB89B3F5807F0CD901237B61A8
:4066000009E0BB89802B01D901237B61FB88102B01D001237B61BB68002B01D101237B617B69002B60D100F09FFB0346002B59D1FB88B989F87BBA6800F0B2FA78617B69DE
:40664000072B4CD102E0012000F004F9294B1B78DBB203F00203002BF5D0264B1B78DBB203F00203002B09D0224B1B78DBB29B08DBB2002B02D100237B6102E04FF0FF33C5
:406680007B617B69002B2AD11B4B1A781A4B5B78B989F87B00F0EAFA78617B69072B1ED102E0012000F0D6F8124B1B78DBB203F00203002BF5D00F4B1B78DBB203F00203C5
:4066C000002B09D00B4B1B78DBB29B08DBB2002B02D100237B6102E04FF0FF337B6100F077FB01E004237B617B6918461837BD4680BD00BF22470040D8D2FF1F80B582B016
:4067000000AF04F00DFD0346FB71194A184B1B78DBB243F00803DBB21370164A154B1B78DBB243F00803DBB21370134BC8221A70124A124B1B78DBB243F01003DBB2137094
:406740000F4A0F4B1B78DBB243F01003DBB2137000BF0C4B1B78DBB203F02003002BF8D0FB79184604F0E0FC00BF0837BD4680BDA0430040B043004001470040AC430040C4
:40678000BC4300400047004080B400AF094A094B1B78DBB243F00103DBB2137000BF054B1B78DBB203F00203002BF8D000BFBD4680BC70470247004080B400AF054A054B48
:4067C0001B78DBB223F00103DBB2137000BFBD4680BC70470247004080B483B000AF0346FB7101BE00BF0C37BD4680BC704700BF80B400AF054A054B1B78DBB243F00103FA
:40680000DBB2137000BFBD4680BC7047F646004080B582B000AF786008E00C4B1B68184604F076FC7B68A3F500437B607B68B3F5004FF2D8064B1B687A6802FB03F318465F
:4068400004F066FC00BF0837BD4680BD9C81FF1F9481FF1F80B582B000AF0346FB80FB88054A127802FB03F3184604F051FC00BF0837BD4680BD00BF9881FF1F80B582B0B3
:4068800000AF04F04DFC0346FB7100BF00BF00BF00BF00BF00BF00BF00BF00BF00BF00BF00BF00BF00BF00BF00BF0A4A094B1B889BB243F004039BB21380064B1B88BFF3EF
:4068C0006F8FFB79184604F02FFC00BF0837BD4680BD00BF0048004080B584B000AF03463960FB710F4B1B68FB60FB791F2B02D90020FFF771FFFB7903F01F0310339B0000
:40690000FA6813441B68BB60FB7903F01F0310339B00FA6813443A681A60BB6818461037BD4680BD08ED00E080B582B000AF03460A46FB711346BB71BB79072B02D90020E6
:40694000FFF74AFFFB791F2B02D90020FFF744FFFB7903F01F0303F1604303F56443BA795201D2B21A7000BF0837BD4680BD00BF80B483B000AF7860264B1B78DBB21A46B7
:406980007B681A60244B1B78DBB21B027A6812681A437B681A60214B1B78DBB21B047A6812681A437B681A601D4B1B78DBB21B067A6812681A437B681A607B680433194ABB
:4069C0001278D2B21A60184B1B78DBB21A027B6804337968043109680A431A60134B1B78DBB21A047B6804337968043109680A431A600F4B1B78DBB21A067B68043379686F
:406A0000043109680A431A6000BF0C37BD4680BC704700BF0301004904010049EC460040020100490101004900010049050100490601004980B582B000AF04F071FB0346E6
:406A4000FB710C4A0B4B1B78DBB243F00803DBB21370094A084B1B78DBB243F00803DBB21370FB79184604F05FFB00BF0837BD4680BD00BFA0430040B043004080B584B0A0
:406A800000AF78600B46FB700023FB7313E00120FFF7E0FE0C4B1B78DBB203F00103002BF5D0FB7B7A681344084A1278D2B21A70FB7B0133FB73FA7BFB789A42EAD3FB7B14
:406AC00018461037BD4680BD224700402047004080B485B000AF3A601A460346FB710B46BB801346BB710723FB60FB793E2B02D8BB791F2B05D9FB793F2B45D9BB790F2B87
:406B000042D8254B1B78DBB203F00203002B38D0224BB6221A70214BD4221A701F4B01221A701D4B1B78DBB203F00203002B25D11A4AFB791370194ABB881B0A9BB2DBB20D
:406B400003F00103DBB21370144BBA88D2B21A70124ABB79013BDBB213700023FB7208E00E49FB7A3A6813441B780B70FB7A0133FB72FA7ABB799A42F2D307E00923FB606B
:406B800004E00423FB6001E00123FB60FB6818461437BD4680BC7047224700402047004080B489B000AFBA601A460346FB730B46BB811346FB800723FB612A4B1B78DBB2F4
:406BC00003F00203002B45D0274BB6221A70264BD5221A70244B02221A70224B1B78DBB203F00203002B32D11F4AFB7B137000237B8308E01C497B8BBA6813441B780B706A
:406C00007B8B01337B837A8BFB889A42F2D3FB88B3F5807F20D1FB7B3F2B1DD8FB7B03F510331A02BB8913445B017B6100237B8309E00D497A8B7B6913441B78DBB20B7028
:406C40007B8B01337B837B8B1F2BF2D904E00923FB6101E00423FB61FB6918462437BD4680BC7047224700402047004090B484B000AF0446084611461A462346FB710346FA
:406C8000BB800B46BB711346FB700723FB601B4B1B78DBB203F00203002B26D0184BB6221A70174BD8221A70154B05221A70134B1B78DBB203F00203002B13D1104AFB7925
:406CC00013700F4ABB881B0A9BB2DBB213700C4BBA88D2B21A700A4ABB791370084AFB78137004E00923FB6001E00423FB60FB6818461037BD4690BC704700BF22470040B5
:406D00002047004080B485B000AF0346FB710723FB60134B1B78DBB203F00203002B16D0104BB6221A700F4BE1221A700D4B0E221A700B4B1B78DBB203F00203002B03D1B0
:406D4000084AFB79137004E00923FB6001E00423FB60FB6818461437BD4680BC704700BF224700402047004080B582B000AF04237B6004F0D5F90346FB70124B1B78002B42
:406D800016D1104B01221A7000237B600E4B1B6803F00103002B0BD00B4A0B4B1B6823F00103136000BF00BF00BF084B01221A60FB78184604F0B8F97B6818460837BD462F
:406DC00080BD00BF9083FF1F040008409483FF1F80B582B000AF04F0A3F90346FB710D4B00221A700C4B1B68012B0BD10B4A0B4B1B6843F00103136000BF00BF00BF064B3E
:406E000000221A60FB79184604F08EF900BF0837BD4680BD9083FF1F9483FF1F0400084080B483B000AF07237B600C4B1B78DBB203F00203002B09D0094BB6221A70084BE2
:406E4000E0221A70064B0D221A7001E004237B607B6818460C37BD4680BC7047224700402047004080B500AF084B0F221A7000F0CBF800F099F800F0A5F8054B02221A701E
:406E8000044B20221A7000BF80BD00BF85650040816400408064004080B582B000AF04F03FF90346FB71134A124B1B78DBB243F02003DBB21370104A0F4B1B78DBB243F04B
:406EC0001003DBB213700D4A0C4B1B78DBB243F01003DBB21370FB79184604F025F900F0C3F800F049F800F04DF800BF0837BD4680BD00BF956500409164004090640040B6
:406F000080B500AF064B1B78002B04D1FFF7AAFF034B01221A70FFF7BFFF00BF80BD00BF9883FF1F80B582B000AF04F0F9F80346FB710F4A0E4B1B78DBB223F01003DBB212
:406F400013700C4A0B4B1B78DBB223F01003DBB21370FB79184604F0E7F800F09FF800F017F800F01BF800BF0837BD4680BD00BF916400409064004080B400AF00BFBD4653
:406F800080BC704780B400AF00BFBD4680BC704780B400AF00BFBD4680BC704780B400AF00BFBD4680BC704780B483B000AF044B1B78FB71FB7918460C37BD4680BC7047A7
:406FC0006164004080B483B000AF044B1B78FB71FB7918460C37BD4680BC70476064004080B400AF01E0064B1B78064B1B78DBB203F02003002BF6D100BFBD4680BC704743
:40700000526400406064004080B582B000AF01E0124B1B78124B1B78DBB203F02003002BF6D104F07DF80346FB710E4A0D4B1B78DBB243F00103DBB213700A4A094B1B787A
:40704000DBB223F00103DBB21370FB79184604F06BF800BF0837BD4680BD00BF52640040606400409264004080B400AF094A094B1B78DBB243F00203DBB21370064A064B73
:407080001B78DBB243F00203DBB2137000BFBD4680BC7047A2430040B243004080B400AF094A094B1B78DBB223F00203DBB21370064A064B1B78DBB223F00203DBB213709E
:4070C00000BFBD4680BC7047A2430040B243004080B500AF144B02221A70144B81221A70134B08221A70134B0D221A70124B00221A70124B4FF400421A6002210F20FFF72E
:4071000013FC0F490F20FFF7E7FB0E4B10221A700D4B00221A700D4B00221A700C4B00221A7000BF80BD00BFD6490040C8490040CA490040DB490040DC49004080E100E0F9
:40714000DD720000DAD2FF1FDED2FF1FE0D2FF1FDCD2FF1F80B582B000AF03F0E1FF0346FB710C4A0B4B1B78DBB243F00403DBB21370094A084B1B78DBB243F00403DBB24B
:407180001370FB79184603F0CFFF00BF0837BD4680BD00BFA5430040B543004080B500AF084B1B78002B04D1FFF792FF054B01221A70FFF7CFFF044B4FF400421A6000BF3D
:4071C00080BD00BF9983FF1F00E100E080B582B000AF384B4FF400421A60374B1B78DAB2364BDA70364B1B78DAB2344B1A71354B1B78DAB2314B5A71324B1B78DBB29BB21A
:407200001B029AB22E4B1B78DBB29BB213439BB20133FB802C4A2C4B1B78DBB223F00103DBB21370FB88184603F072FF03F078FF03467B71254A254B1B78DBB223F004037C
