:400000000080002011000000F57C0000F57C000080B500AF024A034B1B68136007F09EFEBC760040FA46004010B5054C237833B9044B13B10448AFF300800123237010BD92
:40004000C082FF1F000000003C1A0100084B10B51BB108490848AFF300800848036803B910BD074B002BFBD0BDE81040184700BF00000000C482FF1F3C1A0100C880FF1F62
:4000800000000000B0B584B000AFF860B9607A603B603968386A0FF051FC03461C46B968F8680FF04BFC03461D46B96878680FF045FC0346194628460FF0FEFD034619466C
:4000C00020460FF045FD0346396818460FF038FC034618461037BD46B0BD00BF90B585B000AFF860B9607A60B96878680FF026FC03461C46104B1B7818460FF0D5FC03461B
:400100001946F8680FF01AFC03461A460B4B1B68194610460FF01CFD0346194620460FF017FD0346B96818460FF00AFC034618461437BD4690BD00BFCC80FF1FB881FF1FEC
:4001400090B585B000AF0023FB606EE03A4AFB6832F8133018460FF0A3FC0446374AFB6832F8133018460FF09BFC0346194620460FF0E4FB0346BB60314B1B7818460FF0EF
:400180008FFC03462F4918460FF0E2FC0346B96818460FF0DDFC03467B60284AFB6832F8133018460FF07CFC0346796818460FF0C7FB034618460FF0CDFE034699B2224A23
:4001C000FB6822F813101C4AFB6832F8133018460FF066FC0346796818460FF0AFFB034618460FF0B7FE034699B2184AFB6822F81310164AFB6832F813301946124AFB68FA
:4002000032F81330CB1A18460FF04EFC0346BB60B9680F480FF050FD034619460D4AFB6842F82310FB680133FB60FB68092B8DDD00BF1437BD4690BD0481FF1FF080FF1F50
:400240004081FF1F6F12033B1881FF1F2C81FF1F00F07F4598A2FF1F80B500AF1C4B5B781A461B4B1B78D31A18460FF01DFC0246184B1A60174B1B684FF0000118460FF0D1
:40028000FBFD0346002B11D0114B02221A70104B07225A700E4B5B781A460D4B1B78D31A18460FF001FC02460A4B1A600A4B1B78002B0AD1074B1B6819464FF07E500FF096
:4002C000FBFC03461A46034B1A6000BF80BD00BFCC80FF1FB881FF1F6483FF1F80B582B000AF7860084978680FF032FC034618460DF01CFE0346054918460FF029FC0346A9
:4003000018460837BD4680BDD27EFA3DAC7F8A4180B500AF184B02221849002007F024FE03461A46164B1A700BF042F90346012B20D1124B1B78DBB2012B0CD1114B00222A
:400340001A700D4B02220F49002007F093FF0E4B01221A700EE00B4B01221A70064B02220849002007F086FF0AF020FF09F0AAFC08F0C2FF00BF80BD88E5FF1F4883FF1F3C
:4003800060D9FF1F4C83FF1F2183FF1F80B500AF0AF076FD0CF064FFFFF7BAFF00BF80BD80B500AF214B1B78DBB2002B0CBF01230023DBB21A461D4B1A700AF0CFFC1C4B24
:4003C0001B78184608F028FC184B1B78DBB21A46184B985C0223FE22082108F057FD134B1B78DBB21A46134B985C104B1B78DBB2DB00114A13449BB21A4646F2555108F041
:4004000085FD0B4B1A78094B1B78DBB21946094B5B5C1946104608F09DFC054B1B780121184608F0B3FB00BF80BD00BF3583FF1FE0AAFF1F00B5FF1FC0DAFF1F80B582B0FA
:4004400000AF4F4B1B78DBB2002B0CBF01230023DBB21A464A4B1A70494B1B78DBB2002B0CBF01230023DBB2464A5B0113441B78DBB2FE2B49D1424B1B78DBB2002B0CBF03
:4004800001230023DBB23F4A5B0113441F331B78DBB2FD2B39D100237B6030E0384B1B78DBB2002B0CBF01230023DBB21A467B685B000133334952010A4413441B78DBB2A7
:4004C0009BB21B029AB22E4B1B78DBB2002B0CBF01230023DBB219467B6801335B002948490101440B441B78DBB29BB2134499B2254A7B6822F813107B6801337B60234BC5
:400500001B781A467B689A42C8DC0AF06DFB204B1B78184608F080FB194B1B78DBB21A461C4B985C0223FE22202108F0AFFC144B1B78DBB21A46174B985C114B1B78DBB21B
:400540005B01104A13449BB21A4646F2574108F0DDFC0F4B1A780A4B1B78DBB219460D4B5B5C1946104608F0F5FB094B1B780121184608F00BFB00BF0837BD4680BD00BF52
:400580003483FF1F20B5FF1F80A2FF1FCE80FF1F0CB5FF1F4484FF1F80B500AF40F2D67100200DF093F840F2E27100200DF08EF84FF4FB6100200DF089F840F2D9710020FC
:4005C0000DF084F840F2DE7101200DF07FF840F2DC7140200DF07AF840F2DD7140200DF075F840F2DB7140200DF070F840F2DA7100200DF06BF840F2D77172200DF066F82D
:4006000040F2E17100200DF061F840F2E37140200DF05CF800BF80BDB0B5B2B002AF62B60DF04EF89B4B18460CF0ECFD03461A46994B1A7009F030FB01200AF099FF9748C4
:400640000AF0D0FB4FF47A6008F066FE00200DF0C7F80346002B01D1FFF79EFF40F2D6700DF0BEF803461A468D4B1A7040F2E2700DF0B6F803461A468A4B1A70894B1B78B3
:400680005B09DAB2884B1A70864B1B789B08DBB203F00703DAB2844B5A70824B1B7803F00103DAB2814B1A704FF4FB600DF098F803465AB27E4B1A7040F2D9700DF090F82B
:4006C00003465AB27B4B1A70794B93F9003018460FF0EAF90446774B93F9003018460FF0E3F90346744918460FF032FA0346194620460FF025F903461A46704B1A6040F2CA
:40070000DE700DF06DF8034603F00103DAB26C4B1A7040F2DE700DF063F8034603F00203DAB2684B1A7040F2DC700DF059F803461A46654B1A7040F2DD700DF051F803465D
:400740001A46624B1A7040F2DB700DF049F803461A465F4B1A7040F2DA700DF041F803461A465C4B1A7040F2D7700DF039F803461B09DAB2584B1A7040F2D7700DF030F853
:40078000034603F00F03DAB2534B5A70FFF764FD40F2E1700DF024F8034603F00103DAB24E4B1A7040F2E3700DF01AF803465AB24B4B1A7040F2DF700DF012F803469BB2EE
:4007C0001B029CB24FF4FC600DF00AF803469BB22344FB870023C7F8BC3015E0FB8F5AB20121D7F8BC3001FA03F35BB213405BB2D9B23C4AD7F8BC3013440A461A70D7F811
:40080000BC300133C7F8BC30D7F8BC30092BE5DD0023C7F8B830E0E00023C7F8B43025E0D7F8B8309BB21A4612011A44D20013445B009AB2D7F8B4309BB213449BB2184640
:400840000CF0CEFF034618462749D7F8B82013469B0013445B00CA18D7F8B430134402461A70D7F8B4300133C7F8B430D7F8B430092BD5DD0023C7F8B030A4E0D7F8B02085
:4008800013465B001344DB00BB630023C7F8AC3090E000BF001B010060D9FF1F8D0300006A83FF1F7983FF1FD480FF1F7883FF1FEC82FF1FED82FF1F0AD7233CF082FF1FAB
:4008C000F682FF1FF782FF1FF882FF1FF982FF1F4081FF1FFA82FF1FCC80FF1F6883FF1FF482FF1F6C83FF1F68D9FF1FD7F8AC305B007B637B6B9AB2BB6B9BB213449AB282
:40090000D7F8B8309BB2194609011944C9000B445B009BB213449BB20A339BB218460CF05FFF03467B867B6B9AB2BB6B9BB213449AB2D7F8B8309BB2194609011944C90022
:400940000B445B009BB213449BB20B339BB218460CF046FF03463B867B8E1A023B8E134418460FF0A1F803464FF06E5118460FF0EFF803464FF0864118460EF0DFFF034610
:400980001C469548D7F8B030D7F8B8101A4652001A4493001A460B465B010B449B001A44D7F8AC30134440F82340D7F8AC300133C7F8AC30D7F8AC300B2B97DDD7F8B0309F
:4009C0000133C7F8B030D7F8B0300A2B7FF756AFD7F8B8300133C7F8B830D7F8B830062B7FF71AAF0023C7F8A83049E0D7F8A8309BB29B009BB203F27E739BB218460CF0C0
:400A0000EFFE03469BB21B029CB2D7F8A8309BB29B009BB203F27F739BB218460CF0E0FE03469BB2234499B26C4AD7F8A83022F81310D7F8A83003F5F0739BB29B009BB267
:400A400018460CF0CDFE03469BB21B029CB2D7F8A8309BB29B009BB203F281739BB218460CF0BEFE03469BB2234499B25C4AD7F8A83022F81310D7F8A8300133C7F8A830E4
:400A8000D7F8A830092BB1DDFFF75AFB0023C7F8A4304AE0D7F8A4309BB29B009BB203F2A6739BB218460CF09BFE03469BB21B029CB2D7F8A4309BB29B009BB203F2A77394
:400AC0009BB218460CF08CFE03469BB2234499B2444AD7F8A43022F81310D7F8A43003F5F5739BB29B009BB218460CF079FE03469BB21B029CB2D7F8A4309BB29B009BB22D
:400B000003F2A9739BB218460CF06AFE03469BB2234499B2334AD7F8A4300C3322F81310D7F8A4300133C7F8A430D7F8A4300B2BB0DD0023C7F8A0308CE00023C7F89C3015
:400B400011E02949D7F8A0201346DB009B1A5B00CA18D7F89C301344FF221A70D7F89C300133C7F89C30D7F89C300D2BE9DD0023C7F8983024E00023C7F8943017E01B481F
:400B8000D7F89830D7F8A0101A46D2001A440B46DB000B441B011344C218D7F894301344FF221A70D7F894300133C7F89430D7F89430082BE3DDD7F898300133C7F8983010
:400BC000D7F898300F2BD6DD0023C7F8903032E00023C7F88C3025E0D484FF1FF080FF1F0481FF1FA497FF1FBC93FF1F60B5FF1F9748D7F89030D7F8A0101A4692001A443D
:400C000053001A460B469B000B44DB001344C218D7F88C301344FF221A70D7F88C300133C7F88C30D7F88C30092BE1DDD7F890300133C7F89030D7F89030032BC8DD854A03
:400C4000D7F8A030134400221A70D7F8A0300133C7F8A030D7F8A0303F2B7FF76EAF00200CF02CFC01200CF047FC00200CF062FC00200CF07BFC784B1B7818460CF000FC77
:400C8000764B1B7818460CF08BFC744B1B78002B0CBF01230023DBB218460CF0BDFC09F087FC09F09DFC6D4B1B781A466C4B9A5C6C4B1A700A2008F02FFB6B4B40221A703B
:400CC00000220121702001F0EDFD03461A46674B1A604021802003F06FFE002003F08EFE4021802003F0B2FE5E4B1B78184603230022022103F0C0FF03F0DAFF02460323DB
:400D000001215B4803F024FF564B1B781A4613469B0013445B00574A9C1803F0C9FF024603230A21204603F013FF4021802003F0B1FE4D4B04221A7000220121702001F0DA
:400D4000B1FD03461A46494B1A600023C7F8883018E0D7F88830DBB20833DAB2424B1A7000220121722001F09DFD03461A463F4B1A602021802003F069FED7F88830013386
:400D8000C7F88830D7F88830072BE2DD364B04221A7000220121702001F084FD03461A46324B1A60344B09221A702F4B0F221A7000220121352001F075FD03461A462B4BA9
:400DC0001A6009F0E3FE08F01FFE09F099FF01F079FC01F0AFFC29480CF004FB28480CF0B3FA284BFE229A77264BFD22DA77224B00221A70244B1B78DBB2002B01D001F058
:400E0000E1FF1D4B1B78DBB21A46204B13F812201F4B1B789A4249D0174B1B78DBB21A461A4B13F812301A4601239340DAB20E4B1A70114B1B78DBB21A46144B13F812306E
:400E4000052B27D101210C2009F08CFD26E000BF1098FF1F40A2FF1F6883FF1F7883FF1FD480FF1F2883FF1FB0D9FF1FB8DBFF1F001F010068D9FF1F6783FF1F3D04000072
:400E8000A103000040DBFF1F1283FF1FD880FF1FA881FF1F0121042009F064FD00220121702001F0FFFC034687F82F30A24B1B78DBB21A46A14B13F81220A14B1A700A2028
:400EC00008F04CFA9C4B1B78DBB21A469B4B13F81230052B1DD1984B1B78DBB21A46994B9B5C002B15D1944B1B78DBB2934A5B0013445B781A4601239340DAB2924B1A7002
:400F000000220121712001F0CDFC03461A468F4B1A600A2008F022FA874B1B78DBB2092B00F2A180844B1B78DBB21A46854B9B5C002B40F09880844B0E221A700222012156
:400F4000362001F0AFFC03461A46804B1A607F4B1B68002B08D101220221362001F012FD03461A46794B1A60784B1B68002B7AD1714B1B78DBB21A46754B1B78DBB29BB298
:400F80001B0299B2734B23F81210714B5B78D8B2694B1B78DBB219461A466E4B33F8122083B213449AB26B4B23F811206A4B1B78002B58D0604B1B78DBB21A46654B33F891
:400FC00012205D4B1B78DBB21946644B33F811309A422AD2584B1B78DBB2002B17D1564B1B78DBB21A465B4B33F81230002B1CD0514B1B78DBB21A464F4B1B78DBB219464F
:40100000544B33F81110554B23F812100DE04A4B1B78DBB21A46484B1B78DBB219464D4B33F811104D4B23F81210434B1B78DBB21A46484B33F812203F4B1B78DBB2194614
:40104000474B33F811309A420DD93B4B1B78DBB21A46394B1B78DBB219463E4B33F811103F4B23F81210344B1B78DBB2092B40F01681314B1B78DBB21A46324B9B5C002BD6
:4010800040F05C81304B00221A7000221021352001F078FC03461A462C4B1A602B4B1B68002B40F04B810023C7F884309CE0D7F88430DAB22B4B1B781344BB71D7F8843005
:4010C0005B00234AD35CDBB29BB21B029AB2D7F884305B0001331E49CB5CDBB29BB213449BB2C3F30B03BB80BB881B099BB2C3F1FF039BB27B80BB791B4AD35C012B39D1E9
:40110000B7F90220BB79194931F9133004339A4208DCB7F90220BB79144931F91330043B9A425CDABB797A88D1B2114AD154BB790D4A0021D15452E06783FF1FD880FF1F08
:40114000A881FF1F5883FF1FB0D9FF1FB8DBFF1F6497FF1FC8ACFF1F7B83FF1FF080FF1F0481FF1FE983FF1F7C93FF1F4493FF1F3C97FF1FBB797A88D1B28C4AD1548C4BB7
:401180001B78002B26D0BB79BA7988498A5C5208D1B2884AD154BB79864AD25CBB798649CB5C9A4210D0D7F884305A1C834B1B7819460B465B000B44D018BB797D4AD35CAB
:4011C0000022194601F094FDBB79BA797949895C794AD154BB797A497A8821F81320D7F884300133C7F88430D7F88430072B7FF75EAF744B1B78022B40F0A080724B1B7830
:401200000833DAB2714B1A7000220121722001F049FB03461A466E4B1A602021802003F04BFC012003F0EAFB6A4B1A786A4B1B789A4205D1694B1A78604B1B789A4202D033
:40124000614B00221A70644B1B7819465E4B1B781A465A4B1B7813441A46D2001A440B46DB000B441B0113445D4A13440921184603F0D4FC2021802003F00CFC524B1B7877
:401280000133DAB2504B1A704F4B1B78072B55D94C4B00221A704C4B00221A704EE0514B1B78DBB20A2B2AD14E4B1B78DBB21A464D4B9B5C002B41D1444B00221A700022DA
:4012C00002214F2001F05EFB03461A46404B1A603F4B1B68002B31D1444B1B78DBB29BB21B029AB2424B1A80404B5B78DBB29AB23F4B1B8813449AB23D4B1A801EE0394BF3
:401300001B78DBB20B2B19D13A4B1B78002B06D04021802003F0BEFB364B00221A70294B1B78012B0AD1274B02221A702A4B1A78284B1A70214B1A78284B1A70294B1B7846
:40134000DBB2092B00F21681264B1B78DBB21A46294B33F81220234B1B78DBB21946274B33F81130D31A9BB2BB85B7F92C30002B4ADD1C4B1B78DBB21C46B7F92C3018466B
:401380000EF092FB174B1B78DBB21A461C4B53F8223019460EF0DCFB034618460EF0DAFD03469AB2174B23F8142035E03C97FF1FF682FF1FC0A2FF1FC484FF1FE983FF1FBA
:4013C0004493FF1F7783FF1F4483FF1FB0D9FF1FB8DBFF1F7D83FF1F6A83FF1F7E83FF1F60B5FF1F6783FF1F5883FF1F6497FF1F4281FF1F7683FF1FC8ACFF1F1881FF1FCD
:4014000098A2FF1F5C84FF1F954B1B78DBB21A46944B002123F81210914B1B78DBB21A46904B33F81230B3F5805F08D38C4B1B78DBB21A468B4B40F6FF7123F81210884BD0
:401440001B78DBB21A46884B9B5C002B11D0844B1B78DBB21A46824B1B78DBB21946814B33F81130C3F57F630F3399B27D4B23F812107B4B1B78DBB21C46794B1B78DBB2EB
:401480001A46784B33F8123018460EF009FB0346764918460EF05CFB03461A46744B43F824206F4B1B78DBB21C466D4B1B78DBB21A46704B9B5C1A466A4B33F81230184694
:4014C0000EF0EEFA03464FF0765118460EF040FB034618460EF03EFD0346DAB2664B1A55664B1B78002B36D05D4B1B78DBB21A465B4B1B78DBB219465F4B5B5C5B08D9B23A
:401500005F4B9954564B1B78DBB21A465C4B9A5C534B1B78DBB219465A4B5B5C9A420ED04F4B1B78DBB203F10E004D4B1B78DBB21A46534B9B5C0122194601F0D9FB484BE0
:401540001B78DBB21A46464B1B78DBB219464C4B595C4C4B9954424B1B78DBB21A46404B1B78DBB219463F4B33F81110464B23F8121041E0454B1B8818460EF091FA0346CC
:40158000434918460EF0E4FA034618460EF0BCFC03461AB23F4B1A803E4BB3F90030002B03DA3C4B00221A8009E03A4BB3F90030B3F5805F03DB374B40F6FF721A802F4B33
:4015C0001B78002B18D0334BB3F900305B111BB2DAB2314B1A70304B1A78304B1B789A4206D02D4B1B78002219460D2001F080FB294B1A78294B1A70194B1B78DBB2013372
:40160000DAB2174B1A70164B1B78DBB20B2B02D9134B00221A70224B1B78DBB2002B0CBF01230023DBB21F4ADB0013449B79DBB2FE2B40F069811A4B1B78DBB2002B0CBF45
:4016400001230023DBB2174ADB001344DB79DBB2FD2B40F059810023C7F880304FE100BF6783FF1F5C84FF1F6C83FF1F010880398083FF1FAC81FF1FB884FF1FF682FF1F3E
:4016800064DBFF1F84DBFF1F4884FF1F4281FF1FC5F1803F0EB5FF1F4183FF1F4283FF1F3583FF1FC0DAFF1FAE4B1B78DBB2002B0CBF01230023DBB21A46D7F880305B00BF
:4016C000A949D2000A4413441B78DBB29BB21B029AB2A44B1B78DBB2002B0CBF01230023DBB21946D7F880305B0001339E48C90001440B441B78DBB29BB2134499B29B4A2E
:40170000D7F8803022F81310984AD7F8803032F813309AB29649D7F8803031F813309BB29A4200F0DC80914AD7F8803032F813309BB24FF6FF72934210D08C4AD7F88030C0
:4017400032F8133099B28B48D7F8802013465B001344DB0003441B88994207D9864AD7F880304FF07E5142F82310B8E07F4AD7F8803032F8133099B27E48D7F880201346F4
:401780005B001344DB00034416331B8899426FD90023FB6768E0754AD7F8803032F8133099B27448D7F8802013465B0013449B00FA6F134430F81330994252D86B4AD7F8FE
:4017C000803032F8133099B2FB6F581C694CD7F8802013465B0013449B00034434F8133099423ED9614AD7F8803032F813309BB218460EF055F904465E49D7F880201346EA
:401800005B0013449B00FA6F134431F8133018460EF046F90546FB6F591C5648D7F8802013465B0013449B000B4430F8133018460EF036F9514AFB6F52F82310FB6F013352
:401840004E4A52F8233000930B46024629462046FEF718FC0146484AD7F8803042F823103DE0FB6F0133FB67FB6F0A2B93DD36E03E4AD7F8803032F813309BB218460EF005
:401880000FF904463B49D7F8802013465B001344DB000B4414331B8818460EF001F905463449D7F8802013465B001344DB000B4416331B8818460EF0F3F801462F4B9A6A0A
:4018C0002E4BDB6A009313460A4629462046FEF7D9FB0146284AD7F8803042F82310234AD7F8803032F8133099B2214AD7F8803022F81310D7F880300133C7F88030D7F8EF
:401900008030012B7FF7D0AE1D4B1B78002B23D00023BB671AE01B4ABB6F32F813309AB21949BB6F31F813309BB29A4202D0B86F01F040F9134ABB6F32F8133099B2124A58
:40194000BB6F22F81310BB6F0133BB670F4B1B781A46BB6F9A42DEDC03F020FB00237B6762E000BF3583FF1FC0DAFF1F94DBFF1F64D9FF1FA497FF1F34DBFF1F7881FF1F4C
:40198000F682FF1F80A2FF1F7084FF1FCE80FF1F7B6F9BB2184608F029FE03461B111BB2D9B23B4A7B6F13440A461A707B6F022B0AD0374A7B6F13441B78DB43D9B2344A45
:4019C0007B6F13440A461A70324B1B78002B28D02F4A7B6F13441B785B08D9B22E4A7B6F13440A461A702C4A7B6F13441A782B497B6F0B441B789A420AD07B6F03F10900A5
:401A0000254A7B6F13441B780022194601F070F9214A7B6F13441978204A7B6F13440A461A707B6F01337B677B6F032BB0DD00233B6728E21A4B1B78002B37D0194B1B8821
:401A40009BB24FF6FF72934212D0164B5B889BB24FF6FF7293420BD0386F0EF025F8124B1968114B5B681A46FEF738FBF86620E00C4B1B889BB24FF6FF72934203D00A4B16
:401A80001B68FB6615E0084B5B68FB6611E000BFDCACFF1FF682FF1FE0B4FF1F00DBFF1F6883FF1F94DBFF1F34DBFF1FA74B1B68FB66A74B1B781A46A64913465B011344C6
:401AC0009B003A6F134451F82340A14B1B781A46A04913465B0113449B003A6F1344303351F823209C4B1B68194610460EF030F80346194620460DF023FF03461C46944B45
:401B00001B781A46934913465B0113449B003A6F13443C3351F823208F4B5B68194610460EF016F80346194620460DF009FF03461C46874B1B781A46864913465B01134478
:401B40009B003A6F1344483351F82320824B9B68194610460DF0FCFF0346194620460DF0EFFE03461C467A4B1B781A46794913465B0113449B003A6F1344543351F823206F
:401B8000754BDB68194610460DF0E2FF0346194620460DF0D5FE03461C466D4B1B781A466C4913465B0113449B003A6F1344603351F82320684B1B69194610460DF0C8FF30
:401BC0000346194620460DF0BBFE03461C46604B1B781A465F4913465B0113449B003A6F1344783351F823205B4B5B69194610460DF0AEFF0346194620460DF0A1FE034696
:401C00001C46534B1B781A46524913465B0113449B003A6F13446C3351F823204E4B9B69194610460DF094FF0346194620460DF087FE03461C46464B1B781A4645491346BC
:401C40005B0113449B003A6F1344243351F82320414BDB69194610460DF07AFF0346194620460DF06DFE03461C46394B1B781A46384913465B0113449B003A6F13440C3339
:401C800051F82320344B1B6A194610460DF060FF0346194620460DF053FE03461C462C4B1B781A462B4913465B0113449B003A6F1344183351F82320274B5B6A1946104634
:401CC0000DF046FF0346194620460DF039FE03461A46224B1B68194610460DF031FE0346BB621B4B1B781A461A4913465B0113449B003A6F134451F823307B62786A0EF0C4
:401D000003F90146164A3B6F42F823101549F86E0DF01EFF03461846FEF7E0FA0346124918460DF00BFE03463B623B6F002B1FD14FF08841386A0DF00BFF034618460EF08C
:401D400009F903469AB2094B1A8048E034DBFF1F2883FF1FD484FF1F8083FF1FF082FF1FD0DAFF1F00005C42000004423CDBFF1F3B6F052B20D19F4B1B78002B2FD04FF007
:401D80008641386A0DF0E4FE034618460EF0E2F803469BB218460DF083FE0346FB61954B1B78002B1BD0F8690EF0D4F803460C21184600F0D1FF12E08F4B1B785A1E3B6F7C
:401DC0009A420CD14FF08841386A0DF0C1FE034618460EF0BFF803469AB2884B5A80B96A386A0DF0ADFD03461C46854A3B6F52F8233018460DF058FE0346194620460DF03D
:401E00009DFD0346BB617F49B8690DF0A1FE03464FF08C4118460DF093FD03467B617A4B1B78002B15D0794A3B6F52F82330796918460EF021F80346002B0AD178690EF0C2
:401E400089F803461A463B6F01331946104600F083FF6E493B6F7A6941F823204FF00001B86A0EF031F80346002B09D0396AB86A0DF066FD03461946654A3B6F42F823100A
:401E80003B6F01333B675C4B1B781A463B6F9A423FF7D0AD5F4B1B78DBB2002B01D000F0FDFD5D4B1B78DBB2002B13D009F080FB0346002B0ED0594B1B88402B05D9584B50
:401EC0001B8801339AB2564B1A80544B00221A8000F00EFE00BF07F0EBFD034603F00103002B06D107F0E4FD034603F01003002B01D0012300E00023002BECD0494B1B78F5
:401F0000DBB2012B55D1484B1B78002B1CD0474BFD221A70464B1A78444B5A70444B1A78444B1A7005F050FB3F4B00221A703D4B00221A70404B00221A803C4BFE229A77EB
:401F40003A4BFD22DA7740E2384B02221A70384B1A78364B5A700223BB6620E0364B1A88364B1B889A420FD2334B1B885A1C91B2314A11801A46324B9B5CD9B22B4ABB6E8C
:401F800013440A461A7007E0284ABB6E1344EE221A70254B01221A70BB6E0133BB66BB6E1D2BDBD9214BFE229A77204BFD22DA770BE2244B1B78002B4ED01C4B06221A70F4
:401FC000214B1A78194B5A70204B1A78174B9A701F4B1A78154BDA701E4B1A78134B1A71124BFE229A77114BFD22DA77154B00221A70EAE1F782FF1FCE80FF1F3CDBFF1F59
:40200000D0DAFF1FABAA2A43F682FF1F10A2FF1F04DBFF1F2183FF1F2083FF1F2483FF1F2683FF1F0283FF1FE482FF1F40DBFF1FE282FF1F6583FF1FFC82FF1FFE82FF1F82
:40204000D0A2FF1FE582FF1FE682FF1FE782FF1FE882FF1FE982FF1F934B1B78002B24D0924B07221A70924B1A78904B5A70904B5A788E4B9A708E4B9A788C4BDA708C4B86
:40208000DA788A4B1A718A4B1A79884B5A71884B5A79864B9A71854BFE229A77834BFD22DA77814B00221A708FE1824B1B78002B12D07E4B0A221A707F4B93F90030DAB2C1
:4020C0007A4B5A70794BFE229A77784BFD22DA77784B00221A7078E1784B1B78012B0FD1724B0B221A70714B00225A706F4BFE229A776E4BFD22DA77704B00221A7064E123
:402100006E4B1B78022B0FD1684B0C221A70674B00225A70654BFE229A77644BFD22DA77664B00221A7050E1654B1B78012B2DD15E4B0E221A70634B1A785C4B5A705B4B88
:4021400011229A70594B1222DA70584B01221A71564B01225A71554BFE229A77534BFD22DA7700237B660AE07B6E063356497A6E0A4411784D4AD1547B6E01337B667B6E30
:402180000D2BF1DD4E4B00221A701EE14F4B1B78DBB2002B00F081804D4B1B78002B03D1424B03221A7002E0404B0D221A7000233B660DE03B6E0133454A127811463A6ECD
:4021C0000A444449895C394AD1543B6E01333B663B6E072BEEDD0023FB650AE0FB6D09333D49FA6D0A441178304AD154FB6D0133FB65FB6D032BF1DD0023BB650AE0BB6D2A
:402200000D333649BA6D0A441178284AD154BB6D0133BB65BB6D092BF1DD314B1B781B015AB2304B1B685BB213435AB22E4B1B785B015BB213435AB22C4B1B789B015BB276
:4022400013435BB2DAB2194B1A76294B1A78174B5A76284BB3F900301B121BB2DAB2134B9A76244BB3F90030DAB2104BDA76224B5B881B0A9BB2DAB20C4B1A771E4B5B88FC
:40228000DAB20A4B5A77094BFE229A77074BFD22DA770E4B00221A7097E0044B01221A7000237B654FE000BFEA82FF1F40DBFF1F0898FF1FF582FF1FF482FF1F1C83FF1F55
:4022C0000498FF1FEB82FF1FC881FF1F0383FF1FE983FF1F3C97FF1FDCACFF1FB884FF1F6983FF1FD080FF1F6883FF1FFA82FF1F6A83FF1F0EB5FF1F3CDBFF1F8B4A7B6D1A
:4023000052F823304FF0884118460DF021FC034618460BF0E7FD034618460DF0F5FD03463B617B6D5B0001333A691212D1B2804AD1547B6D01335B003A69D1B27C4AD15447
:402340007B6D01337B657B6D0B2BD7DD794B1B781B015AB2784B1B685BB213435AB2774B1B785B015BB213435AB2754B1B789B015BB213435BB2DAB26D4B1A76714B1A78BA
:402380006B4B5A76704BB3F900301B121BB2DAB2674B9A766C4BB3F90030DAB2644BDA766A4B1B881B0A9BB2DAB2614B1A77674B1B88DAB25E4B5A775D4BFE229A775C4B2C
:4023C000FD22DA77624B01221A70624B1B78FD2B40F0CA805F4BDB7FFE2B40F0C5805D4B5B78FB605B4B1B7CBB6002233B650023FB6414E0574A3B6D134418785649FA68F5
:402400001346DB009B1A5B00CA18FB6C134402461A703B6D01333B65FB6C0133FB64FB6C0D2BE7DD11233B65BB68072B20DC0023BB6419E0474A3B6D13441C784748BB68D7
:40244000F9681A46D2001A440B46DB000B441B011344C218BB6C134422461A703B6D01333B65BB6C0133BB64BB6C082BE2DD47E0BB680B2B23DC00237B641CE0BB68083B41
:4024800034493A6D0A4414783548F9681A4692001A4453001A460B469B000B44DB001344C2187B6C134422461A703B6D01333B657B6C01337B647B6C092BDFDD20E0002356
:4024C0003B641AE0BB68043B22493A6D0A4414782248F9681A46D2001A440B46DB000B441B011344C2183B6C134422461A703B6D01333B653B6C01333B643B6C082BE1DD54
:40250000104B1B781A46FB689A4240F0AF80BB68072B40F0AB80134AFB6813441B78002B40F0A48005F050F8A0E000BF04DBFF1F40DBFF1F6983FF1FD080FF1F6883FF1FA3
:40254000FA82FF1F6A83FF1F0EB5FF1F3CDBFF1F0383FF1F98DBFF1FBC93FF1F60B5FF1F1098FF1F40A2FF1F4A4B1B78FC2B7ED1484BDB7FFE2B7AD107F058FA002002F0AB
:402580003DFA002301220B21434802F0E1FA012301220B21414802F0DBFA022301220B213F4802F0D5FA032301220B213C4802F0CFFA3C4B0B221A703A4B1B78DBB21A46A4
:4025C000394B13F81220394B1B789A4213D0354B1B78DBB21A46344B13F812301A4601239340DAB2324B1A7000220121702000F059F90346FB712B4B1B78DBB21A462A4B58
:4026000013F81220294B1A700A2006F0A7FE254B1B78DBB21A46244B13F81230052B1DD1204B1B78DBB21A46224B9B5C002B15D11C4B1B78DBB21C4A5B0013445B781A469E
:4026400001239340DAB21A4B1A7000220121712000F028F903461A46174B1A600A2006F07DFE4021802002F015FA00E000BF07F03BFA124B1B78DBB20121184606F086FAA2
:402680000F4B1B78DBB20121184606F07FFAFEF7B1BB00BF98DBFF1F041F0100101F01001C1F01006783FF1FD880FF1FA881FF1FB0D9FF1F5883FF1FB8DBFF1FA093FF1F09
:4026C0006097FF1F80B500AF4FF4804341F6FF72012101200BF0D4F803461A46124B1A7006F0A6FB03461A46104B1A700F4B1B78D8B20123FE22202106F0C8FB0B4B1B78D6
:40270000DBB20B4A91B246F24C42184606F0FEFB054B1B78DAB2054B1B78DBB21946104606F018FB00BF80BD6097FF1F80DBFF1F40DBFF1F80B500AF41F6FF734FF480426F
:40274000012101200AF09CFD03461A464A4B1A7006F06EFB03461A46484B1A7006F068FB03461A46454B5A70444B18780223FE22202106F08BFB414B58780223FE22202137
:4027800006F084FB3D4B1B783D4A92B246F25741184606F0BBFB394B5B783A4A92B246F25741184606F0B2FB41F6FF734FF48042012101200AF096FD03461A46324B1A70C6
:4027C00006F036FB03461A46304B1A7006F030FB03461A462D4B5A702C4B18780223FE22082106F053FB294B58780223FE22082106F04CFB254B1B78254A92B246F25551BC
:40280000184606F083FB214B5B78224A92B246F25551184606F07AFB41F6FF734FF48042012101200AF0FAFF03461A461A4B1A7006F0FEFA03461A46184B1A70174B1B783B
:40284000D8B20223FE22202106F020FB134B1B78DBB2134A92B246F25C41184606F056FB0D4B1B78DAB20D4B1B78DBB21946104606F070FA00BF80BD0CB5FF1F4484FF1FD9
:4028800020B5FF1F40B5FF1FE0AAFF1F00B5FF1FC0DAFF1FC8DAFF1FA093FF1F60DBFF1F98DBFF1F80B586B000AF0346FB710B46BB801346BB710023FB754FF47A733B61A5
:4028C00007F07AFD0346FB73FB7BDBB25BB2002B42DBBB88DAB2BB79F879294907F024FC0346FB73FB7BDBB2002B2FD107F03EFD0346FB733B69013B3B61FB7BDBB2802B66
:4029000003D100F0B9F80123FB753B69002B05D18023FB7300F0B0F80123FB75FB7BDBB2002B05D18023FB7300F0A6F80123FB75FB7BDBB203F08203002B0DD1FB7BDBB2EE
:40294000002B09D03B69002BD0D105E08023FB7300F092F80123FB75FB7BDBB203F02003002B04D1FB7BDBB25BB2002B03DA00F083F80123FB75FB7D18461837BD4680BD4A
:40298000B0D9FF1F80B584B000AF0346FB710B46BB7113467B714CF25033FB600023FB7207F00AFD0346BB72BB7ADBB25BB2002B46DB7B79BA79F8792B4907F045FC034619
:4029C000BB72BB7ADBB2002B34D107F0CFFC0346BB72FB68013BFB60BB7ADBB2802B12D1224B52221A70224BFF221A70214B00221A7000BF1E4B1B78DBB2002BFAD100F06D
:402A00003BF80123FB72FB68002B05D18023BB7200F032F80123FB72BB7ADBB203F08103002B0DD1BB7ADBB2002B09D0FB68002BCBD105E08023BB7200F01EF80123FB7275
:402A4000BB7ADBB203F02003002B04D1BB7ADBB25BB2002B03DA00F00FF80123FB72FB7A18461037BD4680BD6497FF1F78640040186400405864004080B500AF07F022F9E2
:402A8000044B00221A70044B00221A7007F004F900BF80BD78640040F583FF1F80B500AF08F086FD0346002B05D108F07FFB0E4B00221A7013E00C4B1B78DBB2002B0ED1EA
:402AC0000021002008F0E8F900BF08F0EFFB0346002BFAD00AF0B6F8034B01221A70034B00221A7000BF80BD2083FF1F2183FF1F80B500AF08F0E6FB0346002B10D008F0B8
:402B0000D5FB0346002B0BD0244B1B78DBB2002B06D008F04DFD0346002B01D00AF092F808F0C4FB0346002B35D008F0CBFB0346002B18D01A4B1B78D8B21A4B1B78DBB28A
:402B40009BB21A46184908F01BFC184B1B78DBB240221749184608F097FC144B1B78DBB2184608F0D7FC0D4B1B78DBB2002B06D008F01EFD0346002B01D00AF0E3F8074B6A
:402B80001B78DBB2002B06D008F012FD0346002B01D00AF069F800BF80BD00BF2083FF1F44E5FF1F45E5FF1F48E5FF1F46E5FF1F04E5FF1F80B586B000AF78602C4A7B685C
:402BC00032F81330FB82FB8A002B43D0FB8A18460CF066FF03463B614FF05E5138690CF0B7FF03463B6138690BF092FB3861214938690CF0A3FE03463B611F4938690CF085
:402C0000A7FF03463B6138690DF07EF90346FB82FB8A7F2B01D97F23FB82184B1B685A1F13465B0013449B001946154A7B6852F823300B44FB60FB8ADBB219467B68013391
:402C40001A46F86800F020F80E497B68FA6841F8232009E00B4A7B6852F823007B6801331A46002100F010F800BF1837BD4680BD80A2FF1F0918C43C551D0243D080FF1F82
:402C8000D0DAFF1FA883FF1F80B584B000AFF860B9607A607B68DBB2703BDAB2114B1A70FB68DAB20F4B5A70BB68DAB20D4B9A700D4B1B78DBB2002B09D008F079FC0346BD
:402CC000002B04D00022074903200AF041F8074B1B8804339AB2054B1A8000BF1037BD4680BD00BFB893FF1F2083FF1F2483FF1F80B584B000AFF860B9607A607B68DBB2E4
:402D0000503BDAB2114B1A70FB68DAB20F4B5A70BB68DAB20D4B9A700D4B1B78DBB2002B09D008F045FC0346002B04D00022074903200AF00DF8074B1B8804339AB2054B19
:402D40001A8000BF1037BD4680BD00BFB893FF1F2083FF1F2483FF1F80B582B000AF786039603B68DBB2203BDAB2134B1A707B68DBB203F07F03DAB20F4B5A707B68DB11DB
:402D8000DAB20D4B9A700D4B1B78DBB2002B09D008F00EFC0346002B04D000220649032009F0D6FF064B1B8804339AB2044B1A8000BF0837BD4680BDB893FF1F2083FF1F35
:402DC0002483FF1F90B597B000AF954B01221A70944B1B78002B40F01883934B01221A70924B00221A60924B00221A708D4B5A78904B1A708B4B9A788F4B1A70894BDA78D0
:402E00008D4B5A70874B1A798B4B9A70854B5A79894BDA7006237B65142387F8373022E07B6D023B7F497A6D0A44127802F07F02D1B2814AD1547F4B1B7818467B6D9A1FD4
:402E400078497B6D0B441B7803F07F03DCB27B490346DB001B1A5B000B44134422461A707B6D01337B6597F837207B6D9A42D7D86F4B01221A7000233B6532E00023FB64A1
:402E800029E07B6D023B67497A6D0A44127802F07F02D1B2684AD154664B1B781846614A7B6D13441B7803F07F03DCB264493B6D1A46D2001A440346DB0003441B011344C3
:402EC000CA18FB6C134422461A707B6D01337B65FB6C0133FB64FB6C082BD2DD3B6D01333B653B6D072BC9DD0023BB6434E000237B642BE07B6D023B4A497A6D0A4412782B
:402F000002F07F02D1B24C4AD1544A4B1B781846444A7B6D13441B7803F07F03DCB24949BB6C1A4692001A4453001A4603469B000344DB001344CA187B6C134422461A70CC
:402F40007B6D01337B657B6C01337B647B6C092BD0DDBB6C0133BB64BB6C032BC7DD8223BB86334B02221A7048E200233B613B692C497A6D0A441278120713433B613B699E
:402F80007A6D013227498A5C520513433B613B697A6D023223498A5C920313433B613B697A6D03321F498A5CD20113433B613A697B6D04331B49CB5C03F07F0313433B6139
:402FC0003B69214A13601A4B1B78022B40F0B980164B1B68002B3BD13B6918460CF0BAFF03469AB2194B1A80BA8E104B1B68591C0E4801601344154A1288120A92B2D1B2D7
:403000000D4AD154BA8E094B1B68591C0748016013440E4A1288D1B2074AD154EBE100BFE182FF1FE0ACFF1F0083FF1F0483FF1FFB82FF1FE282FF1FD0A2FF1FBC93FF1F78
:4030400060B5FF1F1098FF1F1883FF1F0C83FF1F8C4B1B8801335B001A468B4B1B689A4223D93B69894918460CF072FD034618460CF070FF03467B86BA8E834B1B68591CAE
:403080008148016013447A8E120A92B2D1B2804AD154BA8E7C4B1B68591C7B48016013447A8ED1B27A4AD154A5E1764B1B8801335B001A46744B1B689A4240F09C813B69D7
:4030C000744A1360734B1B68734918460CF0DEFE0346002B23D06F4B1B68704918460CF0F3FE0346002B1AD0BA8E674B1B68591C654801601344664AEF21D154BA8E624B35
:403100001B68591C604801601344614AEF21D154634B03221A70634B00221A606BE1624B1B680133604A1360604B00221A70604B00221A605F4B00221A705F4B00221A7099
:4031400059E1574B1B78032B28D13B6918460CF001FF03469AB2594B1A80BA8E4A4B1B68591C494801601344544A1288120A92B2D1B2474AD154BA8E434B1B68591C4248A1
:40318000016013444D4A1288D1B2414AD154444B04221A704A4B00221A802CE1404B1B78042B40F02881464B1A88444B1B889A4280F0D6803B4B1968424BA3FB01239A0831
:4031C00013469B001344CA1A002A0FD1BA8E2E4B1B68591C2C480160D4183B6918460CF0B9FE0346DAB22A4B1A55B3E02D4B1968344BA3FB01239A0813469B001344CA1A10
:40320000012A0FD1BA8E204B1B68591C1E480160D4183B6918460CF09DFE0346DAB21C4B1A5597E01F4B1968264BA3FB01239A0813469B001344CA1A022A45D13B694FF056
:40324000000118460CF022FE0346002B0AD0BA8E0D4B1B68591C0C48016013440C4AFF21D15477E0BA8E084B1B68591C06480160D4183B6918460CF06DFE0346DAB2044B34
:403280001A5567E00C83FF1F0483FF1F00FF7F47D0A2FF1F1483FF1F0000C0BF000020C0FB82FF1F0883FF1FDC83FF1F0083FF1FDC82FF1F0283FF1F1283FF1F0E83FF1FBA
:4032C0001083FF1FCDCCCCCC8A4B19688A4BA3FB01239A0813469B001344CA1A032A24D13B69864918460CF033FC034618460CF00BFE03463B86BA8E814B1B68591C804886
:4033000001601344B7F93020121212B2D1B27D4AD154BA8E7A4B1B68591C7948016013443A8ED1B2774AD15414E0BA8E744B1B68591C73480160D4183B6918460CF00AFECE
:403340000346DAB26F4B1A556F4B1B8801339AB26D4B1A80674B1B680133664A13604AE03B696A4918460CF091FD0346002B31D03B69674918460CF0A7FD0346002B29D0F7
:40338000BA8E5F4B1B68591C5D48016013445D4AFE21D154BA8E5A4B1B68591C584801601344584AFE21D1545A4B05221A705A4B00221A70594B01221A70594B1A78594BE6
:4033C0001A704F4B1B689AB2BB8E13449AB2564B1A8010E0554B1B680133544A13604E4B00221A70524B00221A604C4B00221A70504B00221A707B6D05337B654C4B1B6839
:403400007A6D9A42FFF4B1ADF2E24B4B1B78022B40F08481404B01221A70394B00221A60454B5A78454B1A70444B1A78444B1A70444B1B781A46424B1978434B99540223CB
:403440003B640C2387F82F303FE03B4A3B6C13441B7803F07F0387F82E30384B1B7818463B6C9A1E394903469B0003445B000B44134497F82E201A70304B1B789BB21A4676
:4034800012011A44D20013445B009AB2304B1A802A4B1B789BB21A4612011A44D20013445B009AB23B6C9BB213449BB2023B9AB297F82E30114618460AF008F90346DAB22D
:4034C000244B1A703B6C01333B6497F82F203B6C9A42BAD80C233B64E1E00023FB63DAE0FB6B9BB21A4652001344DB00BB850023BB63C9E00883FF1FCDCCCCCC00FEFF46BE
:403500000483FF1FD0A2FF1F1083FF1F000020C0000060C0FB82FF1F0083FF1F0283FF1FE282FF1F6A83FF1FFE82FF1FDC83FF1FDC82FF1F1283FF1FE0ACFF1FE382FF1FC2
:403540002883FF1F7883FF1FD480FF1F68D9FF1FDA83FF1FD883FF1F0023FB60FB6863493A6C0A44127812071343FB60FB683A6C01325E498A5C52051343FB60FB683A6CF5
:4035800002325A498A5C92031343FB60FB683A6C033256498A5CD2011343FB60FA683B6C04335249CB5C03F07F031343FB60504B1B781C46F9684F48FB6B1A4652001A449B
:4035C00093001A4623465B0123449B001A44BB6B134440F82310FB684FF0874118460CF0B7FA03464FF08E4118460CF0A9F9034618460CF0AFFC03467B857B8D1B0A9BB2F2
:4036000087F829307B8D87F82830BB6B9BB25B00FB84FA8CBB8D13449AB2354B1B789BB2194609011944C9000B445B009BB213449BB20A339AB2304B1A802F4B1B889AB284
:4036400097F82930114618460AF040F80346DAB22A4B1A70284B1B889BB201339AB297F82830114618460AF031F80346DAB2234B1A70234B1B680133214A13603B6C053356
:403680003B64BB6B0133BB63BB6B0B2B7FF664AFFB6B0133FB63FB6B0A2B7FF621AF194B1B683A6C9A42FFF418AF154B1B689AB2154B1A80144B1B88842B11D0134B1B6878
:4036C0000133124A1360124B00221A700D4B00221A60104B00221A700F4B00221A7087E10B4B00221A7003F06FFF81E1E0ACFF1FE382FF1FD484FF1FDA83FF1FD883FF1FF9
:403700000483FF1FDC82FF1FFE82FF1FDC83FF1F0083FF1F0283FF1F1283FF1F9F4B1B78032B40F08B809E4B01221A7002233B620023BB60BB6899493A6A0A441278120740
:403740001343BB60BB683A6A013294498A5C52051343BB60BB683A6A023290498A5C92031343BB60BB683A6A03328C498A5CD2011343BB60BA683B6A04338849CB5C03F0AF
:403780007F031343BB60BB6818460AF0ABFB034618460CF0DFFB0346FB83824B00221A70FB8BDAB2804B1A703B6A05333B620023BB60BB6879493A6A0A4412781207134349
:4037C000BB60BB683A6A013274498A5C52051343BB60BB683A6A023270498A5C92031343BB60BB683A6A03326C498A5CD2011343BB60BA683B6A04336849CB5C03F07F0383
:403800001343BB60BB68694918460CF0A1F9034618460CF09FFB0346BB83BB8B1B0A9BB2DAB2634B1A70BB8BDAB2624B1A705C4B00221A70604B01221A70D9E0574B1B786C
:40384000042B40F0D580564B01221A700223BB6100237B607B685149BA690A441278120713437B607B68BA6901324C498A5C520513437B607B68BA69023248498A5C9203C3
:4038800013437B607B68BA69033244498A5CD20113437B607A68BB6904334049CB5C03F07F0313437B607B6818460AF01BFB034618460CF04FFB0346FB82404B00221A7057
:4038C000FB8ADAB23D4B5A70BB690533334AD25C3A4B9A70BB690633304AD25C374BDA70BB690733BB6100237B607B682B49BA690A441278120713437B607B68BA690132B1
:4039000026498A5C520513437B607B68BA69023222498A5C920313437B607B68BA6903321E498A5CD20113437B607A68BB6904331A49CB5C03F07F0313437B601F4BDB78A3
:40394000002B10D11D4B00221A717B6818460AF0C9FA034618460CF0D7FA03461BB2DAB2164B5A713EE0154BDB78012B2AD17B68134918460CF0ECF8034618460CF0C4FA10
:403980000346BB82B7F914301B121BB2DAB20B4B1A71BB8ADAB2094B5A7123E0E0ACFF1F0083FF1FE682FF1FE782FF1F00FF7F47E882FF1FE982FF1FE582FF1F0898FF1FC2
:4039C00000FEFF46114B00221A717B6818460AF089FA034618460CF097FA03461BB2DAB20A4B5A710A4B00221A700A4B01221A70094B00221A70094B00221A60084B00225F
:403A00001A7000BF5C37BD4690BD00BF0898FF1F0083FF1FEA82FF1FE182FF1FDC82FF1F1283FF1F80B584B000AF03463960FB713B681A78484B1A703B685A78464B5A707A
:403A40003B689A78444B9A703B68DA78424BDA70424B1B78DBB2002B7BD007F0A9FD0346002B76D03E4B1B78002B29D00023FB6022E0FB683A6813441B785BB2002B0EDBE2
:403A8000384B1B685A1C37490A6040F2FF721340FA6839680A441178334AD15409E0FB683A6813441B78F72B03D12D4B00221A704FE0FB680133FB60FB68022BD9DD48E0AD
:403AC0003B681B78F02B44D1284B1B78002B40D13B6801331B787E2B03D1254B01221A7037E03B6801331B78002B13D03B6801331B78012B0ED03B6801331B78022B09D0A7
:403B00003B6801331B78032B04D03B6801331B78042B1ED1124B01221A70124B1B68002B17D1104B1B685A1C0E490A6040F2FF7213403A6851780C4AD1540A4B1B685A1C55
:403B400008490A6040F2FF7213403A689178064AD1541037BD4680BDE4B4FF1F2083FF1FE082FF1FDC82FF1FE0ACFF1FE182FF1F1283FF1F80B483B000AF78600B467B8062
:403B800013463B807B687A881A807B683A885A807A887B689A803A887B68DA807B6800221A817B6800225A817B6800229A817B680122DA817B684FF6FF721A827B684FF697
:403BC000FF725A827B6801229A827B680022DA827B6800229A617B6800221A817B680022DA837B6808229A8300BF0C37BD4680BC704700BF80B58AB000AFF86008461146F7
:403C00001A4603467B810B463B811346FB80B7F93020B7F90830D31A83EAE372A2EBE372B7F90610B7F90A30CB1A002BB8BF5B429A42CCBF01230023DBB27B84B7F9223075
:403C4000002B0BD07B893B843B897B813B8C3B81FB88FB833B8EFB80FB8B3B86B7F90A20B7F906309A420BDD7B89BB83FB887B81BB8BFB803B897B833B8E3B817B8B3B8698
:403C8000FA887B89D31A9BB23B83B7F93020B7F90830D31A002BB8BF5B42FB82B7F91830DA0F13445B10FB84B7F90820B7F930309A4202DA0123BB8431E04FF6FF73BB84C9
:403CC0002DE0B7F92230002B08D0BB8EB7F90A20B7F90810F86800F01DF907E0BB8EB7F90820B7F90A10F86800F014F9FA8CFB8AD31A9BB2FB84B7F92630002B09DA3A8997
:403D0000BB8C13449BB23B81FA8C3B8B13449BB2FB84B7F90A309BB201339BB27B81B7F90A20B7F906309A42CBDD00BF2837BD4680BD00BF80B586B000AFF8600846114641
:403D40001A4603467B810B463B811346FB80B7F90A30002BC0F2D780B7F90A30FA689288934280F2D080B7F90830002BC0F2CB80B7F90830FA68D288934280F2C480F86803
:403D800000F052FD0346022B14D0032B27D0012B36D17B89FB823B897B81FB8A3B81FB68B3F900309AB27B89D31A9BB2013B9BB27B8125E0FB68B3F900309AB27B89D31AC1
:403DC0009BB2013B9BB27B81FB68B3F902309AB23B89D31A9BB2013B9BB23B8110E07B89BB823B897B81BB8A3B81FB68B3F902309AB23B89D31A9BB2013B9BB23B8100BFA0
:403E0000FB88012B04D0022B54D0002B28D07BE0B7F90A20B7F90830002B00DA0733DB1018B20146FB68B3F9003003FB01F31344B7F90A10FA68B2F9002002FB00F20A4477
:403E400033498A5C51B23A8902F00702012000FA02F252B20A4352B2D1B22D4AD15453E0B7F90A20B7F90830002B00DA0733DB1018B20146FB68B3F9003003FB01F31344E4
:403E8000B7F90A10FA68B2F9002002FB00F20A441F498A5C51B23A8902F00702012000FA02F252B2D24352B20A4052B2D1B2184AD15429E0B7F90A20B7F90830002B00DA6B
:403EC0000733DB1018B20146FB68B3F9003003FB01F31344B7F90A10FA68B2F9002002FB00F20A440A498A5C51B23A8902F00702012000FA02F252B24A4052B2D1B2044A64
:403F0000D15400BF00E000BF1837BD4680BD00BF34E0FF1F80B584B000AFF860084611461A4603467B810B463B811346FB80FB88B7F90820B7F90A10F868FFF7FBFE00BFB0
:403F40001037BD4680BD00BF80B586B002AFF860084611461A4603467B810B463B811346FB80B7F90600B7F90820B7F90A103B8B00930346F86800F043F800BF1037BD46CE
:403F800080BD00BF80B586B002AFF860084611461A4603467B810B463B811346FB80B7F90600B7F90820B7F90A103B8B00930346F86800F04BF800BF1037BD4680BD00BFD4
:403FC00080B586B002AFF860084611461A4603467B810B463B811346FB80B7F90600B7F90820B7F90A10BB8B0193B7F9183000930346F86800F050F800BF1037BD4680BD3E
:4040000090B587B002AFF860084611461A4603467B810B463B811346FB803A89FB8813449BB2013B9BB21BB2B7F90A40B7F90800B7F90A103A8C0192009323460246F86817
:40404000FFF7D8FD00BF1437BD4690BD80B586B002AFF860084611461A4603467B810B463B811346FB807A89FB8813449BB2013B9BB218B2B7F90820B7F90A103B8B019303
:40408000B7F9083000930346F868FFF7B3FD00BF1037BD4680BD00BF80B588B002AFF860084611461A4603467B810B463B811346FB807B89FB8211E0B7F92000B7F9082076
:4040C000B7F91610BB8C00930346F868FFF73CFFB7F916309BB201339BB2FB82B7F91620B7F90A10B7F906300B449A42E4DB00BF1837BD4680BD00BF90B58FB002AFF860DB
:40410000084611461A4603467B810B463B811346FB71FB689B69002B40F02E81B7F90A30FA689288934280F2E981B7F90830FA68D288934280F2E281B7F90A1097F84820CC
:4041400013465B0013445B000B44013B002BC0F2D581B7F9082097F84830DB001344013B002BC0F2CB81FB68DB8A002B05D1FB79AF2B02D9FB790133FB71002387F82F309E
:40418000BCE0FB689969FA7913469B001A4497F92F3013441A4613465B0013449B000B441B7887F82E30002387F82D309AE097F82E3003F00103002B41D097F84830012B62
:4041C00013D197F92F309AB27B8913449BB219B297F92D309AB23B8913449BB21AB2B7F84030F868FFF796FE70E097F92F309BB297F8482092B202FB03F39AB27B89134456
:404200009BB219B297F92D309BB297F8482092B202FB03F39AB23B8913449BB218B297F848301CB297F848301BB2B7F840200192009323460246F868FFF7C2FE46E0B7F806
:404240004420B7F840309A4240D097F84830012B13D197F92F309AB27B8913449BB219B297F92D309AB23B8913449BB21AB2B7F84430F868FFF74EFE28E097F92F309BB294
:4042800097F8482092B202FB03F39AB27B8913449BB219B297F92D309BB297F8482092B202FB03F39AB23B8913449BB218B297F848301CB297F848301BB2B7F844200192DC
:4042C000009323460246F868FFF77AFE97F92D30DBB20133DBB287F82D3097F82E305B0887F82E3097F92D30072B7FF760AF97F92F30DBB20133DBB287F82F3097F92F30BA
:40430000042B7FF73EAFB7F84420B7F840309A4200F0F58097F84830012B0DD17B8905339BB219B2B7F90820B7F8443000930823F868FFF709FEE2E097F848309BB21A4687
:40434000920013449AB27B8913449BB219B297F848301CB297F848309BB2DB009BB21BB2B7F90800B7F844200192009323460246F868FFF725FEC2E0FB689B6908331B7885
:40438000FA79D31AFB71FB79DA00FB689B69043318CB1344FB61FB689B6918CBBB61FB691B887B85FB699B78FB75FB69DB78BB75FB6905331B787B75FB6906331B783B7575
:4043C000002387F82730002387F826300023BB8400237B8497F84830012B05D997F91530BB8497F914307B84002387F828307EE0002387F8293070E097F826305A1C87F8D3
:40440000262003F00703002B08D17B8D5A1C7A851A46BB6913441B7887F8273097F92730002B50DA97F84830012B1DD197F915309AB27B8913449AB297F829309BB21344C3
:404440009BB219B297F914309AB23B8913449AB297F828309BB213449BB21AB2B7F84030F868FFF757FD2EE0B7F9242097F8293013449BB297F8482092B202FB03F39AB228
:404480007B8913449BB219B2B7F9222097F8283013449BB297F8482092B202FB03F39AB23B8913449BB218B297F848301CB297F848301BB2B7F840200192009323460246D1
:4044C000F868FFF77DFD97F827305B0087F8273097F82930013387F8293097F82920FB7D9A4289D397F82830013387F8283097F82820BB7D9A42FFF47BAF00E000BF343755
:40450000BD4690BD80B584B000AF78600B467B807B689B8A002B19D07B689B891A46B7F9023013447A68928893420FDB7B6800229A817B685A897B689B8B7968C98901FB5A
:4045400003F39BB213449AB27B685A817B681B8C002B4FD07B689B69002B0AD17B689B8B7A68D28902FB03F39BB2013B9BB2FB8101E00023FB817B685A89FB8913449AB2DE
:404580007B68DB8B7968C98901FB03F39BB21344BB817B68DB88BA899A422BD3BB89DAB27B68DB88DBB2D31ADBB20133D9B27B681A8A7B685B8A9A4202D07B685B8A00E0C9
:4045C00000231A46786800F0E9F97B6800229A817B68DA88FB89D31A9AB27B68DB8B7968C98901FB03F39BB2D31A9BB2013B9AB27B685A8100BF1037BD4680BDB0B58AB044
:4046000004AF78600B46FB707B689B69002B45D1FB780A2B10D17B685A897B689B8B7968C98901FB03F39BB213449AB27B685A817B6800229A81AAE0FB780D2B00F0A78074
:404640007B68DB899B009BB21BB219467868FFF759FF7B689B8918B27B685B891CB27B681B8A7A68528A7968C989C9B2FD780291019200932B46224601467868FFF73CFDFA
:404680007B689A897B68DB89194649000B445B009BB213449AB27B689A8178E0FB780A2B13D17B6800229A817B685A897B68DB89796889690A31097889B201FB03F39BB253
:4046C00013449AB27B685A8161E0FB780D2B5ED07B689B691B7AFB75FA78FB7D9A4256D37B689B6909331B78FA789A424FD8FA78FB7DD31ADA007B689B69043318CB134430
:404700003B613B699B78FB733B69DB78BB73FB7B002B2DD0BB7B002B2AD03B6905331B785BB2BB817B68DB89B7F90C10FA7B0A4492B202FB03F39BB21BB219467868FFF786
:40474000E1FE7B689B8918B27B685B891CB27B681B8A7A68528A7968C989C9B2FD780291019200932B46224601467868FFF7C4FC7B689A893B6904331B789BB27968C98928
:4047800001FB03F39BB213449AB27B689A8100BF1837BD46B0BD00BF80B483B000AF78600B467B8013463B807A887B689A813A887B685A8100BF0C37BD4680BC704700BF57
:4047C00080B483B000AF78607B689B891BB218460C37BD4680BC704780B483B000AF78600B46FB70FB78002B02D0FB789AB200E001227B68DA8100BF0C37BD4680BC70474E
:4048000080B483B000AF78600B467B8013463B807B687A881A827B683A885A8200BF0C37BD4680BC704700BF80B483B000AF78607B681B89DBB218460C37BD4680BC7047D8
:4048400090B486B000AF786039603B68002B0AD07B689B69002B59D17B685B8906339AB27B685A8152E07B689B69002B3ED07B680022DA833B6808331B78BB753B6809337C
:404880001B787B75BB7DFB7525E0FA7DBB7DD31ADA003B68043318CB13443B613B6903331B78FB733B6906331B78BB73FA7B97F90E3013447A68D28B934209DDFB7B1AB253
:4048C00097F90E301BB213441BB29AB27B68DA83FB7D0133FB75FA7D7B7D9A42D5D93B680A331B789AB27B689A830FE07B689B69002B05D07B685B89063B9AB27B685A81B1
:404900007B6808229A837B680022DA837B683A689A6100BF1837BD4690BC704780B588B000AFF860B9601346FB710023FB6129E0FB795A1EFB69D31A18460BF0B5F80346F1
:404940001946154809F066FB034618460BF002FB0346BB61BB69BA68B2FBF3F37B61FB69FA6813447A69D2B23032D2B21A707B69BA6902FB03F31A46BB689B1ABB60FB69C3
:404980000133FB61FA79FB699A42D1DCFB7918462037BD4680BD00BF0000204180B483B000AF78600B46FB7013463B8000BF0C37BD4680BC704700BF80B582B000AF78601B
:4049C00039607B681BB23A6812B219460948FFF7D1F809490748FFF733FF002201210548FFF70EFF01210348FFF7F6FE00BF0837BD4680BD0CDCFF1F0867010080B582B0CA
:404A000000AF78607B68002B04D10C490C48FFF717FF0EE07B68012B04D10A490848FFF70FFF06E07B68022B03D107490448FFF707FF00BF0837BD4680BD00BF086701000F
:404A40000CDCFF1F50890100B48E010080B584B000AF03460A46FB801346BB80BA88FB881946022000F02EF90023FB6007E0084AFB68134400221A70FB680133FB60FB6884
:404A8000B3F5806FF3DB00BF1037BD4680BD00BF34E0FF1F80B582B000AF03460A46FB801346BB80FB88BA881146184600F0CAF900BF0837BD4680BD80B584B002AF78603F
:404AC00039607B6819B23B681BB2074A528A019200930B46002200210348FFF7DDFA00BF0837BD4680BD00BF0CDCFF1F80B584B002AF0346FB71FB799BB203F003039BB227
:404B00001B019BB21AB2074B5B8A019310230093802300210348FFF7BFFA00BF0837BD4680BD00BF0CDCFF1F80B582B000AF03460A46FB801346BB80BA88FB8819460348C1
:404B4000FFF75EFE00BF0837BD4680BD0CDCFF1F80B58AB002AFF860B9607A60FB707B68BB61FB7803F003031B010C337B61BB691BB27A6912B219461748FFF70DFE7B68ED
:404B800019B2FB789BB21B019BB21AB27B689BB2C3F180039BB218B20F4B5B8A01931023009303460C48FFF777FA0023FB610AE0FB69FA6813441B7819460748FFF71EFD42
:404BC000FB690133FB61FA69BB689A42F0DB00BF2037BD4680BD00BF0CDCFF1F80B584B000AF78600B46FB707B68FB60FB7803F003031B010C33BB60FB681BB2BA6812B297
:404C000019460548FFF7C8FD3E210348FFF7F6FC00BF1037BD4680BD0CDCFF1F80B586B002AF78603960134B5B8A0193202300938023002200210F48FFF72EFA142204213F
:404C40000C48FFF7A9FD0023FB600AE0FB687A6813441B7819460748FFF7D0FCFB680133FB60FA683B689A42F0DB00BF1037BD4680BD00BF0CDCFF1F80B586B000AFF86022
:404C8000B9607A60FB70BB68DBB21A46F9680748FFF744FE7861FB787A6879690348FFF757FF00BF1837BD4680BD00BFECDBFF1F80B500AF0248FFF783FD0346184680BD7D
:404CC0000CDCFF1F80B582B000AF0346FB710B46BB8013467B804F4AFB791370AE2000F09BF8D52000F098F8802000F095F8A82000F092F87B88DBB2013BDBB2184600F0A7
:404D00008BF8D32000F088F8002000F085F8402000F082F88D2000F07FF8FB79012B03D1102000F079F802E0142000F075F8202000F072F8002000F06FF8A12000F06CF884
:404D4000C82000F069F8BB88802B0ED17B88202B0BD1DA2000F060F8022000F05DF8812000F05AF88F2000F057F8BB88802B15D17B88402B12D1DA2000F04EF8122000F012
:404D80004BF8812000F048F8FB79012B03D19F2000F042F802E0CF2000F03EF8BB88602B15D17B88102B12D1DA2000F035F8022000F032F8812000F02FF8FB79012B03D137
:404DC000102000F029F802E0AF2000F025F8D92000F022F8FB79012B03D1222000F01CF802E0F12000F018F8DB2000F015F8402000F012F8A42000F00FF8A62000F00CF83D
:404E00002E2000F009F8AF2000F006F800BF0837BD4680BD34E4FF1F80B582B000AF0346FB71074B00221A70054AFB795370002202213C20FDF736FD00BF0837BD4680BDAD
:404E4000B0D9FF1F80B586B000AF7860396000F071F80020FFF7E0FF1020FFF7DDFF4020FFF7DAFF0023FB730223BB733B68DB103B607B68DB107B600023BB6000237B757A
:404E80000023FB7549E0FA7DFB7B1344DBB2503BDBB21846FFF7C0FFBB7B03F00F03DBB21846FFF7B9FFBB7B1B09DBB243F01003DBB21846FFF7B0FF1C4B40221A70002333
:404EC000BB7524E000233B610EE03B6901337A7D796801FB02F13A690A441549895C134AD1543B6901333B613A697B689A42ECDB7B7D01337B757B689BB201339BB20022F0
:404F000019463C20FDF7CEFCBB7D0133BB75BB7D072BD7D9FB7D0133FB75FA7D3B689A42B1DB00BF1837BD4680BD00BFB0D9FF1F34E0FF1F80B500AF0021002000F002F8AF
:404F400000BF80BD80B582B000AF03460A46FB711346BB7197F90630002B01DA7F23BB71FB79072B01D90723FB712120FFF754FFBB791846FFF750FF7F20FFF74DFF222061
:404F8000FFF74AFFFB791846FFF746FF0320FFF743FF00BF0837BD4680BD00BFB0B58EB002AF08F0ABFE0346002B25D1012008F0C5FE002008F0E0FEA14B00221A70A14B98
:404FC00001221A700023FB6210E09F4AFB6A134401221A70FB6A08339C4A32F913109B4AFB6A22F81310FB6A0133FB62FB6A072BEBDD974B00221A7008F090FE0346002B0A
:4050000025D1002008F09AFE012008F0B5FE8C4B08221A708B4B01221A700023BB6210E0894ABB6A134401221A70BB6A08338749BA6A31F91210854A22F81310BB6A0133BF
:40504000BB62BB6A072BEBDD814B00221A7005F07DFC0346FB77FB7F03F01003002B24D17C4B1B68042B03DD7A4B04221A600CE0794B1B78002B08D0764B1B68002B04DD5F
:40508000744B1B68013B734A1360012008F016FA002008F031FA002008F04CFA002008F065FA6D4B00221A7007E0FB7F03F01003002B02D0684B01221A7005F099F9034609
:4050C000002B0ED1634B05221A60002008F0F6F9012008F011FA002008F02CFA002008F045FA05F095F90346002B0ED1594B06221A60002008F0E2F9002008F0FDF9012059
:4051000008F018FA002008F031FAFB7F03F02003002B24D14F4B1B68062B03DC4D4B07221A600CE04D4B1B78002B08D0494B1B680A2B04DC474B1B680133464A1360002058
:4051400008F0BCF9002008F0D7F9002008F0F2F9012008F00BFA414B00221A7007E0FB7F03F02003002B02D03C4B01221A7008F06FFA0346002B2FD1394B00221A70384B11
:405180001B781A46374B9A5C374B1A70354B1B785B01DAB2334B5B789B00DBB21344DAB22F4B1B781344DAB2304B1A702F4B1B7840F2E271184608F089FA002008F0F0F9C0
:4051C000012008F029FA2A4B1B78002B02D102F0FBF901E000F0DAFD08F04AFA0346002B4AD11F4B01221A701D4B1B781A461D4B9A5C1D4B1A701B4B1B785B01DAB2194B0D
:405200005B789B00DBB21344DAB2154B1B781344DAB2164B1A70154B1B7840F2E271184608F054FA012008F0BBF9002008F0F4F90F4B1B78002B1DD102F0C6F91CE000BF6F
:40524000E983FF1F7783FF1F7C93FF1F4493FF1F4483FF1FD080FF1FBD81FF1FBE81FF1F7883FF1FD480FF1F2883FF1F7983FF1F7A83FF1F00F08AFDFB7F03F04003002B83
:405280001DD1984B1B78002B19D0974B1B78002B0CBF01230023DBB21A46934B1A70924B1B78184608F0ECF88F4B1B7840F2E171184608F00BFA8B4B00221A7007E0FB7F96
:4052C00003F04003002B02D0864B01221A70FB7F03F00103002B09D1844B1B78002B05D001F0A6FE814B00221A7007E0FB7F03F00103002B02D07D4B01221A70FB7F03F0E1
:405300000203002B09D17A4B1B78002B05D001F0DDFE774B00221A7007E0FB7F03F00203002B02D0724B01221A70FB7F03F00403002B09D16F4B1B78002B05D001F014FF47
:405340006C4B00221A7007E0FB7F03F00403002B02D0684B01221A70FB7F03F00803002B09D1654B1B78002B05D001F023FF624B00221A7007E0FB7F03F00803002B02D08A
:405380005D4B01221A7008F083F90346002B1AD15A4B1B78002B16D0594B1B78002B0CBF01230023DBB21A46554B1A70544B1B78002B02D000F090FC01E000F0E7FC4F4BF8
:4053C00000221A7007E008F063F90346002B02D04A4B01221A7097F91F30002B09DB494B1B78002B05D001F00BFF464B00221A7006E097F91F30002B02DA424B01221A70EB
:40540000414B1B68414A13603D4B1B78002B00F044843F4B1B78002B00F03F8408F00CFB0346BB773B4B93F90030012B40F0A880394B93F9003097F91E209A4200F0A0802C
:40544000364B1B78002B73D100210120FFF76CFB334B5B8A0193202300932E23202254212F48FEF719FE0120FFF7C8FA2D4B1C7808F0E2FA0346DBB2E31ADAB2294B1A709C
:40548000002008F0E5FA3A2254212548FFF784F9244B1B787B777B7F234AA2FB0323DB083B773B7F3033DBB219461D48FFF7A6F83B7F1A465201D21A9200D31A5B00DAB2D0
:4054C0007B7F1344DBB27B777B7F3B773B7F3033DBB219461248FFF791F8144B01221A704EE000BFC481FF1F6883FF1FC081FF1FC181FF1FC281FF1FC381FF1FBC81FF1F0C
:405500007A83FF1FBF81FF1FD080FF1F2C83FF1FE283FF1F38E4FF1FE183FF1FE883FF1F0CDCFF1FEB82FF1FCDCCCCCC7683FF1F4C4B1B78013BFB76FC7EFB7E4A4AD55C87
:4055400008F07AFA0346DBB2EB1ADAB2464B1A55002008F07DFA00210120FFF7E5FA0020FFF74CFA322200214048FFF715F9022300220E213C48FFF7EBFA3D4B01221A704B
:405580003C4B93F90030062B40F025813A4B93F9003097F91E209A4200F01D8100210120FFF7C2FA0220FFF7A1FA0320FFF79EFA4FF07E537B62314B1B78012B01D1304B5B
:4055C0007B620120FFF71AFA2E4B1C6808F034FA034618460AF068FA0346796A18460AF0B7FA0346194620460AF0A8F903461A46244B1A60002008F02BFA224B1B68224975
:4056000018460AF043FC0346002B03D01D4B1E4A1A600BE01B4B1B681C4918460AF054FC0346002B02D0174B184A1A60154B1B683B62352214210D48FFF7AEF8114B1B6801
:405640004FF0000118460AF021FC0346002B1FD02D210648FEF7D2FF3B6A83F000433B621AE000BFE883FF1FC881FF1F0CDCFF1F7683FF1F38E4FF1FE183FF1FE383FF1FB2
:405680000AD7233CF082FF1F000040C1000040412021C148FEF7B2FFC04B1B78002B0ED101210020FFF740FABB4B5B8A0193192300931E2322222021B748FEF7EDFCB8499C
:4056C000386A0AF045FA034618460AF043FC0346BB76BB7E18460AF0E7F90346B14918460AF036FA03461946386A0AF027F903463B62BB7E3033DBB21946A748FEF77EFF06
:40570000386A0AF027FC0346BB76BB7E3033DBB21946A148FEF772FF00210120FFF704FA2E219D48FEF76AFF9C4B1B78002B0ED001210020FFF7F8F9974B5B8A019319234E
:4057400000931E23222246219348FEF7A5FCBB7E18460AF0A9F903461946386A0AF0EEF803463B628F49386A0AF0F2F9034618460AF0F0FB0346BB76BB7E3033DBB2194609
:405780008548FEF73BFFBB7E18460AF08DF90346834918460AF0DCF903461946386A0AF0CDF803463B628049386A0AF0D1F9034618460AF0CFFB0346BB76BB7E3033DBB268
:4057C00019467548FEF71AFF00210120FFF7ACF9764B01221A70764B93F900300B2B40F0A180744B93F9003097F91E209A4200F0998000210120FFF797F90220FFF776F9B3
:405800000320FFF773F94FF07E537B610120FFF7F5F8694B93F90030DCB208F00DF90346DBB2E31ADBB25AB2634B1A70002008F00FF9614B93F90030184609F02BFD4FF00D
:4058400000024FF0000309F0FDFF0346002B03D0594B00221A7010E0574B93F90030184609F018FD4FF00002544B0AF009F80346002B02D0504B64221A7000210120FFF79A
:4058800053F9352214214448FEF786FF20214248FEF7B4FE484B1B78FB7497F91330484A82FB03125211DB17D31A5BB2BB74BB7C1A4692001A44D200D31A9B00DAB2FB7CAA
:4058C0001344DBB2FB74BB7C3033DBB219463248FEF794FEFB7C3B4AA2FB0323DB08BB74BB7C3033DBB219462B48FEF787FEBB7C1A465201D21A9200D31A5B00DAB2FB7CD7
:405900001344DBB2FB74FB7CBB74BB7C3033DBB219462148FEF772FE2B4B01221A70234B01221A70224B93F90030082B40F0E080204B93F9003097F91E209A4200F0D880D7
:4059400000210120FFF7F0F80220FFF7CFF80320FFF7CCF80120FFF751F81C4B1B783B823C8A08F069F803469BB2E31A9BB23B82002008F06DF8B7F91030002B03DA134BA5
:4059800000221A7028E0B7F91030642B20DD0F4B64221A7020E000BF0CDCFF1FE383FF1FCDCCCC3D000020410000C8427683FF1F38E4FF1FE183FF1FF482FF1F00005940F7
:4059C0001F85EB51CDCCCCCCF582FF1F4081FF1F3B8ADAB2B34B1A70FAF7B2FB35221E21B148FEF7D9FEAF4B1B7818460AF058F80346AE4918460AF0ABF80346FB60AC4947
:405A0000F8680AF0A5F8034618460AF0A3FA0346FB72FB7A18460AF047F80346A54918460AF096F803461946F86809F087FF0346FB60FB7A3033DBB219469B48FEF7DEFDB0
:405A4000F8680AF087FA0346FB72FB7A3033DBB219469548FEF7D2FD2E219348FEF7CEFDFB7A18460AF020F803461946F86809F065FF0346FB608F49F8680AF069F803467C
:405A800018460AF067FA0346FB72FB7A3033DBB219468548FEF7B2FDFB7A18460AF004F80346834918460AF053F803461946F86809F044FF0346FB607F49F8680AF048F877
:405AC000034618460AF046FA0346FB72FB7A3033DBB219467448FEF791FD25217248FEF78DFD00210120FFF71FF8744B01221A70734B93F90030092B40F0CC80714B93F960
:405B0000003097F91E209A4200F0C48000210120FFF70AF80220FEF771FF6B4B1B781A466A4B9B5C3B813C8907F086FF03469BB2E31A9BB23B81002007F08AFFB7F9083020
:405B4000002B06DA604B1B781A46604B0021995411E0B7F90830092B06DD5B4B1B781A465A4B0921995406E0574B1B781A463B89D9B2564B9954554B1B780133DBB23B7186
:405B8000524B5B780133DBB27B710323002203214F48FEF7DDFF4C4B1B78002B0ED101210020FEF7C1FF404B5B8A0193102300931023302218213C48FEF76EFA3B79454A1D
:405BC000A2FB0323DB08FB71FB793033DBB219463548FEF713FD3A79FB7919464901C91A8900CB1A5B00DBB21344FB71FB793033DBB219462C48FEF701FD00210120FEF721
:405C000093FF20212848FEF7F9FC53212648FEF7F5FC32212448FEF7F1FC3D212248FEF7EDFC294B1B78002B0ED001210020FEF77BFF1D4B5B8A019310230093102330223B
:405C400048211948FEF728FA7B79224AA2FB0323DB08FB71FB793033DBB219461248FEF7CDFC7A79FB7919464901C91A8900CB1A5B00DBB21344FB71FB793033DBB2194627
:405C80000948FEF7BBFC00210120FEF74DFF0B4B01221A700B4ABB7F137000BF3037BD46B0BD00BF4081FF1F0CDCFF1FCDCC4C3ECDCCCC3D000020410000C8427683FF1FCE
:405CC00038E4FF1FE183FF1FE483FF1FCC80FF1F38B30300CDCCCCCC80B500AF40218020FEF7EAFE0220FEF789FE01210020FEF71BFF002300220F211E48FEF729FF002110
:405D00000020FEF76BFF00210120FEF70DFF012300220F211848FEF71BFF00210120FEF703FF022300220F211448FEF711FF00210120FEF7F9FE124B01221A70114B0122F4
:405D40001A70104B1B78184607F048FC0E4B00221A700D4B00225A700B4B00229A700A4B0022DA70084B00221A71074B00225A7100BF80BD4CB4030060B4030074B4030006
:405D80007683FF1F7A83FF1F38E4FF1F90B583B000AF584B1B78012B01D101F0ADFA564B1B78012B01D101F0A1FB544B93F90030062B34D1524B1B6818460AF0A5F80346D6
:405DC0005AB2504B1A704E4B1C684E4B93F90030184609F069FE03461946204609F0AEFD03464949184609F0B3FE034618460AF08BF803465AB2454B1A70424B93F90030D1
:405E0000DBB24FF4FB61184607F060FC3F4B93F90030DBB240F2D971184607F057FC374B93F90030072B06D1394B1B7840F2DA71184607F04BFC314B93F90030082B06D1D5
:405E4000344B1B7840F2DB71184607F03FFC2B4B93F90030092B12D12F4B1B781B01DAB22D4B5B7803F00F03DBB21344FB71FB7940F2D771184607F029FCFAF7EDF91F4BBB
:405E800093F900300A2B13D1244B1B785B00DBB203F00203DAB2224B1B7803F00103DBB21344BB71BB7940F2DE71184607F00EFC124B93F900300B2B08D11A4B93F900303B
:405EC000DBB240F2E371184607F000FC164B00221A7007F093FD154B00221A70134B1B78184607F07BFB01F06FFB00BF0C37BD4690BD00BF7B83FF1F7C83FF1F38E4FF1F03
:405F0000F082FF1FEC82FF1F0000C842ED82FF1FFA82FF1F4081FF1FCC80FF1FF782FF1FF682FF1FF482FF1FE283FF1F7A83FF1F80B58AB002AF0346FB710023FB77994B1E
:405F400093F90030002B4ED1FB79032B14D1954B93F90130DBB2013BDBB25AB2914B5A70904B93F90130002B02DA8E4B00225A700123FB7700F07DBEFB79022B1BD1894B69
:405F800093F90130DBB20133DBB25AB2854B5A70844B93F901301A46834B1B789A4206DB814B1B78013BDBB25AB27E4B5A700123FB7700F05EBEFB79012B03D0FB79042BA7
:405FC00040F05786774B93F90130DBB20133DBB25AB2744B1A70734B93F90030DBB20133FB7700F046BE6F4B93F90030022B64D1FB79032B14D16B4B93F90330DBB2013B34
:40600000DBB25AB2674BDA70664B93F90330002B02DA644B0022DA700323FB7700F029BEFB79022B1BD15F4B93F90330DBB20133DBB25AB25B4BDA705A4B93F903301A46C6
:406040005A4B1B789A4206DB584B1B78013BDBB25AB2544BDA700323FB7700F00ABEFB79012B02D0FB79042B1CD14E4B93F90330002B08D14B4B04221A700023FB7701F0BD
:40608000E3F800F0F3BD474B93F90330012B40F0ED85444B05221A700023FB7701F0D6F900F0E4BDFB79002B40F0E3853D4B00221A700123FB7700F0DCBD3A4B93F9003055
:4060C000032B40F0BD82FB79032B14D1354B93F90530DBB2013BDBB25AB2324B5A71314B93F90530002B02DA2E4B00225A710423FB7700F0BEBDFB79022B1BD1294B93F956
:406100000530DBB20133DBB25AB2264B5A71254B93F905301A46264B1B789A4206DB244B1B78013BDBB25AB21E4B5A710423FB7700F09FBDFB79012B03D0FB79042B40F00C
:406140007582184B93F90530002B3DD1154B06221A7007F043FC0023FB77164B01221A7040218020FEF7A8FC0220FEF747FC00210120FEF7D9FC002300220F210E48FEF720
:40618000E7FC012300220F210C48FEF7E1FC0C4B7F221A70002007F05BFC0A4B01221A7000F066BD38E4FF1FD681FF1FD781FF1FD881FF1FE283FF1F88B4030098B40300AE
:4061C000E183FF1F7683FF1FA74B93F90530012B46D1A54B07221A7040218020FEF76CFC0220FEF70BFC00210120FEF79DFC002300220F219D48FEF7ABFC9D4B1B789AB264
:406200009B4B1B78002B0CBF01230023DBB29BB219461046FEF788FC012300220F219548FEF796FC924B1B78002B0CBF01230023DBB29AB28E4B1B789BB219461046FEF7DD
:4062400073FC022300220F218B48FEF781FC00210120FEF769FC894B01221A7000F008BD814B93F90530022B2BD17F4B08221A7007F0B4FB0023FB77814B01221A704021D8
:406280008020FEF719FC0220FEF7B8FB00210120FEF74AFC002300220F217A48FEF758FC012300220F217848FEF752FC774B7F221A70002007F0CCFB704B01221A7000F0D1
:4062C000D7BC694B93F90530032B34D1664B09221A7007F083FB0023FB77694B01221A7040218020FEF7E8FB0220FEF787FB00210120FEF719FC002300220F216448FEF7BE
:4063000027FC012300220F216248FEF721FC022300220F216048FEF71BFC5C4B7F221A70002007F095FB554B01221A705B4B00221A7000F09DBC4C4B93F90530052B40F0C4
:40634000BB80494B0A221A700023FB7740218020FEF7B2FB0220FEF751FB00210120FEF7E3FB002300220A214D48FEF7F1FB4D4B1B78002B0CBF01230023DBB29BB201932C
:4063800010230093252300224C214748FDF784FE444B1B789AB2434B1B78002B0CBF01230023DBB29BB219461046FEF7BDFB3F4B1B78002B08D04F213B48FEF71FF94E21A4
:4063C0003948FEF71BF90BE04F213748FEF716F946213548FEF712F946213348FEF70EF900210120FEF7A0FB012300220A213048FEF7AEFB2B4B1B789BB20193102300936A
:40640000252310224C212848FDF746FE254B1B78002B0CBF01230023DBB29AB2214B1B789BB219461046FEF77FFB224B1B78002B08D04F211C48FEF7E1F84E211A48FEF7D9
:40644000DDF80BE04F211848FEF7D8F846211648FEF7D4F846211448FEF7D0F8074B01221A7000F005BC00BF38E4FF1FA8B40300FA82FF1FB8B40300C8B403007683FF1F1A
:40648000E283FF1F88B40300D8B40300E183FF1FE8B40300F8B4030008B50300E483FF1F18B50300E583FF1F0CDCFF1FF682FF1F24B50300F782FF1FB84B93F90530062B1C
:4064C00070D1B64B0B221A7007F088FA0023FB7740218020FEF7F0FA0220FEF78FFA00210120FEF721FB002300220A21AC48FEF72FFB00210120FEF717FB0120FEF77EFA68
:4065000035221421A748FEF747F92021A548FEF775F8A54B1B78FB7297F90B30A34A82FB03125211DB17D31A5BB2BB72BB7A1A4692001A44D200D31A9B00DAB2FB7A13442E
:40654000DBB2FB72BB7A3033DBB219469548FEF755F8FB7A964AA2FB0323DB08BB72BB7A3033DBB219468F48FEF748F8BB7A1A465201D21A9200D31A5B00DAB2FB7A1344C0
:40658000DBB2FB72FB7ABB72BB7A3033DBB219468448FEF733F8874B01221A70864B01221A7065E37D4B93F90530072B40F060837A4B0C221A700023FB7740218020FEF7B4
:4065C0007BFA0220FEF71AFA7C4B1B789AB27B4B1B78002B0CBF01230023DBB29BB219461046FEF7A1FA002300220C217448FEF7AFFA724B1B78002B0CBF01230023DBB2BA
:406600009AB26E4B1B789BB219461046FEF78CFA012300220C216B48FEF79AFA00210120FEF782FA634B01221A7021E3FB79002B40F01F83594B00221A700123FB7718E332
:40664000564B93F90030042B31D1FB79012B03D0FB79042B40F00D8340218020FEF72CFA0220FEF7CBF901210020FEF75DFA002301220B215448FEF76BFA012301220F2152
:406680005248FEF765FA0223012210215048FEF75FFA032301220E214E48FEF759FA454B01221A7000210120FEF73EFAE1E23B4B93F90030052B36D1FB79012B03D0FB7968
:4066C000042B40F0D682444B1B781A46434B1B8899B2434B23F812103F4B1B7818463F4B5B8899B23E4A00F10C0322F813103A4B1B780133DAB2384B1A70374B1B780C2BF1
:4067000002D100F0F3FEB4E2334B1B781A46354B9B5C1846022328220221FEF7ADFA254B01221A70A5E21D4B93F90030062B20D1FB79012B0CD12C4B1B780133DBB203F076
:406740000103DAB2284B1A70284B7F221A7090E2FB79002B40F08D82234B1B78013BDBB203F00103DAB2204B1A70204B7F221A707FE20A4B93F90030072B40F093800023BC
:40678000FB77FB79032B35D1194B1B780133DBB203F00103DAB2164B1A7040E038E4FF1F30B503000CDCFF1FF482FF1F1F85EB51CDCCCCCC7683FF1FE283FF1FE683FF1F8B
:4067C0003CB503004CB503005CB5030068B5030078B503008CB50300EA83FF1F94DBFF1FA497FF1FDC81FF1FE383FF1FE183FF1FFA82FF1FFB79022B09D1AA4B1B78013B2E
:40680000DBB203F00103DAB2A64B1A7007E0FB79002B04D1A44B03221A700123FB7740218020FEF749F90220FEF7E8F800210120FEF77AF9002300220F219C48FEF788F996
:40684000984B1B789AB2974B1B78002B0CBF01230023DBB29BB219461046FEF765F9012300220F219248FEF773F98E4B1B78002B0CBF01230023DBB29AB28A4B1B789BB2DA
:4068800019461046FEF750F9022300220F218948FEF75EF900210120FEF746F9864B01221A70E6E1804B93F90030092B20D1FB79012B0CD1814B1B780133DBB203F0010356
:4068C000DAB27E4B1A707E4B7F221A70D1E1FB79002B40F0CE81794B1B78013BDBB203F00103DAB2754B1A70754B7F221A70C0E16D4B93F900300A2B40F0F080FB79012B93
:4069000017D1704B1B78002B09D16F4B1B780133DBB203F00103DAB26B4B1A703DE06B4B1B780133DBB203F00103DAB2674B1A7033E0FB79002B17D1624B1B78002B09D186
:40694000614B1B78013BDBB203F00103DAB25E4B1A7022E05D4B1B78013BDBB203F00103DAB25A4B1A7018E0FB79032B09D1554B1B780133DBB203F00103DAB2514B1A7090
:406980000BE0FB79022B08D14E4B1B78013BDBB203F00103DAB24B4B1A7000210120FEF7C3F8002300220A214948FEF7D1F8454B1B78002B0CBF01230023DBB29BB201935B
:4069C00010230093252300224C214248FDF764FB3C4B1B789AB23B4B1B78002B0CBF01230023DBB29BB219461046FEF79DF8364B1B78002B08D04F213648FDF7FFFD4E21E4
:406A00003448FDF7FBFD0BE04F213248FDF7F6FD46213048FDF7F2FD46212E48FDF7EEFD00210120FEF780F8012300220A212A48FEF78EF8234B1B789BB2019310230093FF
:406A4000252310224C212348FDF726FB1D4B1B78002B0CBF01230023DBB29AB2194B1B789BB219461046FEF75FF8184B1B78002B08D04F211748FDF7C1FD4E211548FDF71F
:406A8000BDFD0BE04F211348FDF7B8FD46211148FDF7B4FD46210F48FDF7B0FD064B01221A70E6E0FA82FF1F38E4FF1FA8B40300B8B40300C8B403007683FF1FE483FF1F78
:406AC000E183FF1FE583FF1FF682FF1FF782FF1F18B503000CDCFF1F24B50300894B93F900300C2B40F09880FB79012B06D1864B1B780133DAB2854B1A70BAE0FB79002B72
:406B000000F0B780FB79032B41D17F4B1B780133DBB203F00103DAB27B4B1A7040218020FDF7CAFF0220FDF769FF774B1B789AB2754B1B78002B0CBF01230023DBB29BB242
:406B400019461046FDF7F0FF002300220C217048FDF7FEFF6C4B1B78002B0CBF01230023DBB29AB2684B1B789BB219461046FDF7DBFF012300220C216648FDF7E9FF0021CE
:406B80000120FDF7D1FF644B01221A7071E0FB79022B6ED15C4B1B78013BDBB203F00103DAB2594B1A7040218020FDF785FF0220FDF724FF544B1B789AB2534B1B78002B23
:406BC0000CBF01230023DBB29BB219461046FDF7ABFF002300220C214D48FDF7B9FF4A4B1B78002B0CBF01230023DBB29AB2464B1B789BB219461046FDF796FF0123002270
:406C00000C214448FDF7A4FF00210120FDF78CFF414B01221A702CE03A4B93F90030012B27D1FB79012B0FD13C4B1B780133DAB23A4B1A70394B1B780E2B02D900F0B4FC65
:406C400017E00223FB7714E0FB79002B08D12D4B00221A700123FB77304B00221A7008E0FB79042B05D100F09FFC02E000BF00E000BFFB7F012B57D140218020FDF71CFF2F
:406C80000220FDF7BBFE0023BB612CE01D4B93F901301A46BB699A4214D101210020FDF743FF1F4ABB6952F82300BB69DBB200220F21FDF74DFFBB69DBB219460020FDF777
:406CC0008DFF0DE000210120FDF72EFF144ABB6952F82300BB69DBB200220F21FDF738FFBB690133BB610F4B1B781A46BB699A42CCDC00210120FDF717FF074B01221A70E7
:406D00006DE100BF38E4FF1FE683FF1F1C83FF1F3CB503004CB503007683FF1FE883FF1F98B30300D681FF1FFB7F022B40F0A880AD4B1B78002B58D106F050FE0023FB77B6
:406D400040218020FDF7B8FE0220FDF757FE00210120FDF7E9FE002300220B21A348FDF7F7FE012300220D21A148FDF7F1FE0223002208219F48FDF7EBFE00210120FDF7F1
:406D8000D3FE0120FDF73AFE3A2254219A48FDF703FD9A4B1B787B727B7A994AA2FB0323DB083B723B7A3033DBB219469248FDF725FC3B7A1A465201D21A9200D31A5B005D
:406DC000DAB27B7A1344DBB27B727B7A3B723B7A3033DBB219468848FDF710FC894B01221A70894B01221A70F9E07F4B1B78012B2ED10023FB7740218020FDF75DFE022061
:406E0000FDF7FCFD00210120FDF78EFE002300220E217E48FDF79CFE012300220E217C48FDF796FE00210120FDF77EFE0020FDF7E5FD322200217048FDF7AEFC0223002260
:406E40000E217448FDF784FE6E4B01221A70C6E00023FB7700210120FDF766FE0020FDF7CDFD322200216448FDF796FC022300220E216848FDF76CFE624B01221A70AEE085
:406E8000FB7F032B44D140218020FDF715FE0220FDF7B4FD00237B612CE05F4B93F903301A467B699A4214D101210020FDF73CFE5A4A7B6952F823007B69DBB200220F21A5
:406EC000FDF746FE7B69DBB219460020FDF786FE0DE000210120FDF727FE504A7B6952F823007B69DBB200220F21FDF731FE7B6901337B614A4B1B781A467B699A42CCDCF5
:406F000000210120FDF710FE3E4B01221A7066E0FB7F042B63D140218020FDF7CDFD0220FDF76CFD0023FB740023FB603AE03A4B93F905301A46FB689A4211D10121002043
:406F4000FDF7F2FD374AFB6852F82300002300220F21FDF7FDFD00210020FDF73FFE1EE02D4B93F905301A46FB689A4217DA00210120FDF7D9FDFB68DAB2274B93F9053013
:406F8000DBB2D31AFB74FB7C032B08D8254AFB6852F82300FB7C00220F21FDF7D9FDFB680133FB60204B1B781A46FB689A42BEDCFB7C0133FB7400210120FDF7B5FD08E07E
:406FC000FB7C00220F211948FDF7C2FDFB7C0133FB74FB7C032BF3D90A4B01221A7000BF2037BD4680BD00BFE883FF1F9CB50300A8B50300B8B503000CDCFF1FEB82FF1FD4
:40700000CDCCCCCC7683FF1FE283FF1FC4B50300D4B50300C881FF1F38E4FF1F5CB30300D781FF1F28B40300D881FF1FE4B5030080B500AF204B1B78002B38D11F4B1B784F
:40704000002B03D11D4B06221A7005E01B4B1B78013BDAB2194B1A70194B1B781A46174B1978184B9954184B00221A70154B1B785B01DAB2134B5B789B00DBB21344DAB2A3
:407080000F4B1B781344DBB25AB20F4B1B785BB213435BB2DAB20C4B1A700B4B1B7840F2E271184606F012FB00F08EFA02E00020FEF73EFF00BF80BD7A83FF1F2883FF1FCE
:4070C0007883FF1FD480FF1F7983FF1F80B500AF204B1B78002B37D11F4B1B780133DAB21D4B1A701C4B1B78062B02D91A4B00221A701A4B1B781A46174B1978184B995475
:40710000184B00221A70164B1B785B01DAB2144B5B789B00DBB21344DAB2104B1B781344DBB25AB20F4B1B785BB213435BB2DAB20C4B1A700B4B1B7840F2E271184606F0BD
:40714000C5FA00F041FA02E00120FEF7F1FE00BF80BD00BF7A83FF1F2883FF1F7883FF1FD480FF1F7983FF1F80B500AF0F4B1B78002B16D10E4B1B78013BDAB20C4B1A7082
:407180000B4B1B7803F03F03DAB2094B1A70084B1B7840F2D671184606F098FA00F014FA02E00220FEF7C4FE00BF80BD7A83FF1F6A83FF1F80B500AF0F4B1B78002B16D144
:4071C0000E4B1B780133DAB20C4B1A700B4B1B7803F03F03DAB2094B1A70084B1B7840F2D671184606F072FA00F0EEF902E00320FEF79EFE00BF80BD7A83FF1F6A83FF1FCC
:4072000080B500AF0E4B1B78002B13D10D4B1B78002B0CBF01230023DBB21A46094B1A70084B1B78002B02D000F070FA05E000F0CBF902E00420FEF77BFE00BF80BD00BF77
