:4000000000800020110000007D6E00007D6E000080B500AF024A034B1B68136006F062FFBC760040FA46004010B5054C237833B9044B13B10448AFF300800123237010BDDA
:40004000A082FF1F00000000EC0B0100084B10B51BB108490848AFF300800848036803B910BD074B002BFBD0BDE81040184700BF00000000A482FF1FEC0B0100C880FF1F60
:4000800000000000B0B584B000AFF860B9607A603B603968386A0EF029FD03461C46B968F8680EF023FD03461D46B96878680EF01DFD0346194628460EF0D6FE034619460C
:4000C00020460EF01DFE0346396818460EF010FD034618461037BD46B0BD00BF90B585B000AFF860B9607A60B96878680EF0FEFC03461C46104B1B7818460EF0ADFD0346BC
:400100001946F8680EF0F2FC03461A460B4B1B68194610460EF0F4FD0346194620460EF0EFFD0346B96818460EF0E2FC034618461437BD4690BD00BFCC80FF1FB881FF1F90
:4001400090B585B000AF0023FB606EE03A4AFB6832F8133018460EF07BFD0446374AFB6832F8133018460EF073FD0346194620460EF0BCFC0346BB60314B1B7818460EF068
:4001800067FD03462F4918460EF0BAFD0346B96818460EF0B5FD03467B60284AFB6832F8133018460EF054FD0346796818460EF09FFC034618460EF0A5FF034699B2224A12
:4001C000FB6822F813101C4AFB6832F8133018460EF03EFD0346796818460EF087FC034618460EF08FFF034699B2184AFB6822F81310164AFB6832F813301946124AFB6872
:4002000032F81330CB1A18460EF026FD0346BB60B9680F480EF028FE034619460D4AFB6842F82310FB680133FB60FB68092B8DDD00BF1437BD4690BD0481FF1FF080FF1FA0
:400240004081FF1F6F12033B1881FF1F2C81FF1F00F07F453498FF1F80B500AF1C4B5B781A461B4B1B78D31A18460EF0F5FC0246184B1A60174B1B684FF0000118460EF069
:40028000D3FE0346002B11D0114B02221A70104B07225A700E4B5B781A460D4B1B78D31A18460EF0D9FC02460A4B1A600A4B1B78002B0AD1074B1B6819464FF07E500EF0E7
:4002C000D3FD03461A46034B1A6000BF80BD00BFCC80FF1FB881FF1F4483FF1F80B582B000AF7860084978680EF00AFD034618460CF0F4FE0346054918460EF001FD034669
:4003000018460837BD4680BDD27EFA3DAC7F8A4180B500AF184B02221849002006F0E8FE03461A46164B1A700AF006FA0346012B20D1124B1B78DBB2012B0CD1114B0022A3
:400340001A700D4B02220F49002007F057F80E4B01221A700EE00B4B01221A70064B02220849002007F04AF809F0E4FF08F06EFD08F086F800BF80BD28D3FF1F2883FF1F10
:40038000F4C6FF1F2C83FF1F0083FF1F80B500AF09F03AFE0CF028F8FFF7BAFF00BF80BD80B500AF214B1B78DBB2002B0CBF01230023DBB21A461D4B1A7009F093FD1C4B9F
:4003C0001B78184607F0ECFC184B1B78DBB21A46184B985C0623FE22082107F01BFE134B1B78DBB21A46134B985C104B1B78DBB2DB00114A13449BB21A4646F2584107F0C4
:4004000049FE0B4B1A78094B1B78DBB21946094B5B5C1946104607F061FD054B1B780121184607F077FC00BF80BD00BF1583FF1F80A0FF1FA0AAFF1F60C8FF1F90B583B003
:4004400000AF554B1B78DBB2002B0CBF01230023DBB21A46504B1A704F4B1B78DBB2002B0CBF01230023DBB219464C4A1A2303FB01F313441B78DBB2FE2B50D1464B1B7831
:40048000DBB2002B0CBF01230023DBB21946434A1A2303FB01F3134419331B78DBB2FD2B3DD100237B6034E03B4B1B78DBB2002B0CBF01230023DBB218467B685B0001337F
:4004C00036491A2202FB00F20A4413441B78DBB29BB21B029AB2304B1B78DBB2002B0CBF01230023DBB21C467B6801335B002B481A2101FB04F101440B441B78DBB29BB2FE
:40050000134499B2264A7B6822F813107B6801337B60244B1B781A467B689A42C4DC09F027FC214B1B78184607F03AFC1A4B1B78DBB21A461D4B985C0223FE221A2107F078
:4005400069FD154B1B78DBB21A46184B985C124B1B78DBB21A461A2303FB02F30F4A13449BB21A4646F2555107F094FD0E4B1A78094B1B78DBB219460C4B5B5C194610468D
:4005800007F0ACFC084B1B780121184607F0C2FB00BF0C37BD4690BD1483FF1FC0AAFF1F1C98FF1FCE80FF1FACAAFF1F2484FF1FB0B5ACB002AF62B60CF0B8F9944B184607
:4005C0000BF0E4FE03461A46924B1A7008F028FC01200AF091F8904809F0C8FC4FF47A6007F05EFF40F2F2700CF030FA03461A468A4B1A7040F2FE700CF028FA03461A461F
:40060000874B1A70864B1B785B09DAB2854B1A70834B1B789B08DBB203F00703DAB2814B5A707F4B1B7803F00103DAB27E4B1A7040F2F4700CF00AFA03465AB27B4B1A7092
:4006400040F2F5700CF002FA03465AB2784B1A70764B93F9003018460EF0FEFA0446744B93F9003018460EF0F7FA0346714918460EF046FB0346194620460EF039FA03463E
:400680001A466D4B1A6040F2FA700CF0DFF9034603F00103DAB2694B1A7040F2FA700CF0D5F9034603F00203DAB2654B1A704FF4FF600CF0CBF903461A46624B1A7040F24D
:4006C000F9700CF0C3F903461A465F4B1A7040F2F7700CF0BBF903461A465C4B1A7040F2F6700CF0B3F903461A46594B1A7040F2F3700CF0ABF903461B09DAB2554B1A706A
:4007000040F2F3700CF0A2F9034603F00F03DAB2504B5A70FFF7A0FD40F2FD700CF096F9034603F00103DAB24B4B1A7040F2FB700CF08CF903469BB21B029CB240F2FC70E8
:400740000CF084F903469BB223447B870023C7F8A43015E07B8F5AB20121D7F8A43001FA03F35BB213405BB2D9B23C4AD7F8A43013440A461A70D7F8A4300133C7F8A430CE
:40078000D7F8A430092BE5DD0023C7F8A030E4E00023C7F89C3027E0D7F8A0309BB21A4612011A4492001A44520013445B009AB2D7F89C309BB213449BB218460CF046F953
:4007C000034618462649D7F8A0201346DB009B1A5B00CA18D7F89C30134402461A70D7F89C300133C7F89C30D7F89C300D2BD3DD0023C7F89830A6E0D7F8982013465B0022
:400800001344DB007B630023C7F8943092E000BF000C0100F4C6FF1F8D0300004A83FF1F5983FF1FD480FF1F5883FF1FCB82FF1FCC82FF1F0AD7233CD082FF1FD482FF1F11
:40084000D582FF1FD682FF1FD782FF1F4081FF1FD882FF1FCC80FF1F4883FF1F4C83FF1FFCC6FF1FD7F894305B003B633B6B9AB27B6B9BB213449AB2D7F8A0309BB2194600
:40088000090119448900194449000B445B009BB213449BB20E339BB218460CF0D7F80346FB853B6B9AB27B6B9BB213449AB2D7F8A0309BB2194609011944890019444900DE
:4008C0000B445B009BB213449BB20F339BB218460CF0BCF80346BB85FB8D1A02BB8D134418460EF0B9F903464FF06E5118460EF007FA03464FF0864118460EF0F7F803465F
:400900001C467E48D7F89830D7F8A0101A4652001A4493001A460B465B010B449B001A44D7F89430134440F82340D7F894300133C7F89430D7F894300B2B93DDD7F89830E2
:400940000133C7F89830D7F898300A2B7FF754AFD7F8A0300133C7F8A030D7F8A030062B7FF716AF0023C7F8903049E0D7F890309BB29B009BB203F29A739BB218460CF0D2
:4009800065F803469BB21B029CB2D7F890309BB29B009BB203F29B739BB218460CF056F803469BB2234499B2554AD7F8903022F81310D7F8903003F2E7139BB29B009BB2B7
:4009C00018460CF043F803469BB21B029CB2D7F890309BB29B009BB203F29D739BB218460CF034F803469BB2234499B2454AD7F8903022F81310D7F890300133C7F89030E0
:400A0000D7F89030092BB1DDFFF79AFB0023C7F88C304AE0D7F88C309BB29B009BB203F2C2739BB218460CF011F803469BB21B029CB2D7F88C309BB29B009BB203F2C3738C
:400A40009BB218460CF002F803469BB2234499B22D4AD7F88C3022F81310D7F88C3003F2F1139BB29B009BB218460BF0EFFF03469BB21B029CB2D7F88C309BB29B009BB28D
:400A800003F2C5739BB218460BF0E0FF03469BB2234499B21C4AD7F88C300C3322F81310D7F88C300133C7F88C30D7F88C300B2BB0DD0023C7F8883058E00023C7F88430DF
:400AC00011E01249D7F888201346DB009B1A5B00CA18D7F884301344FF221A70D7F884300133C7F88430D7F884300D2BE9DD0023C7F880302BE00023FB6720E0AC84FF1F6D
:400B0000F080FF1F0481FF1F4497FF1F5C93FF1F9348D7F88030D7F888101A46D200D21A53001A460B46DB005B1A1B011344C218FB6F1344FF221A70FB6F0133FB67FB6F28
:400B40000D2BE5DDD7F880300133C7F88030D7F88030072BCFDD834AD7F88830134400221A70D7F888300133C7F88830D7F888303F2BA2DD00200BF0BBFD01200BF0D6FD41
:400B800000200BF0F1FD00200BF00AFE764B1B7818460BF08FFD754B1B7818460BF01AFE724B1B78002B0CBF01230023DBB218460BF04CFE08F0C0FD08F0D6FD6B4B1B7886
:400BC0001A466B4B9A5C6B4B1A700A2007F068FC694B40221A7000220121702001F094FC03461A46654B1A604021802003F0DCFC002003F0FBFC4021802003F01FFD5D4BCE
:400C00001B78184603230022022103F02DFE03F047FE024603230121594803F091FD554B1B781A461346DB009B1A5B00554A9C1803F036FE024603230A21204603F080FD90
:400C40004021802003F01EFD4B4B04221A7000220121702001F058FC03461A46474B1A600023BB6715E0BB6FDBB20833DAB2424B1A7000220121722001F046FC03461A46D0
:400C80003E4B1A602021802003F0D8FCBB6F0133BB67BB6F072BE6DD374B04221A7000220121702001F030FC03461A46334B1A60354B09221A70304B0F221A700022012177
:400CC000352001F021FC03461A462C4B1A6009F021F807F05DFF09F0D7F801F025FB01F05BFB2A480BF042FC29480BF0F1FB294BFE229A77274BFD22DA77234B00221A70CE
:400D0000254B1B78DBB2002B01D001F08DFE01200BF07AFC1C4B1B78DBB21A461F4B13F812201F4B1B789A4248D0174B1B78DBB21A461A4B13F812301A4601239340DAB223
:400D40000D4B1A70104B1B78DBB21A46134B13F81230052B26D101210C2008F0C7FE25E0F4AAFF1FDC97FF1F4883FF1F5883FF1FD480FF1F0883FF1F60C7FF1F58C9FF1F06
:400D800000100100FCC6FF1F4783FF1F3D040000A1030000E0C8FF1FF282FF1FD880FF1FA881FF1F0121042008F0A0FE00220121702001F0A9FB034687F82B307F4B1B789B
:400DC000DBB21A467E4B13F812207E4B1A700A2007F088FB794B1B78DBB21A46784B13F81230052B1DD1754B1B78DBB21A46764B9B5C002B15D1714B1B78DBB2704A5B009D
:400E000013445B781A4601239340DAB26F4B1A7000220121712001F077FB03461A466C4B1A600A2007F05EFB644B1B78DBB2092B00F2A180614B1B78DBB21A46624B9B5CEF
:400E4000002B40F09880614B0E221A7002220121362001F059FB03461A465D4B1A605C4B1B68002B08D101220221362001F0BCFB03461A46564B1A60554B1B68002B7AD11E
:400E80004E4B1B78DBB21A46524B1B78DBB29BB21B0299B2504B23F812104E4B5B78D8B2464B1B78DBB219461A464B4B33F8122083B213449AB2484B23F81120474B1B789A
:400EC000002B58D03D4B1B78DBB21A46424B33F812203A4B1B78DBB21946414B33F811309A422AD2354B1B78DBB2002B17D1334B1B78DBB21A46384B33F81230002B1CD021
:400F00002E4B1B78DBB21A462C4B1B78DBB21946314B33F81110324B23F812100DE0274B1B78DBB21A46254B1B78DBB219462A4B33F811102A4B23F81210204B1B78DBB274
:400F40001A46254B33F812201C4B1B78DBB21946244B33F811309A420DD9184B1B78DBB21A46164B1B78DBB219461B4B33F811101C4B23F81210114B1B78DBB2092B40F0C8
:400F8000C9800E4B1B78DBB21A460F4B9B5C002B40F007810D4B00221A7000221021352001F022FB03461A46094B1A60084B1B68002B40F0F68000237B6763E04783FF1FD3
:400FC000D880FF1FA881FF1F3883FF1F60C7FF1F58C9FF1F0497FF1F68A2FF1F5B83FF1FF080FF1F0481FF1F7B6F5B00894AD35CDBB29BB21B029AB27B6F5B0001338549F8
:40100000CB5CDBB29BB213449BB2C3F30B033B803B881B099BB2DBB2DB43D9B27E4A7B6F13440A461A707D4B1B78002B27D07A4A7B6F13441B785B08D9B2794A7B6F134438
:401040000A461A70764A7B6F13441A7875497B6F0B441B789A4209D07B6F581C704A7B6F13441B780022194601F074FC6C4A7B6F134419786B4A7B6F13440A461A707B6FB4
:4010800001337B677B6F072BAEDD674B1B78022B40F08780654B1B780833DAB2644B1A7000220121722001F02FFA03461A46614B1A602021802003F0F7FA012003F096FA5F
:4010C0005D4B1B781946594B1B781A46D200D21A53001A460B46DB005B1A1B011344574A13440921184603F091FB2021802003F0C9FA4E4B1B780133DAB24C4B1A704B4B01
:401100001B78072B4DD9484B00221A70474B00221A7046E04A4B1B78DBB20A2B2AD1484B1B78DBB21A46474B9B5C002B39D1404B00221A70002202214F2001F055FA0346F7
:401140001A463C4B1A603B4B1B68002B29D1314B1B78DBB29BB21B029AB23B4B1A802D4B5B78DBB29AB2384B1B8813449AB2364B1A8016E0324B1B78DBB20B2B11D1334B3D
:401180001B78002B06D04021802003F07BFA2F4B00221A70244B1B78012B02D1224B02221A70274B1B78DBB2092B00F20F81244B1B78DBB21A46264B33F81220204B1B78ED
:4011C000DBB21946234B33F81130D31A9BB23B85B7F92830002B43DD194B1B78DBB21C46B7F9283018460DF037FD154B1B78DBB21A46194B53F8223019460DF081FD03465B
:4012000018460DF07FFF03469AB2144B23F814202EE000BF0497FF1FDC96FF1FD482FF1F5C98FF1FA484FF1F5783FF1F2483FF1F60C7FF1F58C9FF1F4A83FF1FF4AAFF1FC8
:401240004783FF1F3883FF1F4281FF1F5683FF1F68A2FF1F1881FF1F3498FF1F3C84FF1F974B1B78DBB21A46964B002123F81210934B1B78DBB21A46924B33F81230B3F53D
:40128000805F08D38E4B1B78DBB21A468D4B40F6FF7123F812108A4B1B78DBB21A468A4B9B5C002B11D0864B1B78DBB21A46844B1B78DBB21946834B33F81130C3F57F63C0
:4012C0000F3399B27F4B23F812107D4B1B78DBB21C467B4B1B78DBB21A467A4B33F8123018460DF0B5FC0346784918460DF008FD03461A46764B43F82420714B1B78DBB25D
:401300001C466F4B1B78DBB21A46724B9B5C1A466C4B33F8123018460DF09AFC03464FF0765118460DF0ECFC034618460DF0EAFE0346DAB2684B1A55684B1B78002B36D05C
:401340005F4B1B78DBB21A465D4B1B78DBB21946614B5B5C5B08D9B2614B9954584B1B78DBB21A465E4B9A5C554B1B78DBB219465C4B5B5C9A420ED0514B1B78DBB203F189
:401380000E004F4B1B78DBB21A46554B9B5C0122194601F0DFFA4A4B1B78DBB21A46484B1B78DBB219464E4B595C4E4B9954444B1B78DBB21A46424B1B78DBB21946414B80
:4013C00033F81110484B23F8121041E0474B1B8818460DF03DFC0346454918460DF090FC034618460DF068FE03461AB2414B1A80404BB3F90030002B03DA3E4B00221A8030
:4014000009E03C4BB3F90030B3F5805F03DB394B40F6FF721A80314B1B78002B18D0354BB3F900305B111BB2DAB2334B1A70324B1A78324B1B789A4206D02F4B1B780022EB
:4014400019460D2001F086FA2B4B1A782B4B1A701B4B1B78DBB20133DAB2194B1A70184B1B78DBB20B2B02D9154B00221A7000200BF0CAF801200BF0FFF8214B1B78DBB217
:40148000002B0CBF01230023DBB21E4ADB0013449B79DBB2FE2B40F04B81194B1B78DBB2002B0CBF01230023DBB2164ADB001344DB79DBB2FD2B40F03B8100233B6733E154
:4014C0004783FF1F3C84FF1F4C83FF1F010880396083FF1FAC81FF1F9884FF1FD482FF1F04C9FF1F24C9FF1F2884FF1F4281FF1FC5F1803FAEAAFF1F2183FF1F2283FF1F6C
:401500001583FF1F60C8FF1FA14B1B78DBB2002B0CBF01230023DBB21A463B6F5B009D49D2000A4413441B78DBB29BB21B029AB2974B1B78DBB2002B0CBF01230023DBB275
:4015400019463B6F5B0001339248C90001440B441B78DBB29BB2134499B28F4A3B6F22F813108D4A3B6F32F813309AB28B493B6F31F813309BB29A4200F0CA80864A3B6FCC
:4015800032F813309BB24FF6FF7293420ED0824A3B6F32F8133099B281483A6F13465B001344DB0003441B88994206D97D4A3B6F4FF07E5142F82310AAE0774A3B6F32F8D3
:4015C000133099B276483A6F13465B001344DB00034416331B88994267D90023FB6660E06D4A3B6F32F8133099B26D483A6F13465B0013449B00FA6E134430F813309942DC
:401600004CD8654A3B6F32F8133099B2FB6E581C634C3A6F13465B0013449B00034434F8133099423AD95C4A3B6F32F813309BB218460DF00DFB044659493A6F13465B0040
:4016400013449B00FA6E134431F8133018460DF0FFFA0546FB6E591C51483A6F13465B0013449B000B4430F8133018460DF0F0FA4D4AFB6E52F82310FB6E01334A4A52F8F1
:40168000233000930B46024629462046FEF7FAFC0146444A3B6F42F8231039E0FB6E0133FB66FB6E0A2B9BDD32E03B4A3B6F32F813309BB218460DF0CBFA044638493A6F43
:4016C00013465B001344DB000B4414331B8818460DF0BEFA054632493A6F13465B001344DB000B4416331B8818460DF0B1FA01462D4B9A6A2C4BDB6A009313460A462946F8
:401700002046FEF7BFFC0146264A3B6F42F82310214A3B6F32F8133099B2204A3B6F22F813103B6F01333B673B6F012B7FF7ECAE00200AF0A1FF1D4B1B78002B23D000234B
:40174000BB661AE01A4ABB6E32F813309AB21949BB6E31F813309BB29A4202D0B86E01F05BF8134ABB6E32F8133099B2114ABB6E22F81310BB6E0133BB660F4B1B781A46E2
:40178000BB6E9A42DEDC03F001FA00237B665EE01583FF1F60C8FF1F34C9FF1FF8C6FF1F4497FF1FD4C8FF1F7881FF1FD482FF1F1C98FF1F5084FF1FCE80FF1F7B6E9BB2A3
:4017C000184607F0D7FF03461B111BB2D9B23B4A7B6E13440A461A70384A7B6E13441B78DB43D9B2354A7B6E13440A461A70344B1B78002B28D0314A7B6E13441B785B08D5
:40180000D9B2304A7B6E13440A461A702D4A7B6E13441A782C497B6E0B441B789A420AD07B6E03F10900274A7B6E13441B780022194601F08FF8234A7B6E13441978224A7D
:401840007B6E13440A461A707B6E01337B667B6E032BB3DD01200AF0F5FE00233B6625E21A4B1B78002B37D0194B1B889BB24FF6FF72934212D0164B5B889BB24FF6FF729E
:4018800093420BD0386E0DF0E7F9124B1968114B5B681A46FEF722FCF86520E00C4B1B889BB24FF6FF72934203D00A4B1B68FB6515E0084B5B68FB6511E000BF7CA2FF1FF4
:4018C000D482FF1F80AAFF1FA0C8FF1F4883FF1F34C9FF1FD4C8FF1FA74B1B68FB65A74B1B781A46A64913465B0113449B003A6E134451F82340A14B1B781A46A0491346CC
:401900005B0113449B003A6E1344303351F823209C4B1B68194610460DF0F2F90346194620460DF0E5F803461C46944B1B781A46934913465B0113449B003A6E13443C330E
:4019400051F823208F4B5B68194610460DF0D8F90346194620460DF0CBF803461C46874B1B781A46864913465B0113449B003A6E1344483351F82320824B9B68194610467C
:401980000DF0BEF90346194620460DF0B1F803461C467A4B1B781A46794913465B0113449B003A6E1344543351F82320754BDB68194610460DF0A4F90346194620460DF084
:4019C00097F803461C466D4B1B781A466C4913465B0113449B003A6E1344603351F82320684B1B69194610460DF08AF90346194620460DF07DF803461C46604B1B781A4653
:401A00005F4913465B0113449B003A6E1344783351F823205B4B5B69194610460DF070F90346194620460DF063F803461C46534B1B781A46524913465B0113449B003A6E10
:401A400013446C3351F823204E4B9B69194610460DF056F90346194620460DF049F803461C46464B1B781A46454913465B0113449B003A6E1344243351F82320414BDB69E4
:401A8000194610460DF03CF90346194620460DF02FF803461C46394B1B781A46384913465B0113449B003A6E13440C3351F82320344B1B6A194610460DF022F90346194680
:401AC00020460DF015F803461C462C4B1B781A462B4913465B0113449B003A6E1344183351F82320274B5B6A194610460DF008F90346194620460CF0FBFF03461A46224B6C
:401B00001B68194610460CF0F3FF03467B621B4B1B781A461A4913465B0113449B003A6E134451F823303B62386A0DF0C5FA0146164A3B6E42F823101549F86D0DF0E0F80B
:401B400003461846FEF7CAFB0346124918460CF0CDFF0346FB613B6E002B1FD14FF08841F8690DF0CDF8034618460DF0CBFA03469AB2094B1A8045E0D4C8FF1F0883FF1F32
:401B8000AC84FF1F6083FF1FD082FF1F70C8FF1F00005C4200000442DCC8FF1F3B6E052B20D1A14B1B78002B2CD04FF08641F8690DF0A6F8034618460DF0A4FA03469BB220
:401BC00018460DF045F80346BB61974B1B78002B18D0B8690DF096FA03460C21184600F0EDFE0FE03B6E0B2B0CD14FF08841F8690DF086F8034618460DF084FA03469AB2BD
:401C00008A4B5A80796AF8690CF072FF03461C46874A3B6E52F8233018460DF01DF80346194620460CF062FF03467B61814978690DF066F803464FF08C4118460CF058FF76
:401C400003463B617C4B1B78002B15D07B4A3B6E52F82330396918460DF0E6F90346002B0AD138690DF04EFA03461A463B6E01331946104600F0A2FE70493B6E3A6941F8F0
:401C800023204FF00001786A0DF0F6F90346002B09D0F969786A0CF02BFF03461946684A3B6E42F823103B6E01333B66654B1B781A463B6E9A423FF7D3AD00200AF0C2FC78
:401CC000614B1B78DBB2002B01D000F019FD5F4B1B78DBB2002B13D008F02EFD0346002B0ED05B4B1B88402B05D95A4B1B8801339AB2584B1A80564B00221A8000F02AFDBE
:401D000000BF06F099FF034603F00103002B06D106F092FF034603F01003002B01D0012300E00023002BECD001200AF0DBFD4A4B1B78DBB2012B55D1484B1B78002B1CD0FD
:401D4000474BFD221A70474B1A78454B5A70454B1A78454B1A7004F0ADFD404B00221A703D4B00221A70414B00221A803C4BFE229A773B4BFD22DA7799E1394B02221A70C3
:401D8000384B1A78364B5A700223BB6520E0374B1A88374B1B889A420FD2344B1B885A1C91B2324A11801A46324B9B5CD9B22C4ABB6D13440A461A7007E0294ABB6D134489
:401DC000EE221A70254B01221A70BB6D0133BB65BB6D1D2BDBD9224BFE229A77204BFD22DA7764E1244B1B78002B4FD01C4B06221A70224B1A781A4B5A70214B1A78184BDA
:401E00009A70204B1A78164BDA701F4B1A78144B1A71134BFE229A77114BFD22DA77164B00221A7043E100BFD582FF1FDCC8FF1F70C8FF1FABAA2A43D482FF1FAC97FF1F9B
:401E4000A4C8FF1FCE80FF1F0083FF1FFF82FF1F0483FF1F0683FF1FE082FF1FC482FF1FE0C8FF1FC282FF1F4583FF1FDA82FF1FDC82FF1F6498FF1FC582FF1FC682FF1F13
:401E8000C782FF1FC882FF1FC982FF1F914B1B78002B24D0904B07221A70904B1A788E4B5A708E4B5A788C4B9A708C4B9A788A4BDA708A4BDA78884B1A71884B1A79864B6E
:401EC0005A71864B5A79844B9A71834BFE229A77814BFD22DA777F4B00221A70E7E0804B1B78DBB2002B75D07B4B03221A7000237B650AE07B6D01337A497A6D0A441178C7
:401F0000754AD1547B6D01337B657B6D072BF1DD00233B650AE03B6D093373493A6D0A4411786D4AD1543B6D01333B653B6D032BF1DD0023FB640AE0FB6C0D336B49FA6CE5
:401F40000A441178644AD154FB6C0133FB64FB6C092BF1DD664B1B781B015AB2654B1B685BB213435AB2644B1B785B015BB213435AB2624B1B789B015BB213435BB2DAB261
:401F8000554B1A765E4B1A78534B5A765D4BB3F900301B121BB2DAB24F4B9A76594BB3F90030DAB24C4BDA76574B5B881B0A9BB2DAB2494B1A77544B5B88DAB2464B5A7789
:401FC000454BFE229A77444BFD22DA77444B00221A706CE0404B01221A700023BB6424E04A4ABB6C52F823304FF0884118460CF087FE034618460BF04DF8034618460DF052
:402000005BF80346FB60BB6C5B000133FA681212D1B2314AD154BB6C01335B00FA68D1B22D4AD154BB6C0133BB64BB6C0B2BD7DD2F4B1B781B015AB22E4B1B685BB21343F4
:402040005AB22D4B1B785B015BB213435AB22B4B1B789B015BB213435BB2DAB21E4B1A76274B1A781C4B5A76264BB3F900301B121BB2DAB2184B9A76224BB3F90030DAB28E
:40208000154BDA76204B1B881B0A9BB2DAB2124B1A771D4B1B88DAB20F4B5A770E4BFE229A770D4BFD22DA770D4B01221A70184B1B78FD2B7FD1164BDB7FFE2B7BD1144B60
:4020C0005B78BB60124B1B7C7B6002237B6400233B6434E0CA82FF1FE0C8FF1FA497FF1FE182FF1FDC96FF1F7CA2FF1F9884FF1F4983FF1FD080FF1F4883FF1FD882FF1F80
:402100004A83FF1FAEAAFF1FDCC8FF1FA4C8FF1F38C9FF1F744A7B6C134418787349BA681346DB009B1A5B00CA183B6C134402461A707B6C01337B643B6C01333B643B6C58
:402140000D2BE7DD11237B640023FB631BE0664A7B6C13441C7866487B68B9681A46D200D21A53001A460B46DB005B1A1B011344C218FB6B134422461A707B6C01337B6438
:40218000FB6B0133FB63FB6B0D2BE0DD594B1B781A46BB689A4240F090807B68072B40F08C80554ABB6813441B78002B40F0858004F080FB81E04C4B1B78FC2B7ED14A4B94
:4021C000DB7FFE2B7AD106F0F5FC002002F00EFA002301220B21494802F0B2FA012301220B21474802F0ACFA022301220B21454802F0A6FA032301220B21424802F0A0FAB7
:40220000414B0B221A70404B1B78DBB21A463F4B13F812203E4B1B789A4213D03A4B1B78DBB21A46394B13F812301A4601239340DAB2384B1A7000220121702000F064F9C7
:402240000346FB70304B1B78DBB21A462F4B13F812202F4B1A700A2006F044F92A4B1B78DBB21A46294B13F81230052B1DD1264B1B78DBB21A46284B9B5C002B15D1224BEA
:402280001B78DBB2214A5B0013445B781A4601239340DAB21F4B1A7000220121712000F033F903461A461D4B1A600A2006F01AF94021802002F0E6F900E000BF06F0D8FC4D
:4022C000174B1B78DBB20121184605F023FD154B1B78DBB20121184605F01CFD00200AF001FBFEF70DBD00BF38C9FF1F5C93FF1FF4AAFF1F4A83FF1FDC97FF1F04100100AC
:40230000101001001C1001004783FF1FD880FF1FA881FF1F60C7FF1F3883FF1F58C9FF1F4093FF1F0097FF1F80B500AF4FF4804341F6FF72012101200AF0D8FB03461A465C
:40234000124B1A7005F038FE03461A46104B1A700F4B1B78D8B20123FE22202105F05AFE0B4B1B78DBB20B4A91B246F24642184605F090FE054B1B78DAB2054B1B78DBB2E6
:402380001946104605F0AAFD00BF80BD0097FF1F20C9FF1FE0C8FF1F80B500AF41F6FF734FF48042012101200AF02EF803461A464A4B1A7005F000FE03461A46484B1A70D8
:4023C00005F0FAFD03461A46454B5A70444B18780223FE221A2105F01DFE414B58780223FE221A2105F016FE3D4B1B783D4A92B246F25551184605F04DFE394B5B783A4A1D
:4024000092B246F25551184605F044FE41F6FF734FF48042012101200AF028F803461A46324B1A7005F0C8FD03461A46304B1A7005F0C2FD03461A462D4B5A702C4B18781C
:402440000623FE22082105F0E5FD294B58780623FE22082105F0DEFD254B1B78254A92B246F25841184605F015FE214B5B78224A92B246F25841184605F00CFE41F6FF73DA
:402480004FF48042012101200AF0FEFA03461A461A4B1A7005F090FD03461A46184B1A70174B1B78D8B20223FE22202105F0B2FD134B1B78DBB2134A92B246F2564118463D
:4024C00005F0E8FD0D4B1B78DAB20D4B1B78DBB21946104605F002FD00BF80BDACAAFF1F2484FF1FC0AAFF1FDAAAFF1F80A0FF1FA0AAFF1F60C8FF1F68C8FF1F4093FF1FDF
:4025000000C9FF1F38C9FF1F80B586B000AF0346FB710B46BB801346BB710023FB754FF47A733B6107F00CF80346FB73FB7BDBB25BB2002B42DBBB88DAB2BB79F879294966
:4025400006F0B6FE0346FB73FB7BDBB2002B2FD106F0D0FF0346FB733B69013B3B61FB7BDBB2802B03D100F0B9F80123FB753B69002B05D18023FB7300F0B0F80123FB753B
:40258000FB7BDBB2002B05D18023FB7300F0A6F80123FB75FB7BDBB203F08203002B0DD1FB7BDBB2002B09D03B69002BD0D105E08023FB7300F092F80123FB75FB7BDBB2E2
:4025C00003F02003002B04D1FB7BDBB25BB2002B03DA00F083F80123FB75FB7D18461837BD4680BD60C7FF1F80B584B000AF0346FB710B46BB7113467B714CF25033FB6059
:402600000023FB7206F09CFF0346BB72BB7ADBB25BB2002B46DB7B79BA79F8792B4906F0D7FE0346BB72BB7ADBB2002B34D106F061FF0346BB72FB68013BFB60BB7ADBB221
:40264000802B12D1224B52221A70224BFF221A70214B00221A7000BF1E4B1B78DBB2002BFAD100F03BF80123FB72FB68002B05D18023BB7200F032F80123FB72BB7ADBB29E
:4026800003F08103002B0DD1BB7ADBB2002B09D0FB68002BCBD105E08023BB7200F01EF80123FB72BB7ADBB203F02003002B04D1BB7ADBB25BB2002B03DA00F00FF8012394
:4026C000FB72FB7A18461037BD4680BD0497FF1F746400401B6400405B64004080B500AF06F0B4FB044B00221A70044B00221A7006F096FB00BF80BD74640040D183FF1FF8
:4027000080B500AF08F018F80346002B05D107F011FE0E4B00221A7013E00C4B1B78DBB2002B0ED10021002007F07AFC00BF07F081FE0346002BFAD009F048FB034B012216
:402740001A70034B00221A7000BF80BDFF82FF1F0083FF1F80B500AF07F078FE0346002B10D007F067FE0346002B0BD0244B1B78DBB2002B06D007F0DFFF0346002B01D09F
:4027800009F024FB07F056FE0346002B35D007F05DFE0346002B18D01A4B1B78D8B21A4B1B78DBB29BB21A46184907F0ADFE184B1B78DBB240221749184607F029FF144BB7
:4027C0001B78DBB2184607F069FF0D4B1B78DBB2002B06D007F0B0FF0346002B01D009F075FB074B1B78DBB2002B06D007F0A4FF0346002B01D009F0FBFA00BF80BD00BF34
:40280000FF82FF1FE4D2FF1FE5D2FF1FE8D2FF1FE6D2FF1FA4D2FF1F80B586B000AF78602C4A7B6832F81330FB82FB8A002B43D0FB8A18460CF00CFA03463B614FF05E515E
:4028400038690CF05DFA03463B6138690AF038FE3861214938690CF049F903463B611F4938690CF04DFA03463B6138690CF024FC0346FB82FB8A7F2B01D97F23FB82184BA8
:402880001B685A1F13465B0013449B001946154A7B6852F823300B44FB60FB8ADBB219467B6801331A46F86800F020F80E497B68FA6841F8232009E00B4A7B6852F8230098
:4028C0007B6801331A46002100F010F800BF1837BD4680BD1C98FF1F0918C43C551D0243D080FF1F70C8FF1F8883FF1F80B584B000AFF860B9607A607B68DBB2703BDAB259
:40290000114B1A70FB68DAB20F4B5A70BB68DAB20D4B9A700D4B1B78DBB2002B09D007F00BFF0346002B04D000220749032009F0D3FA074B1B8804339AB2054B1A8000BF4C
:402940001037BD4680BD00BF5893FF1FFF82FF1F0483FF1F80B584B000AFF860B9607A607B68DBB2503BDAB2114B1A70FB68DAB20F4B5A70BB68DAB20D4B9A700D4B1B78E5
:40298000DBB2002B09D007F0D7FE0346002B04D000220749032009F09FFA074B1B8804339AB2054B1A8000BF1037BD4680BD00BF5893FF1FFF82FF1F0483FF1F80B582B030
:4029C00000AF786039603B68DBB2203BDAB2134B1A707B68DBB203F07F03DAB20F4B5A707B68DB11DAB20D4B9A700D4B1B78DBB2002B09D007F0A0FE0346002B04D00022EB
:402A00000649032009F068FA064B1B8804339AB2044B1A8000BF0837BD4680BD5893FF1FFF82FF1F0483FF1F90B595B000AF8F4B01221A708E4B1B78002B40F0E0828D4B1D
:402A400001221A708C4B00221A608C4B00221A70874B5A788A4B1A70854B9A78894B1A70834BDA78874B5A70814B1A79854B9A707F4B5A79834BDA700623FB64142387F888
:402A8000373022E0FB6C023B7949FA6C0A44127802F07F02D1B27B4AD154794B1B781846FB6C9A1F7249FB6C0B441B7803F07F03DCB275490346DB001B1A5B000B44134435
:402AC00022461A70FB6C0133FB6497F83720FB6C9A42D7D8694B01221A700023BB6434E000237B642BE0FB6C023B6149FA6C0A44127802F07F02D1B2624AD154604B1B78BD
:402B000018465B4AFB6C13441B7803F07F03DCB25E49BB6C1A46D200D21A53001A460346DB001B1A1B011344CA187B6C134422461A70FB6C0133FB647B6C01337B647B6CE6
:402B40000D2BD0DDBB6C0133BB64BB6C072BC7DD8223BB86494B02221A7049E200233B613B694349FA6C0A441278120713433B613B69FA6C01323E498A5C520513433B617B
:402B80003B69FA6C02323A498A5C920313433B613B69FA6C033236498A5CD20113433B613A69FB6C04333249CB5C03F07F0313433B613B69364A1360304B1B78022B40F032
:402BC000B9802D4B1B68002B22D13B6918460CF099FA03469AB22F4B1A80BA8E264B1B68591C2548016013442A4A1288120A92B2D1B2244AD154BA8E1F4B1B68591C1E48DF
:402C000001601344234A1288D1B21E4AD154ECE1204B1B8801335B001A46174B1B689A423CD93B691C4918460CF06AF8034618460CF068FA03467B86BA8E0F4B1B68591C77
:402C40000D48016013447A8E120A92B2D1B20D4AD154BA8E084B1B68591C0748016013447A8ED1B2074AD154BFE100BFC182FF1F80A2FF1FDE82FF1FE482FF1FD982FF1FCA
:402C8000C282FF1F6498FF1F5C93FF1FF4AAFF1FF882FF1FEC82FF1F00FF7F479C4B1B8801335B001A469B4B1B689A4240F09D813B69994A1360984B1B68984918460CF03F
:402CC000BDF90346002B23D0934B1B68944918460CF0D2F90346002B1AD0BA8E8D4B1B68591C8C48016013448E4AEF21D154BA8E884B1B68591C874801601344894AEF21C8
:402D0000D154894B03221A70884B00221A606CE1874B1B680133864A1360864B00221A70854B00221A60854B00221A70844B00221A705AE17C4B1B78032B28D13B691846C5
:402D40000CF0E0F903469AB27E4B1A80BA8E714B1B68591C6F48016013447A4A1288120A92B2D1B26F4AD154BA8E6A4B1B68591C684801601344734A1288D1B2694AD154ED
:402D8000694B04221A70704B00221A802DE1664B1B78042B40F029816B4B1A88694B1B889A4280F0D780614B1968684BA3FB01239A0813469B001344CA1A002A0FD1BA8EC6
:402DC000544B1B68591C53480160D4183B6918460CF098F90346DAB2524B1A5591E0534B19685A4BA3FB01239A0813469B001344CA1A012A0FD1BA8E464B1B68591C4548B3
:402E00000160D4183B6918460CF07CF90346DAB2444B1A5575E0454B19684C4BA3FB01239A0813469B001344CA1A022A23D13B694FF0000118460CF001F90346002B0AD0C9
:402E4000BA8E344B1B68591C324801601344354AFF21D15455E0BA8E2E4B1B68591C2D480160D4183B6918460CF04CF90346DAB22C4B1A5545E02D4B1968344BA3FB012390
:402E80009A0813469B001344CA1A032A24D13B692F4918460BF034FF034618460CF00CF903463B86BA8E1B4B1B68591C194801601344B7F93020121212B2D1B2194AD15413
:402EC000BA8E144B1B68591C1248016013443A8ED1B2144AD15414E0BA8E0E4B1B68591C0C480160D4183B6918460CF00BF90346DAB20C4B1A55144B1B8801339AB2124BA9
:402F00001A800A4B1B680133084A13606DE000BFEC82FF1FE482FF1FF482FF1F0000C0BF000020C06498FF1FD982FF1FE882FF1FBC83FF1FDE82FF1FBC82FF1FE082FF1F45
:402F4000F282FF1FEE82FF1FF082FF1FCDCCCCCC00FEFF463B69664918460CF06FF80346002B31D03B69634918460CF085F80346002B29D0BA8E604B1B68591C5E4801601E
:402F800013445E4AFE21D154BA8E5B4B1B68591C594801601344594AFE21D154584B05221A70584B00221A70574B01221A70574B1A78574B1A70504B1B689AB2BB8E13444C
:402FC0009AB2544B1A8010E0534B1B680133524A13604C4B00221A70504B00221A604A4B00221A704E4B00221A70FB6C0533FB644A4B1B68FA6C9A42FFF4B0ADF0E2494BEA
:403000001B78022B40F082813E4B01221A703A4B00221A60434B5A78434B1A70424B1A78424B1A70424B1B781A46404B1978414B995402233B64102387F82F3043E0394A08
:403040003B6C13441B7803F07F0387F82E30364B1B7818463B6C9A1E37490346DB001B1A5B000B44134497F82E201A702E4B1B789BB21A4612011A4492001A445200134498
:403080005B009AB22D4B1A80274B1B789BB21A4612011A4492001A44520013445B009AB23B6C9BB213449BB2023B9AB297F82E301146184609F040FC0346DAB2204B1A7032
:4030C0003B6C01333B6497F82F203B6C9A42B6D810233B64DBE00023FB63D4E0FB6B9BB21A4652001344DB00BB850023BB63C3E0000020C0000060C0E482FF1F6498FF1F4C
:40310000D982FF1FDE82FF1FE082FF1FC282FF1F4A83FF1FDC82FF1FBC83FF1FBC82FF1FF282FF1F80A2FF1FC382FF1F0883FF1F5883FF1FD480FF1FFCC6FF1FBA83FF1F12
:40314000B883FF1F0023FB60FB6864493A6C0A44127812071343FB60FB683A6C01325F498A5C52051343FB60FB683A6C02325B498A5C92031343FB60FB683A6C0332574963
:403180008A5CD2011343FB60FA683B6C04335349CB5C03F07F031343FB60514B1B781C46F9685048FB6B1A4652001A4493001A4623465B0123449B001A44BB6B134440F8AF
:4031C0002310FB684FF0874118460BF099FD03464FF08E4118460BF08BFC034618460BF091FF03467B857B8D1B0A9BB287F829307B8D87F82830BB6B9BB25B00FB84FA8C8D
:40320000BB8D13449AB2364B1B789BB21946090119448900194449000B445B009BB213449BB20E339AB2304B1A802F4B1B889AB297F829301146184609F07EFB0346DAB2C3
:403240002A4B1A70284B1B889BB201339AB297F828301146184609F06FFB0346DAB2234B1A70234B1B680133214A13603B6C05333B64BB6B0133BB63BB6B0B2B7FF662AFC5
:40328000FB6B0133FB63FB6B0A2B7FF627AF194B1B683A6C9A42FFF41EAF154B1B689AB2154B1A80144B1B88842B11D0134B1B680133124A1360124B00221A700D4B0022E5
:4032C0001A60104B00221A700F4B00221A7087E10B4B00221A7003F0EDFA81E180A2FF1FC382FF1FAC84FF1FBA83FF1FB883FF1FE482FF1FBC82FF1FDC82FF1FBC83FF1F43
:40330000DE82FF1FE082FF1FF282FF1F9F4B1B78032B40F08B809E4B01221A7002233B620023BB60BB6899493A6A0A44127812071343BB60BB683A6A013294498A5C520562
:403340001343BB60BB683A6A023290498A5C92031343BB60BB683A6A03328C498A5CD2011343BB60BA683B6A04338849CB5C03F07F031343BB60BB68184609F08BFE0346F9
:4033800018460BF0BFFE0346FB83824B00221A70FB8BDAB2804B1A703B6A05333B620023BB60BB6879493A6A0A44127812071343BB60BB683A6A013274498A5C5205134363
:4033C000BB60BB683A6A023270498A5C92031343BB60BB683A6A03326C498A5CD2011343BB60BA683B6A04336849CB5C03F07F031343BB60BB68694918460BF081FC034687
:4034000018460BF07FFE0346BB83BB8B1B0A9BB2DAB2634B1A70BB8BDAB2624B1A705C4B00221A70604B01221A70D9E0574B1B78042B40F0D580564B01221A700223BB61CE
:4034400000237B607B685149BA690A441278120713437B607B68BA6901324C498A5C520513437B607B68BA69023248498A5C920313437B607B68BA69033244498A5CD20158
:4034800013437B607A68BB6904334049CB5C03F07F0313437B607B68184609F0FBFD034618460BF02FFE0346FB82404B00221A70FB8ADAB23D4B5A70BB690533334AD25CE0
:4034C0003A4B9A70BB690633304AD25C374BDA70BB690733BB6100237B607B682B49BA690A441278120713437B607B68BA69013226498A5C520513437B607B68BA69023208
:4035000022498A5C920313437B607B68BA6903321E498A5CD20113437B607A68BB6904331A49CB5C03F07F0313437B601F4BDB78002B10D11D4B00221A717B68184609F063
:40354000A9FD034618460BF0B7FD03461BB2DAB2164B5A713EE0154BDB78012B2AD17B68134918460BF0CCFB034618460BF0A4FD0346BB82B7F914301B121BB2DAB20B4B91
:403580001A71BB8ADAB2094B5A7123E080A2FF1FDE82FF1FC682FF1FC782FF1F00FF7F47C882FF1FC982FF1FC582FF1FA497FF1F00FEFF46114B00221A717B68184609F028
:4035C00069FD034618460BF077FD03461BB2DAB20A4B5A710A4B00221A700A4B01221A70094B00221A70094B00221A60084B00221A7000BF5437BD4690BD00BFA497FF1FE9
:40360000DE82FF1FCA82FF1FC182FF1FBC82FF1FF282FF1F80B584B000AF03463960FB713B681A78484B1A703B685A78464B5A703B689A78444B9A703B68DA78424BDA70B1
:40364000424B1B78DBB2002B7BD007F075F80346002B76D03E4B1B78002B29D00023FB6022E0FB683A6813441B785BB2002B0EDB384B1B685A1C37490A6040F2FF721340DD
:40368000FA6839680A441178334AD15409E0FB683A6813441B78F72B03D12D4B00221A704FE0FB680133FB60FB68022BD9DD48E03B681B78F02B44D1284B1B78002B40D165
:4036C0003B6801331B787E2B03D1254B01221A7037E03B6801331B78002B13D03B6801331B78012B0ED03B6801331B78022B09D03B6801331B78032B04D03B6801331B787D
:40370000042B1ED1124B01221A70124B1B68002B17D1104B1B685A1C0E490A6040F2FF7213403A6851780C4AD1540A4B1B685A1C08490A6040F2FF7213403A689178064A83
:40374000D1541037BD4680BD84AAFF1FFF82FF1FC082FF1FBC82FF1F80A2FF1FC182FF1FF282FF1F80B483B000AF78600B467B8013463B807B687A881A807B683A885A8077
:403780007A887B689A803A887B68DA807B6800221A817B6800225A817B6800229A817B680122DA817B684FF6FF721A827B684FF6FF725A827B6801229A827B680022DA82DD
:4037C0007B6800229A617B6800221A817B680022DA837B6808229A8300BF0C37BD4680BC704700BF80B58AB000AFF860084611461A4603467B810B463B811346FB80B7F995
:403800003020B7F90830D31A83EAE372A2EBE372B7F90610B7F90A30CB1A002BB8BF5B429A42CCBF01230023DBB27B84B7F92230002B0BD07B893B843B897B813B8C3B81A3
:40384000FB88FB833B8EFB80FB8B3B86B7F90A20B7F906309A420BDD7B89BB83FB887B81BB8BFB803B897B833B8E3B817B8B3B86FA887B89D31A9BB23B83B7F93020B7F97A
:403880000830D31A002BB8BF5B42FB82B7F91830DA0F13445B10FB84B7F90820B7F930309A4202DA0123BB8431E04FF6FF73BB842DE0B7F92230002B08D0BB8EB7F90A20C6
:4038C000B7F90810F86800F01DF907E0BB8EB7F90820B7F90A10F86800F014F9FA8CFB8AD31A9BB2FB84B7F92630002B09DA3A89BB8C13449BB23B81FA8C3B8B13449BB239
:40390000FB84B7F90A309BB201339BB27B81B7F90A20B7F906309A42CBDD00BF2837BD4680BD00BF80B586B000AFF860084611461A4603467B810B463B811346FB80B7F9A6
:403940000A30002BC0F2D780B7F90A30FA689288934280F2D080B7F90830002BC0F2CB80B7F90830FA68D288934280F2C480F86800F052FD0346022B14D0032B27D0012B53
:4039800036D17B89FB823B897B81FB8A3B81FB68B3F900309AB27B89D31A9BB2013B9BB27B8125E0FB68B3F900309AB27B89D31A9BB2013B9BB27B81FB68B3F902309AB250
:4039C0003B89D31A9BB2013B9BB23B8110E07B89BB823B897B81BB8A3B81FB68B3F902309AB23B89D31A9BB2013B9BB23B8100BFFB88012B04D0022B54D0002B28D07BE0B1
:403A0000B7F90A20B7F90830002B00DA0733DB1018B20146FB68B3F9003003FB01F31344B7F90A10FA68B2F9002002FB00F20A4433498A5C51B23A8902F00702012000FA8F
:403A400002F252B20A4352B2D1B22D4AD15453E0B7F90A20B7F90830002B00DA0733DB1018B20146FB68B3F9003003FB01F31344B7F90A10FA68B2F9002002FB00F20A44F2
:403A80001F498A5C51B23A8902F00702012000FA02F252B2D24352B20A4052B2D1B2184AD15429E0B7F90A20B7F90830002B00DA0733DB1018B20146FB68B3F9003003FB30
:403AC00001F31344B7F90A10FA68B2F9002002FB00F20A440A498A5C51B23A8902F00702012000FA02F252B24A4052B2D1B2044AD15400BF00E000BF1837BD4680BD00BF0A
:403B0000D4CDFF1F80B584B000AFF860084611461A4603467B810B463B811346FB80FB88B7F90820B7F90A10F868FFF7FBFE00BF1037BD4680BD00BF80B586B002AFF8603E
:403B4000084611461A4603467B810B463B811346FB80B7F90600B7F90820B7F90A103B8B00930346F86800F043F800BF1037BD4680BD00BF80B586B002AFF8600846114677
:403B80001A4603467B810B463B811346FB80B7F90600B7F90820B7F90A103B8B00930346F86800F04BF800BF1037BD4680BD00BF80B586B002AFF860084611461A4603462B
:403BC0007B810B463B811346FB80B7F90600B7F90820B7F90A10BB8B0193B7F9183000930346F86800F050F800BF1037BD4680BD90B587B002AFF860084611461A46034631
:403C00007B810B463B811346FB803A89FB8813449BB2013B9BB21BB2B7F90A40B7F90800B7F90A103A8C0192009323460246F868FFF7D8FD00BF1437BD4690BD80B586B05E
:403C400002AFF860084611461A4603467B810B463B811346FB807A89FB8813449BB2013B9BB218B2B7F90820B7F90A103B8B0193B7F9083000930346F868FFF7B3FD00BF0E
:403C80001037BD4680BD00BF80B588B002AFF860084611461A4603467B810B463B811346FB807B89FB8211E0B7F92000B7F90820B7F91610BB8C00930346F868FFF73CFF79
:403CC000B7F916309BB201339BB2FB82B7F91620B7F90A10B7F906300B449A42E4DB00BF1837BD4680BD00BF90B58FB002AFF860084611461A4603467B810B463B811346B9
:403D0000FB71FB689B69002B40F02E81B7F90A30FA689288934280F2E981B7F90830FA68D288934280F2E281B7F90A1097F8482013465B0013445B000B44013B002BC0F2B2
:403D4000D581B7F9082097F84830DB001344013B002BC0F2CB81FB68DB8A002B05D1FB79AF2B02D9FB790133FB71002387F82F30BCE0FB689969FA7913469B001A4497F91A
:403D80002F3013441A4613465B0013449B000B441B7887F82E30002387F82D309AE097F82E3003F00103002B41D097F84830012B13D197F92F309AB27B8913449BB219B22A
:403DC00097F92D309AB23B8913449BB21AB2B7F84030F868FFF796FE70E097F92F309BB297F8482092B202FB03F39AB27B8913449BB219B297F92D309BB297F8482092B25F
:403E000002FB03F39AB23B8913449BB218B297F848301CB297F848301BB2B7F840200192009323460246F868FFF7C2FE46E0B7F84420B7F840309A4240D097F84830012BF5
:403E400013D197F92F309AB27B8913449BB219B297F92D309AB23B8913449BB21AB2B7F84430F868FFF74EFE28E097F92F309BB297F8482092B202FB03F39AB27B89134465
:403E80009BB219B297F92D309BB297F8482092B202FB03F39AB23B8913449BB218B297F848301CB297F848301BB2B7F844200192009323460246F868FFF77AFE97F92D30B6
:403EC000DBB20133DBB287F82D3097F82E305B0887F82E3097F92D30072B7FF760AF97F92F30DBB20133DBB287F82F3097F92F30042B7FF73EAFB7F84420B7F840309A421D
:403F000000F0F58097F84830012B0DD17B8905339BB219B2B7F90820B7F8443000930823F868FFF709FEE2E097F848309BB21A46920013449AB27B8913449BB219B297F8F4
:403F400048301CB297F848309BB2DB009BB21BB2B7F90800B7F844200192009323460246F868FFF725FEC2E0FB689B6908331B78FA79D31AFB71FB79DA00FB689B69043308
:403F800018CB1344FB61FB689B6918CBBB61FB691B887B85FB699B78FB75FB69DB78BB75FB6905331B787B75FB6906331B783B75002387F82730002387F826300023BB84DE
:403FC00000237B8497F84830012B05D997F91530BB8497F914307B84002387F828307EE0002387F8293070E097F826305A1C87F8262003F00703002B08D17B8D5A1C7A8566
:404000001A46BB6913441B7887F8273097F92730002B50DA97F84830012B1DD197F915309AB27B8913449AB297F829309BB213449BB219B297F914309AB23B8913449AB2EC
:4040400097F828309BB213449BB21AB2B7F84030F868FFF757FD2EE0B7F9242097F8293013449BB297F8482092B202FB03F39AB27B8913449BB219B2B7F9222097F828307F
:4040800013449BB297F8482092B202FB03F39AB23B8913449BB218B297F848301CB297F848301BB2B7F840200192009323460246F868FFF77DFD97F827305B0087F827303A
:4040C00097F82930013387F8293097F82920FB7D9A4289D397F82830013387F8283097F82820BB7D9A42FFF47BAF00E000BF3437BD4690BD80B584B000AF78600B467B80B4
:404100007B689B8A002B19D07B689B891A46B7F9023013447A68928893420FDB7B6800229A817B685A897B689B8B7968C98901FB03F39BB213449AB27B685A817B681B8CBC
:40414000002B4FD07B689B69002B0AD17B689B8B7A68D28902FB03F39BB2013B9BB2FB8101E00023FB817B685A89FB8913449AB27B68DB8B7968C98901FB03F39BB21344FE
:40418000BB817B68DB88BA899A422BD3BB89DAB27B68DB88DBB2D31ADBB20133D9B27B681A8A7B685B8A9A4202D07B685B8A00E000231A46786800F0E9F97B6800229A818A
:4041C0007B68DA88FB89D31A9AB27B68DB8B7968C98901FB03F39BB2D31A9BB2013B9AB27B685A8100BF1037BD4680BDB0B58AB004AF78600B46FB707B689B69002B45D12E
:40420000FB780A2B10D17B685A897B689B8B7968C98901FB03F39BB213449AB27B685A817B6800229A81AAE0FB780D2B00F0A7807B68DB899B009BB21BB219467868FFF7B6
:4042400059FF7B689B8918B27B685B891CB27B681B8A7A68528A7968C989C9B2FD780291019200932B46224601467868FFF73CFD7B689A897B68DB89194649000B445B0090
:404280009BB213449AB27B689A8178E0FB780A2B13D17B6800229A817B685A897B68DB89796889690A31097889B201FB03F39BB213449AB27B685A8161E0FB780D2B5ED07B
:4042C0007B689B691B7AFB75FA78FB7D9A4256D37B689B6909331B78FA789A424FD8FA78FB7DD31ADA007B689B69043318CB13443B613B699B78FB733B69DB78BB73FB7B53
:40430000002B2DD0BB7B002B2AD03B6905331B785BB2BB817B68DB89B7F90C10FA7B0A4492B202FB03F39BB21BB219467868FFF7E1FE7B689B8918B27B685B891CB27B68BE
:404340001B8A7A68528A7968C989C9B2FD780291019200932B46224601467868FFF7C4FC7B689A893B6904331B789BB27968C98901FB03F39BB213449AB27B689A8100BFB5
:404380001837BD46B0BD00BF80B483B000AF78600B467B8013463B807A887B689A813A887B685A8100BF0C37BD4680BC704700BF80B483B000AF78607B689B891BB21846DA
:4043C0000C37BD4680BC704780B483B000AF78600B46FB70FB78002B02D0FB789AB200E001227B68DA8100BF0C37BD4680BC704780B483B000AF78600B467B8013463B8024
:404400007B687A881A827B683A885A8200BF0C37BD4680BC704700BF80B483B000AF78607B681B89DBB218460C37BD4680BC704790B486B000AF786039603B68002B0AD0E8
:404440007B689B69002B59D17B685B8906339AB27B685A8152E07B689B69002B3ED07B680022DA833B6808331B78BB753B6809331B787B75BB7DFB7525E0FA7DBB7DD31AF6
:40448000DA003B68043318CB13443B613B6903331B78FB733B6906331B78BB73FA7B97F90E3013447A68D28B934209DDFB7B1AB297F90E301BB213441BB29AB27B68DA83D8
:4044C000FB7D0133FB75FA7D7B7D9A42D5D93B680A331B789AB27B689A830FE07B689B69002B05D07B685B89063B9AB27B685A817B6808229A837B680022DA837B683A68EF
:404500009A6100BF1837BD4690BC704780B588B000AFF860B9601346FB710023FB6129E0FB795A1EFB69D31A18460AF095FB03461946154808F046FE034618460AF0E2FDAC
:404540000346BB61BB69BA68B2FBF3F37B61FB69FA6813447A69D2B23032D2B21A707B69BA6902FB03F31A46BB689B1ABB60FB690133FB61FA79FB699A42D1DCFB791846BA
:404580002037BD4680BD00BF0000204180B483B000AF78600B46FB7013463B8000BF0C37BD4680BC704700BF80B582B000AF786039607B681BB23A6812B219460948FFF78C
:4045C000D1F809490748FFF733FF002201210548FFF70EFF01210348FFF7F6FE00BF0837BD4680BDACC9FF1F0858010080B582B000AF78607B68002B04D10C490C48FFF79C
:4046000017FF0EE07B68012B04D10A490848FFF70FFF06E07B68022B03D107490448FFF707FF00BF0837BD4680BD00BF08580100ACC9FF1F507A0100B47F010080B584B030
:4046400000AF03460A46FB801346BB80BA88FB881946022000F02EF90023FB6007E0084AFB68134400221A70FB680133FB60FB68B3F5806FF3DB00BF1037BD4680BD00BFAA
:40468000D4CDFF1F80B582B000AF03460A46FB801346BB80FB88BA881146184600F0CAF900BF0837BD4680BD80B584B002AF786039607B6819B23B681BB2074A528A0192A9
:4046C00000930B46002200210348FFF7DDFA00BF0837BD4680BD00BFACC9FF1F80B584B002AF0346FB71FB799BB203F003039BB21B019BB21AB2074B5B8A0193102300934F
:40470000802300210348FFF7BFFA00BF0837BD4680BD00BFACC9FF1F80B582B000AF03460A46FB801346BB80BA88FB8819460348FFF75EFE00BF0837BD4680BDACC9FF1FDB
:4047400080B58AB002AFF860B9607A60FB707B68BB61FB7803F003031B010C337B61BB691BB27A6912B219461748FFF70DFE7B6819B2FB789BB21B019BB21AB27B689BB297
:40478000C3F180039BB218B20F4B5B8A01931023009303460C48FFF777FA0023FB610AE0FB69FA6813441B7819460748FFF71EFDFB690133FB61FA69BB689A42F0DB00BF56
:4047C0002037BD4680BD00BFACC9FF1F80B584B000AF78600B46FB707B68FB60FB7803F003031B010C33BB60FB681BB2BA6812B219460548FFF7C8FD3E210348FFF7F6FCF5
:4048000000BF1037BD4680BDACC9FF1F80B586B002AF78603960134B5B8A0193202300938023002200210F48FFF72EFA142204210C48FFF7A9FD0023FB600AE0FB687A6812
:4048400013441B7819460748FFF7D0FCFB680133FB60FA683B689A42F0DB00BF1037BD4680BD00BFACC9FF1F80B586B000AFF860B9607A60FB70BB68DBB21A46F968074818
:40488000FFF744FE7861FB787A6879690348FFF757FF00BF1837BD4680BD00BF8CC9FF1F80B500AF0248FFF783FD0346184680BDACC9FF1F80B582B000AF0346FB710B4662
:4048C000BB8013467B804F4AFB791370AE2000F09BF8D52000F098F8802000F095F8A82000F092F87B88DBB2013BDBB2184600F08BF8D32000F088F8002000F085F84020FA
:4049000000F082F88D2000F07FF8FB79012B03D1102000F079F802E0142000F075F8202000F072F8002000F06FF8A12000F06CF8C82000F069F8BB88802B0ED17B88202B07
:404940000BD1DA2000F060F8022000F05DF8812000F05AF88F2000F057F8BB88802B15D17B88402B12D1DA2000F04EF8122000F04BF8812000F048F8FB79012B03D19F2023
:4049800000F042F802E0CF2000F03EF8BB88602B15D17B88102B12D1DA2000F035F8022000F032F8812000F02FF8FB79012B03D1102000F029F802E0AF2000F025F8D9208A
:4049C00000F022F8FB79012B03D1222000F01CF802E0F12000F018F8DB2000F015F8402000F012F8A42000F00FF8A62000F00CF82E2000F009F8AF2000F006F800BF08373F
:404A0000BD4680BDD4D1FF1F80B582B000AF0346FB71074B00221A70054AFB795370002202213C20FDF770FD00BF0837BD4680BD60C7FF1F80B586B000AF7860396000F024
:404A400071F80020FFF7E0FF1020FFF7DDFF4020FFF7DAFF0023FB730223BB733B68DB103B607B68DB107B600023BB6000237B750023FB7549E0FA7DFB7B1344DBB2503B88
:404A8000DBB21846FFF7C0FFBB7B03F00F03DBB21846FFF7B9FFBB7B1B09DBB243F01003DBB21846FFF7B0FF1C4B40221A700023BB7524E000233B610EE03B6901337A7D9F
:404AC000796801FB02F13A690A441549895C134AD1543B6901333B613A697B689A42ECDB7B7D01337B757B689BB201339BB2002219463C20FDF708FDBB7D0133BB75BB7D1C
:404B0000072BD7D9FB7D0133FB75FA7D3B689A42B1DB00BF1837BD4680BD00BF60C7FF1FD4CDFF1F80B500AF0021002000F002F800BF80BD80B582B000AF03460A46FB71BE
:404B40001346BB7197F90630002B01DA7F23BB71FB79072B01D90723FB712120FFF754FFBB791846FFF750FF7F20FFF74DFF2220FFF74AFFFB791846FFF746FF0320FFF717
:404B800043FF00BF0837BD4680BD00BF90B58BB002AF04F09FFF0346FB75FB7D03F01003002B24D1AC4B1B68042B03DDAA4B04221A600CE0A94B1B78002B08D0A64B1B6894
:404BC000002B04DDA44B1B68013BA34A1360012007F08EFD002007F0A9FD002007F0C4FD002007F0DDFD9D4B00221A7007E0FB7D03F01003002B02D0984B01221A7004F0F8
:404C0000BBFC0346002B0ED1934B05221A60002007F06EFD012007F089FD002007F0A4FD002007F0BDFD04F0B7FC0346002B0ED1894B06221A60002007F05AFD002007F04D
:404C400075FD012007F090FD002007F0A9FDFB7D03F02003002B24D17F4B1B68062B03DC7D4B07221A600CE07D4B1B78002B08D0794B1B680A2B04DC774B1B680133764A0B
:404C80001360002007F034FD002007F04FFD002007F06AFD012007F083FD714B00221A7007E0FB7D03F02003002B02D06C4B01221A7007F0E7FD0346002B2FD1694B00225D
:404CC0001A70684B1B781A46674B9A5C674B1A70654B1B785B01DAB2634B5B789B00DBB21344DAB25F4B1B781344DAB2604B1A705F4B1B7840F2FE71184607F01DFE002026
:404D000007F068FD012007F0A1FD5A4B1B78002B02D101F0CFFD01E000F072FC07F0C2FD0346002B2FD14F4B01221A704D4B1B781A464D4B9A5C4D4B1A704B4B1B785B01FE
:404D4000DAB2494B5B789B00DBB21344DAB2454B1B781344DAB2464B1A70454B1B7840F2FE71184607F0E8FD012007F033FD002007F06CFD3F4B1B78002B02D101F09AFDAB
:404D800001E000F03DFCFB7D03F04003002B1DD1394B1B78002B19D0384B1B78002B0CBF01230023DBB21A46344B1A70334B1B78184607F07FFC314B1B7840F2FD711846C0
:404DC00007F0BAFD2C4B00221A7007E0FB7D03F04003002B02D0284B01221A70FB7D03F00103002B09D1264B1B78002B05D001F0C9FA234B00221A7007E0FB7D03F0010394
:404E0000002B02D01E4B01221A70FB7D03F00203002B09D11B4B1B78002B05D001F000FB184B00221A7007E0FB7D03F00203002B02D0144B01221A70FB7D03F00403002BF9
:404E400024D1114B1B78002B20D001F037FB0E4B00221A7022E000BFD080FF1FBD81FF1FBE81FF1F5883FF1FD480FF1F0883FF1F5983FF1F5A83FF1FC481FF1F4883FF1FCE
:404E8000C081FF1FC181FF1FC281FF1FFB7D03F00403002B02D06A4B01221A70FB7D03F00803002B09D1674B1B78002B05D001F02BFB644B00221A7007E0FB7D03F0080372
:404EC000002B02D05F4B01221A7007F0FBFC0346002B1AD15C4B1B78002B16D05B4B1B78002B0CBF01230023DBB21A46574B1A70564B1B78002B02D000F034FB01E000F016
:404F00007FFB514B00221A7007E007F0DBFC0346002B02D04C4B01221A7097F91730002B03DB4B4B1B78002B06D197F91730002B02DA474B01221A70464B1B68464A136031
:404F4000424B1B78002B00F0EE82444B1B78002B00F0E98207F0A6FE0346BB75404B93F90030052B40F02F813E4B93F9003097F916209A4200F0278100210120FFF7CCFBF5
:404F80000220FFF7ABFB0320FFF7A8FB4FF07E53FB61354B1B78012B01D1344BFB610120FFF724FB324B1C6807F07CFE0346184609F052FE0346F969184609F0A1FE03469D
:404FC0001946204609F092FD03461A46284B1A60002007F073FE264B1B68264918460AF02DF80346002B03D0214B224A1A600BE01F4B1B68204918460AF03EF80346002B8A
:4050000002D01B4B1C4A1A60194B1B68BB61352214211A48FFF7B8F9154B1B684FF0000118460AF00BF80346002B29D02D211348FFF7DCF8BB6983F00043BB6124E000BFA9
:40504000C281FF1FC381FF1FBC81FF1F5A83FF1FBF81FF1FD080FF1F0C83FF1FC283FF1FD8D1FF1FC183FF1FC383FF1F0AD7233CD082FF1F000040C100004041ACC9FF1FE9
:4050800020216D48FFF7B2F86C4B1B78002B0ED101210020FFF740FB674B5B8A0193192300931E23222220216348FEF7EDFD6449B86909F025FE034618460AF023F803465A
:4050C0007B757B7D184609F0C7FD03465D49184609F016FE03461946B86909F007FD0346BB617B7D3033DBB219465348FFF77EF8B8690AF007F803467B757B7D3033DBB29F
:4051000019464D48FFF772F800210120FFF704FB2E214948FFF76AF8484B1B78002B0ED001210020FFF7F8FA434B5B8A0193192300931E23222246213F48FEF7A5FD7B7D7B
:40514000184609F089FD03461946B86909F0CEFC0346BB613B49B86909F0D2FD0346184609F0D0FF03467B757B7D3033DBB219463148FFF73BF87B7D184609F06DFD034661
:405180002F49184609F0BCFD03461946B86909F0ADFC0346BB612C49B86909F0B1FD0346184609F0AFFF03467B757B7D3033DBB219462148FFF71AF800210120FFF7ACFA3D
:4051C000224B01221A70224B93F90030072B40F0D580204B93F9003097F916209A4200F0CD8000210120FFF797FA0220FFF776FA0320FFF773FA0120FFF7F8F9164B1B78DC
:405200007B827C8A07F04EFD03469BB2E31A9BB27B82002007F052FDB7F91230002B03DA0D4B00221A701DE0B7F91230642B15DD094B64221A7015E0ACC9FF1FC383FF1F28
:40524000CDCCCC3D000020410000C8425683FF1FD8D1FF1FC183FF1F4081FF1F7B8ADAB2B34B1A70FAF76CFF35221E21B148FFF78BF8AF4B1B78184609F0EAFC0346AE499B
:40528000184609F03DFD0346FB60AC49F86809F037FD0346184609F035FF0346FB72FB7A184609F0D9FC0346A549184609F028FD03461946F86809F019FC0346FB60FB7A2A
:4052C0003033DBB219469B48FEF790FFF86809F019FF0346FB72FB7A3033DBB219469548FEF784FF2E219348FEF780FFFB7A184609F0B2FC03461946F86809F0F7FB034664
:40530000FB608F49F86809F0FBFC0346184609F0F9FE0346FB72FB7A3033DBB219468548FEF764FFFB7A184609F096FC03468349184609F0E5FC03461946F86809F0D6FB37
:405340000346FB607F49F86809F0DAFC0346184609F0D8FE0346FB72FB7A3033DBB219467448FEF743FF25217248FEF73FFF00210120FFF7D1F9744B01221A70734B93F9C4
:405380000030082B40F0CC80714B93F9003097F916209A4200F0C48000210120FFF7BCF90220FFF723F96B4B1B781A466A4B9B5C3B813C8907F076FC03469BB2E31A9BB280
:4053C0003B81002007F07AFCB7F90830002B06DA604B1B781A46604B0021995411E0B7F90830092B06DD5B4B1B781A465A4B0921995406E0574B1B781A463B89D9B2564B6A
:405400009954554B1B780133DBB23B71524B5B780133DBB27B710323002203214F48FFF78FF94C4B1B78002B0ED101210020FFF773F9404B5B8A019310230093102330221A
:4054400018213C48FEF720FC3B79454AA2FB0323DB08FB71FB793033DBB219463548FEF7C5FE3A79FB7919464901C91A8900CB1A5B00DBB21344FB71FB793033DBB2194682
:405480002C48FEF7B3FE00210120FFF745F920212848FEF7ABFE53212648FEF7A7FE32212448FEF7A3FE3D212248FEF79FFE294B1B78002B0ED001210020FFF72DF91D4B0C
:4054C0005B8A0193102300931023302248211948FEF7DAFB7B79224AA2FB0323DB08FB71FB793033DBB219461248FEF77FFE7A79FB7919464901C91A8900CB1A5B00DBB20A
:405500001344FB71FB793033DBB219460948FEF76DFE00210120FFF7FFF80B4B01221A700B4ABB7D137000BF2437BD4690BD00BF4081FF1FACC9FF1FCDCC4C3ECDCCCC3D92
:40554000000020410000C8425683FF1FD8D1FF1FC183FF1FC483FF1FCC80FF1F38A40300CDCCCCCC80B500AF40218020FFF79CF80220FFF73BF801210020FFF7CDF80023E7
:4055800000220F211948FFF7DBF800210020FFF71DF900210120FFF7BFF8012300220F211348FFF7CDF800210120FFF7B5F8114B01221A70104B01221A700F4B1B78184666
:4055C00007F026F90D4B00221A700C4B00225A700A4B00229A70094B0022DA70074B00221A71064B00225A7100BF80BD10A5030024A503005683FF1F5A83FF1FD8D1FF1F97
:4056000090B583B000AF4B4B1B78012B01D100F0F9FF494B1B78012B01D101F0EDF8474B93F90030052B34D1454B1B68184609F043FD03465AB2434B1A70414B1C68414B03
:4056400093F90030184609F007FB03461946204609F04CFA03463C49184609F051FB0346184609F029FD03465AB2384B1A70354B93F90030DBB240F2F471184607F05CF925
:40568000324B93F90030DBB240F2F571184607F053F92A4B93F90030072B06D12C4B1B7840F2F771184607F047F9244B93F90030082B12D1274B1B781B01DAB2254B5B7847
:4056C00003F00F03DBB21344FB71FB7940F2F371184607F031F9FAF7BFFD184B93F90030092B13D11C4B1B785B00DBB203F00203DAB21A4B1B7803F00103DBB21344BB7183
:40570000BB7940F2FA71184607F016F9144B00221A7007F0A9FA134B00221A70114B1B78184607F075F801F0C5F800BF0C37BD4690BD00BF5B83FF1F5C83FF1FD8D1FF1F55
:40574000D082FF1FCB82FF1F0000C842CC82FF1F4081FF1FCC80FF1FD582FF1FD482FF1FC283FF1F5A83FF1F80B58AB002AF0346FB710023FB77984B93F90030002B4ED1F5
:40578000FB79032B14D1944B93F90130DBB2013BDBB25AB2904B5A708F4B93F90130002B02DA8D4B00225A700123FB7700F0C9BCFB79022B1BD1884B93F90130DBB2013374
:4057C000DBB25AB2844B5A70834B93F901301A46824B1B789A4206DB804B1B78013BDBB25AB27D4B5A700123FB7700F0AABCFB79012B03D0FB79042B40F0A384764B93F904
:405800000130DBB20133DBB25AB2734B1A70724B93F90030DBB20133FB7700F092BC6E4B93F90030012B64D1FB79032B14D16A4B93F90330DBB2013BDBB25AB2664BDA707D
:40584000654B93F90330002B02DA634B0022DA700223FB7700F075BCFB79022B1BD15E4B93F90330DBB20133DBB25AB25A4BDA70594B93F903301A46594B1B789A4206DBEB
:40588000574B1B78013BDBB25AB2534BDA700223FB7700F056BCFB79012B02D0FB79042B1CD14D4B93F90330002B08D14A4B03221A700023FB7700F04DFE00F03FBC464B70
:4058C00093F90330012B40F03984434B04221A700023FB7700F040FF00F030BCFB79002B40F02F843C4B00221A700123FB7700F028BC394B93F90030022B40F0FF81FB7942
:40590000032B14D1344B93F90530DBB2013BDBB25AB2314B5A71304B93F90530002B02DA2D4B00225A710323FB7700F00ABCFB79022B1AD1284B93F90530DBB20133DBB267
:405940005AB2254B5A71244B93F905301A46254B1B789A4206DB234B1B78013BDBB25AB21D4B5A710323FB77EBE3FB79012B03D0FB79042B40F08F81174B93F90530002B7D
:405980003CD1154B05221A7007F05EF90023FB77154B01221A7040218020FEF785FE0220FEF724FE00210120FEF7B6FE002300220F210E48FEF7C4FE012300220F210C48F0
:4059C000FEF7BEFE0B4B7F221A70002007F076F9094B01221A70B3E3D8D1FF1FC581FF1FC681FF1FC781FF1FC283FF1F38A5030048A50300C183FF1F5683FF1FAB4B93F954
:405A00000530012B47D1A94B06221A700023FB7740218020FEF748FE0220FEF7E7FD00210120FEF779FE002300220F21A048FEF787FEA04B1B789AB29E4B1B78002B0CBFBA
:405A400001230023DBB29BB219461046FEF764FE012300220F219848FEF772FE954B1B78002B0CBF01230023DBB29AB2914B1B789BB219461046FEF74FFE022300220F218B
:405A80008E48FEF75DFE00210120FEF745FE8C4B01221A7054E3854B93F90530022B2AD1824B07221A7007F0CFF80023FB77854B01221A7040218020FEF7F6FD0220FEF782
:405AC00095FD00210120FEF727FE002300220F217D48FEF735FE012300220F217B48FEF72FFE7B4B7F221A70002007F0E7F8744B01221A7024E36D4B93F90530032B33D1F6
:405B00006A4B08221A7007F09FF80023FB776D4B01221A7040218020FEF7C6FD0220FEF765FD00210120FEF7F7FD002300220F216848FEF705FE012300220F216648FEF7E1
:405B4000FFFD022300220F216448FEF7F9FD604B7F221A70002007F0B1F8594B01221A705F4B00221A70EBE2504B93F90530052B40F0E6824D4B09221A700023FB774021AA
:405B80008020FEF791FD0220FEF730FD00210120FEF7C2FD002300220A215248FEF7D0FD514B1B78002B0CBF01230023DBB29BB2019310230093252300224C214B48FEF7BD
:405BC00063F8494B1B789AB2474B1B78002B0CBF01230023DBB29BB219461046FEF79CFD434B1B78002B08D04F214048FEF7FEFA4E213E48FEF7FAFA0BE04F213B48FEF79E
:405C0000F5FA46213948FEF7F1FA46213748FEF7EDFA00210120FEF77FFD012300220A213448FEF78DFD304B1B789BB2019310230093252310224C212C48FEF725F82A4B35
:405C40001B78002B0CBF01230023DBB29AB2264B1B789BB219461046FEF75EFD264B1B78002B08D04F212148FEF7C0FA4E211F48FEF7BCFA0BE04F211C48FEF7B7FA462149
:405C80001A48FEF7B3FA46211848FEF7AFFA0C4B01221A7054E2FB79002B40F05282034B00221A700123FB774BE200BFD8D1FF1F58A50300D882FF1F68A5030078A50300B3
:405CC0005683FF1FC283FF1F38A5030088A50300C183FF1F98A50300A8A50300B8A50300C483FF1FC8A50300C583FF1FACC9FF1FD482FF1FD4A50300D582FF1FAD4B93F931
:405D00000030032B31D1FB79012B03D0FB79042B40F0178240218020FEF7C6FC0220FEF765FC01210020FEF7F7FC002301220B21A148FEF705FD012301220F219F48FEF725
:405D4000FFFC0223012210219D48FEF7F9FC032301220E219B48FEF7F3FC9B4B01221A7000210120FEF7D8FCEBE1924B93F90030042B36D1FB79012B03D0FB79042B40F022
:405D8000E081924B1B781A46914B1B8899B2914B23F812108D4B1B7818468D4B5B8899B28C4A00F10C0322F81310884B1B780133DAB2864B1A70854B1B780C2B02D100F00F
:405DC0001BFDBEE1814B1B781A46834B9B5C1846022328220221FEF747FD7B4B01221A70AFE1744B93F90030052B20D1FB79012B0CD17A4B1B780133DBB203F00103DAB287
:405E0000764B1A70764B7F221A709AE1FB79002B40F09781714B1B78013BDBB203F00103DAB26E4B1A706E4B7F221A7089E1614B93F90030062B5AD1FB79032B09D1694BA9
:405E40001B780133DBB203F00103DAB2654B1A7014E0FB79022B09D1624B1B78013BDBB203F00103DAB25F4B1A7007E0FB79002B04D1504B02221A700123FB770220FEF791
:405E8000B5FB00210120FEF747FC564B1B789AB2544B1B78002B0CBF01230023DBB29BB219461046FEF738FC012300220F214E48FEF746FC4B4B1B78002B0CBF0123002368
:405EC000DBB29AB2474B1B789BB219461046FEF723FC022300220F214448FEF731FC00210120FEF719FC384B01221A7029E1314B93F90030082B20D1FB79012B0CD13C4B83
:405F00001B780133DBB203F00103DAB2384B1A70334B7F221A7014E1FB79002B40F01181334B1B78013BDBB203F00103DAB2304B1A702B4B7F221A7003E11E4B93F9003072
:405F4000092B40F0FE80FB79012B17D1294B1B78002B09D1284B1B780133DBB203F00103DAB2254B1A7064E0244B1B780133DBB203F00103DAB2214B1A705AE0FB79002B0E
:405F80003ED11C4B1B78002B09D11B4B1B78013BDBB203F00103DAB2174B1A7049E0174B1B78013BDBB203F00103DAB2134B1A703FE000BFD8D1FF1FE0A50300ECA503008F
:405FC000FCA5030010A603005683FF1FC683FF1F34C9FF1F4497FF1FC881FF1FC383FF1FC183FF1FD882FF1F68A5030078A50300C483FF1FC583FF1FD482FF1FD582FF1F49
:40600000FB79032B09D1AB4B1B780133DBB203F00103DAB2A74B1A700BE0FB79022B08D1A44B1B78013BDBB203F00103DAB2A14B1A7000210120FEF76FFB002300220A21E1
:406040009D48FEF77DFB9B4B1B78002B0CBF01230023DBB29BB2019310230093252300224C219648FDF710FE924B1B789AB2914B1B78002B0CBF01230023DBB29BB219468C
:406080001046FEF749FB8E4B1B78002B08D04F218A48FEF7ABF84E218848FEF7A7F80BE04F218648FEF7A2F846218448FEF79EF846218248FEF79AF800210120FEF72CFBA9
:4060C000012300220A217F48FEF73AFB794B1B789BB2019310230093252310224C217748FDF7D2FD734B1B78002B0CBF01230023DBB29AB26F4B1B789BB219461046FEF72C
:406100000BFB714B1B78002B08D04F216B48FEF76DF84E216948FEF769F80BE04F216748FEF764F846216548FEF760F846216348FEF75CF8654B01221A7002E000BF00E01F
:4061400000BFFB7F012B44D140218020FEF7ACFA0220FEF74BFA0023BB612CE05C4B93F901301A46BB699A4214D101210020FEF7D3FA584ABB6952F82300BB69DBB20022AF
:406180000F21FEF7DDFABB69DBB219460020FEF71DFB0DE000210120FEF7BEFA4D4ABB6952F82300BB69DBB200220F21FEF7C8FABB690133BB61484B1B781A46BB699A42EE
:4061C000CCDC00210120FEF7A7FA404B01221A70C9E0FB7F022B44D140218020FEF764FA0220FEF703FA00237B612CE0384B93F903301A467B699A4214D101210020FEF791
:406200008BFA364A7B6952F823007B69DBB200220F21FEF795FA7B69DBB219460020FEF7D5FA0DE000210120FEF776FA2B4A7B6952F823007B69DBB200220F21FEF780FA81
:406240007B6901337B61264B1B781A467B699A42CCDC00210120FEF75FFA1C4B01221A7081E0FB7F032B7ED140218020FEF71CFA0220FEF7BBF90023FB740023FB6055E046
:40628000134B93F905301A46FB689A422CD101210020FEF741FA134AFB6852F82300002300220F21FEF74CFA00210020FEF78EFA39E000BFC583FF1FC8A50300ACC9FF1FD5
:4062C000D482FF1FD4A50300D582FF1F5683FF1FD8D1FF1F88A40300C581FF1F5CA40300C681FF1FF4A40300214B93F905301A46FB689A4217DA00210120FEF70DFAFB6887
:40630000DAB21B4B93F90530DBB2D31AFB74FB7C032B08D8174AFB6852F82300FB7C00220F21FEF70DFAFB680133FB60124B1B781A46FB689A42A3DCFB7C0133FB7400210B
:406340000120FEF7E9F908E0FB7C00220F210B48FEF7F6F9FB7C0133FB74FB7C032BF3D9074B01221A7000BF2037BD4680BD00BFD8D1FF1FF4A40300C781FF1F20A603000D
:406380005683FF1F80B500AF204B1B78002B38D11F4B1B78002B03D11D4B06221A7005E01B4B1B78013BDAB2194B1A70194B1B781A46174B1978184B9954184B00221A707D
:4063C000154B1B785B01DAB2134B5B789B00DBB21344DAB20F4B1B781344DBB25AB20F4B1B785BB213435BB2DAB20C4B1A700B4B1B7840F2FE71184606F09EFA00F05AFA25
:4064000002E00020FFF7B0F900BF80BD5A83FF1F0883FF1F5883FF1FD480FF1F5983FF1F80B500AF204B1B78002B37D11F4B1B780133DAB21D4B1A701C4B1B78062B02D9EC
:406440001A4B00221A701A4B1B781A46174B1978184B9954184B00221A70164B1B785B01DAB2144B5B789B00DBB21344DAB2104B1B781344DBB25AB20F4B1B785BB213431A
:406480005BB2DAB20C4B1A700B4B1B7840F2FE71184606F051FA00F00DFA02E00120FFF763F900BF80BD00BF5A83FF1F0883FF1F5883FF1FD480FF1F5983FF1F80B500AF45
:4064C0000F4B1B78002B16D10E4B1B78013BDAB20C4B1A700B4B1B7803F03F03DAB2094B1A70084B1B7840F2F271184606F024FA00F0E0F902E00220FFF736F900BF80BDA5
:406500005A83FF1F4A83FF1F80B500AF0F4B1B78002B16D10E4B1B780133DAB20C4B1A700B4B1B7803F03F03DAB2094B1A70084B1B7840F2F271184606F0FEF900F0BAF914
:4065400002E00320FFF710F900BF80BD5A83FF1F4A83FF1F80B582B000AF40218020FEF7A3F80220FEF742F801210020FEF7D4F8002301220B211B48FEF7E2F8012301224F
:406580000F211948FEF7DCF8022301220A211748FEF7D6F8032301220F211548FEF7D0F8144B01221A7000210120FEF7B5F800237B600DE0104A7B6840F6FF7122F813105E
:4065C0000E4A7B68002122F813107B6801337B607B68092BEEDD0A4B01221A7000BF0837BD4680BD30A603003CA603004CA6030058A603005683FF1FF080FF1F0481FF1F12
:406600005B83FF1F80B584B000AF4E4B00221A700023FB6019E04C4AFB6832F8133019464A4AFB6832F813301433994205DD484AFB68134401221A7004E0454AFB68134437
:4066400000221A70FB680133FB60FB68092BE2DD00237B8100237B600EE03D4A7B6813441B781A467B6802FA03F39AB27B8913447B817B6801337B607B68092BEDDD7B8918
:406680001B0A9BB2DBB240F2FB71184606F054F97B89DBB240F2FC71184606F04DF9F9F74FFD00233B6045E0284A3B6832F813301B0A9BB2DAB23B689BB29B009BB203F266
:4066C0009A739BB21946104606F036F91F4A3B6832F81330DAB23B689BB29B009BB203F29B739BB21946104606F026F9194A3B6832F813301B0A9BB2DAB23B6803F2E7136C
:406700009BB29B009BB21946104606F015F9114A3B6832F81330DAB23B689BB29B009BB203F29D739BB21946104606F005F93B6801333B603B68092BB6DD00BF1037BD46BC
:4067400080BD00BF5B83FF1F68A2FF1FF080FF1F4C83FF1F0481FF1F80B500AF40218020FDF7A2FF0220FDF741FF01210020FDF7D3FF194B00221A70002301220B21174822
:40678000FDF7DEFF012301220F211548FDF7D8FF0223012205211348FDF7D2FF0E4B1B781A46114B9B5C1846022328220221FEF75BF8032301220F210C48FDF7C1FF0C4B2C
:4067C00001221A7000210120FDF7A6FF094B01221A7000BF80BD00BFC683FF1F30A6030068A6030078A60300C881FF1F58A603005683FF1F5C83FF1F80B582B000AF2B4BFB
:4068000000221A7000237B6047E0294A7B6832F813301B0A9BB2DAB27B689BB29B009BB203F2C2739BB21946104606F085F8204A7B6832F81330DAB27B689BB29B009BB2B1
:4068400003F2C3739BB21946104606F075F8184A7B680C3332F813301B0A9BB2DAB27B6803F2F1139BB29B009BB21946104606F063F80F4A7B680C3332F81330DAB27B682B
:406880009BB29B009BB203F2C5739BB21946104606F052F87B6801337B607B680B2BB4DDFEF7AEFE00BF0837BD4680BD5C83FF1F4497FF1F90B585B002AF00237B60002377
:4068C0003B6017E03D4B1B7818463D493B681A46D200D21A53001A460346DB001B1A1B0113440B441B78FF2B01D101237B603B6801333B603B68072BE4DD7B68002B58D1AB
:4069000040218020FDF7D0FE00210120FDF704FF0020FDF76BFE294B1B781846002300220221FDF7A1FF254B1B781A461346DB009B1A5B00234A9818012300220C21FDF752
:40694000FFFE012300938023282200211E48FDF711F91E4B1B781846032300220121FDF783FFFDF79DFF0246032301211848FDF7E7FE164B1B781A461346DB009B1A5B00C6
:40698000144A9C18FDF78CFF024603230A212046FDF7D6FE104B01221A70084B1B781A460E4B012199540E4B00221A700D4B01221A7000BF0C37BD4690BD00BF4A83FF1FC3
:4069C000F4AAFF1F5C93FF1FACC9FF1F0883FF1F80A60300FCC6FF1F5683FF1FDC97FF1F2483FF1F5783FF1F80B582B000AF786039603A680021786808F0DBFB00BF08374E
:406A0000BD4680BD80B584B000AFF860B9607A607A68B968F86808F0C1FB00BF1037BD4680BD00BF80B483B000AF0346FB71FEE780B582B000AF3F4B04221A803E4B1822C4
:406A40001A703E4B07221A803D4B18221A703D4B07221A803C4B18221A703C4B17221A803B4B18221A703B4B47221A803A4B18221A703A4B4FF6FF721A80394B19221A70CA
:406A8000384B06221A70384B384A1278D2B21A70374B52221A70374B40F21A721A80364B42F251221A800023FB7019237B6013E0FB785B00DAB2314B1B78DBB203F0010363
:406AC000DBB21343DBB203F00303FB70782006F04BFA7B68013B7B607B68002B02D0FB78032BE5D17B68002B02D10320FFF79AFF234B4FF480721A80214B07221A70214B63
:406B000000221A70204B48221A701D4B00221A701E4B00221A701E4B02221A701D4A1D4B1B78DBB243F03F03DBB2137000BF0837BD4680BD80400040824000408440004052
:406B400086400040884000408A4000408C4000408E4000409040004092400040944000409640004000430040A14600400F0100490042004022420040204200402542004025
:406B80000440004006400040084000400940004001400040A243004080B582B000AF1F4B1B78FB711E4B1B78BB711E4B1B787B711D4AFB7903F00703DBB213701B4AFB79C4
:406BC0001B09DBB21370164ABB7943F00303DBB21370144A7B7943F00303DBB21370144B0F221A70134B40221A70134B40221A70124BF0221A70124B20221A700A2001F0FE
:406C000071FC084A7B791370054ABB7913700D4B66221A7000BF0837BD4680BDCF010049F8460040F94600406E5800406F5800400D5100400159004003590040205B0040BE
:406C4000235B00407658004080B586B000AF72B6614B61221A70FFF7EBFE0023FB7513E0FA7D13465B0013445B005C4A13443B613B691A683B699B889BB219461046FFF78D
:406C8000B3FEFB7D0133FB75FB7D012BE8D90023FB751CE0FA7D13469B0013445B00504A1344FB60FB681B68BB60FB685B687B60FB681A7A5B7A1B0213437B807B881A460B
:406CC0007968B868FFF79EFEFB7D0133FB75FB7D572BDFD9042243494348FFF793FE042242494348FFF78EFE04214248FFF77CFE04214148FFF778FE042240494048FFF74B
:406D000081FE04223F494048FFF77CFE3F4B404A1A60404B404A1A60404A404B1B78DBB243F00203DBB213703D4A3D4B1B78DBB243F00203DBB213703A4A3A4B1B78DBB2F4
:406D400043F04003DBB21370374A374B1B78DBB243F01003DBB21370082234493448FFF751FE082233493448FFF74CFE0A2233493348FFF747FE0A2232493348FFF742FE94
:406D80000A2232493248FFF73DFE082231493248FFF738FE0A2231493148FFF733FE0A2230493148FFF72EFE082230493048FFF729FE304A2F4B1B78DBB243F00803DBB29A
:406DC0001370FFF7E9FE0E2216492B48FFF71AFE00BF1837BD4680BD0048004084A6030090A603009C24004800760040A0240048087600401076004018760040A4240048BB
:406E000020760040A824004828760040D8060140040400A4D8140140040424E40350014013500140A0430040C2430040402400480251004048240048C251004050240048E0
:406E4000F05100405C24004810510040682400482051004074240048325100407C240048405100408824004850510040942400486251004022430040B043004080B500AFC3
:406E800008F060F903461B680C2B00D1FEE7FEE780B584B000AF7860104B1A687B6813441A460F4BD31AB3F5006F09DC0B4B1B68FB600A4B1A687B681344084A136007E048
:406EC00008F040F902460C2313604FF0FF33FB60FB6818461037BD4680BD00BFD481FF1F70D3FF1F80B586B000AF224B7B61224B3B61204B7B6135E03B691B68FB603B69E2
:406F00005B68BB603B699B683B6000237B600CE0FB681A68BB681A60BB680433BB60FB680433FB607B6804337B607A683B689A42EED13B69DB683B6000237B6008E0BB68BB
:406F400000221A60BB680433BB607B6804337B607A683B689A42F2D13B6910333B617B69013B7B617B69002BC6D108F0F1F8F9F71FFBFEE7010000006CAD030080B582B06E
:406F800000AF194B194A1A60194A194B1B6843F40073136000237B600FE07B68032B04D8144A7B6852F8233000E0134B13497A6841F822307B6801337B607B682F2BECD9C7
:406FC0000F4B1B78DAB20F4B1A700F4B0B4A1A60FFF73AFE00F070FE0C4B00221A6000BF0837BD4680BD00BF0CED00E00004FA0514ED00E0000000007D6E00000080FF1F49
:40700000BC760040C480FF1F08ED00E0C080FF1F80B584B000AF786039600123FB733B68002B5FD07B68002B5CD07B68DB68002B58D07B685B680A2B54D87B681B68002BE6
:4070400050D0786800F066FC0346FB73FB7B002B48D17B681A683B68DA607B685A683B681A617B681A7A3B681A757B685A7A3B685A757B68DA683B689A617B681B68DA096A
:407080007B681B6803F07F03002B01D0012300E000231A443B685A603B685B687A68526802FB03F31A027B68DB681A443B681A603B6808333968184600F046FB3B689B68B1
:4070C0001B68002B0ED13B681B7D002B0AD0386800F072FD0346FB733B6808333968184600F032FBFB7B18461037BD4680BD00BF80B59AB002AFF860B9607A603B600123BF
:4071000087F85F300023FB640023BB64BB687B647B68002B00F06B81FA687B681A443B68DB689A4200F26381BB68002B00F05F81FB683B647B68FB633B689B681B687B63EE
:407140000023BB633A6CFB6B1344013BDA093B6CDB09D31A01333B633B689A683B689B69D21A3B685B681B02B2FBF3F33A68526802FB03F31A023B689B691344FB620023CB
:40718000BB6518E0BB6DDA013B6C9A4208D8BB6D0133DB015A1E3B6C9A4201D3012300E00023002B04D0BB6DBB64BB6CFB6407E0BB6D0133BB653B685A68BB6D9A42E1D8D2
:4071C0003B689A68FB6AD31A1B0ABB623B681B69012B12D93A6BBB6C1344013B7B62BA6CBB6A9A4207D87A6ABB6A9A4201D9012302E0002300E00123BB630023BB6563E046
:40720000FB6C1A02FB6A13443B653B6C03F07F0380333B62BB6D5A1C3B6B9A4206D23B6C03F07F03C3F180037B6501E0FB6B7B65BB6B002B17D0FA6CBB6A9A4213D93B6883
