:400000000080002011000000E13B0000E13B000080B500AF024A034B1B68136003F014FEBC760040FA46004001000000002000400100000000200140010000000048004020
:400040000100000000480140010000000100000008000223000008760800032300001076080004230000287608000523000030760500062300002070050007230000307065
:4000800005000823000060700500FE23000070701900FE220000C8498000FE220000004507000C230000005208000D230000004507000E230000185207000F2300003052A9
:4000C00007001023000078520800112300007845080012230000205B20001323000070642000FE230000706508001523000000518000162300000000800017230000800087
:400100008000182300000002800019230000800280001A230000000480001B230000800480001C230000000680001D230000800680001E230000000880001F2300008008A3
:40014000800020230000000A800021230000800A800022230000000C800023230000800C800024230000000E800025230000800E80002623000000148000272300008014DB
:400180008000282300000016800029230000801680002A230000001880002B230000801880002C230000001A80002D230000801A10002E230000105010002F2300000050EB
:4001C000800030230000004D800031230000804D800032230000004C800033230000804C8000342300000047800035230000804780003623000000468000372300008046FF
:400200008000382300008045800039230000004480003A230000804480003B230000001B80003C230000801B80003D230000001580003E230000801580003F230000001984
:400240008000402300008019800041230000001780004223000080178000432300000009800044230000800980004523000000078000462300008007800047230000000BD8
:40028000800048230000800B800049230000000580004A230000800580004B230000000D80004C230000800D80004D230000000380004E230000800380004F230000000F86
:4002C000800050230000800F8000512300000001800052230000800180005323000000498000542300008049800055230000004880005623000080488000572300000043D4
:400300008000582300008043800059230000004280005A230000804280005B230000004180005C230000804180005D23000000408000FE230000804010B5054C237833B9C5
:40034000044B13B10448AFF300800123237010BD2082FF1F000000008CD70000084B10B51BB108490848AFF300800848036803B910BD074B002BFBD0BDE81040184700BF0F
:40038000000000002482FF1F8CD70000C880FF1F0000000080B500AF224B1B78DBB2002B0CBF01230023DBB21A461E4B1A7006F0AFFA1D4B1B78184604F0A4FB194B1B78A0
:4003C000DBB21A46194B985C0223FE221A2104F0D3FC144B1B78DBB21A46144B985C114B1B78DBB21A461A2303FB02F3104A13449BB21A4646F2574104F0FEFC0A4B1A7834
:40040000084B1B78DBB21946084B5B5C1946104604F016FC044B1B780121184604F02CFB00BF80BD5882FF1FACCAFF1F8C83FF1FC0CAFF1F80B500AF214B1B78DBB2002BB0
:400440000CBF01230023DBB21A461D4B1A7006F019FB1C4B1B78184604F054FB184B1B78DBB21A46184B985C0623FE22082104F083FC134B1B78DBB21A46134B985C104B3C
:400480001B78DBB2DB00114A13449BB21A4646F25B5104F0B1FC0B4B1A78094B1B78DBB21946094B5B5C1946104604F0C9FB054B1B780121184604F0DFFA00BF80BD00BF3F
:4004C0005982FF1F00C8FF1FA0CAFF1F40CCFF1F80B500AF06F0C6FC08F0B4FE00F002F800BF80BD80B500AF164B02221649002003F0B0FC03461A46144B1A70124B1B7836
:40050000DBB2012B0CD1124B00221A700D4B02220F49002003F024FE0E4B01221A700EE00B4B01221A70074B02220949002003F017FE06F02DFE05F0F9FA04F053FE00BF1F
:4005400080BD00BFD0D6FF1F7082FF1F20CBFF1F7482FF1F4082FF1F80B582B000AF7860134978680BF042FB0346002B02D04FF0000319E00F4978680BF04CFB0346002BDD
:4005800004D00C48FFF7E8FF03460DE00A4978680BF084F90346184609F04CFA0346074918460BF07BF9034618460837BD4680BD0080BBC40060BB4420986C3D13D00241FE
:4005C00080B582B000AF78604FF0000178680BF021FB0346002B0ED0094978680BF05EF90346184609F098FA0346064918460BF055F9034600E0044B18460837BD4680BD3A
:40060000D27EFA3DAC7F8A410080BBC4B0B584B000AFF860B9607A603B603968386A0BF033F803461C46B968F8680BF02DF803461D46B96878680BF027F80346194628467E
:400640000BF0E0F90346194620460BF027F90346396818460BF01AF8034618461037BD46B0BD00BF90B59BB002AF62B609F07AF80023FB656EE03F4AFB6D32F813301846BA
:400680000BF0B4F804463C4AFB6D32F8133018460BF0ACF80346194620460AF0F5FF03463B63354AFB6D32F8133018460BF0A2F804463249386B0BF0F1F80346194620466D
:4006C0000AF0E4FF034618460BF0EAFA034699B2294AFB6D22F81310264AFB6D32F8133018460BF087F804462449386B0BF0D6F80346194620460AF0C7FF034618460BF03B
:40070000CFFA034699B21B4AFB6D22F81310194AFB6D32F8133018460BF068F80446164AFB6D32F8133018460BF060F80346194620460AF0A9FF03463B63396B10480BF0A3
:4007400061F9034619460F4AFB6D42F82310FB6D0133FB65FB6D092B8DDD0023BB65A1E0BA6D13465B0013441B01FB6200237B6591E000BFFC80FF1FE880FF1FCDCCCC3DE3
:4007800000F07F4510C7FF1F7B6D9B00BB62BB6A9AB2FB6A9BB213449BB2184609F072F803463B72BB6A9AB2FB6A9BB213449BB201339BB2184609F065F803467B72BB6A1B
:4007C0009AB2FB6A9BB213449BB202339BB2184609F058F80346BB72BB6A9AB2FB6A9BB213449BB203339BB2184609F04BF80346FB72B968B948BA6D13465B0013449B002F
:400800007A6D134440F82310BB6A9AB2FB6A9BB213449BB203F504739BB2184609F032F803463B72BB6A9AB2FB6A9BB213449BB203F211239BB2184609F024F803467B722F
:40084000BB6A9AB2FB6A9BB213449BB203F212239BB2184609F016F80346BB72BB6A9AB2FB6A9BB213449BB203F213239BB2184609F008F80346FB72B9689848BA6D134692
:400880005B0013449B007A6D1344843340F823107B6D01337B657B6D0B2B7FF775AFBB6D0133BB65BB6D0A2B7FF75AAF06F052F9002008F0F5FD012008F010FE002008F0F5
:4008C0002BFE002008F044FE05F014F8844B184608F08AFC03461A46824B1A70002387F8273005F00BF9012006F034FE7E4806F06BFA05F0C9FD05F0DFFD06F04BFE034659
:40090000002B01D1FFF7EEFD642004F07BFC774B40221A7000220121702001F0E3F803461A46734B1A6002F0EBFB05F0C3FF04F0E1FF06F079F801F051F86E4808F044FDC8
:400940006D4808F0F3FC6D4BFE2283F848206B4BFD2283F849206A4B00221A70684B1B78DBB21A46674B13F81220674B1B789A4214D0634B1B78DBB21A46624B13F81230B7
:400980001A4601239340DAB2584B1A7000220121702001F0A7F8034687F82630584B1B78DBB21A46574B13F81220574B1A700A2004F04AFC524B1B78DBB21A46514B13F84F
:4009C0001230052B15D14E4B1B78DBB24D4A5B0013445B781A4601239340DAB2434B1A7000220121712001F07DF803461A46404B1A600A2004F028FC414B1B78DBB2092BC4
:400A000033D83A4B0E221A7002220121362001F069F803461A46364B1A6001220221362001F0B0F803461A46314B1A60344B1B78DBB21A46354B1B78DBB29BB21B0299B2B2
:400A4000334B23F81210314B5B78D8B22C4B1B78DBB219461A462E4B33F8122083B213449AB22B4B23F81120A9E0254B1B78DBB20A2B1ED11D4B00221A70002202214F2017
:400A800001F080F803461A46194B1A601F4B1B78DBB29BB21B029AB21E4B1A801B4B5B78DBB29AB21B4B1B8813449AB2194B1A8085E0194B1B68002B03D1002002F09AFB55
:400AC00071E0154B1B68012B2AD1144B1B68184600230022022102F0FDFB64E01084FF1F00D8000020CBFF1FD104000028CBFF1F08CDFF1F9503000035040000B0CCFF1FEE
:400B00007D82FF1FD080FF1F4481FF1F58C6FF1FE8C9FF1F1281FF1F9082FF1F8482FF1FA14B1B68022B08D102F0F0FB0246002301219E4802F082FB35E09B4B1B68032B57
:400B40000ED19B4B1B689B4AD35CDBB21C4602F0DDFB024600230321204602F0BBFB22E0914B1B68042B08D102F0D0FB024600230521914802F062FB15E08B4B1B68052B66
:400B80000BD18E4B1B781C4602F0C0FB024600230221204602F09EFB05E0834B1B68062B01D102F00FFB804B1B6801337E4A13607D4B1B68062B02DD7B4B00221A60804BE5
:400BC0001B78DBB2092B77D87D4B1B78DBB21A467C4B33F812207A4B1B78DBB219467A4B33F81130D31A9BB2BB84B7F92430002B1CDD734B1B78DBB21C46B7F9243018462E
:400C00000AF0F8FD6E4B1B78DBB21A466F4B53F8223019460AF042FE034618460BF040F803469AB26A4B23F8142007E0644B1B78DBB21A46664B002123F81210604B1B78C6
:400C4000DBB21A46624B33F81230B3F5805F08D35B4B1B78DBB21A465D4B40F6FF7123F81210574B1B78564B1B78554B1B78DBB21C46534B1B78DBB21A46554B33F81230A4
:400C800018460AF0B3FD0346524918460AF006FE03461A46504B43F82420494B1B78DBB21A46474B1B78DBB21946494B33F811104A4B23F8121045E0494B1B8818460AF09E
:400CC00095FD0346474918460AF0E8FD034618460AF0C0FF03461AB2434B1A80424BB3F90030002B03DA404B00221A8009E03E4BB3F90030B3F5805F03DB3B4B40F6FF7217
:400D00001A80394BB3F90020384BB3F900309A4213D0354BB3F900307B847B8CDB099BB200221946152001F0F7F87B8C03F07F0300221946162001F0EFF82B4BB3F9002035
:400D40002A4B1A801E4B1B78DBB20133DAB21C4B1A701B4B1B78DBB20B2B02D9184B00221A70234B1B78DBB2002B0CBF01230023DBB2204ADB0013449B79DBB2FE2B40F096
:400D800065811B4B1B78DBB2002B0CBF01230023DBB2184ADB001344DB79DBB2FD2B40F0558100233B654DE19082FF1F00DC00008482FF1F0084FF1F04DC00008C82FF1F8B
:400DC0007D82FF1FE8C9FF1FE880FF1F10C7FF1FA483FF1F010880399482FF1F9083FF1F1281FF1FC5F1803FAECAFF1F8A83FF1F5982FF1F40CCFF1FA84B1B78DBB2002BD8
:400E00000CBF01230023DBB21A463B6D5B00A449D2000A4413441B78DBB29BB21B029AB29E4B1B78DBB2002B0CBF01230023DBB219463B6D5B0001339948C90001440B44CF
:400E40001B78DBB29BB2134499B2964A3B6D22F81310944A3B6D32F813309AB292493B6D31F813309BB29A4200F0E0808D4A3B6D32F813309BB24FF6FF72934211D0894A7F
:400E80003B6D32F813309BB218460AF0B3FC874A3B6D52F8233019460AF0BCFE0346002B06D0834A3B6D4FF07E5142F82310AEE07C4A3B6D32F813309BB218460AF09AFCC2
:400EC0007A4A3B6D023352F8233019460AF098FE0346002B32D0734A3B6D32F813309BB218460AF087FC714A3B6D52F8233019460AF07CFE0346002B20D06A4A3B6D32F898
:400F000013309BB218460AF071FC0446674A3B6D52F82310654A3B6D023352F82320654B1868644B5B68009303462046FFF76EFB01465F4A3B6D42F8231068E0594A3B6D48
:400F400032F813309BB218460AF054FC574A3B6D043352F8233019460AF052FE0346002B34D0504A3B6D32F813309BB218460AF041FC4E4A3B6D023352F8233019460AF0D5
:400F80002BFE0346002B21D0464A3B6D32F813309BB218460AF02AFC0446444A3B6D023352F82310414A3B6D043352F82320414B5868404B9B68009303462046FFF726FBD7
:400FC00001463B4A3B6D42F8231020E0354A3B6D32F813309BB218460AF008FC0446334A3B6D043352F82310304A3B6D063352F82320304B98682F4BDB680093034620464E
:40100000FFF704FB01462A4A3B6D42F82310284A3B6D52F8233019464FF07E500AF0F2FC03461946244A3B6D42F823101D4A3B6D32F8133099B21C4A3B6D22F813103B6DFB
:4010400001333B653B6D012B7FF7D6AE1B4B1B78DBB2002B0CBF01230023DBB21946184A1A2303FB01F313441B78DBB2FE2B79D1124B1B78DBB2002B0CBF01230023DBB25D
:4010800019460F4A1A2303FB01F3134419331B78DBB2FD2B66D10023FB6460E05982FF1F40CCFF1F04CDFF1F24CBFF1F1481FF1F68C7FF1F3481FF1F38C7FF1F5882FF1F5E
:4010C000C0CAFF1FB24B1B78DBB2002B0CBF01230023DBB21846FB6C5B000133AD491A2202FB00F20A4413441B78DBB29BB2DB019AB2A74B1B78DBB2002B0CBF0123002363
:40110000DBB21C46FB6C01335B00A2481A2101FB04F101440B441B78DBB29BB2134499B29D4AFB6C22F813109B4AFB6C32F813309AB29A49FB6C31F813309BB29A4202D0D0
:40114000F86C00F02FFE944AFB6C32F8133099B2924AFB6C22F81310FB6C0133FB64FB6C0B2BAFDD05F090F80346002B0FD18C4B00221A60012008F093F9002008F0AEF9A6
:40118000002008F0C9F9002008F0E2F93DE005F08BF80346002B0FD1814B01221A60002008F07EF9012008F099F9002008F0B4F9002008F0CDF928E005F086F80346002B44
:4011C0000FD1774B02221A60002008F069F9002008F084F9012008F09FF9002008F0B8F913E005F081F80346002B0ED16C4B03221A60002008F054F9002008F06FF9002017
:4012000008F08AF9012008F0A3F908F063FA0346002B0BD1634B00221A70634B00221A60002008F0AFF9012008F0E8F908F062FA0346002B0BD15B4B01221A705A4B0122BC
:401240001A60012008F09EF9002008F0D7F908F061FA0346002B16D1544B1B78002B12D0534B1B78002B0CBF01230023DBB21A464F4B1A704E4B1B78184608F0F3F84B4BED
:4012800000221A7007E008F045FA0346002B02D0464B01221A7008F0CDF90346002B12D1444B1B78002B0ED0434B1B68013B424A1360414B1B6803F00F033F4A13603D4BBC
:4012C00000221A7007E008F0B5F90346002B02D0384B01221A7008F0BDF90346002B12D1364B1B78002B0ED0334B1B680133324A1360314B1B6803F00F032F4A13602F4B8F
:4013000000221A7007E008F0A5F90346002B02D02A4B01221A7008F0ADF90346002B14D1274B1B78002B10D0264B1B78013BDAB2244B1A70234B1B7803F00F03DAB2214B52
:401340001A701F4B00221A7007E008F093F90346002B02D01A4B01221A7008F09BF90346002B33D1184B1B78002B2FD0154B1B780133DAB2134B1A70124B1B7803F00F0356
:40138000DAB2104B1A70104B00221A7026E000BF5882FF1FC0CAFF1FF8C6FF1FB883FF1FCC80FF1F7E82FF1FBC82FF1F4581FF1F7F82FF1F8882FF1F8482FF1F8982FF1FBF
:4013C0008A82FF1F8C82FF1F8B82FF1F08F062F90346002B02D0404B01221A7008F0AAF90346002B16D13D4B1B78002B12D03C4B1B78002B0CBF01230023DBB21A46384BB6
:401400001A70374B1B78184608F0DAF8334B00221A7007E008F08EF90346002B02D02F4B01221A702F4B1B682F4A13600023BB644BE0BB6C9BB2184605F044F80346002B1B
:4014400000DA1F335B111BB2D9B2284ABB6C13440A461A70BB6C012B16D0244ABB6C13441B7818460AF0C6F90346194620480AF00BF9034618460AF013FC0346D9B21B4AEC
:40148000BB6C13440A461A70184ABB6C13441A781849BB6C0B441B789A420AD0BB6C03F11100124ABB6C13441B780022194600F033FD0E4ABB6C134419780E4ABB6C1344CB
:4014C0000A461A70BB6C0133BB64BB6C032BB0DD00237B648CE100BF8B82FF1F4681FF1F8082FF1FCC80FF1F5082FF1F7CCAFF1F0000FE4200CDFF1FA64B1A68A6491346B4
:401500005B0113449B007A6C134451F82340A14B1A68A14913465B0113449B007A6C1344303351F823209D4B1B68194610460AF0B5F90346194620460AF0A8F803461C462E
:40154000944B1A68944913465B0113449B007A6C13443C3351F82320904B5B68194610460AF09CF90346194620460AF08FF803461C46884B1A68884913465B0113449B0065
:401580007A6C1344483351F82320844B9B68194610460AF083F90346194620460AF076F803461C467B4B1A687B4913465B0113449B007A6C1344543351F82320774BDB68C1
:4015C000194610460AF06AF90346194620460AF05DF803461C466F4B1A686F4913465B0113449B007A6C1344603351F823206B4B1B69194610460AF051F903461946204699
:401600000AF044F803461C46624B1A68624913465B0113449B007A6C1344783351F823205E4B5B69194610460AF038F90346194620460AF02BF803461C46564B1A685649EF
:4016400013465B0113449B007A6C13446C3351F82320524B9B69194610460AF01FF90346194620460AF012F803461C46494B1A68494913465B0113449B007A6C1344243353
:4016800051F82320454BDB69194610460AF006F903461946204609F0F9FF03461C463D4B1A683D4913465B0113449B007A6C13440C3351F82320394B1B6A194610460AF07B
:4016C000EDF803461946204609F0E0FF03461C46304B1A68304913465B0113449B007A6C1344183351F823202C4B5B6A194610460AF0D4F803461946204609F0C7FF034676
:40170000FB61244B1A68244913465B0113449B007A6C134451F82330BB61B8690AF09AFA01461F4A7B6C42F823101E4B1C68F869FEF712FF0346194620460AF0AFF8034654
:401740001846FEF73DFF7861154A7B6C52F8233018460AF04FF803461946786909F094FF03463B61104938690AF098F803464FF08C41184609F08AFF0346FB600B4A7B6CEC
:4017800052F82330F96818460AF01CFA0346002B19D10DE0BC82FF1F1084FF1F9482FF1F50CCFF1F38C7FF1F0080AA43C8C6FF1FF8680AF075FA03461A467B6C01331946D4
:4017C000104600F0DDFB75497B6CFA6841F823204FF00001F8690AF01DFA0346002B04D06F497B6CFA6941F823207B6C01337B647B6C0B2B7FF780AE07F05CFF0346002B4F
:4018000010D005F0BFF903469800664B1B68654A126865498A5CD1B2C2B20A44D1B2624AD1540FE005F0AEF9034618465D4B1B685C4A12685C498A5CD1B2C2B20A44D1B2E0
:40184000594AD154002005F0AFF9584B1B78DBB2002B01D000F0F6F9554B1B78DBB2002B13D005F097FE0346002B0ED0514B1B88402B05D9504B1B8801339AB24E4B1A8022
:401880004C4B00221A8000F007FA00233B641EE0434A3B6C52F823307B603B6C9B003979464AD1543B6C9B0001337979434AD1543B6C9B000233B979404AD1543B6C9B001B
:4018C0000333F9793D4AD1543B6C01333B643B6C0B2BDDDD3A4B1B789B005AB2394B1B685BB213435AB2384B1B78DB005BB213435AB2364B1B781B015BB213435BB2DAB2C2
:401900002E4B83F830200023FB630AE0FB6B31332F49FA6B0A441178284AD154FB6B0133FB63FB6B032BF1DD2A4BB3F900301B121BB2DAB2214B83F83520264BB3F9003029
:40194000DAB21E4B83F83620234B1A781B4B83F837200023BB630BE0BB6B38331249BA6B0A441278D1B2154AD154BB6B0133BB63BB6B0F2BF0DD00237B6309E00F4A7B6B7F
:4019800013441B78184603F0EFFF7B6B01337B637B6B492BF2DDFEF7E1BF00BFC8C6FF1F80CCFF1F8482FF1F0084FF1F4082FF1F3F82FF1F4682FF1F4882FF1FB0CCFF1F86
:4019C0008082FF1FCC80FF1F7F82FF1F7E82FF1F7CCAFF1FAECAFF1F8C82FF1F80B500AF41F6FF734FF480420121012007F03AFC03461A46334B1A7003F090F903461A4622
:401A0000314B1A7003F08AF903461A462E4B5A702D4B18780223FE221A2103F0ADF92A4B58780223FE221A2103F0A6F9264B1B78264A92B246F25741184603F0DDF9224BAA
:401A40005B78234A92B246F25741184603F0D4F941F6FF734FF480420121012007F034FC03461A461B4B1A7003F058F903461A46194B1A7003F052F903461A46164B5A7056
:401A8000154B18780623FE22082103F075F9124B58780623FE22082103F06EF90E4B1B780E4A92B246F25B51184603F0A5F90A4B5B780B4A92B246F25B51184603F09CF984
:401AC00000BF80BDACCAFF1F8C83FF1FC0CAFF1FDACAFF1F00C8FF1FA0CAFF1F40CCFF1F48CCFF1F80B584B000AF0346FB710B46BB801346BB714CF25033FB6004F0A6FB66
:401B00000346FB72FB7ADBB25BB2002B32DBBB88DAB2BB79F8791A4904F064FA0346FB72FB7ADBB2002B21D104F068FB0346FB72FB68013BFB60FB7ADBB2802B01D100F034
:401B40007BF8FB68002B03D18023FB7200F074F8FB7ADBB203F08203002B0BD1FB7ADBB2002B07D0FB68002BDED103E08023FB7200F062F8FB7ADBB218461037BD4680BD3E
:401B800028CBFF1F80B584B000AF0346FB710B46BB7113467B714CF25033FB6004F056FB0346FB72FB7ADBB25BB2002B37DB7B79BA79F8791D4904F099FA0346FB72FB7A72
:401BC000DBB2002B27D104F019FB0346FB72FB68013BFB60FB7ADBB2802B07D1144B10221A70144B04221A7000F026F8FB68002B03D18023FB7200F01FF8FB7ADBB203F052
:401C00008103002B0BD1FB7ADBB2002B07D0FB68002BD8D103E08023FB7200F00DF8FB7ADBB218461037BD4680BD00BF58C6FF1FD9490040D749004080B400AF00BFBD46AD
:401C400080BC704780B500AF05F0A4FC0346002B05D105F09DFA0E4B00221A7013E00C4B1B78DBB2002B0ED10021002005F006F900BF05F00DFB0346002BFAD006F0D4FFB1
:401C8000034B01221A70034B00221A7000BF80BD3F82FF1F4082FF1F80B500AF05F004FB0346002B10D005F0F3FA0346002B0BD0154B1B78DBB2002B06D005F06BFC0346F1
:401CC000002B01D006F0B0FF05F0E2FA0346002B17D00D4B1B78DBB2002B06D005F05AFC0346002B01D007F01FF8074B1B78DBB2002B06D005F04EFC0346002B01D006F013
:401D0000A5FF00BF80BD00BF3F82FF1F80B586B000AF78607B6823F0004307F10C021146184607F063FE78611A4B3B617969386909F0B4FD03463B611749386909F0A4FCA1
:401D400003463B617969386909F0A8FD03463B611249386909F09AFC03463B617969386909F09CFD03463B610D49386909F08CFC03463B61FB68184609F03CFD0346194616
:401D8000386909F083FC03463B613B6918461837BD4680BDA8A19D3FF5CA8340FBB3C040E092484080B586B000AF7860394A7B6832F813309BB2184609F01CFD03463649FB
:401DC000184609F06BFD03463B613869FFF79EFF03463249184609F061FD03464FF08541184609F05BFD03462D49184609F04EFC0346FB604FF08141F86809F04FFD0346A2
:401E0000184609F027FF03467B617B697F2B01DD7F237B611F4A7B6832F813309BB2002B0AD1204A7B6852F823007B6801331A46002100F03DF828E07B69002B1BDD1A4B1F
:401E40001B685A1E13465B0013449B001946174A7B6852F823300B44BB607B69D9B27B6801331A46B86800F023F80E497B68BA6841F8232009E00B4A7B6852F823007B68BD
:401E800001331A46002100F013F800BF1837BD4680BD00BFF8C6FF1F800080379B209A3E0000FE42C082FF1FCC80FF1F50CCFF1F80B584B000AFF860B9607A607B68DBB2A8
:401EC000703BDAB2114B1A70FB68DAB20F4B5A70BB68DAB20D4B9A700D4B1B78DBB2002B09D005F057FB0346002B04D000220749032006F01FFF074B1B8804339AB2054B25
:401F00001A8000BF1037BD4680BD00BF50C6FF1F3F82FF1F4682FF1F80B584B000AFF860B9607A607B68DBB2503BDAB2114B1A70FB68DAB20F4B5A70BB68DAB20D4B9A7015
:401F40000D4B1B78DBB2002B09D005F023FB0346002B04D000220749032006F0EBFE074B1B8804339AB2054B1A8000BF1037BD4680BD00BF50C6FF1F3F82FF1F4682FF1FB6
:401F800080B582B000AF786039603B68DBB2203BDAB2134B1A707B68DBB203F07F03DAB20F4B5A707B68DB11DAB20D4B9A700D4B1B78DBB2002B09D005F0ECFA0346002B7E
:401FC00004D000220649032006F0B4FE064B1B8804339AB2044B1A8000BF0837BD4680BD50C6FF1F3F82FF1F4682FF1F90B587B000AF8B4B1B78002B30D18A4B01221A70F8
:4020000000237B6116E0884B1B687A699A4209D2834A7B6913441978844A7B6913440A461A7004E0814A7B691344FF221A707B6901337B617B69472BE5D97C4BF02283F84E
:4020400048207A4BF12283F84920794B1B781A46764B9B5CDBB2184603F086FC704B1B78012B40F0D5806E4B9B78312B40F2D0806B4B9B783D2B00F2CB8000233B61684BE4
:402080009B78323BBB60BB689BB21A46520013441B01FB800323FB60B4E000233B603B685F49FA680A441278120713433B603B68FA6801325A498A5C520513433B603B6867
:4020C000FA68023256498A5C920313433B603B68FA68033252498A5CD20113433B603A68FB6804334E49CB5C03F07F0313433B60504B19683868504CBB681A4652001A44D5
:4021000093001A460B465B010B449B001A443B69134444F823003B699BB29B00BB80BB88DAB2FB88DBB21344DAB2424B1B68DBB21B01DBB21344DAB2404B1A703878BA88A4
:40214000FB8813449AB23B4B1B689BB2194649010B441B019BB213449BB2194607F008FB0346DAB2364B1A707878BA88FB8813449AB2304B1B689BB2194649010B441B01EE
:402180009BB213449BB201339BB2194607F0F0FA0346DAB22A4B1A70B878BA88FB8813449AB2244B1B689BB2194649010B441B019BB213449BB202339BB2194607F0D8FA13
:4021C0000346DAB21E4B1A70F878BA88FB8813449AB2184B1B689BB2194649010B441B019BB213449BB203339BB2194607F0C0FA0346DAB2124B1A703B6901333B61FB68E1
:402200000533FB60084B1B68FA689A42FFF445AF0C4B00221A7000BF1C37BD4690BD00BFFCC9FF1FF882FF1FF082FF1F98C7FF1F4182FF1FBC82FF1F1084FF1FF782FF1FDE
:40224000F682FF1FF582FF1F80B584B000AF03463960FB713B681A78344B1A703B685A78324B5A703B689A78304B9A703B68DA782E4BDA702E4B1B78DBB2002B52D005F006
:4022800089F90346002B4DD02A4B1B78002B29D00023FB6023E0FB683A6813441B785BB2002B0BDB244B1B685A1C23490A60FA6839680A441178214AD1540DE0FB683A68B7
:4022C00013441B78F72B07D11A4B00221A701C4B01221A70FFF78AFEFB680133FB60FB68022BD8DD3B681B78F02B1BD1144B1B78002B17D10F4B01221A700F4B00221A60E1
:402300000D4B1B685A1C0C490A603A6851780B4AD154094B1B685A1C07490A603A689178064AD15400BF1037BD4680BD80CAFF1F3F82FF1FF482FF1FF082FF1FFCC9FF1FED
:40234000F582FF1F80B483B000AF78600B467B8013463B807B687A881A807B683A885A807A887B689A803A887B68DA807B6800221A817B6800225A817B6800229A817B68FB
:402380000122DA817B684FF6FF721A827B684FF6FF725A827B6801229A827B680022DA827B6800229A617B6800221A817B680022DA837B6808229A8300BF0C37BD4680BC05
:4023C000704700BF80B58AB000AFF860084611461A4603467B810B463B811346FB80B7F93020B7F90830D31A83EAE372A2EBE372B7F90610B7F90A30CB1A002BB8BF5B4279
:402400009A42CCBF01230023DBB27B84B7F92230002B0BD07B893B843B897B813B8C3B81FB88FB833B8EFB80FB8B3B86B7F90A20B7F906309A420BDD7B89BB83FB887B8183
:40244000BB8BFB803B897B833B8E3B817B8B3B86FA887B89D31A9BB23B83B7F93020B7F90830D31A002BB8BF5B42FB82B7F91830DA0F13445B10FB84B7F90820B7F9303074
:402480009A4202DA0123BB8431E04FF6FF73BB842DE0B7F92230002B08D0BB8EB7F90A20B7F90810F86800F01DF907E0BB8EB7F90820B7F90A10F86800F014F9FA8CFB8A5D
:4024C000D31A9BB2FB84B7F92630002B09DA3A89BB8C13449BB23B81FA8C3B8B13449BB2FB84B7F90A309BB201339BB27B81B7F90A20B7F906309A42CBDD00BF2837BD461D
:4025000080BD00BF80B586B000AFF860084611461A4603467B810B463B811346FB80B7F90A30002BC0F2D780B7F90A30FA689288934280F2D080B7F90830002BC0F2CB80D7
:40254000B7F90830FA68D288934280F2C480F86800F00EFD0346022B14D0032B27D0012B36D17B89FB823B897B81FB8A3B81FB68B3F900309AB27B89D31A9BB2013B9BB24B
:402580007B8125E0FB68B3F900309AB27B89D31A9BB2013B9BB27B81FB68B3F902309AB23B89D31A9BB2013B9BB23B8110E07B89BB823B897B81BB8A3B81FB68B3F90230C9
:4025C0009AB23B89D31A9BB2013B9BB23B8100BFFB88012B04D0022B54D0002B28D07BE0B7F90A20B7F90830002B00DA0733DB1018B20146FB68B3F9003003FB01F31344B6
:40260000B7F90A10FA68B2F9002002FB00F20A4433498A5C51B23A8902F00702012000FA02F252B20A4352B2D1B22D4AD15453E0B7F90A20B7F90830002B00DA0733DB10A1
:4026400018B20146FB68B3F9003003FB01F31344B7F90A10FA68B2F9002002FB00F20A441F498A5C51B23A8902F00702012000FA02F252B2D24352B20A4052B2D1B2184A1F
:40268000D15429E0B7F90A20B7F90830002B00DA0733DB1018B20146FB68B3F9003003FB01F31344B7F90A10FA68B2F9002002FB00F20A440A498A5C51B23A8902F0070239
:4026C000012000FA02F252B24A4052B2D1B2044AD15400BF00E000BF1837BD4680BD00BF84D1FF1F80B584B000AFF860084611461A4603467B810B463B811346FB80FB8806
:40270000B7F90820B7F90A10F868FFF7FBFE00BF1037BD4680BD00BF80B586B002AFF860084611461A4603467B810B463B811346FB80B7F90600B7F90820B7F90A103B8BE6
:4027400000930346F86800F025F800BF1037BD4680BD00BF80B586B002AFF860084611461A4603467B810B463B811346FB80B7F90600B7F90820B7F90A10BB8B0193B7F98A
:40278000183000930346F86800F02AF800BF1037BD4680BD90B587B002AFF860084611461A4603467B810B463B811346FB803A89FB8813449BB2013B9BB21BB2B7F90A4053
:4027C000B7F90800B7F90A103A8C0192009323460246F868FFF7F6FD00BF1437BD4690BD80B588B002AFF860084611461A4603467B810B463B811346FB807B89FB8211E004
:40280000B7F92000B7F90820B7F91610BB8C00930346F868FFF780FFB7F916309BB201339BB2FB82B7F91620B7F90A10B7F906300B449A42E4DB00BF1837BD4680BD00BF54
:4028400090B58FB002AFF860084611461A4603467B810B463B811346FB71FB689B69002B40F02E81B7F90A30FA689288934280F2E981B7F90830FA68D288934280F2E281D9
:40288000B7F90A1097F8482013465B0013445B000B44013B002BC0F2D581B7F9082097F84830DB001344013B002BC0F2CB81FB68DB8A002B05D1FB79AF2B02D9FB79013323
:4028C000FB71002387F82F30BCE0FB689969FA7913469B001A4497F92F3013441A4613465B0013449B000B441B7887F82E30002387F82D309AE097F82E3003F00103002B12
:4029000041D097F84830012B13D197F92F309AB27B8913449BB219B297F92D309AB23B8913449BB21AB2B7F84030F868FFF7DAFE70E097F92F309BB297F8482092B202FB43
:4029400003F39AB27B8913449BB219B297F92D309BB297F8482092B202FB03F39AB23B8913449BB218B297F848301CB297F848301BB2B7F840200192009323460246F868CD
:40298000FFF7E8FE46E0B7F84420B7F840309A4240D097F84830012B13D197F92F309AB27B8913449BB219B297F92D309AB23B8913449BB21AB2B7F84430F868FFF792FEBC
:4029C00028E097F92F309BB297F8482092B202FB03F39AB27B8913449BB219B297F92D309BB297F8482092B202FB03F39AB23B8913449BB218B297F848301CB297F84830E4
:402A00001BB2B7F844200192009323460246F868FFF7A0FE97F92D30DBB20133DBB287F82D3097F82E305B0887F82E3097F92D30072B7FF760AF97F92F30DBB20133DBB2C6
:402A400087F82F3097F92F30042B7FF73EAFB7F84420B7F840309A4200F0F58097F84830012B0DD17B8905339BB219B2B7F90820B7F8443000930823F868FFF74DFEE2E003
:402A800097F848309BB21A46920013449AB27B8913449BB219B297F848301CB297F848309BB2DB009BB21BB2B7F90800B7F844200192009323460246F868FFF74BFEC2E0B9
:402AC000FB689B6908331B78FA79D31AFB71FB79DA00FB689B69043318CB1344FB61FB689B6918CBBB61FB691B887B85FB699B78FB75FB69DB78BB75FB6905331B787B75F9
:402B0000FB6906331B783B75002387F82730002387F826300023BB8400237B8497F84830012B05D997F91530BB8497F914307B84002387F828307EE0002387F8293070E0A5
:402B400097F826305A1C87F8262003F00703002B08D17B8D5A1C7A851A46BB6913441B7887F8273097F92730002B50DA97F84830012B1DD197F915309AB27B8913449AB24E
:402B800097F829309BB213449BB219B297F914309AB23B8913449AB297F828309BB213449BB21AB2B7F84030F868FFF79BFD2EE0B7F9242097F8293013449BB297F84820B4
:402BC00092B202FB03F39AB27B8913449BB219B2B7F9222097F8283013449BB297F8482092B202FB03F39AB23B8913449BB218B297F848301CB297F848301BB2B7F84020FE
:402C00000192009323460246F868FFF7A3FD97F827305B0087F8273097F82930013387F8293097F82920FB7D9A4289D397F82830013387F8283097F82820BB7D9A42FFF464
:402C40007BAF00E000BF3437BD4690BD80B584B000AF78600B467B807B689B8A002B19D07B689B891A46B7F9023013447A68928893420FDB7B6800229A817B685A897B6854
:402C80009B8B7968C98901FB03F39BB213449AB27B685A817B681B8C002B4FD07B689B69002B0AD17B689B8B7A68D28902FB03F39BB2013B9BB2FB8101E00023FB817B686C
:402CC0005A89FB8913449AB27B68DB8B7968C98901FB03F39BB21344BB817B68DB88BA899A422BD3BB89DAB27B68DB88DBB2D31ADBB20133D9B27B681A8A7B685B8A9A4212
:402D000002D07B685B8A00E000231A46786800F0E9F97B6800229A817B68DA88FB89D31A9AB27B68DB8B7968C98901FB03F39BB2D31A9BB2013B9AB27B685A8100BF103781
:402D4000BD4680BDB0B58AB004AF78600B46FB707B689B69002B45D1FB780A2B10D17B685A897B689B8B7968C98901FB03F39BB213449AB27B685A817B6800229A81AAE030
:402D8000FB780D2B00F0A7807B68DB899B009BB21BB219467868FFF759FF7B689B8918B27B685B891CB27B681B8A7A68528A7968C989C9B2FD780291019200932B46224667
:402DC00001467868FFF73CFD7B689A897B68DB89194649000B445B009BB213449AB27B689A8178E0FB780A2B13D17B6800229A817B685A897B68DB89796889690A31097850
:402E000089B201FB03F39BB213449AB27B685A8161E0FB780D2B5ED07B689B691B7AFB75FA78FB7D9A4256D37B689B6909331B78FA789A424FD8FA78FB7DD31ADA007B6803
:402E40009B69043318CB13443B613B699B78FB733B69DB78BB73FB7B002B2DD0BB7B002B2AD03B6905331B785BB2BB817B68DB89B7F90C10FA7B0A4492B202FB03F39BB2EC
:402E80001BB219467868FFF7E1FE7B689B8918B27B685B891CB27B681B8A7A68528A7968C989C9B2FD780291019200932B46224601467868FFF7C4FC7B689A893B69043312
:402EC0001B789BB27968C98901FB03F39BB213449AB27B689A8100BF1837BD46B0BD00BF80B483B000AF78600B467B8013463B807A887B689A813A887B685A8100BF0C37D2
:402F0000BD4680BC704700BF80B483B000AF78607B689B891BB218460C37BD4680BC704780B483B000AF78600B46FB70FB78002B02D0FB789AB200E001227B68DA8100BFAA
:402F40000C37BD4680BC704780B483B000AF78600B467B8013463B807B687A881A827B683A885A8200BF0C37BD4680BC704700BF80B483B000AF78607B681B89DBB21846B1
:402F80000C37BD4680BC704790B486B000AF786039603B68002B0AD07B689B69002B59D17B685B8906339AB27B685A8152E07B689B69002B3ED07B680022DA833B680833BE
:402FC0001B78BB753B6809331B787B75BB7DFB7525E0FA7DBB7DD31ADA003B68043318CB13443B613B6903331B78FB733B6906331B78BB73FA7B97F90E3013447A68D28B87
:40300000934209DDFB7B1AB297F90E301BB213441BB29AB27B68DA83FB7D0133FB75FA7D7B7D9A42D5D93B680A331B789AB27B689A830FE07B689B69002B05D07B685B89D7
:40304000063B9AB27B685A817B6808229A837B680022DA837B683A689A6100BF1837BD4690BC704780B588B000AFF860B9601346FB710023FB6129E0FB795A1EFB69D31ACE
:40308000184608F0B7FB03461946154806F0B8FD0346184608F004FE0346BB61BB69BA68B2FBF3F37B61FB69FA6813447A69D2B23032D2B21A707B69BA6902FB03F31A464F
:4030C000BB689B1ABB60FB690133FB61FA79FB699A42D1DCFB7918462037BD4680BD00BF0000204180B483B000AF78600B46FB7013463B8000BF0C37BD4680BC704700BF8B
:4031000080B582B000AF022000F00AF900237B6007E0134A7B68134400221A707B6801337B607B68B3F5806FF3DB402280210D48FFF708F90C490B48FFF726FF00220121AC
:403140000848FFF701FF01210648FFF7E9FE00F00DF800F031F800BF0837BD4680BD00BF84D1FF1F5CCDFF1FC4CD010080B588B000AF00F02DF83B1D184609F03BF9034608
:403180001A463B1D13440A491A460B461B8813803B1D184609F02EF90346FB61012300220C21044800F04AF800BF2037BD4680BD9CDB0100A0DB010080B500AF00F03CF907
:4031C00000BF80BD80B500AF00F0B0F900BF80BD80B582B002AF00230193402300938023002200210248FFF7FBFA00BFBD4680BD5CCDFF1F80B584B002AF0346FB71FB79F1
:403200009BB203F001039BB21B019BB219B2FB795B08DBB201339BB21B019BB21BB200220192009380230A4600210348FFF7D8FA00BF0837BD4680BD5CCDFF1F90B58BB03A
:4032400002AFF860B9607A60FB707B68BB61FB7803F003031B010C337B61BB691BB27A6912B219461A48FFF73BFE7B6819B2FB789BB21B019BB218B2BB689BB21A465200FA
:4032800013449B009BB21CB2FB7801339BB21B019BB21BB2002201920093234602460C48FFF79EFA0023FB610AE0FB69FA6813441B7819460648FFF745FDFB690133FB610A
:4032C000FA69BB689A42F0DB00BF2437BD4690BD5CCDFF1F80B586B000AFF860B9607A60FB70BB68DBB21A46F9680748FFF7BAFE7861FB787A6879690348FFF79FFF00BF04
:403300001837BD4680BD00BF3CCDFF1F80B500AF0248FFF7F9FD0346184680BD5CCDFF1F80B582B000AF0346FB71354AFB791370AE2000F067F8D52000F064F8802000F0A4
:4033400061F8A82000F05EF83F2000F05BF8D32000F058F8002000F055F8402000F052F88D2000F04FF8FB79012B03D1102000F049F802E0142000F045F8202000F042F8B4
:40338000002000F03FF8A12000F03CF8C82000F039F8DA2000F036F8122000F033F8812000F030F8FB79012B03D19F2000F02AF802E0CF2000F026F8D92000F023F8FB791E
:4033C000012B03D1222000F01DF802E0F12000F019F8DB2000F016F8402000F013F8A42000F010F8A62000F00DF82E2000F00AF8AF2000F007F800BF0837BD4680BD00BFCC
:4034000084D5FF1F80B584B000AF0346FB7100233B7300237B73074B00221A70054AFB795370002202213C20FEF75CFB00BF1037BD4680BD28CBFF1F80B584B000AF00F096
:40344000EFF80020FFF7DEFF1020FFF7DBFF4020FFF7D8FF4023FB718423BB7100237B7102233B71FB79DB08FB71BB79DB08BB7100233B6000237B730023FB7349E0FA7BBF
:403480007B791344DBB2503BDBB21846FFF7BAFF3B7903F00F03DBB21846FFF7B3FF3B791B09DBB243F01003DBB21846FFF7AAFF1C4B40221A700023BB7324E00023BB60A8
:4034C0000EE0BB680133BA79797B01FB02F1BA680A441549895C134AD154BB680133BB60BA79BB689A42ECDC7B7B01337B73BB799BB201339BB2002219463C20FEF7F2FAF8
:40350000BB7B0133BB73BB7B072BD7D9FB7B0133FB73FA7BFB799A42B1D300BF1037BD4680BD00BF28CBFF1F84D1FF1F80B584B000AF00F075F80020FFF764FF1020FFF7DD
:4035400061FF4020FFF75EFF1023FB718423BB7100237B7102233B71FB79DB08FB71BB79DB08BB7100233B6000237B730023FB7349E0FA7B7B791344DBB2503BDBB2184694
:40358000FFF740FF3B7903F00F03DBB21846FFF739FF3B791B09DBB243F01003DBB21846FFF730FF1C4B40221A700023BB7324E00023BB600EE0BB680133BA79797B01FBFB
:4035C00002F1BA680A441549895C134AD154BB680133BB60BA79BB689A42ECDC7B7B01337B73BB799BB201339BB2002219463C20FEF778FABB7B0133BB73BB7B072BD7D929
:40360000FB7B0133FB73FA7BFB799A42B1D300BF1037BD4680BD00BF28CBFF1F84D1FF1F80B500AF0021002000F002F800BF80BD80B582B000AF03460A46FB711346BB71F5
:4036400097F90630002B01DA7F23BB71FB79072B01D90723FB712120FFF7D4FEBB791846FFF7D0FE7F20FFF7CDFE2220FFF7CAFEFB791846FFF7C6FE0320FFF7C3FE00BFB6
:403680000837BD4680BD00BF80B584B000AFF860B9607A607A68B968F86808F04DFB00BF1037BD4680BD00BF80B483B000AF0346FB71FEE780B582B000AF454B00221A60CF
:4036C000444B10221A70444B01221A70434B00221A70434B4FF43A721A80424B01221A70414B03221A70414B414A92B21A80414B47F608021A80404B00221A803F4B4FF407
:4037000080421A803E4B09221A703E4B0A221A703D4B0B221A703D4B14221A70BFF35F8F3B4B01221A70BFF35F8F00BF2C4B1B889BB2002BFAD100237B600DE07B68DA00F2
:40374000344B13441946344A7B6852F823309BB20B807B6801337B607B685C2BEED9BFF35F8F2B4B01221A70BFF35F8F00BF2B4B1B78DBB203F00103002BF8D100BF284B46
:403780001B78DBB203F00103002BF8D100BF254B1B78DBB203F00103002BF8D100BF224B1B78DBB203F00103002BF8D100BF1F4B1B78DBB203F00103002BF8D106224FF0F2
:4037C00090411B48FFF760FF00BF0837BD4680BD0083FF1F0076004010700040197000400078004002780040037800400478004050000000067800400476004006760040B5
:4038000029700040397000406970004079700040147000400C780040E4DB010018700040287000403870004068700040787000401051014080B582B000AF3C4B03221A8076
:403840003B4B18221A703B4B01221A803A4B19221A703A4B13221A80394B18221A70394B18221A80384B18221A70384B47221A80374B18221A70374B06221A70364B374A34
:403880001278D2B21A70364B52221A70354B40F21A721A80344B42F251221A800023FB7019237B6013E0FB785B00DAB22F4B1B78DBB203F00103DBB21343DBB203F003036D
:4038C000FB70782005F0FCFF7B68013B7B607B68002B02D0FB78032BE5D17B68002B02D10320FFF7E1FE224B4FF480721A80204B07221A701F4B00221A701F4B48221A70FD
:403900001B4B00221A701D4B00221A701C4B02221A701C4A1B4B1B78DBB243F01F03DBB2137000BF0837BD4680BD00BF8040004082400040844000408640004088400040EA
:403940008A4000408C4000408E400040904000409240004000430040A14600400F010049004200402242004020420040254200400440004006400040084000400940004074
:4039800001400040A243004080B582B000AF1F4B1B78FB711E4B1B78BB711E4B1B787B711D4AFB7903F00703DBB213701B4AFB791B09DBB21370164ABB7943F00303DBB283
:4039C0001370144A7B7943F00303DBB21370144B0F221A70134B40221A70134B40221A70124BF0221A70124B20221A700A2001F02BFC084A7B791370054ABB7913700D4B70
:403A000066221A7000BF0837BD4680BDCF010049F8460040F94600406E5800406F5800400D5100400159004003590040205B0040235B00407658004080B500AF72B6414B20
:403A400061221A70FFF7F6FEFFF734FE04223E493E48FFF719FE04223D493E48FFF714FE04223D493D48FFF70FFE04223C493D48FFF70AFE3C4B3D4A1A603D4B3D4A1A603A
:403A80003D4B3E4A1A603E4A3D4B1B78DBB243F00203DBB213703B4A3A4B1B78DBB243F00203DBB21370384A374B1B78DBB243F04003DBB21370354A344B1B78DBB243F097
:403AC0001003DBB21370082231493248FFF7DCFD082231493148FFF7D7FD0A2230493148FFF7D2FD0A2230493048FFF7CDFD0A222F493048FFF7C8FD08222F492F48FFF729
:403B0000C3FD0A222E492F48FFF7BEFD0A222E492E48FFF7B9FD08222D492E48FFF7B4FD2D4A2D4B1B78DBB243F00803DBB21370FFF72AFF0E2214492848FFF7A5FD00BFA8
:403B400080BD00BF00480040842400480076004088240048087600408C240048107600409024004818760040D8060140040424A4581401400404008458180140040400A45C
:403B80000350014013500140A0430040C2430040282400480251004030240048C251004038240048F0510040442400481051004050240048205100405C24004832510040E1
:403BC000642400484051004070240048505100407C2400486251004022430040B043004080B500AF08F07CF803461B680C2B00D1FEE7FEE780B584B000AF7860104B1A68F9
:403C00007B6813441A460F4BD31AB3F5006F09DC0B4B1B68FB600A4B1A687B681344084A136007E008F05CF802460C2313604FF0FF33FB60FB6818461037BD4680BD00BFAD
:403C40004881FF1F18D7FF1F80B586B000AF224B7B61224B3B61204B7B6135E03B691B68FB603B695B68BB603B699B683B6000237B600CE0FB681A68BB681A60BB6804337C
:403C8000BB60FB680433FB607B6804337B607A683B689A42EED13B69DB683B6000237B6008E0BB6800221A60BB680433BB607B6804337B607A683B689A42F2D13B69103343
:403CC0003B617B69013B7B617B69002BC6D108F00DF8FCF7C7FCFEE701000000CCE0010080B582B000AF194B194A1A60194A194B1B6843F40073136000237B600FE07B68B2
:403D0000032B04D8144A7B6852F8233000E0134B13497A6841F822307B6801337B607B682F2BECD90F4B1B78DAB20F4B1A700F4B0B4A1A60FFF780FE00F070FE0C4B0022CF
:403D40001A6000BF0837BD4680BD00BF0CED00E00004FA0514ED00E000000000E13B00000080FF1FBC760040C480FF1F08ED00E0C080FF1F80B584B000AF786039600123A1
:403D8000FB733B68002B5FD07B68002B5CD07B68DB68002B58D07B685B680A2B54D87B681B68002B50D0786800F066FC0346FB73FB7B002B48D17B681A683B68DA607B6865
:403DC0005A683B681A617B681A7A3B681A757B685A7A3B685A757B68DA683B689A617B681B68DA097B681B6803F07F03002B01D0012300E000231A443B685A603B685B68E6
:403E00007A68526802FB03F31A027B68DB681A443B681A603B6808333968184600F046FB3B689B681B68002B0ED13B681B7D002B0AD0386800F072FD0346FB733B68083321
:403E40003968184600F032FBFB7B18461037BD4680BD00BF80B59AB002AFF860B9607A603B60012387F85F300023FB640023BB64BB687B647B68002B00F06B81FA687B68CF
:403E80001A443B68DB689A4200F26381BB68002B00F05F81FB683B647B68FB633B689B681B687B630023BB633A6CFB6B1344013BDA093B6CDB09D31A01333B633B689A68F2
:403EC0003B689B69D21A3B685B681B02B2FBF3F33A68526802FB03F31A023B689B691344FB620023BB6518E0BB6DDA013B6C9A4208D8BB6D0133DB015A1E3B6C9A4201D3AB
:403F0000012300E00023002B04D0BB6DBB64BB6CFB6407E0BB6D0133BB653B685A68BB6D9A42E1D83B689A68FB6AD31A1B0ABB623B681B69012B12D93A6BBB6C1344013B33
:403F40007B62BA6CBB6A9A4207D87A6ABB6A9A4201D9012302E0002300E00123BB630023BB6563E0FB6C1A02FB6A13443B653B6C03F07F0380333B62BB6D5A1C3B6B9A4263
:403F800006D23B6C03F07F03C3F180037B6501E0FB6B7B65BB6B002B17D0FA6CBB6A9A4213D93B685B681B023A6DD31A3B653B689A693B6D9A4208D93B681A683B685968F9
:403FC000FB6CCB1A1B02D31A3B653B681B7D002B0FD03B6800937B6D3A6A796C386D00F0A3FB034687F85F3097F85F30002B0BD020E0786C3A6D3B6A13447A6D194607F06D
:404000009BFE002387F85F303A6C7B6D13443B64FA6B7B6DD31AFB637A6C7B6D13447B64FB6C0133FB64BB6D0133BB65BA6D3B6B9A4297D397F85F30002B40F08A807B6BA4
:40404000002B00F086803B685A687B6B934228BF13463B633B6B013B3B637A6B3B6BD31ABB6572E03968B86D00F056FA38653B6D002B67D03B6D04331B68FB613B6D083369
:404080001A68FB691344BB61FA69FB689A4209D9FA687B681A44FB699A428CBF01230023DBB206E0FA68BB699A4234BF01230023DBB2002B46D0FA69FB689A4203D8FA68F2
:4040C000FB69D31A00E000237B61FA69FB689A4203D9FA69FB68D31A00E000233B61FA68FB69934238BF13463B647B690C337B61FA687B681A44BB699A4228BF1A463B6CA6
:40410000D31A7B65BA683B6913447B643B681B7D002B0FD03B6800937B6D7A69796C386D00F002FB034687F85F3097F85F30002B08D00EE0786C3A6D7B6913447A6D194687
:4041400007F0FAFDBB6D0133BB65BA6D7B6B9A4288D997F85F3018466037BD4680BD00BF90B5D7B002AF07F10C04206007F108000160391D0A603A461360012387F84F313D
:4041800007F1200300221A6007F11C0300221A603B461B689A6807F118031A6007F108031B68C7F83C313B1D1B68002B00F0748107F10C023B1D12681B681A443B461B68A8
:4041C000DB689A4200F2688107F108031B68002B00F062813B1D1B68013B1B09B24AA2FB03230133C7F8343107F1100300221A600023C7F8443146E10023C7F8383107F187
:4042000018031B681B68C7F830313B4607F1140207F118011B68D7F8300100F09DF907F124034FF480720021184607F090FDD7F830310133C7F8303107F12403D7F830217A
:404240001A6007F1240307F10C0212685A60D7F83C31C7F82C31D7F834315A1ED7F844319A4205D107F124033A1D12689A6014E007F1240370229A603B1D3A1D1268703A15
:404280001A6007F10C0307F10C02126870321A60D7F83C317033C7F83C3107F124039A6807F124030C33D7F82C11184607F044FD07F114031B68002B0BD007F114031B688B
:4042C0008033194607F1240380338022184607F033FD3B461B685A68D7F830319A4207D23B461B685B68D7F83021D31A013300E00123C7F848317EE0D7F84821D7F83031FE
:404300009A4204D107F12403C7F8403107E03B461968D7F8480100F0FFF8C7F8400107F118031A683B461B689B69D31A1B0A3A4612685268B3FBF2F102FB01F29B1AC7F83D
:404340002831D7F84031002B17D0D7F8403104331B68D7F840210832126807F1100407F11C0107F1200001920093D7F82831224600F056FAC7F8380104E0D7F8383101333D
:40438000C7F83831D7F83831002B1ED107F1240207F120031B681344C7F8243107F110031A68D7F8403113440C33C7F84031D7F82401D7F8401107F11C031A6807F1200301
:4043C0001B68D31A1A4607F0B7FC3B461B681B7D002B0BD007F1240380338021184600F015F903461A4607F12403DA67D7F848310133C7F84831D7F84821D7F830319A42D1
:404400007FF67AAF07F1180318683B4607F124011A6800F063F9034687F84F3107F118031B68C7F840313B461B681B7D002B1BD097F84F31002B17D107F118031A683B46E7
:404440001B689B69D21A3B461B681B681344C7F840313B4607F124011A68D7F8400100F03DF9034687F84F3197F84F31002B12D107F118031A683B461B689A60D7F8443129
:404480000133C7F84431D7F84421D7F834319A42FFF4B2AE00E000BF97F84F31184607F5AA77BD4690BD00BF2649922480B487B000AF786039600023BB6000237B613B6835
:4044C0009B69FB607B68FA681A6000233B6115E0FB681B68BB60BB68002B08D0BA687B699A4204D9BB687B617B68FA681A60FB6803F58073FB603B6901333B613B685B68C3
:404500003A68126902FB03F23B699A42E0D800BF1C37BD4680BC704780B485B000AF786039603B689B69FB600BE0FB6803F58073FB603B681A68FB689A4202D80023FB6051
:4045400004E0FB681A687B689A42EED1FB6818461437BD4680BC704780B485B000AFF860B9607A603B60FB68002B05D0BB681B6803F58072BB681A60BB681A683B681B6899
:404580009A4203D33B689A69BB681A607B6800221A603B685A68FB689A4231D83B681B69012B29D9BB681A683B685B681B02D21A3B689B699A4216D23B689A693B685968FC
:4045C0003B681B6903F1FF1303F57F4303FB01F31B021A44BB6819683B689B69CB1A1A447B681A600CE0BB681A683B685B681B02D21A7B681A6003E0BB681A687B681A603A
:4046000000BF1437BD4680BC704700BF80B485B000AF78603960FF23FB730023BB8121E0BB897A6813441A78FB7B5340FB730023BB7311E097F90F30002B06DAFB7B5B00CF
:40464000DBB283F03103DBB202E0FB7B5B00DBB2FB73BB7B0133BB73BB7B072BEAD9BB890133BB81BA893B689A42D9D1FB7B18461437BD4680BC704780B487B000AF7860E1
:404680000323FB757B68DB683B617B681B68DA097B681B6803F07F03002B01D0012300E0002313447A68526802FB03F37A68127A013202FB03F31A023B691344FB603B69CB
:4046C000002B05D0FB68B3F5802F01D80023FB75FB7D18461C37BD4680BC704780B588B000AFF860B9607A600423FB77FB681B0ADBB2BB6100F024FCFB681B0C7B617B69EA
:40470000DBB2BA6991B2BA68184600F02BFC386100F0AEFD3B69002B01D10023FB77FB7F18462037BD4680BD90B5C7B000AF07F10C04206007F108000160391D0A603A4682
:404740001360D7F828319B6907F10C021268D21AD7F828311B681344C7F8103107F10C031B687C331C6807F10C031B68803380211846FFF74BFF03469C4211D107F10803E7
:40478000186807F10C023B1D12681B68134419463B461A6807F0D0FA002387F8173137E0D7F810317C331C68D7F81031803380211846FFF72BFF03469C4226D1D7F8101170
:4047C00007F110034FF48072184607F0B5FA07F1100107F10C03D7F828211868FFF77EFF034687F8173197F81731002B10D107F1080318683B1D1B689B0007F11002D1187B
:404800003B461A6807F098FA02E0022387F8173197F81731184607F58E77BD4690BD00BF80B487B000AFF860B9607A603B6000237B617B6800221A603B68DA013B6A9A425C
:4048400008D83B680133DB015A1E3B6A9A4201D3012300E00023002B27D03B6A03F07F0303F18002FB681A603A6A7B6A1A443B68DB019A420AD33A6A7B6A1A443B68013345
:40488000DB01013B9A4201D8012300E00023002B06D0FB681A687B6A1A44BB681A6036E0BB684FF480721A6031E03A6A7B6A1A443B68DB019A420AD33A6A7B6A1A443B689C
:4048C0000133DB01013B9A4201D8012300E00023002B19D0FB6880221A60FB681A687B6A1A443B6A03F07F01FB681B68CB1A1A44BB681A60FB681A68BB681B68D21A7B6A9B
:404900001A447B681A6002E07B6901337B617B6918461C37BD4680BC704700BF80B5C8B000AF3B1D18603B1D1B689A6807F108031A6007F108031B681B68C7F818310123E1
:4049400087F817310023C7F81C3153E007F108031B68194607F10C034FF48072184607F0EBF9D7F818310133C7F8183107F10C03D7F818211A6007F10C038033802118461E
:40498000FFF744FE03461A4607F10C03DA6707F1080318683B1D07F10C011A68FFF79EFE034687F8173107F108031A683B1D1B689B69D21A3B1D1B681B681344C7F81031C5
:4049C0003B1D07F10C011A68D7F81001FFF786FE034687F817313B1D07F5867207F108011B68D7F81801FFF7B7FDD7F81C310133C7F81C313B1D1B685B683A1D12681269C6
:404A000002FB03F2D7F81C319A429FD897F81731184607F59077BD4680BD00BF80B483B000AF134B7F221A70124B80221A707F23FB710CE0FB79DB0003F1804303F5F0438B
:404A4000FA79013AD2B21A70FB79013BFB71FB79002BEFD1FB79DB0003F1804303F5F04300221A7000BF0C37BD4680BC704700BF4D81FF1F4C81FF1F80B485B000AF034633
:404A80000A46FB711346BB710123FB60FB79172B2FD8BB79002B0ED0FB791A01184B1344FA791101164A0A441278D2B242F02002D2B21A700DE0FB791A01114B1344FA79AE
:404AC00011010F4A0A441278D2B222F02002D2B21A70FB791A010A4B1344FA791101084A0A441278D2B242F00102D2B21A700023FB60FB6818461437BD4680BC704700BFBD
:404B00001070004080B485B000AF0346FB710123FB60FB79172B1DD8FB791A01104B1344FA7911010E4A0A441279D2B242F00402D2B21A71FB791A01094B1344FA7911013D
:404B4000074A0A441278D2B242F00102D2B21A700023FB60FB6818461437BD4680BC70471070004080B485B000AF03460A46FB711346BB710123FB60FB79172B1BD8FB79C7
:404B80001A01104B13441B78DBB223F00E03FB72FB791A010B4B1344BA795200D2B252B202F00E0251B297F90B200A4352B2D2B21A700023FB60FB6818461437BD4680BC46
:404BC000704700BF1070004080B485B000AF0346FB710B46BB8013467B800123FB60BB8841F6FF72934202D14FF40053BB807B8841F6FF72934202D14FF400537B80FB7997
:404C0000172B17D8FB79DB0003F1804303F5EC430433BB60BB68BA881A80FB79DB0003F1804303F5EC430633BB60BB687A881A800023FB60FB6818461437BD4680BC704705
:404C400080B485B000AF03460A46FB711346BB710123FB60FB79172B07D8FB791A01064B1344BA795A720023FB60FB6818461437BD4680BC704700BF1070004090B484B0D1
:404C800000AF0446084611461A462346FB710346BB710B467B7113463B710123FB60FB79172B34D8FB79DB0003F1804303F5EC43BA7902F07F02D1B27A79D201D2B20A433C
:404CC000D2B21A70FB79DB0003F1804303F5EC433A7E1201D1B23A7902F00F02D2B20A43D2B25A70FB79DB0003F1804303F5EC433A7F02F00F02D2B29A70FB79DB0003F19C
:404D0000804303F5EC430022DA700023FB60FB6818461037BD4690BC704700BF80B582B000AFFF23FB7104F0D3FD0346BB71104B1B78182B12D90F4B1B78FB710C4B1B7896
:404D4000013BDAB20A4B1A70FB79DB0003F1804303F5F0431B78DAB2064B1A70BB79184604F0BAFDFB7918460837BD4680BD00BF4C81FF1F4D81FF1F90B484B000AF0446CC
:404D8000084611461A462346FB710346BB800B46BB711346FB700123FB6097F90730002B23DBBB8823F47F6323F00F039BB2002B1BD1FB79DB0003F1804303F5F043BB60D4
:404DC000BB68BA881A80FB79DB0003F1804303F5F043BA799A70FB79DB0003F1804303F5F043FA78DA700023FB60FB6818461037BD4690BC704700BF80B485B000AF0346AD
:404E0000FB710B46BB8013467B800123FB6097F90730002B17DBFB79DB0003F1804303F5F0430433BB60BB68BA881A80FB79DB0003F1804303F5F0430633BB60BB687A8897
:404E40001A800023FB60FB6818461437BD4680BC704700BF80B582B000AF00F0E5FA4FF0FF337B6000F07AFC0346002B24D1012000F042FC0346072B1BD10221124800F036
:404E8000F7FA0346022B0DD100237B6002E0012000F0DAF90D4B1B78DBB203F00203002BF5D006E0094B1B78DBB203F00203002BE3D000F087FC01E004237B607B681846C2
:404EC0000837BD4680BD00BF88D5FF1F2247004080B582B000AF00F0A7FA00F03FFC0346002B23D100F096FC78607B68072B1AD102E0012000F0A8F9104B1B78DBB203F0BA
:404F00000203002BF5D00D4B1B78DBB203F00203002B08D0094B1B78DBB29B08DBB2002B01D100237B6000F04DFC01E004237B607B6818460837BD4680BD00BF2247004026
:404F400080B582B000AFFFF7C3FF78607B68002B02D1FFF77FFF78607B6818460837BD4680BD00BF80B584B000AF03463A60FB710B46BB80FB793F2B01D9102301E04FF4DD
:404F80008073FB81FB89B988F8793A6800F006F8B860BB6818461037BD4680BD80B586B000AFBA601A460346FB730B46BB811346FB8000237B61FB7B3F2B04D8FB7B042B90
:404FC00001D901237B6197F90F30002B01DA01237B61FB7B3F2B04D9FB7B412B01D901237B61FB7B3F2B06D8BB89B3F5807F0CD901237B6109E0BB89802B01D901237B6149
:40500000FB88102B01D001237B61BB68002B01D101237B617B69002B60D100F09FFB0346002B59D1FB88B989F87BBA6800F0B2FA78617B69072B4CD102E0012000F004F967
:40504000294B1B78DBB203F00203002BF5D0264B1B78DBB203F00203002B09D0224B1B78DBB29B08DBB2002B02D100237B6102E04FF0FF337B617B69002B2AD11B4B1A783C
:405080001A4B5B78B989F87B00F0EAFA78617B69072B1ED102E0012000F0D6F8124B1B78DBB203F00203002BF5D00F4B1B78DBB203F00203002B09D00B4B1B78DBB29B089C
:4050C000DBB2002B02D100237B6102E04FF0FF337B6100F077FB01E004237B617B6918461837BD4680BD00BF2247004088D5FF1F80B582B000AF04F0EBFB0346FB71194AF5
:40510000184B1B78DBB243F00803DBB21370164A154B1B78DBB243F00803DBB21370134BC8221A70124A124B1B78DBB243F01003DBB213700F4A0F4B1B78DBB243F0100356
:40514000DBB2137000BF0C4B1B78DBB203F02003002BF8D0FB79184604F0BEFB00BF0837BD4680BDA0430040B043004001470040AC430040BC4300400047004080B400AF6D
:40518000094A094B1B78DBB243F00103DBB2137000BF054B1B78DBB203F00203002BF8D000BFBD4680BC70470247004080B400AF054A054B1B78DBB223F00103DBB21370C0
:4051C00000BFBD4680BC70470247004080B483B000AF0346FB7101BE00BF0C37BD4680BC704700BF80B400AF054A054B1B78DBB243F00103DBB2137000BFBD4680BC704792
:40520000F646004080B582B000AF786008E00C4B1B68184604F054FB7B68A3F500437B607B68B3F5004FF2D8064B1B687A6802FB03F3184604F044FB00BF0837BD4680BDEC
:405240006081FF1F5881FF1F80B582B000AF0346FB80FB88054A127802FB03F3184604F02FFB00BF0837BD4680BD00BF5C81FF1F80B582B000AF04F02BFB0346FB7100BFF7
:4052800000BF00BF00BF00BF00BF00BF00BF00BF00BF00BF00BF00BF00BF00BF00BF0A4A094B1B889BB243F004039BB21380064B1B88BFF36F8FFB79184604F00DFB00BFDA
:4052C0000837BD4680BD00BF0048004080B584B000AF03463960FB710F4B1B68FB60FB791F2B02D90020FFF771FFFB7903F01F0310339B00FA6813441B68BB60FB7903F006
:405300001F0310339B00FA6813443A681A60BB6818461037BD4680BD08ED00E080B582B000AF03460A46FB711346BB71BB79072B02D90020FFF74AFFFB791F2B02D90020C2
:40534000FFF744FFFB7903F01F0303F1604303F56443BA795201D2B21A7000BF0837BD4680BD00BF80B483B000AF7860264B1B78DBB21A467B681A60244B1B78DBB21B02BC
:405380007A6812681A437B681A60214B1B78DBB21B047A6812681A437B681A601D4B1B78DBB21B067A6812681A437B681A607B680433194A1278D2B21A60184B1B78DBB2CF
:4053C0001A027B6804337968043109680A431A60134B1B78DBB21A047B6804337968043109680A431A600F4B1B78DBB21A067B6804337968043109680A431A6000BF0C3721
:40540000BD4680BC704700BF0301004904010049EC460040020100490101004900010049050100490601004980B582B000AF04F04FFA0346FB710C4A0B4B1B78DBB243F023
:405440000803DBB21370094A084B1B78DBB243F00803DBB21370FB79184604F03DFA00BF0837BD4680BD00BFA0430040B043004080B584B000AF78600B46FB700023FB7370
:4054800013E00120FFF7E0FE0C4B1B78DBB203F00103002BF5D0FB7B7A681344084A1278D2B21A70FB7B0133FB73FA7BFB789A42EAD3FB7B18461037BD4680BD2247004070
:4054C0002047004080B485B000AF3A601A460346FB710B46BB801346BB710723FB60FB793E2B02D8BB791F2B05D9FB793F2B45D9BB790F2B42D8254B1B78DBB203F0020389
:40550000002B38D0224BB6221A70214BD4221A701F4B01221A701D4B1B78DBB203F00203002B25D11A4AFB791370194ABB881B0A9BB2DBB203F00103DBB21370144BBA881D
:40554000D2B21A70124ABB79013BDBB213700023FB7208E00E49FB7A3A6813441B780B70FB7A0133FB72FA7ABB799A42F2D307E00923FB6004E00423FB6001E00123FB6063
:40558000FB6818461437BD4680BC7047224700402047004080B489B000AFBA601A460346FB730B46BB811346FB800723FB612A4B1B78DBB203F00203002B45D0274BB6224E
:4055C0001A70264BD5221A70244B02221A70224B1B78DBB203F00203002B32D11F4AFB7B137000237B8308E01C497B8BBA6813441B780B707B8B01337B837A8BFB889A4266
:40560000F2D3FB88B3F5807F20D1FB7B3F2B1DD8FB7B03F510331A02BB8913445B017B6100237B8309E00D497A8B7B6913441B78DBB20B707B8B01337B837B8B1F2BF2D987
:4056400004E00923FB6101E00423FB61FB6918462437BD4680BC7047224700402047004090B484B000AF0446084611461A462346FB710346BB800B46BB711346FB700723BD
:40568000FB601B4B1B78DBB203F00203002B26D0184BB6221A70174BD8221A70154B05221A70134B1B78DBB203F00203002B13D1104AFB7913700F4ABB881B0A9BB2DBB2C3
:4056C00013700C4BBA88D2B21A700A4ABB791370084AFB78137004E00923FB6001E00423FB60FB6818461037BD4690BC704700BF224700402047004080B485B000AF0346E1
:40570000FB710723FB60134B1B78DBB203F00203002B16D0104BB6221A700F4BE1221A700D4B0E221A700B4B1B78DBB203F00203002B03D1084AFB79137004E00923FB601A
:4057400001E00423FB60FB6818461437BD4680BC704700BF224700402047004080B582B000AF04237B6004F0B3F80346FB70124B1B78002B16D1104B01221A7000237B6042
:405780000E4B1B6803F00103002B0BD00B4A0B4B1B6823F00103136000BF00BF00BF084B01221A60FB78184604F096F87B6818460837BD4680BD00BF0483FF1F0400084068
:4057C0000883FF1F80B582B000AF04F081F80346FB710D4B00221A700C4B1B68012B0BD10B4A0B4B1B6843F00103136000BF00BF00BF064B00221A60FB79184604F06CF8B6
:4058000000BF0837BD4680BD0483FF1F0883FF1F0400084080B483B000AF07237B600C4B1B78DBB203F00203002B09D0094BB6221A70084BE0221A70064B0D221A7001E082
:4058400004237B607B6818460C37BD4680BC7047224700402047004080B500AF084B0F221A7000F09BF800F063F800F06FF8054B00221A70044B00221A7000BF80BD00BF93
:40588000826400408F6400408C64004080B582B000AF04F01DF80346FB71134A124B1B78DBB243F02003DBB21370104A0F4B1B78DBB243F01003DBB213700D4A0C4B1B78E0
:4058C000DBB243F01003DBB21370FB79184604F003F800F093F800F01FF800F023F800BF0837BD4680BD00BF926400409F6400409C64004080B500AF064B1B78002B04D1F9
:40590000FFF7AAFF034B01221A70FFF7BFFF00BF80BD00BF0C83FF1F80B400AF00BFBD4680BC704780B400AF00BFBD4680BC704780B483B000AF044B1B78FB71FB7918464B
:405940000C37BD4680BC70476F64004080B483B000AF044B1B78FB71FB7918460C37BD4680BC70476C64004080B483B000AF0346FB7100BF074B1B78DBB203F00403002B3B
:40598000F8D0054AFB79137000BF0C37BD4680BC704700BF6F6400404C64004080B582B000AF01E0124B1B78124B1B78DBB203F02003002BF6D103F08BFF0346FB710E4A29
:4059C0000D4B1B78DBB243F00103DBB213700A4A094B1B78DBB223F00103DBB21370FB79184603F079FF00BF0837BD4680BD00BF5C6400406C6400409C64004080B400AF8C
:405A0000094A094B1B78DBB243F00103DBB21370064A064B1B78DBB243F00103DBB2137000BFBD4680BC7047A2430040B243004080B500AF144B02221A70144B81221A70C4
:405A4000134B08221A70134B0D221A70124B00221A70124B4FF400421A6007210F20FFF75DFC0F490F20FFF731FC0E4B10221A700D4B00221A700D4B00221A700C4B0022B2
:405A80001A7000BF80BD00BFD6490040C8490040CA490040DB490040DC49004080E100E03D5C00008AD5FF1F8ED5FF1F90D5FF1F8CD5FF1F80B582B000AF03F009FF0346A1
:405AC000FB710C4A0B4B1B78DBB243F00403DBB21370094A084B1B78DBB243F00403DBB21370FB79184603F0F7FE00BF0837BD4680BD00BFA5430040B543004080B500AF19
:405B0000084B1B78002B04D1FFF792FF054B01221A70FFF7CFFF044B4FF400421A6000BF80BD00BF0D83FF1F00E100E080B582B000AF384B4FF400421A60374B1B78DAB286
:405B4000364BDA70364B1B78DAB2344B1A71354B1B78DAB2314B5A71324B1B78DBB29BB21B029AB22E4B1B78DBB29BB213439BB20133FB802C4A2C4B1B78DBB223F001031B
:405B8000DBB21370FB88184603F09AFE03F0A0FE03467B71254A254B1B78DBB223F00403DBB21370224A224B1B78DBB223F00403DBB213707B79184603F08EFE1A4A1A4BBD
:405BC0001B78DBB243F00203DBB21370124B134AD2781A70104B114AD2781A70104B0F4A12791A700F4B0D4A52791A700E4A0E4B1B78DBB223F01003DBB213700D4B4FF4B4
:405C000000421A600C4B10221A7000BF0837BD4680BD00BF80E100E0CA4900406481FF1FDB490040DC490040D6490040A5430040B543004080E200E08AD5FF1F80B582B053
:405C400000AFA74B1B78FB71A64B1B78DBB203F04003DBB2002B00F0A981FB7903F00103002B00F080819F4B1B78DBB2453B052B00F2758101A252F823F000BF955C000092
:405C8000BB5D00005F5F00005F5F0000955C0000A75E0000FB7923F02003FB71FB7903F00A03DBB2082B46D18E4B1B78DBB2452B3AD18D4B1B78DBB2002B0FD08B4A8C4BD7
:405CC0001B681B78DBB21370854B04221A70894B01221A70834B46221A7044E1864B1B78DBB203F00203002B0FD0844B1B78DBB243F00A03DAB2814B1A707A4B60221A70C3
:405D00007F4B4FF400421A602DE17E4A7D4B1B78DBB243F01003DBB213707B4B10221A706F4B04221A701EE16D4B00221A706D4B4A221A7017E1FB7903F00A03DBB20A2B5B
:405D400037D16E4B1B78DBB263F05F03DAB26B4B1A70694B1B78DBB203F00203002B19D0604B1B78DBB203F00803002B01D0092300E00A23DAB2614B1B78DBB21343DAB2A9
:405D80005E4B1A70574B60221A705D4B4FF400421A60E8E05B4A5B4B1B78DBB243F01003DBB21370584B10221A704D4B04221A70D9E00020FFF70AFAD5E0FB7903F0020337
:405DC000002B42D14B4B1B78DAB2474B1B78DBB29A4214D2454A464B1B6846490978C9B20B441B78DBB213703D4B04221A70414B1B78DBB20133DAB23E4B1A70B3E03E4B49
:405E00001B78DBB203F00203002B0FD03B4B1B78DBB243F00A03DAB2384B1A70314B60221A70374B4FF400421A609CE0354A354B1B78DBB243F01003DBB21370324B102218
:405E40001A70274B04221A708DE02B4B1B78DBB203F00203002B0FD0284B1B78DBB263F06503DAB2254B1A701E4B60221A70244B4FF400421A6076E0224A224B1B78DBB26B
:405E800043F01003DBB213701F4B10221A70144B04221A70194B1B78DBB263F06F03DAB2164B1A705FE0194B1B68194A1278D2B213440E4A1278D2B21A70154B1B78DBB239
:405EC0000133DAB2124B1A70114B1B78DAB2114B1B78DBB29A421FD2014B10221A7042E0D74900408AD5FF1F8FD5FF1FD849004094D5FF1F8CD5FF1F8DD5FF1F8ED5FF1F46
:405F000080E100E0D6490040D949004098D5FF1F90D5FF1F9CD5FF1F2C4B1B78DBB203F00203002B0FD02A4B1B78DBB243F00903DAB2274B1A70274B60221A70264B4FF49B
:405F400000421A600FE0254A244B1B78DBB243F01003DBB21370224B00221A7003E00020FFF734F900BFFB7903F02003002B28D0184B1B78DBB203F00803002B01D00123D6
:405F800000E00223DAB2124B1B78DBB21343DAB20F4B1A70114A114B1B78DBB223F01003DBB213700B4B10221A700AE0094B1B78DBB203F01003DBB2002B02D1054B10227D
:405FC0001A7000BF0837BD4680BD00BF8DD5FF1F8ED5FF1F8AD5FF1F80E100E0D6490040D749004080B485B000AF396011461A460346FB710B46BB7113467B710223FB732A
:406000003B68002B56D02E4B1B78DBB2102B0CD12C4B1B78DBB203F00803002B02D10023FB7315E00123FB7312E0254B1B78DBB2602B0DD10023FB73234B4FF400421A6027
:40604000224B1B78DBB223F00803DAB21F4B1A70FB7B002B2ED11A4B45221A701C4B00221A701C4ABB7913701B4A3B6813601B4A7B791370154B1B78DBB223F00203DAB254
:40608000124B1A70164AFB795B00DBB213707B7903F00103002B06D00A4B12221A70114B04221A7002E0074B01221A700E4B4FF400421A60FB7B18461437BD4680BC704761
:4060C0008AD5FF1FD949004080E200E08ED5FF1F8CD5FF1F8FD5FF1F94D5FF1F8DD5FF1FD8490040D749004000E100E080B485B000AF396011461A460346FB710B46BB71DA
:4061000013467B710223FB733B68002B59D0304B1B78DBB2102B0CD12E4B1B78DBB203F00803002B02D10023FB7315E00123FB7312E0274B1B78DBB2602B0DD10023FB73B2
:40614000254B4FF400421A60244B1B78DBB223F00803DAB2214B1A70FB7B002B31D11C4B49221A701E4B00221A701E4ABB7913701D4A3B6813601D4A7B791370174B1B78FE
:40618000DBB223F00103DAB2144B1A70184AFB795B00DBB243F00103DBB213707B7903F00103002B06D00B4B12221A70114B04221A7002E0074B01221A700F4B4FF40042F5
:4061C0001A60FB7B18461437BD4680BC704700BF8AD5FF1FD949004080E200E08ED5FF1F90D5FF1F9CD5FF1F98D5FF1F8DD5FF1FD8490040D749004000E100E080B483B0A9
:4062000000AF0E4B4FF400421A600D4B1B78FB710C4B1B78DBB203F04003DBB2002B03D0FB7943F00403FB71074B4FF400421A60FB7918460C37BD4680BC704780E100E011
:406240008ED5FF1F8AD5FF1F00E100E080B483B000AF0A4B4FF400421A60094B1B78FB71074B00221A70074B4FF400421A60FB7918460C37BD4680BC704700BF80E100E048
:406280008ED5FF1F00E100E080B400AF054B1B78DBB203F020035B09DBB21846BD4680BC704700BF5151004080B400AF054B1B78DBB203F010031B09DBB21846BD4680BCA6
:4062C000704700BF5151004080B400AF054B1B78DBB203F08003DB09DBB21846BD4680BC704700BF1151004080B400AF054B1B78DBB203F040039B09DBB21846BD4680BC00
:40630000704700BF1151004080B500AF41F6FF734FF480420121022000F0FCF903461A460A4B1A7041F6FF7341F6FF720121082000F022FA03461A46054B1A70054800F09B
:406340004DFA012000F05CFA00BF80BD1483FF1F1583FF1FFD64000080B582B000AF414B1B781846FEF7CEFB3F4B1B781846FEF7C9FB3E4B1B78FF2B05D1FEF7CFFC0346FD
:406380001A463A4B1A70394B1878384B1A7806230821FEF7F1FC354B1B78354A92B245F6A0311846FEF728FD2E4B1A782F4B1B7819461046FEF744FC2E4B1B78FF2B05D1A9
:4063C000FEF7ACFC03461A462A4B1A70294B1878284B1A7807230821FEF7CEFC254B1B78234A91B2244A92B21846FEF705FD1E4B1A78204B1B7819461046FEF721FC194B5F
:406400001B7801211846FEF737FB174B1B7801211846FEF731FB03F05BFA0346FB71174A164B1B78DBB243F02003DBB21370FB79184603F051FA124A114B1B78DBB243F02C
:406440000103DBB213700E4A0D4B1B78DBB243F00203DBB213700B4B02221A6000BF0837BD4680BD1483FF1F1583FF1F6A81FF1F1883FF1F6B81FF1FA0D5FF1F9A640040B6
:406480007B64004080E200E080B500AF084B1B68002B04D1FFF738FF054B01221A6000F033F8FFF759FF034B1B7800BF80BD00BF1083FF1F6D64004080B500AF00F0D8F83C
:4064C00000BF80BD80B483B000AF0346FB80FB88C3F10303074A32F913309AB2064B1B881BB29BB2D31A9BB21BB218460C37BD4680BC7047A0D5FF1FB0D5FF1F80B400AFB9
:4065000000BFBD4680BC704780B500AF064B1B78002B04D100F00AF8034B01221A7000F01BF800BF80BD00BF2083FF1F80B500AF074A074B1B78DBB243F00603DBB213707F
:406540000C2000F06BF8034B00221A8000BF80BD01590040AAD5FF1F80B582B000AF03F0B7F90346FB71254A244B1B78DBB243F00103DBB21370224A214B1B78DBB243F081
:406580000103DBB213701F4B1B78BB71BB7943F00203BB71BB7943F00103BB71194ABB791370194B04221A70184A184B1B78DBB243F04003DBB21370144A144B1B78DBB2F9
:4065C00023F00303DBB21370114BC8221A70114B02221A70104A104B1B78DBB243F00803DBB213700A20FEF72FFEFB79184603F073F900BF0837BD4680BD00BFAB430040CD
:40660000BB4300400359004006590040055900400059004014460040275B004080B584B000AF0346FB71FB790A2B07D00C2B02D0082B06D008E0C423FB730BE08423FB73B2
:4066400008E04423FB7305E0C423FB730020FEF7BDFD00BF054AFB7B1370FB79184600F017F800BF1037BD4680BD00BF0259004080B400AF054A054B1B78DBB243F0010303
:40668000DBB2137000BFBD4680BC70470059004080B584B000AF0346FB71FB790A2B08D00C2B02D0082B08D00BE04FF48053FB600DE04FF48063FB6009E04FF48073FB60D6
:4066C00005E00023FB600020FEF780FD00BF0D4B00221A80FB6842F2107202FB03F303F27263094A82FB03121A44D212DB17D31A064A1360064B00221A8000BF1037BD461D
:4067000080BD00BFA8D5FF1FEF09E09EACD5FF1FB0D5FF1F90B585B002AF0446084611461A462346FB710346BB710B46BB8013467B80104B03221A700E4B1878BA79F979CE
:4067400000230193002300930323FEF797FA094B1B787A88B9881846FEF736FA054B1B7803211846FEF7FEF9024B1B7818460C37BD4690BD6C81FF1F90B585B002AF0446B1
:40678000084611461A462346FB710346BB710B46BB8013467B80104B02221A700E4B1878BA79F97900230193002300930223FEF765FA094B1B787A88B9881846FEF704FAB2
:4067C000054B1B7803211846FEF7CCF9024B1B7818460C37BD4690BD6D81FF1F80B485B000AF7860054B1B68FB60FB6844337A681A6000BF1437BD4680BC704708ED00E074
:4068000080B483B000AF0346FB71054AFB795B01DBB2137000BF0C37BD4680BC704700BF01E400E080B500AF084B07221A7000F083F800F051F800F05DF8054B00221A7013
:40684000044B08221A7000BF80BD00BF87640040856400408664004080B582B000AF03F037F80346FB71104A0F4B1B78DBB243F02003DBB213700D4A0C4B1B78DBB243F0B4
:406880001003DBB213700A4A094B1B78DBB243F01003DBB21370FB79184603F01DF800BF0837BD4680BD00BF97640040956400409664004080B500AF064B1B78002B04D14A
:4068C000FFF7B0FF034B01221A70FFF7C5FF00BF80BD00BF2183FF1F80B483B000AF044B1B78FB71FB7918460C37BD4680BC70476564004080B483B000AF044B1B78FB71E5
:40690000FB7918460C37BD4680BC70476664004080B400AF01E0064B1B78064B1B78DBB203F00803002BF6D100BFBD4680BC7047576400406664004080B582B000AF01E088
:40694000124B1B78124B1B78DBB203F00803002BF6D102F0BDFF0346FB710E4A0D4B1B78DBB243F00303DBB213700A4A094B1B78DBB223F00303DBB21370FB79184602F089
:40698000ABFF00BF0837BD4680BD00BF57640040666400409764004080B500AF084B07221A7000F083F800F051F800F05DF8054B00221A70044B08221A7000BF80BD00BF63
:4069C00088650040896500408A65004080B582B000AF02F07DFF0346FB71104A0F4B1B78DBB243F02003DBB213700D4A0C4B1B78DBB243F01003DBB213700A4A094B1B783B
:406A0000DBB243F01003DBB21370FB79184602F063FF00BF0837BD4680BD00BF98650040996500409A65004080B500AF064B1B78002B04D1FFF7B0FF034B01221A70FFF738
:406A4000C5FF00BF80BD00BF2283FF1F80B483B000AF044B1B78FB71FB7918460C37BD4680BC70476965004080B483B000AF044B1B78FB71FB7918460C37BD4680BC7047E8
:406A80006A65004080B400AF01E0064B1B78064B1B78DBB203F00803002BF6D100BFBD4680BC70475B6500406A65004080B582B000AF01E0124B1B78124B1B78DBB203F0A3
:406AC0000803002BF6D102F003FF0346FB710E4A0D4B1B78DBB243F00303DBB213700A4A094B1B78DBB223F00303DBB21370FB79184602F0F1FE00BF0837BD4680BD00BF36
:406B00005B6500406A6500409B65004080B400AF00BFBD4680BC704780B582B000AF0F2000F06AF800F05AF802F0D2FE0346FB71074A074B1B78DBB243F01003DBB2137005
:406B4000FB79184602F0C8FE00BF0837BD4680BD9765004080B500AF00F0AEF84FF4004000F0D8F8064B1B78002B04D1FFF7CEFF034B01221A70FFF7CFFF00BF80BD00BF33
:406B80002383FF1F80B582B000AF00F0D3F80346FB80FB88A3F500439BB2BB80B7F9043018460837BD4680BD80B584B000AF0346FB80B7F90630002B04DBFB88A3F50043AB
:406BC000FB8103E0FB88A3F50043FB81FB89184600F0A0F800BF1037BD4680BD80B400AF044B1B78DBB203F00F03DBB21846BD4680BC70476765004080B483B000AF034609
:406C0000FB71044AFB79137000BF0C37BD4680BC704700BF8765004080B582B000AF1C4B1B78DBB223F00703FB71194AFB791370174B1B78DBB223F00303FB71144AFB7967
:406C4000137000F0B3F84FF4004000F08FF84FF4004000F05FF8002000F040F800F04EF84FF4004000F092F802F032FE0346BB71084A084B1B78DBB243F01003DBB2137005
:406C8000BB79184602F028FE00BF0837BD4680BD716400409465004080B400AF054A054B1B78DBB263F07F03DBB2137000BFBD4680BC70477164004080B500AF064B1B7885
:406CC000002B04D1FFF7A8FF034B01221A70FFF7E3FF00BF80BD00BF2483FF1F80B483B000AF0346FB71044AFB79137000BF0C37BD4680BC704700BF8465004080B400AFD1
:406D0000034B1B78DBB21846BD4680BC704700BF6465004080B483B000AF0346FB80044AFB88138000BF0C37BD4680BC704700BF0C6A004080B400AF044B1B78044B1B8867
:406D40009BB21846BD4680BC704700BF066500408C6A004080B400AF034B1B889BB21846BD4680BC704700BF8C6A004080B483B000AF0346FB80044AFB88138000BF0C3728
:406D8000BD4680BC704700BF4C6A004080B483B000AF0346FB80044AFB88138000BF0C37BD4680BC704700BF6C6A004080B500AF01E0FFF7CFFFFFF7A1FF034603F040037F
:406DC000002BF6D100BF80BD80B582B000AF786000F03CF8786800F009F8062000F018F800F028F800BF0837BD4680BD80B485B000AF7860054B1B68FB60FB6850337A6868
:406E00001A6000BF1437BD4680BC704708ED00E080B483B000AF0346FB71054AFB795B01DBB2137000BF0C37BD4680BC704700BF04E400E080B400AF034B10221A6000BFEE
:406E4000BD4680BC704700BF00E100E080B400AF034B10221A6000BFBD4680BC704700BF80E100E080B400AF034B10221A6000BFBD4680BC704700BF80E200E080B582B010
:406E800000AF03460A46FB711346BB71094B1B78002B04D100F010F8064B01221A70BA79FB791146184600F0C5F800BF0837BD4680BD00BF2583FF1F80B582B000AF02F0E8
:406EC00007FD0346FB714C4A4B4B1B78DBB243F00103DBB21370494A484B1B78DBB243F00103DBB21370464B01221A70454B02221A70454A444B1B78DBB203F07F03DBB2FD
:406F000013700020FEF7A0F9404A404B1B78DBB223F00603DBB213703D4A3D4B1B78DBB223F02003DBB21370384A384B1B78DBB243F00103DBB213700120FEF785F9282002
:406F4000FEF782F9334A334B1B78DBB203F07F03DBB213702F4A2F4B1B78DBB223F04003DBB21370294A294B1B78DBB243F00203DBB213700220FEF767F9244A234B1B7853
:406F8000DBB243F00403DBB21370234B00221A70224B00221A70FB79184602F09DFC01211720FEF7BBF91E491720FEF78FF901211820FEF7B3F91B491820FEF787F901211F
:406FC0000220FEF7ABF918490220FEF77FF901210320FEF7A3F915490320FEF777F901210C20FEF79BF912490C20FEF76FF900BF0837BD4680BD00BFA5430040B543004012
:407000009D60004009600040106000409443004012600040F851004084600040856000400D7C0000B9750000797B0000C17B0000197C000080B582B000AF03460A46FB7188
:407040001346BB712B4AFB7913702B4B00221A702A4B00221A702A4B00221A70294B00221A70294B00221A70284B00221A70284B00221A70274B4FF400021A60254B4FF05D
:4070800080721A60234B04221A60224B08221A60BB79002B02D0012B09D011E01E4A1E4B1B78DBB223F00103DBB2137011E01A4A194B1B78DBB243F00103DBB2137008E0FE
:4070C000154A154B1B78DBB223F00103DBB2137000BF124B03221A70114B80221A70012002F0EEFB0F4B04221A7000BF0837BD4680BD00BFBFD5FF1FB4D5FF1FC6D5FF1F22
:40710000CCD5FF1FB5D5FF1FC0D5FF1FDDD5FF1FB6D5FF1F00E100E00960004028600040086000401260004080B400AF0F4B00221A700F4B00221A700E4B00221A700E4BE3
:4071400000221A700D4B00221A700D4B00221A700C4B00221A700C4B03221A700B4B80221A7000BFBD4680BC704700BFB4D5FF1FC6D5FF1FCCD5FF1FB5D5FF1FC0D5FF1FE2
:40718000DDD5FF1FB6D5FF1F286000400860004080B582B000AF02F09BFB0346FB712F4A2E4B1B78DBB203F07F03DBB213702C4A2B4B1B78DBB223F00403DBB21370294A53
:4071C000284B1B78DBB223F00103DBB21370264A254B1B78DBB223F00103DBB21370234A224B1B78DBB263F07F03DBB213701F4A1E4B1B78DBB243F04003DBB21370FB79E3
:40720000184602F069FB1A4B4FF400021A60184B4FF080721A60164B04221A60144B08221A6001F0FFFF134B4FF480521A60124B00221A70114B00221A70114B00221A706F
