:400000000080002011000000013C0000013C000080B500AF024A034B1B68136003F024FEBC760040FA46004010B5054C237833B9044B13B10448AFF300800123237010BD78
:400040004082FF1F0000000034D70000084B10B51BB108490848AFF300800848036803B910BD074B002BFBD0BDE81040184700BF000000004482FF1F34D70000C880FF1FFA
:400080000000000090B583B000AF554B1B78DBB2002B0CBF01230023DBB21A46504B1A704F4B1B78DBB2002B0CBF01230023DBB219464C4A1A2303FB01F313441B78DBB2EB
:4000C000FE2B4FD1464B1B78DBB2002B0CBF01230023DBB21946434A1A2303FB01F3134419331B78DBB2FD2B3CD100237B6034E03B4B1B78DBB2002B0CBF01230023DBB2A7
:4001000018467B685B00013336491A2202FB00F20A4413441B78DBB29BB21B029AB2304B1B78DBB2002B0CBF01230023DBB21C467B6801335B002B481A2101FB04F10144AD
:400140000B441B78DBB29BB2134499B2264A7B6822F813107B6801337B60244B1B687A689A42C5DB06F05CFB214B1B78184604F0D9FC1B4B1B78DBB21A461E4B985C022374
:40018000FE221A2104F008FE154B1B78DBB21A46184B985C124B1B78DBB21A461A2303FB02F3104A13449BB21A4646F2574104F033FE0F4B1A780A4B1B78DBB219460D4B3B
:4001C0005B5C1946104604F04BFD094B1B780121184604F061FC00BF0C37BD4690BD00BFA482FF1FE0A1FF1FF896FF1FCC80FF1FCCA1FF1FA483FF1F80B500AF214B1B78E2
:40020000DBB2002B0CBF01230023DBB21A461D4B1A7006F0BFFB1C4B1B78184604F082FC184B1B78DBB21A46184B985C0623FE22082104F0B1FD134B1B78DBB21A46134B11
:40024000985C104B1B78DBB2DB00114A13449BB21A4646F2585104F0DFFD0B4B1A78094B1B78DBB21946094B5B5C1946104604F0F7FC054B1B780121184604F00DFC00BFA3
:4002800080BD00BFA582FF1FA09BFF1FC0A1FF1FC0A3FF1F80B500AF06F06CFD08F05AFF00F002F800BF80BD80B500AF184B02221849002003F0DEFD03461A46164B1A70DC
:4002C00007F0F0F80346012B20D1124B1B78DBB2012B0CD1114B00221A700D4B02220F49002003F04DFF0E4B01221A700EE00B4B01221A70064B02220849002003F040FFE9
:4003000006F0CEFE05F022FC04F07CFF00BF80BD24AEFF1FBC82FF1F40A2FF1FC082FF1F8C82FF1F80B582B000AF7860134978680BF032FC0346002B02D04FF0000319E0D1
:400340000F4978680BF03CFC0346002B04D00C48FFF7E8FF03460DE00A4978680BF074FA0346184609F0EEFA0346074918460BF06BFA034618460837BD4680BD0080BBC4C3
:400380000060BB4420986C3D13D0024180B582B000AF78604FF0000178680BF011FC0346002B0ED0094978680BF04EFA0346184609F03AFB0346064918460BF045FA03462C
:4003C00000E0044B18460837BD4680BDD27EFA3DAC7F8A410080BBC4B0B584B000AFF860B9607A603B603968386A0BF023F903461C46B968F8680BF01DF903461D46B968E3
:4004000078680BF017F90346194628460BF0D0FA0346194620460BF017FA0346396818460BF00AF9034618461037BD46B0BD00BF90B59BB002AF62B609F01CF90023FB658F
:400440006EE05D4AFB6D32F8133018460BF0A4F904465A4AFB6D32F8133018460BF09CF90346194620460BF0E5F803463B63534AFB6D32F8133018460BF092F90446504905
:40048000386B0BF0E1F90346194620460BF0D4F8034618460BF0DAFB034699B2474AFB6D22F81310444AFB6D32F8133018460BF077F904464249386B0BF0C6F903461946A8
:4004C00020460BF0B7F8034618460BF0BFFB034699B2394AFB6D22F81310374AFB6D32F8133018460BF058F90446344AFB6D32F8133018460BF050F90346194620460BF08C
:4005000099F803463B63396B2E480BF051FA034619462D4AFB6D42F82310FB6D0133FB65FB6D092B8DDD002009F034F903461A46264B1A70012009F02DF903461A46234BAC
:400540005A700023BB65B3E000237B6523E0BB6D9BB21A4612011A4492001A44520013445B009AB27B6D9BB213449BB202339BB2184609F00FF9034618461549BA6D134610
:40058000DB009B1A5B00CA187B6D134402461A707B6D01337B657B6D0D2BD8DD00233B657FE03A6D13465B001344DB000E33FB620023FB646FE000BF0481FF1FF080FF1F7E
:4005C000CDCCCC3D00F07F451097FF1FD480FF1F48A2FF1FFB6C07335B00BB62BB6A9AB2FB6A9BB213449AB2BB6D9BB21946090119448900194449000B445B009BB21344CF
:400600009BB202339BB2184609F0C4F80346FB84BB6A9AB2FB6A9BB213449AB2BB6D9BB21946090119448900194449000B445B009BB213449BB203339BB2184609F0AAF8C9
:400640000346BB84FB8C1A02BB8C134418460BF0A7F803464FF06E5118460BF0F5F803464FF0864118460AF0E5FF03461C469E483B6DB96D1A4652001A4493001A460B46EE
:400680005B010B449B001A44FB6C134440F82340FB6C0133FB64FB6C0B2B9BDD3B6D01333B653B6D0A2B7FF77CAFBB6D0133BB65BB6D062B7FF748AF06F0D4F9002008F017
:4006C00077FE012008F092FE002008F0ADFE002008F0C6FE854B184608F00EFD03461A46834B1A70002387F8233005F017FA012006F0B8FE7F4806F0EFFA06F0D3FE05F0E1
:4007000009F9002008F0C6FE012008F0FFFE05F043FE05F059FE06F0C5FE642004F082FD754B40221A7000220121702001F086F803461A46714B1A6002F012FE704B1B7875
:40074000184603230022022102F0CAFE02F0E4FE0246032301216B4802F076FE684B1B781A461346DB009B1A5B00674A9C1802F0D3FE024603230E21204602F065FE02F01D
:400780004BFE06F01FF805F0C5F806F0D5F800F0D1FF5E4808F0A0FD5D4808F04FFD5D4BFE229A775B4BFD22DA775B4B00221A705A4B1B78DBB2002B01D001F029FA564BD3
:4007C0001B78DBB2092B73D8534B1B78DBB21A46534B33F81220504B1B78DBB21946514B33F81130D31A9BB23B84B7F92030002B1CDD494B1B78DBB21C46B7F9203018468E
:400800000AF0CEFF444B1B78DBB21A46464B53F8223019460BF018F8034618460BF016FA03469AB2414B23F8142007E03A4B1B78DBB21A463D4B002123F81210364B1B7842
:40084000DBB21A46394B33F81230B3F5805F08D3314B1B78DBB21A46344B40F6FF7123F812102D4B1B78DBB21C462B4B1B78DBB21A462E4B33F8123018460AF08DFF0346D7
:400880002B4918460AF0E0FF03461A46294B43F82420214B1B78DBB21A461F4B1B78DBB21946224B33F81110234B23F8121076E0224B1B8818460AF06FFF0346204918467C
:4008C0000AF0C2FF034618460BF09AF903461AB21C4B1A801B4BB3F90030002B34DA194B00221A803AE000BF2884FF1F00D8000040A2FF1F95020000ACA2FF1F5CA4FF1FBB
:400900009682FF1F00DC000048A2FF1F85000000F901000030A4FF1FD182FF1F7E82FF1F889DFF1FF080FF1F1097FF1FBC83FF1F01088039E882FF1FA883FF1F1A81FF1F5E
:40094000C5F1803FCEA1FF1FA34BB3F90030B3F5805F03DBA04B40F6FF721A809E4BB3F900209E4BB3F900309A4213D09A4BB3F90030FB83FB8BDB099BB200221946152035
:4009800001F0DCF8FB8B03F07F0300221946162001F0D4F8904BB3F90020904B1A80904B1B78DBB20133DAB28D4B1A708C4B1B78DBB20B2B02D98A4B00221A70894B1B78DA
:4009C000DBB2002B0CBF01230023DBB2864ADB0013449B79DBB2FE2B40F05281814B1B78DBB2002B0CBF01230023DBB27E4ADB001344DB79DBB2FD2B40F042810023BB64E3
:400A00003AE1784B1B78DBB2002B0CBF01230023DBB21A46BB6C5B007349D2000A4413441B78DBB29BB21B029AB26E4B1B78DBB2002B0CBF01230023DBB21946BB6C5B007F
:400A400001336948C90001440B441B78DBB29BB2134499B2654ABB6C22F81310634ABB6C32F813309AB26249BB6C31F813309BB29A4200F0F5805D4ABB6C32F813309BB231
:400A80004FF6FF72934211D0584ABB6C32F813309BB218460AF084FE564ABB6C52F8233019460BF08DF80346002B06D0524ABB6C4FF07E5142F82310C3E04C4ABB6C32F818
:400AC00013309BB218460AF06BFE4A4ABB6C043352F8233019460BF069F80346002B32D0424ABB6C32F813309BB218460AF058FE404ABB6C52F8233019460BF04DF8034694
:400B0000002B20D0394ABB6C32F813309BB218460AF042FE0446374ABB6C52F82310354ABB6C043352F82320344B1868334B5B68009303462046FFF74FFC01462E4ABB6C1C
:400B400042F823107DE0294ABB6C32F813309BB218460AF025FE274ABB6C083352F8233019460BF023F80346002B49D01F4ABB6C32F813309BB218460AF012FE1D4ABB6C2A
:400B8000043352F8233019460AF0FCFF0346002B36D0164ABB6C32F813309BB218460AF0FBFD0446134ABB6C043352F82310114ABB6C083352F82320104B58680F4B9B68BE
:400BC000009303462046FFF707FC01460A4ABB6C42F8231035E000BFCEA1FF1FA083FF1FD182FF1FA582FF1FC0A3FF1F58A4FF1F44A2FF1F1C81FF1F6897FF1F6081FF1FBD
:400C0000724ABB6C32F813309BB218460AF0C4FD04466F4ABB6C083352F823106C4ABB6C0C3352F823206B4B98686A4BDB68009303462046FFF7D0FB0146674ABB6C42F869
:400C40002310654ABB6C52F8233019464FF07E500AF0AEFE03461946604ABB6C42F823105A4ABB6C32F8133099B25D4ABB6C22F81310BB6C0133BB64BB6C012B7FF7C1AE96
:400C800000237B641AE0574A7B6C32F813309AB255497B6C31F813309BB29A4202D0786C00F0AEFE4F4A7B6C32F8133099B24E4A7B6C22F813107B6C01337B644B4B1B6884
:400CC0007A6C9A42DFDB05F067FA0346002B23D1474B1B68042B02DD454B04221A60454B1B78002B08D0424B1B68002B04DD404B1B68013B3E4A1360012008F059FB002053
:400D000008F074FB002008F08FFB002008F0A8FB384B00221A7007E005F03EFA0346002B02D0344B01221A7005F046FA0346002B0ED12F4B05221A60002008F039FB01202A
:400D400008F054FB002008F06FFB002008F088FB05F042FA0346002B0ED1254B06221A60002008F025FB002008F040FB012008F05BFB002008F074FB05F03EFA0346002B57
:400D80003CD11B4B1B68062B02DC194B07221A60194B1B78002B08D0154B1B680A2B04DC134B1B680133124A1360002008F000FB002008F01BFB002008F036FB012008F0AE
:400DC0004FFB0D4B00221A7020E000BF58A4FF1F1C81FF1F6081FF1F6897FF1F3897FF1F44A2FF1FF896FF1FD083FF1FCC80FF1FD080FF1F7381FF1F7481FF1F05F0FCF900
:400E00000346002B02D0B04B01221A7008F0EAFB0346002B31D1AD4B00221A60AB4B1B68AB4AD25CAB4B1A70002008F033FB012008F06CFBA74B1B781846032300220221AD
:400E400002F04EFB02F068FB024603230121A24802F0FAFA9F4B1B781A461346DB009B1A5B009E4A9C1802F057FB024603230E21204602F0E9FA02F0CFFA08F0C3FB0346EF
:400E8000002B3AD1914B01221A60904B1B68904AD25C904B1A70012008F0FCFA002008F035FB8C4B1A78894B1B689BB21946104608F0E6FB874B1B78184603230022022198
:400EC00002F00EFB02F028FB024603230121824802F0BAFA7F4B1B781A461346DB009B1A5B007E4A9C1802F017FB024603230E21204602F0A9FA02F08FFA08F093FB03467F
:400F0000002B16D1764B1B78002B12D0754B1B78002B0CBF01230023DBB21A46714B1A70704B1B78184608F025FA6D4B00221A7007E008F077FB0346002B02D0684B0122E7
:400F40001A7008F0FFFA0346002B46D1664B1B78002B42D05F4B1B78013BDAB25D4B1A705C4B1B7803F01F03DAB25A4B1A70574B1B68584A1178564AD154564B1A78534BC3
:400F80001B689BB21946104608F07AFB514B1B78184603230022022102F0A2FA02F0BCFA0246032301214C4802F04EFA494B1B781A461346DB009B1A5B00484A9C1802F0B0
:400FC000ABFA024603230E21204602F03DFA02F023FA454B00221A7007E008F0B3FA0346002B02D0404B01221A7008F0BBFA0346002B46D13D4B1B78002B42D0354B1B7828
:401000000133DAB2334B1A70324B1B7803F01F03DAB2304B1A702D4B1B682E4A11782C4AD1542C4B1A78294B1B689BB21946104608F026FB274B1B781846032300220221B2
:4010400002F04EFA02F068FA024603230121224802F0FAF91F4B1B781A461346DB009B1A5B001E4A9C1802F057FA024603230E21204602F0E9F902F0CFF91C4B00221A705F
:4010800007E008F06FFA0346002B02D0174B01221A7008F077FA0346002B2DD1144B1B78002B29D0134B1B78013BDAB2114B1A70104B1B7803F03F03DAB20E4B1A700C4B1A
:4010C00000221A7020E000BF7481FF1F1083FF1FD480FF1F9682FF1F00DC000048A2FF1F7181FF1FD382FF1FDC82FF1FDD82FF1FDE82FF1FE082FF1F08F044FA0346002B11
:4011000002D0514B01221A7008F04CFA0346002B14D14E4B1B78002B10D04D4B1B780133DAB24B4B1A704A4B1B7803F03F03DAB2474B1A70454B00221A7007E008F032FA6F
:401140000346002B02D0414B01221A7008F07AFA0346002B16D13F4B1B78002B12D03E4B1B78002B0CBF01230023DBB21A463A4B1A70394B1B78184608F0AAF9354B0022F8
:401180001A7007E008F05EFA0346002B02D0314B01221A70314B1B68314A136000233B644BE03B6C9BB2184605F014F90346002B00DA1F335B111BB2D9B22A4A3B6C1344FB
:4011C0000A461A703B6C012B16D0264A3B6C13441B7818460AF0E4FA0346194622480AF029FA034618460AF031FD0346D9B21D4A3B6C13440A461A701A4A3B6C13441A7820
:401200001A493B6C0B441B789A420AD03B6C03F11100144A3B6C13441B780022194600F08DFC104A3B6C13441978104A3B6C13440A461A703B6C01333B643B6C032BB0DD80
:401240000023FB639DE100BFDE82FF1FDF82FF1FE082FF1F7281FF1FD482FF1FD080FF1F9C82FF1F9C9DFF1F0000FE4254A4FF1FA94B1A68A94913465B0113449B00FA6BE3
:40128000134451F82340A64B1B781A46A34913465B0113449B00FA6B1344303351F82320A04B1B68194610460AF0CEFA0346194620460AF0C1F903461C46994B1B781A46E0
:4012C000964913465B0113449B00FA6B13443C3351F82320934B5B68194610460AF0B4FA0346194620460AF0A7F903461C468C4B1B781A46894913465B0113449B00FA6BB8
:401300001344483351F82320864B9B68194610460AF09AFA0346194620460AF08DF903461C467F4B1B781A467C4913465B0113449B00FA6B1344543351F82320794BDB6800
:40134000194610460AF080FA0346194620460AF073F903461C46724B1B781A466F4913465B0113449B00FA6B1344603351F823206C4B1B69194610460AF066FA0346194649
:4013800020460AF059F903461C46654B1B781A46624913465B0113449B00FA6B1344783351F823205F4B5B69194610460AF04CFA0346194620460AF03FF903461C46584BF7
:4013C0001B781A46554913465B0113449B00FA6B13446C3351F82320524B9B69194610460AF032FA0346194620460AF025F903461C464B4B1B781A46484913465B0113445B
:401400009B00FA6B1344243351F82320454BDB69194610460AF018FA0346194620460AF00BF903461C463E4B1B781A463B4913465B0113449B00FA6B13440C3351F82320F8
:40144000384B1B6A194610460AF0FEF90346194620460AF0F1F803461C46314B1B781A462E4913465B0113449B00FA6B1344183351F823202B4B5B6A194610460AF0E4F93B
:401480000346194620460AF0D7F80346BB61244B1B781A46214913465B0113449B00FA6B134451F823307B6178690AF0A9FB01461D4AFB6B42F823101C4B1C68B869FEF748
:4014C00031FF0346194620460AF0BEF903461846FEF75CFF3861144AFB6B52F8233018460AF05EF90346194638690AF0A3F80346FB600F49F8680AF0A7F903464FF08C4134
:4015000018460AF099F80346BB600A4AFB6B52F82330B96818460FE01083FF1F2884FF1F9682FF1FE882FF1FD0A3FF1F3897FF1FABAA2A43C896FF1F0AF01AFB0346002B21
:401540000AD1B8680AF082FB03461A46FB6B01331946104600F026FB6649FB6BBA6841F823204FF00001B8690AF02AFB0346002B04D06149FB6BBA6941F82320FB6B01332C
:40158000FB635E4B1B68FA6B9A42FFF671AE08F019F80346002B10D005F07CFA03469800574B1B68564A126856498A5CD1B2C2B20A44D1B2534AD1540FE005F06BFA0346C3
:4015C00018464F4B1B684E4A12684E498A5CD1B2C2B20A44D1B24B4AD154002005F06CFA494B1B78DBB2002B01D000F07DF9474B1B78DBB2002B13D005F054FF0346002B52
:401600000ED0434B1B88402B05D9424B1B8801339AB2404B1A803E4B00221A8000F08EF93D4B01221A700023BB6324E0324ABB6B52F823304FF0884118460AF005F9034661
:40164000184608F05BF9034618460AF0D9FA03467B60BB6B5B0001337A681212D1B22E4AD154BB6B01335B007A68D1B22A4AD154BB6B0133BB63BB6B0B2BD7DD274B1B780D
:401680001B015AB2264B1B685BB213435AB2254B1B785B015BB213435AB2234B1B789B015BB213435BB2DAB21B4B1A761F4B1A78194B5A761E4BB3F900301B121BB2DAB247
:4016C000154B9A761A4BB3F90030DAB2124BDA7600237B6309E0104A7B6B13441B78184604F052F97B6B01337B637B6B1F2BF2DDFFF75EB8C896FF1F00A4FF1FCC80FF1FA4
:40170000D882FF1F1884FF1F8C82FF1F8B82FF1F9282FF1F9482FF1F30A4FF1FD482FF1FD080FF1FD382FF1FD282FF1FE082FF1FCEA1FF1F80B500AF41F6FF734FF4804262
:401740000121012007F016FD03461A46334B1A7003F0F4FA03461A46314B1A7003F0EEFA03461A462E4B5A702D4B18780223FE221A2103F011FB2A4B58780223FE221A21C8
:4017800003F00AFB264B1B78264A92B246F25741184603F041FB224B5B78234A92B246F25741184603F038FB41F6FF734FF480420121012007F010FD03461A461B4B1A7049
:4017C00003F0BCFA03461A46194B1A7003F0B6FA03461A46164B5A70154B18780623FE22082103F0D9FA124B58780623FE22082103F0D2FA0E4B1B780E4A92B246F2585143
:40180000184603F009FB0A4B5B780B4A92B246F25851184603F000FB00BF80BDCCA1FF1FA483FF1FE0A1FF1FFAA1FF1FA09BFF1FC0A1FF1FC0A3FF1FC8A3FF1F80B584B0F6
:4018400000AF0346FB710B46BB801346BB714CF25033FB6004F082FC0346FB72FB7ADBB25BB2002B32DBBB88DAB2BB79F8791A4904F0C8FB0346FB72FB7ADBB2002B21D105
:4018800004F044FC0346FB72FB68013BFB60FB7ADBB2802B01D100F021F8FB68002B03D18023FB7200F01AF8FB7ADBB203F08203002B0BD1FB7ADBB2002B07D0FB68002B35
:4018C000DED103E08023FB7200F008F8FB7ADBB218461037BD4680BDACA2FF1F80B400AF00BFBD4680BC704780B500AF05F0DAFD0346002B05D105F0D3FB0E4B00221A70A9
:4019000013E00C4B1B78DBB2002B0ED10021002005F03CFA00BF05F043FC0346002BFAD007F00AF9034B01221A70034B00221A7000BF80BD8B82FF1F8C82FF1F80B500AF70
:4019400005F03AFC0346002B10D005F029FC0346002B0BD0244B1B78DBB2002B06D005F0A1FD0346002B01D007F0E6F805F018FC0346002B35D005F01FFC0346002B18D054
:401980001A4B1B78D8B21A4B1B78DBB29BB21A46184905F06FFC184B1B78DBB240221749184605F0EBFC144B1B78DBB2184605F02BFD0D4B1B78DBB2002B06D005F072FD5C
:4019C0000346002B01D007F037F9074B1B78DBB2002B06D005F066FD0346002B01D007F0BDF800BF80BD00BF8B82FF1FE0ADFF1FE1ADFF1FE4ADFF1FE2ADFF1FA0ADFF1FBB
:401A000080B586B000AF78602C4A7B6832F81330FB82FB8A002B43D0FB8A184609F0BCFE03463B614FF05E51386909F00DFF03463B61386908F0EAF938612149386909F0A1
:401A4000F9FD03463B611F49386909F0FDFE03463B6138690AF0D4F80346FB82FB8A7F2B01D97F23FB82184B1B681A1F13465B0013449B001946154A7B6852F823300B4402
:401A8000FB60FB8ADBB219467B6801331A46F86800F020F80E497B68FA6841F8232009E00B4A7B6852F823007B6801331A46002100F010F800BF1837BD4680BDF896FF1F4B
:401AC0000918C43C551D0243D080FF1FD0A3FF1F1483FF1F80B584B000AFF860B9607A607B68DBB2703BDAB2114B1A70FB68DAB20F4B5A70BB68DAB20D4B9A700D4B1B785B
:401B0000DBB2002B09D005F0CDFC0346002B04D000220749032007F095F8074B1B8804339AB2054B1A8000BF1037BD4680BD00BFD092FF1F8B82FF1F9282FF1F80B584B048
:401B400000AFF860B9607A607B68DBB2503BDAB2114B1A70FB68DAB20F4B5A70BB68DAB20D4B9A700D4B1B78DBB2002B09D005F099FC0346002B04D000220749032007F000
:401B800061F8074B1B8804339AB2054B1A8000BF1037BD4680BD00BFD092FF1F8B82FF1F9282FF1F80B582B000AF786039603B68DBB2203BDAB2134B1A707B68DBB203F09F
:401BC0007F03DAB20F4B5A707B68DB11DAB20D4B9A700D4B1B78DBB2002B09D005F062FC0346002B04D000220649032007F02AF8064B1B8804339AB2044B1A8000BF0837D4
:401C0000BD4680BDD092FF1F8B82FF1F9282FF1F90B58DB000AF8D4B01221A708C4B1B78002B40F049828B4B01221A708A4B00221A608A4B00221A70854B5A78884B1A70CD
:401C40000223FB621023FB7722E0FB6A023B8049FA6A0A44127802F07F02D1B2814AD1547F4B1B781846FB6A9A1E7949FB6A0B441B7803F07F03DCB27B490346DB001B1AAD
:401C80005B000B44134422461A70FB6A0133FB62FA7FFB6A9A42D8D80E23BB836F4B02221A7002E20023BB60BB686949FA6A0A44127812071343BB60BB68FA6A01326449D6
:401CC0008A5C52051343BB60BB68FA6A023260498A5C92031343BB60BB68FA6A03325C498A5CD2011343BB60BA68FB6A04335849CB5C03F07F031343BB60BB685B4A1360B4
:401D0000564B1B78022B40F0C780534B1B68002B22D1BB68184609F099FF03469AB2544B1A80BA8B4C4B1B68591C4B48016013444F4A1288120A92B2D1B24A4AD154BA8B79
:401D4000454B1B68591C444801601344484A1288D1B2444AD154A5E1454B1B8801335B001A463D4B1B689A4223D9BB684149184609F06AFD0346184609F068FF03467B83F1
:401D8000BA8B354B1B68591C3348016013447A8B120A92B2D1B2334AD154BA8B2E4B1B68591C2D48016013447A8BD1B22D4AD15478E12F4B1B8801335B001A46264B1B6849
:401DC0009A4240F06F81BB682B4A13602A4B1B682A49184609F0D6FE0346002B23D0264B1B682749184609F0EBFE0346002B1AD0BA8B194B1B68591C174801601344194AC2
:401E0000EF21D154BA8B144B1B68591C124801601344144AEF21D154104B03221A70194B00221A603EE1184B1B680133164A1360084B00221A70154B00221A60144B00229A
:401E40001A70144B00221A702CE100BF6182FF1FA09DFF1F6A82FF1F7082FF1F6582FF1F6282FF1F9897FF1FD492FF1F8482FF1F7882FF1F00FF7F478082FF1F0000C0BF13
:401E8000000020C07482FF1F4883FF1F5C82FF1F6C82FF1F7E82FF1F964B1B78032B28D1BB68184609F0D2FE03469AB2924B1A80BA8B924B1B68591C9048016013448E4AAC
:401EC0001288120A92B2D1B28D4AD154BA8B8B4B1B68591C894801601344874A1288D1B2874AD154834B04221A70864B00221A80D8E0804B1B78042B40F0D480814B1A88A7
:401F00007D4B1B889A4280F086807F4B1B6803F00303002B0FD1BA8B784B1B68591C77480160D418BB68184609F090FE0346DAB2734B1A5569E0744B1B6803F00303012BCD
:401F40000FD1BA8B6D4B1B68591C6C480160D418BB68184609F07AFE0346DAB2684B1A5553E0694B1B6803F00303022B23D1BB684FF00001184609F005FE0346002B0AD013
:401F8000BA8B5E4B1B68591C5C48016013445C4AFF21D15439E0BA8B584B1B68591C57480160D418BB68184609F050FE0346DAB2534B1A5529E0BB685449184609F044FC05
:401FC0000346184609F01CFE03463B83BA8B4B4B1B68591C494801601344B7F91820121212B2D1B2464AD154BA8B444B1B68591C4248016013443A8BD1B2414AD154414B6A
:402000001B8801339AB23F4B1A803F4B1B6801333D4A136046E0BB683D49184609F0B2FD0346002B2DD0BB683A49184609F0C8FD0346002B25D0BA8B304B1B68591C2F487E
:40204000016013442E4AFE21D154BA8B2B4B1B68591C2A4801601344294AFE21D154254B05221A702C4B00221A702C4B01221A70224B1B689AB2BB8B13449AB2284B1A80BE
:4020800010E0284B1B680133264A1360224B00221A70254B00221A60204B00221A70234B00221A70FB6A0533FB621F4B1B68FA6A9A42FFF4F7AD98E11D4B1B78022B40F03E
:4020C0009481154B01221A700C4B00221A60184B5A78184B1A70174B1A78174B1A70174B1B68154A1178164AD1540223BB621023FB7565E06582FF1F7A82FF1F7082FF1F1E
:402100009897FF1F7C82FF1F7482FF1F00FEFF46000020C0000060C06A82FF1F6C82FF1F6882FF1F4883FF1F5C82FF1F7E82FF1FA09DFF1F6382FF1F9682FF1F1083FF1F79
:40214000D480FF1F9A4ABB6A13441B7803F07F03BB75984B1B781846BB6A9A1E96490346DB001B1A5B000B441344BA7D1A70914B1B781A4692001A44520013445B00DBB25A
:402180000233DAB28D4B1A708A4B1B789BB21A4612011A4492001A44520013445B009AB2BB6A9BB213449AB2BB7D1146184607F067FA0346DAB2824B1A70BB6A0133BB623A
:4021C000FA7DBB6A9A42BDD81023BB62CFE000237B62C8E07B6A9BB21A4652001344DB009BB20E33BB8200233B62B5E000237B607B686F49BA6A0A441278120713437B6016
:402200007B68BA6A01326A498A5C520513437B607B68BA6A023266498A5C920313437B607B68BA6A033262498A5CD20113437B607A68BB6A04335E49CB5C03F07F03134305
:402240007B605C4B1B781C4679685E487B6A1A4652001A4493001A4623465B0123449B001A443B6A134440F823107B684FF08741184609F0E9FA03464FF08E41184609F01A
:40228000DBF90346184609F0E1FC03467B827B8A1B0A9BB27B747B8A3B743B6A07339BB25B00FB81FB89DAB2BB8ADBB21344DAB2404B1B7819468900194449000B445B004F
:4022C000DBB21344DBB20233DAB23C4B1A70FA89BB8A13449AB2374B1B789BB21946090119448900194449000B445B009BB213449BB202339AB27B7C1146184607F0C0F961
:402300000346DAB22E4B1A70FA89BB8A13449AB2284B1B789BB21946090119448900194449000B445B009BB213449BB203339AB23B7C1146184607F0A3F90346DAB2204BB6
:402340001A70214B1B6801331F4A1360BB6A0533BB623B6A01333B623B6A0B2B7FF646AF7B6A01337B627B6A0A2B7FF633AF174B1B68BA6A9A42FFF42AAF134B1B689AB25A
:40238000134B1A80124B1B88842B2BD0114B1B680133104A1360104B00221A700B4B00221A600E4B00221A700D4B00221A701CE0A09DFF1F6382FF1F48A2FF1F4583FF1F51
:4023C0004483FF1F2884FF1F7082FF1F5C82FF1F6882FF1F4883FF1F6A82FF1F6C82FF1F7E82FF1F194B00221A70194B1B78184603230022022101F073F801F08DF8024613
:4024000003230121134801F01FF8114B1B781A461346DB009B1A5B000F4A9C1801F07CF8024603230E21204601F00EF800F0F4FF0A4B00221A700A4B00221A60094B0022A7
:402440001A7000BF3437BD4690BD00BF6A82FF1F9682FF1F00DC000048A2FF1F6182FF1F5C82FF1F7E82FF1F80B584B000AF03463960FB713B681A78434B1A703B685A7832
:40248000414B5A703B689A783F4B9A703B68DA783D4BDA703D4B1B78DBB2002B71D005F001F80346002B6CD0394B1B78002B29D00023FB6022E0FB683A6813441B785BB24D
:4024C000002B0EDB334B1B685A1C32490A6040F2FF321340FA6839680A4411782E4AD15409E0FB683A6813441B78F72B03D1284B00221A7045E0FB680133FB60FB68022BAB
:40250000D9DD3EE03B681B78F02B3AD1234B1B78002B36D13B6801331B787E2B03D1204B01221A702DE03B6801331B78002B09D03B6801331B78012B04D03B6801331B78EA
:40254000022B1ED1124B01221A70124B1B68002B17D1104B1B685A1C0E490A6040F2FF3213403A6851780C4AD1540A4B1B685A1C08490A6040F2FF3213403A689178064AD7
:40258000D1541037BD4680BDA0A1FF1F8B82FF1F6082FF1F5C82FF1FA09DFF1F6182FF1F7E82FF1F80B483B000AF78600B467B8013463B807B687A881A807B683A885A8023
:4025C0007A887B689A803A887B68DA807B6800221A817B6800225A817B6800229A817B680122DA817B684FF6FF721A827B684FF6FF725A827B6801229A827B680022DA82AF
:402600007B6800229A617B6800221A817B680022DA837B6808229A8300BF0C37BD4680BC704700BF80B58AB000AFF860084611461A4603467B810B463B811346FB80B7F966
:402640003020B7F90830D31A83EAE372A2EBE372B7F90610B7F90A30CB1A002BB8BF5B429A42CCBF01230023DBB27B84B7F92230002B0BD07B893B843B897B813B8C3B8175
:40268000FB88FB833B8EFB80FB8B3B86B7F90A20B7F906309A420BDD7B89BB83FB887B81BB8BFB803B897B833B8E3B817B8B3B86FA887B89D31A9BB23B83B7F93020B7F94C
:4026C0000830D31A002BB8BF5B42FB82B7F91830DA0F13445B10FB84B7F90820B7F930309A4202DA0123BB8431E04FF6FF73BB842DE0B7F92230002B08D0BB8EB7F90A2098
:40270000B7F90810F86800F01DF907E0BB8EB7F90820B7F90A10F86800F014F9FA8CFB8AD31A9BB2FB84B7F92630002B09DA3A89BB8C13449BB23B81FA8C3B8B13449BB20A
:40274000FB84B7F90A309BB201339BB27B81B7F90A20B7F906309A42CBDD00BF2837BD4680BD00BF80B586B000AFF860084611461A4603467B810B463B811346FB80B7F978
:402780000A30002BC0F2D780B7F90A30FA689288934280F2D080B7F90830002BC0F2CB80B7F90830FA68D288934280F2C480F86800F00EFD0346022B14D0032B27D0012B69
:4027C00036D17B89FB823B897B81FB8A3B81FB68B3F900309AB27B89D31A9BB2013B9BB27B8125E0FB68B3F900309AB27B89D31A9BB2013B9BB27B81FB68B3F902309AB222
:402800003B89D31A9BB2013B9BB23B8110E07B89BB823B897B81BB8A3B81FB68B3F902309AB23B89D31A9BB2013B9BB23B8100BFFB88012B04D0022B54D0002B28D07BE082
:40284000B7F90A20B7F90830002B00DA0733DB1018B20146FB68B3F9003003FB01F31344B7F90A10FA68B2F9002002FB00F20A4433498A5C51B23A8902F00702012000FA61
:4028800002F252B20A4352B2D1B22D4AD15453E0B7F90A20B7F90830002B00DA0733DB1018B20146FB68B3F9003003FB01F31344B7F90A10FA68B2F9002002FB00F20A44C4
:4028C0001F498A5C51B23A8902F00702012000FA02F252B2D24352B20A4052B2D1B2184AD15429E0B7F90A20B7F90830002B00DA0733DB1018B20146FB68B3F9003003FB02
:4029000001F31344B7F90A10FA68B2F9002002FB00F20A440A498A5C51B23A8902F00702012000FA02F252B24A4052B2D1B2044AD15400BF00E000BF1837BD4680BD00BFDB
:40294000D8A8FF1F80B584B000AFF860084611461A4603467B810B463B811346FB80FB88B7F90820B7F90A10F868FFF7FBFE00BF1037BD4680BD00BF80B586B002AFF86031
:40298000084611461A4603467B810B463B811346FB80B7F90600B7F90820B7F90A103B8B00930346F86800F025F800BF1037BD4680BD00BF80B586B002AFF8600846114667
:4029C0001A4603467B810B463B811346FB80B7F90600B7F90820B7F90A10BB8B0193B7F9183000930346F86800F02AF800BF1037BD4680BD90B587B002AFF8600846114669
:402A00001A4603467B810B463B811346FB803A89FB8813449BB2013B9BB21BB2B7F90A40B7F90800B7F90A103A8C0192009323460246F868FFF7F6FD00BF1437BD4690BD14
:402A400080B588B002AFF860084611461A4603467B810B463B811346FB807B89FB8211E0B7F92000B7F90820B7F91610BB8C00930346F868FFF780FFB7F916309BB2013356
:402A80009BB2FB82B7F91620B7F90A10B7F906300B449A42E4DB00BF1837BD4680BD00BF90B58FB002AFF860084611461A4603467B810B463B811346FB71FB689B69002B84
:402AC00040F02E81B7F90A30FA689288934280F2E981B7F90830FA68D288934280F2E281B7F90A1097F8482013465B0013445B000B44013B002BC0F2D581B7F9082097F846
:402B00004830DB001344013B002BC0F2CB81FB68DB8A002B05D1FB79AF2B02D9FB790133FB71002387F82F30BCE0FB689969FA7913469B001A4497F92F3013441A461346BA
:402B40005B0013449B000B441B7887F82E30002387F82D309AE097F82E3003F00103002B41D097F84830012B13D197F92F309AB27B8913449BB219B297F92D309AB23B89EE
:402B800013449BB21AB2B7F84030F868FFF7DAFE70E097F92F309BB297F8482092B202FB03F39AB27B8913449BB219B297F92D309BB297F8482092B202FB03F39AB23B8967
:402BC00013449BB218B297F848301CB297F848301BB2B7F840200192009323460246F868FFF7E8FE46E0B7F84420B7F840309A4240D097F84830012B13D197F92F309AB206
:402C00007B8913449BB219B297F92D309AB23B8913449BB21AB2B7F84430F868FFF792FE28E097F92F309BB297F8482092B202FB03F39AB27B8913449BB219B297F92D308D
:402C40009BB297F8482092B202FB03F39AB23B8913449BB218B297F848301CB297F848301BB2B7F844200192009323460246F868FFF7A0FE97F92D30DBB20133DBB287F81A
:402C80002D3097F82E305B0887F82E3097F92D30072B7FF760AF97F92F30DBB20133DBB287F82F3097F92F30042B7FF73EAFB7F84420B7F840309A4200F0F58097F84830D0
:402CC000012B0DD17B8905339BB219B2B7F90820B7F8443000930823F868FFF74DFEE2E097F848309BB21A46920013449AB27B8913449BB219B297F848301CB297F8483022
:402D00009BB2DB009BB21BB2B7F90800B7F844200192009323460246F868FFF74BFEC2E0FB689B6908331B78FA79D31AFB71FB79DA00FB689B69043318CB1344FB61FB6888
:402D40009B6918CBBB61FB691B887B85FB699B78FB75FB69DB78BB75FB6905331B787B75FB6906331B783B75002387F82730002387F826300023BB8400237B8497F8483000
:402D8000012B05D997F91530BB8497F914307B84002387F828307EE0002387F8293070E097F826305A1C87F8262003F00703002B08D17B8D5A1C7A851A46BB6913441B7873
:402DC00087F8273097F92730002B50DA97F84830012B1DD197F915309AB27B8913449AB297F829309BB213449BB219B297F914309AB23B8913449AB297F828309BB2134422
:402E00009BB21AB2B7F84030F868FFF79BFD2EE0B7F9242097F8293013449BB297F8482092B202FB03F39AB27B8913449BB219B2B7F9222097F8283013449BB297F848207D
:402E400092B202FB03F39AB23B8913449BB218B297F848301CB297F848301BB2B7F840200192009323460246F868FFF7A3FD97F827305B0087F8273097F82930013387F866
:402E8000293097F82920FB7D9A4289D397F82830013387F8283097F82820BB7D9A42FFF47BAF00E000BF3437BD4690BD80B584B000AF78600B467B807B689B8A002B19D085
:402EC0007B689B891A46B7F9023013447A68928893420FDB7B6800229A817B685A897B689B8B7968C98901FB03F39BB213449AB27B685A817B681B8C002B4FD07B689B69FA
:402F0000002B0AD17B689B8B7A68D28902FB03F39BB2013B9BB2FB8101E00023FB817B685A89FB8913449AB27B68DB8B7968C98901FB03F39BB21344BB817B68DB88BA89BC
:402F40009A422BD3BB89DAB27B68DB88DBB2D31ADBB20133D9B27B681A8A7B685B8A9A4202D07B685B8A00E000231A46786800F0E9F97B6800229A817B68DA88FB89D31AEB
:402F80009AB27B68DB8B7968C98901FB03F39BB2D31A9BB2013B9AB27B685A8100BF1037BD4680BDB0B58AB004AF78600B46FB707B689B69002B45D1FB780A2B10D17B68CA
:402FC0005A897B689B8B7968C98901FB03F39BB213449AB27B685A817B6800229A81AAE0FB780D2B00F0A7807B68DB899B009BB21BB219467868FFF759FF7B689B8918B24C
:403000007B685B891CB27B681B8A7A68528A7968C989C9B2FD780291019200932B46224601467868FFF73CFD7B689A897B68DB89194649000B445B009BB213449AB27B6838
:403040009A8178E0FB780A2B13D17B6800229A817B685A897B68DB89796889690A31097889B201FB03F39BB213449AB27B685A8161E0FB780D2B5ED07B689B691B7AFB75B4
:40308000FA78FB7D9A4256D37B689B6909331B78FA789A424FD8FA78FB7DD31ADA007B689B69043318CB13443B613B699B78FB733B69DB78BB73FB7B002B2DD0BB7B002B08
:4030C0002AD03B6905331B785BB2BB817B68DB89B7F90C10FA7B0A4492B202FB03F39BB21BB219467868FFF7E1FE7B689B8918B27B685B891CB27B681B8A7A68528A796856
:40310000C989C9B2FD780291019200932B46224601467868FFF7C4FC7B689A893B6904331B789BB27968C98901FB03F39BB213449AB27B689A8100BF1837BD46B0BD00BFCD
:4031400080B483B000AF78600B467B8013463B807A887B689A813A887B685A8100BF0C37BD4680BC704700BF80B483B000AF78607B689B891BB218460C37BD4680BC704771
:4031800080B483B000AF78600B46FB70FB78002B02D0FB789AB200E001227B68DA8100BF0C37BD4680BC704780B483B000AF78600B467B8013463B807B687A881A827B684B
:4031C0003A885A8200BF0C37BD4680BC704700BF80B483B000AF78607B681B89DBB218460C37BD4680BC704790B486B000AF786039603B68002B0AD07B689B69002B59D163
:403200007B685B8906339AB27B685A8152E07B689B69002B3ED07B680022DA833B6808331B78BB753B6809331B787B75BB7DFB7525E0FA7DBB7DD31ADA003B68043318CBED
:4032400013443B613B6903331B78FB733B6906331B78BB73FA7B97F90E3013447A68D28B934209DDFB7B1AB297F90E301BB213441BB29AB27B68DA83FB7D0133FB75FA7D2E
:403280007B7D9A42D5D93B680A331B789AB27B689A830FE07B689B69002B05D07B685B89063B9AB27B685A817B6808229A837B680022DA837B683A689A6100BF1837BD46C8
:4032C00090BC704780B588B000AFF860B9601346FB710023FB6129E0FB795A1EFB69D31A184608F05DFA03461946154806F010FC0346184608F0AAFC0346BB61BB69BA6810
:40330000B2FBF3F37B61FB69FA6813447A69D2B23032D2B21A707B69BA6902FB03F31A46BB689B1ABB60FB690133FB61FA79FB699A42D1DCFB7918462037BD4680BD00BF61
:403340000000204180B483B000AF78600B46FB7013463B8000BF0C37BD4680BC704700BF80B582B000AF022000F0E0F800237B6007E0134A7B68134400221A707B68013338
:403380007B607B68B3F5806FF3DB402280210D48FFF708F90C490B48FFF726FF002201210848FFF701FF01210648FFF7E9FE00F00DF800F031F800BF0837BD4680BD00BFF6
:4033C000D8A8FF1FB0A4FF1FBCCD010080B588B000AF00F027F83B1D184608F0E1FF03461A463B1D13440A491A460B461B8813803B1D184608F0D4FF0346FB61012300227C
:403400000C21044800F020F800BF2037BD4680BD94DB010098DB010080B500AF00F00EF900BF80BD80B582B002AF00230193402300938023002200210248FFF701FB00BF54
:40344000BD4680BDB0A4FF1F90B58BB002AFF860B9607A60FB707B68BB61FB7803F003031B010C337B61BB691BB27A6912B219461A48FFF765FE7B6819B2FB789BB21B01D5
:403480009BB218B2BB689BB21A46520013449B009BB21CB2FB7801339BB21B019BB21BB2002201920093234602460C48FFF7C8FA0023FB610AE0FB69FA6813441B7819461F
:4034C0000648FFF76FFDFB690133FB61FA69BB689A42F0DB00BF2437BD4690BDB0A4FF1F80B586B000AFF860B9607A60FB70BB68DBB21A46F9680748FFF7E4FE7861FB786B
:403500007A6879690348FFF79FFF00BF1837BD4680BD00BF90A4FF1F80B500AF0248FFF723FE0346184680BDB0A4FF1F80B582B000AF0346FB71354AFB791370AE2000F0EF
:4035400067F8D52000F064F8802000F061F8A82000F05EF83F2000F05BF8D32000F058F8002000F055F8402000F052F88D2000F04FF8FB79012B03D1102000F049F802E04D
:40358000142000F045F8202000F042F8002000F03FF8A12000F03CF8C82000F039F8DA2000F036F8122000F033F8812000F030F8FB79012B03D19F2000F02AF802E0CF20D7
:4035C00000F026F8D92000F023F8FB79012B03D1222000F01DF802E0F12000F019F8DB2000F016F8402000F013F8A42000F010F8A62000F00DF82E2000F00AF8AF2000F040
:4036000007F800BF0837BD4680BD00BFD8ACFF1F80B582B000AF0346FB71074B00221A70054AFB795370002202213C20FEF706F900BF0837BD4680BDACA2FF1F80B584B0F5
:4036400000AF00F075F80020FFF7E2FF1020FFF7DFFF4020FFF7DCFF4023FB718423BB7100237B7102233B71FB79DB08FB71BB79DB08BB7100233B6000237B730023FB732A
:4036800049E0FA7B7B791344DBB2503BDBB21846FFF7BEFF3B7903F00F03DBB21846FFF7B7FF3B791B09DBB243F01003DBB21846FFF7AEFF1C4B40221A700023BB7324E03A
:4036C0000023BB600EE0BB680133BA79797B01FB02F1BA680A441549895C134AD154BB680133BB60BA79BB689A42ECDC7B7B01337B73BB799BB201339BB2002219463C2099
:40370000FEF79CF8BB7B0133BB73BB7B072BD7D9FB7B0133FB73FA7BFB799A42B1D300BF1037BD4680BD00BFACA2FF1FD8A8FF1F80B500AF0021002000F002F800BF80BDD5
:4037400080B582B000AF03460A46FB711346BB7197F90630002B01DA7F23BB71FB79072B01D90723FB712120FFF752FFBB791846FFF74EFF7F20FFF74BFF2220FFF748FF3E
:40378000FB791846FFF744FF0320FFF741FF00BF0837BD4680BD00BF80B582B000AF786039603A680021786808F0A7FA00BF0837BD4680BD80B584B000AFF860B9607A6044
:4037C0007A68B968F86808F08DFA00BF1037BD4680BD00BF80B483B000AF0346FB71FEE780B582B000AF3C4B03221A803B4B18221A703B4B01221A803A4B19221A703A4B7A
:4038000007221A80394B18221A70394B17221A80384B18221A70384B47221A80374B18221A70374B06221A70364B374A1278D2B21A70364B52221A70354B40F21A721A80EE
:40384000344B42F251221A800023FB7019237B6013E0FB785B00DAB22F4B1B78DBB203F00103DBB21343DBB203F00303FB70782005F0AEFF7B68013B7B607B68002B02D01D
:40388000FB78032BE5D17B68002B02D10320FFF7A1FF224B4FF480721A80204B07221A701F4B00221A701F4B48221A701B4B00221A701D4B00221A701C4B02221A701C4AA8
:4038C0001B4B1B78DBB243F01F03DBB2137000BF0837BD4680BD00BF80400040824000408440004086400040884000408A4000408C4000408E400040904000409240004086
:4039000000430040A14600400F010049004200402242004020420040254200400440004006400040084000400940004001400040A243004080B582B000AF1F4B1B78FB71D5
:403940001E4B1B78BB711E4B1B787B711D4AFB7903F00703DBB213701B4AFB791B09DBB21370164ABB7943F00303DBB21370144A7B7943F00303DBB21370144B0F221A70B0
:40398000134B40221A70134B40221A70124BF0221A70124B20221A700A2001F065FC084A7B791370054ABB7913700D4B66221A7000BF0837BD4680BDCF010049F8460040C7
:4039C000F94600406E5800406F5800400D5100400159004003590040205B0040235B00407658004080B586B000AF72B65D4B61221A70FFF7F5FE0023FB7513E0FA7D1346AA
:403A00005B0013445B00584A13443B613B691A683B699B889BB219461046FFF7BDFEFB7D0133FB75FB7D012BE8D90023FB751CE0FA7D13469B0013445B004C4A1344FB60CF
:403A4000FB681B68BB60FB685B687B60FB681A7A5B7A1B0213437B807B881A467968B868FFF7A8FEFB7D0133FB75FB7D542BDFD904223F493F48FFF79DFE04223E493F4845
:403A8000FFF798FE04223E493E48FFF793FE04223D493E48FFF78EFE3D4B3E4A1A603E4B3E4A1A603E4A3E4B1B78DBB243F00203DBB213703B4A3B4B1B78DBB243F002031B
:403AC000DBB21370384A384B1B78DBB243F04003DBB21370354A354B1B78DBB243F01003DBB21370082232493248FFF763FE082231493248FFF75EFE0A2231493148FFF79B
:403B000059FE0A2230493148FFF754FE0A2230493048FFF74FFE08222F493048FFF74AFE0A222F492F48FFF745FE0A222E492F48FFF740FE08222E492E48FFF73BFE2E4AB0
:403B40002D4B1B78DBB243F00803DBB21370FFF7F1FE0E2214492948FFF72CFE00BF1837BD4680BD00480040DCDB0100E8DB01008C240048007600409024004808760040A2
:403B800094240048107600409824004818760040D8060140040424A458140140040400C40350014013500140A0430040C2430040302400480251004038240048C25100403F
:403BC00040240048F05100404C24004810510040582400482051004064240048325100406C240048405100407824004850510040842400486251004022430040B04300400E
:403C000080B500AF08F042F803461B680C2B00D1FEE7FEE780B584B000AF7860104B1A687B6813441A460F4BD31AB3F5006F09DC0B4B1B68FB600A4B1A687B681344084A8F
:403C4000136007E008F022F802460C2313604FF0FF33FB60FB6818461037BD4680BD00BF7881FF1F68AEFF1F80B586B000AF224B7B61224B3B61204B7B6135E03B691B68E1
:403C8000FB603B695B68BB603B699B683B6000237B600CE0FB681A68BB681A60BB680433BB60FB680433FB607B6804337B607A683B689A42EED13B69DB683B6000237B607A
:403CC00008E0BB6800221A60BB680433BB607B6804337B607A683B689A42F2D13B6910333B617B69013B7B617B69002BC6D107F0D3FFFCF79DFBFEE701000000BCE2010091
:403D000080B582B000AF194B194A1A60194A194B1B6843F40073136000237B600FE07B68032B04D8144A7B6852F8233000E0134B13497A6841F822307B6801337B607B6831
:403D40002F2BECD90F4B1B78DAB20F4B1A700F4B0B4A1A60FFF746FE00F070FE0C4B00221A6000BF0837BD4680BD00BF0CED00E00004FA0514ED00E000000000013C00001C
:403D80000080FF1FBC760040C480FF1F08ED00E0C080FF1F80B584B000AF786039600123FB733B68002B5FD07B68002B5CD07B68DB68002B58D07B685B680A2B54D87B68A9
:403DC0001B68002B50D0786800F066FC0346FB73FB7B002B48D17B681A683B68DA607B685A683B681A617B681A7A3B681A757B685A7A3B685A757B68DA683B689A617B68D5
:403E00001B68DA097B681B6803F07F03002B01D0012300E000231A443B685A603B685B687A68526802FB03F31A027B68DB681A443B681A603B6808333968184600F046FBA3
:403E40003B689B681B68002B0ED13B681B7D002B0AD0386800F072FD0346FB733B6808333968184600F032FBFB7B18461037BD4680BD00BF80B59AB002AFF860B9607A608A
:403E80003B60012387F85F300023FB640023BB64BB687B647B68002B00F06B81FA687B681A443B68DB689A4200F26381BB68002B00F05F81FB683B647B68FB633B689B6843
:403EC0001B687B630023BB633A6CFB6B1344013BDA093B6CDB09D31A01333B633B689A683B689B69D21A3B685B681B02B2FBF3F33A68526802FB03F31A023B689B6913449D
:403F0000FB620023BB6518E0BB6DDA013B6C9A4208D8BB6D0133DB015A1E3B6C9A4201D3012300E00023002B04D0BB6DBB64BB6CFB6407E0BB6D0133BB653B685A68BB6D99
:403F40009A42E1D83B689A68FB6AD31A1B0ABB623B681B69012B12D93A6BBB6C1344013B7B62BA6CBB6A9A4207D87A6ABB6A9A4201D9012302E0002300E00123BB630023C6
:403F8000BB6563E0FB6C1A02FB6A13443B653B6C03F07F0380333B62BB6D5A1C3B6B9A4206D23B6C03F07F03C3F180037B6501E0FB6B7B65BB6B002B17D0FA6CBB6A9A4262
:403FC00013D93B685B681B023A6DD31A3B653B689A693B6D9A4208D93B681A683B685968FB6CCB1A1B02D31A3B653B681B7D002B0FD03B6800937B6D3A6A796C386D00F013
:40400000A3FB034687F85F3097F85F30002B0BD020E0786C3A6D3B6A13447A6D194607F061FE002387F85F303A6C7B6D13443B64FA6B7B6DD31AFB637A6C7B6D13447B64F3
:40404000FB6C0133FB64BB6D0133BB65BA6D3B6B9A4297D397F85F30002B40F08A807B6B002B00F086803B685A687B6B934228BF13463B633B6B013B3B637A6B3B6BD31A37
:40408000BB6572E03968B86D00F056FA38653B6D002B67D03B6D04331B68FB613B6D08331A68FB691344BB61FA69FB689A4209D9FA687B681A44FB699A428CBF01230023EE
:4040C000DBB206E0FA68BB699A4234BF01230023DBB2002B46D0FA69FB689A4203D8FA68FB69D31A00E000237B61FA69FB689A4203D9FA69FB68D31A00E000233B61FA68A2
:40410000FB69934238BF13463B647B690C337B61FA687B681A44BB699A4228BF1A463B6CD31A7B65BA683B6913447B643B681B7D002B0FD03B6800937B6D7A69796C386D2E
:4041400000F002FB034687F85F3097F85F30002B08D00EE0786C3A6D7B6913447A6D194607F0C0FDBB6D0133BB65BA6D7B6B9A4288D997F85F3018466037BD4680BD00BF54
:4041800090B5D7B002AF07F10C04206007F108000160391D0A603A461360012387F84F3107F1200300221A6007F11C0300221A603B461B689A6807F118031A6007F10803C3
:4041C0001B68C7F83C313B1D1B68002B00F0748107F10C023B1D12681B681A443B461B68DB689A4200F2688107F108031B68002B00F062813B1D1B68013B1B09B24AA2FB16
:4042000003230133C7F8343107F1100300221A600023C7F8443146E10023C7F8383107F118031B681B68C7F830313B4607F1140207F118011B68D7F8300100F09DF907F1B6
:4042400024034FF480720021184607F056FDD7F830310133C7F8303107F12403D7F830211A6007F1240307F10C0212685A60D7F83C31C7F82C31D7F834315A1ED7F844313B
:404280009A4205D107F124033A1D12689A6014E007F1240370229A603B1D3A1D1268703A1A6007F10C0307F10C02126870321A60D7F83C317033C7F83C3107F124039A68A7
:4042C00007F124030C33D7F82C11184607F00AFD07F114031B68002B0BD007F114031B688033194607F1240380338022184607F0F9FC3B461B685A68D7F830319A4207D253
:404300003B461B685B68D7F83021D31A013300E00123C7F848317EE0D7F84821D7F830319A4204D107F12403C7F8403107E03B461968D7F8480100F0FFF8C7F8400107F193
:4043400018031A683B461B689B69D31A1B0A3A4612685268B3FBF2F102FB01F29B1AC7F82831D7F84031002B17D0D7F8403104331B68D7F840210832126807F1100407F150
:404380001C0107F1200001920093D7F82831224600F056FAC7F8380104E0D7F838310133C7F83831D7F83831002B1ED107F1240207F120031B681344C7F8243107F11003DE
:4043C0001A68D7F8403113440C33C7F84031D7F82401D7F8401107F11C031A6807F120031B68D31A1A4607F07DFC3B461B681B7D002B0BD007F1240380338021184600F0CA
:4044000015F903461A4607F12403DA67D7F848310133C7F84831D7F84821D7F830319A427FF67AAF07F1180318683B4607F124011A6800F063F9034687F84F3107F1180375
:404440001B68C7F840313B461B681B7D002B1BD097F84F31002B17D107F118031A683B461B689B69D21A3B461B681B681344C7F840313B4607F124011A68D7F8400100F0FE
:404480003DF9034687F84F3197F84F31002B12D107F118031A683B461B689A60D7F844310133C7F84431D7F84421D7F834319A42FFF4B2AE00E000BF97F84F31184607F583
:4044C000AA77BD4690BD00BF2649922480B487B000AF786039600023BB6000237B613B689B69FB607B68FA681A6000233B6115E0FB681B68BB60BB68002B08D0BA687B69FD
:404500009A4204D9BB687B617B68FA681A60FB6803F58073FB603B6901333B613B685B683A68126902FB03F23B699A42E0D800BF1C37BD4680BC704780B485B000AF786042
:4045400039603B689B69FB600BE0FB6803F58073FB603B681A68FB689A4202D80023FB6004E0FB681A687B689A42EED1FB6818461437BD4680BC704780B485B000AFF86097
:40458000B9607A603B60FB68002B05D0BB681B6803F58072BB681A60BB681A683B681B689A4203D33B689A69BB681A607B6800221A603B685A68FB689A4231D83B681B69CA
:4045C000012B29D9BB681A683B685B681B02D21A3B689B699A4216D23B689A693B6859683B681B6903F1FF1303F57F4303FB01F31B021A44BB6819683B689B69CB1A1A4422
:404600007B681A600CE0BB681A683B685B681B02D21A7B681A6003E0BB681A687B681A6000BF1437BD4680BC704700BF80B485B000AF78603960FF23FB730023BB8121E0A3
:40464000BB897A6813441A78FB7B5340FB730023BB7311E097F90F30002B06DAFB7B5B00DBB283F03103DBB202E0FB7B5B00DBB2FB73BB7B0133BB73BB7B072BEAD9BB8951
:404680000133BB81BA893B689A42D9D1FB7B18461437BD4680BC704780B487B000AF78600323FB757B68DB683B617B681B68DA097B681B6803F07F03002B01D0012300E09B
:4046C000002313447A68526802FB03F37A68127A013202FB03F31A023B691344FB603B69002B05D0FB68B3F5802F01D80023FB75FB7D18461C37BD4680BC704780B588B055
:4047000000AFF860B9607A600423FB77FB681B0ADBB2BB6100F024FCFB681B0C7B617B69DBB2BA6991B2BA68184600F02BFC386100F0AEFD3B69002B01D10023FB77FB7FED
:4047400018462037BD4680BD90B5C7B000AF07F10C04206007F108000160391D0A603A461360D7F828319B6907F10C021268D21AD7F828311B681344C7F8103107F10C039C
:404780001B687C331C6807F10C031B68803380211846FFF74BFF03469C4211D107F10803186807F10C023B1D12681B68134419463B461A6807F096FA002387F8173137E09F
:4047C000D7F810317C331C68D7F81031803380211846FFF72BFF03469C4226D1D7F8101107F110034FF48072184607F07BFA07F1100107F10C03D7F828211868FFF77EFF61
:40480000034687F8173197F81731002B10D107F1080318683B1D1B689B0007F11002D1183B461A6807F05EFA02E0022387F8173197F81731184607F58E77BD4690BD00BF34
:4048400080B487B000AFF860B9607A603B6000237B617B6800221A603B68DA013B6A9A4208D83B680133DB015A1E3B6A9A4201D3012300E00023002B27D03B6A03F07F03F8
:4048800003F18002FB681A603A6A7B6A1A443B68DB019A420AD33A6A7B6A1A443B680133DB01013B9A4201D8012300E00023002B06D0FB681A687B6A1A44BB681A6036E0F8
:4048C000BB684FF480721A6031E03A6A7B6A1A443B68DB019A420AD33A6A7B6A1A443B680133DB01013B9A4201D8012300E00023002B19D0FB6880221A60FB681A687B6AA7
:404900001A443B6A03F07F01FB681B68CB1A1A44BB681A60FB681A68BB681B68D21A7B6A1A447B681A6002E07B6901337B617B6918461C37BD4680BC704700BF80B5C8B057
:4049400000AF3B1D18603B1D1B689A6807F108031A6007F108031B681B68C7F81831012387F817310023C7F81C3153E007F108031B68194607F10C034FF48072184607F08A
:40498000B1F9D7F818310133C7F8183107F10C03D7F818211A6007F10C03803380211846FFF744FE03461A4607F10C03DA6707F1080318683B1D07F10C011A68FFF79EFE9A
:4049C000034687F8173107F108031A683B1D1B689B69D21A3B1D1B681B681344C7F810313B1D07F10C011A68D7F81001FFF786FE034687F817313B1D07F5867207F108010C
:404A00001B68D7F81801FFF7B7FDD7F81C310133C7F81C313B1D1B685B683A1D1268126902FB03F2D7F81C319A429FD897F81731184607F59077BD4680BD00BF80B483B01C
:404A400000AF134B7F221A70124B80221A707F23FB710CE0FB79DB0003F1804303F5F043FA79013AD2B21A70FB79013BFB71FB79002BEFD1FB79DB0003F1804303F5F043E2
:404A800000221A7000BF0C37BD4680BC704700BF7D81FF1F7C81FF1F80B485B000AF03460A46FB711346BB710123FB60FB79172B2FD8BB79002B0ED0FB791A01184B1344F8
:404AC000FA791101164A0A441278D2B242F02002D2B21A700DE0FB791A01114B1344FA7911010F4A0A441278D2B222F02002D2B21A70FB791A010A4B1344FA791101084A56
:404B00000A441278D2B242F00102D2B21A700023FB60FB6818461437BD4680BC704700BF1070004080B485B000AF0346FB710123FB60FB79172B1DD8FB791A01104B13449F
:404B4000FA7911010E4A0A441279D2B242F00402D2B21A71FB791A01094B1344FA791101074A0A441278D2B242F00102D2B21A700023FB60FB6818461437BD4680BC704785
:404B80001070004080B485B000AF03460A46FB711346BB710123FB60FB79172B1BD8FB791A01104B13441B78DBB223F00E03FB72FB791A010B4B1344BA795200D2B252B230
:404BC00002F00E0251B297F90B200A4352B2D2B21A700023FB60FB6818461437BD4680BC704700BF1070004080B485B000AF0346FB710B46BB8013467B800123FB60BB8828
:404C000041F6FF72934202D14FF40053BB807B8841F6FF72934202D14FF400537B80FB79172B17D8FB79DB0003F1804303F5EC430433BB60BB68BA881A80FB79DB0003F109
:404C4000804303F5EC430633BB60BB687A881A800023FB60FB6818461437BD4680BC704780B485B000AF03460A46FB711346BB710123FB60FB79172B07D8FB791A01064B21
:404C80001344BA795A720023FB60FB6818461437BD4680BC704700BF1070004090B484B000AF0446084611461A462346FB710346BB710B467B7113463B710123FB60FB79AA
:404CC000172B34D8FB79DB0003F1804303F5EC43BA7902F07F02D1B27A79D201D2B20A43D2B21A70FB79DB0003F1804303F5EC433A7E1201D1B23A7902F00F02D2B20A4369
:404D0000D2B25A70FB79DB0003F1804303F5EC433A7F02F00F02D2B29A70FB79DB0003F1804303F5EC430022DA700023FB60FB6818461037BD4690BC704700BF80B582B063
:404D400000AFFF23FB7104F04BFD0346BB71104B1B78182B12D90F4B1B78FB710C4B1B78013BDAB20A4B1A70FB79DB0003F1804303F5F0431B78DAB2064B1A70BB79184682
:404D800004F032FDFB7918460837BD4680BD00BF7C81FF1F7D81FF1F90B484B000AF0446084611461A462346FB710346BB800B46BB711346FB700123FB6097F90730002B08
:404DC00023DBBB8823F47F6323F00F039BB2002B1BD1FB79DB0003F1804303F5F043BB60BB68BA881A80FB79DB0003F1804303F5F043BA799A70FB79DB0003F1804303F539
:404E0000F043FA78DA700023FB60FB6818461037BD4690BC704700BF80B485B000AF0346FB710B46BB8013467B800123FB6097F90730002B17DBFB79DB0003F1804303F52A
:404E4000F0430433BB60BB68BA881A80FB79DB0003F1804303F5F0430633BB60BB687A881A800023FB60FB6818461437BD4680BC704700BF80B582B000AF00F0E5FA4FF007
:404E8000FF337B6000F07AFC0346002B24D1012000F042FC0346072B1BD10221124800F0F7FA0346022B0DD100237B6002E0012000F0DAF90D4B1B78DBB203F00203002B4F
:404EC000F5D006E0094B1B78DBB203F00203002BE3D000F087FC01E004237B607B6818460837BD4680BD00BFDCACFF1F2247004080B582B000AF00F0A7FA00F03FFC03467E
:404F0000002B23D100F096FC78607B68072B1AD102E0012000F0A8F9104B1B78DBB203F00203002BF5D00D4B1B78DBB203F00203002B08D0094B1B78DBB29B08DBB2002BBF
:404F400001D100237B6000F04DFC01E004237B607B6818460837BD4680BD00BF2247004080B582B000AFFFF7C3FF78607B68002B02D1FFF77FFF78607B6818460837BD46C7
:404F800080BD00BF80B584B000AF03463A60FB710B46BB80FB793F2B01D9102301E04FF48073FB81FB89B988F8793A6800F006F8B860BB6818461037BD4680BD80B586B033
:404FC00000AFBA601A460346FB730B46BB811346FB8000237B61FB7B3F2B04D8FB7B042B01D901237B6197F90F30002B01DA01237B61FB7B3F2B04D9FB7B412B01D90123C4
:405000007B61FB7B3F2B06D8BB89B3F5807F0CD901237B6109E0BB89802B01D901237B61FB88102B01D001237B61BB68002B01D101237B617B69002B60D100F09FFB034692
:40504000002B59D1FB88B989F87BBA6800F0B2FA78617B69072B4CD102E0012000F004F9294B1B78DBB203F00203002BF5D0264B1B78DBB203F00203002B09D0224B1B78E0
:40508000DBB29B08DBB2002B02D100237B6102E04FF0FF337B617B69002B2AD11B4B1A781A4B5B78B989F87B00F0EAFA78617B69072B1ED102E0012000F0D6F8124B1B78B5
:4050C000DBB203F00203002BF5D00F4B1B78DBB203F00203002B09D00B4B1B78DBB29B08DBB2002B02D100237B6102E04FF0FF337B6100F077FB01E004237B617B6918466B
:405100001837BD4680BD00BF22470040DCACFF1F80B582B000AF04F063FB0346FB71194A184B1B78DBB243F00803DBB21370164A154B1B78DBB243F00803DBB21370134BF5
:40514000C8221A70124A124B1B78DBB243F01003DBB213700F4A0F4B1B78DBB243F01003DBB2137000BF0C4B1B78DBB203F02003002BF8D0FB79184604F036FB00BF08372F
:40518000BD4680BDA0430040B043004001470040AC430040BC4300400047004080B400AF094A094B1B78DBB243F00103DBB2137000BF054B1B78DBB203F00203002BF8D0D1
:4051C00000BFBD4680BC70470247004080B400AF054A054B1B78DBB223F00103DBB2137000BFBD4680BC70470247004080B483B000AF0346FB7101BE00BF0C37BD4680BC9F
:40520000704700BF80B400AF054A054B1B78DBB243F00103DBB2137000BFBD4680BC7047F646004080B582B000AF786008E00C4B1B68184604F0CCFA7B68A3F500437B607D
:405240007B68B3F5004FF2D8064B1B687A6802FB03F3184604F0BCFA00BF0837BD4680BD9081FF1F8881FF1F80B582B000AF0346FB80FB88054A127802FB03F3184604F0CA
:40528000A7FA00BF0837BD4680BD00BF8C81FF1F80B582B000AF04F0A3FA0346FB7100BF00BF00BF00BF00BF00BF00BF00BF00BF00BF00BF00BF00BF00BF00BF00BF0A4A85
:4052C000094B1B889BB243F004039BB21380064B1B88BFF36F8FFB79184604F085FA00BF0837BD4680BD00BF0048004080B584B000AF03463960FB710F4B1B68FB60FB79D0
:405300001F2B02D90020FFF771FFFB7903F01F0310339B00FA6813441B68BB60FB7903F01F0310339B00FA6813443A681A60BB6818461037BD4680BD08ED00E080B582B084
:4053400000AF03460A46FB711346BB71BB79072B02D90020FFF74AFFFB791F2B02D90020FFF744FFFB7903F01F0303F1604303F56443BA795201D2B21A7000BF0837BD460E
:4053800080BD00BF80B483B000AF7860264B1B78DBB21A467B681A60244B1B78DBB21B027A6812681A437B681A60214B1B78DBB21B047A6812681A437B681A601D4B1B7837
:4053C000DBB21B067A6812681A437B681A607B680433194A1278D2B21A60184B1B78DBB21A027B6804337968043109680A431A60134B1B78DBB21A047B6804337968043111
:4054000009680A431A600F4B1B78DBB21A067B6804337968043109680A431A6000BF0C37BD4680BC704700BF0301004904010049EC4600400201004901010049000100498D
:40544000050100490601004980B582B000AF04F0C7F90346FB710C4A0B4B1B78DBB243F00803DBB21370094A084B1B78DBB243F00803DBB21370FB79184604F0B5F900BFAD
:405480000837BD4680BD00BFA0430040B043004080B584B000AF78600B46FB700023FB7313E00120FFF7E0FE0C4B1B78DBB203F00103002BF5D0FB7B7A681344084A12784A
:4054C000D2B21A70FB7B0133FB73FA7BFB789A42EAD3FB7B18461037BD4680BD224700402047004080B485B000AF3A601A460346FB710B46BB801346BB710723FB60FB7989
:405500003E2B02D8BB791F2B05D9FB793F2B45D9BB790F2B42D8254B1B78DBB203F00203002B38D0224BB6221A70214BD4221A701F4B01221A701D4B1B78DBB203F002033B
:40554000002B25D11A4AFB791370194ABB881B0A9BB2DBB203F00103DBB21370144BBA88D2B21A70124ABB79013BDBB213700023FB7208E00E49FB7A3A6813441B780B702D
:40558000FB7A0133FB72FA7ABB799A42F2D307E00923FB6004E00423FB6001E00123FB60FB6818461437BD4680BC7047224700402047004080B489B000AFBA601A46034627
:4055C000FB730B46BB811346FB800723FB612A4B1B78DBB203F00203002B45D0274BB6221A70264BD5221A70244B02221A70224B1B78DBB203F00203002B32D11F4AFB7B14
:40560000137000237B8308E01C497B8BBA6813441B780B707B8B01337B837A8BFB889A42F2D3FB88B3F5807F20D1FB7B3F2B1DD8FB7B03F510331A02BB8913445B017B61FB
:4056400000237B8309E00D497A8B7B6913441B78DBB20B707B8B01337B837B8B1F2BF2D904E00923FB6101E00423FB61FB6918462437BD4680BC7047224700402047004069
:4056800090B484B000AF0446084611461A462346FB710346BB800B46BB711346FB700723FB601B4B1B78DBB203F00203002B26D0184BB6221A70174BD8221A70154B052284
:4056C0001A70134B1B78DBB203F00203002B13D1104AFB7913700F4ABB881B0A9BB2DBB213700C4BBA88D2B21A700A4ABB791370084AFB78137004E00923FB6001E00423BF
:40570000FB60FB6818461037BD4690BC704700BF224700402047004080B485B000AF0346FB710723FB60134B1B78DBB203F00203002B16D0104BB6221A700F4BE1221A7074
:405740000D4B0E221A700B4B1B78DBB203F00203002B03D1084AFB79137004E00923FB6001E00423FB60FB6818461437BD4680BC704700BF224700402047004080B582B01B
:4057800000AF04237B6004F02BF80346FB70124B1B78002B16D1104B01221A7000237B600E4B1B6803F00103002B0BD00B4A0B4B1B6823F00103136000BF00BF00BF084B44
:4057C00001221A60FB78184604F00EF87B6818460837BD4680BD00BF5083FF1F040008405483FF1F80B582B000AF03F0F9FF0346FB710D4B00221A700C4B1B68012B0BD1F4
:405800000B4A0B4B1B6843F00103136000BF00BF00BF064B00221A60FB79184603F0E4FF00BF0837BD4680BD5083FF1F5483FF1F0400084080B483B000AF07237B600C4BDC
:405840001B78DBB203F00203002B09D0094BB6221A70084BE0221A70064B0D221A7001E004237B607B6818460C37BD4680BC7047224700402047004080B500AF084B0F2258
:405880001A7000F09BF800F063F800F06FF8054B00221A70044B00221A7000BF80BD00BF82640040836400408C64004080B582B000AF03F095FF0346FB71134A124B1B786B
:4058C000DBB243F02003DBB21370104A0F4B1B78DBB243F01003DBB213700D4A0C4B1B78DBB243F01003DBB21370FB79184603F07BFF00F093F800F01FF800F023F800BFDC
:405900000837BD4680BD00BF92640040936400409C64004080B500AF064B1B78002B04D1FFF7AAFF034B01221A70FFF7BFFF00BF80BD00BF5883FF1F80B400AF00BFBD460D
:4059400080BC704780B400AF00BFBD4680BC704780B483B000AF044B1B78FB71FB7918460C37BD4680BC70476364004080B483B000AF044B1B78FB71FB7918460C37BD46AA
:4059800080BC70476C64004080B483B000AF0346FB7100BF074B1B78DBB203F00403002BF8D0054AFB79137000BF0C37BD4680BC704700BF636400404C64004080B582B0A0
:4059C00000AF01E0124B1B78124B1B78DBB203F02003002BF6D103F003FF0346FB710E4A0D4B1B78DBB243F00103DBB213700A4A094B1B78DBB223F00103DBB21370FB797E
:405A0000184603F0F1FE00BF0837BD4680BD00BF5C6400406C6400409C64004080B400AF094A094B1B78DBB243F00103DBB21370064A064B1B78DBB243F00103DBB21370E0
:405A400000BFBD4680BC7047A2430040B243004080B500AF144B02221A70144B81221A70134B08221A70134B0D221A70124B00221A70124B4FF400421A6007210F20FFF7BF
:405A80005DFC0F490F20FFF731FC0E4B10221A700D4B00221A700D4B00221A700C4B00221A7000BF80BD00BFD6490040C8490040CA490040DB490040DC49004080E100E0FB
:405AC0005D5C0000DEACFF1FE2ACFF1FE4ACFF1FE0ACFF1F80B582B000AF03F081FE0346FB710C4A0B4B1B78DBB243F00403DBB21370094A084B1B78DBB243F00403DBB261
:405B00001370FB79184603F06FFE00BF0837BD4680BD00BFA5430040B543004080B500AF084B1B78002B04D1FFF792FF054B01221A70FFF7CFFF044B4FF400421A6000BF34
:405B400080BD00BF5983FF1F00E100E080B582B000AF384B4FF400421A60374B1B78DAB2364BDA70364B1B78DAB2344B1A71354B1B78DAB2314B5A71324B1B78DBB29BB2F0
:405B80001B029AB22E4B1B78DBB29BB213439BB20133FB802C4A2C4B1B78DBB223F00103DBB21370FB88184603F012FE03F018FE03467B71254A254B1B78DBB223F00403D5
:405BC000DBB21370224A224B1B78DBB223F00403DBB213707B79184603F006FE1A4A1A4B1B78DBB243F00203DBB21370124B134AD2781A70104B114AD2781A70104B0F4A2C
:405C000012791A700F4B0D4A52791A700E4A0E4B1B78DBB223F01003DBB213700D4B4FF400421A600C4B10221A7000BF0837BD4680BD00BF80E100E0CA4900409481FF1F14
:405C4000DB490040DC490040D6490040A5430040B543004080E200E0DEACFF1F80B582B000AFA74B1B78FB71A64B1B78DBB203F04003DBB2002B00F0A981FB7903F0010327
:405C8000002B00F080819F4B1B78DBB2453B052B00F2758101A252F823F000BFB55C0000DB5D00007F5F00007F5F0000B55C0000C75E0000FB7923F02003FB71FB7903F0AF
:405CC0000A03DBB2082B46D18E4B1B78DBB2452B3AD18D4B1B78DBB2002B0FD08B4A8C4B1B681B78DBB21370854B04221A70894B01221A70834B46221A7044E1864B1B782E
:405D0000DBB203F00203002B0FD0844B1B78DBB243F00A03DAB2814B1A707A4B60221A707F4B4FF400421A602DE17E4A7D4B1B78DBB243F01003DBB213707B4B10221A7093
:405D40006F4B04221A701EE16D4B00221A706D4B4A221A7017E1FB7903F00A03DBB20A2B37D16E4B1B78DBB263F05F03DAB26B4B1A70694B1B78DBB203F00203002B19D038
:405D8000604B1B78DBB203F00803002B01D0092300E00A23DAB2614B1B78DBB21343DAB25E4B1A70574B60221A705D4B4FF400421A60E8E05B4A5B4B1B78DBB243F01003AA
:405DC000DBB21370584B10221A704D4B04221A70D9E00020FFF70AFAD5E0FB7903F00203002B42D14B4B1B78DAB2474B1B78DBB29A4214D2454A464B1B6846490978C9B263
:405E00000B441B78DBB213703D4B04221A70414B1B78DBB20133DAB23E4B1A70B3E03E4B1B78DBB203F00203002B0FD03B4B1B78DBB243F00A03DAB2384B1A70314B6022FE
:405E40001A70374B4FF400421A609CE0354A354B1B78DBB243F01003DBB21370324B10221A70274B04221A708DE02B4B1B78DBB203F00203002B0FD0284B1B78DBB263F0E0
:405E80006503DAB2254B1A701E4B60221A70244B4FF400421A6076E0224A224B1B78DBB243F01003DBB213701F4B10221A70144B04221A70194B1B78DBB263F06F03DAB262
:405EC000164B1A705FE0194B1B68194A1278D2B213440E4A1278D2B21A70154B1B78DBB20133DAB2124B1A70114B1B78DAB2114B1B78DBB29A421FD2014B10221A7042E0C4
:405F0000D7490040DEACFF1FE3ACFF1FD8490040E8ACFF1FE0ACFF1FE1ACFF1FE2ACFF1F80E100E0D6490040D9490040ECACFF1FE4ACFF1FF0ACFF1F2C4B1B78DBB203F0EE
:405F40000203002B0FD02A4B1B78DBB243F00903DAB2274B1A70274B60221A70264B4FF400421A600FE0254A244B1B78DBB243F01003DBB21370224B00221A7003E0002069
:405F8000FFF734F900BFFB7903F02003002B28D0184B1B78DBB203F00803002B01D0012300E00223DAB2124B1B78DBB21343DAB20F4B1A70114A114B1B78DBB223F01003E0
:405FC000DBB213700B4B10221A700AE0094B1B78DBB203F01003DBB2002B02D1054B10221A7000BF0837BD4680BD00BFE1ACFF1FE2ACFF1FDEACFF1F80E100E0D6490040E8
:40600000D749004080B485B000AF396011461A460346FB710B46BB7113467B710223FB733B68002B56D02E4B1B78DBB2102B0CD12C4B1B78DBB203F00803002B02D1002333
:40604000FB7315E00123FB7312E0254B1B78DBB2602B0DD10023FB73234B4FF400421A60224B1B78DBB223F00803DAB21F4B1A70FB7B002B2ED11A4B45221A701C4B002298
:406080001A701C4ABB7913701B4A3B6813601B4A7B791370154B1B78DBB223F00203DAB2124B1A70164AFB795B00DBB213707B7903F00103002B06D00A4B12221A70114B3D
:4060C00004221A7002E0074B01221A700E4B4FF400421A60FB7B18461437BD4680BC7047DEACFF1FD949004080E200E0E2ACFF1FE0ACFF1FE3ACFF1FE8ACFF1FE1ACFF1FF6
:40610000D8490040D749004000E100E080B483B000AF0E4B4FF400421A600D4B1B78FB710C4B1B78DBB203F04003DBB2002B03D0FB7943F00403FB71074B4FF400421A6075
:40614000FB7918460C37BD4680BC704780E100E0E2ACFF1FDEACFF1F00E100E080B483B000AF0A4B4FF400421A60094B1B78FB71074B00221A70074B4FF400421A60FB793E
:4061800018460C37BD4680BC704700BF80E100E0E2ACFF1F00E100E080B400AF054B1B78DBB203F020035B09DBB21846BD4680BC704700BF5151004080B400AF054B1B78C6
:4061C000DBB203F010031B09DBB21846BD4680BC704700BF5151004080B400AF054B1B78DBB203F08003DB09DBB21846BD4680BC704700BF1151004080B400AF054B1B78B1
:40620000DBB203F040039B09DBB21846BD4680BC704700BF1151004080B500AF41F6FF734FF480420121022000F0FCF903461A460A4B1A7041F6FF7341F6FF7201210820D7
:4062400000F022FA03461A46054B1A70054800F04DFA012000F05CFA00BF80BD6083FF1F6183FF1F0D64000080B582B000AF414B1B781846FEF756FC3F4B1B781846FEF7EA
:4062800051FC3E4B1B78FF2B05D1FEF757FD03461A463A4B1A70394B1878384B1A7806230821FEF779FD354B1B78354A92B245F6A0311846FEF7B0FD2E4B1A782F4B1B7894
:4062C00019461046FEF7CCFC2E4B1B78FF2B05D1FEF734FD03461A462A4B1A70294B1878284B1A7807230821FEF756FD254B1B78234A91B2244A92B21846FEF78DFD1E4B03
:406300001A78204B1B7819461046FEF7A9FC194B1B7801211846FEF7BFFB174B1B7801211846FEF7B9FB03F05BFA0346FB71174A164B1B78DBB243F02003DBB21370FB7981
:40634000184603F051FA124A114B1B78DBB243F00103DBB213700E4A0D4B1B78DBB243F00203DBB213700B4B02221A6000BF0837BD4680BD6083FF1F6183FF1F9A81FF1FDC
:406380006483FF1F9B81FF1FF4ACFF1F9A6400407D64004080E200E080B500AF084B1B68002B04D1FFF738FF054B01221A6000F033F8FFF759FF034B1B7800BF80BD00BF66
:4063C0005C83FF1F6F64004080B500AF00F0D8F800BF80BD80B483B000AF0346FB80FB88C3F10303074A32F913309AB2064B1B881BB29BB2D31A9BB21BB218460C37BD4612
:4064000080BC7047F4ACFF1F04ADFF1F80B400AF00BFBD4680BC704780B500AF064B1B78002B04D100F00AF8034B01221A7000F01BF800BF80BD00BF6C83FF1F80B500AFE0
:40644000074A074B1B78DBB243F00603DBB213700C2000F06BF8034B00221A8000BF80BD01590040FEACFF1F80B582B000AF03F0B7F90346FB71254A244B1B78DBB243F087
:406480000103DBB21370224A214B1B78DBB243F00103DBB213701F4B1B78BB71BB7943F00203BB71BB7943F00103BB71194ABB791370194B04221A70184A184B1B78DBB21E
:4064C00043F04003DBB21370144A144B1B78DBB223F00303DBB21370114BC8221A70114B02221A70104A104B1B78DBB243F00803DBB213700A20FEF7B7FEFB79184603F07A
:4065000073F900BF0837BD4680BD00BFAB430040BB4300400359004006590040055900400059004014460040275B004080B584B000AF0346FB71FB790A2B07D00C2B02D062
:40654000082B06D008E0C423FB730BE08423FB7308E04423FB7305E0C423FB730020FEF745FE00BF054AFB7B1370FB79184600F017F800BF1037BD4680BD00BF025900400E
:4065800080B400AF054A054B1B78DBB243F00103DBB2137000BFBD4680BC70470059004080B584B000AF0346FB71FB790A2B08D00C2B02D0082B08D00BE04FF48053FB60E6
:4065C0000DE04FF48063FB6009E04FF48073FB6005E00023FB600020FEF708FE00BF0D4B00221A80FB6842F2107202FB03F303F27263094A82FB03121A44D212DB17D31A86
:40660000064A1360064B00221A8000BF1037BD4680BD00BFFCACFF1FEF09E09E00ADFF1F04ADFF1F90B585B002AF0446084611461A462346FB710346BB710B46BB80134606
:406640007B80104B03221A700E4B1878BA79F97900230193002300930323FEF71FFB094B1B787A88B9881846FEF7BEFA054B1B7803211846FEF786FA024B1B7818460C3755
:40668000BD4690BD9C81FF1F90B585B002AF0446084611461A462346FB710346BB710B46BB8013467B80104B02221A700E4B1878BA79F97900230193002300930223FEF78D
:4066C000EDFA094B1B787A88B9881846FEF78CFA054B1B7803211846FEF754FA024B1B7818460C37BD4690BD9D81FF1F80B485B000AF7860054B1B68FB60FB6844337A6821
:406700001A6000BF1437BD4680BC704708ED00E080B483B000AF0346FB71054AFB795B01DBB2137000BF0C37BD4680BC704700BF01E400E080B500AF084B07221A7000F0BA
:4067400083F800F051F800F05DF8054B00221A70044B08221A7000BF80BD00BF87640040816400408664004080B582B000AF03F037F80346FB71104A0F4B1B78DBB243F0F8
:406780002003DBB213700D4A0C4B1B78DBB243F01003DBB213700A4A094B1B78DBB243F01003DBB21370FB79184603F01DF800BF0837BD4680BD00BF97640040916400401D
:4067C0009664004080B500AF064B1B78002B04D1FFF7B0FF034B01221A70FFF7C5FF00BF80BD00BF6D83FF1F80B483B000AF044B1B78FB71FB7918460C37BD4680BC704705
:406800006164004080B483B000AF044B1B78FB71FB7918460C37BD4680BC70476664004080B400AF01E0064B1B78064B1B78DBB203F00803002BF6D100BFBD4680BC70471C
:40684000576400406664004080B582B000AF01E0124B1B78124B1B78DBB203F00803002BF6D102F0BDFF0346FB710E4A0D4B1B78DBB243F00303DBB213700A4A094B1B7808
:40688000DBB223F00303DBB21370FB79184602F0ABFF00BF0837BD4680BD00BF57640040666400409764004080B500AF084B07221A7000F083F800F051F800F05DF8054B54
:4068C00000221A70044B08221A7000BF80BD00BF8B650040896400408965004080B582B000AF02F07DFF0346FB71104A0F4B1B78DBB243F02003DBB213700D4A0C4B1B78EF
:40690000DBB243F01003DBB213700A4A094B1B78DBB243F01003DBB21370FB79184602F063FF00BF0837BD4680BD00BF9B650040996400409965004080B500AF064B1B78B0
:40694000002B04D1FFF7B0FF034B01221A70FFF7C5FF00BF80BD00BF6E83FF1F80B483B000AF044B1B78FB71FB7918460C37BD4680BC70476964004080B483B000AF044B12
:406980001B78FB71FB7918460C37BD4680BC70476965004080B400AF01E0064B1B78064B1B78DBB203F00803002BF6D100BFBD4680BC7047586500406965004080B582B08F
:4069C00000AF01E0124B1B78124B1B78DBB203F00803002BF6D102F003FF0346FB710E4A0D4B1B78DBB243F00303DBB213700A4A094B1B78DBB223F00303DBB21370FB7983
:406A0000184602F0F1FE00BF0837BD4680BD00BF58650040696500409865004080B400AF00BFBD4680BC704780B582B000AF0F2000F06AF800F05AF802F0D2FE0346FB71EA
:406A4000074A074B1B78DBB243F01003DBB21370FB79184602F0C8FE00BF0837BD4680BD9765004080B500AF00F0AEF84FF4004000F0D8F8064B1B78002B04D1FFF7CEFF95
:406A8000034B01221A70FFF7CFFF00BF80BD00BF6F83FF1F80B582B000AF00F0D3F80346FB80FB88A3F500439BB2BB80B7F9043018460837BD4680BD80B584B000AF0346AF
:406AC000FB80B7F90630002B04DBFB88A3F50043FB8103E0FB88A3F50043FB81FB89184600F0A0F800BF1037BD4680BD80B400AF044B1B78DBB203F00F03DBB21846BD469F
:406B000080BC70476765004080B483B000AF0346FB71044AFB79137000BF0C37BD4680BC704700BF8765004080B582B000AF1C4B1B78DBB223F00703FB71194AFB791370E3
:406B4000174B1B78DBB223F00303FB71144AFB79137000F0B3F84FF4004000F08FF84FF4004000F05FF8002000F040F800F04EF84FF4004000F092F802F032FE0346BB7148
:406B8000084A084B1B78DBB243F01003DBB21370BB79184602F028FE00BF0837BD4680BD706400409465004080B400AF054A054B1B78DBB263F07F03DBB2137000BFBD463C
:406BC00080BC70477064004080B500AF064B1B78002B04D1FFF7A8FF034B01221A70FFF7E3FF00BF80BD00BF7083FF1F80B483B000AF0346FB71044AFB79137000BF0C3778
:406C0000BD4680BC704700BF8465004080B400AF034B1B78DBB21846BD4680BC704700BF6465004080B483B000AF0346FB80044AFB88138000BF0C37BD4680BC704700BF14
:406C40000C6A004080B400AF044B1B78044B1B889BB21846BD4680BC704700BF066500408C6A004080B400AF034B1B889BB21846BD4680BC704700BF8C6A004080B483B095
:406C800000AF0346FB80044AFB88138000BF0C37BD4680BC704700BF4C6A004080B483B000AF0346FB80044AFB88138000BF0C37BD4680BC704700BF6C6A004080B500AF61
:406CC00001E0FFF7CFFFFFF7A1FF034603F04003002BF6D100BF80BD80B582B000AF786000F03CF8786800F009F8062000F018F800F028F800BF0837BD4680BD80B485B02C
:406D000000AF7860054B1B68FB60FB6850337A681A6000BF1437BD4680BC704708ED00E080B483B000AF0346FB71054AFB795B01DBB2137000BF0C37BD4680BC704700BFD6
:406D400004E400E080B400AF034B10221A6000BFBD4680BC704700BF00E100E080B400AF034B10221A6000BFBD4680BC704700BF80E100E080B400AF034B10221A6000BF0B
:406D8000BD4680BC704700BF80E200E080B582B000AF03460A46FB711346BB71094B1B78002B04D100F010F8064B01221A70BA79FB791146184600F0C5F800BF0837BD4655
:406DC00080BD00BF7183FF1F80B582B000AF02F007FD0346FB714C4A4B4B1B78DBB243F00103DBB21370494A484B1B78DBB243F00103DBB21370464B01221A70454B0222B2
:406E00001A70454A444B1B78DBB203F07F03DBB213700020FEF728FA404A404B1B78DBB223F00603DBB213703D4A3D4B1B78DBB223F02003DBB21370384A384B1B78DBB2D3
:406E400043F00103DBB213700120FEF70DFA2820FEF70AFA334A334B1B78DBB203F07F03DBB213702F4A2F4B1B78DBB223F04003DBB21370294A294B1B78DBB243F0020315
:406E8000DBB213700220FEF7EFF9244A234B1B78DBB243F00403DBB21370234B00221A70224B00221A70FB79184602F09DFC01211720FEF743FA1E491720FEF717FA01219C
:406EC0001820FEF73BFA1B491820FEF70FFA01210220FEF733FA18490220FEF707FA01210320FEF72BFA15490320FEF7FFF901210C20FEF723FA12490C20FEF7F7F900BF5F
:406F00000837BD4680BD00BFA5430040B54300409D60004009600040106000409443004012600040F851004084600040856000401D7B0000C9740000897A0000D17A00005F
:406F4000297B000080B582B000AF03460A46FB711346BB712B4AFB7913702B4B00221A702A4B00221A702A4B00221A70294B00221A70294B00221A70284B00221A70284B2B
:406F800000221A70274B4FF400021A60254B4FF080721A60234B04221A60224B08221A60BB79002B02D0012B09D011E01E4A1E4B1B78DBB223F00103DBB2137011E01A4A26
:406FC000194B1B78DBB243F00103DBB2137008E0154A154B1B78DBB223F00103DBB2137000BF124B03221A70114B80221A70012002F0EEFB0F4B04221A7000BF0837BD467E
:4070000080BD00BF13ADFF1F08ADFF1F1AADFF1F20ADFF1F09ADFF1F14ADFF1F31ADFF1F0AADFF1F00E100E00960004028600040086000401260004080B400AF0F4B002264
:407040001A700F4B00221A700E4B00221A700E4B00221A700D4B00221A700D4B00221A700C4B00221A700C4B03221A700B4B80221A7000BFBD4680BC704700BF08ADFF1F9C
:407080001AADFF1F20ADFF1F09ADFF1F14ADFF1F31ADFF1F0AADFF1F286000400860004080B582B000AF02F09BFB0346FB712F4A2E4B1B78DBB203F07F03DBB213702C4AAC
:4070C0002B4B1B78DBB223F00403DBB21370294A284B1B78DBB223F00103DBB21370264A254B1B78DBB223F00103DBB21370234A224B1B78DBB263F07F03DBB213701F4A34
:407100001E4B1B78DBB243F04003DBB21370FB79184602F069FB1A4B4FF400021A60184B4FF080721A60164B04221A60144B08221A6001F0FFFF134B4FF480521A60124BA9
:4071400000221A70114B00221A70114B00221A70104B00221A70104B00221A700F4B00221A7000BF0837BD4680BD00BF0860004012600040A5430040B5430040F8510040FF
:4071800080E100E080E200E01AADFF1F20ADFF1F09ADFF1F14ADFF1F31ADFF1F7183FF1F80B400AF034B1B78DBB21846BD4680BC704700BF20ADFF1F80B483B000AF002333
:4071C000FB71084B1B78DBB2002B05D0054B1B78FB71044B00221A70FB7918460C37BD4680BC70471AADFF1F80B483B000AF0346FB71FA79064913465B0013449B000B44F4
:4072000001331B78DBB218460C37BD4680BC704734ADFF1F80B485B000AF0346FB710023FB81FB79002B1CD0FB79082B19D8104AFB791B0113441B78DBB29BB203F00F0322
