:400000000080002011000000BD4D0000BD4D000080B500AF024A034B1B68136004F002FFBC760040FA46004010B5054C237833B9044B13B10448AFF300800123237010BDFE
:400040006082FF1F00000000A4EB0000084B10B51BB108490848AFF300800848036803B910BD074B002BFBD0BDE81040184700BF000000006482FF1FA4EB0000C880FF1FB2
:400080000000000090B583B000AF554B1B78DBB2002B0CBF01230023DBB21A46504B1A704F4B1B78DBB2002B0CBF01230023DBB219464C4A1A2303FB01F313441B78DBB2EB
:4000C000FE2B4FD1464B1B78DBB2002B0CBF01230023DBB21946434A1A2303FB01F3134419331B78DBB2FD2B3CD100237B6034E03B4B1B78DBB2002B0CBF01230023DBB2A7
:4001000018467B685B00013336491A2202FB00F20A4413441B78DBB29BB21B029AB2304B1B78DBB2002B0CBF01230023DBB21C467B6801335B002B481A2101FB04F10144AD
:400140000B441B78DBB29BB2134499B2264A7B6822F813107B6801337B60244B1B687A689A42C5DB07F0BCFC214B1B78184605F0B7FD1B4B1B78DBB21A461E4B985C022332
:40018000FE221A2105F0E6FE154B1B78DBB21A46184B985C124B1B78DBB21A461A2303FB02F3104A13449BB21A4646F2545105F011FF0F4B1A780A4B1B78DBB219460D4B6F
:4001C0005B5C1946104605F029FE094B1B780121184605F03FFD00BF0C37BD4690BD00BFC882FF1F80ABFF1F8498FF1FCC80FF1F6CABFF1FE483FF1F80B500AF214B1B78DC
:40020000DBB2002B0CBF01230023DBB21A461D4B1A7007F01FFD1C4B1B78184605F060FD184B1B78DBB21A46184B985C0623FE22082105F08FFE134B1B78DBB21A46134BEE
:40024000985C104B1B78DBB2DB00114A13449BB21A4646F2575105F0BDFE0B4B1A78094B1B78DBB21946094B5B5C1946104605F0D5FD054B1B780121184605F0EBFC00BF05
:4002800080BD00BFC982FF1F40A1FF1F60ABFF1F60C9FF1F80B500AF07F0CCFE0AF0BAF800F002F800BF80BD80B500AF184B02221849002004F0BCFE03461A46164B1A7005
:4002C00008F050FA0346012B20D1124B1B78DBB2012B0CD1114B00221A700D4B02220F49002005F02BF80E4B01221A700EE00B4B01221A70064B02220849002005F01EF8D4
:4003000008F02EF806F0FAFC06F05AF800BF80BD20D4FF1FE082FF1FE0C7FF1FE482FF1FB082FF1F80B582B000AF7860134978680CF06AFE0346002B02D04FF0000319E035
:400340000F4978680CF074FE0346002B04D00C48FFF7E8FF03460DE00A4978680CF0ACFC034618460AF026FD0346074918460CF0A3FC034618460837BD4680BD0080BBC4D6
:400380000060BB4420986C3D13D0024180B582B000AF78604FF0000178680CF049FE0346002B0ED0094978680CF086FC034618460AF072FD0346064918460CF07DFC034640
:4003C00000E0044B18460837BD4680BDD27EFA3DAC7F8A410080BBC4B0B584B000AFF860B9607A603B603968386A0CF05BFB03461C46B968F8680CF055FB03461D46B9686D
:4004000078680CF04FFB0346194628460CF008FD0346194620460CF04FFC0346396818460CF042FB034618461037BD46B0BD00BF90B583B000AF00237B606EE03A4A7B68B2
:4004400032F8133018460CF0DFFB0446374A7B6832F8133018460CF0D7FB0346194620460CF020FB03463B60304A7B6832F8133018460CF0CDFB04462D4938680CF01CFC2B
:400480000346194620460CF00FFB034618460CF015FE034699B2254A7B6822F81310224A7B6832F8133018460CF0B2FB0446204938680CF001FC0346194620460CF0F2FA4A
:4004C000034618460CF0FAFD034699B2164A7B6822F81310144A7B6832F8133018460CF093FB0446114A7B6832F8133018460CF08BFB0346194620460CF0D4FA03463B6027
:4005000039680C480CF08CFC034619460A4A7B6842F823107B6801337B607B68092B8DDD00BF0C37BD4690BD0481FF1FF080FF1FCDCCCC3D00F07F459C98FF1F90B5ABB0B8
:4005400002AF62B60AF068FAB14B184609F034FF03461A46AF4B1A70002387F83B3006F0B5FB012008F0DEF8AB4807F015FD4FF4FA6005F035FF00200AF0DEFA03461A46A4
:40058000A64B1A7001200AF0D7FA03461A46A34B5A700023C7F89C30BBE00023C7F8983029E0D7F89C309BB21A4612011A4492001A44520013445B009AB2D7F898309BB29A
:4005C00013449BB202339BB218460AF0B5FA034618469349D7F89C201346DB009B1A5B00CA18D7F89830134402461A70D7F898300133C7F89830D7F898300D2BD1DD0023E8
:40060000C7F894307BE0D7F8942013465B001344DB007B630023C7F8903067E0D7F890305B003B633B6B9AB27B6B9BB213449AB2D7F89C309BB219460901194489001944C8
:4006400049000B445B009BB213449BB210339BB218460AF071FA0346FB853B6B9AB27B6B9BB213449AB2D7F89C309BB21946090119448900194449000B445B009BB2134487
:400680009BB211339BB218460AF056FA0346BB85FB8D1A02BB8D134418460CF0B9FA03464FF06E5118460CF007FB03464FF0864118460CF0F7F903461C465A48D7F89430BF
:4006C000D7F89C101A4652001A4493001A460B465B010B449B001A44D7F89030134440F82340D7F890300133C7F89030D7F890300B2B93DDD7F894300133C7F89430D7F876
:4007000094300A2B7FF77FAFD7F89C300133C7F89C30D7F89C30062B7FF73FAF0023C7F88C3049E0D7F88C3003F2E7139BB29B009BB218460AF000FA03469BB21B029CB2C9
:40074000D7F88C309BB29B009BB203F29D739BB218460AF0F1F903469BB2234499B2324AD7F88C3022F81310D7F88C309BB29B009BB203F29E739BB218460AF0DDF903460F
:400780009BB21B029CB2D7F88C309BB29B009BB203F29F739BB218460AF0CEF903469BB2234499B2214AD7F88C3022F81310D7F88C300133C7F88C30D7F88C30092BB1DD4C
:4007C000FFF736FE0023C7F8883061E00023C7F8843011E01649D7F888201346DB009B1A5B00CA18D7F884301344FF221A70D7F884300133C7F88430D7F884300D2BE9DD41
:400800000023C7F8803034E00023FB6729E000BF00EC0000E0C7FF1F95020000D480FF1FE8C7FF1F7484FF1FF080FF1F0481FF1F3C93FF1F4E48D7F88030D7F888101A462E
:40084000D200D21A53001A460B46DB005B1A1B011344C218FB6F1344FF221A70FB6F0133FB67FB6F0D2BE5DDD7F880300133C7F88030D7F88030072BC6DD3E4AD7F88830C4
:40088000002142F82310D7F888300133C7F88830D7F888303F2B99DD07F044FA002009F03DFF012009F058FF002009F073FF002009F08CFF002009F0A3FF012009F0DCFF37
:4008C00006F0CAFE06F0E0FE2B4B1B682B4AD25C2B4B1A700A2005F083FD2A4B40221A7000220121702001F051FE03461A46264B1A604021802003F0B5FD002003F0D4FD98
:400900004021802003F0EEFD1D4B1B78184603230022022103F080FE03F09AFE0246032301211A4803F02CFE154B1B781A461346DB009B1A5B00164A9C1803F089FE02469C
:4009400003230821204603F01BFE4021802003F0EDFD0C4B04221A7000220121702001F015FE03461A46084B1A600023BB6727E0E0ABFF1F8497FF1F4883FF1FD480FF1FFA
:40098000BA82FF1F4CC8FF1F58CAFF1F00F00000E8C7FF1FBB6FDBB20833DAB2924B1A7000220121722001F0F1FD03461A468F4B1A602021802003F095FDBB6F0133BB6731
:4009C000BB6F072BE6DD884B04221A7000220121702001F0DBFD03461A46844B1A60844B09221A70804B0F221A7000220121352001F0CCFD03461A467C4B1A6007F042F84E
:400A000006F066F807F0F8F801F0D0FC01F006FD784809F0C1FD784809F070FD774BFE229A77764BFD22DA77714B00221A70744B1B78DBB2002B01D002F0A8F8012009F01A
:400A4000F9FD6B4B1B78DBB21A466E4B13F812206D4B1B789A4214D0654B1B78DBB21A46684B13F812301A4601239340DAB25E4B1A7000220121702001F088FD034687F8F1
:400A80002B305B4B1B78DBB21A465E4B13F812205D4B1A700A2005F0C5FC554B1B78DBB21A46584B13F81230052B1DD1504B1B78DBB21A46554B9B5C002B15D14C4B1B78A2
:400AC000DBB2504A5B0013445B781A4601239340DAB2454B1A7000220121712001F056FD03461A46414B1A600A2005F09BFC404B1B78DBB2092B00F2BF803D4B1B78DBB217
:400B00001A46424B9B5C002B40F0B680364B0E221A7002220121362001F038FD03461A46324B1A60314B1B68002B08D101220221362001F09BFD03461A462C4B1A602B4B6B
:400B40001B68002B40F09880294B1B78DBB21A462F4B1B78DBB29BB21B0299B22D4B23F812102B4B5B78D8B2214B1B78DBB219461A46284B33F8122083B213449AB2254B51
:400B800023F81120244B1B68002B75D0184B1B78DBB21A461F4B33F81220154B1B78DBB219461E4B33F811309A4247D2104B1B78DBB2002B34D10E4B1B78DBB21A46154B50
:400BC00033F81230002B39D0094B1B78DBB21A46074B1B78DBB219460E4B33F811100F4B23F812102AE000BF4CC8FF1F58CAFF1F0183FF1F85000000F9010000D4C9FF1F5C
:400C0000A282FF1FD880FF1F7081FF1FF082FF1FE496FF1F28A3FF1F5083FF1FF080FF1F9B4B1B78DBB21A46994B1B78DBB21946984B33F81110984B23F81210944B1B78D3
:400C4000DBB21A46934B33F81220914B1B78DBB21946924B33F811309A420DD98C4B1B78DBB21A468A4B1B78DBB21946894B33F811108A4B23F81210854B1B78DBB2092BE5
:400C800040F08780824B1B78DBB21A46844B9B5C002B40F0C580834B00221A7000221021352001F0E3FC03461A467F4B1A607E4B1B68002B40F0B48000237B6720E07B6FA1
:400CC0005B007A4AD35CDBB29BB21B029AB27B6F5B007649CB5CDBB29BB213449BB2C3F30B037B807B881B099BB2DBB2DB43D9B26F4A7B6F13440A461A707B6F01337B677D
:400D00007B6F072BDBDD6B4B1B68022B40F08880694B1B780833DAB2624B1A7000220121722001F033FC03461A465F4B1A602021802003F00DFC012003F0B6FB5F4B1B785A
:400D400019465D4B1B781A46D200D21A53001A460B46DB005B1A1B011344594A981801230022082103F00CFC2021802003F0DEFB514B1B780133DAB24F4B1A704E4B1B784B
:400D8000072B4DD94B4B00221A604B4B00221A7046E03F4B1B78DBB20A2B2AD13C4B1B78DBB21A463E4B9B5C002B39D13D4B00221A70002202214F2001F058FC03461A46D5
:400DC000394B1A60384B1B68002B29D1374B1B78DBB29BB21B029AB23A4B1A80334B5B78DBB29AB2374B1B8813449AB2354B1A8016E0274B1B78DBB20B2B11D1324B1B68A7
:400E0000002B06D04021802003F090FB2E4B00221A60284B1B68012B02D1264B02221A601B4B1B78DBB2092B00F2EC80184B1B78DBB21A46174B33F81220154B1B78DBB2DF
:400E40001946154B33F81130D31A9BB23B85B7F92830002B3EDD0E4B1B78DBB21C46B7F9283018460BF0D4FE094B1B78DBB21A46164B53F8223019460BF01EFF0346184601
:400E80000CF01CF903469AB2114B23F8142029E00183FF1F28A3FF1FF080FF1F0481FF1FF082FF1F4CC8FF1F58CAFF1FE496FF1FBC96FF1F1C83FF1FDD82FF1F1083FF1F27
:400EC000E0ABFF1F1A81FF1F1883FF1F9C98FF1FFC83FF1F864B1B78DBB21A46854B002123F81210824B1B78DBB21A46814B33F81230B3F5805F08D37D4B1B78DBB21A4639
:400F00007C4B40F6FF7123F81210794B1B78DBB21C46774B1B78DBB21A46764B33F8123018460BF071FE0346734918460BF0C4FE03461A46714B43F824206D4B1B78DBB2AD
:400F40001C466B4B1B78DBB21A466D4B9B5C1A46684B33F8123018460BF056FE03464FF0765118460BF0A8FE034618460CF0A6F80346DAB2634B1A555D4B1B78DBB21A4654
:400F80005B4B1B78DBB219465E4B5B5C5B08D9B25D4B9954564B1B78DBB21A465A4B9A5C534B1B78DBB21946584B5B5C9A420ED04F4B1B78DBB203F10E004D4B1B78DBB2C8
:400FC0001A46514B9B5C0122194601F075FD484B1B78DBB21A46464B1B78DBB219464A4B595C4A4B9954424B1B78DBB21A46404B1B78DBB219463F4B33F81110444B23F893
:4010000012103DE0434B1B8818460BF0FDFD0346414918460BF050FE034618460CF028F803461AB23D4B1A803C4BB3F90030002B03DA3A4B00221A8009E0384BB3F9003085
:40104000B3F5805F03DB354B40F6FF721A80334BB3F90020324BB3F900309A420BD02F4BB3F90030FB84FB8C5B099BB2002219460D2001F021FD294BB3F90020284B1A80D9
:401080001B4B1B78DBB20133DAB2194B1A70184B1B78DBB20B2B02D9154B00221A70002009F0C8FA012009F0FDFA1E4B1B78DBB2002B0CBF01230023DBB21B4ADB00134486
:4010C0009B79DBB2FE2B40F05B81164B1B78DBB2002B0CBF01230023DBB2134ADB001344DB79DBB2FD2B40F04B8100233B6743E10183FF1FFC83FF1F010880392083FF1F90
:401100007881FF1F6884FF1F04CAFF1F24CAFF1FE883FF1F1A81FF1FC5F1803F6EABFF1FE083FF1FC982FF1F60C9FF1F974B1B78DBB2002B0CBF01230023DBB21A463B6FA1
:401140005B009349D2000A4413441B78DBB29BB21B029AB28D4B1B78DBB2002B0CBF01230023DBB219463B6F5B0001338848C90001440B441B78DBB29BB2134499B2854A86
:401180003B6F22F81310834A3B6F32F813309AB281493B6F31F813309BB29A4200F0E0807C4A3B6F32F813309BB24FF6FF72934211D0784A3B6F32F813309BB218460BF0AA
:4011C00027FD764A3B6F52F8233019460BF030FF0346002B06D0724A3B6F4FF07E5142F82310AEE06B4A3B6F32F813309BB218460BF00EFD694A3B6F043352F82330194675
:401200000BF00CFF0346002B32D0624A3B6F32F813309BB218460BF0FBFC604A3B6F52F8233019460BF0F0FE0346002B20D0594A3B6F32F813309BB218460BF0E5FC0446AA
:40124000564A3B6F52F82310544A3B6F043352F82320544B1868534B5B68009303462046FFF7BAF801464E4A3B6F42F8231068E0484A3B6F32F813309BB218460BF0C8FCE0
:40128000464A3B6F083352F8233019460BF0C6FE0346002B34D03F4A3B6F32F813309BB218460BF0B5FC3D4A3B6F043352F8233019460BF09FFE0346002B21D0354A3B6F05
:4012C00032F813309BB218460BF09EFC0446334A3B6F043352F82310304A3B6F083352F82320304B58682F4B9B68009303462046FFF772F801462A4A3B6F42F8231020E004
:40130000244A3B6F32F813309BB218460BF07CFC0446224A3B6F083352F823101F4A3B6F0C3352F823201F4B98681E4BDB68009303462046FFF750F80146194A3B6F42F8EF
:401340002310174A3B6F52F8233019464FF07E500BF066FD03461946134A3B6F42F823100C4A3B6F32F8133099B20B4A3B6F22F813103B6F01333B673B6F012B7FF7D6AE68
:40138000002009F08FF90023FB662AE0C982FF1F60C9FF1F34CAFF1FE4C7FF1F1C81FF1FF498FF1F6081FF1FC498FF1FAF4AFB6E32F813309AB2AE49FB6E31F813309BB257
:4013C0009A4202D0F86E01F0D9FAA84AFB6E32F8133099B2A64AFB6E22F81310FB6E0133FB66A44B1B68FA6E9A42DFDB06F034F80346002B24D1A04B1B68042B03DD9E4B0D
:4014000004221A600CE09D4B1B78002B08D09A4B1B68002B04DD984B1B68013B964A1360012009F07BF9002009F096F9002009F0B1F9002009F0CAF9904B00221A7007E0F6
:4014400006F00AF80346002B02D08C4B01221A7006F012F80346002B0ED1874B05221A60002009F05BF9012009F076F9002009F091F9002009F0AAF906F00EF80346002B1F
:401480000ED17D4B06221A60002009F047F9002009F062F9012009F07DF9002009F096F906F00AF80346002B24D1734B1B68062B03DC714B07221A600CE0714B1B78002B67
:4014C00008D06D4B1B680A2B04DC6B4B1B680133694A1360002009F021F9002009F03CF9002009F057F9012009F070F9644B00221A7007E005F0E0FF0346002B02D0604BBD
:4015000001221A7009F024FA0346002B10D15D4B00221A605B4B1B685B4AD25C5B4B1A70002009F06DF9012009F0A6F901F026F909F01EFA0346002B10D1524B01221A603A
:40154000504B1B68504AD25C504B1A70012009F057F9002009F090F901F010F909F018FA0346002B16D14A4B1B78002B12D0494B1B78002B0CBF01230023DBB21A46454BDE
:401580001A70444B1B78184609F0AAF8404B00221A7007E009F0FCF90346002B02D03C4B01221A703C4B1B68002B40F0CD8009F07FF90346002B25D1384B1B78002B21D041
:4015C000324B1B78013BDAB2304B1A702F4B1B7803F01F03DAB22D4B1A702A4B1B682B4A1178294AD154294B1A78264B1B689BB21946104609F016FA01F0C0F8274B00228E
:401600001A7007E009F054F90346002B02D0234B01221A7009F05CF90346002B42D1204B1B78002B3ED0194B1B780133DAB2174B1A70164B1B7803F01F03DAB2134B1A7066
:40164000104B1B68114A11780F4AD1540F4B1A780C4B1B689BB21946104609F0E3F901F08DF80F4B00221A7024E000BF8498FF1F1084FF1FCC80FF1FD080FF1F7381FF1F78
:401680007481FF1F4883FF1FD480FF1FBA82FF1F7181FF1F0383FF1F4C83FF1F0C83FF1F0D83FF1F09F014F90346002B02D0AF4B01221A7009F01CF90346002B16D1AC4B13
:4016C0001B78002B12D0AB4B1B78013BDAB2A94B1A70A84B1B7803F03F03DAB2A54B1A7001F04CF8A24B00221A7007E009F000F90346002B02D09E4B01221A7009F008F93D
:401700000346002B16D19C4B1B78002B12D0994B1B780133DAB2974B1A70964B1B7803F03F03DAB2934B1A7001F028F8924B00221A70B7E009F0ECF80346002B00F0B280E3
:401740008D4B01221A70ADE009F0B2F80346002B25D18A4B1B78002B21D0894B1B78013BDAB2874B1A70864B1B7803F01F03DAB2834B1A70834B1B68814A1178824AD15448
:401780007F4B1A787F4B1B689BB21946104609F049F900F0F3FF794B00221A7007E009F087F80346002B02D0744B01221A7009F08FF80346002B25D16C4B1B78002B21D090
:4017C0006F4B1B780133DAB26D4B1A706C4B1B7803F01F03DAB26A4B1A706A4B1B68684A1178694AD154664B1A78664B1B689BB21946104609F016F900F0C0FF5B4B00222D
:401800001A7007E009F064F80346002B02D0574B01221A7009F06CF80346002B16D1544B1B78002B12D0534B1B78013BDAB2514B1A70504B1B7803F03F03DAB24D4B1A7026
:4018400000F09CFF4A4B00221A7007E009F050F80346002B02D0464B01221A7009F058F80346002B16D1444B1B78002B12D0414B1B780133DAB23F4B1A703E4B1B7803F01B
:401880003F03DAB23B4B1A7000F078FF3A4B00221A7007E009F03CF80346002B02D0364B01221A7009F084F80346002B08D109F03FF80346002B03D1344B1B78002B0FD1D3
:4018C00009F076F80346002B40F0D380304B1B68002B00F0CE802D4B1B78002B00F0C9802B4B1B68002B0CBF01230023DBB21A46274B1A60274B1B68002B0CBF0123002373
:40190000DBB21A46234B1A60214B1B68DBB2184608F094FF1D4B00221A701D4B1B68002B56D04021802002F013FE002002F0BCFD002301220B21184802F022FE0123012223
:401940000B21164802F01CFE022301220B21144802F016FE032301220B21124802F010FE114B01221A600023BB662DE00D83FF1F0E83FF1F1083FF1F0F83FF1F0C83FF1F77
:40198000BA82FF1F4883FF1FD480FF1F7281FF1F4C83FF1F5083FF1F04F0000010F000001CF0000028F000001883FF1F614ABB6E40F6FF7122F813105F4ABB6E002122F8EE
:4019C0001310BB6E0133BB66BB6E092BEEDD58E000F0D4FEFEF72CFD00237B6645E0554A7B6E32F813301B0A9BB2DAB27B6E03F2E7139BB29B009BB21946104609F012F825
:401A00004C4A7B6E32F81330DAB27B6E9BB29B009BB203F29D739BB21946104609F002F8454A7B6E32F813301B0A9BB2DAB27B6E9BB29B009BB203F29E739BB2194610460D
:401A400008F0F0FF3C4A7B6E32F81330DAB27B6E9BB29B009BB203F29F739BB21946104608F0E0FF7B6E01337B667B6E092BB6DD07E008F09DFF0346002B02D02F4B01220D
:401A80001A702F4B1B682F4A136000233B6647E03B6E9BB2184605F0FDFD0346002B00DA0F331B111BB2D9B2274A3B6E13440A461A70254A3B6E13441B78DB43D9B2224A0F
:401AC0003B6E13440A461A701F4A3B6E13441B785B08D9B21D4A3B6E13440A461A701B4A3B6E13441A781A493B6E0B441B789A420AD03B6E03F10900144A3B6E13441B78AF
:401B00000022194600F0D8FF104A3B6E134419780F4A3B6E13440A461A703B6E01333B663B6E032BB4DD012008F0A2FD0023FB659FE100BFF080FF1F0481FF1F7281FF1F9D
:401B4000D080FF1FC082FF1F3CA3FF1F40ABFF1FA0C9FF1FAA4B1B68AA4AD35C1A46AA4913465B0113449B00FA6D134451F82340A64B1B781A46A44913465B0113449B0093
:401B8000FA6D1344303351F82320A14B1B68194610460BF091F80346194620460AF084FF03461C46994B1B781A46974913465B0113449B00FA6D13443C3351F82320944BA4
:401BC0005B68194610460BF077F80346194620460AF06AFF03461C468C4B1B781A468A4913465B0113449B00FA6D1344483351F82320874B9B68194610460BF05DF80346BB
:401C0000194620460AF050FF03461C467F4B1B781A467D4913465B0113449B00FA6D1344543351F823207A4BDB68194610460BF043F80346194620460AF036FF03461C4615
:401C4000724B1B781A46704913465B0113449B00FA6D1344603351F823206D4B1B69194610460BF029F80346194620460AF01CFF03461C46654B1B781A46634913465B0198
:401C800013449B00FA6D1344783351F82320604B5B69194610460BF00FF80346194620460AF002FF03461C46584B1B781A46564913465B0113449B00FA6D13446C3351F8E1
:401CC0002320534B9B69194610460AF0F5FF0346194620460AF0E8FE03461C464B4B1B781A46494913465B0113449B00FA6D1344243351F82320464BDB69194610460AF0DC
:401D0000DBFF0346194620460AF0CEFE03461C463E4B1B781A463C4913465B0113449B00FA6D13440C3351F82320394B1B6A194610460AF0C1FF0346194620460AF0B4FEE7
:401D400003461C46314B1B781A462F4913465B0113449B00FA6D1344183351F823202C4B5B6A194610460AF0A7FF0346194620460AF09AFE03463B62244B1B781A462249B1
:401D800013465B0113449B00FA6D134451F82330FB61F8690BF06CF901461E4AFB6D42F823101D4B1C68386AFEF7BCFA0346194620460AF081FF03461846FEF7E7FAB8612A
:401DC000144AFB6D52F8233018460AF021FF03461946B8690AF066FE03467B610F4978690AF06AFF03464FF08C4118460AF05CFE03463B610A4AFB6D52F8233012E000BF2A
:401E00004883FF1FD480FF1F7484FF1FBA82FF1F2083FF1F70C9FF1FC498FF1FABAA2A435497FF1F396918460BF0DAF80346002B0AD138690BF042F903461A46FB6D013342
:401E40001946104600F06CFE9449FB6D3A6941F823204FF00001386A0BF0EAF80346002B04D08F49FB6D3A6A41F82320FB6D0133FB658C4B1B68FA6D9A42FFF66BAE0020C1
:401E800008F0F6FB08F054FD0346002B10D005F061FF03469800844B1B68834A126883498A5CD1B2C2B20A44D1B2804AD1540FE005F050FF034618467B4B1B687A4A126803
:401EC0007A498A5CD1B2C2B20A44D1B2774AD154002005F051FF764B1B78DBB2002B01D000F0C0FC734B1B78DBB2002B13D006F039FC0346002B0ED06F4B1B88402B05D98E
:401F00006E4B1B8801339AB26C4B1A806A4B00221A8000F0D1FC00BF04F0F8FD034603F00103002B06D104F0F1FD034603F01003002B01D0012300E00023002BECD0012000
:401F400008F046FD5E4B1B78DBB2012B56D15D4B1B78002B1DD05C4BFD221A705B4B1A78594B5A70594B1B781A46594B1A6000F005FC544B00221A70514B00221A70554BE8
:401F800000221A80504BFE229A774F4BFD22DA7775E14D4B02221A704C4B1A784A4B5A700223BB6520E04B4B1A884B4B1B889A420FD2484B1B885A1C91B2464A11801A4688
:401FC000464B9B5CD9B2404ABB6D13440A461A7007E03D4ABB6D1344EE221A70394B01221A70BB6D0133BB65BB6D1D2BDBD9364BFE229A77344BFD22DA7740E1384B1B78BB
:40200000002B1CD0304B06221A70364B1A782E4B5A70354B1A782C4B9A70344B1A782A4BDA70334B1A78284B1A71274BFE229A77254BFD22DA772A4B00221A701FE12D4B79
:402040001B78DBB2002B00F0AB801F4B03221A7000237B650AE07B6D013327497A6D0A441178194AD1547B6D01337B657B6D072BF1DD00233B650AE03B6D09331F493A6D9E
:402080000A441178104AD1543B6D01333B653B6D032BF1DD0023FB643DE000BF5497FF1FA4C9FF1FCC80FF1F0883FF1F5884FF1FB082FF1FAF82FF1FB682FF1FB882FF1F5E
:4020C0009282FF1F8482FF1FD4C9FF1F8282FF1FFC82FF1F8C82FF1F8E82FF1F2499FF1F8582FF1F8682FF1F8782FF1F8882FF1F8982FF1F9382FF1FBC96FF1F3CA3FF1F79
:40210000FB6C0D339849FA6C0A441178974AD154FB6C0133FB64FB6C092BF1DD944B1B781B015AB2934B1B685BB213435AB2924B1B785B015BB213435AB2904B1B789B01C2
:402140005BB213435BB2DAB2884B1A768C4B1A78864B5A768B4BB3F900301B121BB2DAB2824B9A76874BB3F90030DAB27F4BDA76854B5B889BB21B0A9BB2DAB27B4B1A7738
:40218000814B5B889BB2DAB2784B5A77774BFE229A77764BFD22DA777C4B00221A706EE0724B01221A700023BB6424E0784ABB6C52F823304FF0884118460AF07DFD0346C5
:4021C000184608F0D3FD034618460AF051FF0346FB60BB6C5B000133FA681212D1B2634AD154BB6C01335B00FA68D1B25F4AD154BB6C0133BB64BB6C0B2BD7DD5C4B1B7865
:402200001B015AB25B4B1B685BB213435AB25A4B1B785B015BB213435AB2584B1B789B015BB213435BB2DAB2504B1A76544B1A784E4B5A76534BB3F900301B121BB2DAB248
:402240004A4B9A764F4BB3F90030DAB2474BDA764D4B1B889BB21B0A9BB2DAB2434B1A77494B1B889BB2DAB2404B5A773F4BFE229A773E4BFD22DA77444B01221A70454B44
:402280001B78FD2B5BD1434BDB7FFE2B57D1414B5B78BB603F4B1B7C7B6002237B6400233B6414E03B4A7B6C134418783A49BA681346DB009B1A5B00CA183B6C134402466A
:4022C0001A707B6C01337B643B6C01333B643B6C0D2BE7DD11237B640023FB631BE02D4A7B6C13441C782D487B68B9681A46D200D21A53001A460B46DB005B1A1B01134407
:40230000C218FB6B134422461A707B6C01337B64FB6B0133FB63FB6B0D2BE0DD184B1B781A46BB689A420AD17B68072B07D11C4ABB6852F82330002B01D100F01FFA04F08A
:4023400001FC184B1B78DBB20121184603F082FC154B1B78DBB20121184603F07BFC002008F036FBFEF763BB6884FF1FD4C9FF1F0483FF1FD080FF1F0383FF1F0283FF1F07
:402380001083FF1F6EABFF1F34CAFF1F9382FF1FA4C9FF1F38CAFF1F3C93FF1FE0ABFF1F8497FF1F2093FF1FE096FF1F80B500AF4FF4804341F6FF720121012008F00CFC32
:4023C00003461A46124B1A7003F096FD03461A46104B1A700F4B1B78D8B20123FE22202103F0B8FD0B4B1B78DBB20B4A91B246F24242184603F0EEFD054B1B78DAB2054BD0
:402400001B78DBB21946104603F008FD00BF80BDE096FF1F20CAFF1FD4C9FF1F80B500AF41F6FF734FF480420121012008F002F803461A464A4B1A7003F05EFD03461A46F6
:40244000484B1A7003F058FD03461A46454B5A70444B18780223FE221A2103F07BFD414B58780223FE221A2103F074FD3D4B1B783D4A92B246F25451184603F0ABFD394B6A
:402480005B783A4A92B246F25451184603F0A2FD41F6FF734FF480420121012007F0FCFF03461A46324B1A7003F026FD03461A46304B1A7003F020FD03461A462D4B5A7062
:4024C0002C4B18780623FE22082103F043FD294B58780623FE22082103F03CFD254B1B78254A92B246F25751184603F073FD214B5B78224A92B246F25751184603F06AFD70
:4025000041F6FF734FF480420121012008F032FB03461A461A4B1A7003F0EEFC03461A46184B1A70174B1B78D8B20223FE22202103F010FD134B1B78DBB2134A92B246F21E
:402540005241184603F046FD0D4B1B78DAB20D4B1B78DBB21946104603F060FC00BF80BD6CABFF1FE483FF1F80ABFF1F9AABFF1F40A1FF1F60ABFF1F60C9FF1F68C9FF1F21
:402580002093FF1F00CAFF1F38CAFF1F80B586B000AF0346FB710B46BB801346BB710023FB754CF250333B6104F038FF0346FB73FB7BDBB25BB2002B42DBBB88DAB2BB7935
:4025C000F879294904F0F6FD0346FB73FB7BDBB2002B2FD104F0FAFE0346FB733B69013B3B61FB7BDBB2802B03D100F0AFF80123FB753B69002B05D18023FB7300F0A6F81C
:402600000123FB75FB7BDBB2002B05D18023FB7300F09CF80123FB75FB7BDBB203F08203002B0DD1FB7BDBB2002B09D03B69002BD0D105E08023FB7300F088F80123FB75E4
:40264000FB7BDBB203F02003002B04D1FB7BDBB25BB2002B03DA00F079F80123FB75FB7D18461837BD4680BD4CC8FF1F80B584B000AF0346FB710B46BB7113467B714CF2D0
:402680005033FB600023FB7204F0C8FE0346BB72BB7ADBB25BB2002B3DDB7B79BA79F879274904F00BFE0346BB72BB7ADBB2002B2BD104F08BFE0346BB72FB68013BFB6019
:4026C000BB7ADBB2802B09D11E4B10221A701E4B04221A7000F03AF80123FB72FB68002B05D18023BB7200F031F80123FB72BB7ADBB203F08103002B0DD1BB7ADBB2002B95
:4027000009D0FB68002BD4D105E08023BB7200F01DF80123FB72BB7ADBB203F02003002B04D1BB7ADBB25BB2002B03DA00F00EF80123FB72FB7A18461037BD4680BD00BFF3
:40274000E496FF1FD9490040D749004080B500AF04F0D4FA064B00221A70064B00221A70054B00221A7004F0B1FA00BF80BD00BFD6490040C84900409983FF1F98B500AF23
:402780002E4B1B7819462E4A0B46DB005B1A1B01134462331B78FF2B4DD04021802001F0D7FE002001F080FE244B1B78184600230022022101F030FF204B1B781A461346BE
:4027C000DB009B1A5B001F4A9818012300220B2101F0D6FE1C4B1B78184603230022022101F01AFF01F034FF024603230121174801F0C6FE144B1B781A461346DB009B1ACE
:402800005B00134A9C1801F023FF024603230821204601F0B5FE0F4B01221A60074B1B7819460D4B012243F821200C4B00221A700B4B01221A6000BF98BD00BF1083FF1FCC
:40284000E0ABFF1F3C93FF1FBA82FF1F00F00000E8C7FF1F1883FF1F8497FF1FDD82FF1F1C83FF1F80B500AF05F07CFF0346002B05D105F075FD0E4B00221A7013E00C4B2B
:402880001B78DBB2002B0ED10021002005F0DEFB00BF05F0E5FD0346002BFAD007F0ACFA034B01221A70034B00221A7000BF80BDAF82FF1FB082FF1F80B500AF05F0DCFD2C
:4028C0000346002B10D005F0CBFD0346002B0BD0244B1B78DBB2002B06D005F043FF0346002B01D007F088FA05F0BAFD0346002B35D005F0C1FD0346002B18D01A4B1B78C7
:40290000D8B21A4B1B78DBB29BB21A46184905F011FE184B1B78DBB240221749184605F08DFE144B1B78DBB2184605F0CDFE0D4B1B78DBB2002B06D005F014FF0346002BC1
:4029400001D007F0D9FA074B1B78DBB2002B06D005F008FF0346002B01D007F05FFA00BF80BD00BFAF82FF1FDCD3FF1FDDD3FF1FE0D3FF1FDED3FF1F9CD3FF1F80B586B07B
:4029800000AF78602C4A7B6832F81330FB82FB8A002B43D0FB8A18460AF036F903463B614FF05E5138690AF087F903463B61386908F064FC3861214938690AF073F8034660
:4029C0003B611F4938690AF077F903463B6138690AF04EFB0346FB82FB8A7F2B01D97F23FB82184B1B681A1F13465B0013449B001946154A7B6852F823300B44FB60FB8ADF
:402A0000DBB219467B6801331A46F86800F020F80E497B68FA6841F8232009E00B4A7B6852F823007B6801331A46002100F010F800BF1837BD4680BD8498FF1F0918C43CEC
:402A4000551D0243D080FF1F70C9FF1F5483FF1F80B584B000AFF860B9607A607B68DBB2703BDAB2114B1A70FB68DAB20F4B5A70BB68DAB20D4B9A700D4B1B78DBB2002B2E
:402A800009D005F06FFE0346002B04D000220749032007F037FA074B1B8804339AB2054B1A8000BF1037BD4680BD00BF3893FF1FAF82FF1FB682FF1F80B584B000AFF86071
:402AC000B9607A607B68DBB2503BDAB2114B1A70FB68DAB20F4B5A70BB68DAB20D4B9A700D4B1B78DBB2002B09D005F03BFE0346002B04D000220749032007F003FA074B85
:402B00001B8804339AB2054B1A8000BF1037BD4680BD00BF3893FF1FAF82FF1FB682FF1F80B582B000AF786039603B68DBB2203BDAB2134B1A707B68DBB203F07F03DAB2FB
:402B40000F4B5A707B68DB11DAB20D4B9A700D4B1B78DBB2002B09D005F004FE0346002B04D000220649032007F0CCF9064B1B8804339AB2044B1A8000BF0837BD4680BDCB
:402B80003893FF1FAF82FF1FB682FF1F90B591B000AF8F4B01221A708E4B1B78002B40F0B0828D4B01221A708C4B00221A608C4B00221A70874B5A788A4B1A70854B9A7872
:402BC000894B1A70834BDA78874B5A70814B1A79854B9A707F4B5A79834BDA700623FB63142387F8273022E0FB6B023B7949FA6B0A44127802F07F02D1B27B4AD154794BF1
:402C00001B781846FB6B9A1F7249FB6B0B441B7803F07F03DCB275490346DB001B1A5B000B44134422461A70FB6B0133FB6397F82720FB6B9A42D7D8694B01221A70002331
:402C4000BB6334E000237B632BE0FB6B023B6149FA6B0A44127802F07F02D1B2624AD154604B1B7818465B4AFB6B13441B7803F07F03DCB25E49BB6B1A46D200D21A5300F3
:402C80001A460346DB001B1A1B011344CA187B6B134422461A70FB6B0133FB637B6B01337B637B6B0D2BD0DDBB6B0133BB63BB6B072BC7DD8223BB84494B02221A7019E287
:402CC0000023BB60BB684349FA6B0A44127812071343BB60BB68FA6B01323E498A5C52051343BB60BB68FA6B02323A498A5C92031343BB60BB68FA6B033236498A5CD20110
:402D00001343BB60BA68FB6B04333249CB5C03F07F031343BB60BB68364A1360304B1B78022B40F0B9802D4B1B68002B22D1BB6818460AF0C3F903469AB22F4B1A80BA8CE2
:402D4000264B1B68591C2548016013442A4A1288120A92B2D1B2244AD154BA8C1F4B1B68591C1E4801601344234A1288D1B21E4AD154BCE1204B1B8801335B001A46174B68
:402D80001B689A423CD9BB681C49184609F094FF034618460AF092F903467B84BA8C0F4B1B68591C0D48016013447A8C120A92B2D1B20D4AD154BA8C084B1B68591C0748CF
:402DC000016013447A8CD1B2074AD1548FE100BF8182FF1F40A3FF1F9082FF1F9482FF1F8A82FF1F8282FF1F2499FF1F3C93FF1FE0ABFF1FA882FF1F9C82FF1F00FF7F4761
:402E0000854B1B8801335B001A46844B1B689A4240F06D81BB68824A1360814B1B68814918460AF0E7F80346002B23D07C4B1B687D4918460AF0FCF80346002B1AD0BA8CCB
:402E4000764B1B68591C754801601344774AEF21D154BA8C714B1B68591C704801601344724AEF21D154724B03221A70714B00221A603CE1704B1B6801336F4A13606F4B9A
:402E800000221A706E4B00221A606E4B00221A706D4B00221A702AE1654B1B78032B28D1BB6818460AF00AF903469AB2674B1A80BA8C5A4B1B68591C584801601344634A8C
:402EC0001288120A92B2D1B2584AD154BA8C534B1B68591C5148016013445C4A1288D1B2524AD154524B04221A70594B00221A80FDE04F4B1B78042B40F0F980544B1A880D
:402F0000524B1B889A4280F0A7804A4B1B6803F00303002B0FD1BA8C404B1B68591C3F480160D418BB6818460AF0C8F80346DAB23E4B1A5569E03F4B1B6803F00303012BA2
:402F40000FD1BA8C354B1B68591C34480160D418BB6818460AF0B2F80346DAB2334B1A5553E0344B1B6803F00303022B23D1BB684FF0000118460AF03DF80346002B0AD076
:402F8000BA8C264B1B68591C244801601344274AFF21D15439E0BA8C204B1B68591C1F480160D418BB6818460AF088F80346DAB21E4B1A5529E0BB682649184609F07CFEFE
:402FC000034618460AF054F803463B84BA8C134B1B68591C114801601344B7F92020121212B2D1B2114AD154BA8C0C4B1B68591C0A48016013443A8CD1B20C4AD154144B92
:403000001B8801339AB2124B1A800A4B1B680133084A13606BE000BF9C82FF1F9482FF1FA482FF1F0000C0BF000020C02499FF1F8A82FF1F9882FF1F8883FF1F9082FF1FF2
:403040007C82FF1F9282FF1FA282FF1F9E82FF1FA082FF1F00FEFF46BB686349184609F0C9FF0346002B31D0BB686049184609F0DFFF0346002B29D0BA8C5D4B1B68591C48
:403080005B48016013445B4AFE21D154BA8C584B1B68591C564801601344564AFE21D154554B05221A70554B00221A70544B01221A70544B1A78544B1A704D4B1B689AB207
:4030C000BB8C13449AB2514B1A8010E0504B1B6801334F4A1360494B00221A704D4B00221A60474B00221A704B4B00221A70FB6B0533FB63474B1B68FA6B9A42FFF4E0AD9C
:403100000BE2464B1B78022B40F078813B4B01221A70374B00221A60404B5A78404B1A703F4B1A783F4B1A703F4B1B683D4A11783E4AD15402233B631023FB7740E0374A62
:403140003B6B13441B7803F07F03BB77344B1B7818463B6B9A1E36490346DB001B1A5B000B441344BA7F1A702D4B1B789BB21A4612011A4492001A44520013445B009BB244
:4031800002339AB22B4B1A80254B1B789BB21A4612011A4492001A44520013445B009AB23B6B9BB213449AB2BB7F1146184607F039FC0346DAB2204B1A703B6B01333B632A
:4031C000FA7F3B6B9A42BAD810233B63D7E00023FB62D0E0FB6A9BB21A4652001344DB00BB830023BB62BFE0000020C0000060C09482FF1F2499FF1F8A82FF1F9082FF1F6E
:403200009282FF1F8282FF1F1083FF1F8E82FF1F8883FF1F7C82FF1FA282FF1F40A3FF1F8382FF1FBA82FF1F4883FF1FD480FF1FE8C7FF1F8683FF1F8483FF1F00237B60E4
:403240007B6862493A6B0A441278120713437B607B683A6B01325D498A5C520513437B607B683A6B023259498A5C920313437B607B683A6B033255498A5CD20113437B60DB
:403280007A683B6B04335149CB5C03F07F0313437B604F4B1B781C4679684E48FB6A1A4652001A4493001A4623465B0123449B001A44BB6A134440F823107B684FF0874184
:4032C000184609F0F9FC03464FF08E41184609F0EBFB0346184609F0F1FE03467B837B8B1B0A9BB27B767B8B3B76BB6A9BB25B00FB82FA8ABB8B13449AB2354B1B789BB2E1
:403300001946090119448900194449000B445B009BB213449BB210339AB22F4B1A802E4B1B889AB27B7E1146184607F07BFB0346DAB22A4B1A70284B1B889BB201339AB220
:403340003B7E1146184607F06DFB0346DAB2234B1A70234B1B680133214A13603B6B05333B63BB6A0133BB62BB6A0B2B7FF666AFFB6A0133FB62FB6A0A2B7FF62BAF194B96
:403380001B683A6B9A42FFF422AF154B1B689AB2154B1A80144B1B88842B11D0134B1B680133124A1360124B00221A700D4B00221A60104B00221A700F4B00221A70ACE010
:4033C0000B4B00221A70FFF7D9F9A6E040A3FF1F8382FF1F7484FF1F8683FF1F8483FF1F9482FF1F7C82FF1F8E82FF1F8883FF1F9082FF1F9282FF1FA282FF1F4D4B1B7881
:40340000032B40F08A804C4B01221A7002233B6100233B603B6847493A690A441278120713433B603B683A69013242498A5C520513433B603B683A6902323E498A5C9203FB
:4034400013433B603B683A6903323A498A5CD20113433B603A683B6904333649CB5C03F07F0313433B603B68184607F07FFC0346184609F023FE0346FB81304B00221A700A
:40348000FB89DAB22E4B1A703B6905333B6100233B603B6827493A690A441278120713433B603B683A69013222498A5C520513433B603B683A6902321E498A5C9203134367
:4034C0003B603B683A6903321A498A5CD20113433B603A683B6904331649CB5C03F07F0313433B603B681749184609F0E5FB0346184609F0E3FD0346BB81BB891B0A9BB24B
:40350000DAB2114B1A70BB89DAB2104B1A700A4B00221A700E4B01221A700E4B00221A700D4B00221A600D4B00221A7000BF4437BD4690BD40A3FF1F9082FF1F8682FF1F7F
:403540008782FF1F00FF7F478882FF1F8982FF1F8582FF1F8182FF1F7C82FF1FA282FF1F80B584B000AF03463960FB713B681A78464B1A703B685A78444B5A703B689A7831
:40358000424B9A703B68DA78404BDA70404B1B78DBB2002B76D005F0E5F80346002B71D03C4B1B78002B29D00023FB6022E0FB683A6813441B785BB2002B0EDB364B1B6835
:4035C0005A1C35490A6040F2FF721340FA6839680A441178314AD15409E0FB683A6813441B78F72B03D12B4B00221A704AE0FB680133FB60FB68022BD9DD43E03B681B7852
:40360000F02B3FD1264B1B78002B3BD13B6801331B787E2B03D1234B01221A7032E03B6801331B78002B0ED03B6801331B78012B09D03B6801331B78022B04D03B680133EC
:403640001B78032B1ED1134B01221A70124B1B68002B17D1104B1B685A1C0F490A6040F2FF7213403A6851780C4AD1540A4B1B685A1C09490A6040F2FF7213403A689178FF
:40368000064AD1541037BD4680BD00BF44ABFF1FAF82FF1F8082FF1F7C82FF1F40A3FF1F8182FF1FA282FF1F80B483B000AF78600B467B8013463B807B687A881A807B68A3
:4036C0003A885A807A887B689A803A887B68DA807B6800221A817B6800225A817B6800229A817B680122DA817B684FF6FF721A827B684FF6FF725A827B6801229A827B6880
:403700000022DA827B6800229A617B6800221A817B680022DA837B6808229A8300BF0C37BD4680BC704700BF80B58AB000AFF860084611461A4603467B810B463B81134602
:40374000FB80B7F93020B7F90830D31A83EAE372A2EBE372B7F90610B7F90A30CB1A002BB8BF5B429A42CCBF01230023DBB27B84B7F92230002B0BD07B893B843B897B81BC
:403780003B8C3B81FB88FB833B8EFB80FB8B3B86B7F90A20B7F906309A420BDD7B89BB83FB887B81BB8BFB803B897B833B8E3B817B8B3B86FA887B89D31A9BB23B83B7F9B8
:4037C0003020B7F90830D31A002BB8BF5B42FB82B7F91830DA0F13445B10FB84B7F90820B7F930309A4202DA0123BB8431E04FF6FF73BB842DE0B7F92230002B08D0BB8E61
:40380000B7F90A20B7F90810F86800F01DF907E0BB8EB7F90820B7F90A10F86800F014F9FA8CFB8AD31A9BB2FB84B7F92630002B09DA3A89BB8C13449BB23B81FA8C3B8BC3
:4038400013449BB2FB84B7F90A309BB201339BB27B81B7F90A20B7F906309A42CBDD00BF2837BD4680BD00BF80B586B000AFF860084611461A4603467B810B463B811346EE
:40388000FB80B7F90A30002BC0F2D780B7F90A30FA689288934280F2D080B7F90830002BC0F2CB80B7F90830FA68D288934280F2C480F86800F00EFD0346022B14D0032B50
:4038C00027D0012B36D17B89FB823B897B81FB8A3B81FB68B3F900309AB27B89D31A9BB2013B9BB27B8125E0FB68B3F900309AB27B89D31A9BB2013B9BB27B81FB68B3F96C
:4039000002309AB23B89D31A9BB2013B9BB23B8110E07B89BB823B897B81BB8A3B81FB68B3F902309AB23B89D31A9BB2013B9BB23B8100BFFB88012B04D0022B54D0002B46
:4039400028D07BE0B7F90A20B7F90830002B00DA0733DB1018B20146FB68B3F9003003FB01F31344B7F90A10FA68B2F9002002FB00F20A4433498A5C51B23A8902F0070218
:40398000012000FA02F252B20A4352B2D1B22D4AD15453E0B7F90A20B7F90830002B00DA0733DB1018B20146FB68B3F9003003FB01F31344B7F90A10FA68B2F9002002FBD8
:4039C00000F20A441F498A5C51B23A8902F00702012000FA02F252B2D24352B20A4052B2D1B2184AD15429E0B7F90A20B7F90830002B00DA0733DB1018B20146FB68B3F9DF
:403A0000003003FB01F31344B7F90A10FA68B2F9002002FB00F20A440A498A5C51B23A8902F00702012000FA02F252B24A4052B2D1B2044AD15400BF00E000BF1837BD4698
:403A400080BD00BFD4CEFF1F80B584B000AFF860084611461A4603467B810B463B811346FB80FB88B7F90820B7F90A10F868FFF7FBFE00BF1037BD4680BD00BF80B586B00B
:403A800002AFF860084611461A4603467B810B463B811346FB80B7F90600B7F90820B7F90A103B8B00930346F86800F025F800BF1037BD4680BD00BF80B586B002AFF860F2
:403AC000084611461A4603467B810B463B811346FB80B7F90600B7F90820B7F90A10BB8B0193B7F9183000930346F86800F02AF800BF1037BD4680BD90B587B002AFF86058
:403B0000084611461A4603467B810B463B811346FB803A89FB8813449BB2013B9BB21BB2B7F90A40B7F90800B7F90A103A8C0192009323460246F868FFF7F6FD00BF1437AE
:403B4000BD4690BD80B588B002AFF860084611461A4603467B810B463B811346FB807B89FB8211E0B7F92000B7F90820B7F91610BB8C00930346F868FFF780FFB7F9163076
:403B80009BB201339BB2FB82B7F91620B7F90A10B7F906300B449A42E4DB00BF1837BD4680BD00BF90B58FB002AFF860084611461A4603467B810B463B811346FB71FB6821
:403BC0009B69002B40F02E81B7F90A30FA689288934280F2E981B7F90830FA68D288934280F2E281B7F90A1097F8482013465B0013445B000B44013B002BC0F2D581B7F9BD
:403C0000082097F84830DB001344013B002BC0F2CB81FB68DB8A002B05D1FB79AF2B02D9FB790133FB71002387F82F30BCE0FB689969FA7913469B001A4497F92F301344AB
:403C40001A4613465B0013449B000B441B7887F82E30002387F82D309AE097F82E3003F00103002B41D097F84830012B13D197F92F309AB27B8913449BB219B297F92D3034
:403C80009AB23B8913449BB21AB2B7F84030F868FFF7DAFE70E097F92F309BB297F8482092B202FB03F39AB27B8913449BB219B297F92D309BB297F8482092B202FB03F356
:403CC0009AB23B8913449BB218B297F848301CB297F848301BB2B7F840200192009323460246F868FFF7E8FE46E0B7F84420B7F840309A4240D097F84830012B13D197F990
:403D00002F309AB27B8913449BB219B297F92D309AB23B8913449BB21AB2B7F84430F868FFF792FE28E097F92F309BB297F8482092B202FB03F39AB27B8913449BB219B2BE
:403D400097F92D309BB297F8482092B202FB03F39AB23B8913449BB218B297F848301CB297F848301BB2B7F844200192009323460246F868FFF7A0FE97F92D30DBB2013328
:403D8000DBB287F82D3097F82E305B0887F82E3097F92D30072B7FF760AF97F92F30DBB20133DBB287F82F3097F92F30042B7FF73EAFB7F84420B7F840309A4200F0F580BA
:403DC00097F84830012B0DD17B8905339BB219B2B7F90820B7F8443000930823F868FFF74DFEE2E097F848309BB21A46920013449AB27B8913449BB219B297F848301CB211
:403E000097F848309BB2DB009BB21BB2B7F90800B7F844200192009323460246F868FFF74BFEC2E0FB689B6908331B78FA79D31AFB71FB79DA00FB689B69043318CB13442F
:403E4000FB61FB689B6918CBBB61FB691B887B85FB699B78FB75FB69DB78BB75FB6905331B787B75FB6906331B783B75002387F82730002387F826300023BB8400237B8437
:403E800097F84830012B05D997F91530BB8497F914307B84002387F828307EE0002387F8293070E097F826305A1C87F8262003F00703002B08D17B8D5A1C7A851A46BB6945
:403EC00013441B7887F8273097F92730002B50DA97F84830012B1DD197F915309AB27B8913449AB297F829309BB213449BB219B297F914309AB23B8913449AB297F82830CB
:403F00009BB213449BB21AB2B7F84030F868FFF79BFD2EE0B7F9242097F8293013449BB297F8482092B202FB03F39AB27B8913449BB219B2B7F9222097F8283013449BB2BF
:403F400097F8482092B202FB03F39AB23B8913449BB218B297F848301CB297F848301BB2B7F840200192009323460246F868FFF7A3FD97F827305B0087F8273097F8293011
:403F8000013387F8293097F82920FB7D9A4289D397F82830013387F8283097F82820BB7D9A42FFF47BAF00E000BF3437BD4690BD80B584B000AF78600B467B807B689B8AD5
:403FC000002B19D07B689B891A46B7F9023013447A68928893420FDB7B6800229A817B685A897B689B8B7968C98901FB03F39BB213449AB27B685A817B681B8C002B4FD0BC
:404000007B689B69002B0AD17B689B8B7A68D28902FB03F39BB2013B9BB2FB8101E00023FB817B685A89FB8913449AB27B68DB8B7968C98901FB03F39BB21344BB817B686A
:40404000DB88BA899A422BD3BB89DAB27B68DB88DBB2D31ADBB20133D9B27B681A8A7B685B8A9A4202D07B685B8A00E000231A46786800F0E9F97B6800229A817B68DA88A5
:40408000FB89D31A9AB27B68DB8B7968C98901FB03F39BB2D31A9BB2013B9AB27B685A8100BF1037BD4680BDB0B58AB004AF78600B46FB707B689B69002B45D1FB780A2B0C
:4040C00010D17B685A897B689B8B7968C98901FB03F39BB213449AB27B685A817B6800229A81AAE0FB780D2B00F0A7807B68DB899B009BB21BB219467868FFF759FF7B6865
:404100009B8918B27B685B891CB27B681B8A7A68528A7968C989C9B2FD780291019200932B46224601467868FFF73CFD7B689A897B68DB89194649000B445B009BB2134468
:404140009AB27B689A8178E0FB780A2B13D17B6800229A817B685A897B68DB89796889690A31097889B201FB03F39BB213449AB27B685A8161E0FB780D2B5ED07B689B6979
:404180001B7AFB75FA78FB7D9A4256D37B689B6909331B78FA789A424FD8FA78FB7DD31ADA007B689B69043318CB13443B613B699B78FB733B69DB78BB73FB7B002B2DD053
:4041C000BB7B002B2AD03B6905331B785BB2BB817B68DB89B7F90C10FA7B0A4492B202FB03F39BB21BB219467868FFF7E1FE7B689B8918B27B685B891CB27B681B8A7A68A1
:40420000528A7968C989C9B2FD780291019200932B46224601467868FFF7C4FC7B689A893B6904331B789BB27968C98901FB03F39BB213449AB27B689A8100BF1837BD462B
:40424000B0BD00BF80B483B000AF78600B467B8013463B807A887B689A813A887B685A8100BF0C37BD4680BC704700BF80B483B000AF78607B689B891BB218460C37BD4627
:4042800080BC704780B483B000AF78600B46FB70FB78002B02D0FB789AB200E001227B68DA8100BF0C37BD4680BC704780B483B000AF78600B467B8013463B807B687A88C6
:4042C0001A827B683A885A8200BF0C37BD4680BC704700BF80B483B000AF78607B681B89DBB218460C37BD4680BC704790B486B000AF786039603B68002B0AD07B689B6928
:40430000002B59D17B685B8906339AB27B685A8152E07B689B69002B3ED07B680022DA833B6808331B78BB753B6809331B787B75BB7DFB7525E0FA7DBB7DD31ADA003B68A1
:40434000043318CB13443B613B6903331B78FB733B6906331B78BB73FA7B97F90E3013447A68D28B934209DDFB7B1AB297F90E301BB213441BB29AB27B68DA83FB7D0133EA
:40438000FB75FA7D7B7D9A42D5D93B680A331B789AB27B689A830FE07B689B69002B05D07B685B89063B9AB27B685A817B6808229A837B680022DA837B683A689A6100BF22
:4043C0001837BD4690BC704780B588B000AFF860B9601346FB710023FB6129E0FB795A1EFB69D31A184608F013FC03461946154806F0C6FD0346184608F060FE0346BB61CC
:40440000BB69BA68B2FBF3F37B61FB69FA6813447A69D2B23032D2B21A707B69BA6902FB03F31A46BB689B1ABB60FB690133FB61FA79FB699A42D1DCFB7918462037BD4606
:4044400080BD00BF0000204180B483B000AF78600B46FB7013463B8000BF0C37BD4680BC704700BF80B582B000AF786039607B681BB23A6812B219460948FFF715F90949C7
:404480000748FFF733FF002201210548FFF70EFF01210348FFF7F6FE00BF0837BD4680BDACCAFF1FB092010080B582B000AF78607B68002B04D108490848FFF717FF06E021
:4044C0007B68012B03D106490448FFF70FFF00BF0837BD4680BD00BFB0920100ACCAFF1FD83A030080B584B000AF03460A46FB801346BB80BA88FB881946022000F0B2F8B1
:404500000023FB6007E0084AFB68134400221A70FB680133FB60FB68B3F5806FF3DB00BF1037BD4680BD00BFD4CEFF1F80B582B000AF03460A46FB801346BB80FB88BA885C
:404540001146184600F04EF900BF0837BD4680BD80B584B002AF786039607B6819B23B681BB20022019200930B46002200210348FFF7E8FA00BF0837BD4680BDACCAFF1F97
:4045800090B58BB002AFF860B9607A60FB707B68BB61FB7803F003031B010C337B61BB691BB27A6912B219461A48FFF74BFE7B6819B2FB789BB21B019BB218B2BB689BB2C9
:4045C0001A46520013449B009BB21CB2FB7801339BB21B019BB21BB2002201920093234602460C48FFF7AEFA0023FB610AE0FB69FA6813441B7819460648FFF755FDFB6975
:404600000133FB61FA69BB689A42F0DB00BF2437BD4690BDACCAFF1F80B586B000AFF860B9607A60FB70BB68DBB21A46F9680748FFF7CAFE7861FB787A6879690348FFF720
:404640009FFF00BF1837BD4680BD00BF8CCAFF1F80B500AF0248FFF709FE0346184680BDACCAFF1F80B582B000AF0346FB710B46BB8013467B804F4AFB791370AE2000F07F
:404680009BF8D52000F098F8802000F095F8A82000F092F87B88DBB2013BDBB2184600F08BF8D32000F088F8002000F085F8402000F082F88D2000F07FF8FB79012B03D127
:4046C000102000F079F802E0142000F075F8202000F072F8002000F06FF8A12000F06CF8C82000F069F8BB88802B0ED17B88202B0BD1DA2000F060F8022000F05DF8812016
:4047000000F05AF88F2000F057F8BB88802B15D17B88402B12D1DA2000F04EF8122000F04BF8812000F048F8FB79012B03D19F2000F042F802E0CF2000F03EF8BB88602B9C
:4047400015D17B88102B12D1DA2000F035F8022000F032F8812000F02FF8FB79012B03D1102000F029F802E0AF2000F025F8D92000F022F8FB79012B03D1222000F01CF8F7
:4047800002E0F12000F018F8DB2000F015F8402000F012F8A42000F00FF8A62000F00CF82E2000F009F8AF2000F006F800BF0837BD4680BDD4D2FF1F80B582B000AF0346E2
:4047C000FB71074B00221A70054AFB795370002202213C20FDF7DAFE00BF0837BD4680BD4CC8FF1F80B586B000AF7860396000F071F80020FFF7E0FF1020FFF7DDFF4020B1
:40480000FFF7DAFF0023FB730223BB733B68DB103B607B68DB107B600023BB6000237B750023FB7549E0FA7DFB7B1344DBB2503BDBB21846FFF7C0FFBB7B03F00F03DBB222
:404840001846FFF7B9FFBB7B1B09DBB243F01003DBB21846FFF7B0FF1C4B40221A700023BB7524E000233B610EE03B6901337A7D796801FB02F13A690A441549895C134AE8
:40488000D1543B6901333B613A697B689A42ECDB7B7D01337B757B689BB201339BB2002219463C20FDF772FEBB7D0133BB75BB7D072BD7D9FB7D0133FB75FA7D3B689A4260
:4048C000B1DB00BF1837BD4680BD00BF4CC8FF1FD4CEFF1F80B500AF0021002000F002F800BF80BD80B582B000AF03460A46FB711346BB7197F90630002B01DA7F23BB71E8
:40490000FB79072B01D90723FB712120FFF754FFBB791846FFF750FF7F20FFF74DFF2220FFF74AFFFB791846FFF746FF0320FFF743FF00BF0837BD4680BD00BF80B582B0D2
:4049400000AF786039603A680021786808F00DFC00BF0837BD4680BD80B584B000AFF860B9607A607A68B968F86808F0F3FB00BF1037BD4680BD00BF80B483B000AF034625
:40498000FB71FEE780B582B000AF3C4B01221A803B4B19221A703B4B07221A803A4B18221A703A4B07221A80394B18221A70394B17221A80384B18221A70384B47221A80BB
:4049C000374B18221A70374B06221A70364B374A1278D2B21A70364B52221A70354B40F21A721A80344B42F251221A800023FB7019237B6013E0FB785B00DAB22F4B1B788D
:404A0000DBB203F00103DBB21343DBB203F00303FB70782006F014F97B68013B7B607B68002B02D0FB78032BE5D17B68002B02D10320FFF7A1FF224B4FF480721A80204B11
:404A400007221A701F4B00221A701F4B48221A701B4B00221A701D4B00221A701C4B02221A701C4A1B4B1B78DBB243F01F03DBB2137000BF0837BD4680BD00BF8040004086
:404A8000824000408440004086400040884000408A4000408C4000408E400040904000409240004000430040A14600400F010049004200402242004020420040254200402A
:404AC0000440004006400040084000400940004001400040A243004080B582B000AF1F4B1B78FB711E4B1B78BB711E4B1B787B711D4AFB7903F00703DBB213701B4AFB79A5
:404B00001B09DBB21370164ABB7943F00303DBB21370144A7B7943F00303DBB21370144B0F221A70134B40221A70134B40221A70124BF0221A70124B20221A700A2001F0DE
:404B400071FC084A7B791370054ABB7913700D4B66221A7000BF0837BD4680BDCF010049F8460040F94600406E5800406F5800400D5100400159004003590040205B00409F
:404B8000235B00407658004080B586B000AF72B6614B61221A70FFF7F5FE0023FB7513E0FA7D13465B0013445B005C4A13443B613B691A683B699B889BB219461046FFF764
:404BC000BDFEFB7D0133FB75FB7D012BE8D90023FB751CE0FA7D13469B0013445B00504A1344FB60FB681B68BB60FB685B687B60FB681A7A5B7A1B0213437B807B881A46E2
:404C00007968B868FFF7A8FEFB7D0133FB75FB7D532BDFD9042243494348FFF79DFE042242494348FFF798FE04214248FFF786FE04214148FFF782FE042240494048FFF7FD
:404C40008BFE04223F494048FFF786FE3F4B404A1A60404B404A1A60404A404B1B78DBB243F00203DBB213703D4A3D4B1B78DBB243F00203DBB213703A4A3A4B1B78DBB2C1
:404C800043F04003DBB21370374A374B1B78DBB243F01003DBB21370082234493448FFF75BFE082233493448FFF756FE0A2233493348FFF751FE0A2232493348FFF74CFE4D
:404CC0000A2232493248FFF747FE082231493248FFF742FE0A2231493148FFF73DFE0A2230493148FFF738FE082230493048FFF733FE304A2F4B1B78DBB243F00803DBB249
:404D00001370FFF7E9FE0E2216492B48FFF724FE00BF1837BD4680BD00480040E43A0300F03A03008424004800760040882400480876004010760040187600408C240048F1
:404D4000207600409024004828760040580E01400404004458180140040400E40350014013500140A0430040C2430040282400480251004030240048C25100403824004899
:404D8000F0510040442400481051004050240048205100405C24004832510040642400484051004070240048505100407C2400486251004022430040B043004080B500AF34
:404DC00008F09CF903461B680C2B00D1FEE7FEE780B584B000AF7860104B1A687B6813441A460F4BD31AB3F5006F09DC0B4B1B68FB600A4B1A687B681344084A136007E0ED
:404E000008F07CF902460C2313604FF0FF33FB60FB6818461037BD4680BD00BF8481FF1F68D4FF1F80B586B000AF224B7B61224B3B61204B7B6135E03B691B68FB603B69DD
:404E40005B68BB603B699B683B6000237B600CE0FB681A68BB681A60BB680433BB60FB680433FB607B6804337B607A683B689A42EED13B69DB683B6000237B6008E0BB689C
:404E800000221A60BB680433BB607B6804337B607A683B689A42F2D13B6910333B617B69013B7B617B69002BC6D108F02DF9FBF745FBFEE701000000B441030080B582B00E
:404EC00000AF194B194A1A60194A194B1B6843F40073136000237B600FE07B68032B04D8144A7B6852F8233000E0134B13497A6841F822307B6801337B607B682F2BECD9A8
:404F00000F4B1B78DAB20F4B1A700F4B0B4A1A60FFF73AFE00F070FE0C4B00221A6000BF0837BD4680BD00BF0CED00E00004FA0514ED00E000000000BD4D00000080FF1F0A
:404F4000BC760040C480FF1F08ED00E0C080FF1F80B584B000AF786039600123FB733B68002B5FD07B68002B5CD07B68DB68002B58D07B685B680A2B54D87B681B68002BC7
:404F800050D0786800F066FC0346FB73FB7B002B48D17B681A683B68DA607B685A683B681A617B681A7A3B681A757B685A7A3B685A757B68DA683B689A617B681B68DA094B
:404FC0007B681B6803F07F03002B01D0012300E000231A443B685A603B685B687A68526802FB03F31A027B68DB681A443B681A603B6808333968184600F046FB3B689B6892
:405000001B68002B0ED13B681B7D002B0AD0386800F072FD0346FB733B6808333968184600F032FBFB7B18461037BD4680BD00BF80B59AB002AFF860B9607A603B6001239F
:4050400087F85F300023FB640023BB64BB687B647B68002B00F06B81FA687B681A443B68DB689A4200F26381BB68002B00F05F81FB683B647B68FB633B689B681B687B63CF
:405080000023BB633A6CFB6B1344013BDA093B6CDB09D31A01333B633B689A683B689B69D21A3B685B681B02B2FBF3F33A68526802FB03F31A023B689B691344FB620023AC
:4050C000BB6518E0BB6DDA013B6C9A4208D8BB6D0133DB015A1E3B6C9A4201D3012300E00023002B04D0BB6DBB64BB6CFB6407E0BB6D0133BB653B685A68BB6D9A42E1D8B3
:405100003B689A68FB6AD31A1B0ABB623B681B69012B12D93A6BBB6C1344013B7B62BA6CBB6A9A4207D87A6ABB6A9A4201D9012302E0002300E00123BB630023BB6563E026
:40514000FB6C1A02FB6A13443B653B6C03F07F0380333B62BB6D5A1C3B6B9A4206D23B6C03F07F03C3F180037B6501E0FB6B7B65BB6B002B17D0FA6CBB6A9A4213D93B6864
:405180005B681B023A6DD31A3B653B689A693B6D9A4208D93B681A683B685968FB6CCB1A1B02D31A3B653B681B7D002B0FD03B6800937B6D3A6A796C386D00F0A3FB0346E9
:4051C00087F85F3097F85F30002B0BD020E0786C3A6D3B6A13447A6D194607F0BBFF002387F85F303A6C7B6D13443B64FA6B7B6DD31AFB637A6C7B6D13447B64FB6C013313
:40520000FB64BB6D0133BB65BA6D3B6B9A4297D397F85F30002B40F08A807B6B002B00F086803B685A687B6B934228BF13463B633B6B013B3B637A6B3B6BD31ABB6572E08E
:405240003968B86D00F056FA38653B6D002B67D03B6D04331B68FB613B6D08331A68FB691344BB61FA69FB689A4209D9FA687B681A44FB699A428CBF01230023DBB206E01B
:40528000FA68BB699A4234BF01230023DBB2002B46D0FA69FB689A4203D8FA68FB69D31A00E000237B61FA69FB689A4203D9FA69FB68D31A00E000233B61FA68FB6993420A
:4052C00038BF13463B647B690C337B61FA687B681A44BB699A4228BF1A463B6CD31A7B65BA683B6913447B643B681B7D002B0FD03B6800937B6D7A69796C386D00F002FBA9
:40530000034687F85F3097F85F30002B08D00EE0786C3A6D7B6913447A6D194607F01AFFBB6D0133BB65BA6D7B6B9A4288D997F85F3018466037BD4680BD00BF90B5D7B047
:4053400002AF07F10C04206007F108000160391D0A603A461360012387F84F3107F1200300221A6007F11C0300221A603B461B689A6807F118031A6007F108031B68C7F87B
:405380003C313B1D1B68002B00F0748107F10C023B1D12681B681A443B461B68DB689A4200F2688107F108031B68002B00F062813B1D1B68013B1B09B24AA2FB032301332C
:4053C000C7F8343107F1100300221A600023C7F8443146E10023C7F8383107F118031B681B68C7F830313B4607F1140207F118011B68D7F8300100F09DF907F124034FF4D5
:4054000080720021184607F0B0FED7F830310133C7F8303107F12403D7F830211A6007F1240307F10C0212685A60D7F83C31C7F82C31D7F834315A1ED7F844319A4205D1C6
:4054400007F124033A1D12689A6014E007F1240370229A603B1D3A1D1268703A1A6007F10C0307F10C02126870321A60D7F83C317033C7F83C3107F124039A6807F1240368
:405480000C33D7F82C11184607F064FE07F114031B68002B0BD007F114031B688033194607F1240380338022184607F053FE3B461B685A68D7F830319A4207D23B461B68E5
:4054C0005B68D7F83021D31A013300E00123C7F848317EE0D7F84821D7F830319A4204D107F12403C7F8403107E03B461968D7F8480100F0FFF8C7F8400107F118031A6829
:405500003B461B689B69D31A1B0A3A4612685268B3FBF2F102FB01F29B1AC7F82831D7F84031002B17D0D7F8403104331B68D7F840210832126807F1100407F11C0107F106
:40554000200001920093D7F82831224600F056FAC7F8380104E0D7F838310133C7F83831D7F83831002B1ED107F1240207F120031B681344C7F8243107F110031A68D7F8D0
:40558000403113440C33C7F84031D7F82401D7F8401107F11C031A6807F120031B68D31A1A4607F0D7FD3B461B681B7D002B0BD007F1240380338021184600F015F9034697
:4055C0001A4607F12403DA67D7F848310133C7F84831D7F84821D7F830319A427FF67AAF07F1180318683B4607F124011A6800F063F9034687F84F3107F118031B68C7F8B9
:4056000040313B461B681B7D002B1BD097F84F31002B17D107F118031A683B461B689B69D21A3B461B681B681344C7F840313B4607F124011A68D7F8400100F03DF90346EF
:4056400087F84F3197F84F31002B12D107F118031A683B461B689A60D7F844310133C7F84431D7F84421D7F834319A42FFF4B2AE00E000BF97F84F31184607F5AA77BD460C
:4056800090BD00BF2649922480B487B000AF786039600023BB6000237B613B689B69FB607B68FA681A6000233B6115E0FB681B68BB60BB68002B08D0BA687B699A4204D996
:4056C000BB687B617B68FA681A60FB6803F58073FB603B6901333B613B685B683A68126902FB03F23B699A42E0D800BF1C37BD4680BC704780B485B000AF786039603B68EE
:405700009B69FB600BE0FB6803F58073FB603B681A68FB689A4202D80023FB6004E0FB681A687B689A42EED1FB6818461437BD4680BC704780B485B000AFF860B9607A600E
:405740003B60FB68002B05D0BB681B6803F58072BB681A60BB681A683B681B689A4203D33B689A69BB681A607B6800221A603B685A68FB689A4231D83B681B69012B29D9BD
:40578000BB681A683B685B681B02D21A3B689B699A4216D23B689A693B6859683B681B6903F1FF1303F57F4303FB01F31B021A44BB6819683B689B69CB1A1A447B681A6021
:4057C0000CE0BB681A683B685B681B02D21A7B681A6003E0BB681A687B681A6000BF1437BD4680BC704700BF80B485B000AF78603960FF23FB730023BB8121E0BB897A6809
:4058000013441A78FB7B5340FB730023BB7311E097F90F30002B06DAFB7B5B00DBB283F03103DBB202E0FB7B5B00DBB2FB73BB7B0133BB73BB7B072BEAD9BB890133BB8135
:40584000BA893B689A42D9D1FB7B18461437BD4680BC704780B487B000AF78600323FB757B68DB683B617B681B68DA097B681B6803F07F03002B01D0012300E000231344BF
:405880007A68526802FB03F37A68127A013202FB03F31A023B691344FB603B69002B05D0FB68B3F5802F01D80023FB75FB7D18461C37BD4680BC704780B588B000AFF860F6
:4058C000B9607A600423FB77FB681B0ADBB2BB6100F024FCFB681B0C7B617B69DBB2BA6991B2BA68184600F02BFC386100F0AEFD3B69002B01D10023FB77FB7F184620376E
:40590000BD4680BD90B5C7B000AF07F10C04206007F108000160391D0A603A461360D7F828319B6907F10C021268D21AD7F828311B681344C7F8103107F10C031B687C334D
:405940001C6807F10C031B68803380211846FFF74BFF03469C4211D107F10803186807F10C023B1D12681B68134419463B461A6807F0F0FB002387F8173137E0D7F8103194
:405980007C331C68D7F81031803380211846FFF72BFF03469C4226D1D7F8101107F110034FF48072184607F0D5FB07F1100107F10C03D7F828211868FFF77EFF034687F87C
:4059C000173197F81731002B10D107F1080318683B1D1B689B0007F11002D1183B461A6807F0B8FB02E0022387F8173197F81731184607F58E77BD4690BD00BF80B487B065
:405A000000AFF860B9607A603B6000237B617B6800221A603B68DA013B6A9A4208D83B680133DB015A1E3B6A9A4201D3012300E00023002B27D03B6A03F07F0303F180021B
:405A4000FB681A603A6A7B6A1A443B68DB019A420AD33A6A7B6A1A443B680133DB01013B9A4201D8012300E00023002B06D0FB681A687B6A1A44BB681A6036E0BB684FF436
:405A800080721A6031E03A6A7B6A1A443B68DB019A420AD33A6A7B6A1A443B680133DB01013B9A4201D8012300E00023002B19D0FB6880221A60FB681A687B6A1A443B6A38
:405AC00003F07F01FB681B68CB1A1A44BB681A60FB681A68BB681B68D21A7B6A1A447B681A6002E07B6901337B617B6918461C37BD4680BC704700BF80B5C8B000AF3B1D82
:405B000018603B1D1B689A6807F108031A6007F108031B681B68C7F81831012387F817310023C7F81C3153E007F108031B68194607F10C034FF48072184607F00BFBD7F8EA
:405B400018310133C7F8183107F10C03D7F818211A6007F10C03803380211846FFF744FE03461A4607F10C03DA6707F1080318683B1D07F10C011A68FFF79EFE034687F879
:405B8000173107F108031A683B1D1B689B69D21A3B1D1B681B681344C7F810313B1D07F10C011A68D7F81001FFF786FE034687F817313B1D07F5867207F108011B68D7F8B0
:405BC0001801FFF7B7FDD7F81C310133C7F81C313B1D1B685B683A1D1268126902FB03F2D7F81C319A429FD897F81731184607F59077BD4680BD00BF80B483B000AF134B90
:405C00007F221A70124B80221A707F23FB710CE0FB79DB0003F1804303F5F043FA79013AD2B21A70FB79013BFB71FB79002BEFD1FB79DB0003F1804303F5F04300221A7071
:405C400000BF0C37BD4680BC704700BF8981FF1F8881FF1F80B485B000AF03460A46FB711346BB710123FB60FB79172B2FD8BB79002B0ED0FB791A01184B1344FA79110135
:405C8000164A0A441278D2B242F02002D2B21A700DE0FB791A01114B1344FA7911010F4A0A441278D2B222F02002D2B21A70FB791A010A4B1344FA791101084A0A44127831
:405CC000D2B242F00102D2B21A700023FB60FB6818461437BD4680BC704700BF1070004080B485B000AF0346FB710123FB60FB79172B1DD8FB791A01104B1344FA79110121
:405D00000E4A0A441279D2B242F00402D2B21A71FB791A01094B1344FA791101074A0A441278D2B242F00102D2B21A700023FB60FB6818461437BD4680BC70471070004078
:405D400080B485B000AF03460A46FB711346BB710123FB60FB79172B1BD8FB791A01104B13441B78DBB223F00E03FB72FB791A010B4B1344BA795200D2B252B202F00E021C
:405D800051B297F90B200A4352B2D2B21A700023FB60FB6818461437BD4680BC704700BF1070004080B485B000AF0346FB710B46BB8013467B800123FB60BB8841F6FF72B0
:405DC000934202D14FF40053BB807B8841F6FF72934202D14FF400537B80FB79172B17D8FB79DB0003F1804303F5EC430433BB60BB68BA881A80FB79DB0003F1804303F525
:405E0000EC430633BB60BB687A881A800023FB60FB6818461437BD4680BC704780B485B000AF03460A46FB711346BB710123FB60FB79172B07D8FB791A01064B1344BA7980
:405E40005A720023FB60FB6818461437BD4680BC704700BF1070004090B484B000AF0446084611461A462346FB710346BB710B467B7113463B710123FB60FB79172B34D814
:405E8000FB79DB0003F1804303F5EC43BA7902F07F02D1B27A79D201D2B20A43D2B21A70FB79DB0003F1804303F5EC433A7E1201D1B23A7902F00F02D2B20A43D2B25A7097
:405EC000FB79DB0003F1804303F5EC433A7F02F00F02D2B29A70FB79DB0003F1804303F5EC430022DA700023FB60FB6818461037BD4690BC704700BF80B582B000AFFF230F
:405F0000FB7104F0A5FE0346BB71104B1B78182B12D90F4B1B78FB710C4B1B78013BDAB20A4B1A70FB79DB0003F1804303F5F0431B78DAB2064B1A70BB79184604F08CFEA8
:405F4000FB7918460837BD4680BD00BF8881FF1F8981FF1F90B484B000AF0446084611461A462346FB710346BB800B46BB711346FB700123FB6097F90730002B23DBBB8800
:405F800023F47F6323F00F039BB2002B1BD1FB79DB0003F1804303F5F043BB60BB68BA881A80FB79DB0003F1804303F5F043BA799A70FB79DB0003F1804303F5F043FA7803
:405FC000DA700023FB60FB6818461037BD4690BC704700BF80B485B000AF0346FB710B46BB8013467B800123FB6097F90730002B17DBFB79DB0003F1804303F5F043043394
:40600000BB60BB68BA881A80FB79DB0003F1804303F5F0430633BB60BB687A881A800023FB60FB6818461437BD4680BC704700BF80B582B000AF00F0E5FA4FF0FF337B6092
:4060400000F07AFC0346002B24D1012000F042FC0346072B1BD10221124800F0F7FA0346022B0DD100237B6002E0012000F0DAF90D4B1B78DBB203F00203002BF5D006E0DF
:40608000094B1B78DBB203F00203002BE3D000F087FC01E004237B607B6818460837BD4680BD00BFD8D2FF1F2247004080B582B000AF00F0A7FA00F03FFC0346002B23D116
:4060C00000F096FC78607B68072B1AD102E0012000F0A8F9104B1B78DBB203F00203002BF5D00D4B1B78DBB203F00203002B08D0094B1B78DBB29B08DBB2002B01D1002318
:406100007B6000F04DFC01E004237B607B6818460837BD4680BD00BF2247004080B582B000AFFFF7C3FF78607B68002B02D1FFF77FFF78607B6818460837BD4680BD00BFEE
:4061400080B584B000AF03463A60FB710B46BB80FB793F2B01D9102301E04FF48073FB81FB89B988F8793A6800F006F8B860BB6818461037BD4680BD80B586B000AFBA6094
:406180001A460346FB730B46BB811346FB8000237B61FB7B3F2B04D8FB7B042B01D901237B6197F90F30002B01DA01237B61FB7B3F2B04D9FB7B412B01D901237B61FB7B69
:4061C0003F2B06D8BB89B3F5807F0CD901237B6109E0BB89802B01D901237B61FB88102B01D001237B61BB68002B01D101237B617B69002B60D100F09FFB0346002B59D1BE
:40620000FB88B989F87BBA6800F0B2FA78617B69072B4CD102E0012000F004F9294B1B78DBB203F00203002BF5D0264B1B78DBB203F00203002B09D0224B1B78DBB29B0833
:40624000DBB2002B02D100237B6102E04FF0FF337B617B69002B2AD11B4B1A781A4B5B78B989F87B00F0EAFA78617B69072B1ED102E0012000F0D6F8124B1B78DBB203F093
:406280000203002BF5D00F4B1B78DBB203F00203002B09D00B4B1B78DBB29B08DBB2002B02D100237B6102E04FF0FF337B6100F077FB01E004237B617B6918461837BD46C7
:4062C00080BD00BF22470040D8D2FF1F80B582B000AF04F0BDFC0346FB71194A184B1B78DBB243F00803DBB21370164A154B1B78DBB243F00803DBB21370134BC8221A7085
:40630000124A124B1B78DBB243F01003DBB213700F4A0F4B1B78DBB243F01003DBB2137000BF0C4B1B78DBB203F02003002BF8D0FB79184604F090FC00BF0837BD4680BD36
:40634000A0430040B043004001470040AC430040BC4300400047004080B400AF094A094B1B78DBB243F00103DBB2137000BF054B1B78DBB203F00203002BF8D000BFBD467D
:4063800080BC70470247004080B400AF054A054B1B78DBB223F00103DBB2137000BFBD4680BC70470247004080B483B000AF0346FB7101BE00BF0C37BD4680BC704700BF19
:4063C00080B400AF054A054B1B78DBB243F00103DBB2137000BFBD4680BC7047F646004080B582B000AF786008E00C4B1B68184604F026FC7B68A3F500437B607B68B3F53B
:40640000004FF2D8064B1B687A6802FB03F3184604F016FC00BF0837BD4680BD9C81FF1F9481FF1F80B582B000AF0346FB80FB88054A127802FB03F3184604F001FC00BF53
:406440000837BD4680BD00BF9881FF1F80B582B000AF04F0FDFB0346FB7100BF00BF00BF00BF00BF00BF00BF00BF00BF00BF00BF00BF00BF00BF00BF00BF0A4A094B1B88B5
:406480009BB243F004039BB21380064B1B88BFF36F8FFB79184604F0DFFB00BF0837BD4680BD00BF0048004080B584B000AF03463960FB710F4B1B68FB60FB791F2B02D975
:4064C0000020FFF771FFFB7903F01F0310339B00FA6813441B68BB60FB7903F01F0310339B00FA6813443A681A60BB6818461037BD4680BD08ED00E080B582B000AF0346E0
:406500000A46FB711346BB71BB79072B02D90020FFF74AFFFB791F2B02D90020FFF744FFFB7903F01F0303F1604303F56443BA795201D2B21A7000BF0837BD4680BD00BF38
:4065400080B483B000AF7860264B1B78DBB21A467B681A60244B1B78DBB21B027A6812681A437B681A60214B1B78DBB21B047A6812681A437B681A601D4B1B78DBB21B06B3
:406580007A6812681A437B681A607B680433194A1278D2B21A60184B1B78DBB21A027B6804337968043109680A431A60134B1B78DBB21A047B6804337968043109680A432F
:4065C0001A600F4B1B78DBB21A067B6804337968043109680A431A6000BF0C37BD4680BC704700BF0301004904010049EC460040020100490101004900010049050100492B
:406600000601004980B582B000AF04F021FB0346FB710C4A0B4B1B78DBB243F00803DBB21370094A084B1B78DBB243F00803DBB21370FB79184604F00FFB00BF0837BD4630
:4066400080BD00BFA0430040B043004080B584B000AF78600B46FB700023FB7313E00120FFF7E0FE0C4B1B78DBB203F00103002BF5D0FB7B7A681344084A1278D2B21A70AC
:40668000FB7B0133FB73FA7BFB789A42EAD3FB7B18461037BD4680BD224700402047004080B485B000AF3A601A460346FB710B46BB801346BB710723FB60FB793E2B02D882
:4066C000BB791F2B05D9FB793F2B45D9BB790F2B42D8254B1B78DBB203F00203002B38D0224BB6221A70214BD4221A701F4B01221A701D4B1B78DBB203F00203002B25D18C
:406700001A4AFB791370194ABB881B0A9BB2DBB203F00103DBB21370144BBA88D2B21A70124ABB79013BDBB213700023FB7208E00E49FB7A3A6813441B780B70FB7A0133D3
:40674000FB72FA7ABB799A42F2D307E00923FB6004E00423FB6001E00123FB60FB6818461437BD4680BC7047224700402047004080B489B000AFBA601A460346FB730B463F
:40678000BB811346FB800723FB612A4B1B78DBB203F00203002B45D0274BB6221A70264BD5221A70244B02221A70224B1B78DBB203F00203002B32D11F4AFB7B137000235B
:4067C0007B8308E01C497B8BBA6813441B780B707B8B01337B837A8BFB889A42F2D3FB88B3F5807F20D1FB7B3F2B1DD8FB7B03F510331A02BB8913445B017B6100237B83AF
:4068000009E00D497A8B7B6913441B78DBB20B707B8B01337B837B8B1F2BF2D904E00923FB6101E00423FB61FB6918462437BD4680BC7047224700402047004090B484B040
:4068400000AF0446084611461A462346FB710346BB800B46BB711346FB700723FB601B4B1B78DBB203F00203002B26D0184BB6221A70174BD8221A70154B05221A70134B42
:406880001B78DBB203F00203002B13D1104AFB7913700F4ABB881B0A9BB2DBB213700C4BBA88D2B21A700A4ABB791370084AFB78137004E00923FB6001E00423FB60FB6817
:4068C00018461037BD4690BC704700BF224700402047004080B485B000AF0346FB710723FB60134B1B78DBB203F00203002B16D0104BB6221A700F4BE1221A700D4B0E22D9
:406900001A700B4B1B78DBB203F00203002B03D1084AFB79137004E00923FB6001E00423FB60FB6818461437BD4680BC704700BF224700402047004080B582B000AF0423FB
:406940007B6004F085F90346FB70124B1B78002B16D1104B01221A7000237B600E4B1B6803F00103002B0BD00B4A0B4B1B6823F00103136000BF00BF00BF084B01221A6050
:40698000FB78184604F068F97B6818460837BD4680BD00BF9083FF1F040008409483FF1F80B582B000AF04F053F90346FB710D4B00221A700C4B1B68012B0BD10B4A0B4BE4
:4069C0001B6843F00103136000BF00BF00BF064B00221A60FB79184604F03EF900BF0837BD4680BD9083FF1F9483FF1F0400084080B483B000AF07237B600C4B1B78DBB2C1
:406A000003F00203002B09D0094BB6221A70084BE0221A70064B0D221A7001E004237B607B6818460C37BD4680BC7047224700402047004080B500AF084B0F221A7000F02C
:406A400095F800F063F800F06FF8054B02221A70044B20221A7000BF80BD00BF86650040816400408264004080B582B000AF04F0EFF80346FB71134A124B1B78DBB243F0EA
:406A80002003DBB21370104A0F4B1B78DBB243F01003DBB213700D4A0C4B1B78DBB243F01003DBB21370FB79184604F0D5F800F08DF800F01FF800F023F800BF0837BD463A
:406AC00080BD00BF96650040916400409264004080B500AF064B1B78002B04D1FFF7AAFF034B01221A70FFF7BFFF00BF80BD00BF9883FF1F80B400AF00BFBD4680BC704752
:406B000080B400AF00BFBD4680BC704780B483B000AF044B1B78FB71FB7918460C37BD4680BC70476164004080B483B000AF044B1B78FB71FB7918460C37BD4680BC7047DA
:406B40006264004080B400AF01E0064B1B78064B1B78DBB203F02003002BF6D100BFBD4680BC7047526400406264004080B582B000AF01E0124B1B78124B1B78DBB203F0E6
:406B80002003002BF6D104F063F80346FB710E4A0D4B1B78DBB243F00103DBB213700A4A094B1B78DBB223F00103DBB21370FB79184604F051F800BF0837BD4680BD00BFAA
:406BC00052640040626400409264004080B400AF094A094B1B78DBB243F00203DBB21370064A064B1B78DBB243F00203DBB2137000BFBD4680BC7047A2430040B243004059
:406C000080B500AF144B02221A70144B81221A70134B08221A70134B0D221A70124B00221A70124B4FF400421A6002210F20FFF763FC0F490F20FFF737FC0E4B10221A70DD
:406C40000D4B00221A700D4B00221A700C4B00221A7000BF80BD00BFD6490040C8490040CA490040DB490040DC49004080E100E00D6E0000DAD2FF1FDED2FF1FE0D2FF1F5E
:406C8000DCD2FF1F80B582B000AF03F0E1FF0346FB710C4A0B4B1B78DBB243F00403DBB21370094A084B1B78DBB243F00403DBB21370FB79184603F0CFFF00BF0837BD46B0
:406CC00080BD00BFA5430040B543004080B500AF084B1B78002B04D1FFF792FF054B01221A70FFF7CFFF044B4FF400421A6000BF80BD00BF9983FF1F00E100E080B582B0BB
:406D000000AF384B4FF400421A60374B1B78DAB2364BDA70364B1B78DAB2344B1A71354B1B78DAB2314B5A71324B1B78DBB29BB21B029AB22E4B1B78DBB29BB213439BB24A
:406D40000133FB802C4A2C4B1B78DBB223F00103DBB21370FB88184603F072FF03F078FF03467B71254A254B1B78DBB223F00403DBB21370224A224B1B78DBB223F0040310
:406D8000DBB213707B79184603F066FF1A4A1A4B1B78DBB243F00203DBB21370124B134AD2781A70104B114AD2781A70104B0F4A12791A700F4B0D4A52791A700E4A0E4B50
:406DC0001B78DBB223F01003DBB213700D4B4FF400421A600C4B10221A7000BF0837BD4680BD00BF80E100E0CA490040A081FF1FDB490040DC490040D6490040A5430040B3
:406E0000B543004080E200E0DAD2FF1F80B582B000AFA74B1B78FB71A64B1B78DBB203F04003DBB2002B00F0A981FB7903F00103002B00F080819F4B1B78DBB2453B052BAD
:406E400000F2758101A252F823F000BF656E00008B6F00002F7100002F710000656E000077700000FB7923F02003FB71FB7903F00A03DBB2082B46D18E4B1B78DBB2452BDA
:406E80003AD18D4B1B78DBB2002B0FD08B4A8C4B1B681B78DBB21370854B04221A70894B01221A70834B46221A7044E1864B1B78DBB203F00203002B0FD0844B1B78DBB22B
:406EC00043F00A03DAB2814B1A707A4B60221A707F4B4FF400421A602DE17E4A7D4B1B78DBB243F01003DBB213707B4B10221A706F4B04221A701EE16D4B00221A706D4BBB
:406F00004A221A7017E1FB7903F00A03DBB20A2B37D16E4B1B78DBB263F05F03DAB26B4B1A70694B1B78DBB203F00203002B19D0604B1B78DBB203F00803002B01D00923FA
:406F400000E00A23DAB2614B1B78DBB21343DAB25E4B1A70574B60221A705D4B4FF400421A60E8E05B4A5B4B1B78DBB243F01003DBB21370584B10221A704D4B04221A7012
:406F8000D9E00020FFF710FAD5E0FB7903F00203002B42D14B4B1B78DAB2474B1B78DBB29A4214D2454A464B1B6846490978C9B20B441B78DBB213703D4B04221A70414B8C
:406FC0001B78DBB20133DAB23E4B1A70B3E03E4B1B78DBB203F00203002B0FD03B4B1B78DBB243F00A03DAB2384B1A70314B60221A70374B4FF400421A609CE0354A354B5D
:407000001B78DBB243F01003DBB21370324B10221A70274B04221A708DE02B4B1B78DBB203F00203002B0FD0284B1B78DBB263F06503DAB2254B1A701E4B60221A70244BC2
:407040004FF400421A6076E0224A224B1B78DBB243F01003DBB213701F4B10221A70144B04221A70194B1B78DBB263F06F03DAB2164B1A705FE0194B1B68194A1278D2B2E0
:4070800013440E4A1278D2B21A70154B1B78DBB20133DAB2124B1A70114B1B78DAB2114B1B78DBB29A421FD2014B10221A7042E0D7490040DAD2FF1FDFD2FF1FD84900401A
:4070C000E4D2FF1FDCD2FF1FDDD2FF1FDED2FF1F80E100E0D6490040D9490040E8D2FF1FE0D2FF1FECD2FF1F2C4B1B78DBB203F00203002B0FD02A4B1B78DBB243F0090362
:40710000DAB2274B1A70274B60221A70264B4FF400421A600FE0254A244B1B78DBB243F01003DBB21370224B00221A7003E00020FFF73AF900BFFB7903F02003002B28D0E5
:40714000184B1B78DBB203F00803002B01D0012300E00223DAB2124B1B78DBB21343DAB20F4B1A70114A114B1B78DBB223F01003DBB213700B4B10221A700AE0094B1B78AA
:40718000DBB203F01003DBB2002B02D1054B10221A7000BF0837BD4680BD00BFDDD2FF1FDED2FF1FDAD2FF1F80E100E0D6490040D749004080B485B000AF396011461A46DB
:4071C0000346FB710B46BB7113467B710223FB733B68002B56D02E4B1B78DBB2102B0CD12C4B1B78DBB203F00803002B02D10023FB7315E00123FB7312E0254B1B78DBB2B3
:40720000602B0DD10023FB73234B4FF400421A60224B1B78DBB223F00803DAB21F4B1A70FB7B002B2ED11A4B45221A701C4B00221A701C4ABB7913701B4A3B6813601B4AB6
