:20000000550A000000000000090C0000000000000401000000000000101000000000000047
:20002000000000000300000004020000400000000000000000000200AF0F000000000000B7
:20004000000000000000008410000300900003000100060090000300C000000020000300F9
:200060000000080000004000020001001300800013008000C1000400380000000700C0004B
:20008000020020000000010000000000000000000000000000000000000000002000040019
:2000A0000404000440000001000000000000000000000000000000000000000000000000F3
:2000C00000000000000000000003000000030300000100020300000000000000030000030B
:2000E0000300000000030000000000000103020000030300030000000000020001020001E5
:200100000000000000000000000000000000000000000000000000000000000000000800D7
:2001200004040004442000010000000000000000000000000000000000000000000000004E
:2001400000000000000000000000000000000000000000000000000000000000000000009F
:2001600000000000000000000000000000000000000000000000000000000000000000007F
:20018000000000000000000000000000000000000000000000000000000000000000080057
:2001A00004040004449000010000000000000000000000000000000000000000000000005E
:2001C00000000000000000000004400000080000104000800002880008800040002005107C
:2001E00004010000000000020010102000000001000022042000000880007C00010002FF6B
:20020000080000000000044000000000000000000000000000000000000000000000023957
:200220000404000F0440000100000000000000000000000000000000000000000000000062
:200240000000000000000000002C0000083110420000002C02C00000020000000040002F88
:2002600000240008082C1100002C040002080010002400000011008E01000231180F04C1E0
:200280000880000C0000000046000000010B000D11FF7FFF42A070000C0000000000022855
:2002A000040404041010000100094009300900000000000000000000000000000000000082
:2002C00000000000000000000000000000000000000000000000000000000000000000001E
:2002E0000000000000000000000000000000000000000000000000000000000000000000FE
:2003000000000000000000000000000000000000000000000000000000000000410000009C
:2003200004040004442000010000000000000000000000000000000000000000000000004C
:2003400000000000000000000000000000000000000000000000000000000000000000009D
:2003600000000000000000000000000000000000000000000000000000000000000000007D
:20038000000000000000000000000000000000000000000000000000000000002000040039
:2003A0000404000444200001000000000000000000000000000000000000000000000000CC
:2003C0000000000000000000000010008D00000000000000020054008D00000002000D008E
:2003E00001003200000080008D0000008D000000620008000D00800000000F00800070003A
:2004000000000800000010004602300005BFED0C1FFFFFFF2200F008040000004000040011
:2004200004040404411100010000C00040011011C0010011400140010000000000000000E3
:2004400000000000000000001C0000020100000800000004200000080010000000001C0F0E
:2004600000000201400008401000400F00000110040F4020000F00002040402003101C0F01
:200480000000000000004550000000000000000000000000000000000000000001000000C6
:2004A0000404000C09400001000000000000000000000000000000000000000000000000DE
:2004C00000000000000000002200080007001800010000000100000004000000100080003D
:2004E000400000000800210001000000010000004000000001000000400000003F00800051
:200500002200000000001000000000000000000000000000000000000000000000000800A1
:2005200004040004413000010000000000000000000000000000000000000000000000003D
:2005400000000000000000007F5880231F00200CC0400130900040000000600000009F00D6
:20056000C00008000000FF01C03404438011006200000002C00002000000000FFF70000043
:20058000000000200000100000000000000000000000000000000000000000000000080023
:2005A0000404000410300001000000000000000000000000000000000000000000000000EE
:2005C0000000000000000000000800100800000000000000000400000504000008010000E5
:2005E000000007030000010000000000000800100000000000000000021C040208010104A6
:200600002082000000005441520000000005020005FFFFFF42A0700008100000410000009D
:20062000040C040443300001004840488048804800000000000000000000000000000000CE
:20064000000000000000000000000000000000010000000400000000000000000000000095
:20066000000000000008000000000000000000000000000000000002000400010002000861
:200680000000000000000040000000000000000000000000000000000000000020000400F6
:2006A0000404000444300001000000000000000000000000000000000000000000000000B9
:2006C0000000000000000000000000000085001000850020004000850000000000000078A3
:2006E000000000000085000800000000000000000000000100000006007C00020080000167
:20070000000000000000005102052000040EBFCD3DFFFFFF2200F00C8C1000000000022CA1
:20072000040424248488083100000000000000004001C00100000000000000000000000022
:200740000000000000000000004600A9008000562440511301000E00750000000000000088
:20076000102AE05401FF02001133880C750E0030350040016400110000FF0000F0000F0095
:200780000000A00000000000000000000000000000000000000000000000000000000800B1
:2007A00004040004009000010000000000000000000000000000000000000000000000009C
:2007C0000000000000000000000140068000000040000813001220010001001A4000143322
:2007E000500001133F000000400118040F000000040008005000020000070020C0103F084E
:20080000A00000020000101000000000000000000000000000000000000003020000000011
:2008200004040004004000010000000000000000000000000000000000000000000000006B
:20084000000000000000000000000000000000000000000000000000000000000000000098
:20086000000000000000000000000000000000000000000000000000000000000000000078
:20088000000000000000000000000000000000000000000000000000000000000000000058
:2008A0000404000044000001000000000000000000000000000000000000000000000000EB
:2008C0000000000000000000000004000061000400610008041000610000000000000000D1
:2008E000000008000A00001E006100020400000000000040010000810480081F0220014091
:2009000000000000000014540306300002CBE0FD3BFFFFFF2200F00C8C1000000000022870
:20092000040424248088080100000000000000004001C00100000000000000000000000054
:20094000000000000000000000000400000200000000000008000000000000000000010088
:20096000000000000600000000080000000000040000060800000003080404010202010836
:200980000000000000001550000000000000000000000000000000000000000000000800EA
:2009A0000404000423200001000000000000000000000000000000000000000000000000E7
:2009C00000000000000000005900000149281002000300002620191418224109102F000001
:2009E0001D0122000A1F010059030000410118000710380B0020000B3C1F40000300042090
:200A00000280200000004440000000000000000000000000000000000000000000000800A8
:200A2000040400040190000100000000000000000000000000000000000000000000000018
:200A40000000000000000000033F000001180006010400003A3204081022070005227818C8
:200A6000221C0522FF0100000801071E0300004001060000C02A0710000000007F60801F1A
:200A8000808000000000100000000000000000000000000000000000000000000900040039
:200AA000040400040010000100000000000000000000000000000000000000000000000019
:200AC000000000000000000000000008000000040000040100000000000000000000010202
:200AE0000000000000000800000000000000000000000200000000000408010402010802CE
:200B00000000000000000000000000000000000000000000000000000000000000000000D5
:200B2000040400045500000100000000000000000000000000000000000000000000000053
:200B40000000000000000000000100240005000A00000062000100020000000000000010EC
:200B600000000000000F004000010002000600200008002500000080000000E0001F000051
:200B8000000000080000000000000000000000000000000000000000000000000000080045
:200BA000040400040490000100000000000000000000000000000000000000000000000094
:200BC00000000000000000000DA5004A010000B5014D009200CC02139200600440021D004D
:200BE000041AE060E2FF000000A9FF54000408003D00C2025D00A2010000000000FFFF00AF
:200C00000000000000004010000000000000000000000000000000000000F600000000008E
:200C20000404000400000001000000000000000000000000000000000000000000000000A7
:200C4000000000000000000000000000000000000000000000000000000000000000000094
:200C6000000000000000000000000000040000000000000F00000000000000000000000061
:200C8000000000080000000000000000000000000000000000000000000000030F4778007B
:200CA000000000477807000000000000000000000000000000000000000000000007000067
:200CC00000000000000000003F0114000000000000001F01330100001F0114000000000038
:200CE000150117001B011901100000000800000400000000100000800000000000000000E5
:200D00000000000000000000000000000000000000000000000000000000000000000000D3
:200D2000000000000000000000000000000000000000000000000000400000000000000073
:200D4000000000000000000000000000000000000000000000000000000000000000000093
:200D600000000000000000000000004000000000000000001000000080000000080000009B
:200D800000000000100000040000000000000000000000000020000005000000100000000A
:200DA000000000000000000007000500000000000000000000000000000000000400000023
:200DC0000000000000000000000008000000000000000800000005000000000000000000FE
:200DE00000000000000000001000000000200000014000000400000000000000000000007E
:200E00000000000000000000000000000000000000000000000000000000000000000000D2
:200E20000000000000000000000000000000000000000000000000000000000000000000B2
:200E4000000000000000000000000000000000000000000000000000000000000000000092
:200E6000000000000000000000000000104000000000000000000100800000000800000099
:200E8000000000000000010400000000000000000800000400080000000000000000000039
:200EA000000000000000000003000E00000000000000000000000000000000000000000021
:200EC000000000000000000000000000020000000000000000000000000000000000000010
:200EE0000000000000000000000000000000000000080000000400000000000000000000E6
:200F00000000000000000000000000000000000000000000000000000000000000000000D1
:200F20000000000000000000000000000000010000000000000000000000000000000000B0
:200F4000000000000000000000000000000000000000000000000000000000000000000091
:200F6000000000000000000040000000000000000000000000000000000000000808000021
:200F8000080000000000000000000000000000000000000000000000000000000000040045
:200FA000000000000000000000000C00000000000000000000000000040000000000000021
:200FC00000000000000000000000000000000000000002000000000000000000000000000F
:200FE0000000000000000000000000000000000000000000000000000000000000000000F1
:2010000040000000000000000000000000000400000000000000000000000000000000008C
:201020000000000000000000000000000000000000000000000000000000000000000000B0
:20104000000000000000000000000000000000000000000000000000000000000000000090
:201060000000000000000000400000004000000000000000000000000000000008080000E0
:20108000080000004000000000000000000000000000000000000000000000000000000008
:2010A000000000000000000000000000000008000100000000000000000000000000000027
:2010C000000000000000000000000000000000000000000000000000000000000000000010
:2010E0000000000000000000000000000000000008000000000000000000000000000000E8
:201100000000000000000000000000000000000000000000000000000000000000000000CF
:201120000000000000000000000000000000000000000000000000000000000000000000AF
:2011400000000000000000000000000000000000000000000000000000000000000000008F
:20116000000000000000000000000000000400000000000000000000000000000800000063
:2011800000000000400000000000000000000000040000000000000000000000000000000B
:2011A000000000000000000000000800000000000000000000000000000000000000000027
:2011C00000000000000000000000000000000000000000000000000000000000000000000F
:2011E0000000000000000000000000000000000000000000000000001000000000000000DF
:201200000000000000000000000000000000000000000000000000000000000000000000CE
:201220000000000000000000000000000000000000000000000000000000000000000000AE
:2012400000000002000000000000000040000000000000000000000000000000000000004C
:2012600000000000000000000000000010000000000000020000000000000000000000005C
:2012800000000000000000000000000000000000000000000000000000000000000000004E
:2012A000000000000000000000000000080000000000000000000000000000000000020024
:2012C000010000000000000004000000000000000000000000000000000000000000000009
:2012E000000000000000000000402000020448010028000880000094002A80000002022825
:20130000000000000040000000000014000000041040004402002A00C00000045000100988
:201320000008421408000198000000000000000000000000000000000000000000000000AE
:20134000000080000000202002000000000000000000000018000000000000000204280184
:20136000000000000040010000080800800080000C0501040040600002000000200002142E
:201380000000020802040801043530408008080020102004000450001800100080000000AB
:2013A0000000000000000000F500F600FE0000000000FF00FA00FF00000000000000080044
:2013C00008000000000000004000840000006000000080000000020000000000000000005F
:2013E000000000000000000046000100000100016010800000000208200000000100000881
:20140000000000008089005000000000000040A4604000000860008020004000000004841F
:2014200044000000000450000000000000000024000000000000001A0000000018000200BC
:20144000000000000000000000000000000000300000000000045080000000000000000088
:20146000000000000000000A005000000140004841000002402801080400800000000080D1
:2014800000000101402102002010000050A0440101024000400001000000040000000040BA
:2014A00000000000000000009D00CB00A40000000000BB001C007A0060002000000000004F
:2014C000400000000000300019000000800018001A000100010004000000000000000000CB
:2014E0000000000000000000200000002214020080002000A0002086080000000041380825
:20150000104104000000011044008020004050000000000000002112000008000000500561
:20152000002600000010008A000000000000000004000400000000000000000000000000E3
:2015400000410420002A004054008000000040800000000000000000000000000000000028
:20156000040020000008002000140A04001100440051005A00020000024020000000021C7B
:2015800000280000060002000031044800081020400118000100000000008000000030005C
:2015A0000000000000000000F200F500F20000000000F000F200F700000000000000FF007A
:2015C0009F00000000000000C00002004000A2009000030010000400000000000000000021
:2015E000000000000000000000010012000082028008440008000200000208080000040068
:2016000008003102000000994000000100048104010500041880008400A204000000000060
:201620004228000020080010081000000000100400000000000000000000000000000000DC
:2016400020100040002088000000400010900400000000000000000000000000000000008E
:201660000000000000000000640400000000804800041000840010000401C408480010F376
:201680000900811960005002001918042000000300000148000000000040000044A00080B0
:2016A00000000000000000009D00AF004E0000000000FF000F004F000000000000007800BB
:2016C0007800000000000000040009004C002100000043004000080000000000000000008D
:2016E0000000000000000000180101108800800200044500000401088A0020002001001085
:2017000000404400021100080000000000000905040008000040309100080120100098023C
:2017200020200400800002940030000000100400000000000000000000000000000000000B
:20174000201080008000000C0000000200000000000000000000000000000000000000004B
:2017600000000000000000020000040510000001402801008504800038098020000043189F
:20178000000001001251220BCE110086000429000000020088400001261008000008001203
:2017A0000000000000000000BF00EF007F0000000000F600F700F600000000000000180001
:2017C0000800000000001000E1000000D0002000A0000000800020000000000000000000E0
:2017E000000000000000000000000092000021000081240020040000004108084000084094
:201800000000209000000000000000000000000042000008400008002000600000002100E5
:201820000408200004A0200000101402124801000081080400000000008800200000000002
:201840000000000000000002008000A420021002000000000000000000000000000000002E
:2018600000000000000000000000480404000004110000220841000084E1C000400000F142
:201880000840A119502248000001180C0400004318800100500000000019200000000020DE
:2018A0000000000000000000AD006F00DF0000000000CD00AC00760007000C0000008000AB
:2018C000FF000000000000000000000004001A0008004300000000000000000000000000A0
:2018E0000000000000000000180101000008000064044100000090068200200000000000E5
:201900000020000002048400001400000A0006004400080018200000004000000010040120
:20192000002900000080020000000000002000000100004001040000000000000040000056
:201940000080280008002040000004060084000200000000000000000000000000000000E7
:20196000000000000000040A000001000000000100010000100000002000B022080406182A
:2019800000000000120126094031108E000009100001000000000480000000140000400004
:2019A00000000000000000002F00FF000D00000000004700E80097002000100000007E0078
:2019C0004E000000000010001000000088000400000000006000800000000000000000002D
:2019E0000000000000000000800000200400014000000082000000002000400045002000BB
:201A000088401084000000000054280400000000102100024480080800800810010000004A
:201A2000009100040400200000000081000000000800100000000000000000040000000050
:201A40000000000000000450000800000800002810514018000000000080000200000000BF
:201A60000000000000000000000140002002000000048400000100422400800248001089B1
:201A80000100A0410000400000000028040000010004200800080020080000088200000011
:201AA0000000000000000000B5000900FC0000000000FF008E006F000900040000007000F3
:201AC000420000000000000004000200080044001000020000000900000000000000000057
:201AE0000000000000000000002010002000005400090300040001000420200000001800D5
:201B0000000000000000000000115400000960540040000800004000800004000000800017
:201B20000098000020000004001100000000000000001040000000000000801900000000EF
:201B400000000000008180000001004000800508809800000000000000000000000000009E
:201B600002000010000180000004101000003000100000000030080000001000080400100A
:201B80000040000010042309402000860000090000000250800001000000010000100000F2
:201BA00000000000000000007600AD006600000000001C001A006E0005000800000080006B
:201BC000F100000000000300100008009000000000000000800011000000000000000000D8
:201BE000000000000000000002400008204400000000A40000000020010106000000284003
:201C00002448841000000000020000000000000001400118000020000A1050400108204035
:201C200080490420000008200000000000000000000000000000000000000000000000008F
:201C4000000000208000000000080000000000020A09000000000000401000000000000077
:201C600000000040000000000400212000001C10000100000000024000000000440014A96F
:201C8000000080010048684800001040040000090900000000000042000000020000040419
:201CA0000000000000000000EB002E00EB00000000002F00FF006F0000000000000014006F
:201CC000120000000000010002000D00010002000C00410000000200000000000000000090
:201CE000000000000000000000A000000036000901100500900000109000021001060600A0
:201D0000008006000020008080010200004110201800020080000000801000000000092056
:201D20000002041000822000000000000000000000000000000000000000000000000000EB
:201D4000000000500000800000400008000000000000000000005002000000000000000019
:201D60000000000000000000040001000000500808020000000040000000000000000000BC
:201D800000000400000000000000000000000000000004000000000000000000000000003B
:201DA0000000000000000000F300EB00FF00000000008700EC00B7000000000000001C0000
:201DC0000C00000000000000A0000000000042000000000000000000000000000000000015
:201DE0000000000000000000482100000048000040005208000804000840400800002A4092
:201E00000020420220000800000000000200100000482000000008080008000B0048000051
:201E2000044002A00400220000000000000000000000000000000000000000000000000096
:201E4000402000068000000008000201000080000000000000000000000000000000000011
:201E6000800000010000000000000200080100001000000400000040000000000000100072
:201E8000000000000000000000000000000000000000100000000000000000000000000032
:201EA0000000000000000000AF006F00EF00000000006E005200E7000000000000001F004F
:201EC0001D0000000000000020000C0000008900010000000000000000000000000000002F
:201EE000000000000000000000000000400000000000008000000020000000000000000002
:201F00000000000004000000000000000000000000000000000000000000000000000000BD
:201F20000000000000000000000000000000000000000000000000004000000000008000E1
:201F4000001000000000000000000000000000000000000000000000000000000000000071
:201F600000000000000000004000000000000000000000400000C01080000000040080000D
:201F8000001000000000000000000000000000000000000000000000000000000020000011
:201FA00000000000000000008000300000008000000000000000000000000000E000000011
:201FC0000000000000000000000000002000000000000000000000000000000000000000E1
:201FE0000000000000000000002000101000000000000000000000000000000000000000A1
:202000000000000000000000000000000000000000000000000000000000000000000000C0
:20202000000000000000000000000000000000000000000000000000000000800000100010
:20204000004000000000000000000000000000000000000000000000000000000000000040
:2020600000000000000000000000000000000100000010000400000080000000100081003A
:2020800000500000000000100000008000000000000080000040000100000000001000107F
:2020A0000000000000000000D000000000000000000000000000000000000000E000000070
:2020C000000000000000000000001000000000000000C00000001000000000000000000020
:2020E0000000000000000000000000000000000000000000000000000000000000000000E0
:202100000000000000000000000000000000000000000000000000000000000000000000BF
:2021200000000000000000000000000000000000000000000000000000000000000000009F
:202140000000000000000000000000000000800000000000000000000000000000000000FF
:2021600000000000000000000000000000000000000000004000000000000000100081008E
:202180000000000000008001000000800000000000000000000000000000000000000080BE
:2021A00000000000000000000000000000000000000000000000000000000000000080009F
:2021C0000000000000000000000000000000000000000000000000000000000000000000FF
:2021E0000000000000000000000000000000000000000000000000000000000000000000DF
:202200000000000000000000000000000000000000000000000000000000000000000000BE
:2022200000000000000000000000000000000000000000000000000000000000000000009E
:202240000000800000000000000000000000000000000000000000000000000000000000FE
:202260000000000000000000010000000000000400000000040000000000000016008108B6
:202280000000000000008001000000000000000000000000000000000000000010000000AD
:2022A00000000000000000000000000000000000000000000000000000000000800000009E
:2022C0000000000000000000000000000000300000000000000000000000000000000000CE
:2022E0000000000000000000000000000000000000000000000000000000000000000000DE
:2023000000000000000000000000000000000000000000000000000000004000000000007D
:202320000200000000004000000000000000000000000000000000000000008000000020BB
:2023400040000000000000100000000000000000000000000000000000000000000000002D
:202360000000000000000000000000004000080000000000000000000000401004000108B8
:202380000000000000008001000000A0000008000000002200000000000000000000008072
:2023A00000000000000000000000000000000000000000001000600000000000E0002000AD
:2023C00000000000000000000000100000001000200000000000200000000000000000009D
:2023E0000000000000000000000000000000000000000000000000000000000000040000D9
:20240000000000020000400000000000000000000000000000000000000040010000082011
:2024200000008008040000800000010000000000000000000000000000000000000000008F
:2024400000000000000000000000000000000000000000000000000000000000000000007C
:202460000000000000000000000040600000000000040010000000000000000000000000A8
:2024800000000000000000000000000000000000000000000000000000000000000000003C
:2024A0000000000000000000000000002000300000000000F000F0001000000000000000DC
:2024C00000000000000000000000A0000000800000000000000000000000000000000000DC
:2024E000000000000000000000202000000F1F00100F0F00000000004C0001020E000E00D5
:20250000C0000000FC0000FF03000000000000001E00001F010000000000000038C7C700F9
:20252000070000000C00000F0300000000000000B80006F9410001000000000000F0F0009D
:202540003000000000000D0000010A0000040000000500000000000000000000000000002A
:00000001FF
