:20000000550A000000000000060A0000000000000000000000030000040200000000000068
:200020002000000000000000080C0000400000000000000000000200EB0C00C00000000093
:20004000000000000000008400000000000007000700000000000000040003000700000000
:20006000070000000000000007000000000000000500020000000000000002000100040064
:20008000000000000000000000000000000000000000000000000000000000000000080058
:2000A0000404000444200001000000000000000000000000000000000000000000000000CF
:2000C00000000000000000000100000022000801080021004000000C100000000428000340
:2000E000402100020100000001000000072418030100000001000012080040103F20000F7B
:20010000280000000000111000000000000000000000000000000000000000000900040089
:20012000040400041110000100000000000000000000000000000000000000000000000091
:2001400000000000000000000200009F02C00004001F002002C0000100800000027F0080B5
:200160000000006000C0010200000200000000FF00C000080090004000000000010002FFC1
:20018000000000000000404026031000050ECDBF3DFFFFFF2200F00804000000400004006B
:2001A00004040404001100010000C00040011011C0010011400140010000000000000000A7
:2001C00000000000000000000000000000000000000000000000000000000000000000001F
:2001E0000000000000000000000000000000000000000000000000000000000000000000FF
:200200000000000000000000000000000000000000000000000000000000000000000000DE
:2002200004040004440000010000000000000000000000000000000000000000000000006D
:200240000000000000000000000401000000000800000004004000800080004000100020DD
:200260000008040000020000000000010001000000200210000000020400020000FF010034
:20028000000000000000001000000000000000000000000000000000000000000000080046
:2002A000040400040020000100000000000000000000000000000000000000000000000011
:2002C0000000000000000000C60000010100FE001900E600000000000000C6001700280054
:2002E0000000000042000000C60000008400000042008402C60000000000F0010F020000E2
:20030000200000000000000000000000000000000000000000000000000000002000040099
:2003200004040004412000010000000000000000000000000000000000000000000000004F
:20034000000000000000000011000000000008106000000011080000000000000165100283
:200360002300140012000100100001000E0341541D0122361104000300001C7064070308EC
:2003800020008C20000000400000000000000000000000000000000000000000000002311E
:2003A0000404000F11400001000000000000000000000000000000000000000000000000D4
:2003C00000000000000000000000000300000000000000000000000000000000000000001A
:2003E0000002000000000000000001000000000000000000000000000100000200010000F6
:20040000000000000000000400000000000000000000000000000000000000004100000097
:2004200004040004242000010000000000000000000000000000000000000000000000006B
:2004400000000000000000000000020002670018001E006000000000017E0001000000819A
:20046000002A0154000000000055002A00000200003B010000000400020001800407007836
:200480000000000000000500460200000000000000FFFFFF00A00001180000000000080051
:2004A000040404040330000140008000404080004000800040208000000000000000000098
:2004C000000000000000000000000001000000000000000000000200000002000100000016
:2004E0000000000000000500020000000200000002000000000000000000040001000201E9
:20050000000000000000500042030000004EC3021FFFFFFF00AF0701180000000100000047
:200520000404040F02400001400080004040800040008000402080000000000000000000FD
:20054000000000000000000000000000000000000100000000000001000000000100000296
:2005600000000000000000040100000000000000000000000000000000000004010100026E
:20058000200000000000100000000000000000000000000000000000000000000000080023
:2005A0000404000404300001000000000000000000000000000000000000000000000000FA
:2005C0000000000000000000000400000000000008000402040008000400080101000004EB
:2005E0000200000000080200010000100400080800020000000102000200011F0C00000097
:2006000008082000000001040000000000000000000000000000000000000000000008009D
:200620000404000440900001000000000000000000000000000000000000000000000000DD
:20064000000000000000000002000400020004010000100000000000000000000400020077
:20066000080000000200050010000000000010000000000000000800010106000800100023
:20068000000008000000500000000000000000000000000000000000000080000F00000073
:2006A0000404000440000001000000000000000000000000000000000000000000000000ED
:2006C000000000000000000000000000010000000000000000000000000000000000000019
:2006E0000000000000000000000001000000000000000000000000000000000001000000F8
:200700000000000000001000000000000000000000000000000000000000000000000800C1
:20072000040400044420000100000000000000000000000000000000000000000000000048
:20074000000000000000000000000100000000000000000000010000000000000000000196
:20076000000000000000000000000000000000000000000000000000000101000000000077
:20078000000000000000000100000000000000000000000000000000000000000F00000049
:2007A0000404000444000005000000000000000000000000000000000000000000000000E4
:2007C000000000000000000000C10012CFC030243001C9F20000000000B700409400600785
:2007E000738400109E006000FD00020000770F000000000000000008FF0000F0000F000069
:20080000000000000000010000000000000000000000000000000000000000004100000096
:2008200004040004003000010000000000000000000000000000000000000000000000007B
:2008400000000000000000000100003C00020010000000030000000000000000000200083C
:2008600000200002000000000000000000000000000000000002000401010000003E000010
:2008800000000000000001100406400002BDCF0E1FFFFFFF2200F00C8C1000002000040067
:2008A000040424048438003100000000000000004001C00100000000000000000000000019
:2008C000000000000000000000010000000100000001000000010000000000000000000014
:2008E0000000000000010000000000010000000000000001000000000000000100000000F4
:200900000000000000000000000000000000000000000000000000000000000000000800CF
:20092000040400044430000100000000000000000000000000000000000000000000000036
:20094000000000000000000002000D0011010200700000008D0000000D0080008D0000005D
:20096000020024004200080000008000000170008D0000008D0000000F00700080000001FC
:2009800000800200000014400000000000000000000000000000000000000000000002205F
:2009A000040400040110000100000000000000000000000000000000000000000000000019
:2009C000000000000000000000000000000000000000000000000000000000000000000017
:2009E0000000000000000000000000000000000000000000000000000000000000000000F7
:200A000000000000000000000403400001FBDC0E1FFFFFFF2200F00C8C10030200000000CE
:200A2000040424044448001100000000000000004001C001000000000000000000000000E7
:200A40000000000000000000000200006C00010000000F0280000008000100003704000052
:200A60005B0004016C000200000480000804010000020000000000040002700180040F0803
:200A8000080000000000101500000000000000000000000000000000000000000000022007
:200AA000040400244080082100000000000000000000000000000000000000000000000021
:200AC000000000000000000000000000000000000000000000000001000000000001000014
:200AE0000001000000010000000000000000000000000002000000000002000000000001EF
:200B000000000000000000400000000000000000000000000000000000000000000008008D
:200B20000404000434900001000000000000000000000000000000000000000000000000E4
:200B4000000000000000000004000000010000400000001E00100401000000000001030811
:200B600000010004000100020820000000000800000000200000000101000260041F08008E
:200B8000000000000000501000000000000000000000000000000000000000000000022CC7
:200BA0000E04002494800831000000000000000000000000000000000000000000000000B2
:200BC00000000000000000000000000002000000020000000400000000000000020000000B
:200BE0000000020000000200000001000001000000000000000000000401020001000000E7
:200C00000000000000000501000000000000000000000000000000000000000000000000CE
:200C2000040400004800002100000000000000000000000000000000000000000000000043
:200C40000000000000000000000000000000000000000000000000000000000000780347D2
:200C6000000000000F006F47000000000000000000000000000000000000000078000F0028
:200C800007000700000000001B0114000000000000001A00190100001F01140000000000AE
:200CA000170017001D011D00000000080002020000000000000000000000000000000000BF
:200CC000000000000000000000000000000000000000000000000000000000000000000014
:200CE0000000000000000000000000000000000000000000000000000000001000000000E4
:200D00000000000000000000000000000000000000000000000000000000000000000000D3
:200D20000000000000000000000002000000001000000000000000000000000000000000A1
:200D4000000000000002000000000000000000080000000000000000000102000000000086
:200D6000000000000000000007000000000000000000000000000000000000000400000068
:200D800000000000000000000000000000000000000000000100040000000000000000004E
:200DA000000000000000000000000000000000000000000000000000400000100000800063
:200DC000000000000000000000000000000000000000000000000000000000000000000013
:200DE0000000000000000000000000000000000000000000000000000000000000000000F3
:200E00000000000000000000000000000000000000000000000000000000000000000000D2
:200E20000001000001000000010200004000001000008000000000000000000000000000DD
:200E400000000000000000000000020000000008000000000008004000000000000002003E
:200E60000000000000000000000000000E0000000000000000000000000000000000000064
:200E8000000000000000030000000000000004000200000000000000000000000000000049
:200EA0000000000000000000000000000000000000000040000800000000000000000000EA
:200EC000000000000000000000000000000000000000000000000000000000000000000012
:200EE0000000000000000000000000000000020000000000000000000000000000000000F0
:200F00000000000000000000000000000000000000000000000000000000000000000000D1
:200F20000000000000000000000000000000000000000000000000000000000000000000B1
:200F4000000000000000000000000200000000080000000400000000000000000000000083
:200F6000000000000000000000000C00000000000000000000000000040000000000000061
:200F8000000000000000000000000000000000000000000000000000000000000000000051
:200FA000000000000000000000000000000000000000000000000000000000000000000031
:200FC00000000004000000000000000000000200000000000000000000000000000000000B
:200FE0000000000000000000000000000000000000000000000000000000000000000000F1
:201000000000000000000000000000000000000000000000000000000000000000000000D0
:2010200000000000000000000000000000000408000000000000000000000000000008009C
:20104000000000000000000000000000000000000000000000000000000000000000000090
:20106000000000000000000000000000000008000100000000000000000000000000000067
:20108000000000000000000000000000000000000000000000000000000000000000000050
:2010A000000000000000000000000000000000000000000000000000000000000000080028
:2010C00000000000000000000000000000000000000000000000000000000000020000000E
:2010E0000000000000000000000000000000000000000000000000000000000000000000F0
:201100000000000000000000000000000000000008000000000000000000000000000000C7
:201120000000000000000000000000000000000000000000000000000000000000000000AF
:2011400000000000000000000000000000000000000000000000000000000000000000008F
:2011600000000000000000000000000000000000000000000000000000000000000000006F
:20118000000008000200000000000000000000000000000000000000000000000000000045
:2011A00000000000000000000000000000000000000000000000000000000000000000002F
:2011C00000000000000000000000000000000000000000000000000000000000000000000F
:2011E0000000000000000000000000000000000000000000000000000000000000000300EC
:201200000000000000000000000000000000000000000000000000000000000000000000CE
:201220000000000000000000820800008080001405090000000000190000900000008000D9
:20124000000902104000201008080000000101000401800000000224A80000000000480056
:201260000080042005840000000000000000000000000000008002000000000000000000BF
:2012800000000000000000004000000000000000A8800000000000000000000000000000E6
:2012A00000002240000800000400812000011110048080040004004101010008C084000062
:2012C000000006140101000041406804A80090104220200010800800048000000040404C53
:2012E0000000000000000000ED00E4001C0000000000ED005E00DE000000000000000000D8
:201300000100000000004B000000A000F2000400100060008000600000000000000000009B
:20132000000000000000000010024100100003000400014404002144001000000010000075
:2013400000000001000000000401000000000020008000000400010000080020000080003A
:201360002002040010000A44040040000000000060200000000000000004600000000000C1
:20138000000200000000008060200002004000000000000000000000000000000000000009
:2013A00000000080000000000020010060C000000210800060000880300041400018000425
:2013C00000000E0002000020002810A00000280030004000808001002000000000006020CC
:2013E0000000000000000000CB00FF00420000000000A8001600F700050004000000110012
:201400001F0000000000010006004800E000050000002C00810006000000000000000000C6
:201420000000000000000000010409008411004000400028001801000000000040002000E8
:20144000000000000808010800800200210100080020000004410020A80000000020020474
:201460000080008022004000000000000000000000000000000000C000000000000000004A
:20148000008020000000000000200000010000000000000000410434000000000000000012
:2014A00000000000080080001000900000004410400000000800000404204008010081C0B6
:2014C0000C3027001200804051400800A801101800000044000000000000000010004000D9
:2014E0000000000000000000EF00E700300000000000F400EE00B8000000000000000C0040
:20150000140000000000C0008100480000003C00400012004000020000000000000000005E
:2015200000000000000000000090000000112100400008500A000600100000040000405895
:201540000000000020010010000000000000800048800210202000080400040000000000B0
:201560001000004018000010AA000800000000004000000900100020005000080000000070
:2015800000000000000000000000000000008000040090000A0000510000000000000100DB
:2015A0000000080000000000002401001008000010000004000004801000044000A891259C
:2015C0000414EA08002001710000100048008000040000010000000001000220821080005D
:2015E0000000000000000000F300FF00F400000000004F0002004C000B000000000000005D
:20160000100000000000040001000E000200A8004400020000002600000000000000000091
:20162000000000000000000000000200000203100000208100000088A80000000100082891
:201640000080280010020800020000000000001900000000004081080000000000100009CB
:20166000000000020601300000020024040200004004000204000000002840000000000053
:20168000000000400000204000000000012000000000000000000000000000000000000089
:2016A0000200000000000000010000400000060000100001000000200C00100900418100C9
:2016C0000C120E04118440011040082400290418220008400000041000000444000002007B
:2016E000000000000000000031005D00EE0000000000A000E0006100A7002000000038008E
:2017000030000000000001000000000000001000C0000000A0000400000000000000000024
:20172000000000000000000052000000001111000400014408000A008000000010100041F9
:2017400040000001001402000428000000940000000000001010A420002000000004040066
:2017600000000002800800000002400001800000000000000000000000000000000000001C
:2017800080200004000010000208800002000000000000002201000800000000800004005A
:2017A000000000000000400040040000001200040000000000110014101000408089402998
:2017C00004005A080104055100001020AA00010940040810090600002020000100000400B4
:2017E0000000000000000000FB00EF00F800000000007000440051000000000000002E00D4
:20180000120000000000800002004100000009000900040000000D000000000000000000D0
:2018200000000000000000000000000A401000004208000800084802208048040108400075
:2018400008000020301080000844040000000810000000000200044680080000000002580A
:20186000000040000080220400000000000000000000000000000000000000000000000082
:2018800004008004006800000000000208000400000000000000000000000000000000004A
:2018A0000020000800000000000020000020000800000000C10042000400100111A10518D1
:2018C000400A0844119442010240000424294C110000401000000000000010000000010039
:2018E0000000000000000000C300FF00BF0000000000F000FA00F80000000000000078000D
:20190000680000000000000040000000580002001000000020000000000000000000000095
:201920000000000000000000221000000014004000000400000A02000000001000001111DF
:20194000220080002018002000200000100014040001060B00000A0AA60000040000000471
:20196000900108401809004000000000200800000000000000000000000000000000000005
:201980000000400000000001020000005100000800000000000000000000000000000000AB
:2019A0000000000000000000800000005201000000000000110004000000041010808060BB
:2019C0000001500824140155000000001C00013200000000A040000000000400000040406D
:2019E00000000000000000007800B200F20000000000FF004F00FF000000000000008800F6
:201A0000F8000000000000000C00000008000000000000004000000000000000000000007A
:201A2000000000000000000008100000100110004400000800001A00200846000101000493
:201A400000000800000110500000000000000240400006002000800424000A0000000A00B9
:201A600020100008009086000000000000000000000000C000000000000000000000000058
:201A8000128000010224004000000009000000000000000000000000000000000002000042
:201AA0000000000000000000000000000800000100080000002184002404000001A09938D6
:201AC000000008040814064102000000002C4000000000000000000000000804000000001D
:201AE00000000000000000007600E700BF00000000007300C700E600000000000000FC00AE
:201B00000C0000000000000080000000100000003000800000000000000000000000000079
:201B2000000000000000000008002002440001505400004088000000201000080800840105
:201B40000000000000000500000000000000000250010010080088200000200600041940EA
:201B600010100040640000020200010022000800000000000004088000000000020054018F
:201B800000004000000000000000000008024020000000000000000000000000000000009B
:201BA0000000000000000000000000000000000000000000000240040000001010840140FA
:201BC0000001000034141153004010000200212000100041000800000A0000010000000061
:201BE0000000000000000000B500AF001200000000007300F700FC00700030000000080061
:201C0000F000000000000000800040004000000010000000000000000000000000000000C4
:201C2000000000000000000011001000041000204004200820101100800004000000000519
:201C40003000000000000001000001000000002440201600200400018008104000100005A6
:201C600020800008040011002008000000000000000000000000000000000000000000007F
:201C800020008A0008008010002400000000002000000000000000000000000000000000BE
:201CA0000020000000000000122000000000000000000000000000000000000000000000D2
:201CC000000000000000000000000000000000000000000000000000000000000000000004
:201CE00000000000000000006E00E7003A00000000005700EE00EE000000000000007F00A3
:201D0000460000000000040000000000000000000000000000000000000000000000000079
:201D2000000000000000000010002000001400421800004002002A008400000020000111E3
:201D40000008005000006800000000000054000014010001020000200000200020040000F3
:201D600010000040008800000000000000000000000000000000000000000000000000008B
:201D80008000000000244100020000004020100100000000000000000000000000000000EB
:201DA000808000000000000080012000400000100000000000000010000000000000000022
:201DC000000000000000000000000000000000000000000000000000000000000000000003
:201DE0000000000000000000F600FE00FA00000000005F0064005C00000000000000F800DE
:201E0000980000000000000000001400010000000000000000000000000000000000000015
:201E2000000000000000000000000000000000010004000000040000000000000000000099
:201E4000000000000000002000000000000000000000000000000000000000000000000062
:201E6000000000000000000000000000000000000000000000000000000008000400000056
:201E8000200000000000000000000000000000000000000000000000000000000000000022
:201EA000000000000000000008000000000000000004000100440000000000000048000089
:201EC00020000000080000000400080000000020000000000000000004800000000000002A
:201EE00000000000000000008000300000008000000000000000000000000000E0000000D2
:201F00000000000000000000000000000000200000000000000000000000000000000000A1
:201F2000000000000000000004000400008000000000000000000000000000000000000019
:201F4000000000000000000000000000000000000000000000000000000000000000000081
:201F600000000000000000000000000000000000000000000000000000200200010000003E
:201F8000000000000800000000000000000000000000000000000000000000000000000039
:201FA00000000000000000000000040011000000002002000000000000000000044800009E
:201FC000200000000800000000000800100000200000000000004001000800000000002038
:201FE0000000000000000000D000000000000000000000000000000000000000A000A000D1
:202000000000000000000000800010000000100000004000000040000000000000000000A0
:202020000000000000000000000000000000000000000000000000000000000000000000A0
:20204000000000000000000000000000000000000000000000000000000000000000000080
:20206000000000000000000000000000000000000000000000000000000000000000000060
:2020800000000000000400000000000000000000200C000000000000000000000000000010
:2020A000000000000000000000800800000000000000000020000000000000000440000034
:2020C0000000000008000001000000003088400000000001000000000000000000000000FE
:2020E000000000000000000000000000000000000000000000000000000000000000800060
:202100000000000000000000000020000000800000000000000020000000000000000000FF
:2021200000000000000000000000000000000000000000000000000000000000000000009F
:2021400000000000000000000000000000000000000000000000000000000000000000007F
:2021600000000000200000000000000000000000000000000000000000000000000000003F
:2021800000000000000000000000000000000000000000000000000000000000000000003F
:2021A000000000000000000000000000000000040000000000000000000000000440000ACD
:2021C00000000000080000010000000020884000000000000080000000000000040000008A
:2021E0000000000000000000000000000000000000000000000020000000000000000000BF
:2022000000000000000000000000000000001000100000000000000000000000000000009E
:2022200000000000000000000000000000000000000000000200000000000000000000009C
:2022400000000000000000000000000000000000000000000000000020000000000000005E
:202260000000000280000000000000000000000000000000000000000020000000080000B4
:202280004000000010000000000000000000000000000000000000000000000000000000EE
:2022A0000000000000000000000000000000000000080000020000041000000000400008B8
:2022C000408800000800000140200000008040040020000040000000000000008000000029
:2022E00000000000000000000000200000000000000000001000600000000000E00020004E
:2023000000000000000000000000000000000000000020000000100000000000000000008D
:2023200000000000000000002000000000800000000000000000000000000000800000007D
:2023400000080000800000000000000000000000000000000000000000800001080040002C
:2023600000000008004000080000008000000000000000000000000000000000000000008D
:2023800000000000000000000000000000000000000000000000000000000000000000003D
:2023A00000000000000000000000000010000080000000001000000000000000000000007D
:2023C0000000000000000000000000000000000000000000000000000000000000000000FD
:2023E0000000000000000000C00000002000300000000000F000E0001000000000000000ED
:2024000000000000000000001000000000001000000000000000000000000000000000009C
:20242000000000000000000020000000000F1F00001F1F00000000004C0001020E000E00A5
:20244000C0000000FC0000FF03000000000000001E00001F010000000000000038C7C700BA
:20246000070000000C00000F0300000000000000B80006F9410001000000000000F0F0005E
:202480003000000000000F0000010D000004000000050000000000000000000000000000E6
:00000001FF
