:20000000550A0000000000000C090000000000000000000000030000040100000000000064
:200020001090000000000000080C0000400000000000000000000200EB0C00C00000000013
:200040000000000000000084000010000000010000000800000000000400000008000000F7
:20006000000000000000040001000000000000000000020002000000000000001F00000058
:20008000200000000000100000000000000000000000000000000000000000000000022806
:2000A000040400244480081100000000000000000000000000000000000000000000000037
:2000C000000000000000000000000000010000000001010000010100010100000000010018
:2000E0000000000100010000010100000001000000000000010000000000000100000100F8
:200100000000000000000000000000000000000000000000000000000000000020000400BB
:2001200004040004443000010000000000000000000000000000000000000000000000003E
:20014000000000000000000000000000010002000000030002000100030000000000000093
:20016000000000000000000003000000000100000300000003000000000001000000020171
:2001800000000000000000400000000000000000000000000000000000000302000000001A
:2001A0000404000444400001000000000000000000000000000000000000000000000000AE
:2001C00000000000000000004000000000000000400000001000010000014000400000010C
:2001E0000000210000001E0201000200010004000100080000004000400000031F002000EB
:20020000000000000000110000000000000000000000000000000000000000000000023992
:200220000404000F98400011000000000000000000000000000000000000000000000000BE
:2002400000000000000000000000001E0041000400000000001000410000000000410008A1
:200260000000000000410102020000210280000002000000000002000120001F004002808F
:2002800000000000000040540201200003BEFD0C1FFFFFFF2200F00C8C10000000000800FF
:2002A000040424048498001100000000000000004001C001000000000000000000000000DF
:2002C00000000000000000000000000000000000000000000000000000000000000000001E
:2002E0000000000100000000000000000000000000000000000000000000000000000001FC
:200300000000000000000000000000000000000000000000000000000000000001000000DC
:200320000404000C3440000100000000000000000000000000000000000000000000000034
:2003400000000000000000000000000000000000000000000100000000020000000000009A
:20036000000000020000010000000000000001010000000000000000010100020000000074
:200380000000000000000104610300000000000000FFFFFF00A000011800000041000000FD
:2003A00004040404203000014000800040408000400080004020800000000000000000007C
:2003C000000000000000000000000000080000000102000000000400000200000000080004
:2003E0000002000000000000000000010400000000000300000000000102020004010800E1
:2004000000020000000050016403000000C4203E3BFFFFFF00AF07011800000000000800F1
:200420000F04040434300001400080004040800040008000402080000000000000000000DC
:200440000000000000000000000200000001000000040000030000040008040000400080C2
:200460000000000200000008000002010020001001800040001001200200010000FF040047
:20048000000000000000051000000000000000000000000000000000000000000F00000038
:2004A000040400040200000500000000000000000000000000000000000000000000000029
:2004C0000000000000000000400000000400000010000000010000000100000007001800A7
:2004E0004000000001000000010000000800210022000800010000003F00000040000000E7
:200500002200000000000100000000000000000000000000000000000000000000000000B8
:20052000040400004100000100000000000000000000000000000000000000000000000071
:200540000000000000000000100808000011004E08000000040C0300006008000911162247
:2005600000040008080C0000080C000013300C0F1D00020C080400000761000F0000181013
:20058000000282000000004000000000000000000000000000000000000000000000000097
:2005A000040400001100000100000000000000000000000000000000000000000000000021
:2005C000000000000000000000000402020000000000000000000800000000000401000006
:2005E0000002000000000000000001000000040000000201000000000102040002000801DF
:2006000000000000000014410000000000000000000000000000000000000000000008007D
:2006200004040004002000010000000000000000000000000000000000000000000000008D
:20064000000000000000000000010002000000000000000000020001080100020001000682
:2006600000000400020000000000010800000010000000000000020008030210010804042B
:20068000000000020000050002062000050CEFBD3DFFFFFF2200F00C8C1000002000040056
:2006A000040424040428000100000000000000004001C001000000000000000000000000DB
:2006C00000000000000000000000000000000000000000000000000000000000000000001A
:2006E0000000000000000000000000000000000000000000000000000000000000000000FA
:200700000000000000000000000000000000000000000000000000000000000000000800D1
:20072000040400044420000100000000000000000000000000000000000000000000000048
:200740000000000000000000000400200001005E008000460046008000000000007700080B
:2007600000C2000400C6000000C6000000000000003900060042000000800070000F00089F
:200780000020000C00000041000000000000000000000000000000000000000009000400DF
:2007A000040400041410000100000000000000000000000000000000000000000000000008
:2007C000000000000000000000000000000000000001000002000000000000000000000016
:2007E0000001000000000000000000000000010000000000000000000000020001000001F3
:20080000008000000000044000000000000000000000000000000000000080000000000094
:20082000040400044400000100000000000000000000000000000000000000000000000067
:2008400000000000000000003100C200F73B0000000000005440A00000270008000000010F
:20086000A1255212C0063408001E0721770000400002003C00000840F00000070F3C004047
:200880000000000000000040000000000000000000000000000000000000000041000000D7
:2008A00004040004002000010000000000000000000000000000000000000000000000000B
:2008C000000000000000000000000000000000010000000000000000000000000000000017
:2008E0000000000000000000000000000000000000000000000000000000000000010000F7
:200900000000000000000000000000000000000000000000000000000000000000000800CF
:200920000404000444900001000000000000000000000000000000000000000000000000D6
:20094000000000000000000000000000000000000000000000000000000000000000000097
:20096000000000000000000000000000000000000000000000000000000000000000000077
:20098000000000000000000000000000000000000000000000000000000000000000000057
:2009A0000404000044000001000000000000000000000000000000000000000000000000EA
:2009C000000000000000000020000000200000020C040208070200000004200800000F1067
:2009E00000041009080801040B1004000C0001002000001000002000100C200200010F10EB
:200A000000000002000004440000000000000000000000000000000000000000000002206A
:200A20000404002400800811000000000000000000000000000000000000000000000000F1
:200A400000000000000000000000000000000000140000000C000000000000010000200055
:200A60000200000018000000020000000000010018000000000000001C0020010100020001
:200A80008200000000000000000000000000000000000000000000000000000000000000D4
:200AA00004040000000000010000000000000000000000000000000000000000000000002D
:200AC000000000000000000000000000000000FF00C0000800C0000100C00002001F00208D
:200AE00000C0000400900040007F0080000000600000009F00800000000000FF00000000E5
:200B0000000000000000000461034000020EFDCB3DFFFFFF2200F008040000000000022CCF
:200B200004040404041100010000C00040011011C001001140014001000000000000000019
:200B4000000000000000000000000000E002005400620108000000800000EC102101023222
:200B60000002120D000D0080888D0300048D4300008D0000008D00000F700080100FE000C3
:200B80000000002000004004000000000000000000000000000000000000000040000400AD
:200BA000040400041110000100000000000000000000000000000000000000000000000007
:200BC0000000000000000000003000C9009400600000000000FD00020000000F000000001A
:200BE0000000000000000000009E006000CF0130000000000073000001000000000000FF84
:200C0000000000000000004000000000000000000000000000000000000000000F00000085
:200C20000404000404000001000000000000000000000000000000000000000000000000A3
:200C40000000000000000000000000000000000000000000000000000778000300004700CB
:200C60006F000000780000000000000000000000000000000000000000000000470000073F
:200C8000000F000F00000000170114000000000000001501130000001F01140000000000AD
:200CA00018011D01170017000040000000240000000000000000000000000000000000006B
:200CC000000000000000000000000000000000000000000000000000000000000000000014
:200CE0000000000000000000000000000000000000000000000000000400000000000000F0
:200D00000000000000000000000000000000000000000000000000000000000000000000D3
:200D2000000000000000000000400000000000000000000000040000080000000000000067
:200D4000000000000020000000000000000000000000000000000000402000000000000013
:200D6000000000000000000007000000000000000000000000000000000000000400000068
:200D8000000000000000000000000800000000000000010001000000000000000000000049
:200DA0000000000000000000000000000000000000000000000000004000080010000000DB
:200DC000000000000000000000000000000000000000000000000000000000000000000013
:200DE0000000000000000000000000000000000000000000000000000000000000000000F3
:200E00000000000000000000000000000000000000000000000000000000000000000000D2
:200E2000000000200100000001000000100000200000000000200000080000000000000038
:200E4000000000000000000000000000002008000000000000080000000000000000000062
:200E60000000000000000000000000000E0000000000000000000000000000000000000064
:200E8000000000000000030000000800000000000000000000000000000000000000000047
:200EA00000000000000000000000000000000000000000200008000000000000000000000A
:200EC000000000000000000000000000000000000000000000000000000000000000000012
:200EE0000000000000000000000000000020000000000000000000000000000000000000D2
:200F00000000000000000000000000000000000000000000000000000000000000000000D1
:200F2000000000000000000000000000000000000000000000000800080000000000002081
:200F4000000000000000000000000000000000000000000000000000000000000000000091
:200F6000000000000000000000000C00000000000000000000000000040000000000000061
:200F800000000000000000000000000000000200000000000000000000000000000000004F
:200FA000000000000000000000000000000000000000000000000000000000000000000031
:200FC000000000080000000000000000000400000000000000000000000000000000000005
:200FE0000000000000000000000000000000000000000000000000000000000000000000F1
:201000000000000000000000000000000000000000000000000000000000000000000000D0
:20102000000000000000000000000008000000000000000004000000000000000000002084
:2010400000000000000000000000000000040000000000000000000000000000000000008C
:20106000000000000000000000000000000008000100000000000000000000000000000067
:20108000000000000000000008000000000000000000000000000000000000000000000048
:2010A00000000000000000000000000000000000000000000004000000000000000000200C
:2010C0000000000000040000000000000004000000040000000000100000080000000000EC
:2010E0000000000000000000000000000000000000000000000000000000000000000000F0
:201100000000000000000000080000000000000000000000010000000000000000000000C6
:201120000000000000000000000000000000000000000000000000000000000000000000AF
:2011400000000000000000000000000000000000000000000000000000000000000000008F
:2011600000000000000000000000000000000000000000000000000000000000000000006F
:20118000000100000000000000000800000400000000000000000000000000000000000042
:2011A00000000000000000000001000000000000000000000000000000000000000000002E
:2011C00000000000000000000000000000000000000000000000000000000000000000000F
:2011E0000000000000000000000000000000000000000000000000000000000000000200ED
:201200000300000000000000000000000000000000000000000000000000000000000000CB
:201220000000000000000000002020004000200400084008200000024000000400048020B0
:201240000220400040000001000119000000000121100100000008420008510000000100FA
:2012600000104004000202880000000010002000000000000000000000000000000000005E
:20128000000000008401200000005A0000000000000000000000000000000000000000004F
:2012A0000001004000000000200001000000800100010141101002400414800C22000102DD
:2012C000F110D924000000000019300600008200040001420C000000000008008000000460
:2012E0000000000000000000E600CE007C0000000000DF008F00DE00000000000000F00082
:201300000F0000000000000000007000C000340070008000800000000000000000000000EA
:20132000000000000000000044008000024020400020020000008000010E000004418010C1
:201340000801080000000000002860100000100000910800004120000028810004001042DB
:201360008004000000000400000000000000000000000000000000000000000000000000E5
:201380000000900800180280000008005000000000000000000000000000000000000000C3
:2013A0000000000000000000040980000040100001200000C4111101825106000000081255
:2013C0000080289A504000000004C8008000300010240100008000080000010848808000B1
:2013E0000000000000000000BD001300DD0000000000BF00FF004A00000000000000FE003A
:20140000C200000000000000010020000900040000008C00880001000000000000000000C7
:201420000000000000000000004080046000000000000082000405001000002000002801A4
:201440000000000040001A02000004000000001040800218000000002118410000000001C7
:201460008020000400000000080A02000000000000240000000000000001500C0000000033
:2014800000000000000000000001000000200004A0A0820000000000400000000000000025
:2014A0002020000000000000010020000004000050100200000004000044048480AA9802D1
:2014C0005481812500040050001B3010A000800A8000000000000050205100000210000065
:2014E0000000000000000000CB00E9007600000000000F008F000E000F0004000000000003
:201500000100000000000000010070000800220090004200800000000000000000000000DD
:20152000000000000000000000044108024200000801000600008000822020000441201054
:20154000000502000000000040900804000000000020020000010000000994000402500092
:20156000802008000040200000000000000000000000000000000000000000000000000063
:2015800000000000000000000000000100000000008800440000000000000000000000007E
:2015A000100000100000000000000080001000100000400200001010824504012088000095
:2015C00000006A105004004402110000000800100404000008010009110000000040000261
:2015E00000000000000000009F001F00FF00000000008500FF003E0000000000000000006C
:2016000008000000000006000D0000000800260000000A0003000000000000000000000074
:201620000000000000000000008200284000000000488800010000008800010410011440FD
:2016400000020030000062000000000008000000000000400014004100108004001086240B
:2016600000001082004081980200010000000000000000000000000000000000000000007C
:201680000000000024004002000000000000002800000000000000000000000000000000BC
:2016A0000000000000000002080000010000210000000005200004004404069488AB900030
:2016C0004591110288040010081B0644A04081000000200010000000000010000000022055
:2016E00000000000000000008F001F00DF0000000000F100FE00FD00000000000000F00081
:201700006000000000001000C0000000300040004000800010000000000000000000000059
:20172000000000000000000014000100000000010004000000000002000008040000100071
:201740001020020240000000000100848000002000000100000008000000022000002001A4
:20176000200000000000000000090000000804A018008000080004000000022800000000C6
:201780002001800848002000000031120000040000000000000000000000000000000000F1
:2017A00020204000000000000500500000000000000083000008002008240C0102C9201075
:2017C00000016A1B50200044031558000000223200000010000008000000040001020000EC
:2017E0000000000000000000870084002600000000004100A50004005300240000007F00D8
:201800004F000000000001000000200000004600000000000100020000000000000000000F
:201820000000000000000000001040020022001900488000000010008800010400090400A9
:20184000008100024400210100880100000000420080411800080404A0080100000028001A
:201860000082000400000200000000000000000000000000080004200000000000000000B4
:2018800000200020A00000080000000015000000000000000000000000000000000000004B
:2018A0000030000800000000020004440008000440000600000000410004089488A2010048
:2018C00020121101090C402000130C00A28881040000040180000000400400100000004A5E
:2018E0000000000000000000BB002D007F00000000002F006F008B000000000000007000E8
:2019000070000000000000000000400020000100A000100080004000000000000000000086
:201920000000000000000000000905000208040001202100000040008A24400001412000B9
:201940000100400000000000109100010000000140000010000000000000004400002000EF
:20196000008A00000000000050900002000000000002100000000000040000500000000095
:20198000000080004000000000008000000000000000000000000000000000000000000007
:2019A00010000000008000000030421000000020000004480000020000048500008840B0A6
:2019C00000192502002000548B4548000000800200000080000000000500010000050080AE
:2019E00000000000000000007F001F00BF000000000003002A000B000E000000000018002C
:201A00000800000000001400050000000C0001000000400000000200000000000000000056
:201A2000000000000000000004008000800001000C00048000000288020010004100000034
:201A4000000000000400085500000000400108090010000000080200060180000000000929
:201A6000044010804000010000000000000000200000000000A01000000000000010004A27
:201A80002000204010210000000000018000040A0000000000000000000000000000000006
:201AA00000010040008000000400800400100000000000408080020010000C0408F2002051
:201AC000001210000405410400420000A08884000000001000001000008000010000000007
:201AE00000000000000000000C00DE00950000000000C400CB009E00200030000000880062
:201B0000F80000000000100040000000400080000000040080002200000000000000000017
:201B200000000000000000000040004400802C0014000280010000008804020000004210FE
:201B400004010200000400800000080002000000000000004000201000028802018800006B
:201B600000000000000048000000000000000000000000000000000000000000000000001D
:201B800020000000000000800018200000000000150005000080A000001000030000000020
:201BA00004A8420000000000001833012002100010004000040400000064800002006130EA
:201BC00041800400002841008A080000101020000000402000000440000800020000000057
:201BE0000000000000000000EB001F00DF0000000000E000DB0050000000000000001400DD
:201C00000200000000000500610014000800040002000000800002000000000000000000B8
:201C20000000000000000000080000000091100001000020040008000448900200400006AA
:201C4000000000001810040000064504000000010800410004000400A00800000101841079
:201C600000AA00010058000000000000000000000000000000000000000000000000000061
:201C80000004822008000004408000000000000000000000000000000000000000020000D0
:201CA000000000000000000004000021000004000440000050000000000000000000000067
:201CC000000000000000000000000000000000000000000000000000000000000000000004
:201CE0000000000000000000F4006C00BF00000000006D00FE007F000000000000000F00CC
:201D00000900000000000000040050002000800000000000000000000000000000000000C6
:201D20000000000000000000200021400018050002006500010400004120500002004000A6
:201D400000100400000000800000000000000020820801004008000001100000811000005A
:201D6000020070010000600000000000000000000000000000000000000000000000000090
:201D8000000000000000000200000020002000918A440000000000000000000000000000A2
:201DA00000200002000000000000004001000000009420920000001000000000000000006A
:201DC000000000000000000000000000000000000000000000000000000000000000000003
:201DE0000000000000000000EF003F009F0000000000CB00B5003C000000000000008000DA
:201E0000F200000000000C000400C2002000010000000000000000000000000000000000DD
:201E2000000000000000000000000000000008000100000002000000000000000000000097
:201E4000000000000000004000000000000000000000000000000000000000000000000042
:201E600000000000000000000000000000000000000000000000000000012000040000003D
:201E8000000000000000000000000000000000000000000000000000000000000000000042
:201EA0000000000000000000000000000000000000010000000000000000000000000080A1
:201EC000000000000100080004002000020000000000000000020000010000400000000090
:201EE00000000000000000008000300000008000000000000000000000000000E0000000D2
:201F00000000000000000000000000000000000000000000100000000000000000000000B1
:201F200000000000000000000002040000400000000000000000000000000000000000005B
:201F4000000000000000000000000000000000000000000000000000000000000000000081
:201F60000000000000000000000000000000000000000000000000000001008001000000DF
:201F8000000000000000000000000000000000000000000000000000000000000000000041
:201FA000000000000000000000000580004100000000000400000000000000000000000453
:201FC0000000010001000800040020000200000002000000000000010000000000000000CE
:201FE0000000000000000000D000000000000000000000000000000000000000A000200051
:202000000000000000000000A0000000100060002000400000000000000000000000000050
:20202000000000000000000000000000000020000400000000000040000000000000000438
:20204000000001000100080100000000020000400000010000000000000000000000000032
:20206000000000000000000000000000000000000000000000000000000000000000000060
:20208000000000000000000000000000000040000000000000008000000000000000000080
:2020A000000000000000000000000000000000000000000000000000000000000000000020
:2020C000000000000000000000000000000000000000000000000000000000000000000000
:2020E00000000000000000800000000000000000000000000000000002000000000000005E
:202100000000000000000000000000000000000000000000000000000000000000000000BF
:2021200000000000000000000400000000000000000000000000000000000000080000048F
:202140000000010001000801000000000200010008000000000100000000000000008000E8
:202160000000000000000000000000000000000000000000000020000000000080000000BF
:202180000000000000000000000000000000800080000000000040000000000000000000FF
:2021A000000000000000000000000000000000000000000008000000000000000000000017
:2021C0000000000000000000000000000000000000000000000000000000001000000000EF
:2021E000080000000000400000000000000000000000000000000000000080000000001007
:2022000000000080001000000000000000000000020000100000000000000000000000001C
:2022200000000100000000000000000020000000000008000040001000504000000200048F
:2022400000000180010000010000000022000100000000880000201002000000000000001E
:2022600000000000000000000000200000000000000000001000600000000000E0002000CE
:2022800000000000800000000000400000000000000090008000400000000000000000002E
:2022A0000000000000000000004000000000010000000000000000000000000000000008D5
:2022C000000000080000400000000000000000000000000000000000200000010000210074
:2022E0000002000000000014000000200000000000000000000000000000000000000000A8
:202300000000000000000000000000000000000000000000000000000000000000000000BD
:20232000000000000000000000000008000000000110000000000020000000000000000064
:2023400000000000000000000000000000000000000000000000000000000000000000007D
:202360000000000000000000C00000002000300000000000F000E00010000000000000006D
:2023800000000000000000002000000000000000000000000000000000000000000000001D
:2023A000000000000000000020000000000F1F00001F1F00100000004C0001020E000E0016
:2023C000C0000000FC0000FF03000000000000001E00001F010000000000000038C7C7003B
:2023E000070000000C00000F0300000000000000B80006F9410001000000000000F0F000DF
:20240000B00000000000080000010A000004000000050000000000000000000000000000F0
:00000001FF
